{
  "contracts/libraries/pengoConverter.sol": {
    "PengoConverter": {
      "abi": [
        {
          "inputs": [
            {
              "internalType": "uint256[]",
              "name": "pixels",
              "type": "uint256[]"
            },
            {
              "internalType": "string[]",
              "name": "colors",
              "type": "string[]"
            }
          ],
          "name": "reconstructHexString",
          "outputs": [
            {
              "internalType": "string",
              "name": "",
              "type": "string"
            }
          ],
          "stateMutability": "pure",
          "type": "function"
        }
      ],
      "evm": {
        "bytecode": {
          "linkReferences": {},
          "object": "608060405234601d576040516108b96100238239308150506108b990f35b600080fdfe6080604052600436101561001257600080fd5b60003560e01c6372565e23036100925761029d565b634e487b7160e01b600052604160045260246000fd5b90601f01601f1916810190811067ffffffffffffffff82111761005f57604052565b610027565b9061007861007160405190565b928361003d565b565b67ffffffffffffffff811161005f5760208091020190565b600080fd5b909291926100ac6100a78261007a565b610064565b938185526020808601920283019281841161009257915b8383106100d05750505050565b82358152602092830192016100c3565b9080601f83011215610092578160206100fb93359101610097565b90565b67ffffffffffffffff811161005f57602090601f01601f19160190565b0190565b90826000939282370152565b9092919261013b6100a7826100fe565b93818552818301116100925761007891602085019061011f565b9080601f83011215610092578160206100fb9335910161012b565b92919061017f6100a78261007a565b93818552602080860192028101918383116100925781905b8382106101a5575050505050565b813567ffffffffffffffff8111610092576020916101c68784938701610155565b815201910190610197565b9080601f83011215610092578160206100fb93359101610170565b91909160408184031261009257803567ffffffffffffffff811161009257836102169183016100e0565b92602082013567ffffffffffffffff8111610092576100fb92016101d1565b60005b8381106102485750506000910152565b8181015183820152602001610238565b61027961028260209361011b9361026d815190565b80835293849260200190565b95869101610235565b601f01601f191690565b60208082526100fb92910190610258565b6102c06102b46102ae3660046101ec565b90610488565b6040519182918261028c565b0390f35b6100fb6100fb6100fb9290565b634e487b7160e01b600052601260045260246000fd5b906102f1565b9190565b9081156102fc570690565b6102d1565b1561030857565b60405162461bcd60e51b8152602060048201526012602482015271496e76616c696420706978656c206461746160701b6044820152606490fd5b634e487b7160e01b600052601160045260246000fd5b81156102fc570490565b1561036957565b60405162461bcd60e51b815260206004820152601860248201527f506978656c20616e6420636f6c6f72206d69736d6174636800000000000000006044820152606490fd5b818102929181159184041417156103c157565b610342565b634e487b7160e01b600052603260045260246000fd5b906103e5825190565b8110156103f6576020809102010190565b6103c6565b6104086100fb6100fb9290565b60ff1690565b61042461041e6100fb9260ff1690565b60f81b90565b6001600160f81b03191690565b919082018092116103c157565b0180926001600160f81b0319169052565b61011b61046792602092610461815190565b94859290565b93849101610235565b916104826100fb94936104829361044f565b9061044f565b8051916104b66104a360049461049d866102c4565b906102e7565b6104b06102ed60006102c4565b14610301565b6104e76104c1825190565b6104e16102ed6100fb6104d2875190565b6104db896102c4565b90610358565b14610362565b6060926104f460006102c4565b935b6105016100fb845190565b85101561068f57610511826102c4565b61051b90866103ae565b61052590856103dc565b5161052f906103fb565b6105389061040e565b610541836102c4565b61054b90876103ae565b61055560016102c4565b61055e91610431565b61056890866103dc565b51610572906103fb565b61057b9061040e565b610584846102c4565b61058e90886103ae565b61059860026102c4565b6105a191610431565b6105ab90876103dc565b516105b5906103fb565b6105be9061040e565b906105c8856102c4565b6105d290896103ae565b6105dc60036102c4565b6105e591610431565b6105ef90886103dc565b516105f9906103fb565b6106029061040e565b9261060c60405190565b938493602085019361063e93859261043e600161011b9461043e828861043e829b9a83996001600160f81b0319169052565b90810382520361064e908261003d565b61065886856103dc565b519061066360405190565b92839260208401926106759284610470565b908103825203610685908261003d565b93600101936104f6565b925050506100fb9150610768565b906106aa6100a7836100fe565b918252565b6106b9601061069d565b6f181899199a1a9b1b9c1ca0a121a222a360811b602082015290565b6100fb6106af565b369037565b906100786106f86106f28461069d565b936100fe565b601f1901602084016106dd565b9061070e825190565b8110156103f6570160200190565b6104086100fb6100fb9260ff1690565b6100fb9060f81c61071c565b6104089061075361074c6100fb9460ff1690565b9160ff1690565b901c90565b6100fb6100fb6100fb9260ff1690565b906107716106d5565b6002610795610790610781865190565b61078b60026102c4565b6103ae565b6106e2565b916000946107a360006102c4565b6107ae6100fb835190565b81101561087657806108036107d56107fd6107f86107e86107e36107d5610871988a610705565b516001600160f81b03191690565b61072c565b6107f260046103fb565b90610738565b610758565b86610705565b61081d6108138361078b896102c4565b918a1a9188610705565b536108476107d56107fd6108376107e36107d58689610705565b610841600f6103fb565b16610758565b61086a61081361085a8461078b8a6102c4565b61086460016102c4565b90610431565b5360010190565b6107a3565b505050506100fb9192509056fea264697066735822122030e3521570847535ebf7e622950517d9339832e53f45a7254ec435baa6ab5de064736f6c634300081b0033",
          "opcodes": "PUSH1 0x80 PUSH1 0x40 MSTORE CALLVALUE PUSH1 0x1D JUMPI PUSH1 0x40 MLOAD PUSH2 0x8B9 PUSH2 0x23 DUP3 CODECOPY ADDRESS DUP2 POP POP PUSH2 0x8B9 SWAP1 RETURN JUMPDEST PUSH1 0x0 DUP1 REVERT INVALID PUSH1 0x80 PUSH1 0x40 MSTORE PUSH1 0x4 CALLDATASIZE LT ISZERO PUSH2 0x12 JUMPI PUSH1 0x0 DUP1 REVERT JUMPDEST PUSH1 0x0 CALLDATALOAD PUSH1 0xE0 SHR PUSH4 0x72565E23 SUB PUSH2 0x92 JUMPI PUSH2 0x29D JUMP JUMPDEST PUSH4 0x4E487B71 PUSH1 0xE0 SHL PUSH1 0x0 MSTORE PUSH1 0x41 PUSH1 0x4 MSTORE PUSH1 0x24 PUSH1 0x0 REVERT JUMPDEST SWAP1 PUSH1 0x1F ADD PUSH1 0x1F NOT AND DUP2 ADD SWAP1 DUP2 LT PUSH8 0xFFFFFFFFFFFFFFFF DUP3 GT OR PUSH2 0x5F JUMPI PUSH1 0x40 MSTORE JUMP JUMPDEST PUSH2 0x27 JUMP JUMPDEST SWAP1 PUSH2 0x78 PUSH2 0x71 PUSH1 0x40 MLOAD SWAP1 JUMP JUMPDEST SWAP3 DUP4 PUSH2 0x3D JUMP JUMPDEST JUMP JUMPDEST PUSH8 0xFFFFFFFFFFFFFFFF DUP2 GT PUSH2 0x5F JUMPI PUSH1 0x20 DUP1 SWAP2 MUL ADD SWAP1 JUMP JUMPDEST PUSH1 0x0 DUP1 REVERT JUMPDEST SWAP1 SWAP3 SWAP2 SWAP3 PUSH2 0xAC PUSH2 0xA7 DUP3 PUSH2 0x7A JUMP JUMPDEST PUSH2 0x64 JUMP JUMPDEST SWAP4 DUP2 DUP6 MSTORE PUSH1 0x20 DUP1 DUP7 ADD SWAP3 MUL DUP4 ADD SWAP3 DUP2 DUP5 GT PUSH2 0x92 JUMPI SWAP2 JUMPDEST DUP4 DUP4 LT PUSH2 0xD0 JUMPI POP POP POP POP JUMP JUMPDEST DUP3 CALLDATALOAD DUP2 MSTORE PUSH1 0x20 SWAP3 DUP4 ADD SWAP3 ADD PUSH2 0xC3 JUMP JUMPDEST SWAP1 DUP1 PUSH1 0x1F DUP4 ADD SLT ISZERO PUSH2 0x92 JUMPI DUP2 PUSH1 0x20 PUSH2 0xFB SWAP4 CALLDATALOAD SWAP2 ADD PUSH2 0x97 JUMP JUMPDEST SWAP1 JUMP JUMPDEST PUSH8 0xFFFFFFFFFFFFFFFF DUP2 GT PUSH2 0x5F JUMPI PUSH1 0x20 SWAP1 PUSH1 0x1F ADD PUSH1 0x1F NOT AND ADD SWAP1 JUMP JUMPDEST ADD SWAP1 JUMP JUMPDEST SWAP1 DUP3 PUSH1 0x0 SWAP4 SWAP3 DUP3 CALLDATACOPY ADD MSTORE JUMP JUMPDEST SWAP1 SWAP3 SWAP2 SWAP3 PUSH2 0x13B PUSH2 0xA7 DUP3 PUSH2 0xFE JUMP JUMPDEST SWAP4 DUP2 DUP6 MSTORE DUP2 DUP4 ADD GT PUSH2 0x92 JUMPI PUSH2 0x78 SWAP2 PUSH1 0x20 DUP6 ADD SWAP1 PUSH2 0x11F JUMP JUMPDEST SWAP1 DUP1 PUSH1 0x1F DUP4 ADD SLT ISZERO PUSH2 0x92 JUMPI DUP2 PUSH1 0x20 PUSH2 0xFB SWAP4 CALLDATALOAD SWAP2 ADD PUSH2 0x12B JUMP JUMPDEST SWAP3 SWAP2 SWAP1 PUSH2 0x17F PUSH2 0xA7 DUP3 PUSH2 0x7A JUMP JUMPDEST SWAP4 DUP2 DUP6 MSTORE PUSH1 0x20 DUP1 DUP7 ADD SWAP3 MUL DUP2 ADD SWAP2 DUP4 DUP4 GT PUSH2 0x92 JUMPI DUP2 SWAP1 JUMPDEST DUP4 DUP3 LT PUSH2 0x1A5 JUMPI POP POP POP POP POP JUMP JUMPDEST DUP2 CALLDATALOAD PUSH8 0xFFFFFFFFFFFFFFFF DUP2 GT PUSH2 0x92 JUMPI PUSH1 0x20 SWAP2 PUSH2 0x1C6 DUP8 DUP5 SWAP4 DUP8 ADD PUSH2 0x155 JUMP JUMPDEST DUP2 MSTORE ADD SWAP2 ADD SWAP1 PUSH2 0x197 JUMP JUMPDEST SWAP1 DUP1 PUSH1 0x1F DUP4 ADD SLT ISZERO PUSH2 0x92 JUMPI DUP2 PUSH1 0x20 PUSH2 0xFB SWAP4 CALLDATALOAD SWAP2 ADD PUSH2 0x170 JUMP JUMPDEST SWAP2 SWAP1 SWAP2 PUSH1 0x40 DUP2 DUP5 SUB SLT PUSH2 0x92 JUMPI DUP1 CALLDATALOAD PUSH8 0xFFFFFFFFFFFFFFFF DUP2 GT PUSH2 0x92 JUMPI DUP4 PUSH2 0x216 SWAP2 DUP4 ADD PUSH2 0xE0 JUMP JUMPDEST SWAP3 PUSH1 0x20 DUP3 ADD CALLDATALOAD PUSH8 0xFFFFFFFFFFFFFFFF DUP2 GT PUSH2 0x92 JUMPI PUSH2 0xFB SWAP3 ADD PUSH2 0x1D1 JUMP JUMPDEST PUSH1 0x0 JUMPDEST DUP4 DUP2 LT PUSH2 0x248 JUMPI POP POP PUSH1 0x0 SWAP2 ADD MSTORE JUMP JUMPDEST DUP2 DUP2 ADD MLOAD DUP4 DUP3 ADD MSTORE PUSH1 0x20 ADD PUSH2 0x238 JUMP JUMPDEST PUSH2 0x279 PUSH2 0x282 PUSH1 0x20 SWAP4 PUSH2 0x11B SWAP4 PUSH2 0x26D DUP2 MLOAD SWAP1 JUMP JUMPDEST DUP1 DUP4 MSTORE SWAP4 DUP5 SWAP3 PUSH1 0x20 ADD SWAP1 JUMP JUMPDEST SWAP6 DUP7 SWAP2 ADD PUSH2 0x235 JUMP JUMPDEST PUSH1 0x1F ADD PUSH1 0x1F NOT AND SWAP1 JUMP JUMPDEST PUSH1 0x20 DUP1 DUP3 MSTORE PUSH2 0xFB SWAP3 SWAP2 ADD SWAP1 PUSH2 0x258 JUMP JUMPDEST PUSH2 0x2C0 PUSH2 0x2B4 PUSH2 0x2AE CALLDATASIZE PUSH1 0x4 PUSH2 0x1EC JUMP JUMPDEST SWAP1 PUSH2 0x488 JUMP JUMPDEST PUSH1 0x40 MLOAD SWAP2 DUP3 SWAP2 DUP3 PUSH2 0x28C JUMP JUMPDEST SUB SWAP1 RETURN JUMPDEST PUSH2 0xFB PUSH2 0xFB PUSH2 0xFB SWAP3 SWAP1 JUMP JUMPDEST PUSH4 0x4E487B71 PUSH1 0xE0 SHL PUSH1 0x0 MSTORE PUSH1 0x12 PUSH1 0x4 MSTORE PUSH1 0x24 PUSH1 0x0 REVERT JUMPDEST SWAP1 PUSH2 0x2F1 JUMP JUMPDEST SWAP2 SWAP1 JUMP JUMPDEST SWAP1 DUP2 ISZERO PUSH2 0x2FC JUMPI MOD SWAP1 JUMP JUMPDEST PUSH2 0x2D1 JUMP JUMPDEST ISZERO PUSH2 0x308 JUMPI JUMP JUMPDEST PUSH1 0x40 MLOAD PUSH3 0x461BCD PUSH1 0xE5 SHL DUP2 MSTORE PUSH1 0x20 PUSH1 0x4 DUP3 ADD MSTORE PUSH1 0x12 PUSH1 0x24 DUP3 ADD MSTORE PUSH18 0x496E76616C696420706978656C2064617461 PUSH1 0x70 SHL PUSH1 0x44 DUP3 ADD MSTORE PUSH1 0x64 SWAP1 REVERT JUMPDEST PUSH4 0x4E487B71 PUSH1 0xE0 SHL PUSH1 0x0 MSTORE PUSH1 0x11 PUSH1 0x4 MSTORE PUSH1 0x24 PUSH1 0x0 REVERT JUMPDEST DUP2 ISZERO PUSH2 0x2FC JUMPI DIV SWAP1 JUMP JUMPDEST ISZERO PUSH2 0x369 JUMPI JUMP JUMPDEST PUSH1 0x40 MLOAD PUSH3 0x461BCD PUSH1 0xE5 SHL DUP2 MSTORE PUSH1 0x20 PUSH1 0x4 DUP3 ADD MSTORE PUSH1 0x18 PUSH1 0x24 DUP3 ADD MSTORE PUSH32 0x506978656C20616E6420636F6C6F72206D69736D617463680000000000000000 PUSH1 0x44 DUP3 ADD MSTORE PUSH1 0x64 SWAP1 REVERT JUMPDEST DUP2 DUP2 MUL SWAP3 SWAP2 DUP2 ISZERO SWAP2 DUP5 DIV EQ OR ISZERO PUSH2 0x3C1 JUMPI JUMP JUMPDEST PUSH2 0x342 JUMP JUMPDEST PUSH4 0x4E487B71 PUSH1 0xE0 SHL PUSH1 0x0 MSTORE PUSH1 0x32 PUSH1 0x4 MSTORE PUSH1 0x24 PUSH1 0x0 REVERT JUMPDEST SWAP1 PUSH2 0x3E5 DUP3 MLOAD SWAP1 JUMP JUMPDEST DUP2 LT ISZERO PUSH2 0x3F6 JUMPI PUSH1 0x20 DUP1 SWAP2 MUL ADD ADD SWAP1 JUMP JUMPDEST PUSH2 0x3C6 JUMP JUMPDEST PUSH2 0x408 PUSH2 0xFB PUSH2 0xFB SWAP3 SWAP1 JUMP JUMPDEST PUSH1 0xFF AND SWAP1 JUMP JUMPDEST PUSH2 0x424 PUSH2 0x41E PUSH2 0xFB SWAP3 PUSH1 0xFF AND SWAP1 JUMP JUMPDEST PUSH1 0xF8 SHL SWAP1 JUMP JUMPDEST PUSH1 0x1 PUSH1 0x1 PUSH1 0xF8 SHL SUB NOT AND SWAP1 JUMP JUMPDEST SWAP2 SWAP1 DUP3 ADD DUP1 SWAP3 GT PUSH2 0x3C1 JUMPI JUMP JUMPDEST ADD DUP1 SWAP3 PUSH1 0x1 PUSH1 0x1 PUSH1 0xF8 SHL SUB NOT AND SWAP1 MSTORE JUMP JUMPDEST PUSH2 0x11B PUSH2 0x467 SWAP3 PUSH1 0x20 SWAP3 PUSH2 0x461 DUP2 MLOAD SWAP1 JUMP JUMPDEST SWAP5 DUP6 SWAP3 SWAP1 JUMP JUMPDEST SWAP4 DUP5 SWAP2 ADD PUSH2 0x235 JUMP JUMPDEST SWAP2 PUSH2 0x482 PUSH2 0xFB SWAP5 SWAP4 PUSH2 0x482 SWAP4 PUSH2 0x44F JUMP JUMPDEST SWAP1 PUSH2 0x44F JUMP JUMPDEST DUP1 MLOAD SWAP2 PUSH2 0x4B6 PUSH2 0x4A3 PUSH1 0x4 SWAP5 PUSH2 0x49D DUP7 PUSH2 0x2C4 JUMP JUMPDEST SWAP1 PUSH2 0x2E7 JUMP JUMPDEST PUSH2 0x4B0 PUSH2 0x2ED PUSH1 0x0 PUSH2 0x2C4 JUMP JUMPDEST EQ PUSH2 0x301 JUMP JUMPDEST PUSH2 0x4E7 PUSH2 0x4C1 DUP3 MLOAD SWAP1 JUMP JUMPDEST PUSH2 0x4E1 PUSH2 0x2ED PUSH2 0xFB PUSH2 0x4D2 DUP8 MLOAD SWAP1 JUMP JUMPDEST PUSH2 0x4DB DUP10 PUSH2 0x2C4 JUMP JUMPDEST SWAP1 PUSH2 0x358 JUMP JUMPDEST EQ PUSH2 0x362 JUMP JUMPDEST PUSH1 0x60 SWAP3 PUSH2 0x4F4 PUSH1 0x0 PUSH2 0x2C4 JUMP JUMPDEST SWAP4 JUMPDEST PUSH2 0x501 PUSH2 0xFB DUP5 MLOAD SWAP1 JUMP JUMPDEST DUP6 LT ISZERO PUSH2 0x68F JUMPI PUSH2 0x511 DUP3 PUSH2 0x2C4 JUMP JUMPDEST PUSH2 0x51B SWAP1 DUP7 PUSH2 0x3AE JUMP JUMPDEST PUSH2 0x525 SWAP1 DUP6 PUSH2 0x3DC JUMP JUMPDEST MLOAD PUSH2 0x52F SWAP1 PUSH2 0x3FB JUMP JUMPDEST PUSH2 0x538 SWAP1 PUSH2 0x40E JUMP JUMPDEST PUSH2 0x541 DUP4 PUSH2 0x2C4 JUMP JUMPDEST PUSH2 0x54B SWAP1 DUP8 PUSH2 0x3AE JUMP JUMPDEST PUSH2 0x555 PUSH1 0x1 PUSH2 0x2C4 JUMP JUMPDEST PUSH2 0x55E SWAP2 PUSH2 0x431 JUMP JUMPDEST PUSH2 0x568 SWAP1 DUP7 PUSH2 0x3DC JUMP JUMPDEST MLOAD PUSH2 0x572 SWAP1 PUSH2 0x3FB JUMP JUMPDEST PUSH2 0x57B SWAP1 PUSH2 0x40E JUMP JUMPDEST PUSH2 0x584 DUP5 PUSH2 0x2C4 JUMP JUMPDEST PUSH2 0x58E SWAP1 DUP9 PUSH2 0x3AE JUMP JUMPDEST PUSH2 0x598 PUSH1 0x2 PUSH2 0x2C4 JUMP JUMPDEST PUSH2 0x5A1 SWAP2 PUSH2 0x431 JUMP JUMPDEST PUSH2 0x5AB SWAP1 DUP8 PUSH2 0x3DC JUMP JUMPDEST MLOAD PUSH2 0x5B5 SWAP1 PUSH2 0x3FB JUMP JUMPDEST PUSH2 0x5BE SWAP1 PUSH2 0x40E JUMP JUMPDEST SWAP1 PUSH2 0x5C8 DUP6 PUSH2 0x2C4 JUMP JUMPDEST PUSH2 0x5D2 SWAP1 DUP10 PUSH2 0x3AE JUMP JUMPDEST PUSH2 0x5DC PUSH1 0x3 PUSH2 0x2C4 JUMP JUMPDEST PUSH2 0x5E5 SWAP2 PUSH2 0x431 JUMP JUMPDEST PUSH2 0x5EF SWAP1 DUP9 PUSH2 0x3DC JUMP JUMPDEST MLOAD PUSH2 0x5F9 SWAP1 PUSH2 0x3FB JUMP JUMPDEST PUSH2 0x602 SWAP1 PUSH2 0x40E JUMP JUMPDEST SWAP3 PUSH2 0x60C PUSH1 0x40 MLOAD SWAP1 JUMP JUMPDEST SWAP4 DUP5 SWAP4 PUSH1 0x20 DUP6 ADD SWAP4 PUSH2 0x63E SWAP4 DUP6 SWAP3 PUSH2 0x43E PUSH1 0x1 PUSH2 0x11B SWAP5 PUSH2 0x43E DUP3 DUP9 PUSH2 0x43E DUP3 SWAP12 SWAP11 DUP4 SWAP10 PUSH1 0x1 PUSH1 0x1 PUSH1 0xF8 SHL SUB NOT AND SWAP1 MSTORE JUMP JUMPDEST SWAP1 DUP2 SUB DUP3 MSTORE SUB PUSH2 0x64E SWAP1 DUP3 PUSH2 0x3D JUMP JUMPDEST PUSH2 0x658 DUP7 DUP6 PUSH2 0x3DC JUMP JUMPDEST MLOAD SWAP1 PUSH2 0x663 PUSH1 0x40 MLOAD SWAP1 JUMP JUMPDEST SWAP3 DUP4 SWAP3 PUSH1 0x20 DUP5 ADD SWAP3 PUSH2 0x675 SWAP3 DUP5 PUSH2 0x470 JUMP JUMPDEST SWAP1 DUP2 SUB DUP3 MSTORE SUB PUSH2 0x685 SWAP1 DUP3 PUSH2 0x3D JUMP JUMPDEST SWAP4 PUSH1 0x1 ADD SWAP4 PUSH2 0x4F6 JUMP JUMPDEST SWAP3 POP POP POP PUSH2 0xFB SWAP2 POP PUSH2 0x768 JUMP JUMPDEST SWAP1 PUSH2 0x6AA PUSH2 0xA7 DUP4 PUSH2 0xFE JUMP JUMPDEST SWAP2 DUP3 MSTORE JUMP JUMPDEST PUSH2 0x6B9 PUSH1 0x10 PUSH2 0x69D JUMP JUMPDEST PUSH16 0x181899199A1A9B1B9C1CA0A121A222A3 PUSH1 0x81 SHL PUSH1 0x20 DUP3 ADD MSTORE SWAP1 JUMP JUMPDEST PUSH2 0xFB PUSH2 0x6AF JUMP JUMPDEST CALLDATASIZE SWAP1 CALLDATACOPY JUMP JUMPDEST SWAP1 PUSH2 0x78 PUSH2 0x6F8 PUSH2 0x6F2 DUP5 PUSH2 0x69D JUMP JUMPDEST SWAP4 PUSH2 0xFE JUMP JUMPDEST PUSH1 0x1F NOT ADD PUSH1 0x20 DUP5 ADD PUSH2 0x6DD JUMP JUMPDEST SWAP1 PUSH2 0x70E DUP3 MLOAD SWAP1 JUMP JUMPDEST DUP2 LT ISZERO PUSH2 0x3F6 JUMPI ADD PUSH1 0x20 ADD SWAP1 JUMP JUMPDEST PUSH2 0x408 PUSH2 0xFB PUSH2 0xFB SWAP3 PUSH1 0xFF AND SWAP1 JUMP JUMPDEST PUSH2 0xFB SWAP1 PUSH1 0xF8 SHR PUSH2 0x71C JUMP JUMPDEST PUSH2 0x408 SWAP1 PUSH2 0x753 PUSH2 0x74C PUSH2 0xFB SWAP5 PUSH1 0xFF AND SWAP1 JUMP JUMPDEST SWAP2 PUSH1 0xFF AND SWAP1 JUMP JUMPDEST SWAP1 SHR SWAP1 JUMP JUMPDEST PUSH2 0xFB PUSH2 0xFB PUSH2 0xFB SWAP3 PUSH1 0xFF AND SWAP1 JUMP JUMPDEST SWAP1 PUSH2 0x771 PUSH2 0x6D5 JUMP JUMPDEST PUSH1 0x2 PUSH2 0x795 PUSH2 0x790 PUSH2 0x781 DUP7 MLOAD SWAP1 JUMP JUMPDEST PUSH2 0x78B PUSH1 0x2 PUSH2 0x2C4 JUMP JUMPDEST PUSH2 0x3AE JUMP JUMPDEST PUSH2 0x6E2 JUMP JUMPDEST SWAP2 PUSH1 0x0 SWAP5 PUSH2 0x7A3 PUSH1 0x0 PUSH2 0x2C4 JUMP JUMPDEST PUSH2 0x7AE PUSH2 0xFB DUP4 MLOAD SWAP1 JUMP JUMPDEST DUP2 LT ISZERO PUSH2 0x876 JUMPI DUP1 PUSH2 0x803 PUSH2 0x7D5 PUSH2 0x7FD PUSH2 0x7F8 PUSH2 0x7E8 PUSH2 0x7E3 PUSH2 0x7D5 PUSH2 0x871 SWAP9 DUP11 PUSH2 0x705 JUMP JUMPDEST MLOAD PUSH1 0x1 PUSH1 0x1 PUSH1 0xF8 SHL SUB NOT AND SWAP1 JUMP JUMPDEST PUSH2 0x72C JUMP JUMPDEST PUSH2 0x7F2 PUSH1 0x4 PUSH2 0x3FB JUMP JUMPDEST SWAP1 PUSH2 0x738 JUMP JUMPDEST PUSH2 0x758 JUMP JUMPDEST DUP7 PUSH2 0x705 JUMP JUMPDEST PUSH2 0x81D PUSH2 0x813 DUP4 PUSH2 0x78B DUP10 PUSH2 0x2C4 JUMP JUMPDEST SWAP2 DUP11 BYTE SWAP2 DUP9 PUSH2 0x705 JUMP JUMPDEST MSTORE8 PUSH2 0x847 PUSH2 0x7D5 PUSH2 0x7FD PUSH2 0x837 PUSH2 0x7E3 PUSH2 0x7D5 DUP7 DUP10 PUSH2 0x705 JUMP JUMPDEST PUSH2 0x841 PUSH1 0xF PUSH2 0x3FB JUMP JUMPDEST AND PUSH2 0x758 JUMP JUMPDEST PUSH2 0x86A PUSH2 0x813 PUSH2 0x85A DUP5 PUSH2 0x78B DUP11 PUSH2 0x2C4 JUMP JUMPDEST PUSH2 0x864 PUSH1 0x1 PUSH2 0x2C4 JUMP JUMPDEST SWAP1 PUSH2 0x431 JUMP JUMPDEST MSTORE8 PUSH1 0x1 ADD SWAP1 JUMP JUMPDEST PUSH2 0x7A3 JUMP JUMPDEST POP POP POP POP PUSH2 0xFB SWAP2 SWAP3 POP SWAP1 JUMP INVALID LOG2 PUSH5 0x6970667358 0x22 SLT KECCAK256 ADDRESS 0xE3 MSTORE ISZERO PUSH17 0x847535EBF7E622950517D9339832E53F45 0xA7 0x25 0x4E 0xC4 CALLDATALOAD 0xBA 0xA6 0xAB TSTORE 0xE0 PUSH5 0x736F6C6343 STOP ADDMOD SHL STOP CALLER "
        },
        "methodIdentifiers": {
          "reconstructHexString(uint256[],string[])": "72565e23"
        }
      }
    }
  }
}