{
  "contracts/utils/PengoFactory.sol": {
    "PengoFactory": {
      "abi": [
        {
          "inputs": [],
          "stateMutability": "nonpayable",
          "type": "constructor"
        },
        {
          "anonymous": false,
          "inputs": [
            {
              "indexed": true,
              "internalType": "address",
              "name": "previousOwner",
              "type": "address"
            },
            {
              "indexed": true,
              "internalType": "address",
              "name": "newOwner",
              "type": "address"
            }
          ],
          "name": "OwnershipTransferred",
          "type": "event"
        },
        {
          "inputs": [],
          "name": "owner",
          "outputs": [
            {
              "internalType": "address",
              "name": "",
              "type": "address"
            }
          ],
          "stateMutability": "view",
          "type": "function"
        },
        {
          "inputs": [],
          "name": "pengoContract",
          "outputs": [
            {
              "internalType": "contract IPenguinOnchain",
              "name": "",
              "type": "address"
            }
          ],
          "stateMutability": "view",
          "type": "function"
        },
        {
          "inputs": [],
          "name": "renounceOwnership",
          "outputs": [],
          "stateMutability": "nonpayable",
          "type": "function"
        },
        {
          "inputs": [
            {
              "internalType": "address",
              "name": "_pengoContract",
              "type": "address"
            }
          ],
          "name": "setPengoContract",
          "outputs": [],
          "stateMutability": "nonpayable",
          "type": "function"
        },
        {
          "inputs": [
            {
              "internalType": "uint256",
              "name": "tokenId",
              "type": "uint256"
            },
            {
              "internalType": "uint256",
              "name": "seed",
              "type": "uint256"
            }
          ],
          "name": "tokenURI",
          "outputs": [
            {
              "internalType": "string",
              "name": "",
              "type": "string"
            }
          ],
          "stateMutability": "view",
          "type": "function"
        },
        {
          "inputs": [
            {
              "internalType": "address",
              "name": "newOwner",
              "type": "address"
            }
          ],
          "name": "transferOwnership",
          "outputs": [],
          "stateMutability": "nonpayable",
          "type": "function"
        }
      ],
      "evm": {
        "bytecode": {
          "linkReferences": {},
          "object": "60806040523461002257610011610027565b604051612d036101068239612d0390f35b600080fd5b61002f610031565b565b61002f336100ae565b61004b905b6001600160a01b031690565b90565b61004b905461003a565b61004b9061003f906001600160a01b031682565b61004b90610058565b61004b9061006c565b9061008e61004b6100aa92610075565b82546001600160a01b0319166001600160a01b03919091161790565b9055565b6100d46100ce6100be600061004e565b6100c984600061007e565b610075565b91610075565b907f8be0079c531659141344cd1fd0a4f28419497f9722a3daafe3b4186f6b6457e06100ff60405190565b600090a356fe6080604052600436101561001257600080fd5b60003560e01c8063715018a6146100725780638da5cb5b1461006d57806392cb829d14610068578063ac98413114610063578063df0cfde21461005e5763f2fde38b0361008257610299565b610281565b61022a565b610198565b6100be565b610087565b600091031261008257565b600080fd5b3461008257610097366004610077565b61009f6102e9565b60405180805b0390f35b6001600160a01b031690565b90565b9052565b565b34610082576100ce366004610077565b6100a56100d9610304565b604051918291826001600160a01b03909116815260200190565b805b0361008257565b905035906100bc826100f3565b9190604083820312610082576100b590602061012582866100fc565b94016100fc565b60005b83811061013f5750506000910152565b818101518382015260200161012f565b61017061017960209361018393610164815190565b80835293849260200190565b9586910161012c565b601f01601f191690565b0190565b60208082526100b59291019061014f565b34610082576100a56101b46101ae366004610109565b906112c7565b60405191829182610187565b6100b5916008021c6001600160a01b031690565b906100b591546101c0565b6100b5600060016101d4565b6100b5906100a9906001600160a01b031682565b6100b5906101eb565b6100b5906101ff565b6100b890610208565b6020810192916100bc9190610211565b346100825761023a366004610077565b6100a56102456101df565b6040519182918261021a565b6001600160a01b0381166100f5565b905035906100bc82610251565b90602082820312610082576100b591610260565b346100825761009f61029436600461026d565b6116a7565b346100825761009f6102ac36600461026d565b611750565b6102b96117a9565b6100bc6102d7565b6100a96100b56100b59290565b6100b5906102c1565b6100bc6102e460006102ce565b6117d3565b6100bc6102b1565b6100b5906100a9565b6100b590546102f1565b6100b560006102fa565b634e487b7160e01b600052604160045260246000fd5b90601f01601f1916810190811067ffffffffffffffff82111761034657604052565b61030e565b906100bc61035860405190565b9283610324565b67ffffffffffffffff811161034657602090601f01601f19160190565b9061038e6103898361035f565b61034b565b918252565b61039d600461037c565b63426f647960e01b602082015290565b6100b5610393565b6103bf600761037c565b66746f705f65796560c81b602082015290565b6100b56103b5565b67ffffffffffffffff81116103465760208091020190565b909291926104026103898261035f565b9381855281830111610082576100bc91602085019061012c565b9080601f830112156100825781516100b5926020016103f2565b905051906100bc826100f3565b905051906100bc82610251565b8015156100f5565b905051906100bc82610450565b91909160e0818403126100825761047c60e061034b565b92600082015167ffffffffffffffff8111610082578161049d91840161041c565b8452602082015167ffffffffffffffff811161008257816104bf91840161041c565b6020850152604082015167ffffffffffffffff811161008257826104ea8360c09361052b960161041c565b60408701526104fc8360608301610436565b606087015261050e8360808301610436565b60808701526105208360a08301610443565b60a087015201610458565b60c0830152565b929190610541610389826103da565b93818552602080860192028101918383116100825781905b838210610567575050505050565b815167ffffffffffffffff8111610082576020916105888784938701610465565b815201910190610559565b9080601f830112156100825781516100b592602001610532565b919091604081840312610082576105c4604061034b565b92600082015167ffffffffffffffff811161008257816105e591840161041c565b8452602082015167ffffffffffffffff811161008257610605920161041c565b6020830152565b91909160408184031261008257805167ffffffffffffffff81116100825783610636918301610593565b92602082015167ffffffffffffffff8111610082576100b592016105ad565b6040513d6000823e3d90fd5b61066c61032c61037c565b7f306430623031303134413441344130653061303130313441344134413066306160208201527f303130313441344134413130306130313031344134413441313130613031303160408201527f344134413441306530623031303134413441344130663062303130313441344160608201527f344131303062303130313441344134413131306230313031344134413441313260808201527f306230313031344134413441306430633031303134413441344130643064303160a08201527f303134413441344130643065303130313441344134413065306530313031344160c08201527f344134413066306530313031344134413441313030653031303134413441344160e08201527f31313065303130313441344134413132306530313031344134413441313230646101008201527f30313031344134413441313230633031303134413441344130663063303130316101208201527f34413441344131303063303130313441344134413063306630313031344134416101408201527f34413063306530313031344134413441306230663031303134413441344130616101608201527f31303031303134413441344131333065303130313441344134413133306630316101808201527f30313441344134413134306630313031344134413441306231303031303134416101a08201527f34413441313431303031303134413441344130613131303130313441344134416101c08201527f30623131303130313441344134413062313230313031344134413441306231336101e08201527f30313031344134413441306331333031303134413441344130633134303130316102008201527f34413441344130633135303130313441344134413064313430313031344134416102208201527f34413064313530313031344134413441306531353031303134413441344130666102408201527f31353031303134413441344131303135303130313441344134413131313530316102608201527f30313441344134413132313530313031344134413441313331353031303134416102808201527f34413441313431313031303134413441344131343132303130313441344134416102a08201527f31343133303130313441344134413133313330313031344134413441313331346102c08201527f30313031344134413441313531303031303134413441344131353131303130316102e08201527f34413441344131323134303130313441344134413064306630313031344134416103008201527f34413063313030313031344134413441313230663031303134413441344131336103208201526b31303031303134413441344160a01b61034082015290565b6100b5610661565b6100b5610a4d565b610183610a7592602092610a6f815190565b94859290565b9384910161012c565b610a8c906100b59392610a5d565b90610a5d565b610a9d6101f861037c565b7f306530663031303146464646464630663066303130314646464646463130306660208201527f303130314646464646463131306630313031464646464646306431303031303160408201527f464646464646306331313031303146464646464630633132303130314646464660608201527f464630643133303130314646464646463065313430313031464646464646306660808201527f313430313031464646464646313031343031303146464646464631313134303160a08201527f303146464646464631323133303130314646464646463133313230313031464660c08201527f464646463133313130313031464646464646313231303031303146464646464660e08201527f30653130303130314646464646463066313030313031464646464646313031306101008201527f30313031464646464646313131303031303146464646464631313131303130316101208201527f46464646464631303131303130314646464646463066313130313031464646466101408201527f46463065313130313031464646464646306431313031303146464646464630646101608201527f31323031303146464646464631303132303130314646464646463131313230316101808201527f30314646464646463132313230313031464646464646313231313031303146466101a08201527f46464646313031333031303146464646464630663133303130314646464646466101c08201527f30653133303130314646464646463065313230313031464646464646306631326101e08201527f303130314646464646463131313330313031464646464646000000000000000061020082015290565b6100b5610a92565b6100b5610d09565b6100b5600061037c565b6100b5610d19565b610d35601c61037c565b7f3066306430313031463541363233313030643031303146354136323300000000602082015290565b6100b5610d2b565b6100b5610d5e565b610d78601c61037c565b7f3065306330313031464646464646313130633031303146464646464600000000602082015290565b6100b5610d6e565b6100b5610da1565b610dbb601c61037c565b7f3065306430313031303030303030313130643031303130303030303000000000602082015290565b6100b5610db1565b6100b5610de4565b610dfe603861037c565b7f306431363031303146354136323330653136303130314635413632333131313660208201527f3031303146354136323331323136303130314635413632330000000000000000604082015290565b6100b5610df4565b6100b5610e4d565b6100b56100b56100b59290565b634e487b7160e01b600052603260045260246000fd5b90610e89825190565b811015610e9a576020809102010190565b610e6a565b610ea9600161037c565b600b60fa1b602082015290565b6100b5610e9f565b610f1293610a8c610edd6100b59795610a8c610ef995610a8c97610a5d565b6f3d913a3930b4ba2fba3cb832911d101160811b815260100190565b6c111610113b30b63ab2911d101160991b8152600d0190565b61227d60f01b815260020190565b610f2a600661037c565b651e17b9bb339f60d11b602082015290565b6100b5610f20565b6100b5610f3c565b94610a8c61125161120a610a8c97610a8c61121961120a6112899d9a6100b59f9d6111d16111b6610fbe610a8c9e610a8c610f129f610fcc610fbe61118092610a8c610fa2610a8c9b607b60f81b815260010190565b6f226e616d65223a202250656e676f202360801b815260100190565b61088b60f21b815260020190565b7f226465736372697074696f6e223a202250656e6775696e204f6e636861696e2081527f697320616e20696e6e6f766174697665206f6e2d636861696e204e465420707260208201527f6f6a6563742074686174207075736865732074686520626f756e64617269657360408201527f206f662067656e657261746976652061727420616e6420626c6f636b6368616960608201527f6e20637573746f6d697a6174696f6e2e20556e6c696b6520747261646974696f60808201527f6e616c204e465420636f6c6c656374696f6e732074686174206172652070726560a08201527f2d67656e65726174656420616e642073746f726564206f66662d636861696e2c60c08201527f2065766572792050656e6775696e204e46542069732067656e6572617465642060e08201527f7573696e6720616e20616c676f726974686d206469726563746c79206f6e20746101008201527f686520626c6f636b636861696e2c20656e737572696e672074727565206465636101208201527f656e7472616c697a6174696f6e20616e6420696d6d75746162696c6974792e22610140820152600b60fa1b6101608201526101610190565b7f22696d616765223a2022646174613a696d6167652f7376672b786d6c3b626173815263194d8d0b60e21b602082015260240190565b6e2261747472696275746573223a205b60881b8152600f0190565b7f7b2274726169745f74797065223a202250656e676f2054797065222c20227661815266363ab2911d101160c91b602082015260270190565b62089f4b60ea1b815260030190565b7f7b2274726169745f74797065223a20224c69666520476f616c222c202276616c8152653ab2911d101160d11b602082015260260190565b7f7b2274726169745f74797065223a20224e657420576f727468222c202276616c8152653ab2911d101160d11b602082015260260190565b615d7d60f01b815260020190565b7f646174613a6170706c69636174696f6e2f6a736f6e3b6261736536342c00000081526100b59190601d01610a8c565b906112e56112dc826112d76103ad565b611bf1565b916112d76103d2565b906112f86112f360016102fa565b610208565b93600061130460405190565b6382260f3560e01b81526004810186905295869060249082905afa92831561167257600095869461164b575b5061143d6100b56114af61143d6100b56114a461143d6100b56114ba9861145d61149961143d6100b58f61143d6100b561147561143d6100b561148e9561145d61144961137c60405190565b6100b5816020810161143d817f3c7376672073686170652d72656e646572696e673d226372697370456467657381527f222076696577426f783d223020302033302033302220786d6c6e733d2268747460208201527f703a2f2f7777772e77332e6f72672f323030302f737667223e0000000000000060408201527f3c726563742077696474683d223130302522206865696768743d223130302522605982015270103334b6361e91119b9a9a9b309c11179f60791b6079820152608a0190565b90810382520382610324565b916020611454610a55565b9101519061219b565b9061146760405190565b938492602084019283610a7e565b61145d611480610d11565b611488610d23565b9061219b565b61145d611480610d66565b916020611454610da9565b61145d611480610dec565b61145d611480610e55565b906114c3610d23565b906000936114d085610e5d565b935b6114dd6100b5885190565b85101561159557611570876100b58861151361143d6100b56115779761145d60406115088f8a610e80565b510151611488610d23565b97611520815190565b5190565b61153061152c84610e5d565b9190565b111561157e5761143d602061155c8c611547610eb6565b955b611553828a610e80565b51015197610e80565b510151604051958694602086019485610ebe565b9460010190565b93926114d2565b61143d602061155c8c61158f610d23565b95611549565b61162196506100b594509661143d86946100b5949a6115d7986115dc6115d76115d36115cd6100b59f6100b561143d9161145d610f44565b97612678565b9690565b6127b9565b950151966020818301519201519061160061152c6115fa61151c8790565b92610e5d565b111561163d5761160e610eb6565b915b604051988997602089019788610f4c565b6100b561162d60405190565b809261143d602083019182611297565b611645610d23565b91611610565b90955082933d8091833e61165f8183610324565b810161166a9161060c565b959093611330565b610655565b906116876100b56116a392610208565b82546001600160a01b0319166001600160a01b03919091161790565b9055565b6116b36100bc91610208565b6001611677565b6100bc906116c66117a9565b61172b565b156116d257565b60405162461bcd60e51b815260206004820152602660248201527f4f776e61626c653a206e6577206f776e657220697320746865207a65726f206160448201526564647265737360d01b606482015280608481015b0390fd5b6100bc906102e461173f6100a960006102ce565b6001600160a01b03831614156116cb565b6100bc906116ba565b1561176057565b60405162461bcd60e51b815280611727600482016020808252818101527f4f776e61626c653a2063616c6c6572206973206e6f7420746865206f776e6572604082015260600190565b6100bc6117b4610304565b6117cd6117c0336100a9565b916001600160a01b031690565b14611759565b6117f46117ee6117e360006102fa565b6112f3846000611677565b91610208565b907f8be0079c531659141344cd1fd0a4f28419497f9722a3daafe3b4186f6b6457e061181f60405190565b600090a3565b6100b5604061034b565b611837611825565b906060825260606020830152565b6100b561182f565b634e487b7160e01b600052601260045260246000fd5b811561186d570690565b61184d565b6100b591610a5d565b611885600661037c565b655a6f6d62696560d01b602082015290565b6100b561187b565b6118a9600661037c565b6519981a30989960d11b602082015290565b6100b561189f565b634e487b7160e01b600052601160045260246000fd5b919082039182116118e657565b6118c3565b6118f5600661037c565b6541726374696360d01b602082015290565b6100b56118eb565b611919600661037c565b651a992098232360d11b602082015290565b6100b561190f565b61193d600461037c565b634669726560e01b602082015290565b6100b5611933565b61195f600661037c565b6507272606e62760d31b602082015290565b6100b5611955565b811561186d570490565b919082018092116118e657565b61199a600461037c565b634d616c6560e01b602082015290565b6100b5611990565b6119bc600661037c565b651a211a219a2360d11b602082015290565b6100b56119b2565b6119e0600661037c565b6546656d616c6560d01b602082015290565b6100b56119d6565b611a04600661037c565b651ca11ca11ca160d11b602082015290565b6100b56119fa565b611a28600a61037c565b695a6f6d6269652045796560b01b602082015290565b6100b5611a1e565b611a50600661037c565b6544373437353560d01b602082015290565b6100b5611a46565b818102929181159184041417156118e657565b611a87600861037c565b6714dd185b99185c9960c21b602082015290565b6100b5611a7d565b611aad600661037c565b6523232323232360d11b602082015290565b6100b5611aa3565b611ad1600c61037c565b6b507572706c6520536861646560a01b602082015290565b6100b5611ac7565b611afb600661037c565b6541383637453160d01b602082015290565b6100b5611af1565b611b1f600661037c565b65536c6565707960d01b602082015290565b6100b5611b15565b611b43600661037c565b650d0e0dcc904d60d21b602082015290565b6100b5611b39565b611b67600961037c565b68416e636573746f727360b81b602082015290565b6100b5611b5d565b611b8e600661037c565b6504230423042360d41b602082015290565b6100b5611b84565b611bb2600761037c565b662ab735b737bbb760c91b602082015290565b6100b5611ba8565b611bd7600661037c565b6503030303030360d41b602082015290565b6100b5611bcd565b90611bfa611845565b50611c06614e20610e5d565b90611c118282611863565b92611c1b60405190565b611c2d816020810161143d8582611872565b611c3f611c38825190565b9160200190565b20611c7a61152c611c4f60405190565b611c6b816020810161143d8163426f647960e01b815260040190565b611c76611c38825190565b2090565b14611eb957611c9b611c8b60405190565b809261143d602083019182611872565b611ca6611c38825190565b20611cd561152c611cb660405190565b611c6b816020810161143d8166746f705f65796560c81b815260070190565b14611cff57505050611ce5611825565b611cf4611cf0611bc5565b8252565b6100b5610605611be9565b611d0b906112d76103ad565b51604051611d1890611c8b565b611d23611c38825190565b20611d5161152c611d3360405190565b611c6b816020810161143d81655a6f6d62696560d01b815260060190565b14611e9957611d6c61012c91611d6683610e5d565b906118d9565b611d92611d82611d7c6005610e5d565b83611a6a565b611d8c6064610e5d565b90611979565b91611dc0611d82611daf611d82611da9600a610e5d565b86611a6a565b93611dba601e610e5d565b90611a6a565b611dd56100b585611dd085610e5d565b611983565b851015611dff575050505050611de9611825565b611df4611cf0611b7c565b6100b5610605611ba0565b611e136100b584611dd087611dd087610e5d565b851015611e3d575050505050611e27611825565b611e32611cf0611b31565b6100b5610605611b55565b611dd061152c93611dd0611e5796611dd06100b596610e5d565b1015611e7b57611e65611825565b611e70611cf0611ae9565b6100b5610605611b0d565b611e83611825565b611e8e611cf0611a9b565b6100b5610605611abf565b5050611ea3611825565b611eae611cf0611a3e565b6100b5610605611a62565b505061012c90611ec882610e5d565b8310611fbe57611d66611eda92610e5d565b611ee56103e8610e5d565b8210611f9e57611efa90611d666102bc610e5d565b6109c4611f0681610e5d565b8310611f7d576100b561152c91611dd0611f35611f2b611f3b96611d666105dc610e5d565b611d8c6002610e5d565b91610e5d565b1015611f5f57611f49611825565b611f54611cf06119f2565b6100b5610605611a16565b611f67611825565b611f72611cf06119aa565b6100b56106056119ce565b505050611f88611825565b611f93611cf061194d565b6100b5610605611971565b5050611fa8611825565b611fb3611cf0611907565b6100b561060561192b565b505050611fc9611825565b611fd4611cf0611897565b6100b56106056118bb565b15611fe657565b60405162461bcd60e51b815260206004820152601960248201527f496e76616c696420706978656c2064617461206c656e677468000000000000006044820152606490fd5b9061038e610389836103da565b369037565b906100bc61205361204d8461202b565b936103da565b601f190160208401612038565b60005b82811061206f57505050565b606082820152602001612063565b906100bc61208d61204d8461202b565b601f190160208401612060565b906120a3825190565b811015610e9a570160200190565b6120c16100b56100b59260ff1690565b60ff1690565b6100b59060f81c6120b1565b6100b56100b56100b59260ff1690565b91610a8c6100b59493610a8c93610a5d565b6121616100b59795610a8c61214c610a8c97610a8c61213b61217799610a8c61212661218c9f9b9a610a8c9b610a5d565b683c7265637420783d2760b81b815260090190565b642720793d2760d81b815260050190565b68272077696474683d2760b81b815260090190565b6927206865696768743d2760b01b8152600a0190565b68272066696c6c3d272360b81b815260090190565b6213979f60e91b815260030190565b6121a490612954565b80516121bc6007916121b66007610e5d565b90611863565b906121d56000926121cf61152c85610e5d565b14611fdf565b6121dd610d23565b906121f36121e9855190565b611d8c6007610e5d565b9560049261221161220c61220686610e5d565b8a611a6a565b61203d565b9461221b8961207d565b9761222582610e5d565b8a8110156124af5761223686610e5d565b6122409082611a6a565b61224a818b61209a565b516001600160f81b03191661225e906120c7565b612267906120d3565b61227089610e5d565b61227a9084611a6a565b612284908b610e80565b52600161229081610e5d565b61229a9083611983565b6122a4908c61209a565b516001600160f81b0319166122b8906120c7565b6122c1906120d3565b906122cb8a610e5d565b6122d59085611a6a565b906122df90610e5d565b6122e891611983565b6122f2908b610e80565b5260026122fe81610e5d565b6123089083611983565b612312908c61209a565b516001600160f81b031916612326906120c7565b61232f906120d3565b906123398a610e5d565b6123439085611a6a565b9061234d90610e5d565b61235691611983565b612360908b610e80565b52600361236c81610e5d565b6123769083611983565b612380908c61209a565b516001600160f81b031916612394906120c7565b61239d906120d3565b906123a78a610e5d565b6123b19085611a6a565b906123bb90610e5d565b6123c491611983565b6123ce908b610e80565b526123d888610e5d565b6123e29082611983565b6123ec908b61209a565b516001600160f81b03191661240090612aa3565b9061240b6005610e5d565b6124159082611983565b61241f908c61209a565b516001600160f81b03191661243390612aa3565b9061243e6006610e5d565b61244791611983565b612451908c61209a565b516001600160f81b03191661246590612aa3565b9061246f60405190565b928392602084019261248192846120e3565b9081038252036124919082610324565b61249b828c610e80565b526124a6818b610e80565b50600101612225565b5092985092509294506124c182610e5d565b925b6124ce6100b5865190565b8410156125fa576124df8486610e80565b6124e89061151c565b6124f26001610e5d565b6124fc9086611983565b6125069087610e80565b61250f9061151c565b9061251a6002610e5d565b6125249087611983565b61252e9088610e80565b6125379061151c565b906125426003610e5d565b61254c9088611983565b6125569089610e80565b61255f9061151c565b926125698a610e5d565b6125739089611979565b61257d908c610e80565b5194865161258a89610e5d565b106125ec966125dc966100b59561143d936125f2575b6125be6125b86125b26125c493612b3c565b97612b3c565b98612b3c565b91612b3c565b906125ce60405190565b9788966020880196876120f5565b936125e687610e5d565b90611983565b926124c3565b8a92506125a0565b9550505050505090565b61260e600161037c565b600360fc1b602082015290565b6100b5612604565b60001981146118e65760010190565b906100bc6120536126428461037c565b9361035f565b6120c16100b56100b59290565b61266b6126656100b59260ff1690565b60f81b90565b6001600160f81b03191690565b90600061268481610e5d565b8314612745579091908160005b61269a83610e5d565b84146126bd576126ac6126b791612623565b93611d8c600a610e5d565b92612691565b919392506126ca82612632565b915b6126d585610e5d565b821461273a576126ec61273491611d666001610e5d565b91611d8c600a8461272e61272561272061271b61271161270b87610e5d565b89611863565b611dd06030610e5d565b612648565b612655565b8a1a918861209a565b53610e5d565b906126cc565b50506100b591925090565b5090506100b561261b565b61275a604061037c565b7f4142434445464748494a4b4c4d4e4f505152535455565758595a61626364656660208201527f6768696a6b6c6d6e6f707172737475767778797a303132333435363738392b2f604082015290565b6100b5612750565b6100b56127a9565b80516127c861152c6000610e5d565b146128c9576127d56127b1565b906127eb6127e1825190565b6125e66002610e5d565b906001612810612801600394611d8c6003610e5d565b61280b6004610e5d565b611a6a565b9361282c6128276128216020610e5d565b87611983565b612632565b94855201918192825183019160208601945b838110612881575050505060039051068060011461287057600214612861575090565b603d60f81b6000199091015290565b50613d3d60f01b6001199091015290565b8160019196929394960191603f828080865194848660121c168a01518153018385600c1c16890151815301828460061c1688015181530191168501518153019492919061283e565b506100b5610d23565b156128d957565b60405162461bcd60e51b815260206004820152601960248201527f496e76616c69642068657820737472696e67206c656e677468000000000000006044820152606490fd5b61292d9060ff165b9160ff1690565b029060ff82169182036118e657565b6129489060ff16612926565b019060ff82116118e657565b9061295d825190565b9161296d6002936121b685610e5d565b9261298760009461298161152c6000610e5d565b146128d2565b61299e612827612995845190565b611d8c84610e5d565b916129a96000610e5d565b6129c06100b56129b7845190565b611d8c86610e5d565b811015612a545780612a3c612720612a13612a036129fe6129f06129ea612a4f9861280b8c610e5d565b8961209a565b516001600160f81b03191690565b612bc4565b612a0d6010612648565b9061291e565b612a366129fe6129f06129ea612a2c8861280b8d610e5d565b6125e66001610e5d565b9061293c565b871a612a48828761209a565b5360010190565b6129a9565b509193505050565b612a66601061037c565b6f181899199a1a9b1b9c1ca0a121a222a360811b602082015290565b6100b5612a5c565b6120c190612a9e6129266100b59460ff1690565b901c90565b6100b590612b226129f0612ab5612a82565b612b1c612ace612ac86128276002610e5d565b956120c7565b612af56129f0612aef612aea612ae46004612648565b85612a8a565b6120d3565b8561209a565b60001a612b0b612b056000610e5d565b8861209a565b53612b16600f612648565b166120d3565b9061209a565b60001a612b38612b326001610e5d565b8361209a565b5390565b906000612b4881610e5d565b8314612745579091908160005b612b5e83610e5d565b8414612b76576126ac612b7091612623565b92612b55565b91939250612b8382612632565b915b612b8e85610e5d565b821461273a576126ec612ba591611d666001610e5d565b90612b85565b612bb79060ff16612926565b90039060ff82116118e657565b612bcd906120c7565b612bd76030612648565b60ff8216101580612cb7575b15612bfc576100b590612bf66030612648565b90612bab565b612c066041612648565b60ff8216101580612ca1575b15612c25576100b590612bf66037612648565b612c2f6061612648565b60ff8216101580612c8b575b15612c4e576100b590612bf66057612648565b60405162461bcd60e51b815260206004820152601560248201527424b73b30b634b2103432bc1031b430b930b1ba32b960591b6044820152606490fd5b50612c966066612648565b60ff82161115612c3b565b50612cac6046612648565b60ff82161115612c12565b50612cc26039612648565b60ff82161115612be356fea2646970667358221220ec2a029420fce22a6fef3803a0ac446491b4029fdf40154ab295dbbf0eacce4364736f6c634300081b0033",
          "opcodes": "PUSH1 0x80 PUSH1 0x40 MSTORE CALLVALUE PUSH2 0x22 JUMPI PUSH2 0x11 PUSH2 0x27 JUMP JUMPDEST PUSH1 0x40 MLOAD PUSH2 0x2D03 PUSH2 0x106 DUP3 CODECOPY PUSH2 0x2D03 SWAP1 RETURN JUMPDEST PUSH1 0x0 DUP1 REVERT JUMPDEST PUSH2 0x2F PUSH2 0x31 JUMP JUMPDEST JUMP JUMPDEST PUSH2 0x2F CALLER PUSH2 0xAE JUMP JUMPDEST PUSH2 0x4B SWAP1 JUMPDEST PUSH1 0x1 PUSH1 0x1 PUSH1 0xA0 SHL SUB AND SWAP1 JUMP JUMPDEST SWAP1 JUMP JUMPDEST PUSH2 0x4B SWAP1 SLOAD PUSH2 0x3A JUMP JUMPDEST PUSH2 0x4B SWAP1 PUSH2 0x3F SWAP1 PUSH1 0x1 PUSH1 0x1 PUSH1 0xA0 SHL SUB AND DUP3 JUMP JUMPDEST PUSH2 0x4B SWAP1 PUSH2 0x58 JUMP JUMPDEST PUSH2 0x4B SWAP1 PUSH2 0x6C JUMP JUMPDEST SWAP1 PUSH2 0x8E PUSH2 0x4B PUSH2 0xAA SWAP3 PUSH2 0x75 JUMP JUMPDEST DUP3 SLOAD PUSH1 0x1 PUSH1 0x1 PUSH1 0xA0 SHL SUB NOT AND PUSH1 0x1 PUSH1 0x1 PUSH1 0xA0 SHL SUB SWAP2 SWAP1 SWAP2 AND OR SWAP1 JUMP JUMPDEST SWAP1 SSTORE JUMP JUMPDEST PUSH2 0xD4 PUSH2 0xCE PUSH2 0xBE PUSH1 0x0 PUSH2 0x4E JUMP JUMPDEST PUSH2 0xC9 DUP5 PUSH1 0x0 PUSH2 0x7E JUMP JUMPDEST PUSH2 0x75 JUMP JUMPDEST SWAP2 PUSH2 0x75 JUMP JUMPDEST SWAP1 PUSH32 0x8BE0079C531659141344CD1FD0A4F28419497F9722A3DAAFE3B4186F6B6457E0 PUSH2 0xFF PUSH1 0x40 MLOAD SWAP1 JUMP JUMPDEST PUSH1 0x0 SWAP1 LOG3 JUMP INVALID PUSH1 0x80 PUSH1 0x40 MSTORE PUSH1 0x4 CALLDATASIZE LT ISZERO PUSH2 0x12 JUMPI PUSH1 0x0 DUP1 REVERT JUMPDEST PUSH1 0x0 CALLDATALOAD PUSH1 0xE0 SHR DUP1 PUSH4 0x715018A6 EQ PUSH2 0x72 JUMPI DUP1 PUSH4 0x8DA5CB5B EQ PUSH2 0x6D JUMPI DUP1 PUSH4 0x92CB829D EQ PUSH2 0x68 JUMPI DUP1 PUSH4 0xAC984131 EQ PUSH2 0x63 JUMPI DUP1 PUSH4 0xDF0CFDE2 EQ PUSH2 0x5E JUMPI PUSH4 0xF2FDE38B SUB PUSH2 0x82 JUMPI PUSH2 0x299 JUMP JUMPDEST PUSH2 0x281 JUMP JUMPDEST PUSH2 0x22A JUMP JUMPDEST PUSH2 0x198 JUMP JUMPDEST PUSH2 0xBE JUMP JUMPDEST PUSH2 0x87 JUMP JUMPDEST PUSH1 0x0 SWAP2 SUB SLT PUSH2 0x82 JUMPI JUMP JUMPDEST PUSH1 0x0 DUP1 REVERT JUMPDEST CALLVALUE PUSH2 0x82 JUMPI PUSH2 0x97 CALLDATASIZE PUSH1 0x4 PUSH2 0x77 JUMP JUMPDEST PUSH2 0x9F PUSH2 0x2E9 JUMP JUMPDEST PUSH1 0x40 MLOAD DUP1 DUP1 JUMPDEST SUB SWAP1 RETURN JUMPDEST PUSH1 0x1 PUSH1 0x1 PUSH1 0xA0 SHL SUB AND SWAP1 JUMP JUMPDEST SWAP1 JUMP JUMPDEST SWAP1 MSTORE JUMP JUMPDEST JUMP JUMPDEST CALLVALUE PUSH2 0x82 JUMPI PUSH2 0xCE CALLDATASIZE PUSH1 0x4 PUSH2 0x77 JUMP JUMPDEST PUSH2 0xA5 PUSH2 0xD9 PUSH2 0x304 JUMP JUMPDEST PUSH1 0x40 MLOAD SWAP2 DUP3 SWAP2 DUP3 PUSH1 0x1 PUSH1 0x1 PUSH1 0xA0 SHL SUB SWAP1 SWAP2 AND DUP2 MSTORE PUSH1 0x20 ADD SWAP1 JUMP JUMPDEST DUP1 JUMPDEST SUB PUSH2 0x82 JUMPI JUMP JUMPDEST SWAP1 POP CALLDATALOAD SWAP1 PUSH2 0xBC DUP3 PUSH2 0xF3 JUMP JUMPDEST SWAP2 SWAP1 PUSH1 0x40 DUP4 DUP3 SUB SLT PUSH2 0x82 JUMPI PUSH2 0xB5 SWAP1 PUSH1 0x20 PUSH2 0x125 DUP3 DUP7 PUSH2 0xFC JUMP JUMPDEST SWAP5 ADD PUSH2 0xFC JUMP JUMPDEST PUSH1 0x0 JUMPDEST DUP4 DUP2 LT PUSH2 0x13F JUMPI POP POP PUSH1 0x0 SWAP2 ADD MSTORE JUMP JUMPDEST DUP2 DUP2 ADD MLOAD DUP4 DUP3 ADD MSTORE PUSH1 0x20 ADD PUSH2 0x12F JUMP JUMPDEST PUSH2 0x170 PUSH2 0x179 PUSH1 0x20 SWAP4 PUSH2 0x183 SWAP4 PUSH2 0x164 DUP2 MLOAD SWAP1 JUMP JUMPDEST DUP1 DUP4 MSTORE SWAP4 DUP5 SWAP3 PUSH1 0x20 ADD SWAP1 JUMP JUMPDEST SWAP6 DUP7 SWAP2 ADD PUSH2 0x12C JUMP JUMPDEST PUSH1 0x1F ADD PUSH1 0x1F NOT AND SWAP1 JUMP JUMPDEST ADD SWAP1 JUMP JUMPDEST PUSH1 0x20 DUP1 DUP3 MSTORE PUSH2 0xB5 SWAP3 SWAP2 ADD SWAP1 PUSH2 0x14F JUMP JUMPDEST CALLVALUE PUSH2 0x82 JUMPI PUSH2 0xA5 PUSH2 0x1B4 PUSH2 0x1AE CALLDATASIZE PUSH1 0x4 PUSH2 0x109 JUMP JUMPDEST SWAP1 PUSH2 0x12C7 JUMP JUMPDEST PUSH1 0x40 MLOAD SWAP2 DUP3 SWAP2 DUP3 PUSH2 0x187 JUMP JUMPDEST PUSH2 0xB5 SWAP2 PUSH1 0x8 MUL SHR PUSH1 0x1 PUSH1 0x1 PUSH1 0xA0 SHL SUB AND SWAP1 JUMP JUMPDEST SWAP1 PUSH2 0xB5 SWAP2 SLOAD PUSH2 0x1C0 JUMP JUMPDEST PUSH2 0xB5 PUSH1 0x0 PUSH1 0x1 PUSH2 0x1D4 JUMP JUMPDEST PUSH2 0xB5 SWAP1 PUSH2 0xA9 SWAP1 PUSH1 0x1 PUSH1 0x1 PUSH1 0xA0 SHL SUB AND DUP3 JUMP JUMPDEST PUSH2 0xB5 SWAP1 PUSH2 0x1EB JUMP JUMPDEST PUSH2 0xB5 SWAP1 PUSH2 0x1FF JUMP JUMPDEST PUSH2 0xB8 SWAP1 PUSH2 0x208 JUMP JUMPDEST PUSH1 0x20 DUP2 ADD SWAP3 SWAP2 PUSH2 0xBC SWAP2 SWAP1 PUSH2 0x211 JUMP JUMPDEST CALLVALUE PUSH2 0x82 JUMPI PUSH2 0x23A CALLDATASIZE PUSH1 0x4 PUSH2 0x77 JUMP JUMPDEST PUSH2 0xA5 PUSH2 0x245 PUSH2 0x1DF JUMP JUMPDEST PUSH1 0x40 MLOAD SWAP2 DUP3 SWAP2 DUP3 PUSH2 0x21A JUMP JUMPDEST PUSH1 0x1 PUSH1 0x1 PUSH1 0xA0 SHL SUB DUP2 AND PUSH2 0xF5 JUMP JUMPDEST SWAP1 POP CALLDATALOAD SWAP1 PUSH2 0xBC DUP3 PUSH2 0x251 JUMP JUMPDEST SWAP1 PUSH1 0x20 DUP3 DUP3 SUB SLT PUSH2 0x82 JUMPI PUSH2 0xB5 SWAP2 PUSH2 0x260 JUMP JUMPDEST CALLVALUE PUSH2 0x82 JUMPI PUSH2 0x9F PUSH2 0x294 CALLDATASIZE PUSH1 0x4 PUSH2 0x26D JUMP JUMPDEST PUSH2 0x16A7 JUMP JUMPDEST CALLVALUE PUSH2 0x82 JUMPI PUSH2 0x9F PUSH2 0x2AC CALLDATASIZE PUSH1 0x4 PUSH2 0x26D JUMP JUMPDEST PUSH2 0x1750 JUMP JUMPDEST PUSH2 0x2B9 PUSH2 0x17A9 JUMP JUMPDEST PUSH2 0xBC PUSH2 0x2D7 JUMP JUMPDEST PUSH2 0xA9 PUSH2 0xB5 PUSH2 0xB5 SWAP3 SWAP1 JUMP JUMPDEST PUSH2 0xB5 SWAP1 PUSH2 0x2C1 JUMP JUMPDEST PUSH2 0xBC PUSH2 0x2E4 PUSH1 0x0 PUSH2 0x2CE JUMP JUMPDEST PUSH2 0x17D3 JUMP JUMPDEST PUSH2 0xBC PUSH2 0x2B1 JUMP JUMPDEST PUSH2 0xB5 SWAP1 PUSH2 0xA9 JUMP JUMPDEST PUSH2 0xB5 SWAP1 SLOAD PUSH2 0x2F1 JUMP JUMPDEST PUSH2 0xB5 PUSH1 0x0 PUSH2 0x2FA JUMP JUMPDEST PUSH4 0x4E487B71 PUSH1 0xE0 SHL PUSH1 0x0 MSTORE PUSH1 0x41 PUSH1 0x4 MSTORE PUSH1 0x24 PUSH1 0x0 REVERT JUMPDEST SWAP1 PUSH1 0x1F ADD PUSH1 0x1F NOT AND DUP2 ADD SWAP1 DUP2 LT PUSH8 0xFFFFFFFFFFFFFFFF DUP3 GT OR PUSH2 0x346 JUMPI PUSH1 0x40 MSTORE JUMP JUMPDEST PUSH2 0x30E JUMP JUMPDEST SWAP1 PUSH2 0xBC PUSH2 0x358 PUSH1 0x40 MLOAD SWAP1 JUMP JUMPDEST SWAP3 DUP4 PUSH2 0x324 JUMP JUMPDEST PUSH8 0xFFFFFFFFFFFFFFFF DUP2 GT PUSH2 0x346 JUMPI PUSH1 0x20 SWAP1 PUSH1 0x1F ADD PUSH1 0x1F NOT AND ADD SWAP1 JUMP JUMPDEST SWAP1 PUSH2 0x38E PUSH2 0x389 DUP4 PUSH2 0x35F JUMP JUMPDEST PUSH2 0x34B JUMP JUMPDEST SWAP2 DUP3 MSTORE JUMP JUMPDEST PUSH2 0x39D PUSH1 0x4 PUSH2 0x37C JUMP JUMPDEST PUSH4 0x426F6479 PUSH1 0xE0 SHL PUSH1 0x20 DUP3 ADD MSTORE SWAP1 JUMP JUMPDEST PUSH2 0xB5 PUSH2 0x393 JUMP JUMPDEST PUSH2 0x3BF PUSH1 0x7 PUSH2 0x37C JUMP JUMPDEST PUSH7 0x746F705F657965 PUSH1 0xC8 SHL PUSH1 0x20 DUP3 ADD MSTORE SWAP1 JUMP JUMPDEST PUSH2 0xB5 PUSH2 0x3B5 JUMP JUMPDEST PUSH8 0xFFFFFFFFFFFFFFFF DUP2 GT PUSH2 0x346 JUMPI PUSH1 0x20 DUP1 SWAP2 MUL ADD SWAP1 JUMP JUMPDEST SWAP1 SWAP3 SWAP2 SWAP3 PUSH2 0x402 PUSH2 0x389 DUP3 PUSH2 0x35F JUMP JUMPDEST SWAP4 DUP2 DUP6 MSTORE DUP2 DUP4 ADD GT PUSH2 0x82 JUMPI PUSH2 0xBC SWAP2 PUSH1 0x20 DUP6 ADD SWAP1 PUSH2 0x12C JUMP JUMPDEST SWAP1 DUP1 PUSH1 0x1F DUP4 ADD SLT ISZERO PUSH2 0x82 JUMPI DUP2 MLOAD PUSH2 0xB5 SWAP3 PUSH1 0x20 ADD PUSH2 0x3F2 JUMP JUMPDEST SWAP1 POP MLOAD SWAP1 PUSH2 0xBC DUP3 PUSH2 0xF3 JUMP JUMPDEST SWAP1 POP MLOAD SWAP1 PUSH2 0xBC DUP3 PUSH2 0x251 JUMP JUMPDEST DUP1 ISZERO ISZERO PUSH2 0xF5 JUMP JUMPDEST SWAP1 POP MLOAD SWAP1 PUSH2 0xBC DUP3 PUSH2 0x450 JUMP JUMPDEST SWAP2 SWAP1 SWAP2 PUSH1 0xE0 DUP2 DUP5 SUB SLT PUSH2 0x82 JUMPI PUSH2 0x47C PUSH1 0xE0 PUSH2 0x34B JUMP JUMPDEST SWAP3 PUSH1 0x0 DUP3 ADD MLOAD PUSH8 0xFFFFFFFFFFFFFFFF DUP2 GT PUSH2 0x82 JUMPI DUP2 PUSH2 0x49D SWAP2 DUP5 ADD PUSH2 0x41C JUMP JUMPDEST DUP5 MSTORE PUSH1 0x20 DUP3 ADD MLOAD PUSH8 0xFFFFFFFFFFFFFFFF DUP2 GT PUSH2 0x82 JUMPI DUP2 PUSH2 0x4BF SWAP2 DUP5 ADD PUSH2 0x41C JUMP JUMPDEST PUSH1 0x20 DUP6 ADD MSTORE PUSH1 0x40 DUP3 ADD MLOAD PUSH8 0xFFFFFFFFFFFFFFFF DUP2 GT PUSH2 0x82 JUMPI DUP3 PUSH2 0x4EA DUP4 PUSH1 0xC0 SWAP4 PUSH2 0x52B SWAP7 ADD PUSH2 0x41C JUMP JUMPDEST PUSH1 0x40 DUP8 ADD MSTORE PUSH2 0x4FC DUP4 PUSH1 0x60 DUP4 ADD PUSH2 0x436 JUMP JUMPDEST PUSH1 0x60 DUP8 ADD MSTORE PUSH2 0x50E DUP4 PUSH1 0x80 DUP4 ADD PUSH2 0x436 JUMP JUMPDEST PUSH1 0x80 DUP8 ADD MSTORE PUSH2 0x520 DUP4 PUSH1 0xA0 DUP4 ADD PUSH2 0x443 JUMP JUMPDEST PUSH1 0xA0 DUP8 ADD MSTORE ADD PUSH2 0x458 JUMP JUMPDEST PUSH1 0xC0 DUP4 ADD MSTORE JUMP JUMPDEST SWAP3 SWAP2 SWAP1 PUSH2 0x541 PUSH2 0x389 DUP3 PUSH2 0x3DA JUMP JUMPDEST SWAP4 DUP2 DUP6 MSTORE PUSH1 0x20 DUP1 DUP7 ADD SWAP3 MUL DUP2 ADD SWAP2 DUP4 DUP4 GT PUSH2 0x82 JUMPI DUP2 SWAP1 JUMPDEST DUP4 DUP3 LT PUSH2 0x567 JUMPI POP POP POP POP POP JUMP JUMPDEST DUP2 MLOAD PUSH8 0xFFFFFFFFFFFFFFFF DUP2 GT PUSH2 0x82 JUMPI PUSH1 0x20 SWAP2 PUSH2 0x588 DUP8 DUP5 SWAP4 DUP8 ADD PUSH2 0x465 JUMP JUMPDEST DUP2 MSTORE ADD SWAP2 ADD SWAP1 PUSH2 0x559 JUMP JUMPDEST SWAP1 DUP1 PUSH1 0x1F DUP4 ADD SLT ISZERO PUSH2 0x82 JUMPI DUP2 MLOAD PUSH2 0xB5 SWAP3 PUSH1 0x20 ADD PUSH2 0x532 JUMP JUMPDEST SWAP2 SWAP1 SWAP2 PUSH1 0x40 DUP2 DUP5 SUB SLT PUSH2 0x82 JUMPI PUSH2 0x5C4 PUSH1 0x40 PUSH2 0x34B JUMP JUMPDEST SWAP3 PUSH1 0x0 DUP3 ADD MLOAD PUSH8 0xFFFFFFFFFFFFFFFF DUP2 GT PUSH2 0x82 JUMPI DUP2 PUSH2 0x5E5 SWAP2 DUP5 ADD PUSH2 0x41C JUMP JUMPDEST DUP5 MSTORE PUSH1 0x20 DUP3 ADD MLOAD PUSH8 0xFFFFFFFFFFFFFFFF DUP2 GT PUSH2 0x82 JUMPI PUSH2 0x605 SWAP3 ADD PUSH2 0x41C JUMP JUMPDEST PUSH1 0x20 DUP4 ADD MSTORE JUMP JUMPDEST SWAP2 SWAP1 SWAP2 PUSH1 0x40 DUP2 DUP5 SUB SLT PUSH2 0x82 JUMPI DUP1 MLOAD PUSH8 0xFFFFFFFFFFFFFFFF DUP2 GT PUSH2 0x82 JUMPI DUP4 PUSH2 0x636 SWAP2 DUP4 ADD PUSH2 0x593 JUMP JUMPDEST SWAP3 PUSH1 0x20 DUP3 ADD MLOAD PUSH8 0xFFFFFFFFFFFFFFFF DUP2 GT PUSH2 0x82 JUMPI PUSH2 0xB5 SWAP3 ADD PUSH2 0x5AD JUMP JUMPDEST PUSH1 0x40 MLOAD RETURNDATASIZE PUSH1 0x0 DUP3 RETURNDATACOPY RETURNDATASIZE SWAP1 REVERT JUMPDEST PUSH2 0x66C PUSH2 0x32C PUSH2 0x37C JUMP JUMPDEST PUSH32 0x3064306230313031344134413441306530613031303134413441344130663061 PUSH1 0x20 DUP3 ADD MSTORE PUSH32 0x3031303134413441344131303061303130313441344134413131306130313031 PUSH1 0x40 DUP3 ADD MSTORE PUSH32 0x3441344134413065306230313031344134413441306630623031303134413441 PUSH1 0x60 DUP3 ADD MSTORE PUSH32 0x3441313030623031303134413441344131313062303130313441344134413132 PUSH1 0x80 DUP3 ADD MSTORE PUSH32 0x3062303130313441344134413064306330313031344134413441306430643031 PUSH1 0xA0 DUP3 ADD MSTORE PUSH32 0x3031344134413441306430653031303134413441344130653065303130313441 PUSH1 0xC0 DUP3 ADD MSTORE PUSH32 0x3441344130663065303130313441344134413130306530313031344134413441 PUSH1 0xE0 DUP3 ADD MSTORE PUSH32 0x3131306530313031344134413441313230653031303134413441344131323064 PUSH2 0x100 DUP3 ADD MSTORE PUSH32 0x3031303134413441344131323063303130313441344134413066306330313031 PUSH2 0x120 DUP3 ADD MSTORE PUSH32 0x3441344134413130306330313031344134413441306330663031303134413441 PUSH2 0x140 DUP3 ADD MSTORE PUSH32 0x3441306330653031303134413441344130623066303130313441344134413061 PUSH2 0x160 DUP3 ADD MSTORE PUSH32 0x3130303130313441344134413133306530313031344134413441313330663031 PUSH2 0x180 DUP3 ADD MSTORE PUSH32 0x3031344134413441313430663031303134413441344130623130303130313441 PUSH2 0x1A0 DUP3 ADD MSTORE PUSH32 0x3441344131343130303130313441344134413061313130313031344134413441 PUSH2 0x1C0 DUP3 ADD MSTORE PUSH32 0x3062313130313031344134413441306231323031303134413441344130623133 PUSH2 0x1E0 DUP3 ADD MSTORE PUSH32 0x3031303134413441344130633133303130313441344134413063313430313031 PUSH2 0x200 DUP3 ADD MSTORE PUSH32 0x3441344134413063313530313031344134413441306431343031303134413441 PUSH2 0x220 DUP3 ADD MSTORE PUSH32 0x3441306431353031303134413441344130653135303130313441344134413066 PUSH2 0x240 DUP3 ADD MSTORE PUSH32 0x3135303130313441344134413130313530313031344134413441313131353031 PUSH2 0x260 DUP3 ADD MSTORE PUSH32 0x3031344134413441313231353031303134413441344131333135303130313441 PUSH2 0x280 DUP3 ADD MSTORE PUSH32 0x3441344131343131303130313441344134413134313230313031344134413441 PUSH2 0x2A0 DUP3 ADD MSTORE PUSH32 0x3134313330313031344134413441313331333031303134413441344131333134 PUSH2 0x2C0 DUP3 ADD MSTORE PUSH32 0x3031303134413441344131353130303130313441344134413135313130313031 PUSH2 0x2E0 DUP3 ADD MSTORE PUSH32 0x3441344134413132313430313031344134413441306430663031303134413441 PUSH2 0x300 DUP3 ADD MSTORE PUSH32 0x3441306331303031303134413441344131323066303130313441344134413133 PUSH2 0x320 DUP3 ADD MSTORE PUSH12 0x313030313031344134413441 PUSH1 0xA0 SHL PUSH2 0x340 DUP3 ADD MSTORE SWAP1 JUMP JUMPDEST PUSH2 0xB5 PUSH2 0x661 JUMP JUMPDEST PUSH2 0xB5 PUSH2 0xA4D JUMP JUMPDEST PUSH2 0x183 PUSH2 0xA75 SWAP3 PUSH1 0x20 SWAP3 PUSH2 0xA6F DUP2 MLOAD SWAP1 JUMP JUMPDEST SWAP5 DUP6 SWAP3 SWAP1 JUMP JUMPDEST SWAP4 DUP5 SWAP2 ADD PUSH2 0x12C JUMP JUMPDEST PUSH2 0xA8C SWAP1 PUSH2 0xB5 SWAP4 SWAP3 PUSH2 0xA5D JUMP JUMPDEST SWAP1 PUSH2 0xA5D JUMP JUMPDEST PUSH2 0xA9D PUSH2 0x1F8 PUSH2 0x37C JUMP JUMPDEST PUSH32 0x3065306630313031464646464646306630663031303146464646464631303066 PUSH1 0x20 DUP3 ADD MSTORE PUSH32 0x3031303146464646464631313066303130314646464646463064313030313031 PUSH1 0x40 DUP3 ADD MSTORE PUSH32 0x4646464646463063313130313031464646464646306331323031303146464646 PUSH1 0x60 DUP3 ADD MSTORE PUSH32 0x4646306431333031303146464646464630653134303130314646464646463066 PUSH1 0x80 DUP3 ADD MSTORE PUSH32 0x3134303130314646464646463130313430313031464646464646313131343031 PUSH1 0xA0 DUP3 ADD MSTORE PUSH32 0x3031464646464646313231333031303146464646464631333132303130314646 PUSH1 0xC0 DUP3 ADD MSTORE PUSH32 0x4646464631333131303130314646464646463132313030313031464646464646 PUSH1 0xE0 DUP3 ADD MSTORE PUSH32 0x3065313030313031464646464646306631303031303146464646464631303130 PUSH2 0x100 DUP3 ADD MSTORE PUSH32 0x3031303146464646464631313130303130314646464646463131313130313031 PUSH2 0x120 DUP3 ADD MSTORE PUSH32 0x4646464646463130313130313031464646464646306631313031303146464646 PUSH2 0x140 DUP3 ADD MSTORE PUSH32 0x4646306531313031303146464646464630643131303130314646464646463064 PUSH2 0x160 DUP3 ADD MSTORE PUSH32 0x3132303130314646464646463130313230313031464646464646313131323031 PUSH2 0x180 DUP3 ADD MSTORE PUSH32 0x3031464646464646313231323031303146464646464631323131303130314646 PUSH2 0x1A0 DUP3 ADD MSTORE PUSH32 0x4646464631303133303130314646464646463066313330313031464646464646 PUSH2 0x1C0 DUP3 ADD MSTORE PUSH32 0x3065313330313031464646464646306531323031303146464646464630663132 PUSH2 0x1E0 DUP3 ADD MSTORE PUSH32 0x3031303146464646464631313133303130314646464646460000000000000000 PUSH2 0x200 DUP3 ADD MSTORE SWAP1 JUMP JUMPDEST PUSH2 0xB5 PUSH2 0xA92 JUMP JUMPDEST PUSH2 0xB5 PUSH2 0xD09 JUMP JUMPDEST PUSH2 0xB5 PUSH1 0x0 PUSH2 0x37C JUMP JUMPDEST PUSH2 0xB5 PUSH2 0xD19 JUMP JUMPDEST PUSH2 0xD35 PUSH1 0x1C PUSH2 0x37C JUMP JUMPDEST PUSH32 0x3066306430313031463541363233313030643031303146354136323300000000 PUSH1 0x20 DUP3 ADD MSTORE SWAP1 JUMP JUMPDEST PUSH2 0xB5 PUSH2 0xD2B JUMP JUMPDEST PUSH2 0xB5 PUSH2 0xD5E JUMP JUMPDEST PUSH2 0xD78 PUSH1 0x1C PUSH2 0x37C JUMP JUMPDEST PUSH32 0x3065306330313031464646464646313130633031303146464646464600000000 PUSH1 0x20 DUP3 ADD MSTORE SWAP1 JUMP JUMPDEST PUSH2 0xB5 PUSH2 0xD6E JUMP JUMPDEST PUSH2 0xB5 PUSH2 0xDA1 JUMP JUMPDEST PUSH2 0xDBB PUSH1 0x1C PUSH2 0x37C JUMP JUMPDEST PUSH32 0x3065306430313031303030303030313130643031303130303030303000000000 PUSH1 0x20 DUP3 ADD MSTORE SWAP1 JUMP JUMPDEST PUSH2 0xB5 PUSH2 0xDB1 JUMP JUMPDEST PUSH2 0xB5 PUSH2 0xDE4 JUMP JUMPDEST PUSH2 0xDFE PUSH1 0x38 PUSH2 0x37C JUMP JUMPDEST PUSH32 0x3064313630313031463541363233306531363031303146354136323331313136 PUSH1 0x20 DUP3 ADD MSTORE PUSH32 0x3031303146354136323331323136303130314635413632330000000000000000 PUSH1 0x40 DUP3 ADD MSTORE SWAP1 JUMP JUMPDEST PUSH2 0xB5 PUSH2 0xDF4 JUMP JUMPDEST PUSH2 0xB5 PUSH2 0xE4D JUMP JUMPDEST PUSH2 0xB5 PUSH2 0xB5 PUSH2 0xB5 SWAP3 SWAP1 JUMP JUMPDEST PUSH4 0x4E487B71 PUSH1 0xE0 SHL PUSH1 0x0 MSTORE PUSH1 0x32 PUSH1 0x4 MSTORE PUSH1 0x24 PUSH1 0x0 REVERT JUMPDEST SWAP1 PUSH2 0xE89 DUP3 MLOAD SWAP1 JUMP JUMPDEST DUP2 LT ISZERO PUSH2 0xE9A JUMPI PUSH1 0x20 DUP1 SWAP2 MUL ADD ADD SWAP1 JUMP JUMPDEST PUSH2 0xE6A JUMP JUMPDEST PUSH2 0xEA9 PUSH1 0x1 PUSH2 0x37C JUMP JUMPDEST PUSH1 0xB PUSH1 0xFA SHL PUSH1 0x20 DUP3 ADD MSTORE SWAP1 JUMP JUMPDEST PUSH2 0xB5 PUSH2 0xE9F JUMP JUMPDEST PUSH2 0xF12 SWAP4 PUSH2 0xA8C PUSH2 0xEDD PUSH2 0xB5 SWAP8 SWAP6 PUSH2 0xA8C PUSH2 0xEF9 SWAP6 PUSH2 0xA8C SWAP8 PUSH2 0xA5D JUMP JUMPDEST PUSH16 0x3D913A3930B4BA2FBA3CB832911D1011 PUSH1 0x81 SHL DUP2 MSTORE PUSH1 0x10 ADD SWAP1 JUMP JUMPDEST PUSH13 0x111610113B30B63AB2911D1011 PUSH1 0x99 SHL DUP2 MSTORE PUSH1 0xD ADD SWAP1 JUMP JUMPDEST PUSH2 0x227D PUSH1 0xF0 SHL DUP2 MSTORE PUSH1 0x2 ADD SWAP1 JUMP JUMPDEST PUSH2 0xF2A PUSH1 0x6 PUSH2 0x37C JUMP JUMPDEST PUSH6 0x1E17B9BB339F PUSH1 0xD1 SHL PUSH1 0x20 DUP3 ADD MSTORE SWAP1 JUMP JUMPDEST PUSH2 0xB5 PUSH2 0xF20 JUMP JUMPDEST PUSH2 0xB5 PUSH2 0xF3C JUMP JUMPDEST SWAP5 PUSH2 0xA8C PUSH2 0x1251 PUSH2 0x120A PUSH2 0xA8C SWAP8 PUSH2 0xA8C PUSH2 0x1219 PUSH2 0x120A PUSH2 0x1289 SWAP14 SWAP11 PUSH2 0xB5 SWAP16 SWAP14 PUSH2 0x11D1 PUSH2 0x11B6 PUSH2 0xFBE PUSH2 0xA8C SWAP15 PUSH2 0xA8C PUSH2 0xF12 SWAP16 PUSH2 0xFCC PUSH2 0xFBE PUSH2 0x1180 SWAP3 PUSH2 0xA8C PUSH2 0xFA2 PUSH2 0xA8C SWAP12 PUSH1 0x7B PUSH1 0xF8 SHL DUP2 MSTORE PUSH1 0x1 ADD SWAP1 JUMP JUMPDEST PUSH16 0x226E616D65223A202250656E676F2023 PUSH1 0x80 SHL DUP2 MSTORE PUSH1 0x10 ADD SWAP1 JUMP JUMPDEST PUSH2 0x88B PUSH1 0xF2 SHL DUP2 MSTORE PUSH1 0x2 ADD SWAP1 JUMP JUMPDEST PUSH32 0x226465736372697074696F6E223A202250656E6775696E204F6E636861696E20 DUP2 MSTORE PUSH32 0x697320616E20696E6E6F766174697665206F6E2D636861696E204E4654207072 PUSH1 0x20 DUP3 ADD MSTORE PUSH32 0x6F6A6563742074686174207075736865732074686520626F756E646172696573 PUSH1 0x40 DUP3 ADD MSTORE PUSH32 0x206F662067656E657261746976652061727420616E6420626C6F636B63686169 PUSH1 0x60 DUP3 ADD MSTORE PUSH32 0x6E20637573746F6D697A6174696F6E2E20556E6C696B6520747261646974696F PUSH1 0x80 DUP3 ADD MSTORE PUSH32 0x6E616C204E465420636F6C6C656374696F6E7320746861742061726520707265 PUSH1 0xA0 DUP3 ADD MSTORE PUSH32 0x2D67656E65726174656420616E642073746F726564206F66662D636861696E2C PUSH1 0xC0 DUP3 ADD MSTORE PUSH32 0x2065766572792050656E6775696E204E46542069732067656E65726174656420 PUSH1 0xE0 DUP3 ADD MSTORE PUSH32 0x7573696E6720616E20616C676F726974686D206469726563746C79206F6E2074 PUSH2 0x100 DUP3 ADD MSTORE PUSH32 0x686520626C6F636B636861696E2C20656E737572696E67207472756520646563 PUSH2 0x120 DUP3 ADD MSTORE PUSH32 0x656E7472616C697A6174696F6E20616E6420696D6D75746162696C6974792E22 PUSH2 0x140 DUP3 ADD MSTORE PUSH1 0xB PUSH1 0xFA SHL PUSH2 0x160 DUP3 ADD MSTORE PUSH2 0x161 ADD SWAP1 JUMP JUMPDEST PUSH32 0x22696D616765223A2022646174613A696D6167652F7376672B786D6C3B626173 DUP2 MSTORE PUSH4 0x194D8D0B PUSH1 0xE2 SHL PUSH1 0x20 DUP3 ADD MSTORE PUSH1 0x24 ADD SWAP1 JUMP JUMPDEST PUSH15 0x2261747472696275746573223A205B PUSH1 0x88 SHL DUP2 MSTORE PUSH1 0xF ADD SWAP1 JUMP JUMPDEST PUSH32 0x7B2274726169745F74797065223A202250656E676F2054797065222C20227661 DUP2 MSTORE PUSH7 0x363AB2911D1011 PUSH1 0xC9 SHL PUSH1 0x20 DUP3 ADD MSTORE PUSH1 0x27 ADD SWAP1 JUMP JUMPDEST PUSH3 0x89F4B PUSH1 0xEA SHL DUP2 MSTORE PUSH1 0x3 ADD SWAP1 JUMP JUMPDEST PUSH32 0x7B2274726169745F74797065223A20224C69666520476F616C222C202276616C DUP2 MSTORE PUSH6 0x3AB2911D1011 PUSH1 0xD1 SHL PUSH1 0x20 DUP3 ADD MSTORE PUSH1 0x26 ADD SWAP1 JUMP JUMPDEST PUSH32 0x7B2274726169745F74797065223A20224E657420576F727468222C202276616C DUP2 MSTORE PUSH6 0x3AB2911D1011 PUSH1 0xD1 SHL PUSH1 0x20 DUP3 ADD MSTORE PUSH1 0x26 ADD SWAP1 JUMP JUMPDEST PUSH2 0x5D7D PUSH1 0xF0 SHL DUP2 MSTORE PUSH1 0x2 ADD SWAP1 JUMP JUMPDEST PUSH32 0x646174613A6170706C69636174696F6E2F6A736F6E3B6261736536342C000000 DUP2 MSTORE PUSH2 0xB5 SWAP2 SWAP1 PUSH1 0x1D ADD PUSH2 0xA8C JUMP JUMPDEST SWAP1 PUSH2 0x12E5 PUSH2 0x12DC DUP3 PUSH2 0x12D7 PUSH2 0x3AD JUMP JUMPDEST PUSH2 0x1BF1 JUMP JUMPDEST SWAP2 PUSH2 0x12D7 PUSH2 0x3D2 JUMP JUMPDEST SWAP1 PUSH2 0x12F8 PUSH2 0x12F3 PUSH1 0x1 PUSH2 0x2FA JUMP JUMPDEST PUSH2 0x208 JUMP JUMPDEST SWAP4 PUSH1 0x0 PUSH2 0x1304 PUSH1 0x40 MLOAD SWAP1 JUMP JUMPDEST PUSH4 0x82260F35 PUSH1 0xE0 SHL DUP2 MSTORE PUSH1 0x4 DUP2 ADD DUP7 SWAP1 MSTORE SWAP6 DUP7 SWAP1 PUSH1 0x24 SWAP1 DUP3 SWAP1 GAS STATICCALL SWAP3 DUP4 ISZERO PUSH2 0x1672 JUMPI PUSH1 0x0 SWAP6 DUP7 SWAP5 PUSH2 0x164B JUMPI JUMPDEST POP PUSH2 0x143D PUSH2 0xB5 PUSH2 0x14AF PUSH2 0x143D PUSH2 0xB5 PUSH2 0x14A4 PUSH2 0x143D PUSH2 0xB5 PUSH2 0x14BA SWAP9 PUSH2 0x145D PUSH2 0x1499 PUSH2 0x143D PUSH2 0xB5 DUP16 PUSH2 0x143D PUSH2 0xB5 PUSH2 0x1475 PUSH2 0x143D PUSH2 0xB5 PUSH2 0x148E SWAP6 PUSH2 0x145D PUSH2 0x1449 PUSH2 0x137C PUSH1 0x40 MLOAD SWAP1 JUMP JUMPDEST PUSH2 0xB5 DUP2 PUSH1 0x20 DUP2 ADD PUSH2 0x143D DUP2 PUSH32 0x3C7376672073686170652D72656E646572696E673D2263726973704564676573 DUP2 MSTORE PUSH32 0x222076696577426F783D223020302033302033302220786D6C6E733D22687474 PUSH1 0x20 DUP3 ADD MSTORE PUSH32 0x703A2F2F7777772E77332E6F72672F323030302F737667223E00000000000000 PUSH1 0x40 DUP3 ADD MSTORE PUSH32 0x3C726563742077696474683D223130302522206865696768743D223130302522 PUSH1 0x59 DUP3 ADD MSTORE PUSH17 0x103334B6361E91119B9A9A9B309C11179F PUSH1 0x79 SHL PUSH1 0x79 DUP3 ADD MSTORE PUSH1 0x8A ADD SWAP1 JUMP JUMPDEST SWAP1 DUP2 SUB DUP3 MSTORE SUB DUP3 PUSH2 0x324 JUMP JUMPDEST SWAP2 PUSH1 0x20 PUSH2 0x1454 PUSH2 0xA55 JUMP JUMPDEST SWAP2 ADD MLOAD SWAP1 PUSH2 0x219B JUMP JUMPDEST SWAP1 PUSH2 0x1467 PUSH1 0x40 MLOAD SWAP1 JUMP JUMPDEST SWAP4 DUP5 SWAP3 PUSH1 0x20 DUP5 ADD SWAP3 DUP4 PUSH2 0xA7E JUMP JUMPDEST PUSH2 0x145D PUSH2 0x1480 PUSH2 0xD11 JUMP JUMPDEST PUSH2 0x1488 PUSH2 0xD23 JUMP JUMPDEST SWAP1 PUSH2 0x219B JUMP JUMPDEST PUSH2 0x145D PUSH2 0x1480 PUSH2 0xD66 JUMP JUMPDEST SWAP2 PUSH1 0x20 PUSH2 0x1454 PUSH2 0xDA9 JUMP JUMPDEST PUSH2 0x145D PUSH2 0x1480 PUSH2 0xDEC JUMP JUMPDEST PUSH2 0x145D PUSH2 0x1480 PUSH2 0xE55 JUMP JUMPDEST SWAP1 PUSH2 0x14C3 PUSH2 0xD23 JUMP JUMPDEST SWAP1 PUSH1 0x0 SWAP4 PUSH2 0x14D0 DUP6 PUSH2 0xE5D JUMP JUMPDEST SWAP4 JUMPDEST PUSH2 0x14DD PUSH2 0xB5 DUP9 MLOAD SWAP1 JUMP JUMPDEST DUP6 LT ISZERO PUSH2 0x1595 JUMPI PUSH2 0x1570 DUP8 PUSH2 0xB5 DUP9 PUSH2 0x1513 PUSH2 0x143D PUSH2 0xB5 PUSH2 0x1577 SWAP8 PUSH2 0x145D PUSH1 0x40 PUSH2 0x1508 DUP16 DUP11 PUSH2 0xE80 JUMP JUMPDEST MLOAD ADD MLOAD PUSH2 0x1488 PUSH2 0xD23 JUMP JUMPDEST SWAP8 PUSH2 0x1520 DUP2 MLOAD SWAP1 JUMP JUMPDEST MLOAD SWAP1 JUMP JUMPDEST PUSH2 0x1530 PUSH2 0x152C DUP5 PUSH2 0xE5D JUMP JUMPDEST SWAP2 SWAP1 JUMP JUMPDEST GT ISZERO PUSH2 0x157E JUMPI PUSH2 0x143D PUSH1 0x20 PUSH2 0x155C DUP13 PUSH2 0x1547 PUSH2 0xEB6 JUMP JUMPDEST SWAP6 JUMPDEST PUSH2 0x1553 DUP3 DUP11 PUSH2 0xE80 JUMP JUMPDEST MLOAD ADD MLOAD SWAP8 PUSH2 0xE80 JUMP JUMPDEST MLOAD ADD MLOAD PUSH1 0x40 MLOAD SWAP6 DUP7 SWAP5 PUSH1 0x20 DUP7 ADD SWAP5 DUP6 PUSH2 0xEBE JUMP JUMPDEST SWAP5 PUSH1 0x1 ADD SWAP1 JUMP JUMPDEST SWAP4 SWAP3 PUSH2 0x14D2 JUMP JUMPDEST PUSH2 0x143D PUSH1 0x20 PUSH2 0x155C DUP13 PUSH2 0x158F PUSH2 0xD23 JUMP JUMPDEST SWAP6 PUSH2 0x1549 JUMP JUMPDEST PUSH2 0x1621 SWAP7 POP PUSH2 0xB5 SWAP5 POP SWAP7 PUSH2 0x143D DUP7 SWAP5 PUSH2 0xB5 SWAP5 SWAP11 PUSH2 0x15D7 SWAP9 PUSH2 0x15DC PUSH2 0x15D7 PUSH2 0x15D3 PUSH2 0x15CD PUSH2 0xB5 SWAP16 PUSH2 0xB5 PUSH2 0x143D SWAP2 PUSH2 0x145D PUSH2 0xF44 JUMP JUMPDEST SWAP8 PUSH2 0x2678 JUMP JUMPDEST SWAP7 SWAP1 JUMP JUMPDEST PUSH2 0x27B9 JUMP JUMPDEST SWAP6 ADD MLOAD SWAP7 PUSH1 0x20 DUP2 DUP4 ADD MLOAD SWAP3 ADD MLOAD SWAP1 PUSH2 0x1600 PUSH2 0x152C PUSH2 0x15FA PUSH2 0x151C DUP8 SWAP1 JUMP JUMPDEST SWAP3 PUSH2 0xE5D JUMP JUMPDEST GT ISZERO PUSH2 0x163D JUMPI PUSH2 0x160E PUSH2 0xEB6 JUMP JUMPDEST SWAP2 JUMPDEST PUSH1 0x40 MLOAD SWAP9 DUP10 SWAP8 PUSH1 0x20 DUP10 ADD SWAP8 DUP9 PUSH2 0xF4C JUMP JUMPDEST PUSH2 0xB5 PUSH2 0x162D PUSH1 0x40 MLOAD SWAP1 JUMP JUMPDEST DUP1 SWAP3 PUSH2 0x143D PUSH1 0x20 DUP4 ADD SWAP2 DUP3 PUSH2 0x1297 JUMP JUMPDEST PUSH2 0x1645 PUSH2 0xD23 JUMP JUMPDEST SWAP2 PUSH2 0x1610 JUMP JUMPDEST SWAP1 SWAP6 POP DUP3 SWAP4 RETURNDATASIZE DUP1 SWAP2 DUP4 RETURNDATACOPY PUSH2 0x165F DUP2 DUP4 PUSH2 0x324 JUMP JUMPDEST DUP2 ADD PUSH2 0x166A SWAP2 PUSH2 0x60C JUMP JUMPDEST SWAP6 SWAP1 SWAP4 PUSH2 0x1330 JUMP JUMPDEST PUSH2 0x655 JUMP JUMPDEST SWAP1 PUSH2 0x1687 PUSH2 0xB5 PUSH2 0x16A3 SWAP3 PUSH2 0x208 JUMP JUMPDEST DUP3 SLOAD PUSH1 0x1 PUSH1 0x1 PUSH1 0xA0 SHL SUB NOT AND PUSH1 0x1 PUSH1 0x1 PUSH1 0xA0 SHL SUB SWAP2 SWAP1 SWAP2 AND OR SWAP1 JUMP JUMPDEST SWAP1 SSTORE JUMP JUMPDEST PUSH2 0x16B3 PUSH2 0xBC SWAP2 PUSH2 0x208 JUMP JUMPDEST PUSH1 0x1 PUSH2 0x1677 JUMP JUMPDEST PUSH2 0xBC SWAP1 PUSH2 0x16C6 PUSH2 0x17A9 JUMP JUMPDEST PUSH2 0x172B JUMP JUMPDEST ISZERO PUSH2 0x16D2 JUMPI JUMP JUMPDEST PUSH1 0x40 MLOAD PUSH3 0x461BCD PUSH1 0xE5 SHL DUP2 MSTORE PUSH1 0x20 PUSH1 0x4 DUP3 ADD MSTORE PUSH1 0x26 PUSH1 0x24 DUP3 ADD MSTORE PUSH32 0x4F776E61626C653A206E6577206F776E657220697320746865207A65726F2061 PUSH1 0x44 DUP3 ADD MSTORE PUSH6 0x646472657373 PUSH1 0xD0 SHL PUSH1 0x64 DUP3 ADD MSTORE DUP1 PUSH1 0x84 DUP2 ADD JUMPDEST SUB SWAP1 REVERT JUMPDEST PUSH2 0xBC SWAP1 PUSH2 0x2E4 PUSH2 0x173F PUSH2 0xA9 PUSH1 0x0 PUSH2 0x2CE JUMP JUMPDEST PUSH1 0x1 PUSH1 0x1 PUSH1 0xA0 SHL SUB DUP4 AND EQ ISZERO PUSH2 0x16CB JUMP JUMPDEST PUSH2 0xBC SWAP1 PUSH2 0x16BA JUMP JUMPDEST ISZERO PUSH2 0x1760 JUMPI JUMP JUMPDEST PUSH1 0x40 MLOAD PUSH3 0x461BCD PUSH1 0xE5 SHL DUP2 MSTORE DUP1 PUSH2 0x1727 PUSH1 0x4 DUP3 ADD PUSH1 0x20 DUP1 DUP3 MSTORE DUP2 DUP2 ADD MSTORE PUSH32 0x4F776E61626C653A2063616C6C6572206973206E6F7420746865206F776E6572 PUSH1 0x40 DUP3 ADD MSTORE PUSH1 0x60 ADD SWAP1 JUMP JUMPDEST PUSH2 0xBC PUSH2 0x17B4 PUSH2 0x304 JUMP JUMPDEST PUSH2 0x17CD PUSH2 0x17C0 CALLER PUSH2 0xA9 JUMP JUMPDEST SWAP2 PUSH1 0x1 PUSH1 0x1 PUSH1 0xA0 SHL SUB AND SWAP1 JUMP JUMPDEST EQ PUSH2 0x1759 JUMP JUMPDEST PUSH2 0x17F4 PUSH2 0x17EE PUSH2 0x17E3 PUSH1 0x0 PUSH2 0x2FA JUMP JUMPDEST PUSH2 0x12F3 DUP5 PUSH1 0x0 PUSH2 0x1677 JUMP JUMPDEST SWAP2 PUSH2 0x208 JUMP JUMPDEST SWAP1 PUSH32 0x8BE0079C531659141344CD1FD0A4F28419497F9722A3DAAFE3B4186F6B6457E0 PUSH2 0x181F PUSH1 0x40 MLOAD SWAP1 JUMP JUMPDEST PUSH1 0x0 SWAP1 LOG3 JUMP JUMPDEST PUSH2 0xB5 PUSH1 0x40 PUSH2 0x34B JUMP JUMPDEST PUSH2 0x1837 PUSH2 0x1825 JUMP JUMPDEST SWAP1 PUSH1 0x60 DUP3 MSTORE PUSH1 0x60 PUSH1 0x20 DUP4 ADD MSTORE JUMP JUMPDEST PUSH2 0xB5 PUSH2 0x182F JUMP JUMPDEST PUSH4 0x4E487B71 PUSH1 0xE0 SHL PUSH1 0x0 MSTORE PUSH1 0x12 PUSH1 0x4 MSTORE PUSH1 0x24 PUSH1 0x0 REVERT JUMPDEST DUP2 ISZERO PUSH2 0x186D JUMPI MOD SWAP1 JUMP JUMPDEST PUSH2 0x184D JUMP JUMPDEST PUSH2 0xB5 SWAP2 PUSH2 0xA5D JUMP JUMPDEST PUSH2 0x1885 PUSH1 0x6 PUSH2 0x37C JUMP JUMPDEST PUSH6 0x5A6F6D626965 PUSH1 0xD0 SHL PUSH1 0x20 DUP3 ADD MSTORE SWAP1 JUMP JUMPDEST PUSH2 0xB5 PUSH2 0x187B JUMP JUMPDEST PUSH2 0x18A9 PUSH1 0x6 PUSH2 0x37C JUMP JUMPDEST PUSH6 0x19981A309899 PUSH1 0xD1 SHL PUSH1 0x20 DUP3 ADD MSTORE SWAP1 JUMP JUMPDEST PUSH2 0xB5 PUSH2 0x189F JUMP JUMPDEST PUSH4 0x4E487B71 PUSH1 0xE0 SHL PUSH1 0x0 MSTORE PUSH1 0x11 PUSH1 0x4 MSTORE PUSH1 0x24 PUSH1 0x0 REVERT JUMPDEST SWAP2 SWAP1 DUP3 SUB SWAP2 DUP3 GT PUSH2 0x18E6 JUMPI JUMP JUMPDEST PUSH2 0x18C3 JUMP JUMPDEST PUSH2 0x18F5 PUSH1 0x6 PUSH2 0x37C JUMP JUMPDEST PUSH6 0x417263746963 PUSH1 0xD0 SHL PUSH1 0x20 DUP3 ADD MSTORE SWAP1 JUMP JUMPDEST PUSH2 0xB5 PUSH2 0x18EB JUMP JUMPDEST PUSH2 0x1919 PUSH1 0x6 PUSH2 0x37C JUMP JUMPDEST PUSH6 0x1A9920982323 PUSH1 0xD1 SHL PUSH1 0x20 DUP3 ADD MSTORE SWAP1 JUMP JUMPDEST PUSH2 0xB5 PUSH2 0x190F JUMP JUMPDEST PUSH2 0x193D PUSH1 0x4 PUSH2 0x37C JUMP JUMPDEST PUSH4 0x46697265 PUSH1 0xE0 SHL PUSH1 0x20 DUP3 ADD MSTORE SWAP1 JUMP JUMPDEST PUSH2 0xB5 PUSH2 0x1933 JUMP JUMPDEST PUSH2 0x195F PUSH1 0x6 PUSH2 0x37C JUMP JUMPDEST PUSH6 0x7272606E627 PUSH1 0xD3 SHL PUSH1 0x20 DUP3 ADD MSTORE SWAP1 JUMP JUMPDEST PUSH2 0xB5 PUSH2 0x1955 JUMP JUMPDEST DUP2 ISZERO PUSH2 0x186D JUMPI DIV SWAP1 JUMP JUMPDEST SWAP2 SWAP1 DUP3 ADD DUP1 SWAP3 GT PUSH2 0x18E6 JUMPI JUMP JUMPDEST PUSH2 0x199A PUSH1 0x4 PUSH2 0x37C JUMP JUMPDEST PUSH4 0x4D616C65 PUSH1 0xE0 SHL PUSH1 0x20 DUP3 ADD MSTORE SWAP1 JUMP JUMPDEST PUSH2 0xB5 PUSH2 0x1990 JUMP JUMPDEST PUSH2 0x19BC PUSH1 0x6 PUSH2 0x37C JUMP JUMPDEST PUSH6 0x1A211A219A23 PUSH1 0xD1 SHL PUSH1 0x20 DUP3 ADD MSTORE SWAP1 JUMP JUMPDEST PUSH2 0xB5 PUSH2 0x19B2 JUMP JUMPDEST PUSH2 0x19E0 PUSH1 0x6 PUSH2 0x37C JUMP JUMPDEST PUSH6 0x46656D616C65 PUSH1 0xD0 SHL PUSH1 0x20 DUP3 ADD MSTORE SWAP1 JUMP JUMPDEST PUSH2 0xB5 PUSH2 0x19D6 JUMP JUMPDEST PUSH2 0x1A04 PUSH1 0x6 PUSH2 0x37C JUMP JUMPDEST PUSH6 0x1CA11CA11CA1 PUSH1 0xD1 SHL PUSH1 0x20 DUP3 ADD MSTORE SWAP1 JUMP JUMPDEST PUSH2 0xB5 PUSH2 0x19FA JUMP JUMPDEST PUSH2 0x1A28 PUSH1 0xA PUSH2 0x37C JUMP JUMPDEST PUSH10 0x5A6F6D62696520457965 PUSH1 0xB0 SHL PUSH1 0x20 DUP3 ADD MSTORE SWAP1 JUMP JUMPDEST PUSH2 0xB5 PUSH2 0x1A1E JUMP JUMPDEST PUSH2 0x1A50 PUSH1 0x6 PUSH2 0x37C JUMP JUMPDEST PUSH6 0x443734373535 PUSH1 0xD0 SHL PUSH1 0x20 DUP3 ADD MSTORE SWAP1 JUMP JUMPDEST PUSH2 0xB5 PUSH2 0x1A46 JUMP JUMPDEST DUP2 DUP2 MUL SWAP3 SWAP2 DUP2 ISZERO SWAP2 DUP5 DIV EQ OR ISZERO PUSH2 0x18E6 JUMPI JUMP JUMPDEST PUSH2 0x1A87 PUSH1 0x8 PUSH2 0x37C JUMP JUMPDEST PUSH8 0x14DD185B99185C99 PUSH1 0xC2 SHL PUSH1 0x20 DUP3 ADD MSTORE SWAP1 JUMP JUMPDEST PUSH2 0xB5 PUSH2 0x1A7D JUMP JUMPDEST PUSH2 0x1AAD PUSH1 0x6 PUSH2 0x37C JUMP JUMPDEST PUSH6 0x232323232323 PUSH1 0xD1 SHL PUSH1 0x20 DUP3 ADD MSTORE SWAP1 JUMP JUMPDEST PUSH2 0xB5 PUSH2 0x1AA3 JUMP JUMPDEST PUSH2 0x1AD1 PUSH1 0xC PUSH2 0x37C JUMP JUMPDEST PUSH12 0x507572706C65205368616465 PUSH1 0xA0 SHL PUSH1 0x20 DUP3 ADD MSTORE SWAP1 JUMP JUMPDEST PUSH2 0xB5 PUSH2 0x1AC7 JUMP JUMPDEST PUSH2 0x1AFB PUSH1 0x6 PUSH2 0x37C JUMP JUMPDEST PUSH6 0x413836374531 PUSH1 0xD0 SHL PUSH1 0x20 DUP3 ADD MSTORE SWAP1 JUMP JUMPDEST PUSH2 0xB5 PUSH2 0x1AF1 JUMP JUMPDEST PUSH2 0x1B1F PUSH1 0x6 PUSH2 0x37C JUMP JUMPDEST PUSH6 0x536C65657079 PUSH1 0xD0 SHL PUSH1 0x20 DUP3 ADD MSTORE SWAP1 JUMP JUMPDEST PUSH2 0xB5 PUSH2 0x1B15 JUMP JUMPDEST PUSH2 0x1B43 PUSH1 0x6 PUSH2 0x37C JUMP JUMPDEST PUSH6 0xD0E0DCC904D PUSH1 0xD2 SHL PUSH1 0x20 DUP3 ADD MSTORE SWAP1 JUMP JUMPDEST PUSH2 0xB5 PUSH2 0x1B39 JUMP JUMPDEST PUSH2 0x1B67 PUSH1 0x9 PUSH2 0x37C JUMP JUMPDEST PUSH9 0x416E636573746F7273 PUSH1 0xB8 SHL PUSH1 0x20 DUP3 ADD MSTORE SWAP1 JUMP JUMPDEST PUSH2 0xB5 PUSH2 0x1B5D JUMP JUMPDEST PUSH2 0x1B8E PUSH1 0x6 PUSH2 0x37C JUMP JUMPDEST PUSH6 0x42304230423 PUSH1 0xD4 SHL PUSH1 0x20 DUP3 ADD MSTORE SWAP1 JUMP JUMPDEST PUSH2 0xB5 PUSH2 0x1B84 JUMP JUMPDEST PUSH2 0x1BB2 PUSH1 0x7 PUSH2 0x37C JUMP JUMPDEST PUSH7 0x2AB735B737BBB7 PUSH1 0xC9 SHL PUSH1 0x20 DUP3 ADD MSTORE SWAP1 JUMP JUMPDEST PUSH2 0xB5 PUSH2 0x1BA8 JUMP JUMPDEST PUSH2 0x1BD7 PUSH1 0x6 PUSH2 0x37C JUMP JUMPDEST PUSH6 0x30303030303 PUSH1 0xD4 SHL PUSH1 0x20 DUP3 ADD MSTORE SWAP1 JUMP JUMPDEST PUSH2 0xB5 PUSH2 0x1BCD JUMP JUMPDEST SWAP1 PUSH2 0x1BFA PUSH2 0x1845 JUMP JUMPDEST POP PUSH2 0x1C06 PUSH2 0x4E20 PUSH2 0xE5D JUMP JUMPDEST SWAP1 PUSH2 0x1C11 DUP3 DUP3 PUSH2 0x1863 JUMP JUMPDEST SWAP3 PUSH2 0x1C1B PUSH1 0x40 MLOAD SWAP1 JUMP JUMPDEST PUSH2 0x1C2D DUP2 PUSH1 0x20 DUP2 ADD PUSH2 0x143D DUP6 DUP3 PUSH2 0x1872 JUMP JUMPDEST PUSH2 0x1C3F PUSH2 0x1C38 DUP3 MLOAD SWAP1 JUMP JUMPDEST SWAP2 PUSH1 0x20 ADD SWAP1 JUMP JUMPDEST KECCAK256 PUSH2 0x1C7A PUSH2 0x152C PUSH2 0x1C4F PUSH1 0x40 MLOAD SWAP1 JUMP JUMPDEST PUSH2 0x1C6B DUP2 PUSH1 0x20 DUP2 ADD PUSH2 0x143D DUP2 PUSH4 0x426F6479 PUSH1 0xE0 SHL DUP2 MSTORE PUSH1 0x4 ADD SWAP1 JUMP JUMPDEST PUSH2 0x1C76 PUSH2 0x1C38 DUP3 MLOAD SWAP1 JUMP JUMPDEST KECCAK256 SWAP1 JUMP JUMPDEST EQ PUSH2 0x1EB9 JUMPI PUSH2 0x1C9B PUSH2 0x1C8B PUSH1 0x40 MLOAD SWAP1 JUMP JUMPDEST DUP1 SWAP3 PUSH2 0x143D PUSH1 0x20 DUP4 ADD SWAP2 DUP3 PUSH2 0x1872 JUMP JUMPDEST PUSH2 0x1CA6 PUSH2 0x1C38 DUP3 MLOAD SWAP1 JUMP JUMPDEST KECCAK256 PUSH2 0x1CD5 PUSH2 0x152C PUSH2 0x1CB6 PUSH1 0x40 MLOAD SWAP1 JUMP JUMPDEST PUSH2 0x1C6B DUP2 PUSH1 0x20 DUP2 ADD PUSH2 0x143D DUP2 PUSH7 0x746F705F657965 PUSH1 0xC8 SHL DUP2 MSTORE PUSH1 0x7 ADD SWAP1 JUMP JUMPDEST EQ PUSH2 0x1CFF JUMPI POP POP POP PUSH2 0x1CE5 PUSH2 0x1825 JUMP JUMPDEST PUSH2 0x1CF4 PUSH2 0x1CF0 PUSH2 0x1BC5 JUMP JUMPDEST DUP3 MSTORE JUMP JUMPDEST PUSH2 0xB5 PUSH2 0x605 PUSH2 0x1BE9 JUMP JUMPDEST PUSH2 0x1D0B SWAP1 PUSH2 0x12D7 PUSH2 0x3AD JUMP JUMPDEST MLOAD PUSH1 0x40 MLOAD PUSH2 0x1D18 SWAP1 PUSH2 0x1C8B JUMP JUMPDEST PUSH2 0x1D23 PUSH2 0x1C38 DUP3 MLOAD SWAP1 JUMP JUMPDEST KECCAK256 PUSH2 0x1D51 PUSH2 0x152C PUSH2 0x1D33 PUSH1 0x40 MLOAD SWAP1 JUMP JUMPDEST PUSH2 0x1C6B DUP2 PUSH1 0x20 DUP2 ADD PUSH2 0x143D DUP2 PUSH6 0x5A6F6D626965 PUSH1 0xD0 SHL DUP2 MSTORE PUSH1 0x6 ADD SWAP1 JUMP JUMPDEST EQ PUSH2 0x1E99 JUMPI PUSH2 0x1D6C PUSH2 0x12C SWAP2 PUSH2 0x1D66 DUP4 PUSH2 0xE5D JUMP JUMPDEST SWAP1 PUSH2 0x18D9 JUMP JUMPDEST PUSH2 0x1D92 PUSH2 0x1D82 PUSH2 0x1D7C PUSH1 0x5 PUSH2 0xE5D JUMP JUMPDEST DUP4 PUSH2 0x1A6A JUMP JUMPDEST PUSH2 0x1D8C PUSH1 0x64 PUSH2 0xE5D JUMP JUMPDEST SWAP1 PUSH2 0x1979 JUMP JUMPDEST SWAP2 PUSH2 0x1DC0 PUSH2 0x1D82 PUSH2 0x1DAF PUSH2 0x1D82 PUSH2 0x1DA9 PUSH1 0xA PUSH2 0xE5D JUMP JUMPDEST DUP7 PUSH2 0x1A6A JUMP JUMPDEST SWAP4 PUSH2 0x1DBA PUSH1 0x1E PUSH2 0xE5D JUMP JUMPDEST SWAP1 PUSH2 0x1A6A JUMP JUMPDEST PUSH2 0x1DD5 PUSH2 0xB5 DUP6 PUSH2 0x1DD0 DUP6 PUSH2 0xE5D JUMP JUMPDEST PUSH2 0x1983 JUMP JUMPDEST DUP6 LT ISZERO PUSH2 0x1DFF JUMPI POP POP POP POP POP PUSH2 0x1DE9 PUSH2 0x1825 JUMP JUMPDEST PUSH2 0x1DF4 PUSH2 0x1CF0 PUSH2 0x1B7C JUMP JUMPDEST PUSH2 0xB5 PUSH2 0x605 PUSH2 0x1BA0 JUMP JUMPDEST PUSH2 0x1E13 PUSH2 0xB5 DUP5 PUSH2 0x1DD0 DUP8 PUSH2 0x1DD0 DUP8 PUSH2 0xE5D JUMP JUMPDEST DUP6 LT ISZERO PUSH2 0x1E3D JUMPI POP POP POP POP POP PUSH2 0x1E27 PUSH2 0x1825 JUMP JUMPDEST PUSH2 0x1E32 PUSH2 0x1CF0 PUSH2 0x1B31 JUMP JUMPDEST PUSH2 0xB5 PUSH2 0x605 PUSH2 0x1B55 JUMP JUMPDEST PUSH2 0x1DD0 PUSH2 0x152C SWAP4 PUSH2 0x1DD0 PUSH2 0x1E57 SWAP7 PUSH2 0x1DD0 PUSH2 0xB5 SWAP7 PUSH2 0xE5D JUMP JUMPDEST LT ISZERO PUSH2 0x1E7B JUMPI PUSH2 0x1E65 PUSH2 0x1825 JUMP JUMPDEST PUSH2 0x1E70 PUSH2 0x1CF0 PUSH2 0x1AE9 JUMP JUMPDEST PUSH2 0xB5 PUSH2 0x605 PUSH2 0x1B0D JUMP JUMPDEST PUSH2 0x1E83 PUSH2 0x1825 JUMP JUMPDEST PUSH2 0x1E8E PUSH2 0x1CF0 PUSH2 0x1A9B JUMP JUMPDEST PUSH2 0xB5 PUSH2 0x605 PUSH2 0x1ABF JUMP JUMPDEST POP POP PUSH2 0x1EA3 PUSH2 0x1825 JUMP JUMPDEST PUSH2 0x1EAE PUSH2 0x1CF0 PUSH2 0x1A3E JUMP JUMPDEST PUSH2 0xB5 PUSH2 0x605 PUSH2 0x1A62 JUMP JUMPDEST POP POP PUSH2 0x12C SWAP1 PUSH2 0x1EC8 DUP3 PUSH2 0xE5D JUMP JUMPDEST DUP4 LT PUSH2 0x1FBE JUMPI PUSH2 0x1D66 PUSH2 0x1EDA SWAP3 PUSH2 0xE5D JUMP JUMPDEST PUSH2 0x1EE5 PUSH2 0x3E8 PUSH2 0xE5D JUMP JUMPDEST DUP3 LT PUSH2 0x1F9E JUMPI PUSH2 0x1EFA SWAP1 PUSH2 0x1D66 PUSH2 0x2BC PUSH2 0xE5D JUMP JUMPDEST PUSH2 0x9C4 PUSH2 0x1F06 DUP2 PUSH2 0xE5D JUMP JUMPDEST DUP4 LT PUSH2 0x1F7D JUMPI PUSH2 0xB5 PUSH2 0x152C SWAP2 PUSH2 0x1DD0 PUSH2 0x1F35 PUSH2 0x1F2B PUSH2 0x1F3B SWAP7 PUSH2 0x1D66 PUSH2 0x5DC PUSH2 0xE5D JUMP JUMPDEST PUSH2 0x1D8C PUSH1 0x2 PUSH2 0xE5D JUMP JUMPDEST SWAP2 PUSH2 0xE5D JUMP JUMPDEST LT ISZERO PUSH2 0x1F5F JUMPI PUSH2 0x1F49 PUSH2 0x1825 JUMP JUMPDEST PUSH2 0x1F54 PUSH2 0x1CF0 PUSH2 0x19F2 JUMP JUMPDEST PUSH2 0xB5 PUSH2 0x605 PUSH2 0x1A16 JUMP JUMPDEST PUSH2 0x1F67 PUSH2 0x1825 JUMP JUMPDEST PUSH2 0x1F72 PUSH2 0x1CF0 PUSH2 0x19AA JUMP JUMPDEST PUSH2 0xB5 PUSH2 0x605 PUSH2 0x19CE JUMP JUMPDEST POP POP POP PUSH2 0x1F88 PUSH2 0x1825 JUMP JUMPDEST PUSH2 0x1F93 PUSH2 0x1CF0 PUSH2 0x194D JUMP JUMPDEST PUSH2 0xB5 PUSH2 0x605 PUSH2 0x1971 JUMP JUMPDEST POP POP PUSH2 0x1FA8 PUSH2 0x1825 JUMP JUMPDEST PUSH2 0x1FB3 PUSH2 0x1CF0 PUSH2 0x1907 JUMP JUMPDEST PUSH2 0xB5 PUSH2 0x605 PUSH2 0x192B JUMP JUMPDEST POP POP POP PUSH2 0x1FC9 PUSH2 0x1825 JUMP JUMPDEST PUSH2 0x1FD4 PUSH2 0x1CF0 PUSH2 0x1897 JUMP JUMPDEST PUSH2 0xB5 PUSH2 0x605 PUSH2 0x18BB JUMP JUMPDEST ISZERO PUSH2 0x1FE6 JUMPI JUMP JUMPDEST PUSH1 0x40 MLOAD PUSH3 0x461BCD PUSH1 0xE5 SHL DUP2 MSTORE PUSH1 0x20 PUSH1 0x4 DUP3 ADD MSTORE PUSH1 0x19 PUSH1 0x24 DUP3 ADD MSTORE PUSH32 0x496E76616C696420706978656C2064617461206C656E67746800000000000000 PUSH1 0x44 DUP3 ADD MSTORE PUSH1 0x64 SWAP1 REVERT JUMPDEST SWAP1 PUSH2 0x38E PUSH2 0x389 DUP4 PUSH2 0x3DA JUMP JUMPDEST CALLDATASIZE SWAP1 CALLDATACOPY JUMP JUMPDEST SWAP1 PUSH2 0xBC PUSH2 0x2053 PUSH2 0x204D DUP5 PUSH2 0x202B JUMP JUMPDEST SWAP4 PUSH2 0x3DA JUMP JUMPDEST PUSH1 0x1F NOT ADD PUSH1 0x20 DUP5 ADD PUSH2 0x2038 JUMP JUMPDEST PUSH1 0x0 JUMPDEST DUP3 DUP2 LT PUSH2 0x206F JUMPI POP POP POP JUMP JUMPDEST PUSH1 0x60 DUP3 DUP3 ADD MSTORE PUSH1 0x20 ADD PUSH2 0x2063 JUMP JUMPDEST SWAP1 PUSH2 0xBC PUSH2 0x208D PUSH2 0x204D DUP5 PUSH2 0x202B JUMP JUMPDEST PUSH1 0x1F NOT ADD PUSH1 0x20 DUP5 ADD PUSH2 0x2060 JUMP JUMPDEST SWAP1 PUSH2 0x20A3 DUP3 MLOAD SWAP1 JUMP JUMPDEST DUP2 LT ISZERO PUSH2 0xE9A JUMPI ADD PUSH1 0x20 ADD SWAP1 JUMP JUMPDEST PUSH2 0x20C1 PUSH2 0xB5 PUSH2 0xB5 SWAP3 PUSH1 0xFF AND SWAP1 JUMP JUMPDEST PUSH1 0xFF AND SWAP1 JUMP JUMPDEST PUSH2 0xB5 SWAP1 PUSH1 0xF8 SHR PUSH2 0x20B1 JUMP JUMPDEST PUSH2 0xB5 PUSH2 0xB5 PUSH2 0xB5 SWAP3 PUSH1 0xFF AND SWAP1 JUMP JUMPDEST SWAP2 PUSH2 0xA8C PUSH2 0xB5 SWAP5 SWAP4 PUSH2 0xA8C SWAP4 PUSH2 0xA5D JUMP JUMPDEST PUSH2 0x2161 PUSH2 0xB5 SWAP8 SWAP6 PUSH2 0xA8C PUSH2 0x214C PUSH2 0xA8C SWAP8 PUSH2 0xA8C PUSH2 0x213B PUSH2 0x2177 SWAP10 PUSH2 0xA8C PUSH2 0x2126 PUSH2 0x218C SWAP16 SWAP12 SWAP11 PUSH2 0xA8C SWAP12 PUSH2 0xA5D JUMP JUMPDEST PUSH9 0x3C7265637420783D27 PUSH1 0xB8 SHL DUP2 MSTORE PUSH1 0x9 ADD SWAP1 JUMP JUMPDEST PUSH5 0x2720793D27 PUSH1 0xD8 SHL DUP2 MSTORE PUSH1 0x5 ADD SWAP1 JUMP JUMPDEST PUSH9 0x272077696474683D27 PUSH1 0xB8 SHL DUP2 MSTORE PUSH1 0x9 ADD SWAP1 JUMP JUMPDEST PUSH10 0x27206865696768743D27 PUSH1 0xB0 SHL DUP2 MSTORE PUSH1 0xA ADD SWAP1 JUMP JUMPDEST PUSH9 0x272066696C6C3D2723 PUSH1 0xB8 SHL DUP2 MSTORE PUSH1 0x9 ADD SWAP1 JUMP JUMPDEST PUSH3 0x13979F PUSH1 0xE9 SHL DUP2 MSTORE PUSH1 0x3 ADD SWAP1 JUMP JUMPDEST PUSH2 0x21A4 SWAP1 PUSH2 0x2954 JUMP JUMPDEST DUP1 MLOAD PUSH2 0x21BC PUSH1 0x7 SWAP2 PUSH2 0x21B6 PUSH1 0x7 PUSH2 0xE5D JUMP JUMPDEST SWAP1 PUSH2 0x1863 JUMP JUMPDEST SWAP1 PUSH2 0x21D5 PUSH1 0x0 SWAP3 PUSH2 0x21CF PUSH2 0x152C DUP6 PUSH2 0xE5D JUMP JUMPDEST EQ PUSH2 0x1FDF JUMP JUMPDEST PUSH2 0x21DD PUSH2 0xD23 JUMP JUMPDEST SWAP1 PUSH2 0x21F3 PUSH2 0x21E9 DUP6 MLOAD SWAP1 JUMP JUMPDEST PUSH2 0x1D8C PUSH1 0x7 PUSH2 0xE5D JUMP JUMPDEST SWAP6 PUSH1 0x4 SWAP3 PUSH2 0x2211 PUSH2 0x220C PUSH2 0x2206 DUP7 PUSH2 0xE5D JUMP JUMPDEST DUP11 PUSH2 0x1A6A JUMP JUMPDEST PUSH2 0x203D JUMP JUMPDEST SWAP5 PUSH2 0x221B DUP10 PUSH2 0x207D JUMP JUMPDEST SWAP8 PUSH2 0x2225 DUP3 PUSH2 0xE5D JUMP JUMPDEST DUP11 DUP2 LT ISZERO PUSH2 0x24AF JUMPI PUSH2 0x2236 DUP7 PUSH2 0xE5D JUMP JUMPDEST PUSH2 0x2240 SWAP1 DUP3 PUSH2 0x1A6A JUMP JUMPDEST PUSH2 0x224A DUP2 DUP12 PUSH2 0x209A JUMP JUMPDEST MLOAD PUSH1 0x1 PUSH1 0x1 PUSH1 0xF8 SHL SUB NOT AND PUSH2 0x225E SWAP1 PUSH2 0x20C7 JUMP JUMPDEST PUSH2 0x2267 SWAP1 PUSH2 0x20D3 JUMP JUMPDEST PUSH2 0x2270 DUP10 PUSH2 0xE5D JUMP JUMPDEST PUSH2 0x227A SWAP1 DUP5 PUSH2 0x1A6A JUMP JUMPDEST PUSH2 0x2284 SWAP1 DUP12 PUSH2 0xE80 JUMP JUMPDEST MSTORE PUSH1 0x1 PUSH2 0x2290 DUP2 PUSH2 0xE5D JUMP JUMPDEST PUSH2 0x229A SWAP1 DUP4 PUSH2 0x1983 JUMP JUMPDEST PUSH2 0x22A4 SWAP1 DUP13 PUSH2 0x209A JUMP JUMPDEST MLOAD PUSH1 0x1 PUSH1 0x1 PUSH1 0xF8 SHL SUB NOT AND PUSH2 0x22B8 SWAP1 PUSH2 0x20C7 JUMP JUMPDEST PUSH2 0x22C1 SWAP1 PUSH2 0x20D3 JUMP JUMPDEST SWAP1 PUSH2 0x22CB DUP11 PUSH2 0xE5D JUMP JUMPDEST PUSH2 0x22D5 SWAP1 DUP6 PUSH2 0x1A6A JUMP JUMPDEST SWAP1 PUSH2 0x22DF SWAP1 PUSH2 0xE5D JUMP JUMPDEST PUSH2 0x22E8 SWAP2 PUSH2 0x1983 JUMP JUMPDEST PUSH2 0x22F2 SWAP1 DUP12 PUSH2 0xE80 JUMP JUMPDEST MSTORE PUSH1 0x2 PUSH2 0x22FE DUP2 PUSH2 0xE5D JUMP JUMPDEST PUSH2 0x2308 SWAP1 DUP4 PUSH2 0x1983 JUMP JUMPDEST PUSH2 0x2312 SWAP1 DUP13 PUSH2 0x209A JUMP JUMPDEST MLOAD PUSH1 0x1 PUSH1 0x1 PUSH1 0xF8 SHL SUB NOT AND PUSH2 0x2326 SWAP1 PUSH2 0x20C7 JUMP JUMPDEST PUSH2 0x232F SWAP1 PUSH2 0x20D3 JUMP JUMPDEST SWAP1 PUSH2 0x2339 DUP11 PUSH2 0xE5D JUMP JUMPDEST PUSH2 0x2343 SWAP1 DUP6 PUSH2 0x1A6A JUMP JUMPDEST SWAP1 PUSH2 0x234D SWAP1 PUSH2 0xE5D JUMP JUMPDEST PUSH2 0x2356 SWAP2 PUSH2 0x1983 JUMP JUMPDEST PUSH2 0x2360 SWAP1 DUP12 PUSH2 0xE80 JUMP JUMPDEST MSTORE PUSH1 0x3 PUSH2 0x236C DUP2 PUSH2 0xE5D JUMP JUMPDEST PUSH2 0x2376 SWAP1 DUP4 PUSH2 0x1983 JUMP JUMPDEST PUSH2 0x2380 SWAP1 DUP13 PUSH2 0x209A JUMP JUMPDEST MLOAD PUSH1 0x1 PUSH1 0x1 PUSH1 0xF8 SHL SUB NOT AND PUSH2 0x2394 SWAP1 PUSH2 0x20C7 JUMP JUMPDEST PUSH2 0x239D SWAP1 PUSH2 0x20D3 JUMP JUMPDEST SWAP1 PUSH2 0x23A7 DUP11 PUSH2 0xE5D JUMP JUMPDEST PUSH2 0x23B1 SWAP1 DUP6 PUSH2 0x1A6A JUMP JUMPDEST SWAP1 PUSH2 0x23BB SWAP1 PUSH2 0xE5D JUMP JUMPDEST PUSH2 0x23C4 SWAP2 PUSH2 0x1983 JUMP JUMPDEST PUSH2 0x23CE SWAP1 DUP12 PUSH2 0xE80 JUMP JUMPDEST MSTORE PUSH2 0x23D8 DUP9 PUSH2 0xE5D JUMP JUMPDEST PUSH2 0x23E2 SWAP1 DUP3 PUSH2 0x1983 JUMP JUMPDEST PUSH2 0x23EC SWAP1 DUP12 PUSH2 0x209A JUMP JUMPDEST MLOAD PUSH1 0x1 PUSH1 0x1 PUSH1 0xF8 SHL SUB NOT AND PUSH2 0x2400 SWAP1 PUSH2 0x2AA3 JUMP JUMPDEST SWAP1 PUSH2 0x240B PUSH1 0x5 PUSH2 0xE5D JUMP JUMPDEST PUSH2 0x2415 SWAP1 DUP3 PUSH2 0x1983 JUMP JUMPDEST PUSH2 0x241F SWAP1 DUP13 PUSH2 0x209A JUMP JUMPDEST MLOAD PUSH1 0x1 PUSH1 0x1 PUSH1 0xF8 SHL SUB NOT AND PUSH2 0x2433 SWAP1 PUSH2 0x2AA3 JUMP JUMPDEST SWAP1 PUSH2 0x243E PUSH1 0x6 PUSH2 0xE5D JUMP JUMPDEST PUSH2 0x2447 SWAP2 PUSH2 0x1983 JUMP JUMPDEST PUSH2 0x2451 SWAP1 DUP13 PUSH2 0x209A JUMP JUMPDEST MLOAD PUSH1 0x1 PUSH1 0x1 PUSH1 0xF8 SHL SUB NOT AND PUSH2 0x2465 SWAP1 PUSH2 0x2AA3 JUMP JUMPDEST SWAP1 PUSH2 0x246F PUSH1 0x40 MLOAD SWAP1 JUMP JUMPDEST SWAP3 DUP4 SWAP3 PUSH1 0x20 DUP5 ADD SWAP3 PUSH2 0x2481 SWAP3 DUP5 PUSH2 0x20E3 JUMP JUMPDEST SWAP1 DUP2 SUB DUP3 MSTORE SUB PUSH2 0x2491 SWAP1 DUP3 PUSH2 0x324 JUMP JUMPDEST PUSH2 0x249B DUP3 DUP13 PUSH2 0xE80 JUMP JUMPDEST MSTORE PUSH2 0x24A6 DUP2 DUP12 PUSH2 0xE80 JUMP JUMPDEST POP PUSH1 0x1 ADD PUSH2 0x2225 JUMP JUMPDEST POP SWAP3 SWAP9 POP SWAP3 POP SWAP3 SWAP5 POP PUSH2 0x24C1 DUP3 PUSH2 0xE5D JUMP JUMPDEST SWAP3 JUMPDEST PUSH2 0x24CE PUSH2 0xB5 DUP7 MLOAD SWAP1 JUMP JUMPDEST DUP5 LT ISZERO PUSH2 0x25FA JUMPI PUSH2 0x24DF DUP5 DUP7 PUSH2 0xE80 JUMP JUMPDEST PUSH2 0x24E8 SWAP1 PUSH2 0x151C JUMP JUMPDEST PUSH2 0x24F2 PUSH1 0x1 PUSH2 0xE5D JUMP JUMPDEST PUSH2 0x24FC SWAP1 DUP7 PUSH2 0x1983 JUMP JUMPDEST PUSH2 0x2506 SWAP1 DUP8 PUSH2 0xE80 JUMP JUMPDEST PUSH2 0x250F SWAP1 PUSH2 0x151C JUMP JUMPDEST SWAP1 PUSH2 0x251A PUSH1 0x2 PUSH2 0xE5D JUMP JUMPDEST PUSH2 0x2524 SWAP1 DUP8 PUSH2 0x1983 JUMP JUMPDEST PUSH2 0x252E SWAP1 DUP9 PUSH2 0xE80 JUMP JUMPDEST PUSH2 0x2537 SWAP1 PUSH2 0x151C JUMP JUMPDEST SWAP1 PUSH2 0x2542 PUSH1 0x3 PUSH2 0xE5D JUMP JUMPDEST PUSH2 0x254C SWAP1 DUP9 PUSH2 0x1983 JUMP JUMPDEST PUSH2 0x2556 SWAP1 DUP10 PUSH2 0xE80 JUMP JUMPDEST PUSH2 0x255F SWAP1 PUSH2 0x151C JUMP JUMPDEST SWAP3 PUSH2 0x2569 DUP11 PUSH2 0xE5D JUMP JUMPDEST PUSH2 0x2573 SWAP1 DUP10 PUSH2 0x1979 JUMP JUMPDEST PUSH2 0x257D SWAP1 DUP13 PUSH2 0xE80 JUMP JUMPDEST MLOAD SWAP5 DUP7 MLOAD PUSH2 0x258A DUP10 PUSH2 0xE5D JUMP JUMPDEST LT PUSH2 0x25EC SWAP7 PUSH2 0x25DC SWAP7 PUSH2 0xB5 SWAP6 PUSH2 0x143D SWAP4 PUSH2 0x25F2 JUMPI JUMPDEST PUSH2 0x25BE PUSH2 0x25B8 PUSH2 0x25B2 PUSH2 0x25C4 SWAP4 PUSH2 0x2B3C JUMP JUMPDEST SWAP8 PUSH2 0x2B3C JUMP JUMPDEST SWAP9 PUSH2 0x2B3C JUMP JUMPDEST SWAP2 PUSH2 0x2B3C JUMP JUMPDEST SWAP1 PUSH2 0x25CE PUSH1 0x40 MLOAD SWAP1 JUMP JUMPDEST SWAP8 DUP9 SWAP7 PUSH1 0x20 DUP9 ADD SWAP7 DUP8 PUSH2 0x20F5 JUMP JUMPDEST SWAP4 PUSH2 0x25E6 DUP8 PUSH2 0xE5D JUMP JUMPDEST SWAP1 PUSH2 0x1983 JUMP JUMPDEST SWAP3 PUSH2 0x24C3 JUMP JUMPDEST DUP11 SWAP3 POP PUSH2 0x25A0 JUMP JUMPDEST SWAP6 POP POP POP POP POP POP SWAP1 JUMP JUMPDEST PUSH2 0x260E PUSH1 0x1 PUSH2 0x37C JUMP JUMPDEST PUSH1 0x3 PUSH1 0xFC SHL PUSH1 0x20 DUP3 ADD MSTORE SWAP1 JUMP JUMPDEST PUSH2 0xB5 PUSH2 0x2604 JUMP JUMPDEST PUSH1 0x0 NOT DUP2 EQ PUSH2 0x18E6 JUMPI PUSH1 0x1 ADD SWAP1 JUMP JUMPDEST SWAP1 PUSH2 0xBC PUSH2 0x2053 PUSH2 0x2642 DUP5 PUSH2 0x37C JUMP JUMPDEST SWAP4 PUSH2 0x35F JUMP JUMPDEST PUSH2 0x20C1 PUSH2 0xB5 PUSH2 0xB5 SWAP3 SWAP1 JUMP JUMPDEST PUSH2 0x266B PUSH2 0x2665 PUSH2 0xB5 SWAP3 PUSH1 0xFF AND SWAP1 JUMP JUMPDEST PUSH1 0xF8 SHL SWAP1 JUMP JUMPDEST PUSH1 0x1 PUSH1 0x1 PUSH1 0xF8 SHL SUB NOT AND SWAP1 JUMP JUMPDEST SWAP1 PUSH1 0x0 PUSH2 0x2684 DUP2 PUSH2 0xE5D JUMP JUMPDEST DUP4 EQ PUSH2 0x2745 JUMPI SWAP1 SWAP2 SWAP1 DUP2 PUSH1 0x0 JUMPDEST PUSH2 0x269A DUP4 PUSH2 0xE5D JUMP JUMPDEST DUP5 EQ PUSH2 0x26BD JUMPI PUSH2 0x26AC PUSH2 0x26B7 SWAP2 PUSH2 0x2623 JUMP JUMPDEST SWAP4 PUSH2 0x1D8C PUSH1 0xA PUSH2 0xE5D JUMP JUMPDEST SWAP3 PUSH2 0x2691 JUMP JUMPDEST SWAP2 SWAP4 SWAP3 POP PUSH2 0x26CA DUP3 PUSH2 0x2632 JUMP JUMPDEST SWAP2 JUMPDEST PUSH2 0x26D5 DUP6 PUSH2 0xE5D JUMP JUMPDEST DUP3 EQ PUSH2 0x273A JUMPI PUSH2 0x26EC PUSH2 0x2734 SWAP2 PUSH2 0x1D66 PUSH1 0x1 PUSH2 0xE5D JUMP JUMPDEST SWAP2 PUSH2 0x1D8C PUSH1 0xA DUP5 PUSH2 0x272E PUSH2 0x2725 PUSH2 0x2720 PUSH2 0x271B PUSH2 0x2711 PUSH2 0x270B DUP8 PUSH2 0xE5D JUMP JUMPDEST DUP10 PUSH2 0x1863 JUMP JUMPDEST PUSH2 0x1DD0 PUSH1 0x30 PUSH2 0xE5D JUMP JUMPDEST PUSH2 0x2648 JUMP JUMPDEST PUSH2 0x2655 JUMP JUMPDEST DUP11 BYTE SWAP2 DUP9 PUSH2 0x209A JUMP JUMPDEST MSTORE8 PUSH2 0xE5D JUMP JUMPDEST SWAP1 PUSH2 0x26CC JUMP JUMPDEST POP POP PUSH2 0xB5 SWAP2 SWAP3 POP SWAP1 JUMP JUMPDEST POP SWAP1 POP PUSH2 0xB5 PUSH2 0x261B JUMP JUMPDEST PUSH2 0x275A PUSH1 0x40 PUSH2 0x37C JUMP JUMPDEST PUSH32 0x4142434445464748494A4B4C4D4E4F505152535455565758595A616263646566 PUSH1 0x20 DUP3 ADD MSTORE PUSH32 0x6768696A6B6C6D6E6F707172737475767778797A303132333435363738392B2F PUSH1 0x40 DUP3 ADD MSTORE SWAP1 JUMP JUMPDEST PUSH2 0xB5 PUSH2 0x2750 JUMP JUMPDEST PUSH2 0xB5 PUSH2 0x27A9 JUMP JUMPDEST DUP1 MLOAD PUSH2 0x27C8 PUSH2 0x152C PUSH1 0x0 PUSH2 0xE5D JUMP JUMPDEST EQ PUSH2 0x28C9 JUMPI PUSH2 0x27D5 PUSH2 0x27B1 JUMP JUMPDEST SWAP1 PUSH2 0x27EB PUSH2 0x27E1 DUP3 MLOAD SWAP1 JUMP JUMPDEST PUSH2 0x25E6 PUSH1 0x2 PUSH2 0xE5D JUMP JUMPDEST SWAP1 PUSH1 0x1 PUSH2 0x2810 PUSH2 0x2801 PUSH1 0x3 SWAP5 PUSH2 0x1D8C PUSH1 0x3 PUSH2 0xE5D JUMP JUMPDEST PUSH2 0x280B PUSH1 0x4 PUSH2 0xE5D JUMP JUMPDEST PUSH2 0x1A6A JUMP JUMPDEST SWAP4 PUSH2 0x282C PUSH2 0x2827 PUSH2 0x2821 PUSH1 0x20 PUSH2 0xE5D JUMP JUMPDEST DUP8 PUSH2 0x1983 JUMP JUMPDEST PUSH2 0x2632 JUMP JUMPDEST SWAP5 DUP6 MSTORE ADD SWAP2 DUP2 SWAP3 DUP3 MLOAD DUP4 ADD SWAP2 PUSH1 0x20 DUP7 ADD SWAP5 JUMPDEST DUP4 DUP2 LT PUSH2 0x2881 JUMPI POP POP POP POP PUSH1 0x3 SWAP1 MLOAD MOD DUP1 PUSH1 0x1 EQ PUSH2 0x2870 JUMPI PUSH1 0x2 EQ PUSH2 0x2861 JUMPI POP SWAP1 JUMP JUMPDEST PUSH1 0x3D PUSH1 0xF8 SHL PUSH1 0x0 NOT SWAP1 SWAP2 ADD MSTORE SWAP1 JUMP JUMPDEST POP PUSH2 0x3D3D PUSH1 0xF0 SHL PUSH1 0x1 NOT SWAP1 SWAP2 ADD MSTORE SWAP1 JUMP JUMPDEST DUP2 PUSH1 0x1 SWAP2 SWAP7 SWAP3 SWAP4 SWAP5 SWAP7 ADD SWAP2 PUSH1 0x3F DUP3 DUP1 DUP1 DUP7 MLOAD SWAP5 DUP5 DUP7 PUSH1 0x12 SHR AND DUP11 ADD MLOAD DUP2 MSTORE8 ADD DUP4 DUP6 PUSH1 0xC SHR AND DUP10 ADD MLOAD DUP2 MSTORE8 ADD DUP3 DUP5 PUSH1 0x6 SHR AND DUP9 ADD MLOAD DUP2 MSTORE8 ADD SWAP2 AND DUP6 ADD MLOAD DUP2 MSTORE8 ADD SWAP5 SWAP3 SWAP2 SWAP1 PUSH2 0x283E JUMP JUMPDEST POP PUSH2 0xB5 PUSH2 0xD23 JUMP JUMPDEST ISZERO PUSH2 0x28D9 JUMPI JUMP JUMPDEST PUSH1 0x40 MLOAD PUSH3 0x461BCD PUSH1 0xE5 SHL DUP2 MSTORE PUSH1 0x20 PUSH1 0x4 DUP3 ADD MSTORE PUSH1 0x19 PUSH1 0x24 DUP3 ADD MSTORE PUSH32 0x496E76616C69642068657820737472696E67206C656E67746800000000000000 PUSH1 0x44 DUP3 ADD MSTORE PUSH1 0x64 SWAP1 REVERT JUMPDEST PUSH2 0x292D SWAP1 PUSH1 0xFF AND JUMPDEST SWAP2 PUSH1 0xFF AND SWAP1 JUMP JUMPDEST MUL SWAP1 PUSH1 0xFF DUP3 AND SWAP2 DUP3 SUB PUSH2 0x18E6 JUMPI JUMP JUMPDEST PUSH2 0x2948 SWAP1 PUSH1 0xFF AND PUSH2 0x2926 JUMP JUMPDEST ADD SWAP1 PUSH1 0xFF DUP3 GT PUSH2 0x18E6 JUMPI JUMP JUMPDEST SWAP1 PUSH2 0x295D DUP3 MLOAD SWAP1 JUMP JUMPDEST SWAP2 PUSH2 0x296D PUSH1 0x2 SWAP4 PUSH2 0x21B6 DUP6 PUSH2 0xE5D JUMP JUMPDEST SWAP3 PUSH2 0x2987 PUSH1 0x0 SWAP5 PUSH2 0x2981 PUSH2 0x152C PUSH1 0x0 PUSH2 0xE5D JUMP JUMPDEST EQ PUSH2 0x28D2 JUMP JUMPDEST PUSH2 0x299E PUSH2 0x2827 PUSH2 0x2995 DUP5 MLOAD SWAP1 JUMP JUMPDEST PUSH2 0x1D8C DUP5 PUSH2 0xE5D JUMP JUMPDEST SWAP2 PUSH2 0x29A9 PUSH1 0x0 PUSH2 0xE5D JUMP JUMPDEST PUSH2 0x29C0 PUSH2 0xB5 PUSH2 0x29B7 DUP5 MLOAD SWAP1 JUMP JUMPDEST PUSH2 0x1D8C DUP7 PUSH2 0xE5D JUMP JUMPDEST DUP2 LT ISZERO PUSH2 0x2A54 JUMPI DUP1 PUSH2 0x2A3C PUSH2 0x2720 PUSH2 0x2A13 PUSH2 0x2A03 PUSH2 0x29FE PUSH2 0x29F0 PUSH2 0x29EA PUSH2 0x2A4F SWAP9 PUSH2 0x280B DUP13 PUSH2 0xE5D JUMP JUMPDEST DUP10 PUSH2 0x209A JUMP JUMPDEST MLOAD PUSH1 0x1 PUSH1 0x1 PUSH1 0xF8 SHL SUB NOT AND SWAP1 JUMP JUMPDEST PUSH2 0x2BC4 JUMP JUMPDEST PUSH2 0x2A0D PUSH1 0x10 PUSH2 0x2648 JUMP JUMPDEST SWAP1 PUSH2 0x291E JUMP JUMPDEST PUSH2 0x2A36 PUSH2 0x29FE PUSH2 0x29F0 PUSH2 0x29EA PUSH2 0x2A2C DUP9 PUSH2 0x280B DUP14 PUSH2 0xE5D JUMP JUMPDEST PUSH2 0x25E6 PUSH1 0x1 PUSH2 0xE5D JUMP JUMPDEST SWAP1 PUSH2 0x293C JUMP JUMPDEST DUP8 BYTE PUSH2 0x2A48 DUP3 DUP8 PUSH2 0x209A JUMP JUMPDEST MSTORE8 PUSH1 0x1 ADD SWAP1 JUMP JUMPDEST PUSH2 0x29A9 JUMP JUMPDEST POP SWAP2 SWAP4 POP POP POP JUMP JUMPDEST PUSH2 0x2A66 PUSH1 0x10 PUSH2 0x37C JUMP JUMPDEST PUSH16 0x181899199A1A9B1B9C1CA0A121A222A3 PUSH1 0x81 SHL PUSH1 0x20 DUP3 ADD MSTORE SWAP1 JUMP JUMPDEST PUSH2 0xB5 PUSH2 0x2A5C JUMP JUMPDEST PUSH2 0x20C1 SWAP1 PUSH2 0x2A9E PUSH2 0x2926 PUSH2 0xB5 SWAP5 PUSH1 0xFF AND SWAP1 JUMP JUMPDEST SWAP1 SHR SWAP1 JUMP JUMPDEST PUSH2 0xB5 SWAP1 PUSH2 0x2B22 PUSH2 0x29F0 PUSH2 0x2AB5 PUSH2 0x2A82 JUMP JUMPDEST PUSH2 0x2B1C PUSH2 0x2ACE PUSH2 0x2AC8 PUSH2 0x2827 PUSH1 0x2 PUSH2 0xE5D JUMP JUMPDEST SWAP6 PUSH2 0x20C7 JUMP JUMPDEST PUSH2 0x2AF5 PUSH2 0x29F0 PUSH2 0x2AEF PUSH2 0x2AEA PUSH2 0x2AE4 PUSH1 0x4 PUSH2 0x2648 JUMP JUMPDEST DUP6 PUSH2 0x2A8A JUMP JUMPDEST PUSH2 0x20D3 JUMP JUMPDEST DUP6 PUSH2 0x209A JUMP JUMPDEST PUSH1 0x0 BYTE PUSH2 0x2B0B PUSH2 0x2B05 PUSH1 0x0 PUSH2 0xE5D JUMP JUMPDEST DUP9 PUSH2 0x209A JUMP JUMPDEST MSTORE8 PUSH2 0x2B16 PUSH1 0xF PUSH2 0x2648 JUMP JUMPDEST AND PUSH2 0x20D3 JUMP JUMPDEST SWAP1 PUSH2 0x209A JUMP JUMPDEST PUSH1 0x0 BYTE PUSH2 0x2B38 PUSH2 0x2B32 PUSH1 0x1 PUSH2 0xE5D JUMP JUMPDEST DUP4 PUSH2 0x209A JUMP JUMPDEST MSTORE8 SWAP1 JUMP JUMPDEST SWAP1 PUSH1 0x0 PUSH2 0x2B48 DUP2 PUSH2 0xE5D JUMP JUMPDEST DUP4 EQ PUSH2 0x2745 JUMPI SWAP1 SWAP2 SWAP1 DUP2 PUSH1 0x0 JUMPDEST PUSH2 0x2B5E DUP4 PUSH2 0xE5D JUMP JUMPDEST DUP5 EQ PUSH2 0x2B76 JUMPI PUSH2 0x26AC PUSH2 0x2B70 SWAP2 PUSH2 0x2623 JUMP JUMPDEST SWAP3 PUSH2 0x2B55 JUMP JUMPDEST SWAP2 SWAP4 SWAP3 POP PUSH2 0x2B83 DUP3 PUSH2 0x2632 JUMP JUMPDEST SWAP2 JUMPDEST PUSH2 0x2B8E DUP6 PUSH2 0xE5D JUMP JUMPDEST DUP3 EQ PUSH2 0x273A JUMPI PUSH2 0x26EC PUSH2 0x2BA5 SWAP2 PUSH2 0x1D66 PUSH1 0x1 PUSH2 0xE5D JUMP JUMPDEST SWAP1 PUSH2 0x2B85 JUMP JUMPDEST PUSH2 0x2BB7 SWAP1 PUSH1 0xFF AND PUSH2 0x2926 JUMP JUMPDEST SWAP1 SUB SWAP1 PUSH1 0xFF DUP3 GT PUSH2 0x18E6 JUMPI JUMP JUMPDEST PUSH2 0x2BCD SWAP1 PUSH2 0x20C7 JUMP JUMPDEST PUSH2 0x2BD7 PUSH1 0x30 PUSH2 0x2648 JUMP JUMPDEST PUSH1 0xFF DUP3 AND LT ISZERO DUP1 PUSH2 0x2CB7 JUMPI JUMPDEST ISZERO PUSH2 0x2BFC JUMPI PUSH2 0xB5 SWAP1 PUSH2 0x2BF6 PUSH1 0x30 PUSH2 0x2648 JUMP JUMPDEST SWAP1 PUSH2 0x2BAB JUMP JUMPDEST PUSH2 0x2C06 PUSH1 0x41 PUSH2 0x2648 JUMP JUMPDEST PUSH1 0xFF DUP3 AND LT ISZERO DUP1 PUSH2 0x2CA1 JUMPI JUMPDEST ISZERO PUSH2 0x2C25 JUMPI PUSH2 0xB5 SWAP1 PUSH2 0x2BF6 PUSH1 0x37 PUSH2 0x2648 JUMP JUMPDEST PUSH2 0x2C2F PUSH1 0x61 PUSH2 0x2648 JUMP JUMPDEST PUSH1 0xFF DUP3 AND LT ISZERO DUP1 PUSH2 0x2C8B JUMPI JUMPDEST ISZERO PUSH2 0x2C4E JUMPI PUSH2 0xB5 SWAP1 PUSH2 0x2BF6 PUSH1 0x57 PUSH2 0x2648 JUMP JUMPDEST PUSH1 0x40 MLOAD PUSH3 0x461BCD PUSH1 0xE5 SHL DUP2 MSTORE PUSH1 0x20 PUSH1 0x4 DUP3 ADD MSTORE PUSH1 0x15 PUSH1 0x24 DUP3 ADD MSTORE PUSH21 0x24B73B30B634B2103432BC1031B430B930B1BA32B9 PUSH1 0x59 SHL PUSH1 0x44 DUP3 ADD MSTORE PUSH1 0x64 SWAP1 REVERT JUMPDEST POP PUSH2 0x2C96 PUSH1 0x66 PUSH2 0x2648 JUMP JUMPDEST PUSH1 0xFF DUP3 AND GT ISZERO PUSH2 0x2C3B JUMP JUMPDEST POP PUSH2 0x2CAC PUSH1 0x46 PUSH2 0x2648 JUMP JUMPDEST PUSH1 0xFF DUP3 AND GT ISZERO PUSH2 0x2C12 JUMP JUMPDEST POP PUSH2 0x2CC2 PUSH1 0x39 PUSH2 0x2648 JUMP JUMPDEST PUSH1 0xFF DUP3 AND GT ISZERO PUSH2 0x2BE3 JUMP INVALID LOG2 PUSH5 0x6970667358 0x22 SLT KECCAK256 0xEC 0x2A MUL SWAP5 KECCAK256 0xFC 0xE2 0x2A PUSH16 0xEF3803A0AC446491B4029FDF40154AB2 SWAP6 0xDB 0xBF 0xE 0xAC 0xCE NUMBER PUSH5 0x736F6C6343 STOP ADDMOD SHL STOP CALLER "
        },
        "methodIdentifiers": {
          "owner()": "8da5cb5b",
          "pengoContract()": "ac984131",
          "renounceOwnership()": "715018a6",
          "setPengoContract(address)": "df0cfde2",
          "tokenURI(uint256,uint256)": "92cb829d",
          "transferOwnership(address)": "f2fde38b"
        }
      }
    }
  }
}