{
  "_format": "hh-sol-artifact-1",
  "contractName": "PenguinOnchainTestnet",
  "sourceName": "contracts/ERC721/PenguinOnchainTestnet.sol",
  "abi": [
    {
      "inputs": [],
      "stateMutability": "nonpayable",
      "type": "constructor"
    },
    {
      "inputs": [],
      "name": "ApprovalCallerNotOwnerNorApproved",
      "type": "error"
    },
    {
      "inputs": [],
      "name": "ApprovalQueryForNonexistentToken",
      "type": "error"
    },
    {
      "inputs": [],
      "name": "ApproveToCaller",
      "type": "error"
    },
    {
      "inputs": [],
      "name": "BalanceQueryForZeroAddress",
      "type": "error"
    },
    {
      "inputs": [],
      "name": "InvalidQueryRange",
      "type": "error"
    },
    {
      "inputs": [],
      "name": "MintERC2309QuantityExceedsLimit",
      "type": "error"
    },
    {
      "inputs": [],
      "name": "MintToZeroAddress",
      "type": "error"
    },
    {
      "inputs": [],
      "name": "MintZeroQuantity",
      "type": "error"
    },
    {
      "inputs": [],
      "name": "OwnerQueryForNonexistentToken",
      "type": "error"
    },
    {
      "inputs": [],
      "name": "OwnershipNotInitializedForExtraData",
      "type": "error"
    },
    {
      "inputs": [],
      "name": "TransferCallerNotOwnerNorApproved",
      "type": "error"
    },
    {
      "inputs": [],
      "name": "TransferFromIncorrectOwner",
      "type": "error"
    },
    {
      "inputs": [],
      "name": "TransferToNonERC721ReceiverImplementer",
      "type": "error"
    },
    {
      "inputs": [],
      "name": "TransferToZeroAddress",
      "type": "error"
    },
    {
      "inputs": [],
      "name": "URIQueryForNonexistentToken",
      "type": "error"
    },
    {
      "anonymous": false,
      "inputs": [
        {
          "indexed": true,
          "internalType": "uint256",
          "name": "tokenId",
          "type": "uint256"
        },
        {
          "indexed": false,
          "internalType": "string",
          "name": "trait_type",
          "type": "string"
        },
        {
          "indexed": false,
          "internalType": "uint256",
          "name": "accessoryId",
          "type": "uint256"
        }
      ],
      "name": "AccessoryAdded",
      "type": "event"
    },
    {
      "anonymous": false,
      "inputs": [
        {
          "indexed": true,
          "internalType": "uint256",
          "name": "accessoryId",
          "type": "uint256"
        },
        {
          "indexed": true,
          "internalType": "uint256",
          "name": "fromTokenId",
          "type": "uint256"
        }
      ],
      "name": "AccessoryDeleted",
      "type": "event"
    },
    {
      "anonymous": false,
      "inputs": [
        {
          "indexed": true,
          "internalType": "uint256",
          "name": "accessoryId",
          "type": "uint256"
        },
        {
          "indexed": false,
          "internalType": "uint256",
          "name": "price",
          "type": "uint256"
        }
      ],
      "name": "AccessoryListed",
      "type": "event"
    },
    {
      "anonymous": false,
      "inputs": [
        {
          "indexed": true,
          "internalType": "uint256",
          "name": "accessoryId",
          "type": "uint256"
        },
        {
          "indexed": true,
          "internalType": "uint256",
          "name": "fromTokenId",
          "type": "uint256"
        },
        {
          "indexed": true,
          "internalType": "uint256",
          "name": "toTokenId",
          "type": "uint256"
        },
        {
          "indexed": false,
          "internalType": "address",
          "name": "buyer",
          "type": "address"
        },
        {
          "indexed": false,
          "internalType": "uint256",
          "name": "price",
          "type": "uint256"
        }
      ],
      "name": "AccessoryOfferCancelled",
      "type": "event"
    },
    {
      "anonymous": false,
      "inputs": [
        {
          "indexed": true,
          "internalType": "uint256",
          "name": "accessoryId",
          "type": "uint256"
        },
        {
          "indexed": true,
          "internalType": "uint256",
          "name": "fromTokenId",
          "type": "uint256"
        },
        {
          "indexed": true,
          "internalType": "uint256",
          "name": "toTokenId",
          "type": "uint256"
        },
        {
          "indexed": false,
          "internalType": "address",
          "name": "buyer",
          "type": "address"
        },
        {
          "indexed": false,
          "internalType": "uint256",
          "name": "price",
          "type": "uint256"
        }
      ],
      "name": "AccessoryOfferMade",
      "type": "event"
    },
    {
      "anonymous": false,
      "inputs": [
        {
          "indexed": true,
          "internalType": "uint256",
          "name": "accessoryId",
          "type": "uint256"
        },
        {
          "indexed": false,
          "internalType": "address",
          "name": "accessoryOwner",
          "type": "address"
        }
      ],
      "name": "AccessorySaleCancelled",
      "type": "event"
    },
    {
      "anonymous": false,
      "inputs": [
        {
          "indexed": false,
          "internalType": "string",
          "name": "accessoryType",
          "type": "string"
        },
        {
          "indexed": true,
          "internalType": "uint256",
          "name": "accessoryId",
          "type": "uint256"
        },
        {
          "indexed": true,
          "internalType": "uint256",
          "name": "fromTokenId",
          "type": "uint256"
        },
        {
          "indexed": true,
          "internalType": "uint256",
          "name": "toTokenId",
          "type": "uint256"
        },
        {
          "indexed": false,
          "internalType": "address",
          "name": "seller",
          "type": "address"
        },
        {
          "indexed": false,
          "internalType": "address",
          "name": "buyer",
          "type": "address"
        },
        {
          "indexed": false,
          "internalType": "uint256",
          "name": "price",
          "type": "uint256"
        }
      ],
      "name": "AccessorySold",
      "type": "event"
    },
    {
      "anonymous": false,
      "inputs": [
        {
          "indexed": true,
          "internalType": "address",
          "name": "owner",
          "type": "address"
        },
        {
          "indexed": true,
          "internalType": "address",
          "name": "approved",
          "type": "address"
        },
        {
          "indexed": true,
          "internalType": "uint256",
          "name": "tokenId",
          "type": "uint256"
        }
      ],
      "name": "Approval",
      "type": "event"
    },
    {
      "anonymous": false,
      "inputs": [
        {
          "indexed": true,
          "internalType": "address",
          "name": "owner",
          "type": "address"
        },
        {
          "indexed": true,
          "internalType": "address",
          "name": "operator",
          "type": "address"
        },
        {
          "indexed": false,
          "internalType": "bool",
          "name": "approved",
          "type": "bool"
        }
      ],
      "name": "ApprovalForAll",
      "type": "event"
    },
    {
      "anonymous": false,
      "inputs": [
        {
          "indexed": true,
          "internalType": "uint256",
          "name": "fromTokenId",
          "type": "uint256"
        },
        {
          "indexed": false,
          "internalType": "uint256",
          "name": "toTokenId",
          "type": "uint256"
        },
        {
          "indexed": true,
          "internalType": "address",
          "name": "from",
          "type": "address"
        },
        {
          "indexed": true,
          "internalType": "address",
          "name": "to",
          "type": "address"
        }
      ],
      "name": "ConsecutiveTransfer",
      "type": "event"
    },
    {
      "anonymous": false,
      "inputs": [
        {
          "indexed": true,
          "internalType": "address",
          "name": "previousOwner",
          "type": "address"
        },
        {
          "indexed": true,
          "internalType": "address",
          "name": "newOwner",
          "type": "address"
        }
      ],
      "name": "OwnershipTransferred",
      "type": "event"
    },
    {
      "anonymous": false,
      "inputs": [
        {
          "indexed": true,
          "internalType": "address",
          "name": "from",
          "type": "address"
        },
        {
          "indexed": true,
          "internalType": "address",
          "name": "to",
          "type": "address"
        },
        {
          "indexed": true,
          "internalType": "uint256",
          "name": "tokenId",
          "type": "uint256"
        }
      ],
      "name": "Transfer",
      "type": "event"
    },
    {
      "inputs": [],
      "name": "BENEFICARY_ADDRESS",
      "outputs": [
        {
          "internalType": "address",
          "name": "",
          "type": "address"
        }
      ],
      "stateMutability": "view",
      "type": "function"
    },
    {
      "inputs": [],
      "name": "MAX_MINT_PER_WALLET",
      "outputs": [
        {
          "internalType": "uint256",
          "name": "",
          "type": "uint256"
        }
      ],
      "stateMutability": "view",
      "type": "function"
    },
    {
      "inputs": [],
      "name": "MAX_SUPPLY",
      "outputs": [
        {
          "internalType": "uint256",
          "name": "",
          "type": "uint256"
        }
      ],
      "stateMutability": "view",
      "type": "function"
    },
    {
      "inputs": [],
      "name": "MINT_PRICE",
      "outputs": [
        {
          "internalType": "uint256",
          "name": "",
          "type": "uint256"
        }
      ],
      "stateMutability": "view",
      "type": "function"
    },
    {
      "inputs": [],
      "name": "ROYALTY_ADDRESS",
      "outputs": [
        {
          "internalType": "address",
          "name": "",
          "type": "address"
        }
      ],
      "stateMutability": "view",
      "type": "function"
    },
    {
      "inputs": [],
      "name": "ROYALTY_PERCENT",
      "outputs": [
        {
          "internalType": "uint256",
          "name": "",
          "type": "uint256"
        }
      ],
      "stateMutability": "view",
      "type": "function"
    },
    {
      "inputs": [
        {
          "internalType": "uint256",
          "name": "",
          "type": "uint256"
        },
        {
          "internalType": "uint256",
          "name": "",
          "type": "uint256"
        }
      ],
      "name": "accessories",
      "outputs": [
        {
          "internalType": "uint256",
          "name": "accessoryId",
          "type": "uint256"
        },
        {
          "internalType": "string",
          "name": "trait_type",
          "type": "string"
        },
        {
          "internalType": "string",
          "name": "trait_name",
          "type": "string"
        },
        {
          "internalType": "string",
          "name": "bytePixel",
          "type": "string"
        },
        {
          "internalType": "uint256",
          "name": "sellingPrice",
          "type": "uint256"
        },
        {
          "internalType": "uint256",
          "name": "lastPrice",
          "type": "uint256"
        },
        {
          "internalType": "address",
          "name": "owner",
          "type": "address"
        },
        {
          "internalType": "bool",
          "name": "forSale",
          "type": "bool"
        }
      ],
      "stateMutability": "view",
      "type": "function"
    },
    {
      "inputs": [
        {
          "internalType": "uint256",
          "name": "",
          "type": "uint256"
        }
      ],
      "name": "accessoriesForSale",
      "outputs": [
        {
          "internalType": "uint256",
          "name": "tokenId",
          "type": "uint256"
        },
        {
          "internalType": "uint256",
          "name": "accessoryId",
          "type": "uint256"
        },
        {
          "components": [
            {
              "internalType": "uint256",
              "name": "accessoryId",
              "type": "uint256"
            },
            {
              "internalType": "string",
              "name": "trait_type",
              "type": "string"
            },
            {
              "internalType": "string",
              "name": "trait_name",
              "type": "string"
            },
            {
              "internalType": "string",
              "name": "bytePixel",
              "type": "string"
            },
            {
              "internalType": "uint256",
              "name": "sellingPrice",
              "type": "uint256"
            },
            {
              "internalType": "uint256",
              "name": "lastPrice",
              "type": "uint256"
            },
            {
              "internalType": "address",
              "name": "owner",
              "type": "address"
            },
            {
              "internalType": "bool",
              "name": "forSale",
              "type": "bool"
            }
          ],
          "internalType": "struct IPenguinOnchain.Accessory",
          "name": "accessory",
          "type": "tuple"
        }
      ],
      "stateMutability": "view",
      "type": "function"
    },
    {
      "inputs": [
        {
          "internalType": "uint256",
          "name": "",
          "type": "uint256"
        },
        {
          "internalType": "uint256",
          "name": "",
          "type": "uint256"
        }
      ],
      "name": "accessoryIds",
      "outputs": [
        {
          "internalType": "uint256",
          "name": "",
          "type": "uint256"
        }
      ],
      "stateMutability": "view",
      "type": "function"
    },
    {
      "inputs": [
        {
          "internalType": "uint256",
          "name": "tokenId",
          "type": "uint256"
        },
        {
          "internalType": "string",
          "name": "trait_type",
          "type": "string"
        },
        {
          "internalType": "string",
          "name": "trait_name",
          "type": "string"
        },
        {
          "internalType": "string",
          "name": "byteCode",
          "type": "string"
        }
      ],
      "name": "addAccessory",
      "outputs": [],
      "stateMutability": "nonpayable",
      "type": "function"
    },
    {
      "inputs": [
        {
          "internalType": "address",
          "name": "to",
          "type": "address"
        },
        {
          "internalType": "uint256",
          "name": "tokenId",
          "type": "uint256"
        }
      ],
      "name": "approve",
      "outputs": [],
      "stateMutability": "nonpayable",
      "type": "function"
    },
    {
      "inputs": [
        {
          "internalType": "uint256",
          "name": "fromTokenId",
          "type": "uint256"
        },
        {
          "internalType": "uint256",
          "name": "accessoryId",
          "type": "uint256"
        }
      ],
      "name": "approveOffer",
      "outputs": [],
      "stateMutability": "nonpayable",
      "type": "function"
    },
    {
      "inputs": [
        {
          "internalType": "address",
          "name": "owner",
          "type": "address"
        }
      ],
      "name": "balanceOf",
      "outputs": [
        {
          "internalType": "uint256",
          "name": "",
          "type": "uint256"
        }
      ],
      "stateMutability": "view",
      "type": "function"
    },
    {
      "inputs": [
        {
          "internalType": "uint256",
          "name": "accessoryId",
          "type": "uint256"
        },
        {
          "internalType": "uint256",
          "name": "fromTokenId",
          "type": "uint256"
        }
      ],
      "name": "cancelOffer",
      "outputs": [],
      "stateMutability": "nonpayable",
      "type": "function"
    },
    {
      "inputs": [
        {
          "internalType": "uint256",
          "name": "tokenId",
          "type": "uint256"
        }
      ],
      "name": "explicitOwnershipOf",
      "outputs": [
        {
          "components": [
            {
              "internalType": "address",
              "name": "addr",
              "type": "address"
            },
            {
              "internalType": "uint64",
              "name": "startTimestamp",
              "type": "uint64"
            },
            {
              "internalType": "bool",
              "name": "burned",
              "type": "bool"
            },
            {
              "internalType": "uint24",
              "name": "extraData",
              "type": "uint24"
            }
          ],
          "internalType": "struct IERC721A.TokenOwnership",
          "name": "",
          "type": "tuple"
        }
      ],
      "stateMutability": "view",
      "type": "function"
    },
    {
      "inputs": [
        {
          "internalType": "uint256[]",
          "name": "tokenIds",
          "type": "uint256[]"
        }
      ],
      "name": "explicitOwnershipsOf",
      "outputs": [
        {
          "components": [
            {
              "internalType": "address",
              "name": "addr",
              "type": "address"
            },
            {
              "internalType": "uint64",
              "name": "startTimestamp",
              "type": "uint64"
            },
            {
              "internalType": "bool",
              "name": "burned",
              "type": "bool"
            },
            {
              "internalType": "uint24",
              "name": "extraData",
              "type": "uint24"
            }
          ],
          "internalType": "struct IERC721A.TokenOwnership[]",
          "name": "",
          "type": "tuple[]"
        }
      ],
      "stateMutability": "view",
      "type": "function"
    },
    {
      "inputs": [],
      "name": "factory",
      "outputs": [
        {
          "internalType": "contract IPengoFactory",
          "name": "",
          "type": "address"
        }
      ],
      "stateMutability": "view",
      "type": "function"
    },
    {
      "inputs": [
        {
          "internalType": "uint256",
          "name": "tokenId",
          "type": "uint256"
        },
        {
          "internalType": "uint256",
          "name": "accessoryId",
          "type": "uint256"
        }
      ],
      "name": "findAccessoryIndex",
      "outputs": [
        {
          "internalType": "uint256",
          "name": "",
          "type": "uint256"
        }
      ],
      "stateMutability": "view",
      "type": "function"
    },
    {
      "inputs": [],
      "name": "getAllAccessoriesForSale",
      "outputs": [
        {
          "components": [
            {
              "internalType": "uint256",
              "name": "tokenId",
              "type": "uint256"
            },
            {
              "internalType": "uint256",
              "name": "accessoryId",
              "type": "uint256"
            },
            {
              "components": [
                {
                  "internalType": "uint256",
                  "name": "accessoryId",
                  "type": "uint256"
                },
                {
                  "internalType": "string",
                  "name": "trait_type",
                  "type": "string"
                },
                {
                  "internalType": "string",
                  "name": "trait_name",
                  "type": "string"
                },
                {
                  "internalType": "string",
                  "name": "bytePixel",
                  "type": "string"
                },
                {
                  "internalType": "uint256",
                  "name": "sellingPrice",
                  "type": "uint256"
                },
                {
                  "internalType": "uint256",
                  "name": "lastPrice",
                  "type": "uint256"
                },
                {
                  "internalType": "address",
                  "name": "owner",
                  "type": "address"
                },
                {
                  "internalType": "bool",
                  "name": "forSale",
                  "type": "bool"
                }
              ],
              "internalType": "struct IPenguinOnchain.Accessory",
              "name": "accessory",
              "type": "tuple"
            }
          ],
          "internalType": "struct IPenguinOnchain.AccessoryForSale[]",
          "name": "",
          "type": "tuple[]"
        }
      ],
      "stateMutability": "view",
      "type": "function"
    },
    {
      "inputs": [
        {
          "internalType": "uint256",
          "name": "tokenId",
          "type": "uint256"
        }
      ],
      "name": "getApproved",
      "outputs": [
        {
          "internalType": "address",
          "name": "",
          "type": "address"
        }
      ],
      "stateMutability": "view",
      "type": "function"
    },
    {
      "inputs": [
        {
          "internalType": "uint256",
          "name": "tokenId",
          "type": "uint256"
        }
      ],
      "name": "getNFTDetails",
      "outputs": [
        {
          "components": [
            {
              "internalType": "uint256",
              "name": "accessoryId",
              "type": "uint256"
            },
            {
              "internalType": "string",
              "name": "trait_type",
              "type": "string"
            },
            {
              "internalType": "string",
              "name": "trait_name",
              "type": "string"
            },
            {
              "internalType": "string",
              "name": "bytePixel",
              "type": "string"
            },
            {
              "internalType": "uint256",
              "name": "sellingPrice",
              "type": "uint256"
            },
            {
              "internalType": "uint256",
              "name": "lastPrice",
              "type": "uint256"
            },
            {
              "internalType": "address",
              "name": "owner",
              "type": "address"
            },
            {
              "internalType": "bool",
              "name": "forSale",
              "type": "bool"
            }
          ],
          "internalType": "struct IPenguinOnchain.Accessory[]",
          "name": "",
          "type": "tuple[]"
        },
        {
          "components": [
            {
              "internalType": "string",
              "name": "category",
              "type": "string"
            },
            {
              "internalType": "string",
              "name": "networth",
              "type": "string"
            }
          ],
          "internalType": "struct IPenguinOnchain.SpecialTrait",
          "name": "",
          "type": "tuple"
        }
      ],
      "stateMutability": "view",
      "type": "function"
    },
    {
      "inputs": [
        {
          "internalType": "uint256",
          "name": "tokenId",
          "type": "uint256"
        }
      ],
      "name": "getSeed",
      "outputs": [
        {
          "internalType": "uint256",
          "name": "",
          "type": "uint256"
        }
      ],
      "stateMutability": "view",
      "type": "function"
    },
    {
      "inputs": [
        {
          "internalType": "address",
          "name": "owner",
          "type": "address"
        },
        {
          "internalType": "address",
          "name": "operator",
          "type": "address"
        }
      ],
      "name": "isApprovedForAll",
      "outputs": [
        {
          "internalType": "bool",
          "name": "",
          "type": "bool"
        }
      ],
      "stateMutability": "view",
      "type": "function"
    },
    {
      "inputs": [
        {
          "internalType": "uint256",
          "name": "tokenId",
          "type": "uint256"
        },
        {
          "internalType": "uint256",
          "name": "accessoryId",
          "type": "uint256"
        },
        {
          "internalType": "uint256",
          "name": "price",
          "type": "uint256"
        }
      ],
      "name": "listAccessoryForSale",
      "outputs": [],
      "stateMutability": "nonpayable",
      "type": "function"
    },
    {
      "inputs": [
        {
          "internalType": "uint256",
          "name": "accessoryId",
          "type": "uint256"
        },
        {
          "internalType": "uint256",
          "name": "fromTokenId",
          "type": "uint256"
        },
        {
          "internalType": "uint256",
          "name": "toTokenId",
          "type": "uint256"
        }
      ],
      "name": "makeOffer",
      "outputs": [],
      "stateMutability": "payable",
      "type": "function"
    },
    {
      "inputs": [
        {
          "internalType": "uint256",
          "name": "_mintAmount",
          "type": "uint256"
        }
      ],
      "name": "mintPengo",
      "outputs": [
        {
          "internalType": "uint256[]",
          "name": "",
          "type": "uint256[]"
        }
      ],
      "stateMutability": "payable",
      "type": "function"
    },
    {
      "inputs": [
        {
          "internalType": "address",
          "name": "",
          "type": "address"
        }
      ],
      "name": "mintedCount",
      "outputs": [
        {
          "internalType": "uint256",
          "name": "",
          "type": "uint256"
        }
      ],
      "stateMutability": "view",
      "type": "function"
    },
    {
      "inputs": [],
      "name": "name",
      "outputs": [
        {
          "internalType": "string",
          "name": "",
          "type": "string"
        }
      ],
      "stateMutability": "view",
      "type": "function"
    },
    {
      "inputs": [],
      "name": "nextAccessoryId",
      "outputs": [
        {
          "internalType": "uint256",
          "name": "",
          "type": "uint256"
        }
      ],
      "stateMutability": "view",
      "type": "function"
    },
    {
      "inputs": [
        {
          "internalType": "address",
          "name": "",
          "type": "address"
        }
      ],
      "name": "offerBalances",
      "outputs": [
        {
          "internalType": "uint256",
          "name": "",
          "type": "uint256"
        }
      ],
      "stateMutability": "view",
      "type": "function"
    },
    {
      "inputs": [
        {
          "internalType": "uint256",
          "name": "",
          "type": "uint256"
        },
        {
          "internalType": "uint256",
          "name": "",
          "type": "uint256"
        }
      ],
      "name": "offers",
      "outputs": [
        {
          "internalType": "address",
          "name": "buyer",
          "type": "address"
        },
        {
          "internalType": "uint256",
          "name": "toTokenId",
          "type": "uint256"
        },
        {
          "internalType": "uint256",
          "name": "price",
          "type": "uint256"
        },
        {
          "internalType": "bool",
          "name": "active",
          "type": "bool"
        }
      ],
      "stateMutability": "view",
      "type": "function"
    },
    {
      "inputs": [],
      "name": "owner",
      "outputs": [
        {
          "internalType": "address",
          "name": "",
          "type": "address"
        }
      ],
      "stateMutability": "view",
      "type": "function"
    },
    {
      "inputs": [
        {
          "internalType": "uint256",
          "name": "tokenId",
          "type": "uint256"
        }
      ],
      "name": "ownerOf",
      "outputs": [
        {
          "internalType": "address",
          "name": "",
          "type": "address"
        }
      ],
      "stateMutability": "view",
      "type": "function"
    },
    {
      "inputs": [
        {
          "internalType": "uint256",
          "name": "accessoryId",
          "type": "uint256"
        },
        {
          "internalType": "uint256",
          "name": "fromTokenId",
          "type": "uint256"
        },
        {
          "internalType": "uint256",
          "name": "toTokenId",
          "type": "uint256"
        }
      ],
      "name": "purchaseAccessory",
      "outputs": [],
      "stateMutability": "payable",
      "type": "function"
    },
    {
      "inputs": [
        {
          "internalType": "uint256",
          "name": "tokenId",
          "type": "uint256"
        },
        {
          "internalType": "uint256",
          "name": "accessoryId",
          "type": "uint256"
        }
      ],
      "name": "removeAccesory",
      "outputs": [],
      "stateMutability": "nonpayable",
      "type": "function"
    },
    {
      "inputs": [],
      "name": "renounceOwnership",
      "outputs": [],
      "stateMutability": "nonpayable",
      "type": "function"
    },
    {
      "inputs": [
        {
          "internalType": "address",
          "name": "from",
          "type": "address"
        },
        {
          "internalType": "address",
          "name": "to",
          "type": "address"
        },
        {
          "internalType": "uint256",
          "name": "tokenId",
          "type": "uint256"
        }
      ],
      "name": "safeTransferFrom",
      "outputs": [],
      "stateMutability": "nonpayable",
      "type": "function"
    },
    {
      "inputs": [
        {
          "internalType": "address",
          "name": "from",
          "type": "address"
        },
        {
          "internalType": "address",
          "name": "to",
          "type": "address"
        },
        {
          "internalType": "uint256",
          "name": "tokenId",
          "type": "uint256"
        },
        {
          "internalType": "bytes",
          "name": "_data",
          "type": "bytes"
        }
      ],
      "name": "safeTransferFrom",
      "outputs": [],
      "stateMutability": "nonpayable",
      "type": "function"
    },
    {
      "inputs": [
        {
          "internalType": "address",
          "name": "operator",
          "type": "address"
        },
        {
          "internalType": "bool",
          "name": "approved",
          "type": "bool"
        }
      ],
      "name": "setApprovalForAll",
      "outputs": [],
      "stateMutability": "nonpayable",
      "type": "function"
    },
    {
      "inputs": [
        {
          "internalType": "address",
          "name": "_beneficiaryAddress",
          "type": "address"
        }
      ],
      "name": "setBeneficiaryAddress",
      "outputs": [],
      "stateMutability": "nonpayable",
      "type": "function"
    },
    {
      "inputs": [
        {
          "internalType": "contract IPengoFactory",
          "name": "_factoryAddress",
          "type": "address"
        }
      ],
      "name": "setFactory",
      "outputs": [],
      "stateMutability": "nonpayable",
      "type": "function"
    },
    {
      "inputs": [
        {
          "internalType": "address",
          "name": "_royaltyAddress",
          "type": "address"
        }
      ],
      "name": "setRoyaltyAddress",
      "outputs": [],
      "stateMutability": "nonpayable",
      "type": "function"
    },
    {
      "inputs": [
        {
          "internalType": "uint256",
          "name": "",
          "type": "uint256"
        }
      ],
      "name": "specialTraits",
      "outputs": [
        {
          "internalType": "string",
          "name": "category",
          "type": "string"
        },
        {
          "internalType": "string",
          "name": "networth",
          "type": "string"
        }
      ],
      "stateMutability": "view",
      "type": "function"
    },
    {
      "inputs": [
        {
          "internalType": "bytes4",
          "name": "interfaceId",
          "type": "bytes4"
        }
      ],
      "name": "supportsInterface",
      "outputs": [
        {
          "internalType": "bool",
          "name": "",
          "type": "bool"
        }
      ],
      "stateMutability": "view",
      "type": "function"
    },
    {
      "inputs": [],
      "name": "symbol",
      "outputs": [
        {
          "internalType": "string",
          "name": "",
          "type": "string"
        }
      ],
      "stateMutability": "view",
      "type": "function"
    },
    {
      "inputs": [
        {
          "internalType": "uint256",
          "name": "tokenId",
          "type": "uint256"
        }
      ],
      "name": "tokenURI",
      "outputs": [
        {
          "internalType": "string",
          "name": "",
          "type": "string"
        }
      ],
      "stateMutability": "view",
      "type": "function"
    },
    {
      "inputs": [
        {
          "internalType": "address",
          "name": "owner",
          "type": "address"
        }
      ],
      "name": "tokensOfOwner",
      "outputs": [
        {
          "internalType": "uint256[]",
          "name": "",
          "type": "uint256[]"
        }
      ],
      "stateMutability": "view",
      "type": "function"
    },
    {
      "inputs": [
        {
          "internalType": "address",
          "name": "owner",
          "type": "address"
        },
        {
          "internalType": "uint256",
          "name": "start",
          "type": "uint256"
        },
        {
          "internalType": "uint256",
          "name": "stop",
          "type": "uint256"
        }
      ],
      "name": "tokensOfOwnerIn",
      "outputs": [
        {
          "internalType": "uint256[]",
          "name": "",
          "type": "uint256[]"
        }
      ],
      "stateMutability": "view",
      "type": "function"
    },
    {
      "inputs": [],
      "name": "totalOfferBalance",
      "outputs": [
        {
          "internalType": "uint256",
          "name": "",
          "type": "uint256"
        }
      ],
      "stateMutability": "view",
      "type": "function"
    },
    {
      "inputs": [],
      "name": "totalSupply",
      "outputs": [
        {
          "internalType": "uint256",
          "name": "",
          "type": "uint256"
        }
      ],
      "stateMutability": "view",
      "type": "function"
    },
    {
      "inputs": [
        {
          "internalType": "address",
          "name": "from",
          "type": "address"
        },
        {
          "internalType": "address",
          "name": "to",
          "type": "address"
        },
        {
          "internalType": "uint256",
          "name": "tokenId",
          "type": "uint256"
        }
      ],
      "name": "transferFrom",
      "outputs": [],
      "stateMutability": "nonpayable",
      "type": "function"
    },
    {
      "inputs": [
        {
          "internalType": "address",
          "name": "newOwner",
          "type": "address"
        }
      ],
      "name": "transferOwnership",
      "outputs": [],
      "stateMutability": "nonpayable",
      "type": "function"
    },
    {
      "inputs": [],
      "name": "withdraw",
      "outputs": [],
      "stateMutability": "nonpayable",
      "type": "function"
    }
  ],
  "bytecode": "0x6080604052346100225761001161019d565b604051615de261049f8239615de290f35b600080fd5b634e487b7160e01b600052604160045260246000fd5b90601f01601f191681019081106001600160401b0382111761005e57604052565b610027565b9061007761007060405190565b928361003d565b565b6001600160401b03811161005e57602090601f01601f19160190565b906100a76100a283610079565b610063565b918252565b6100b66017610095565b7f50656e676f20546573746e657420536e617073686f6f74000000000000000000602082015290565b6100e76100ac565b90565b6100f46005610095565b6450656e676f60d81b602082015290565b6100e76100ea565b90600019905b9181191691161790565b6100e76100e76100e79290565b9061013a6100e76101419261011d565b825461010d565b9055565b906001600160a01b0390610113565b6100e790610168906001600160a01b031682565b6001600160a01b031690565b6100e790610154565b6100e790610174565b906101966100e76101419261017d565b8254610145565b6101b66101a86100df565b6101b0610105565b906101e6565b6101c26001600d61012a565b6101d46101cd610433565b600b610186565b6100776101df610433565b600c610186565b90610077916101fa565b6100e7600161011d565b9061020491610216565b61007761020f6101f0565b600961012a565b9061022091610229565b6100773361043d565b6100779182918291906103f8565b634e487b7160e01b600052602260045260246000fd5b906001600283049216801561026d575b602083101461026857565b610237565b91607f169161025d565b9160001960089290920291821b911b610113565b919061029c6100e76101419361011d565b908354610277565b6100779160009161028b565b8181106102bb575050565b806102c960006001936102a4565b016102b0565b9190601f81116102de57505050565b6102f061007793600052602060002090565b906020601f840181900483019310610312575b6020601f9091010401906102b0565b9091508190610303565b90610325815190565b906001600160401b03821161005e5761034882610342855461024d565b856102cf565b602090601f831160011461038357610141929160009183610378575b5050600019600883021c1916906002021790565b015190503880610364565b601f1983169161039885600052602060002090565b9260005b8181106103d6575091600293918560019694106103bd575b50505002019055565b01516000196008601f8516021c191690553880806103b4565b9193602060018192878701518155019501920161039c565b906100779161031c565b9061040761040e9260026103ee565b60036103ee565b610077610419610494565b600061012a565b6100e790610168565b6100e79054610420565b6100e76008610429565b61046361045d61044d6008610429565b610458846008610186565b61017d565b9161017d565b907f8be0079c531659141344cd1fd0a4f28419497f9722a3daafe3b4186f6b6457e061048e60405190565b600090a3565b6100e7600061011d56fe6080604052600436101561001257600080fd5b60003560e01c806301ffc9a71461036257806306d254da1461035d57806306fdde0314610358578063081812fc14610353578063095ea7b31461034e578063143759be1461034957806318160ddd146103445780631f05db791461033f57806323b872dd1461033a57806332cb6b0c1461033557806334aeb564146103305780633ccfd60b1461032b57806342842e0e146103265780634d03a9a5146103215780635b771e3f1461031c5780635bb47808146103175780635bbb2177146103125780635f34389b1461030d5780636352211e1461030857806370a0823114610303578063715018a6146102fe57806378c91ed6146102f9578063813cd276146102f457806382260f35146102ef5780638462151c146102ea5780638a78fb1e146102e55780638da5cb5b146102e057806393aba1fb146102db57806395d89b41146102d657806399a2557a146102d1578063a079100d146102cc578063a204a82f146102c7578063a22cb465146102c2578063a942cccb146102bd578063b19960e6146102b8578063b1c456ad146102b3578063b88d4fde146102ae578063c002d23d146102a9578063c23dc68f146102a4578063c45a01551461029f578063c87b56dd1461029a578063cdcd897e14610295578063d45557cc14610290578063da4e18171461028b578063e0d4ea3714610286578063e210a72d14610281578063e82507051461027c578063e985e9c514610277578063ec6be06e14610272578063ed51ef411461026d578063f16f373014610268578063f2fde38b146102635763fddcb5ea0361037a576116b2565b61168a565b611671565b611655565b6115fc565b6115e0565b611596565b6114dd565b6114c2565b611494565b611435565b61141a565b6113ed565b6113c6565b61137a565b61134f565b61131b565b6112cf565b6112a8565b611281565b611268565b61121a565b6111ff565b61119e565b61116a565b611151565b611136565b61111a565b61100e565b610f91565b610e9f565b610c75565b610c51565b610c36565b610c1b565b610bff565b610bd7565b610aba565b610a75565b610a21565b61097e565b610966565b61094d565b610909565b6108dd565b61087c565b6105b0565b610595565b610551565b6104f9565b6104ab565b610417565b6103a9565b6001600160e01b031981165b0361037a57565b600080fd5b9050359061038c82610367565b565b9060208282031261037a576103a29161037f565b90565b9052565b3461037a576103d76103c46103bf36600461038e565b6116ed565b6040515b91829182901515815260200190565b0390f35b6001600160a01b031690565b6001600160a01b038116610373565b9050359061038c826103e7565b9060208282031261037a576103a2916103f6565b3461037a5761042f61042a366004610403565b6117a9565b604051005b600091031261037a57565b60005b8381106104525750506000910152565b8181015183820152602001610442565b61048361048c60209361049693610477815190565b80835293849260200190565b9586910161043f565b601f01601f191690565b0190565b60208082526103a292910190610462565b3461037a576104bb366004610434565b6103d76104c66117bb565b6040519182918261049a565b80610373565b9050359061038c826104d2565b9060208282031261037a576103a2916104d8565b3461037a576103d761051461050f3660046104e5565b6117c5565b604051918291826001600160a01b03909116815260200190565b919060408382031261037a576103a290602061054a82866103f6565b94016104d8565b3461037a5761042f61056436600461052e565b90611801565b6103a2916008021c6001600160a01b031690565b906103a2915461056a565b6103a26000600c61057e565b3461037a576105a5366004610434565b6103d7610514610589565b3461037a576105c0366004610434565b6103d76105cb6118ac565b6040515b9182918290815260200190565b919060408382031261037a576103a290602061054a82866104d8565b6103a26103a26103a29290565b9061060f906105f8565b600052602052604060002090565b6103a29081565b6103a2905461061d565b634e487b7160e01b600052602260045260246000fd5b9060016002830492168015610664575b602083101461065f57565b61062e565b91607f1691610654565b8054600093929161068b61068183610644565b8085529360200190565b91600181169081156106dd57506001146106a457505050565b6106b79192939450600052602060002090565b916000925b8184106106c95750500190565b8054848401526020909301926001016106bc565b92949550505060ff1916825215156020020190565b906103a29161066e565b634e487b7160e01b600052604160045260246000fd5b90601f01601f191681019081106001600160401b0382111761073357604052565b6106fc565b9061038c6107529261074960405190565b938480926106f2565b0383610712565b6103a2906103db565b6103a29054610759565b6103a29060a01c5b60ff1690565b6103a2905461076c565b90610793610798926011610605565b610605565b906107a282610624565b916107af60018201610738565b916107bc60028301610738565b916107c960038201610738565b916107d660048301610624565b916107e360058201610624565b916103a260066107f4818501610762565b930161077a565b939561085d61085560e0979b9a98610847610874976108398a61038c9e9961082c6108649a60006101008501940152565b8c820360208e0152610462565b908a820360408c0152610462565b9088820360608a0152610462565b9a6080870152565b60a0850152565b6001600160a01b031660c0830152565b019015159052565b3461037a576103d76108986108923660046105dc565b90610784565b946108ab98969894919493929360405190565b988998896107fb565b909160608284031261037a576103a26108cd84846103f6565b93604061054a82602087016103f6565b3461037a5761042f6108f03660046108b4565b91611917565b6103a261c3506105f8565b6103a26108f6565b3461037a57610919366004610434565b6103d76105cb610901565b909160608284031261037a576103a261093d84846104d8565b93604061054a82602087016104d8565b3461037a5761042f610960366004610924565b91611f07565b3461037a57610976366004610434565b61042f61216d565b3461037a5761042f6109913660046108b4565b91612187565b6103a290610774565b6103a29054610997565b906107936109b9926015610605565b906109c382610762565b916109d060018201610624565b916103a260036109e260028501610624565b93016109a0565b61087461038c94610a1a606094989795610a13608086019a60008701906001600160a01b03169052565b6020850152565b6040830152565b3461037a576103d7610a3d610a373660046105dc565b906109aa565b90610a4a94929460405190565b948594856109e9565b6103a2916008021c81565b906103a29154610a53565b6103a26000600d610a5e565b3461037a57610a85366004610434565b6103d76105cb610a69565b61037381610759565b9050359061038c82610a90565b9060208282031261037a576103a291610a99565b3461037a5761042f610acd366004610aa6565b6121b2565b909182601f8301121561037a578135916001600160401b03831161037a57602001926020830284011161037a57565b9060208282031261037a5781356001600160401b03811161037a57610b269201610ad2565b9091565b80516001600160a01b031682526020808201516001600160401b03169083015260408082015115159083015260609081015162ffffff16910152565b9061049681608093610b2a565b90610b93610b8c610b82845190565b8084529260200190565b9260200190565b9060005b818110610ba45750505090565b909192610bbe610bb76001928651610b66565b9460200190565b929101610b97565b60208082526103a292910190610b73565b3461037a576103d7610bf3610bed366004610b01565b90612292565b60405191829182610bc6565b3461037a576103d76105cb610c153660046105dc565b906122f3565b3461037a576103d7610514610c313660046104e5565b612370565b3461037a576103d76105cb610c4c366004610403565b61239d565b3461037a57610c61366004610434565b61042f612401565b6103a26000600b61057e565b3461037a57610c85366004610434565b6103d7610514610c69565b634e487b7160e01b600052603260045260246000fd5b8054821015610cc957610cc0600991600052602060002090565b91020190600090565b610c90565b9061038c610cdb60405190565b9283610712565b6103a2610100610cce565b9061038c610da16006610cfe610ce2565b94610d0f610d0b82610624565b8752565b610d25610d1e60018301610738565b6020880152565b610d3b610d3460028301610738565b6040880152565b610d51610d4a60038301610738565b6060880152565b610d67610d6060048301610624565b6080880152565b610d7d610d7660058301610624565b60a0880152565b610d9b610d8b838301610762565b6001600160a01b031660c0880152565b0161077a565b151560e0840152565b601790610db5825490565b81101561037a57610dc591610ca6565b50610dcf81610624565b916103a26002610de160018501610624565b9301610ced565b80518252906103a29060e080610e38610e26610e14610100860160208901518782036020890152610462565b60408801518682036040880152610462565b60608701518582036060870152610462565b94610e4860808201516080860152565b610e5760a082015160a0860152565b60c0818101516001600160a01b03169085015201511515910152565b610e926103a2949293610e8b60608401956000850152565b6020830152565b6040818403910152610de8565b3461037a576103d7610eba610eb53660046104e5565b610daa565b60405191939193849384610e73565b906103a291610de8565b90610ee9610edf835190565b8083529160200190565b9081610efb6020830284019460200190565b926000915b838310610f0f57505050505090565b90919293946020610f32610f2b83856001950387528951610ec9565b9760200190565b9301930191939290610f00565b805160408084526103a29391602091610f5b9190840190610462565b920151906020818403910152610462565b60408082526103a2939192610f8391840190610ed3565b916020818403910152610f3f565b3461037a57610fa9610fa43660046104e5565b6124e1565b906103d7610fb660405190565b92839283610f6c565b90610fce610b8c610b82845190565b9060005b818110610fdf5750505090565b909192610ff5610bb76001928651815260200190565b929101610fd2565b60208082526103a292910190610fbf565b3461037a576103d7611029611024366004610403565b6125a6565b60405191829182610ffd565b6001600160401b03811161073357602090601f01601f19160190565b90826000939282370152565b9092919261107261106d82611035565b610cce565b938185528183011161037a5761038c916020850190611051565b9080601f8301121561037a578160206103a29335910161105d565b9060808282031261037a576110bc81836104d8565b9260208301356001600160401b03811161037a57826110dc91850161108c565b9260408101356001600160401b03811161037a57836110fc91830161108c565b9260608201356001600160401b03811161037a576103a2920161108c565b3461037a5761042f61112d3660046110a7565b92919091612aac565b3461037a57611146366004610434565b6103d76105146130fe565b3461037a5761042f6111643660046105dc565b90613144565b3461037a5761117a366004610434565b6103d76104c6613174565b909160608284031261037a576103a261093d84846103f6565b3461037a576103d76110296111b4366004611185565b9161317e565b6103a2906103db906001600160a01b031682565b6103a2906111ba565b6103a2906111ce565b9061060f906111d7565b60006111fa6103a29260166111e0565b610a5e565b3461037a576103d76105cb611215366004610403565b6111ea565b6103d761102961122b3660046104e5565b6135f0565b801515610373565b9050359061038c82611230565b919060408382031261037a576103a290602061126182866103f6565b9401611238565b3461037a5761042f61127b366004611245565b906135fb565b61042f61128f366004610924565b91613b04565b6103a26101f46105f8565b6103a2611295565b3461037a576112b8366004610434565b6103d76105cb6112a0565b6103a260006014610a5e565b3461037a576112df366004610434565b6103d76105cb6112c3565b9060808282031261037a576112ff81836103f6565b9261130d82602085016103f6565b926110fc83604083016104d8565b3461037a5761042f61132e3660046112ea565b92919091613b0f565b6103a266b1a2bc2ec500006105f8565b6103a2611337565b3461037a5761135f366004610434565b6103d76105cb611347565b60808101929161038c9190610b2a565b3461037a576103d76113956113903660046104e5565b613b64565b6040519182918261136a565b6103a26000600a61057e565b6103a5906111d7565b60208101929161038c91906113ad565b3461037a576113d6366004610434565b6103d76113e16113a1565b604051918291826113b6565b3461037a576103d76104c66114033660046104e5565b613c2f565b6103a260056105f8565b6103a2611408565b3461037a5761142a366004610434565b6103d76105cb611412565b3461037a5761042f6114483660046105dc565b90613ee8565b611459906010610605565b906103a2600161146884610738565b9301610738565b60408082526103a293919261148691840190610462565b916020818403910152610462565b3461037a576114ac6114a73660046104e5565b61144e565b906103d76114b960405190565b9283928361146f565b3461037a576103d76105cb6114d83660046104e5565b613ef2565b61042f6114eb366004610924565b916142ec565b805182526103a291606081019160409061151060208201516020850152565b0151906040818403910152610de8565b906103a2916114f1565b90611536610edf835190565b90816115486020830284019460200190565b926000915b83831061155c57505050505090565b90919293946020611578610f2b83856001950387528951611520565b930193019193929061154d565b60208082526103a29291019061152a565b3461037a576115a6366004610434565b6103d76115b1614391565b60405191829182611585565b919060408382031261037a576103a29060206115d982866103f6565b94016103f6565b3461037a576103d76103c46115f63660046115bd565b9061439b565b3461037a5761042f61160f366004610403565b6143cd565b8054821015610cc957610cc0600191600052602060002090565b611639906012610605565b805482101561037a576103a29161164f91611614565b90610a5e565b3461037a576103d76105cb61166b3660046105dc565b9061162e565b3461037a5761042f6116843660046105dc565b906147fe565b3461037a5761042f61169d366004610403565b614899565b60006111fa6103a292600f6111e0565b3461037a576103d76105cb6116c8366004610403565b6116a2565b6116e06116da6103a29290565b60e01b90565b6001600160e01b03191690565b6116fa6301ffc9a76116cd565b6001600160e01b031982161490811561173c575b8115611718575090565b905061173861172a635b5e139f6116cd565b916001600160e01b03191690565b1490565b905061174b6380ac58cd6116cd565b6001600160e01b03198216149061170e565b61038c906117696148f2565b61179e565b906001600160a01b03905b9181191691161790565b906117936103a261179a926111d7565b825461176e565b9055565b61038c90600c611783565b61038c9061175d565b6103a290610738565b6103a260026117b2565b6117d56117d18261491c565b1590565b6117ef5760006117e96103a2926006610605565b01610762565b6333d1c03960e21b6000908152600490fd5b9061180b81612370565b336001600160a01b0382168103611883575b5061184a6118446118509261183f866000611839886006610605565b01611783565b6111d7565b936111d7565b916105f8565b917f8c5be1e5ebec7d5bd14f71427d1e84f3dd0314c0f7b2291e5b200ac8c7c3b92561187b60405190565b80805b0390a4565b6117d1611890918361439b565b61189a573861181d565b6367d9dca160e11b6000908152600490fd5b6103a26118cb6118bc6000610624565b6118c66001610624565b900390565b6118c6614978565b6103db6103a26103a29290565b6103a2906118d3565b9060001990611779565b906119036103a261179a926105f8565b82546118e9565b6103a2600160e11b6105f8565b91909161192382614982565b61193461192f826118d3565b6111ce565b61194f6001600160a01b0384165b916001600160a01b031690565b03611b345761195d83614a2b565b9190336001600160a01b03851681148185141715611b0b575b506000926119866103db856118e0565b6001600160a01b03881614611af657926118449281611a54969361184a96611aee575b50506119d26119b98460056111e0565b6119cc6119c582610624565b6000190190565b906118f3565b6119f26119e08960056111e0565b6119cc6119ec82610624565b60010190565b6119fa61190a565b611a1e611a08838b87614aa5565b4260a01b908317176001600160a01b038b161790565b90611a34600492611a2f8b85610605565b6118f3565b611a46611a40856105f8565b91841690565b14611a7f575b5050506111d7565b917fddf252ad1be2c89b69c2b068fc378daa952ba7f163c4a11628f55a4df523b3ef61187b60405190565b611a91611a8c60016105f8565b890190565b92611aa4611a9f8584610605565b610624565b611ab4611ab0836105f8565b9190565b14611ac0575b50611a4c565b6103a2611acc91610624565b8303611ad9575b80611aba565b611ae692611a2f91610605565b388080611ad3565b5581386119a9565b633a954ecd60e21b84528380600481015b0390fd5b6117d1611b18918661439b565b611b225738611976565b632ce44b5f60e11b6000908152600490fd5b62a1148160e81b6000908152600490fd5b15611b4c57565b60405162461bcd60e51b815260206004820152601f60248201527f4e6f7420746865206f776e6572206f662074686973206163636573736f7279006044820152606490fd5b15611b9857565b60405162461bcd60e51b815260206004820152602260248201527f54686973206163636573736f727920697320616c7265616479206f6e2073616c604482015261329760f11b6064820152608490fd5b9060ff60a01b9060a01b611779565b90611c076103a261179a92151590565b8254611be8565b6103a26060610cce565b6103a290610ced565b634e487b7160e01b600052600060045260246000fd5b9160001960089290920291821b911b611779565b9190611c5c6103a261179a936105f8565b908354611c37565b61038c91600091611c4b565b818110611c7b575050565b80611c896000600193611c64565b01611c70565b9190601f8111611c9e57505050565b611cb061038c93600052602060002090565b906020601f840181900483019310611cd3575b6020601f909101045b0190611c70565b9091508190611cc3565b600019600883021c1916906002021790565b90611cf8815190565b906001600160401b03821161073357611d1b82611d158554610644565b85611c8f565b602090601f8311600114611d495761179a929160009183611d3e575b5050611cdd565b015190503880611d37565b601f19831691611d5e85600052602060002090565b9260005b818110611d9d57509160029391856001969410611d83575b50505002019055565b01516000196008601f8516021c19165b9055388080611d7a565b91936020600181928787015181550195019201611d62565b9061038c91611cef565b90611e7860e0600661038c94611ddf611dd9600087015190565b826118f3565b611df6611ded602087015190565b60018301611db5565b611e0d611e04604087015190565b60028301611db5565b611e24611e1b606087015190565b60038301611db5565b611e3b611e32608087015190565b600483016118f3565b611e52611e4960a087015190565b600583016118f3565b0192611e71611e6b60c08301516001600160a01b031690565b85611783565b0151151590565b90611bf7565b9061038c91611dbf565b6002611ec3604061038c94611ea7611ea1600083015190565b866118f3565b611ebe611eb5602083015190565b600187016118f3565b015190565b9101611e7e565b9190611ed95761038c91611e88565b611c21565b90815491600160401b8310156107335782611f0191600161038c95018155610ca6565b90611eca565b611ff47f8b150673121b01316e8e9f04c655dcb53717f3ea8192a7606efea4685085293492611fef611ffe936011611f5a611f4b60066117e9876107938787610605565b611f5433611942565b14611b45565b611f78611f736117d16006610d9b886107938888610605565b611b91565b611f92886004611f8c876107938787610605565b016118f3565b611fad60016006611fa7876107938787610605565b01611bf7565b611fea611fe3611fc38661079386601796610605565b611fd3611fce611c0e565b958652565b611fde876020870152565b611c18565b6040840152565b611ede565b6105f8565b926105cf60405190565b0390a2565b61200b6148f2565b61038c612109565b634e487b7160e01b600052601160045260246000fd5b9190612034565b9290565b820391821161203f57565b612013565b1561204b57565b60405162461bcd60e51b815260206004820152602160248201527f4e6f2066756e647320617661696c61626c6520666f72207769746864726177616044820152601b60fa1b6064820152608490fd5b906120a761106d83611035565b918252565b3d156120c6576120bb3d61209a565b903d6000602084013e565b606090565b156120d257565b60405162461bcd60e51b815260206004820152600f60248201526e15da5d1a191c985dc819985a5b1959608a1b6044820152606490fd5b61038c60008061212b61211c6014610624565b612125306111d7565b31612029565b61213e612137836105f8565b8211612044565b61214e61183f61183f600b610762565b9061215860405190565b90818003925af16121676120ac565b506120cb565b61038c612003565b6103a2600061209a565b6103a2612175565b909161038c9261219561217f565b92613b0f565b61038c906121a76148f2565b61038c90600a611783565b61038c9061219b565b6001600160401b0381116107335760208091020190565b906120a761106d836121bb565b6103a26080610cce565b6121f16121df565b90600082526020808080850160005b81520160008152016000905250565b6103a26121e9565b60005b82811061222657505050565b60209061223161220f565b818401520161221a565b9061038c61225161224b846121d2565b936121bb565b601f190160208401612217565b9190811015610cc9576020020190565b356103a2816104d2565b90612281825190565b811015610cc9576020809102010190565b9190809261229f8461223b565b9260005b855b81146122eb576122e4816122c86113906122c36122a595898961225e565b61226e565b6122d28289612278565b526122dd8188612278565b5060010190565b90506122a3565b509350505090565b60009161230060006105f8565b601761230d6103a2825490565b821015612362578161232a866123238385610ca6565b5001610624565b85149182612348575b505061234157600101612300565b9250505090565b612359925060019161232391610ca6565b82148138612333565b50505050506103a260175490565b61192f6123886103a292612382600090565b50614982565b6118d3565b6103a26001600160401b036105f8565b60006123ab6103db826118e0565b6001600160a01b038316146123d55750611a9f6123c99160056111e0565b6123d161238d565b1690565b6323d3ad8160e21b8152600490fd5b6123ec6148f2565b61038c61038c6123fc60006118e0565b614ae4565b61038c6123e4565b6103a26040610cce565b61241b612409565b906060825260606020830152565b6103a2612413565b612439610ce2565b9060008252602080808080808080890160608152016060815201606081520160008152016000612200565b6103a2612431565b60005b82811061247b57505050565b602090612486612464565b818401520161246f565b9061038c6124a061224b846121d2565b601f19016020840161246c565b9061038c6124d160016124be612409565b946124cb610d0b82610738565b01610738565b6020840152565b6103a2906124ad565b6124e9612429565b5060126124fe6124fa836012610605565b5490565b9161250883612490565b9361251360006105f8565b845b81101561256c5761256561251591612550611fde612534876011610605565b61254a61164f856125458b8d610605565b611614565b90610605565b61255a828a612278565b526122dd8189612278565b9050612513565b5092506103a2915061257f906010610605565b6124d8565b369037565b9061038c61259961224b846121d2565b601f190160208401612584565b6000806125b28361239d565b926125bc84612589565b946125c561220f565b506125ce614978565b855b851461267b576125df81614b37565b604081015161266e5780516001600160a01b0316906000916126066119426103db856118e0565b03612656575b505061263a6125d091612625856001600160a01b031690565b6001600160a01b038716146126415760010190565b90506125ce565b6119ec8161265360018a01998c612278565b52565b01516001600160a01b0316935061263a6125d061260c565b506125d09060010161263a565b509350505050565b1561268a57565b60405162461bcd60e51b815260206004820152601960248201527f4e6f7420746865206f776e6572206f662074686973204e4654000000000000006044820152606490fd5b9050519061038c82611230565b9060208282031261037a576103a2916126cf565b6040513d6000823e3d90fd5b1561270357565b60405162461bcd60e51b815260206004820152601360248201527214185c9d08191bd95cc81b9bdd08195e1a5cdd606a1b6044820152606490fd5b634e487b7160e01b600052601260045260246000fd5b811561275e570690565b61273e565b1561276a57565b60405162461bcd60e51b815260206004820152601960248201527f496e76616c696420706978656c2064617461206c656e677468000000000000006044820152606490fd5b6104966127c7926020926127c1815190565b94859290565b9384910161043f565b6120a761049691602094936127af565b6127f56127ec60405190565b928392836127d0565b03902090565b6103a2916127e0565b1561280b57565b60405162461bcd60e51b815260206004820152601d60248201527f4163636573736f727920736c6f7420616c72656164792066696c6c65640000006044820152606490fd5b600019811461203f5760010190565b811561275e570490565b8181029291811591840414171561203f57565b90612885825190565b811015610cc9570160200190565b6107746103a26103a29260ff1690565b6103a29060f81c612893565b9190820180921161203f57565b6040906128ea6128de61038c9597969460608401908482036000860152610462565b60ff9097166020830152565b019060ff169052565b60005b82811061290257505050565b6060828201526020016128f6565b9061038c61292061224b846121d2565b601f1901602084016128f3565b6103a26103a26103a29260ff1690565b0180926001600160f81b0319169052565b9092919261295e61106d82611035565b938185528183011161037a5761038c91602085019061043f565b9080601f8301121561037a5781516103a29260200161294e565b9060208282031261037a5781516001600160401b03811161037a576103a29201612978565b906103a291610462565b906129cd610edf835190565b90816129df6020830284019460200190565b926000915b8383106129f357505050505090565b90919293946020612a0f610f2b838560019503875289516129b7565b93019301919392906129e4565b60408082526103a2939192612a3391840190610fbf565b9160208184039101526129c1565b90815491600160401b8310156107335782612a6491600161038c95018155611614565b90611c4b565b9060ff90611779565b90612a836103a261179a92151590565b8254612a6a565b92916020612aa761038c9360408701908782036000890152610462565b940152565b90939192612ab990614c1e565b90612ad5612ac682612370565b612acf33611942565b14612683565b612ae261183f600a610762565b6020612aed60405190565b91829063c36a2bff60e01b82528180612b098b6004830161049a565b03915afa8015612ccc57612b25916000916130df575b506126fc565b815190612b3d600792612b37846105f8565b90612754565b90612b56600092612b50611ab0856105f8565b14612763565b612b7d612b786117d1612b738a612b6e866013610605565b6127fb565b6109a0565b612804565b612b87600d610624565b612ba3612b9c612b97600d610624565b612850565b600d6118f3565b612bbd612bae865190565b612bb7866105f8565b9061285f565b92612bc7816105f8565b96875b85811015612cd157612c6360208c8a612beb612be58c6105f8565b86612869565b612c3f612c23612c15612c0161183f600a610762565b94612c39612c28612c23612c15888561287c565b516001600160f81b03191690565b6128a3565b95612c3360016105f8565b906128af565b9061287c565b92612c4960405190565b95869485938493633eeb0b2560e21b8552600485016128bc565b03915afa908115612ccc57600091612c9e575b50612c89575b600101612bca565b612bca565b97612c96612c8491612850565b989050612c7c565b612cbf915060203d8111612cc5575b612cb78183610712565b8101906126dc565b38612c76565b503d612cad565b6126f0565b509092959397949194600495612d00612cfa612cf5612cef8a6105f8565b8c612869565b612589565b99612910565b94612d0a816105f8565b98895b8c5b811015612f7f578d8c8a8c612d26612be58c6105f8565b93612d37612c23612c15878661287c565b90602082612d59612c23612c15600198612c39612d538b6105f8565b8d6128af565b948593612d6961183f600a610762565b91612d8e612d7660405190565b96879586948594633eeb0b2560e21b865285016128bc565b03915afa908115612ccc57600091612f61575b50612dc0575b5050505050612db9612d0f9160010190565b9050612d0d565b612d0f959f928f958f92612c15612eca612c15612ec4612ebe8c611fef8c612db99f612f559f612e7a612f3a9f8f6103a29f8f92612ef89f612c23612c15612c3395612ea58b612653612e9f8f6126539f8f828f938361184a9f612eb49f94612e699f61265392612c3361184a612e74612e6e61184a9b612e69612c339e612653612e63612e809e612e5d612e57612e7a9d61292d565b946105f8565b90612869565b8b612278565b61292d565b976105f8565b89612869565b90612278565b612e5d612e6e612e69612c23612c158d612c3960029a612c338c6105f8565b8d612278565b612c39600398612c338a6105f8565b96612e5d8a6105f8565b866128af565b8761287c565b94612c39612eed612c15612ee7612ee160056105f8565b886128af565b8461287c565b94612c3360066105f8565b92612f2e612f0560405190565b9485936020850193846001939261293d858361293d8295610496976001600160f81b0319169052565b90810382520382610712565b612f44828d612278565b52612f4f818c612278565b50612850565b9b91508c388080612da7565b612f79915060203d8111612cc557612cb78183610712565b38612da1565b509650969198909750612fc294929a9950869350612fa061183f600a610762565b91612faa60405190565b958694859384936372565e2360e01b85528401612a1c565b03915afa948515612ccc5761305b6130a8946130357f52e15ab134f84fe4816b97c4a3d135945e2725295c41f26f23d1180e44bb51009861306f956000916130be575b5061302e613011610ce2565b9561301c8b86890152565b6130278d6020890152565b6040870152565b6060850152565b61304c613041826105f8565b61085d816080870152565b3360c0840152151560e0830152565b61306a85610793856011610605565b611e7e565b613086836130816103a2846012610605565b612a41565b61308f81614e6e565b611fef60016130a387612b6e856013610605565b612a73565b92611ffe6130b560405190565b92839283612a8a565b6130d9913d8091833e6130d18183610712565b810190612992565b38613005565b6130f8915060203d602011612cc557612cb78183610712565b38612b1f565b6103a26008610762565b1561310f57565b60405162461bcd60e51b815260206004820152600d60248201526c2737ba103a34329037bbb732b960991b6044820152606490fd5b9061038c9161316f61316060066117e985610793866011610605565b61316933611942565b14613108565b615258565b6103a260036117b2565b90828110156133225760009161319261536c565b61319a614978565b80841061331a575b50808511613312575b506131b58161239d565b84831015613302578285038181106132fa575b505b6131d381612589565b956000916131e160006105f8565b81146132f1576131f085613b64565b946000956132046117d16040830151151590565b6132dd575b505b875b811415806132d3575b156132c6578361322582614b37565b60408101516132b7570180516001600160a01b03166132496119426103db886118e0565b036132a5575b50886001600160a01b0386166001600160a01b0388161461327b575b5061320d906001015b905061320b565b968161329c61320d9361265384613296613274969160010190565b9c612278565b9150508861326b565b516001600160a01b031695503861324f565b505061327461320d9160010190565b5050959450505050815290565b5081871415613216565b516001600160a01b0316955061320d613209565b50945050505050565b9050386131c8565b5061330d60006105f8565b6131ca565b9350386131ab565b9250386131a2565b631960ccad60e11b6000908152600490fd5b6103a260026105f8565b1561334557565b60405162461bcd60e51b815260206004820152601f60248201527f5265656e7472616e637947756172643a207265656e7472616e742063616c6c006044820152606490fd5b6103a260016105f8565b906133c6916133c16133a66009610624565b6133ba6133b1613334565b9182141561333e565b60096118f3565b6134a5565b9061038c6133ba61338a565b156133d957565b60405162461bcd60e51b815260206004820152600860248201526714dbdb19081bdd5d60c21b6044820152606490fd5b1561341057565b60405162461bcd60e51b815280611b07600482016020808252818101527f496e73756666696369656e74207061796d656e7420666f72206d696e74696e67604082015260600190565b1561346057565b60405162461bcd60e51b815260206004820152601b60248201527f4d6178206d696e74207065722077616c6c6574207265616368656400000000006044820152606490fd5b50906134c66134b26118ac565b6134c0611ab06103a26108f6565b106133d2565b6134e56134dd6103a26134d7611337565b85612869565b341015613409565b61350a6134f6611a9f33600f6111e0565b613504611ab06103a2611295565b10613459565b61351382615376565b61351d82336153c3565b61353761352b33600f6111e0565b6119cc612b9782610624565b61354082612589565b90600061354c816105f8565b845b81101561359a576135938161357a61357061354e9461356b6118ac565b6128af565b6126538389612278565b6119ec61358e61358a8389612278565b5190565b614e6e565b905061354c565b509092506135a7306111d7565b80316135b5611ab0846105f8565b116135bf57505090565b818080926135d361183f61183f600b610762565b9031908282156135e7575bf115612ccc5790565b506108fc6135de565b6103a2906060613394565b336001600160a01b038216811461365e5761365961364f6118448361183f876130a38861364a7f17307eab39ab6107e8899845ad3d59bd9653f200f220920489ca2b5937696c319960076111e0565b6111e0565b936103c860405190565b0390a3565b63b06307db60e01b6000908152600490fd5b9061368892916136836133a66009610624565b613806565b61038c6133ba61338a565b1561369a57565b60405162461bcd60e51b815260206004820152601960248201527f4163636573736f7279206973206e6f7420666f722073616c65000000000000006044820152606490fd5b156136e657565b60405162461bcd60e51b8152602060048201526014602482015273125b9cdd59999a58da595b9d081c185e5b595b9d60621b6044820152606490fd5b1561372957565b60405162461bcd60e51b815260206004820152601960248201527f5472616e7366657220746f2073656c6c6572206661696c6564000000000000006044820152606490fd5b1561377557565b60405162461bcd60e51b815260206004820152601a60248201527f5472616e7366657220746f20726f79616c7479206661696c65640000000000006044820152606490fd5b61380261038c946137f26137e06060959998969960808601908682036000880152610462565b6001600160a01b039099166020850152565b6001600160a01b03166040830152565b0152565b91906011836138158383610605565b9061381f91610605565b60040161382b90610624565b90846138378483610605565b9061384191610605565b60010161384d906117b2565b948284838888838661385f8286610605565b9061386991610605565b6006016138759061077a565b83600097889788968796879561388a87151590565b6138979115151415613693565b833410156138a4906136df565b601393826138b28387610605565b906138bc916127fb565b6138c5906109a0565b156138cf90612804565b8d806138d9611408565b6138e39084612869565b6138ed60646105f8565b6138f69161285f565b9c6139018e85612029565b9a61390b91610605565b9061391591610605565b60060161392190610762565b9f8161392d8783610605565b9061393791610605565b60020192826139468884610605565b9061395091610605565b60030161395b610ce2565b94613966858d880152565b60208601889052613976906117b2565b6040860152613984906117b2565b60608501526139928a6105f8565b608085015260a08401523360c084015288151560e0840152836139b491610605565b906139be91610605565b906139c891611e7e565b8c6139d4826012610605565b906139de91612a41565b6139e89084610605565b906139f2916127fb565b60016139fd91612a73565b613a0691610605565b90613a10916127fb565b90613a1a91612a73565b613a24878b615258565b613a2d8b614e6e565b613a368a614e6e565b613a3f886111d7565b613a48906111d7565b90613a5260405190565b90818003925af1613a616120ac565b50613a6b90613722565b613a736130fe565b613a7c906111d7565b613a85906111d7565b90613a8f60405190565b90818003925af1613a9e6120ac565b50613aa89061376e565b613ab1906105f8565b92613abb906105f8565b93613ac5906105f8565b94613acf60405190565b9283923390613ade93856137ba565b037fd41dbe053a12b0e9617e572dccd16aaf1bc0f94ad99781008b928fe29c5f7c3991a4565b9061038c9291613670565b909192613b1d848484611917565b600093833b613b2e611ab0876105f8565b03613b3b575b5050505050565b613b48936117d19361543f565b613b555780808080613b34565b6368d2bf6b60e11b8152600490fd5b613b6c61220f565b50613b7561220f565b613b806103a2614978565b82108015613bbc575b613bb75750613b9781614b37565b90613ba56040830151151590565b613bb3576103a2915061551c565b5090565b905090565b50613bc86103a261536c565b821015613b89565b15613bd757565b60405162461bcd60e51b815260206004820152601860248201527f546f6b656e20494420646f6573206e6f742065786973742e00000000000000006044820152606490fd5b90815260408101929161038c9160200152565b6000613c9491613c3d606090565b50613c4f613c4a8261491c565b613bd0565b613c5d611a9f82600e610605565b90613c6b61183f600a610762565b90613c7560405190565b809581948293613c896392cb829d60e01b90565b845260048401613c1c565b03915afa908115612ccc57600091613caa575090565b6103a291503d806000833e6130d18183610712565b9061368891613cd16133a66009610624565b613de8565b15613cdd57565b60405162461bcd60e51b8152602060048201526015602482015274139bc81858dd1a5d99481bd999995c88199bdd5b99605a1b6044820152606490fd5b15613d2157565b60405162461bcd60e51b815260206004820152600e60248201526d2737ba103cb7bab91037b33332b960911b6044820152606490fd5b600080825590600390613d6d8360018301611c64565b613d7a8360028301611c64565b0155565b90600003611ed95761038c90613d57565b15613d9657565b60405162461bcd60e51b815260206004820152600d60248201526c1499599d5b990819985a5b1959609a1b6044820152606490fd5b6001600160a01b03909116815260408101929161038c9160200152565b613dfa6103a282610793856015610605565b91613e0f613e0a600385016109a0565b613cd6565b613e2a613e1b84610762565b613e2433611942565b14613d1a565b7f12867efde6a16e6f5c9ade6f54557dc3aa2017a6716b589059eceb542d47917d61187e613ed4612e57612e57613e6f6001613e6860028b01610624565b9901610624565b96613e896000613e84836107938b6015610605565b613d7e565b613ea9613e973360166111e0565b6119cc8b613ea483610624565b612029565b611fef600080613ebb61183f336111d7565b6040518d81805b03925af1613ece6120ac565b50613d8f565b94613ede60405190565b9182913383613dcb565b9061038c91613cbf565b611a9f6103a291613f01600090565b50613f0e613c4a8261491c565b600e610605565b906136889291613f286133a66009610624565b614135565b15613f3457565b60405162461bcd60e51b815260206004820152602260248201527f4f66666572207072696365206d7573742062652067726561746572207468616e604482015261020360f41b6064820152608490fd5b15613f8b57565b60405162461bcd60e51b815260206004820152601a60248201527f4f776e65722063616e6e6f74206d616b6520616e206f666665720000000000006044820152606490fd5b80546000939291613fe7613fe383610644565b9390565b9160018116908115614038575060011461400057505050565b6140139192939450600052602060002090565b6000905b8382106140245750500190565b600181602092548486015201910190614017565b60ff191683525050811515909102019150565b6120a76104969160209493613fd0565b6127f561406760405190565b9283928361404b565b6103a29161405b565b1561408057565b60405162461bcd60e51b815260206004820152602960248201527f4f66666572206d75737420626520686967686572207468616e207468652063756044820152687272656e74206f6e6560b81b6064820152608490fd5b6003614124606061038c946140ff6140f960008301516001600160a01b031690565b86611783565b61410d611eb5602083015190565b611e7161411b604083015190565b600287016118f3565b9101612a73565b9061038c916140d7565b61184a61425e826141ac612b786117d1612b738860016141a56142649a61079361419d8f9e9f61416f61416860006105f8565b3411613f2d565b61419661418660066117e9876107938c6011610605565b61418f33611942565b1415613f84565b6013610605565b946011610605565b0190614070565b6141be6103a282610793896015610605565b6141e1600382016141d16117d1826109a0565b80156142d0575b612b7390614079565b61429b575b506142266141f26121df565b338152614200876020830152565b61420b346040830152565b60016060820152614221836107938a6015610605565b61412b565b6142476142343360166111e0565b6119cc61424082610624565b34906128af565b611fef6142576142406014610624565b60146118f3565b936105f8565b917f4b011cd95fe592ba0d71bdb34e58553f73ca97ab2d8789c2dc4b6c8b8714148c61428f60405190565b8061187e343383613dcb565b600080826142bf60026142b861183f61183f866142ca9901610762565b9201610624565b604051908180613ec2565b386141e6565b50612b736142e36103a260028601610624565b341190506141d8565b9061038c9291613f15565b9061038c611fe36002614308611c0e565b94614315610d0b82610624565b614324610d1e60018301610624565b01610ced565b6103a2906142f7565b9061433c825490565b614345816121d2565b926143596020850191600052602060002090565b6000915b83831061436a5750505050565b6009602060019261437a8561432a565b81520192019201919061435d565b6103a290614333565b6103a26017614388565b6103a29161364a612b73926143ae600090565b5060076111e0565b61038c906143c26148f2565b61038c90600b611783565b61038c906143b6565b90613688916143e86133a66009610624565b614502565b156143f457565b60405162461bcd60e51b815260206004820152600f60248201526e27379030b1ba34bb329037b33332b960891b6044820152606490fd5b1561443257565b60405162461bcd60e51b815260206004820152601760248201527f5061796d656e74207472616e73666572206661696c65640000000000000000006044820152606490fd5b8054600093929161448a61068183610644565b91600181169081156106dd57506001146144a357505050565b6144b69192939450600052602060002090565b916000925b8184106144c85750500190565b8054848401526020909301926001016144bb565b61380261038c946137f26137e06060959998969960808601908682036000880152614477565b908061450f836015610605565b9061451991610605565b91614526600384016109a0565b61452f906143ed565b6011918061453d8385610605565b9061454791610605565b60060161455390610762565b614567906001600160a01b03163314611b45565b61457360028501610624565b908061458160018701610624565b948161458d8683610605565b9061459791610605565b60010196826145a68784610605565b906145b091610605565b60020197836145bf8885610605565b906145c991610605565b91986000926003016145da8b610762565b916145e3610ce2565b936145ee8887870152565b6145f7906117b2565b6020850152614605906117b2565b6040840152614613906117b2565b6060830152614621836105f8565b60808301526146318760a0840152565b6001600160a01b031660c082015281151560e0820152836146528985610605565b9061465c91610605565b9061466691611e7e565b82614672886012610605565b9061467c91612a41565b6146868387615258565b614691876013610605565b8361469c8885610605565b906146a691610605565b6001016146b291614070565b60016146bd91612a73565b806146c9876013610605565b846146d48986610605565b906146de91610605565b6001016146ea91614070565b906146f491612a73565b6146fd87614e6e565b61470686614e6e565b8080614711336111d7565b61471a906111d7565b60405160009189905af161472c6120ac565b506147369061442b565b82614742876015610605565b9061474c91610605565b9061475691613d7e565b61475f87610762565b61476a9060166111e0565b8461477482610624565b9061477e91612029565b614787916118f3565b84846147936014610624565b9061479d91612029565b6147a89060146118f3565b6147b191610605565b906147bb91610605565b600101946147c890610762565b906147d2906105f8565b926147dc906105f8565b936147e6906105f8565b946147f060405190565b92839233613ade93856144dc565b9061038c916143d6565b61038c906148146148f2565b614874565b1561482057565b60405162461bcd60e51b815260206004820152602660248201527f4f776e61626c653a206e6577206f776e657220697320746865207a65726f206160448201526564647265737360d01b6064820152608490fd5b61038c906123fc6148886103db60006118e0565b6001600160a01b0383161415614819565b61038c90614808565b156148a957565b60405162461bcd60e51b815280611b07600482016020808252818101527f4f776e61626c653a2063616c6c6572206973206e6f7420746865206f776e6572604082015260600190565b61038c6148fd6130fe565b614909611942336103db565b146148a2565b6103a2600160e01b6105f8565b614924614978565b8110159081614961575b81614937575090565b6149479150611a9f906004610605565b61173861495261490f565b61495c60006105f8565b921690565b90506149706103a26000610624565b81109061492e565b6103a260006105f8565b90819061498d614978565b8310156149a7575b636f96cda160e11b6000908152600490fd5b6149b46103a26000610624565b831015614995576149cb611a9f6004946004610605565b806149d461490f565b906149e560009261495c60006105f8565b146149f1575050614995565b92905b6149fd846105f8565b8103614a23575060001901916149fd614a19611a9f8587610605565b91939190506149f4565b925050915090565b6103a2614a4291614a3a600090565b506006610605565b90815490565b6103a260e86105f8565b6103a290614a63611ab06103a29490565b901c90565b614a756103a26103a29290565b62ffffff1690565b6103a26103a26103a29262ffffff1690565b6103a290614aa0611ab06103a29490565b901b90565b614ada614adf916103a29493614ab9600090565b50614ad4614acf614ac8614a48565b8097614a52565b614a68565b9161552b565b614a7d565b614a8f565b614b05614aff614af46008610762565b61183f846008611783565b916111d7565b907f8be0079c531659141344cd1fd0a4f28419497f9722a3daafe3b4186f6b6457e0614b3060405190565b8080613659565b614b51611a9f6103a292614b4961220f565b506004610605565b615559565b15614b5d57565b60405162461bcd60e51b815260206004820152601960248201527f496e76616c69642068657820737472696e67206c656e677468000000000000006044820152606490fd5b9061038c612599614bb28461209a565b93611035565b6107746103a26103a29290565b614bd49060ff165b9160ff1690565b029060ff821691820361203f57565b614bef9060ff16614bcd565b019060ff821161203f57565b614c11614c0b6103a29260ff1690565b60f81b90565b6001600160f81b03191690565b90614c27825190565b91614c37600293612b37856105f8565b92614c51600094614c4b611ab060006105f8565b14614b56565b614c6d614c68614c5f845190565b612bb7846105f8565b614ba2565b91614c7860006105f8565b614c866103a2612bae845190565b811015614d165780614cfe614cf9614cd0614cc0614cbb612c15614cb5614d1198614cb08c6105f8565b612869565b8961287c565b615609565b614cca6010614bb8565b90614bc5565b614cf3614cbb612c15614cb5614ce988614cb08d6105f8565b612c3360016105f8565b90614be3565b614bfb565b871a614d0a828761287c565b5360010190565b614c78565b509193505050565b614d2a906004926127af565b630408ae8d60e31b81520190565b9061038c614d4560405190565b8093614d55602083019182614d1e565b90810382520383610712565b614d6b601261209a565b716675636b696e6720726963682070656e676f60701b602082015290565b6103a2614d61565b6001614db0602061038c94611ebe614daa600083015190565b86611db5565b9101611db5565b9061038c91614d91565b614dcb601161209a565b7070656e676f2062696c6c696f6e6169726560781b602082015290565b6103a2614dc1565b614dfa601161209a565b7070656e676f206d696c6c696f6e6169726560781b602082015290565b6103a2614df0565b614e29600a61209a565b6970656e676f2061726d7960b01b602082015290565b6103a2614e1f565b614e51600961209a565b686c696c2070656e676f60b81b602082015290565b6103a2614e47565b906000614e7a816105f8565b92835b6012614e8f6103a26124fa8584610605565b861015614ed557614ecf91612c336005614ec2614ec89461254a61164f8c6125458b614ebc816011610605565b95610605565b01610624565b9460010190565b93614e7d565b50614eee91939450612bb7670de0b6b3a76400006105f8565b614ef860016105f8565b811015614f405761038c92614f34614f1a614f15614f3b94615731565b614d38565b610a13614f25612409565b95614f2e614e66565b90870152565b6010610605565b614db7565b614f4a60026105f8565b811015614f7b5761038c92614f34614f67614f15614f3b94615731565b610a13614f72612409565b95614f2e614e3f565b614f8560056105f8565b811015614fb65761038c92614f34614fa2614f15614f3b94615731565b610a13614fad612409565b95614f2e614e17565b614fc0600a6105f8565b811015614ff15761038c92614f34614fdd614f15614f3b94615731565b610a13614fe8612409565b95614f2e614de8565b61038c92614f34615007614f15614f3b94615731565b610a13615012612409565b95614f2e614d89565b9061502e90600019906020036008021c90565b8154169055565b9060009161505361504b82600052602060002090565b928354611cdd565b905555565b91929060208210156150b057601f841160011461507a5761179a929350611cdd565b50906150ab61038c9360016150a261509785600052602060002090565b92601f602091010490565b82019101611c70565b615035565b506150e982936150c7600194600052602060002090565b611ccc6020601f860104820192601f8616806150f1575b50601f602091010490565b600202179055565b6150fd9088860361501b565b386150de565b929091600160401b8211610733576020111561514a57602081101561512b5761179a91611cdd565b60019160ff191661514184600052602060002090565b55600202019055565b60019150600202019055565b90815461516281610644565b9081831161518b575b818310615179575b50505050565b61518293615058565b38808080615173565b61519783838387615103565b61516b565b600061038c91615156565b90600003611ed95761038c9061519c565b6000906006906151c88382611c64565b6151d583600183016151a7565b6151e283600283016151a7565b6151ef83600383016151a7565b6151fc8360048301611c64565b613d7a8360058301611c64565b90600003611ed95761038c906151b8565b634e487b7160e01b600052603160045260246000fd5b8054801561525357600019019061525061524a8383611614565b90611c64565b55565b61521a565b61526c6006610d9b84610793856011610605565b61535d575b61528a600061528584610793856011610605565b615209565b60129161529a6124fa8385610605565b926152a560006105f8565b8481101561534c576152be61164f826125458786610605565b83146152cc576001016152a5565b61531c6103a28584610793611fef95612a6461531161164f869d61530b6152fa6153219f61184a9f9e610605565b9161530560016105f8565b90612029565b90611614565b916125458686610605565b615230565b907ff7499acb9d9f4141eb50430bdef419d2ecc52d1b220932562fd11ab43f21bc1b614b3060405190565b505061532191925061184a906105f8565b6153678282615a80565b615271565b6103a26000610624565b61537e61536c565b9161538960006105f8565b925b825b8410156153bd576153b5614ec882612b976153aa61538d95615b45565b611a2f83600e610605565b93905061538b565b50915050565b61038c916153cf61217f565b91615bb5565b9050519061038c82610367565b9060208282031261037a576103a2916153d5565b6001600160a01b039182168152911660208201526103a292608082019290919061541f90610a1a565b6060818403910152610462565b6116e06116da6103a29263ffffffff1690565b9093929160209061545461183f6000976111d7565b63150b7a029360003361548561546960405190565b9889968795869461547a8c60e01b90565b8652600486016153f6565b03925af1600092816154eb575b506154d857505060016154a157565b6154a96120ac565b8051906000916154bb611ab0846105f8565b036154d057506368d2bf6b60e11b8152600490fd5b805190602001fd5b611738919293506116e061172a9161542c565b61550e91935060203d602011615515575b6155068183610712565b8101906153e2565b9138615492565b503d6154fc565b614b516103a29161238261220f565b5050506103a2600090565b6103a260a06105f8565b61554d6103a26103a29290565b6001600160401b031690565b9061038c61556561220f565b60606155e6614acf839661558b61557e61192f836118d3565b6001600160a01b03168652565b6155b76155a76155a261559c615536565b84614a52565b615540565b6001600160401b03166020870152565b6155d86155c261490f565b6155cf611a4060006105f8565b14156040870152565b6155e0614a48565b90614a52565b62ffffff16910152565b6155fc9060ff16614bcd565b90039060ff821161203f57565b615612906128a3565b61561c6030614bb8565b60ff82161015806156fc575b15615641576103a29061563b6030614bb8565b906155f0565b61564b6041614bb8565b60ff82161015806156e6575b1561566a576103a29061563b6037614bb8565b6156746061614bb8565b60ff82161015806156d0575b15615693576103a29061563b6057614bb8565b60405162461bcd60e51b815260206004820152601560248201527424b73b30b634b2103432bc1031b430b930b1ba32b960591b6044820152606490fd5b506156db6066614bb8565b60ff82161115615680565b506156f16046614bb8565b60ff82161115615657565b506157076039614bb8565b60ff82161115615628565b61571c600161209a565b600360fc1b602082015290565b6103a2615712565b90600061573d816105f8565b83146157f9579091908160005b615753836105f8565b84146157765761576561577091612850565b93612bb7600a6105f8565b9261574a565b9193925061578382614ba2565b915b61578e856105f8565b82146157ee576157a56157e89161530560016105f8565b91612bb7600a846157e26157d9614cf96157d46157ca6157c4876105f8565b89612754565b61356b60306105f8565b614bb8565b8a1a918861287c565b536105f8565b90615785565b50506103a291925090565b5090506103a2615729565b1561580b57565b60405162461bcd60e51b815280611b07600482016020808252818101527f4163636573736f7279206e6f7420666f756e6420696e2073616c65206c697374604082015260600190565b6103a29054610644565b9080821461592d5761586f81615854565b906001600160401b0382116107335761588c82611d158554610644565b600090601f83116001146158b95761179a9291600091836158ae575050611cdd565b015490503880611d37565b906158ce601f19841692600052602060002090565b906158de85600052602060002090565b92815b818110615915575091600293918560019694106159015750505002019055565b01546000196008601f8516021c1916611d93565b919360018060209287870154815501950192016158e1565b5050565b9061038c9161585e565b90808203615947575050565b611e7860068061038c94615960611dd960008701610624565b6159706001860160018301615931565b6159806002860160028301615931565b6159906003860160038301615931565b61599f611e3260048701610624565b6159ae611e4960058701610624565b0192016159c36159bd82610762565b84611783565b61077a565b9061038c9161593b565b8181036159dd575050565b600280836159f96159f3600061038c9701610624565b856118f3565b615a11615a0860018301610624565b600186016118f3565b0191016159c8565b9190611ed95761038c916159d2565b6000600261038c92615a3c83808301611c64565b615a498360018301611c64565b01615209565b90600003611ed95761038c90615a28565b80548015615253576000190190615250615a7a8383610ca6565b90615a4f565b61038c91615af891615ad6615a9583836122f3565b916004611f8c601795615ab3615aac6103a2895490565b8710615804565b615ac960006006611fa784610793896011610605565b61079361419d60006105f8565b615aeb615ae1835490565b61530560016105f8565b90818103615afd57505090565b615a60565b615b15615b0d6103a29385610ca6565b509184610ca6565b90615a19565b6103a5906001600160a01b031660601b90565b01918252565b018092615b1b565b6103a2906105f8565b6103a290615b9d615b5f615b5960016105f8565b43612029565b915a92612f2e615b6e60405190565b94859360208501933390404286601461049694615b2e60208099989596615b348287615b2e615b2e99839c9052565b615baf615ba8825190565b9160200190565b20615b3c565b9190615bc18184615c64565b600092803b615bd2611ab0866105f8565b03615bdd5750505050565b90919293615bf3615bed86610624565b93840390565b9260015b15615c2e575b85615c1a6117d187615c0e8a6118e0565b9787600182019961543f565b15615bf7576368d2bf6b60e11b8752600487fd5b808410615bfd57925093925050615c4a611ab061203084610624565b03615c5757808080615173565b80fd5b6103a260406105f8565b919091615c716000610624565b92600093615c7e856105f8565b8214615d9d5782916001615d168192615ccc615cb4615c9b615c5a565b615cae615ca7876105f8565b9182614a8f565b17830290565b6119cc615cc28960056111e0565b9161049683610624565b615d11615d066001831460e11b615cf18c615ce961184a826118e0565b9a8b91614aa5565b4260a01b9117176001600160a01b038a161790565b611a2f876004610605565b840190565b94818060a01b0316928084897fddf252ad1be2c89b69c2b068fc378daa952ba7f163c4a11628f55a4df523b3ef8180a4015b848103615d6e57505014615d605761038c91926118f3565b622e076360e81b8352600483fd5b80829184897fddf252ad1be2c89b69c2b068fc378daa952ba7f163c4a11628f55a4df523b3ef8180a401615d48565b63b562e8dd60e01b8552600485fdfea2646970667358221220201e5360a81b466187a2908ae640568c2e9e8977675c922163e88fbd3cbf2c7364736f6c634300081b0033",
  "linkReferences": {},
  "deployedLinkReferences": {}
}