{
  "_format": "hh-sol-artifact-1",
  "contractName": "PengoFactory",
  "sourceName": "contracts/utils/PengoFactory.sol",
  "abi": [
    {
      "inputs": [],
      "stateMutability": "nonpayable",
      "type": "constructor"
    },
    {
      "anonymous": false,
      "inputs": [
        {
          "indexed": true,
          "internalType": "address",
          "name": "previousOwner",
          "type": "address"
        },
        {
          "indexed": true,
          "internalType": "address",
          "name": "newOwner",
          "type": "address"
        }
      ],
      "name": "OwnershipTransferred",
      "type": "event"
    },
    {
      "inputs": [],
      "name": "owner",
      "outputs": [
        {
          "internalType": "address",
          "name": "",
          "type": "address"
        }
      ],
      "stateMutability": "view",
      "type": "function"
    },
    {
      "inputs": [],
      "name": "pengoContract",
      "outputs": [
        {
          "internalType": "contract IPenguinOnchain",
          "name": "",
          "type": "address"
        }
      ],
      "stateMutability": "view",
      "type": "function"
    },
    {
      "inputs": [],
      "name": "renounceOwnership",
      "outputs": [],
      "stateMutability": "nonpayable",
      "type": "function"
    },
    {
      "inputs": [
        {
          "internalType": "address",
          "name": "_pengoContract",
          "type": "address"
        }
      ],
      "name": "setPengoContract",
      "outputs": [],
      "stateMutability": "nonpayable",
      "type": "function"
    },
    {
      "inputs": [
        {
          "internalType": "uint256",
          "name": "tokenId",
          "type": "uint256"
        },
        {
          "internalType": "uint256",
          "name": "seed",
          "type": "uint256"
        }
      ],
      "name": "tokenURI",
      "outputs": [
        {
          "internalType": "string",
          "name": "",
          "type": "string"
        }
      ],
      "stateMutability": "view",
      "type": "function"
    },
    {
      "inputs": [
        {
          "internalType": "address",
          "name": "newOwner",
          "type": "address"
        }
      ],
      "name": "transferOwnership",
      "outputs": [],
      "stateMutability": "nonpayable",
      "type": "function"
    }
  ],
  "bytecode": "0x60806040523461002257610011610027565b604051612d036101068239612d0390f35b600080fd5b61002f610031565b565b61002f336100ae565b61004b905b6001600160a01b031690565b90565b61004b905461003a565b61004b9061003f906001600160a01b031682565b61004b90610058565b61004b9061006c565b9061008e61004b6100aa92610075565b82546001600160a01b0319166001600160a01b03919091161790565b9055565b6100d46100ce6100be600061004e565b6100c984600061007e565b610075565b91610075565b907f8be0079c531659141344cd1fd0a4f28419497f9722a3daafe3b4186f6b6457e06100ff60405190565b600090a356fe6080604052600436101561001257600080fd5b60003560e01c8063715018a6146100725780638da5cb5b1461006d57806392cb829d14610068578063ac98413114610063578063df0cfde21461005e5763f2fde38b0361008257610299565b610281565b61022a565b610198565b6100be565b610087565b600091031261008257565b600080fd5b3461008257610097366004610077565b61009f6102e9565b60405180805b0390f35b6001600160a01b031690565b90565b9052565b565b34610082576100ce366004610077565b6100a56100d9610304565b604051918291826001600160a01b03909116815260200190565b805b0361008257565b905035906100bc826100f3565b9190604083820312610082576100b590602061012582866100fc565b94016100fc565b60005b83811061013f5750506000910152565b818101518382015260200161012f565b61017061017960209361018393610164815190565b80835293849260200190565b9586910161012c565b601f01601f191690565b0190565b60208082526100b59291019061014f565b34610082576100a56101b46101ae366004610109565b906112c7565b60405191829182610187565b6100b5916008021c6001600160a01b031690565b906100b591546101c0565b6100b5600060016101d4565b6100b5906100a9906001600160a01b031682565b6100b5906101eb565b6100b5906101ff565b6100b890610208565b6020810192916100bc9190610211565b346100825761023a366004610077565b6100a56102456101df565b6040519182918261021a565b6001600160a01b0381166100f5565b905035906100bc82610251565b90602082820312610082576100b591610260565b346100825761009f61029436600461026d565b6116a7565b346100825761009f6102ac36600461026d565b611750565b6102b96117a9565b6100bc6102d7565b6100a96100b56100b59290565b6100b5906102c1565b6100bc6102e460006102ce565b6117d3565b6100bc6102b1565b6100b5906100a9565b6100b590546102f1565b6100b560006102fa565b634e487b7160e01b600052604160045260246000fd5b90601f01601f1916810190811067ffffffffffffffff82111761034657604052565b61030e565b906100bc61035860405190565b9283610324565b67ffffffffffffffff811161034657602090601f01601f19160190565b9061038e6103898361035f565b61034b565b918252565b61039d600461037c565b63426f647960e01b602082015290565b6100b5610393565b6103bf600761037c565b66746f705f65796560c81b602082015290565b6100b56103b5565b67ffffffffffffffff81116103465760208091020190565b909291926104026103898261035f565b9381855281830111610082576100bc91602085019061012c565b9080601f830112156100825781516100b5926020016103f2565b905051906100bc826100f3565b905051906100bc82610251565b8015156100f5565b905051906100bc82610450565b91909160e0818403126100825761047c60e061034b565b92600082015167ffffffffffffffff8111610082578161049d91840161041c565b8452602082015167ffffffffffffffff811161008257816104bf91840161041c565b6020850152604082015167ffffffffffffffff811161008257826104ea8360c09361052b960161041c565b60408701526104fc8360608301610436565b606087015261050e8360808301610436565b60808701526105208360a08301610443565b60a087015201610458565b60c0830152565b929190610541610389826103da565b93818552602080860192028101918383116100825781905b838210610567575050505050565b815167ffffffffffffffff8111610082576020916105888784938701610465565b815201910190610559565b9080601f830112156100825781516100b592602001610532565b919091604081840312610082576105c4604061034b565b92600082015167ffffffffffffffff811161008257816105e591840161041c565b8452602082015167ffffffffffffffff811161008257610605920161041c565b6020830152565b91909160408184031261008257805167ffffffffffffffff81116100825783610636918301610593565b92602082015167ffffffffffffffff8111610082576100b592016105ad565b6040513d6000823e3d90fd5b61066c61032c61037c565b7f306430623031303134413441344130653061303130313441344134413066306160208201527f303130313441344134413130306130313031344134413441313130613031303160408201527f344134413441306530623031303134413441344130663062303130313441344160608201527f344131303062303130313441344134413131306230313031344134413441313260808201527f306230313031344134413441306430633031303134413441344130643064303160a08201527f303134413441344130643065303130313441344134413065306530313031344160c08201527f344134413066306530313031344134413441313030653031303134413441344160e08201527f31313065303130313441344134413132306530313031344134413441313230646101008201527f30313031344134413441313230633031303134413441344130663063303130316101208201527f34413441344131303063303130313441344134413063306630313031344134416101408201527f34413063306530313031344134413441306230663031303134413441344130616101608201527f31303031303134413441344131333065303130313441344134413133306630316101808201527f30313441344134413134306630313031344134413441306231303031303134416101a08201527f34413441313431303031303134413441344130613131303130313441344134416101c08201527f30623131303130313441344134413062313230313031344134413441306231336101e08201527f30313031344134413441306331333031303134413441344130633134303130316102008201527f34413441344130633135303130313441344134413064313430313031344134416102208201527f34413064313530313031344134413441306531353031303134413441344130666102408201527f31353031303134413441344131303135303130313441344134413131313530316102608201527f30313441344134413132313530313031344134413441313331353031303134416102808201527f34413441313431313031303134413441344131343132303130313441344134416102a08201527f31343133303130313441344134413133313330313031344134413441313331346102c08201527f30313031344134413441313531303031303134413441344131353131303130316102e08201527f34413441344131323134303130313441344134413064306630313031344134416103008201527f34413063313030313031344134413441313230663031303134413441344131336103208201526b31303031303134413441344160a01b61034082015290565b6100b5610661565b6100b5610a4d565b610183610a7592602092610a6f815190565b94859290565b9384910161012c565b610a8c906100b59392610a5d565b90610a5d565b610a9d6101f861037c565b7f306530663031303146464646464630663066303130314646464646463130306660208201527f303130314646464646463131306630313031464646464646306431303031303160408201527f464646464646306331313031303146464646464630633132303130314646464660608201527f464630643133303130314646464646463065313430313031464646464646306660808201527f313430313031464646464646313031343031303146464646464631313134303160a08201527f303146464646464631323133303130314646464646463133313230313031464660c08201527f464646463133313130313031464646464646313231303031303146464646464660e08201527f30653130303130314646464646463066313030313031464646464646313031306101008201527f30313031464646464646313131303031303146464646464631313131303130316101208201527f46464646464631303131303130314646464646463066313130313031464646466101408201527f46463065313130313031464646464646306431313031303146464646464630646101608201527f31323031303146464646464631303132303130314646464646463131313230316101808201527f30314646464646463132313230313031464646464646313231313031303146466101a08201527f46464646313031333031303146464646464630663133303130314646464646466101c08201527f30653133303130314646464646463065313230313031464646464646306631326101e08201527f303130314646464646463131313330313031464646464646000000000000000061020082015290565b6100b5610a92565b6100b5610d09565b6100b5600061037c565b6100b5610d19565b610d35601c61037c565b7f3066306430313031463541363233313030643031303146354136323300000000602082015290565b6100b5610d2b565b6100b5610d5e565b610d78601c61037c565b7f3065306330313031464646464646313130633031303146464646464600000000602082015290565b6100b5610d6e565b6100b5610da1565b610dbb601c61037c565b7f3065306430313031303030303030313130643031303130303030303000000000602082015290565b6100b5610db1565b6100b5610de4565b610dfe603861037c565b7f306431363031303146354136323330653136303130314635413632333131313660208201527f3031303146354136323331323136303130314635413632330000000000000000604082015290565b6100b5610df4565b6100b5610e4d565b6100b56100b56100b59290565b634e487b7160e01b600052603260045260246000fd5b90610e89825190565b811015610e9a576020809102010190565b610e6a565b610ea9600161037c565b600b60fa1b602082015290565b6100b5610e9f565b610f1293610a8c610edd6100b59795610a8c610ef995610a8c97610a5d565b6f3d913a3930b4ba2fba3cb832911d101160811b815260100190565b6c111610113b30b63ab2911d101160991b8152600d0190565b61227d60f01b815260020190565b610f2a600661037c565b651e17b9bb339f60d11b602082015290565b6100b5610f20565b6100b5610f3c565b94610a8c61125161120a610a8c97610a8c61121961120a6112899d9a6100b59f9d6111d16111b6610fbe610a8c9e610a8c610f129f610fcc610fbe61118092610a8c610fa2610a8c9b607b60f81b815260010190565b6f226e616d65223a202250656e676f202360801b815260100190565b61088b60f21b815260020190565b7f226465736372697074696f6e223a202250656e6775696e204f6e636861696e2081527f697320616e20696e6e6f766174697665206f6e2d636861696e204e465420707260208201527f6f6a6563742074686174207075736865732074686520626f756e64617269657360408201527f206f662067656e657261746976652061727420616e6420626c6f636b6368616960608201527f6e20637573746f6d697a6174696f6e2e20556e6c696b6520747261646974696f60808201527f6e616c204e465420636f6c6c656374696f6e732074686174206172652070726560a08201527f2d67656e65726174656420616e642073746f726564206f66662d636861696e2c60c08201527f2065766572792050656e6775696e204e46542069732067656e6572617465642060e08201527f7573696e6720616e20616c676f726974686d206469726563746c79206f6e20746101008201527f686520626c6f636b636861696e2c20656e737572696e672074727565206465636101208201527f656e7472616c697a6174696f6e20616e6420696d6d75746162696c6974792e22610140820152600b60fa1b6101608201526101610190565b7f22696d616765223a2022646174613a696d6167652f7376672b786d6c3b626173815263194d8d0b60e21b602082015260240190565b6e2261747472696275746573223a205b60881b8152600f0190565b7f7b2274726169745f74797065223a202250656e676f2054797065222c20227661815266363ab2911d101160c91b602082015260270190565b62089f4b60ea1b815260030190565b7f7b2274726169745f74797065223a20224c69666520476f616c222c202276616c8152653ab2911d101160d11b602082015260260190565b7f7b2274726169745f74797065223a20224e657420576f727468222c202276616c8152653ab2911d101160d11b602082015260260190565b615d7d60f01b815260020190565b7f646174613a6170706c69636174696f6e2f6a736f6e3b6261736536342c00000081526100b59190601d01610a8c565b906112e56112dc826112d76103ad565b611bf1565b916112d76103d2565b906112f86112f360016102fa565b610208565b93600061130460405190565b6382260f3560e01b81526004810186905295869060249082905afa92831561167257600095869461164b575b5061143d6100b56114af61143d6100b56114a461143d6100b56114ba9861145d61149961143d6100b58f61143d6100b561147561143d6100b561148e9561145d61144961137c60405190565b6100b5816020810161143d817f3c7376672073686170652d72656e646572696e673d226372697370456467657381527f222076696577426f783d223020302033302033302220786d6c6e733d2268747460208201527f703a2f2f7777772e77332e6f72672f323030302f737667223e0000000000000060408201527f3c726563742077696474683d223130302522206865696768743d223130302522605982015270103334b6361e91119b9a9a9b309c11179f60791b6079820152608a0190565b90810382520382610324565b916020611454610a55565b9101519061219b565b9061146760405190565b938492602084019283610a7e565b61145d611480610d11565b611488610d23565b9061219b565b61145d611480610d66565b916020611454610da9565b61145d611480610dec565b61145d611480610e55565b906114c3610d23565b906000936114d085610e5d565b935b6114dd6100b5885190565b85101561159557611570876100b58861151361143d6100b56115779761145d60406115088f8a610e80565b510151611488610d23565b97611520815190565b5190565b61153061152c84610e5d565b9190565b111561157e5761143d602061155c8c611547610eb6565b955b611553828a610e80565b51015197610e80565b510151604051958694602086019485610ebe565b9460010190565b93926114d2565b61143d602061155c8c61158f610d23565b95611549565b61162196506100b594509661143d86946100b5949a6115d7986115dc6115d76115d36115cd6100b59f6100b561143d9161145d610f44565b97612678565b9690565b6127b9565b950151966020818301519201519061160061152c6115fa61151c8790565b92610e5d565b111561163d5761160e610eb6565b915b604051988997602089019788610f4c565b6100b561162d60405190565b809261143d602083019182611297565b611645610d23565b91611610565b90955082933d8091833e61165f8183610324565b810161166a9161060c565b959093611330565b610655565b906116876100b56116a392610208565b82546001600160a01b0319166001600160a01b03919091161790565b9055565b6116b36100bc91610208565b6001611677565b6100bc906116c66117a9565b61172b565b156116d257565b60405162461bcd60e51b815260206004820152602660248201527f4f776e61626c653a206e6577206f776e657220697320746865207a65726f206160448201526564647265737360d01b606482015280608481015b0390fd5b6100bc906102e461173f6100a960006102ce565b6001600160a01b03831614156116cb565b6100bc906116ba565b1561176057565b60405162461bcd60e51b815280611727600482016020808252818101527f4f776e61626c653a2063616c6c6572206973206e6f7420746865206f776e6572604082015260600190565b6100bc6117b4610304565b6117cd6117c0336100a9565b916001600160a01b031690565b14611759565b6117f46117ee6117e360006102fa565b6112f3846000611677565b91610208565b907f8be0079c531659141344cd1fd0a4f28419497f9722a3daafe3b4186f6b6457e061181f60405190565b600090a3565b6100b5604061034b565b611837611825565b906060825260606020830152565b6100b561182f565b634e487b7160e01b600052601260045260246000fd5b811561186d570690565b61184d565b6100b591610a5d565b611885600661037c565b655a6f6d62696560d01b602082015290565b6100b561187b565b6118a9600661037c565b6519981a30989960d11b602082015290565b6100b561189f565b634e487b7160e01b600052601160045260246000fd5b919082039182116118e657565b6118c3565b6118f5600661037c565b6541726374696360d01b602082015290565b6100b56118eb565b611919600661037c565b651a992098232360d11b602082015290565b6100b561190f565b61193d600461037c565b634669726560e01b602082015290565b6100b5611933565b61195f600661037c565b6507272606e62760d31b602082015290565b6100b5611955565b811561186d570490565b919082018092116118e657565b61199a600461037c565b634d616c6560e01b602082015290565b6100b5611990565b6119bc600661037c565b651a211a219a2360d11b602082015290565b6100b56119b2565b6119e0600661037c565b6546656d616c6560d01b602082015290565b6100b56119d6565b611a04600661037c565b651ca11ca11ca160d11b602082015290565b6100b56119fa565b611a28600a61037c565b695a6f6d6269652045796560b01b602082015290565b6100b5611a1e565b611a50600661037c565b6544373437353560d01b602082015290565b6100b5611a46565b818102929181159184041417156118e657565b611a87600861037c565b6714dd185b99185c9960c21b602082015290565b6100b5611a7d565b611aad600661037c565b6523232323232360d11b602082015290565b6100b5611aa3565b611ad1600c61037c565b6b507572706c6520536861646560a01b602082015290565b6100b5611ac7565b611afb600661037c565b6541383637453160d01b602082015290565b6100b5611af1565b611b1f600661037c565b65536c6565707960d01b602082015290565b6100b5611b15565b611b43600661037c565b650d0e0dcc904d60d21b602082015290565b6100b5611b39565b611b67600961037c565b68416e636573746f727360b81b602082015290565b6100b5611b5d565b611b8e600661037c565b6504230423042360d41b602082015290565b6100b5611b84565b611bb2600761037c565b662ab735b737bbb760c91b602082015290565b6100b5611ba8565b611bd7600661037c565b6503030303030360d41b602082015290565b6100b5611bcd565b90611bfa611845565b50611c06614e20610e5d565b90611c118282611863565b92611c1b60405190565b611c2d816020810161143d8582611872565b611c3f611c38825190565b9160200190565b20611c7a61152c611c4f60405190565b611c6b816020810161143d8163426f647960e01b815260040190565b611c76611c38825190565b2090565b14611eb957611c9b611c8b60405190565b809261143d602083019182611872565b611ca6611c38825190565b20611cd561152c611cb660405190565b611c6b816020810161143d8166746f705f65796560c81b815260070190565b14611cff57505050611ce5611825565b611cf4611cf0611bc5565b8252565b6100b5610605611be9565b611d0b906112d76103ad565b51604051611d1890611c8b565b611d23611c38825190565b20611d5161152c611d3360405190565b611c6b816020810161143d81655a6f6d62696560d01b815260060190565b14611e9957611d6c61012c91611d6683610e5d565b906118d9565b611d92611d82611d7c6005610e5d565b83611a6a565b611d8c6064610e5d565b90611979565b91611dc0611d82611daf611d82611da9600a610e5d565b86611a6a565b93611dba601e610e5d565b90611a6a565b611dd56100b585611dd085610e5d565b611983565b851015611dff575050505050611de9611825565b611df4611cf0611b7c565b6100b5610605611ba0565b611e136100b584611dd087611dd087610e5d565b851015611e3d575050505050611e27611825565b611e32611cf0611b31565b6100b5610605611b55565b611dd061152c93611dd0611e5796611dd06100b596610e5d565b1015611e7b57611e65611825565b611e70611cf0611ae9565b6100b5610605611b0d565b611e83611825565b611e8e611cf0611a9b565b6100b5610605611abf565b5050611ea3611825565b611eae611cf0611a3e565b6100b5610605611a62565b505061012c90611ec882610e5d565b8310611fbe57611d66611eda92610e5d565b611ee56103e8610e5d565b8210611f9e57611efa90611d666102bc610e5d565b6109c4611f0681610e5d565b8310611f7d576100b561152c91611dd0611f35611f2b611f3b96611d666105dc610e5d565b611d8c6002610e5d565b91610e5d565b1015611f5f57611f49611825565b611f54611cf06119f2565b6100b5610605611a16565b611f67611825565b611f72611cf06119aa565b6100b56106056119ce565b505050611f88611825565b611f93611cf061194d565b6100b5610605611971565b5050611fa8611825565b611fb3611cf0611907565b6100b561060561192b565b505050611fc9611825565b611fd4611cf0611897565b6100b56106056118bb565b15611fe657565b60405162461bcd60e51b815260206004820152601960248201527f496e76616c696420706978656c2064617461206c656e677468000000000000006044820152606490fd5b9061038e610389836103da565b369037565b906100bc61205361204d8461202b565b936103da565b601f190160208401612038565b60005b82811061206f57505050565b606082820152602001612063565b906100bc61208d61204d8461202b565b601f190160208401612060565b906120a3825190565b811015610e9a570160200190565b6120c16100b56100b59260ff1690565b60ff1690565b6100b59060f81c6120b1565b6100b56100b56100b59260ff1690565b91610a8c6100b59493610a8c93610a5d565b6121616100b59795610a8c61214c610a8c97610a8c61213b61217799610a8c61212661218c9f9b9a610a8c9b610a5d565b683c7265637420783d2760b81b815260090190565b642720793d2760d81b815260050190565b68272077696474683d2760b81b815260090190565b6927206865696768743d2760b01b8152600a0190565b68272066696c6c3d272360b81b815260090190565b6213979f60e91b815260030190565b6121a490612954565b80516121bc6007916121b66007610e5d565b90611863565b906121d56000926121cf61152c85610e5d565b14611fdf565b6121dd610d23565b906121f36121e9855190565b611d8c6007610e5d565b9560049261221161220c61220686610e5d565b8a611a6a565b61203d565b9461221b8961207d565b9761222582610e5d565b8a8110156124af5761223686610e5d565b6122409082611a6a565b61224a818b61209a565b516001600160f81b03191661225e906120c7565b612267906120d3565b61227089610e5d565b61227a9084611a6a565b612284908b610e80565b52600161229081610e5d565b61229a9083611983565b6122a4908c61209a565b516001600160f81b0319166122b8906120c7565b6122c1906120d3565b906122cb8a610e5d565b6122d59085611a6a565b906122df90610e5d565b6122e891611983565b6122f2908b610e80565b5260026122fe81610e5d565b6123089083611983565b612312908c61209a565b516001600160f81b031916612326906120c7565b61232f906120d3565b906123398a610e5d565b6123439085611a6a565b9061234d90610e5d565b61235691611983565b612360908b610e80565b52600361236c81610e5d565b6123769083611983565b612380908c61209a565b516001600160f81b031916612394906120c7565b61239d906120d3565b906123a78a610e5d565b6123b19085611a6a565b906123bb90610e5d565b6123c491611983565b6123ce908b610e80565b526123d888610e5d565b6123e29082611983565b6123ec908b61209a565b516001600160f81b03191661240090612aa3565b9061240b6005610e5d565b6124159082611983565b61241f908c61209a565b516001600160f81b03191661243390612aa3565b9061243e6006610e5d565b61244791611983565b612451908c61209a565b516001600160f81b03191661246590612aa3565b9061246f60405190565b928392602084019261248192846120e3565b9081038252036124919082610324565b61249b828c610e80565b526124a6818b610e80565b50600101612225565b5092985092509294506124c182610e5d565b925b6124ce6100b5865190565b8410156125fa576124df8486610e80565b6124e89061151c565b6124f26001610e5d565b6124fc9086611983565b6125069087610e80565b61250f9061151c565b9061251a6002610e5d565b6125249087611983565b61252e9088610e80565b6125379061151c565b906125426003610e5d565b61254c9088611983565b6125569089610e80565b61255f9061151c565b926125698a610e5d565b6125739089611979565b61257d908c610e80565b5194865161258a89610e5d565b106125ec966125dc966100b59561143d936125f2575b6125be6125b86125b26125c493612b3c565b97612b3c565b98612b3c565b91612b3c565b906125ce60405190565b9788966020880196876120f5565b936125e687610e5d565b90611983565b926124c3565b8a92506125a0565b9550505050505090565b61260e600161037c565b600360fc1b602082015290565b6100b5612604565b60001981146118e65760010190565b906100bc6120536126428461037c565b9361035f565b6120c16100b56100b59290565b61266b6126656100b59260ff1690565b60f81b90565b6001600160f81b03191690565b90600061268481610e5d565b8314612745579091908160005b61269a83610e5d565b84146126bd576126ac6126b791612623565b93611d8c600a610e5d565b92612691565b919392506126ca82612632565b915b6126d585610e5d565b821461273a576126ec61273491611d666001610e5d565b91611d8c600a8461272e61272561272061271b61271161270b87610e5d565b89611863565b611dd06030610e5d565b612648565b612655565b8a1a918861209a565b53610e5d565b906126cc565b50506100b591925090565b5090506100b561261b565b61275a604061037c565b7f4142434445464748494a4b4c4d4e4f505152535455565758595a61626364656660208201527f6768696a6b6c6d6e6f707172737475767778797a303132333435363738392b2f604082015290565b6100b5612750565b6100b56127a9565b80516127c861152c6000610e5d565b146128c9576127d56127b1565b906127eb6127e1825190565b6125e66002610e5d565b906001612810612801600394611d8c6003610e5d565b61280b6004610e5d565b611a6a565b9361282c6128276128216020610e5d565b87611983565b612632565b94855201918192825183019160208601945b838110612881575050505060039051068060011461287057600214612861575090565b603d60f81b6000199091015290565b50613d3d60f01b6001199091015290565b8160019196929394960191603f828080865194848660121c168a01518153018385600c1c16890151815301828460061c1688015181530191168501518153019492919061283e565b506100b5610d23565b156128d957565b60405162461bcd60e51b815260206004820152601960248201527f496e76616c69642068657820737472696e67206c656e677468000000000000006044820152606490fd5b61292d9060ff165b9160ff1690565b029060ff82169182036118e657565b6129489060ff16612926565b019060ff82116118e657565b9061295d825190565b9161296d6002936121b685610e5d565b9261298760009461298161152c6000610e5d565b146128d2565b61299e612827612995845190565b611d8c84610e5d565b916129a96000610e5d565b6129c06100b56129b7845190565b611d8c86610e5d565b811015612a545780612a3c612720612a13612a036129fe6129f06129ea612a4f9861280b8c610e5d565b8961209a565b516001600160f81b03191690565b612bc4565b612a0d6010612648565b9061291e565b612a366129fe6129f06129ea612a2c8861280b8d610e5d565b6125e66001610e5d565b9061293c565b871a612a48828761209a565b5360010190565b6129a9565b509193505050565b612a66601061037c565b6f181899199a1a9b1b9c1ca0a121a222a360811b602082015290565b6100b5612a5c565b6120c190612a9e6129266100b59460ff1690565b901c90565b6100b590612b226129f0612ab5612a82565b612b1c612ace612ac86128276002610e5d565b956120c7565b612af56129f0612aef612aea612ae46004612648565b85612a8a565b6120d3565b8561209a565b60001a612b0b612b056000610e5d565b8861209a565b53612b16600f612648565b166120d3565b9061209a565b60001a612b38612b326001610e5d565b8361209a565b5390565b906000612b4881610e5d565b8314612745579091908160005b612b5e83610e5d565b8414612b76576126ac612b7091612623565b92612b55565b91939250612b8382612632565b915b612b8e85610e5d565b821461273a576126ec612ba591611d666001610e5d565b90612b85565b612bb79060ff16612926565b90039060ff82116118e657565b612bcd906120c7565b612bd76030612648565b60ff8216101580612cb7575b15612bfc576100b590612bf66030612648565b90612bab565b612c066041612648565b60ff8216101580612ca1575b15612c25576100b590612bf66037612648565b612c2f6061612648565b60ff8216101580612c8b575b15612c4e576100b590612bf66057612648565b60405162461bcd60e51b815260206004820152601560248201527424b73b30b634b2103432bc1031b430b930b1ba32b960591b6044820152606490fd5b50612c966066612648565b60ff82161115612c3b565b50612cac6046612648565b60ff82161115612c12565b50612cc26039612648565b60ff82161115612be356fea2646970667358221220ec2a029420fce22a6fef3803a0ac446491b4029fdf40154ab295dbbf0eacce4364736f6c634300081b0033",
  "linkReferences": {},
  "deployedLinkReferences": {}
}