{
  "_format": "hh-sol-artifact-1",
  "contractName": "PengoFactory",
  "sourceName": "contracts/utils/PengoFactory.sol",
  "abi": [
    {
      "inputs": [],
      "stateMutability": "nonpayable",
      "type": "constructor"
    },
    {
      "anonymous": false,
      "inputs": [
        {
          "indexed": false,
          "internalType": "string",
          "name": "part",
          "type": "string"
        },
        {
          "indexed": false,
          "internalType": "string",
          "name": "byteData",
          "type": "string"
        }
      ],
      "name": "CoordinatesInitialized",
      "type": "event"
    },
    {
      "anonymous": false,
      "inputs": [
        {
          "indexed": true,
          "internalType": "address",
          "name": "previousOwner",
          "type": "address"
        },
        {
          "indexed": true,
          "internalType": "address",
          "name": "newOwner",
          "type": "address"
        }
      ],
      "name": "OwnershipTransferred",
      "type": "event"
    },
    {
      "anonymous": false,
      "inputs": [
        {
          "indexed": false,
          "internalType": "string",
          "name": "part",
          "type": "string"
        }
      ],
      "name": "RemovedPart",
      "type": "event"
    },
    {
      "inputs": [],
      "name": "_createContractURI",
      "outputs": [
        {
          "internalType": "string",
          "name": "",
          "type": "string"
        }
      ],
      "stateMutability": "view",
      "type": "function"
    },
    {
      "inputs": [
        {
          "internalType": "string",
          "name": "",
          "type": "string"
        }
      ],
      "name": "allowedParts",
      "outputs": [
        {
          "internalType": "bool",
          "name": "",
          "type": "bool"
        }
      ],
      "stateMutability": "view",
      "type": "function"
    },
    {
      "inputs": [],
      "name": "getAllAllowedParts",
      "outputs": [
        {
          "internalType": "string[]",
          "name": "",
          "type": "string[]"
        }
      ],
      "stateMutability": "view",
      "type": "function"
    },
    {
      "inputs": [
        {
          "internalType": "string",
          "name": "part",
          "type": "string"
        }
      ],
      "name": "getPixelPart",
      "outputs": [
        {
          "internalType": "uint256[]",
          "name": "xCoords",
          "type": "uint256[]"
        },
        {
          "internalType": "uint256[]",
          "name": "yCoords",
          "type": "uint256[]"
        }
      ],
      "stateMutability": "view",
      "type": "function"
    },
    {
      "inputs": [
        {
          "internalType": "string",
          "name": "part",
          "type": "string"
        },
        {
          "internalType": "string",
          "name": "byteData",
          "type": "string"
        }
      ],
      "name": "initializeCoordinates",
      "outputs": [],
      "stateMutability": "nonpayable",
      "type": "function"
    },
    {
      "inputs": [
        {
          "internalType": "string",
          "name": "part",
          "type": "string"
        }
      ],
      "name": "isAllowedPart",
      "outputs": [
        {
          "internalType": "bool",
          "name": "",
          "type": "bool"
        }
      ],
      "stateMutability": "view",
      "type": "function"
    },
    {
      "inputs": [
        {
          "internalType": "string",
          "name": "part",
          "type": "string"
        },
        {
          "internalType": "uint8",
          "name": "x",
          "type": "uint8"
        },
        {
          "internalType": "uint8",
          "name": "y",
          "type": "uint8"
        }
      ],
      "name": "isValidCoordinate",
      "outputs": [
        {
          "internalType": "bool",
          "name": "",
          "type": "bool"
        }
      ],
      "stateMutability": "view",
      "type": "function"
    },
    {
      "inputs": [],
      "name": "owner",
      "outputs": [
        {
          "internalType": "address",
          "name": "",
          "type": "address"
        }
      ],
      "stateMutability": "view",
      "type": "function"
    },
    {
      "inputs": [],
      "name": "pengoContract",
      "outputs": [
        {
          "internalType": "contract IPenguinOnchain",
          "name": "",
          "type": "address"
        }
      ],
      "stateMutability": "view",
      "type": "function"
    },
    {
      "inputs": [
        {
          "internalType": "string",
          "name": "",
          "type": "string"
        },
        {
          "internalType": "uint8",
          "name": "",
          "type": "uint8"
        },
        {
          "internalType": "uint8",
          "name": "",
          "type": "uint8"
        }
      ],
      "name": "pixelMapCoordinates",
      "outputs": [
        {
          "internalType": "bool",
          "name": "",
          "type": "bool"
        }
      ],
      "stateMutability": "view",
      "type": "function"
    },
    {
      "inputs": [
        {
          "internalType": "uint256[]",
          "name": "pixels",
          "type": "uint256[]"
        },
        {
          "internalType": "string[]",
          "name": "colors",
          "type": "string[]"
        }
      ],
      "name": "reconstructHexString",
      "outputs": [
        {
          "internalType": "string",
          "name": "",
          "type": "string"
        }
      ],
      "stateMutability": "pure",
      "type": "function"
    },
    {
      "inputs": [
        {
          "internalType": "string",
          "name": "part",
          "type": "string"
        }
      ],
      "name": "removeAllowedPart",
      "outputs": [],
      "stateMutability": "nonpayable",
      "type": "function"
    },
    {
      "inputs": [],
      "name": "renounceOwnership",
      "outputs": [],
      "stateMutability": "nonpayable",
      "type": "function"
    },
    {
      "inputs": [
        {
          "internalType": "address",
          "name": "_pengoContract",
          "type": "address"
        }
      ],
      "name": "setPengoContract",
      "outputs": [],
      "stateMutability": "nonpayable",
      "type": "function"
    },
    {
      "inputs": [
        {
          "internalType": "uint256",
          "name": "tokenId",
          "type": "uint256"
        },
        {
          "internalType": "uint256",
          "name": "seed",
          "type": "uint256"
        }
      ],
      "name": "tokenURI",
      "outputs": [
        {
          "internalType": "string",
          "name": "",
          "type": "string"
        }
      ],
      "stateMutability": "view",
      "type": "function"
    },
    {
      "inputs": [
        {
          "internalType": "address",
          "name": "newOwner",
          "type": "address"
        }
      ],
      "name": "transferOwnership",
      "outputs": [],
      "stateMutability": "nonpayable",
      "type": "function"
    }
  ],
  "bytecode": "0x60806040523461002257610011610027565b60405161465d610106823961465d90f35b600080fd5b61002f610031565b565b61002f336100ae565b61004b905b6001600160a01b031690565b90565b61004b905461003a565b61004b9061003f906001600160a01b031682565b61004b90610058565b61004b9061006c565b9061008e61004b6100aa92610075565b82546001600160a01b0319166001600160a01b03919091161790565b9055565b6100d46100ce6100be600061004e565b6100c984600061007e565b610075565b91610075565b907f8be0079c531659141344cd1fd0a4f28419497f9722a3daafe3b4186f6b6457e06100ff60405190565b600090a356fe6080604052600436101561001257600080fd5b60003560e01c80633d2620d01461011257806357ad1ced1461010d578063715018a61461010857806372565e231461010357806381bb57c7146100fe5780638da5cb5b146100f957806392cb829d146100f4578063ac2a2407146100ef578063ac984131146100ea578063b1650cd0146100e5578063c36a2bff146100e0578063df0cfde2146100db578063f2fde38b146100d6578063f589e3b5146100d1578063fbac2c94146100cc5763ff0b5db7036101c457610966565b61094a565b610931565b6108d2565b6108ba565b61086e565b6107fb565b6107c4565b610742565b610726565b6106ce565b61069b565b6105ec565b610436565b6103fd565b61028b565b634e487b7160e01b600052604160045260246000fd5b90601f01601f191681019081106001600160401b0382111761014e57604052565b610117565b9061016761016060405190565b928361012d565b565b6001600160401b03811161014e57602090601f01601f19160190565b0190565b90826000939282370152565b909291926101aa6101a582610169565b610153565b93818552818301116101c457610167916020850190610189565b600080fd5b9080601f830112156101c4578160206101e493359101610195565b90565b906020828203126101c45781356001600160401b0381116101c4576101e492016101c9565b9052565b9061023061022961021f845190565b8084529260200190565b9260200190565b9060005b8181106102415750505090565b90919261025e6102576001928651815260200190565b9460200190565b929101610234565b60408082526101e493919261027d91840190610210565b916020818403910152610210565b346101c4576102a361029e3660046101e7565b610a89565b906102b96102b060405190565b92839283610266565b0390f35b60ff81165b036101c457565b90503590610167826102bd565b90916060828403126101c45781356001600160401b0381116101c457610301846101e49285016101c9565b93604061031182602087016102c9565b94016102c9565b60005b83811061032b5750506000910152565b818101518382015260200161031b565b6101856103539260209261034d815190565b94859290565b93849101610318565b61036c610185916020949361033b565b918252565b61038661037d60405190565b9283928361035c565b03902090565b6101e491610371565b6103a56101e46101e49260ff1690565b60ff1690565b906103b590610395565b600052602052604060002090565b6101e4916008021c6103a5565b906101e491546103c3565b6101e4926103f36000936103f36103f894600161038c565b6103ab565b6103d0565b346101c4576102b96104196104133660046102d6565b916103db565b60405191829182901515815260200190565b60009103126101c457565b346101c45761044636600461042b565b61044e610b91565b604051005b6001600160401b03811161014e5760208091020190565b806102c2565b905035906101678261046a565b9092919261048d6101a582610453565b93818552602080860192028301928184116101c457915b8383106104b15750505050565b602080916104bf8486610470565b8152019201916104a4565b9080601f830112156101c4578160206101e49335910161047d565b9291906104f46101a582610453565b93818552602080860192028101918383116101c45781905b83821061051a575050505050565b81356001600160401b0381116101c45760209161053a87849387016101c9565b81520191019061050c565b9080601f830112156101c4578160206101e4933591016104e5565b9190916040818403126101c45780356001600160401b0381116101c457836105899183016104ca565b9260208201356001600160401b0381116101c4576101e49201610545565b6105c86105d1602093610185936105bc815190565b80835293849260200190565b95869101610318565b601f01601f191690565b60208082526101e4929101906105a7565b346101c4576102b9610608610602366004610560565b90610cf8565b604051918291826105db565b906101e4916105a7565b9061063461062a835190565b8083529160200190565b90816106466020830284019460200190565b926000915b83831061065a57505050505090565b9091929394602061067d61067683856001950387528951610614565b9760200190565b930193019193929061064b565b60208082526101e49291019061061e565b346101c4576106ab36600461042b565b6102b96106b6611062565b6040519182918261068a565b6001600160a01b031690565b346101c4576106de36600461042b565b6102b96106e96110e1565b604051918291826001600160a01b03909116815260200190565b91906040838203126101c4576101e490602061071f8286610470565b9401610470565b346101c4576102b961060861073c366004610703565b90611ff6565b346101c45761044e6107553660046101e7565b612b6b565b6101e4916008021c6001600160a01b031690565b906101e4915461075a565b6101e46000600661076e565b6101e4906106c2906001600160a01b031682565b6101e490610785565b6101e490610799565b61020c906107a2565b60208101929161016791906107ab565b346101c4576107d436600461042b565b6102b96107df610779565b604051918291826107b4565b60006103f86101e492600261038c565b346101c4576102b96104196108113660046101e7565b6107eb565b909182601f830112156101c4578135916001600160401b0383116101c45760200192600183028401116101c457565b906020828203126101c45781356001600160401b0381116101c45761086a9201610816565b9091565b346101c4576102b9610419610884366004610845565b90612bb7565b6001600160a01b0381166102c2565b905035906101678261088a565b906020828203126101c4576101e491610899565b346101c45761044e6108cd3660046108a6565b612bec565b346101c45761044e6108e53660046108a6565b612c90565b9190916040818403126101c45780356001600160401b0381116101c457836109139183016101c9565b9260208201356001600160401b0381116101c4576101e492016101c9565b346101c45761044e6109443660046108ea565b90612fe5565b346101c4576102b96104196109603660046102d6565b91612fef565b346101c45761097636600461042b565b6102b9610608613184565b6101e4906103a5565b6101e49054610981565b1561099b57565b60405162461bcd60e51b815260206004820152601160248201527050617274206e6f7420616c6c6f7765642160781b604482015280606481015b0390fd5b9061036c6101a583610453565b369037565b90610167610a016109fb846109d9565b93610453565b601f1901602084016109e6565b6101e46101e46101e49290565b634e487b7160e01b600052603260045260246000fd5b8054919291831015610a5a576020610a50600192600052602060002090565b8185040193060290565b610a1b565b6101e46101e46101e49260ff1690565b90610a78825190565b811015610a5a576020809102010190565b610aa4610a9f610a9a83600261038c565b61098a565b610994565b600390610ab9610ab582600361038c565b5490565b91610ac3836109eb565b9081610ace856109eb565b958690610adb6000610a0e565b875b811015610b4e57610b4781610b418b610b3783610b31610b2c610b268f998f8f9b610b3a610b2192610b37610add9f610b31610b2c610b2689610b2189829661038c565b610a31565b906103d0565b610a5f565b92610a6f565b52565b600461038c565b60010190565b9050610adb565b509450945094505050565b610b61613204565b610167610b7f565b6106c26101e46101e49290565b6101e490610b69565b610167610b8c6000610b76565b61322e565b610167610b59565b634e487b7160e01b600052601260045260246000fd5b90610bb9565b9190565b908115610bc4570690565b610b99565b15610bd057565b60405162461bcd60e51b8152602060048201526012602482015271496e76616c696420706978656c206461746160701b6044820152606490fd5b634e487b7160e01b600052601160045260246000fd5b8115610bc4570490565b15610c3157565b60405162461bcd60e51b815260206004820152601860248201527f506978656c20616e6420636f6c6f72206d69736d6174636800000000000000006044820152606490fd5b81810292918115918404141715610c8957565b610c0a565b5190565b6103a56101e46101e49290565b610cb5610caf6101e49260ff1690565b60f81b90565b6001600160f81b03191690565b91908201809211610c8957565b0180926001600160f81b0319169052565b91610cf26101e49493610cf29361033b565b9061033b565b805191610d26610d13600494610d0d86610a0e565b90610baf565b610d20610bb56000610a0e565b14610bc9565b610d57610d31825190565b610d51610bb56101e4610d42875190565b610d4b89610a0e565b90610c20565b14610c2a565b606092610d646000610a0e565b935b610d716101e4845190565b851015610eff57610d8182610a0e565b610d8b9086610c76565b610d959085610a6f565b51610d9f90610c92565b610da890610c9f565b610db183610a0e565b610dbb9087610c76565b610dc56001610a0e565b610dce91610cc2565b610dd89086610a6f565b51610de290610c92565b610deb90610c9f565b610df484610a0e565b610dfe9088610c76565b610e086002610a0e565b610e1191610cc2565b610e1b9087610a6f565b51610e2590610c92565b610e2e90610c9f565b90610e3885610a0e565b610e429089610c76565b610e4c6003610a0e565b610e5591610cc2565b610e5f9088610a6f565b51610e6990610c92565b610e7290610c9f565b92610e7c60405190565b9384936020850193610eae938592610ccf600161018594610ccf8288610ccf829b9a83996001600160f81b0319169052565b908103825203610ebe908261012d565b610ec88685610a6f565b5190610ed360405190565b9283926020840192610ee59284610ce0565b908103825203610ef5908261012d565b9360010193610d66565b925050506101e491506132e4565b60005b828110610f1c57505050565b606082820152602001610f10565b90610167610f3a6109fb846109d9565b601f190160208401610f0d565b8054821015610a5a57610f61600191600052602060002090565b91020190600090565b634e487b7160e01b600052602260045260246000fd5b9060016002830492168015610fa0575b6020831014610f9b57565b610f6a565b91607f1691610f90565b80546000939291610fc7610fbd83610f80565b8085529360200190565b91600181169081156110195750600114610fe057505050565b610ff39192939450600052602060002090565b916000925b8184106110055750500190565b805484840152602090930192600101610ff8565b92949550505060ff1916825215156020020190565b906101e491610faa565b906101676110529261104960405190565b9384809261102e565b038361012d565b6101e490611038565b600561107461106f825490565b610f2a565b9061107f6000610a0e565b61108a6101e4835490565b8110156110c957806110a86110a26110c49385610f47565b50611059565b6110b28286610a6f565b526110bd8185610a6f565b5060010190565b61107f565b505090565b6101e4906106c2565b6101e490546110ce565b6101e460006110d7565b9061036c6101a583610169565b61110260046110eb565b63426f647960e01b602082015290565b6101e46110f8565b61112460076110eb565b66746f705f65796560c81b602082015290565b6101e461111a565b905051906101678261046a565b9092919261115c6101a582610169565b93818552818301116101c457610167916020850190610318565b9080601f830112156101c45781516101e49260200161114c565b905051906101678261088a565b8015156102c2565b905051906101678261119d565b919091610100818403126101c4576111cb610100610153565b926111d6818361113f565b845260208201516001600160401b0381116101c457816111f7918401611176565b602085015260408201516001600160401b0381116101c4578161121b918401611176565b604085015260608201516001600160401b0381116101c457826112458360e0936112869601611176565b6060870152611257836080830161113f565b60808701526112698360a0830161113f565b60a087015261127b8360c08301611190565b60c0870152016111a5565b60e0830152565b92919061129c6101a582610453565b93818552602080860192028101918383116101c45781905b8382106112c2575050505050565b81516001600160401b0381116101c4576020916112e287849387016111b2565b8152019101906112b4565b9080601f830112156101c45781516101e49260200161128d565b9190916040818403126101c45761131e6040610153565b9260008201516001600160401b0381116101c4578161133e918401611176565b845260208201516001600160401b0381116101c45761135d9201611176565b6020830152565b9190916040818403126101c45780516001600160401b0381116101c4578361138d9183016112ed565b9260208201516001600160401b0381116101c4576101e49201611307565b6040513d6000823e3d90fd5b6113c261032c6110eb565b7f306430623031303134413441344130653061303130313441344134413066306160208201527f303130313441344134413130306130313031344134413441313130613031303160408201527f344134413441306530623031303134413441344130663062303130313441344160608201527f344131303062303130313441344134413131306230313031344134413441313260808201527f306230313031344134413441306430633031303134413441344130643064303160a08201527f303134413441344130643065303130313441344134413065306530313031344160c08201527f344134413066306530313031344134413441313030653031303134413441344160e08201527f31313065303130313441344134413132306530313031344134413441313230646101008201527f30313031344134413441313230633031303134413441344130663063303130316101208201527f34413441344131303063303130313441344134413063306630313031344134416101408201527f34413063306530313031344134413441306230663031303134413441344130616101608201527f31303031303134413441344131333065303130313441344134413133306630316101808201527f30313441344134413134306630313031344134413441306231303031303134416101a08201527f34413441313431303031303134413441344130613131303130313441344134416101c08201527f30623131303130313441344134413062313230313031344134413441306231336101e08201527f30313031344134413441306331333031303134413441344130633134303130316102008201527f34413441344130633135303130313441344134413064313430313031344134416102208201527f34413064313530313031344134413441306531353031303134413441344130666102408201527f31353031303134413441344131303135303130313441344134413131313530316102608201527f30313441344134413132313530313031344134413441313331353031303134416102808201527f34413441313431313031303134413441344131343132303130313441344134416102a08201527f31343133303130313441344134413133313330313031344134413441313331346102c08201527f30313031344134413441313531303031303134413441344131353131303130316102e08201527f34413441344131323134303130313441344134413064306630313031344134416103008201527f34413063313030313031344134413441313230663031303134413441344131336103208201526b31303031303134413441344160a01b61034082015290565b6101e46113b7565b6101e46117a3565b610cf2906101e4939261033b565b6117cc6101f86110eb565b7f306530663031303146464646464630663066303130314646464646463130306660208201527f303130314646464646463131306630313031464646464646306431303031303160408201527f464646464646306331313031303146464646464630633132303130314646464660608201527f464630643133303130314646464646463065313430313031464646464646306660808201527f313430313031464646464646313031343031303146464646464631313134303160a08201527f303146464646464631323133303130314646464646463133313230313031464660c08201527f464646463133313130313031464646464646313231303031303146464646464660e08201527f30653130303130314646464646463066313030313031464646464646313031306101008201527f30313031464646464646313131303031303146464646464631313131303130316101208201527f46464646464631303131303130314646464646463066313130313031464646466101408201527f46463065313130313031464646464646306431313031303146464646464630646101608201527f31323031303146464646464631303132303130314646464646463131313230316101808201527f30314646464646463132313230313031464646464646313231313031303146466101a08201527f46464646313031333031303146464646464630663133303130314646464646466101c08201527f30653133303130314646464646463065313230313031464646464646306631326101e08201527f303130314646464646463131313330313031464646464646000000000000000061020082015290565b6101e46117c1565b6101e4611a38565b6101e460006110eb565b6101e4611a48565b611a64601c6110eb565b7f3066306430313031463541363233313030643031303146354136323300000000602082015290565b6101e4611a5a565b6101e4611a8d565b611aa7601c6110eb565b7f3065306330313031464646464646313130633031303146464646464600000000602082015290565b6101e4611a9d565b6101e4611ad0565b611aea601c6110eb565b7f3065306430313031303030303030313130643031303130303030303000000000602082015290565b6101e4611ae0565b6101e4611b13565b611b2d60386110eb565b7f306431363031303146354136323330653136303130314635413632333131313660208201527f3031303146354136323331323136303130314635413632330000000000000000604082015290565b6101e4611b23565b6101e4611b7c565b611b9660016110eb565b600b60fa1b602082015290565b6101e4611b8c565b611bff93610cf2611bca6101e49795610cf2611be695610cf29761033b565b6f3d913a3930b4ba2fba3cb832911d101160811b815260100190565b6c111610113b30b63ab2911d101160991b8152600d0190565b61227d60f01b815260020190565b611c1760066110eb565b651e17b9bb339f60d11b602082015290565b6101e4611c0d565b6101e4611c29565b611f80611f02610cf297610cf2611f48611f02611fb89d9a6101e49f9d98611f11611f02610cf29d610cf2611ec9611bff9f611cb6610cf29f91610cf2611e78611cc4611cb6610cf29c610cf2611c9a611eae99607b60f81b815260010190565b6f226e616d65223a202250656e676f202360801b815260100190565b61088b60f21b815260020190565b7f226465736372697074696f6e223a202250656e6775696e204f6e636861696e2081527f697320616e20696e6e6f766174697665206f6e2d636861696e204e465420707260208201527f6f6a6563742074686174207075736865732074686520626f756e64617269657360408201527f206f662067656e657261746976652061727420616e6420626c6f636b6368616960608201527f6e20637573746f6d697a6174696f6e2e20556e6c696b6520747261646974696f60808201527f6e616c204e465420636f6c6c656374696f6e732074686174206172652070726560a08201527f2d67656e65726174656420616e642073746f726564206f66662d636861696e2c60c08201527f2065766572792050656e6775696e204e46542069732067656e6572617465642060e08201527f7573696e6720616e20616c676f726974686d206469726563746c79206f6e20746101008201527f686520626c6f636b636861696e2c20656e737572696e672074727565206465636101208201527f656e7472616c697a6174696f6e20616e6420696d6d75746162696c6974792e22610140820152600b60fa1b6101608201526101610190565b7f22696d616765223a2022646174613a696d6167652f7376672b786d6c3b626173815263194d8d0b60e21b602082015260240190565b6e2261747472696275746573223a205b60881b8152600f0190565b7f7b2274726169745f74797065223a202250656e676f2054797065222c20227661815266363ab2911d101160c91b602082015260270190565b62089f4b60ea1b815260030190565b7f7b2274726169745f74797065223a20224579652054797065222c202276616c7581526432911d101160d91b602082015260250190565b7f7b2274726169745f74797065223a20224c69666520476f616c222c202276616c8152653ab2911d101160d11b602082015260260190565b7f7b2274726169745f74797065223a20224e657420576f727468222c202276616c8152653ab2911d101160d11b602082015260260190565b615d7d60f01b815260020190565b7f646174613a6170706c69636174696f6e2f6a736f6e3b6261736536342c00000081526101e49190601d01610cf2565b9061201461200b82612006611112565b61372d565b91612006611137565b9061202761202260066110d7565b6107a2565b92600061203360405190565b6382260f3560e01b81526004810183905294859060249082905afa92831561239b576000948594612374575b50916121e96121696101e46121de6121696101e46121d36121696101e46121c56121696101e46121ba6121696101e48f6121696101e46121a1926121896121756120a860405190565b6101e48160208101612169817f3c7376672073686170652d72656e646572696e673d226372697370456467657381527f222076696577426f783d223020302033302033302220786d6c6e733d2268747460208201527f703a2f2f7777772e77332e6f72672f323030302f737667223e0000000000000060408201527f3c726563742077696474683d223130302522206865696768743d223130302522605982015270103334b6361e91119b9a9a9b309c11179f60791b6079820152608a0190565b9081038252038261012d565b9160206121806117ab565b91015190613beb565b9061219360405190565b9384926020840192836117b3565b6121896121ac611a40565b6121b4611a52565b90613beb565b6121896121ac611a95565b6121898d6020612180611ad8565b6121896121ac611b1b565b6121896121ac611b84565b926121f2611a52565b916000936121ff85610a0e565b955b61220c6101e4895190565b8710156122bc57612298886101e4896122426121696101e461229f976121896060612237878a610a6f565b5101516121b4611a52565b9861224b815190565b612257610bb58d610a0e565b11156122a657612169604061228461226d611ba3565b945b602061227b828a610a6f565b51015197610a6f565b510151604051958694602086019485611bab565b9660010190565b9593612201565b61216960406122846122b6611a52565b9461226f565b61234a97506122fd96506101e493946101e49987806101e4996123026122fd6122f96122f36121696101e46121699b612189611c31565b99614056565b9890565b614197565b9701519801519160208282015191015191612329610bb5612323610c8e8890565b92610a0e565b111561236657612337611ba3565b925b604051998a9860208a019889611c39565b6101e461235660405190565b8092612169602083019182611fc6565b61236e611a52565b92612339565b90945082933d8091833e612388818361012d565b810161239391611364565b94909361205f565b6113ab565b610167906123ac613204565b612945565b156123b857565b60405162461bcd60e51b815260206004820152600e60248201526d14185c9d081b9bdd08199bdd5b9960921b6044820152606490fd5b9190600861240791029161240260ff841b90565b921b90565b9181191691161790565b91906124226101e461242a93151590565b9083546123ee565b9055565b61016791600091612411565b60016101e4910160ff1690565b9160001960089290920291821b911b612407565b919061246c6101e461242a93610a0e565b908354612447565b6101679160009161245b565b81811061248b575050565b806124996000600193612474565b01612480565b906124b290600019906020036008021c90565b8154169055565b9190918282106124c857505050565b610167926020601f9091010490600160206124ef601f860182900493600052602060002090565b92830194060260008111612506575b500190612480565b612513906001850361249f565b386124fe565b90600160401b811161014e5781612531610167935490565b908281556124b9565b600061016791612519565b634e487b7160e01b600052600060045260246000fd5b9060000361256c576101679061253a565b612545565b8054600093929161258861258483610f80565b9390565b91600181169081156125d957506001146125a157505050565b6125b49192939450600052602060002090565b6000905b8382106125c55750500190565b6001816020925484860152019101906125b8565b60ff191683525050811515909102019150565b6101e491612571565b6101e49161033b565b91908203918211610c8957565b6101e49054610f80565b818110612620575050565b8061262e6000600193612474565b01612615565b9190601f811161264357505050565b61265561016793600052602060002090565b906020601f840181900483019310612678575b6020601f909101045b0190612615565b9091508190612668565b600019600883021c1916906002021790565b90808214612771576126a58161260b565b906001600160401b03821161014e576126c8826126c28554610f80565b85612634565b600090601f83116001146126f65761242a9291600091836126eb575b5050612682565b0154905038806126e4565b9061270b601f19841692600052602060002090565b9061271b85600052602060002090565b92815b8181106127595750916002939185600196941061273f575b50505002019055565b01546000196008601f8516021c19165b9055388080612736565b9193600180602092878701548155019501920161271e565b5050565b919061256c5761016791612694565b634e487b7160e01b600052603160045260246000fd5b906000916127b86127b082600052602060002090565b928354612682565b905555565b919290602082101561281557601f84116001146127df5761242a929350612682565b50906128106101679360016128076127fc85600052602060002090565b92601f602091010490565b82019101612615565b61279a565b5061284e829361282c600194600052602060002090565b6126716020601f860104820192601f861680612856575b50601f602091010490565b600202179055565b6128629088860361249f565b38612843565b929091600160401b821161014e57602011156128af5760208110156128905761242a91612682565b60019160ff19166128a684600052602060002090565b55600202019055565b60019150600202019055565b9081546128c781610f80565b908183116128f0575b8183106128de575b50505050565b6128e7936127bd565b388080806128d8565b6128fc83838387612868565b6128d0565b6000610167916128bb565b9060000361256c5761016790612901565b8054801561294057600019019061293d6129378383610f47565b9061290c565b55565b612784565b9061295c612957610a9a84600261038c565b6123b1565b612971600061296c84600261038c565b61242e565b600061297c81610c92565b905b60ff9261298a84610c92565b60ff84161015612a145761299d82610c92565b6129a685610c92565b60ff82161015612a01576129de9084846001838a6129cf610a9a836103f3886103f3868961038c565b6129e3575b505050505061243a565b61299d565b6129f7946103f36103f39261296c9561038c565b848438838a6129d4565b50925090612a0e9061243a565b9061297e565b939250612a449150612a3081612a2b85600361038c565b61255b565b612a3f81612a2b85600461038c565b610a0e565b6005612a516101e4825490565b821015612b3f57612a628282610f47565b50612a7f612a6f60405190565b80926121696020830191826125ec565b612a91612a8a825190565b9160200190565b20612ac2610bb5612aa160405190565b612ab381602081016121698a826125f5565b612abe612a8a825190565b2090565b14612ad05750600101612a44565b91610608612b35846101e4612b3a95612b2f612b27612b21612b117f5337ade8d1d62c362903db3fd2aa9ffcba271a15ce038a502e476b7e173811ff9b5490565b612b1b6001610a0e565b906125fe565b85610f47565b509184610f47565b90612775565b61291d565b0390a1565b5050612b3a7f5337ade8d1d62c362903db3fd2aa9ffcba271a15ce038a502e476b7e173811ff91610608565b610167906123a0565b90916101859083908093610189565b61036c906020949361018593612b74565b909161038690612ba360405190565b93849384612b83565b90916101e492612b94565b6101e491610a9a916002612bac565b906001600160a01b0390612407565b90612be56101e461242a926107a2565b8254612bc6565b612bf8610167916107a2565b6006612bd5565b61016790612c0b613204565b612c6b565b15612c1757565b60405162461bcd60e51b815260206004820152602660248201527f4f776e61626c653a206e6577206f776e657220697320746865207a65726f206160448201526564647265737360d01b6064820152608490fd5b61016790610b8c612c7f6106c26000610b76565b6001600160a01b0383161415612c10565b61016790612bff565b9061016791612ca6613204565b612e89565b15612cb257565b60405162461bcd60e51b815260206004820152601860248201527f5061727420616c726561647920696e697469616c697a656400000000000000006044820152606490fd5b90612d00825190565b811015610a5a570160200190565b6101e49060f81c610395565b9060ff90612407565b90612d336101e461242a92151590565b8254612d1a565b91906124226101e461242a93610395565b90815491600160401b83101561014e5782612d6e91600161016795018155610a31565b90612d3a565b90612d7d815190565b906001600160401b03821161014e57612d9a826126c28554610f80565b602090601f8311600114612dc75761242a929160009183612dbc575050612682565b0151905038806126e4565b601f19831691612ddc85600052602060002090565b9260005b818110612e1457509160029391856001969410612e005750505002019055565b01516000196008601f8516021c191661274f565b91936020600181928787015181550195019201612de0565b919061256c5761016791612d74565b90815491600160401b83101561014e5782612e5e91600161016795018155610f47565b90612e2c565b60408082526101e4939192612e7b918401906105a7565b9160208184039101526105a7565b612ea6612ea1612e9d610a9a84600261038c565b1590565b612cab565b612eaf82614325565b90612eb8825190565b93612ec9600795610d4b6007610a0e565b93612ed46000610a0e565b855b811015612f8d57612f86612ed691610b416103f3612f78612f26612f658b612f608f6103f3612f0f8f92612f0990610a0e565b8b610c76565b93612f57612f34612f39612f34612f268986612cf7565b516001600160f81b03191690565b612d0e565b988993612f51600199612f4b8b610a0e565b90610cc2565b90612cf7565b9889938661038c565b612d23565b612f736101e48b600361038c565b612d4b565b612f736101e489600461038c565b9050612ed4565b50925093507f89fb70f7621117a0372d49c06a6a61941c90f12179dc3998d02d8ddd336640fe9250612fc56001612f6083600261038c565b612fd0816005612e3b565b612b3a612fdc60405190565b92839283612e64565b9061016791612c99565b916103f3610a9a926103f36101e495613006600090565b50613018610a9f610a9a83600261038c565b600161038c565b61020c906001600160a01b031660601b90565b60146101e4926131686131616131436131106130d161308a611cc46130616131779a607b60f81b815260010190565b7f226e616d65223a202250656e6775696e204f6e636861696e222c0000000000008152601a0190565b7f22696d616765223a202268747470733a2f2f70656e6775696e6f6e636861696e8152740b9d1bdc0bdc195b99dbcb5a58dbdb8b9c1b99c88b605a1b602082015260350190565b7f2265787465726e616c5f75726c223a202268747470733a2f2f70656e6775696e81526c1bdb98da185a5b8b9d1bdc088b609a1b6020820152602d0190565b7f2273656c6c65725f6665655f62617369735f706f696e7473223a2022353030228152600b60fa1b602082015260210190565b71113332b2afb932b1b4b834b2b73a111d101160711b815260120190565b809261301f565b0161088b60f21b815260020190565b607d60f81b815260010190565b6101e461234a6122fd6101e46131986110e1565b6101e46131a460405190565b8092612169602083019182613032565b156131bb57565b60405162461bcd60e51b8152806109d5600482016020808252818101527f4f776e61626c653a2063616c6c6572206973206e6f7420746865206f776e6572604082015260600190565b61016761320f6110e1565b61322861321b336106c2565b916001600160a01b031690565b146131b4565b61324f61324961323e60006110d7565b612022846000612bd5565b916107a2565b907f8be0079c531659141344cd1fd0a4f28419497f9722a3daafe3b4186f6b6457e061327a60405190565b600090a3565b61328a60106110eb565b6f181899199a1a9b1b9c1ca0a121a222a360811b602082015290565b6101e4613280565b90610167610a016132be846110eb565b93610169565b6103a5906132df6132d86101e49460ff1690565b9160ff1690565b901c90565b906132ed6132a6565b600261331161330c6132fd865190565b6133076002610a0e565b610c76565b6132ae565b9160009461331f6000610a0e565b61332a6101e4835190565b8110156133d45780613367612f26613361610b2c613351612f34612f266133cf988a612cf7565b61335b6004610c92565b906132c4565b86612cf7565b6133816133778361330789610a0e565b918a1a9188612cf7565b536133ab612f2661336161339b612f34612f268689612cf7565b6133a5600f610c92565b16610a5f565b6133c86133776133be846133078a610a0e565b612f4b6001610a0e565b5360010190565b61331f565b505050506101e491925090565b6101e46040610153565b6133f36133e1565b906060825260606020830152565b6101e46133eb565b61341360066110eb565b655a6f6d62696560d01b602082015290565b6101e4613409565b61343760066110eb565b6519981a30989960d11b602082015290565b6101e461342d565b61345b60066110eb565b6541726374696360d01b602082015290565b6101e4613451565b61347f60066110eb565b651a992098232360d11b602082015290565b6101e4613475565b6134a360046110eb565b634669726560e01b602082015290565b6101e4613499565b6134c560066110eb565b6507272606e62760d31b602082015290565b6101e46134bb565b6134e960046110eb565b634d616c6560e01b602082015290565b6101e46134df565b61350b60066110eb565b651a211a219a2360d11b602082015290565b6101e4613501565b61352f60066110eb565b6546656d616c6560d01b602082015290565b6101e4613525565b61355360066110eb565b651ca11ca11ca160d11b602082015290565b6101e4613549565b613577600a6110eb565b695a6f6d6269652045796560b01b602082015290565b6101e461356d565b61359f60066110eb565b6544373437353560d01b602082015290565b6101e4613595565b6135c360086110eb565b6714dd185b99185c9960c21b602082015290565b6101e46135b9565b6135e960066110eb565b6523232323232360d11b602082015290565b6101e46135df565b61360d600c6110eb565b6b507572706c6520536861646560a01b602082015290565b6101e4613603565b61363760066110eb565b6541383637453160d01b602082015290565b6101e461362d565b61365b60066110eb565b65536c6565707960d01b602082015290565b6101e4613651565b61367f60066110eb565b650d0e0dcc904d60d21b602082015290565b6101e4613675565b6136a360096110eb565b68416e636573746f727360b81b602082015290565b6101e4613699565b6136ca60066110eb565b6504230423042360d41b602082015290565b6101e46136c0565b6136ee60076110eb565b662ab735b737bbb760c91b602082015290565b6101e46136e4565b61371360066110eb565b6503030303030360d41b602082015290565b6101e4613709565b90613736613401565b5061374261c350610a0e565b9061374d8282610baf565b9261375760405190565b613769816020810161216985826125f5565b613774612a8a825190565b206137a0610bb561378460405190565b612ab381602081016121698163426f647960e01b815260040190565b146139d3576137c16137b160405190565b80926121696020830191826125f5565b6137cc612a8a825190565b206137fb610bb56137dc60405190565b612ab381602081016121698166746f705f65796560c81b815260070190565b146138255750505061380b6133e1565b61381a613816613701565b8252565b6101e461135d613725565b61383190612006611112565b5160405161383e906137b1565b613849612a8a825190565b20613877610bb561385960405190565b612ab3816020810161216981655a6f6d62696560d01b815260060190565b146139b35761388c61012c91612b1b83610a0e565b6138ac6138a261389c6005610a0e565b83610c76565b610d4b6064610a0e565b916138da6138a26138c96138a26138c3600a610a0e565b86610c76565b936138d4601e610a0e565b90610c76565b6138ef6101e4856138ea85610a0e565b610cc2565b8510156139195750505050506139036133e1565b61390e6138166136b8565b6101e461135d6136dc565b61392d6101e4846138ea876138ea87610a0e565b8510156139575750505050506139416133e1565b61394c61381661366d565b6101e461135d613691565b6138ea610bb5936138ea613971966138ea6101e496610a0e565b10156139955761397f6133e1565b61398a613816613625565b6101e461135d613649565b61399d6133e1565b6139a86138166135d7565b6101e461135d6135fb565b50506139bd6133e1565b6139c861381661358d565b6101e461135d6135b1565b505061012c906139e282610a0e565b8310613ad857612b1b6139f492610a0e565b6139ff6103e8610a0e565b8210613ab857613a1490612b1b6102bc610a0e565b6109c4613a2081610a0e565b8310613a97576101e4610bb5916138ea613a4f613a45613a5596612b1b6105dc610a0e565b610d4b6002610a0e565b91610a0e565b1015613a7957613a636133e1565b613a6e613816613541565b6101e461135d613565565b613a816133e1565b613a8c6138166134f9565b6101e461135d61351d565b505050613aa26133e1565b613aad6138166134b3565b6101e461135d6134d7565b5050613ac26133e1565b613acd61381661346d565b6101e461135d613491565b505050613ae36133e1565b613aee613816613425565b6101e461135d613449565b15613b0057565b60405162461bcd60e51b815260206004820152601960248201527f496e76616c696420706978656c2064617461206c656e677468000000000000006044820152606490fd5b613bb16101e49795610cf2613b9c610cf297610cf2613b8b613bc799610cf2613b76613bdc9f9b9a610cf29b61033b565b683c7265637420783d2760b81b815260090190565b642720793d2760d81b815260050190565b68272077696474683d2760b81b815260090190565b6927206865696768743d2760b01b8152600a0190565b68272066696c6c3d272360b81b815260090190565b6213979f60e91b815260030190565b613bf490614325565b8051613c06600791610d0d6007610a0e565b90613c1f600092613c19610bb585610a0e565b14613af9565b613c27611a52565b90613c3d613c33855190565b610d4b6007610a0e565b95600492613c5b613c56613c5086610a0e565b8a610c76565b6109eb565b94613c6589610f2a565b97613c6f82610a0e565b8a811015613ef957613c8086610a0e565b613c8a9082610c76565b613c94818b612cf7565b516001600160f81b031916613ca890612d0e565b613cb190610a5f565b613cba89610a0e565b613cc49084610c76565b613cce908b610a6f565b526001613cda81610a0e565b613ce49083610cc2565b613cee908c612cf7565b516001600160f81b031916613d0290612d0e565b613d0b90610a5f565b90613d158a610a0e565b613d1f9085610c76565b90613d2990610a0e565b613d3291610cc2565b613d3c908b610a6f565b526002613d4881610a0e565b613d529083610cc2565b613d5c908c612cf7565b516001600160f81b031916613d7090612d0e565b613d7990610a5f565b90613d838a610a0e565b613d8d9085610c76565b90613d9790610a0e565b613da091610cc2565b613daa908b610a6f565b526003613db681610a0e565b613dc09083610cc2565b613dca908c612cf7565b516001600160f81b031916613dde90612d0e565b613de790610a5f565b90613df18a610a0e565b613dfb9085610c76565b90613e0590610a0e565b613e0e91610cc2565b613e18908b610a6f565b52613e2288610a0e565b613e2c9082610cc2565b613e36908b612cf7565b516001600160f81b031916613e4a9061440e565b90613e556005610a0e565b613e5f9082610cc2565b613e69908c612cf7565b516001600160f81b031916613e7d9061440e565b90613e886006610a0e565b613e9191610cc2565b613e9b908c612cf7565b516001600160f81b031916613eaf9061440e565b90613eb960405190565b9283926020840192613ecb9284610ce0565b908103825203613edb908261012d565b613ee5828c610a6f565b52613ef0818b610a6f565b50600101613c6f565b509298509250929450613f0b82610a0e565b925b613f186101e4865190565b84101561401e57613f298486610a6f565b51613f346001610a0e565b613f3e9086610cc2565b613f489087610a6f565b5190613f546002610a0e565b613f5e9087610cc2565b613f689088610a6f565b5190613f746003610a0e565b613f7e9088610cc2565b613f889089610a6f565b5192613f938a610a0e565b613f9d9089610c20565b613fa7908c610a6f565b51948651613fb489610a0e565b1061401096614006966101e49561216993614016575b613fe8613fe2613fdc613fee93614496565b97614496565b98614496565b91614496565b90613ff860405190565b978896602088019687613b45565b93612f4b87610a0e565b92613f0d565b8a9250613fca565b9550505050505090565b61403260016110eb565b600360fc1b602082015290565b6101e4614028565b6000198114610c895760010190565b90600061406281610a0e565b8314614123579091908160005b61407883610a0e565b841461409b5761408a61409591614047565b93610d4b600a610a0e565b9261406f565b919392506140a8826132ae565b915b6140b385610a0e565b8214614118576140ca61411291612b1b6001610a0e565b91610d4b600a8461410c6141036140fe6140f96140ef6140e987610a0e565b89610baf565b6138ea6030610a0e565b610c92565b610c9f565b8a1a9188612cf7565b53610a0e565b906140aa565b50506101e491925090565b5090506101e461403f565b61413860406110eb565b7f4142434445464748494a4b4c4d4e4f505152535455565758595a61626364656660208201527f6768696a6b6c6d6e6f707172737475767778797a303132333435363738392b2f604082015290565b6101e461412e565b6101e4614187565b80516141a6610bb56000610a0e565b1461429d576141b361418f565b906141c96141bf825190565b612f4b6002610a0e565b9060016141e96141df600394610d4b6003610a0e565b6133076004610a0e565b9361420061330c6141fa6020610a0e565b87610cc2565b94855201918192825183019160208601945b838110614255575050505060039051068060011461424457600214614235575090565b603d60f81b6000199091015290565b50613d3d60f01b6001199091015290565b8160019196929394960191603f828080865194848660121c168a01518153018385600c1c16890151815301828460061c16880151815301911685015181530194929190614212565b506101e4611a52565b156142ad57565b60405162461bcd60e51b815260206004820152601960248201527f496e76616c69642068657820737472696e67206c656e677468000000000000006044820152606490fd5b6142fe9060ff166132d8565b029060ff8216918203610c8957565b6143199060ff166132d8565b019060ff8211610c8957565b9061432e825190565b9161433e600293610d0d85610a0e565b92614358600094614352610bb56000610a0e565b146142a6565b61436f61330c614366845190565b610d4b84610a0e565b9161437a6000610a0e565b6143916101e4614388845190565b610d4b86610a0e565b81101561440657806143f56140fe6143d66143c66143c1612f266143bb614401986133078c610a0e565b89612cf7565b61451e565b6143d06010610c92565b906142f2565b6143ef6143c1612f266143bb6133be886133078d610a0e565b9061430d565b871a6133c88287612cf7565b61437a565b509193505050565b6101e49061447c612f266144206132a6565b612f5161443961443361330c6002610a0e565b95612d0e565b61445b612f26614455610b2c61444f6004610c92565b856132c4565b85612cf7565b60001a61447161446b6000610a0e565b88612cf7565b536133a5600f610c92565b60001a61449261448c6001610a0e565b83612cf7565b5390565b9060006144a281610a0e565b8314614123579091908160005b6144b883610a0e565b84146144d05761408a6144ca91614047565b926144af565b919392506144dd826132ae565b915b6144e885610a0e565b8214614118576140ca6144ff91612b1b6001610a0e565b906144df565b6145119060ff166132d8565b90039060ff8211610c8957565b61452790612d0e565b6145316030610c92565b60ff8216101580614611575b15614556576101e4906145506030610c92565b90614505565b6145606041610c92565b60ff82161015806145fb575b1561457f576101e4906145506037610c92565b6145896061610c92565b60ff82161015806145e5575b156145a8576101e4906145506057610c92565b60405162461bcd60e51b815260206004820152601560248201527424b73b30b634b2103432bc1031b430b930b1ba32b960591b6044820152606490fd5b506145f06066610c92565b60ff82161115614595565b506146066046610c92565b60ff8216111561456c565b5061461c6039610c92565b60ff8216111561453d56fea2646970667358221220d358dc94fb25c9b6ce12d1961124a3e6e78d4caa5f1f08f95aebe594a7cf86ca64736f6c634300081b0033",
  "linkReferences": {},
  "deployedLinkReferences": {}
}