{
  "contracts/Strategy/PengoStrategy.sol": {
    "PengoStrategy": {
      "abi": [
        {
          "inputs": [],
          "stateMutability": "nonpayable",
          "type": "constructor"
        },
        {
          "anonymous": false,
          "inputs": [
            {
              "indexed": false,
              "internalType": "address",
              "name": "previousAdmin",
              "type": "address"
            },
            {
              "indexed": false,
              "internalType": "address",
              "name": "newAdmin",
              "type": "address"
            }
          ],
          "name": "AdminChanged",
          "type": "event"
        },
        {
          "anonymous": false,
          "inputs": [
            {
              "indexed": true,
              "internalType": "address",
              "name": "beacon",
              "type": "address"
            }
          ],
          "name": "BeaconUpgraded",
          "type": "event"
        },
        {
          "anonymous": false,
          "inputs": [
            {
              "indexed": false,
              "internalType": "uint8",
              "name": "version",
              "type": "uint8"
            }
          ],
          "name": "Initialized",
          "type": "event"
        },
        {
          "anonymous": false,
          "inputs": [
            {
              "indexed": true,
              "internalType": "address",
              "name": "previousOwner",
              "type": "address"
            },
            {
              "indexed": true,
              "internalType": "address",
              "name": "newOwner",
              "type": "address"
            }
          ],
          "name": "OwnershipTransferred",
          "type": "event"
        },
        {
          "anonymous": false,
          "inputs": [
            {
              "indexed": true,
              "internalType": "address",
              "name": "implementation",
              "type": "address"
            }
          ],
          "name": "Upgraded",
          "type": "event"
        },
        {
          "inputs": [
            {
              "internalType": "uint256",
              "name": "",
              "type": "uint256"
            }
          ],
          "name": "activeBuyList",
          "outputs": [
            {
              "internalType": "address",
              "name": "",
              "type": "address"
            }
          ],
          "stateMutability": "view",
          "type": "function"
        },
        {
          "inputs": [
            {
              "internalType": "uint256",
              "name": "tokenId",
              "type": "uint256"
            },
            {
              "internalType": "address",
              "name": "receiver",
              "type": "address"
            }
          ],
          "name": "claimAllDividendsFor",
          "outputs": [],
          "stateMutability": "nonpayable",
          "type": "function"
        },
        {
          "inputs": [
            {
              "internalType": "address",
              "name": "rwaToken",
              "type": "address"
            },
            {
              "internalType": "uint256",
              "name": "tokenId",
              "type": "uint256"
            }
          ],
          "name": "claimDividends",
          "outputs": [],
          "stateMutability": "nonpayable",
          "type": "function"
        },
        {
          "inputs": [
            {
              "internalType": "uint256",
              "name": "lpTokenId",
              "type": "uint256"
            },
            {
              "internalType": "Currency",
              "name": "currency0",
              "type": "address"
            },
            {
              "internalType": "Currency",
              "name": "currency1",
              "type": "address"
            }
          ],
          "name": "claimFeesFromPosition",
          "outputs": [],
          "stateMutability": "nonpayable",
          "type": "function"
        },
        {
          "inputs": [
            {
              "internalType": "address",
              "name": "rwaToken",
              "type": "address"
            },
            {
              "internalType": "uint256",
              "name": "amount",
              "type": "uint256"
            }
          ],
          "name": "distributeYield",
          "outputs": [],
          "stateMutability": "nonpayable",
          "type": "function"
        },
        {
          "inputs": [
            {
              "internalType": "uint256",
              "name": "proposalId",
              "type": "uint256"
            }
          ],
          "name": "executeProposal",
          "outputs": [],
          "stateMutability": "nonpayable",
          "type": "function"
        },
        {
          "inputs": [],
          "name": "getActiveBuyList",
          "outputs": [
            {
              "internalType": "address[]",
              "name": "",
              "type": "address[]"
            }
          ],
          "stateMutability": "view",
          "type": "function"
        },
        {
          "inputs": [
            {
              "internalType": "address",
              "name": "rwaToken",
              "type": "address"
            },
            {
              "internalType": "uint256",
              "name": "tokenId",
              "type": "uint256"
            }
          ],
          "name": "getClaimableDividends",
          "outputs": [
            {
              "internalType": "uint256",
              "name": "",
              "type": "uint256"
            }
          ],
          "stateMutability": "view",
          "type": "function"
        },
        {
          "inputs": [],
          "name": "getRewardTokens",
          "outputs": [
            {
              "internalType": "address[]",
              "name": "",
              "type": "address[]"
            }
          ],
          "stateMutability": "view",
          "type": "function"
        },
        {
          "inputs": [
            {
              "internalType": "uint256",
              "name": "",
              "type": "uint256"
            },
            {
              "internalType": "uint256",
              "name": "",
              "type": "uint256"
            }
          ],
          "name": "hasVoted",
          "outputs": [
            {
              "internalType": "bool",
              "name": "",
              "type": "bool"
            }
          ],
          "stateMutability": "view",
          "type": "function"
        },
        {
          "inputs": [
            {
              "internalType": "address",
              "name": "rwa",
              "type": "address"
            }
          ],
          "name": "hotfixAddRewardToken",
          "outputs": [],
          "stateMutability": "nonpayable",
          "type": "function"
        },
        {
          "inputs": [
            {
              "internalType": "address",
              "name": "rwa",
              "type": "address"
            }
          ],
          "name": "hotfixAddToBuyList",
          "outputs": [],
          "stateMutability": "nonpayable",
          "type": "function"
        },
        {
          "inputs": [
            {
              "internalType": "address",
              "name": "",
              "type": "address"
            }
          ],
          "name": "inBuyList",
          "outputs": [
            {
              "internalType": "bool",
              "name": "",
              "type": "bool"
            }
          ],
          "stateMutability": "view",
          "type": "function"
        },
        {
          "inputs": [
            {
              "internalType": "address",
              "name": "_nftContract",
              "type": "address"
            },
            {
              "internalType": "address",
              "name": "_positionManager",
              "type": "address"
            }
          ],
          "name": "initialize",
          "outputs": [],
          "stateMutability": "nonpayable",
          "type": "function"
        },
        {
          "inputs": [
            {
              "internalType": "address",
              "name": "",
              "type": "address"
            }
          ],
          "name": "isRewardToken",
          "outputs": [
            {
              "internalType": "bool",
              "name": "",
              "type": "bool"
            }
          ],
          "stateMutability": "view",
          "type": "function"
        },
        {
          "inputs": [],
          "name": "nftContract",
          "outputs": [
            {
              "internalType": "contract IPenguinOnchain",
              "name": "",
              "type": "address"
            }
          ],
          "stateMutability": "view",
          "type": "function"
        },
        {
          "inputs": [
            {
              "internalType": "address",
              "name": "operator",
              "type": "address"
            },
            {
              "internalType": "address",
              "name": "from",
              "type": "address"
            },
            {
              "internalType": "uint256",
              "name": "tokenId",
              "type": "uint256"
            },
            {
              "internalType": "bytes",
              "name": "data",
              "type": "bytes"
            }
          ],
          "name": "onERC721Received",
          "outputs": [
            {
              "internalType": "bytes4",
              "name": "",
              "type": "bytes4"
            }
          ],
          "stateMutability": "nonpayable",
          "type": "function"
        },
        {
          "inputs": [],
          "name": "owner",
          "outputs": [
            {
              "internalType": "address",
              "name": "",
              "type": "address"
            }
          ],
          "stateMutability": "view",
          "type": "function"
        },
        {
          "inputs": [
            {
              "internalType": "address",
              "name": "",
              "type": "address"
            },
            {
              "internalType": "uint256",
              "name": "",
              "type": "uint256"
            }
          ],
          "name": "pendingDividends",
          "outputs": [
            {
              "internalType": "uint256",
              "name": "",
              "type": "uint256"
            }
          ],
          "stateMutability": "view",
          "type": "function"
        },
        {
          "inputs": [],
          "name": "positionManager",
          "outputs": [
            {
              "internalType": "contract IPositionManager",
              "name": "",
              "type": "address"
            }
          ],
          "stateMutability": "view",
          "type": "function"
        },
        {
          "inputs": [],
          "name": "proposalCount",
          "outputs": [
            {
              "internalType": "uint256",
              "name": "",
              "type": "uint256"
            }
          ],
          "stateMutability": "view",
          "type": "function"
        },
        {
          "inputs": [
            {
              "internalType": "uint256",
              "name": "",
              "type": "uint256"
            }
          ],
          "name": "proposals",
          "outputs": [
            {
              "internalType": "address",
              "name": "rwaToken",
              "type": "address"
            },
            {
              "internalType": "bool",
              "name": "isAdd",
              "type": "bool"
            },
            {
              "internalType": "uint256",
              "name": "yesVotes",
              "type": "uint256"
            },
            {
              "internalType": "uint256",
              "name": "noVotes",
              "type": "uint256"
            },
            {
              "internalType": "uint256",
              "name": "endTime",
              "type": "uint256"
            },
            {
              "internalType": "bool",
              "name": "executed",
              "type": "bool"
            }
          ],
          "stateMutability": "view",
          "type": "function"
        },
        {
          "inputs": [
            {
              "internalType": "address",
              "name": "rwaToken",
              "type": "address"
            },
            {
              "internalType": "bool",
              "name": "isAdd",
              "type": "bool"
            },
            {
              "internalType": "uint256",
              "name": "tokenId",
              "type": "uint256"
            }
          ],
          "name": "propose",
          "outputs": [],
          "stateMutability": "nonpayable",
          "type": "function"
        },
        {
          "inputs": [],
          "name": "proxiableUUID",
          "outputs": [
            {
              "internalType": "bytes32",
              "name": "",
              "type": "bytes32"
            }
          ],
          "stateMutability": "view",
          "type": "function"
        },
        {
          "inputs": [],
          "name": "renounceOwnership",
          "outputs": [],
          "stateMutability": "nonpayable",
          "type": "function"
        },
        {
          "inputs": [
            {
              "internalType": "address",
              "name": "",
              "type": "address"
            },
            {
              "internalType": "uint256",
              "name": "",
              "type": "uint256"
            }
          ],
          "name": "rewardDebt",
          "outputs": [
            {
              "internalType": "uint256",
              "name": "",
              "type": "uint256"
            }
          ],
          "stateMutability": "view",
          "type": "function"
        },
        {
          "inputs": [
            {
              "internalType": "uint256",
              "name": "",
              "type": "uint256"
            }
          ],
          "name": "rewardTokens",
          "outputs": [
            {
              "internalType": "address",
              "name": "",
              "type": "address"
            }
          ],
          "stateMutability": "view",
          "type": "function"
        },
        {
          "inputs": [
            {
              "internalType": "address",
              "name": "_nftContract",
              "type": "address"
            }
          ],
          "name": "setNftContract",
          "outputs": [],
          "stateMutability": "nonpayable",
          "type": "function"
        },
        {
          "inputs": [
            {
              "internalType": "address",
              "name": "_positionManager",
              "type": "address"
            }
          ],
          "name": "setPositionManager",
          "outputs": [],
          "stateMutability": "nonpayable",
          "type": "function"
        },
        {
          "inputs": [
            {
              "internalType": "uint256",
              "name": "tokenId",
              "type": "uint256"
            }
          ],
          "name": "syncRewardDebt",
          "outputs": [],
          "stateMutability": "nonpayable",
          "type": "function"
        },
        {
          "inputs": [
            {
              "internalType": "address",
              "name": "",
              "type": "address"
            }
          ],
          "name": "totalDividendsPerPower",
          "outputs": [
            {
              "internalType": "uint256",
              "name": "",
              "type": "uint256"
            }
          ],
          "stateMutability": "view",
          "type": "function"
        },
        {
          "inputs": [
            {
              "internalType": "address",
              "name": "newOwner",
              "type": "address"
            }
          ],
          "name": "transferOwnership",
          "outputs": [],
          "stateMutability": "nonpayable",
          "type": "function"
        },
        {
          "inputs": [
            {
              "internalType": "uint256",
              "name": "tokenId",
              "type": "uint256"
            }
          ],
          "name": "updateRewardDebt",
          "outputs": [],
          "stateMutability": "nonpayable",
          "type": "function"
        },
        {
          "inputs": [
            {
              "internalType": "address",
              "name": "newImplementation",
              "type": "address"
            }
          ],
          "name": "upgradeTo",
          "outputs": [],
          "stateMutability": "nonpayable",
          "type": "function"
        },
        {
          "inputs": [
            {
              "internalType": "address",
              "name": "newImplementation",
              "type": "address"
            },
            {
              "internalType": "bytes",
              "name": "data",
              "type": "bytes"
            }
          ],
          "name": "upgradeToAndCall",
          "outputs": [],
          "stateMutability": "payable",
          "type": "function"
        },
        {
          "inputs": [
            {
              "internalType": "uint256",
              "name": "proposalId",
              "type": "uint256"
            },
            {
              "internalType": "uint256",
              "name": "tokenId",
              "type": "uint256"
            },
            {
              "internalType": "bool",
              "name": "support",
              "type": "bool"
            }
          ],
          "name": "vote",
          "outputs": [],
          "stateMutability": "nonpayable",
          "type": "function"
        }
      ],
      "evm": {
        "bytecode": {
          "linkReferences": {},
          "object": "60a080604052346100da57306080525f549060ff8260081c16610088575060ff8082161061004e575b6040516129b790816100df82396080518181816111650152818161128a0152611c130152f35b60ff90811916175f557f7f26b83ff96e1f2b6a682f133852f6798a09c465da95921460cefb3847402498602060405160ff8152a15f610028565b62461bcd60e51b815260206004820152602760248201527f496e697469616c697a61626c653a20636f6e747261637420697320696e697469604482015266616c697a696e6760c81b6064820152608490fd5b5f80fdfe6080806040526004361015610012575f80fd5b5f905f3560e01c908163013cf08b1461225d575080630d61b51914611f62578063150b7a0214611ef15780633659cfe614611bf55780633f71573e14611b0357806343e9585f146118f95780634443b69d14611708578063485cc9551461156d5780634f1ef2861461121557806352d1902d1461115357806352f5ad77146111105780635760f2e3146110cc5780635c3bdd881461108757806364390ff11461104c5780636a18ff7a14610e55578063715018a614610dfa578063745890f614610d7d578063791b98bc14610d545780637bb7bed114610d2a57806388df1e9b14610ce35780638da5cb5b14610cbb578063a566f3ac14610c54578063b127616914610a56578063b5fd73f814610a18578063bd4ba9c014610818578063c244f68c146107da578063c4f59f9b1461074b578063cc738ac314610712578063d2b91bd1146106e3578063d56d229d146106bb578063da35c6641461069e578063e18e63061461065c578063e2d076c914610617578063ec3d3c31146104b8578063f2fde38b146104295763fb0132d3146101aa575f80fd5b346103bc5760603660031901126103bc576101c36122e0565b6044356001600160a01b038116908190036103bc576101e7600260c9541415612551565b600260c9556101f46127e6565b60409081519061020483836122f6565b6002825260208201601f19840136823782511561041557600190538151600110156104155760116021839593015360609183519161024284846122f6565b60028352601f1984015f5b818110610405575050845160043560208201525f868201525f858201525f608082015260a0808201525f60c082015260c0815261028b60e0826122f6565b61029484612745565b5261029e83612745565b5084516001600160a01b0390921660208301528185015230838201528281526102c86080826122f6565b6102d182612752565b526102db81612752565b5060018060a01b036101075416916102ff8451958692866020850152830190612762565b91601f198284030185830152805180845260208401936020808360051b8301019301945f915b8383106103d45750505050610343925003601f1981018552846122f6565b61012c4201928342116103c057813b156103bc575f916103809183855180978195829463dd46508f60e01b84528960048501526044840190612762565b90602483015203925af19081156103b357506103a0575b50600160c95580f35b6103ac91505f906122f6565b5f5f610397565b513d5f823e3d90fd5b5f80fd5b634e487b7160e01b5f52601160045260245ffd5b919360019193955060206103f38192601f198682030187528951612762565b97019301930190928894929593610325565b602081860181018790520161024d565b634e487b7160e01b5f52603260045260245ffd5b346103bc5760203660031901126103bc576104426122ca565b61044a6127e6565b6001600160a01b03811615610464576104629061283e565b005b60405162461bcd60e51b815260206004820152602660248201527f4f776e61626c653a206e6577206f776e657220697320746865207a65726f206160448201526564647265737360d01b6064820152608490fd5b346103bc5760203660031901126103bc5760fb54600435906024906020906001600160a01b03166104ea3382146124e8565b60405192838092636f08bc8760e11b82528660048301525afa90811561060c575f916105da575b505f5b61010354811015610462578061052b60019261238e565b838060a01b0391549060031b1c16805f52610101602052670de0b6b3a764000061058760405f20548261055e828961253e565b04845f5261010560205260405f20895f5260205260405f20548082116105a6575b50508661253e565b04905f5261010560205260405f20855f5260205260405f205501610514565b6105af916123ca565b845f5261010660205260405f20895f526020526105d160405f209182546123bd565b9055888061057f565b90506020813d602011610604575b816105f5602093836122f6565b810103126103bc575182610511565b3d91506105e8565b6040513d5f823e3d90fd5b346103bc5760403660031901126103bc576001600160a01b036106386122ca565b165f5261010560205260405f206024355f52602052602060405f2054604051908152f35b346103bc5760203660031901126103bc5760043560ff548110156103bc57610685602091612376565b905460405160039290921b1c6001600160a01b03168152f35b346103bc575f3660031901126103bc57602060fd54604051908152f35b346103bc575f3660031901126103bc5760fb546040516001600160a01b039091168152602090f35b346103bc5760403660031901126103bc57602061070a6107016122ca565b6024359061264f565b604051908152f35b346103bc5760203660031901126103bc576001600160a01b036107336122ca565b165f52610101602052602060405f2054604051908152f35b346103bc575f3660031901126103bc57604051806020610103549182815201906101035f527f02c297ab74aad0aede3a1895c857b1f2c71e6a203feb727bec95ac752998cb78905f5b8181106107bb576107b7856107ab818703826122f6565b60405191829182612334565b0390f35b82546001600160a01b0316845260209093019260019283019201610794565b346103bc5760203660031901126103bc576001600160a01b036107fb6122ca565b165f52610100602052602060ff60405f2054166040519015158152f35b346103bc5760403660031901126103bc576108316122ca565b6001600160a01b0381165f81815261010060205260409020549091906024359060ff16156109dd5760fb5460405163aed96b5960e01b81529190602090839060049082906001600160a01b03165afa91821561060c575f926109a9575b50811561096c576040516323b872dd60e01b8152336004820152306024820152604481018290526020816064815f895af1801561060c5761093f575b50670de0b6b3a7640000810290808204670de0b6b3a764000014901517156103c05704825f5261010160205261090560405f209182546123bd565b9055815f5261010460205260ff60405f2054161561091f57005b610462915f5261010460205260405f20600160ff198254161790556123fe565b6109609060203d602011610965575b61095881836122f6565b8101906125fa565b6108ca565b503d61094e565b60405162461bcd60e51b81526020600482015260156024820152744e6f20736861726520706f7765722065786973747360581b6044820152606490fd5b9091506020813d6020116109d5575b816109c5602093836122f6565b810103126103bc5751908461088e565b3d91506109b8565b60405162461bcd60e51b81526020600482015260136024820152724e6f7420616e20617070726f7665642052574160681b6044820152606490fd5b346103bc5760203660031901126103bc576001600160a01b03610a396122ca565b165f52610104602052602060ff60405f2054166040519015158152f35b346103bc5760603660031901126103bc57610a6f6122ca565b602435908115158092036103bc5760fb546040516331a9108f60e11b8152604435600482018190526001600160a01b0390921691602082602481865afa91821561060c57602092610ad2915f91610c27575b506001600160a01b031633146125bc565b602460405180948193636f08bc8760e11b835260048301525afa801561060c575f90610bf3575b610b0591501515612612565b60fd545f1981146103c057600101918260fd556203f48042018042116103c0576040519160c083019383851067ffffffffffffffff861117610bdf5760049460405260018060a01b0316835260208301908152604083015f815260608401915f83526080850193845260a08501965f88525f5260fc60205260405f209460018060a01b039051166001600160601b0360a01b86541617855551151584549060ff60a01b9060a01b169060ff60a01b1916178455516001840155516002830155516003820155019051151560ff801983541691161790555f80f35b634e487b7160e01b5f52604160045260245ffd5b506020813d602011610c1f575b81610c0d602093836122f6565b810103126103bc57610b059051610af9565b3d9150610c00565b610c479150843d8611610c4d575b610c3f81836122f6565b81019061259d565b87610ac1565b503d610c35565b346103bc5760203660031901126103bc57610c6d6122ca565b610c756127e6565b6001600160a01b0381165f818152610100602052604090205490919060ff1615610c9b57005b610462915f5261010060205260405f20600160ff198254161790556123d7565b346103bc575f3660031901126103bc576097546040516001600160a01b039091168152602090f35b346103bc5760203660031901126103bc57610cfc6122ca565b610d046127e6565b6001600160a01b0381165f818152610104602052604090205490919060ff161561091f57005b346103bc5760203660031901126103bc57600435610103548110156103bc5761068560209161238e565b346103bc575f3660031901126103bc57610107546040516001600160a01b039091168152602090f35b346103bc575f3660031901126103bc5760405180602060ff5491828152019060ff5f527fe08ec2af2cfc251225e1968fd6ca21e4044f129bffa95bac3503be8bdb30a367905f5b818110610ddb576107b7856107ab818703826122f6565b82546001600160a01b0316845260209093019260019283019201610dc4565b346103bc575f3660031901126103bc57610e126127e6565b609780546001600160a01b031981169091555f906001600160a01b03167f8be0079c531659141344cd1fd0a4f28419497f9722a3daafe3b4186f6b6457e08280a3005b346103bc5760603660031901126103bc5760243560043560443580151581036103bc5760fb546040516331a9108f60e11b8152600481018590526001600160a01b039091169390602081602481885afa801561060c57610ec6915f9161102d57506001600160a01b031633146125bc565b825f5260fe60205260405f20815f5260205260ff60405f205416610ff857825f5260fc602052600360405f200154421015610fc457602060249460405195868092636f08bc8760e11b82528560048301525afa93841561060c575f94610f90575b50610f33841515612612565b825f5260fe60205260405f20905f5260205260405f20600160ff198254161790555f14610f77575f5260fc602052610f73600160405f20019182546123bd565b9055005b5f5260fc602052610f73600260405f20019182546123bd565b9093506020813d602011610fbc575b81610fac602093836122f6565b810103126103bc57519284610f27565b3d9150610f9f565b60405162461bcd60e51b815260206004820152600c60248201526b159bdd1a5b99c8195b99195960a21b6044820152606490fd5b60405162461bcd60e51b815260206004820152600d60248201526c105b1c9958591e481d9bdd1959609a1b6044820152606490fd5b611046915060203d602011610c4d57610c3f81836122f6565b86610ac1565b346103bc5760403660031901126103bc576004355f5260fe60205260405f206024355f52602052602060ff60405f2054166040519015158152f35b346103bc5760403660031901126103bc576001600160a01b036110a86122ca565b165f5261010660205260405f206024355f52602052602060405f2054604051908152f35b346103bc5760203660031901126103bc576110e56122ca565b6110ed6127e6565b61010780546001600160a01b0319166001600160a01b0392909216919091179055005b346103bc5760203660031901126103bc576111296122ca565b6111316127e6565b60fb80546001600160a01b0319166001600160a01b0392909216919091179055005b346103bc575f3660031901126103bc577f00000000000000000000000000000000000000000000000000000000000000006001600160a01b031630036111aa5760206040515f5160206129625f395f51905f528152f35b60405162461bcd60e51b815260206004820152603860248201527f555550535570677261646561626c653a206d757374206e6f742062652063616c60448201527f6c6564207468726f7567682064656c656761746563616c6c00000000000000006064820152608490fd5b60403660031901126103bc576112296122ca565b60243567ffffffffffffffff81116103bc57366023820112156103bc57806004013561125481612318565b9061126260405192836122f6565b808252602082019236602483830101116103bc57815f926024602093018637830101526112dc7f00000000000000000000000000000000000000000000000000000000000000006001600160a01b03166112be30821415612426565b5f5160206129625f395f51905f52546001600160a01b031614612487565b6112e46127e6565b7f4910fdfa16fed3260ed0e7147f7cc6da11a60208b5b9406d12a635614ffd91435460ff161561131957505061046290612886565b6040516352d1902d60e01b81526001600160a01b03841690602081600481855afa5f9181611539575b506113a35760405162461bcd60e51b815260206004820152602e60248201527f45524331393637557067726164653a206e657720696d706c656d656e7461746960448201526d6f6e206973206e6f74205555505360901b6064820152608490fd5b5f5160206129625f395f51905f52036114e2576113bf84612886565b604051907fbc7cd75a20ee27fd9adebab32041f755214dbc6bffa90cc0225b39da2e5c2d3b5f80a28151158015906114da575b6113f857005b833b156114895750610462925f92839251915af43d15611482573d61141c81612318565b9061142a60405192836122f6565b81523d5f602083013e5b604051916114436060846122f6565b602783527f416464726573733a206c6f772d6c6576656c2064656c65676174652063616c6c6020840152660819985a5b195960ca1b604084015261291d565b6060611434565b62461bcd60e51b815260206004820152602660248201527f416464726573733a2064656c65676174652063616c6c20746f206e6f6e2d636f6044820152651b9d1c9858dd60d21b6064820152608490fd5b5060016113f2565b60405162461bcd60e51b815260206004820152602960248201527f45524331393637557067726164653a20756e737570706f727465642070726f786044820152681a58589b195555525160ba1b6064820152608490fd5b9091506020813d602011611565575b81611555602093836122f6565b810103126103bc57519086611342565b3d9150611548565b346103bc5760403660031901126103bc576115866122ca565b61158e6122e0565b5f549060ff8260081c1615918280936116fb575b80156116e4575b156116885760ff1981166001175f5582611677575b506115d860ff5f5460081c166115d381612786565b612786565b6115e13361283e565b5f549261160060ff8560081c166115f781612786565b6115d381612786565b600160c95560018060a01b03166001600160601b0360a01b60fb54161760fb5560018060a01b03166001600160601b0360a01b6101075416176101075561164357005b61ff0019165f557f7f26b83ff96e1f2b6a682f133852f6798a09c465da95921460cefb3847402498602060405160018152a1005b61ffff1916610101175f55836115be565b60405162461bcd60e51b815260206004820152602e60248201527f496e697469616c697a61626c653a20636f6e747261637420697320616c72656160448201526d191e481a5b9a5d1a585b1a5e995960921b6064820152608490fd5b50303b1580156115a95750600160ff8216146115a9565b50600160ff8216106115a2565b346103bc5760403660031901126103bc576004356117246122e0565b611733600260c9541415612551565b600260c95560fb546001600160a01b031691338390036118b557602060249360405194858092636f08bc8760e11b82528560048301525afa92831561060c575f93611881575b505f5b6101035481101561187a576117908161238e565b905460039190911b1c6001600160a01b0316906117ad838361264f565b806117be575b50600191500161177c565b611849836020925f95865261010684526040862087875284528560408120558186526101018452670de0b6b3a76400006117fc60408820548b61253e565b838852610105865260408089208a8a528752808920929091049091555163a9059cbb60e01b81526001600160a01b0389166004820152602481019190915294859283919082906044820190565b03925af191821561060c57600192156117b3576118739060203d81116109655761095881836122f6565b50856117b3565b600160c955005b9092506020813d6020116118ad575b8161189d602093836122f6565b810103126103bc57519183611779565b3d9150611890565b606460405162461bcd60e51b815260206004820152602060248201527f4f6e6c79204e465420636f6e74726163742063616e206175746f2d73776565706044820152fd5b346103bc5760403660031901126103bc576119126122ca565b602435611924600260c9541415612551565b600260c95560fb546040516331a9108f60e11b8152600481018390526001600160a01b039091169190602081602481865afa801561060c57611977915f91611ae457506001600160a01b031633146125bc565b611981818461264f565b928315611aab57602060249360405194858092636f08bc8760e11b82528660048301525afa92831561060c575f93611a75575b50915f93611a4192670de0b6b3a76400006119fe60209660018060a01b031694858952610106885260408920848a528852886040812055858952610101885260408920549061253e565b8488526101058752604080892093895292875282882091900490555163a9059cbb60e01b8152336004820152602481019190915293849283919082906044820190565b03925af1801561060c57611a5657600160c955005b611a6e9060203d6020116109655761095881836122f6565b508061187a565b9192506020823d602011611aa3575b81611a91602093836122f6565b810103126103bc57905191905f6119b4565b3d9150611a84565b60405162461bcd60e51b8152602060048201526011602482015270139bc8191a5d9a59195b991cc81bddd959607a1b6044820152606490fd5b611afd915060203d602011610c4d57610c3f81836122f6565b85610ac1565b346103bc5760203660031901126103bc5760fb54600435906024906020906001600160a01b0316611b353382146124e8565b60405192838092636f08bc8760e11b82528660048301525afa90811561060c575f91611bc3575b505f5b610103548110156104625780611b7660019261238e565b838060a01b0391549060031b1c16805f52610101602052670de0b6b3a7640000611ba460405f20548661253e565b04905f5261010560205260405f20855f5260205260405f205501611b5f565b90506020813d602011611bed575b81611bde602093836122f6565b810103126103bc575182611b5c565b3d9150611bd1565b346103bc5760203660031901126103bc57611c0e6122ca565b611c477f00000000000000000000000000000000000000000000000000000000000000006001600160a01b03166112be30821415612426565b611c4f6127e6565b602090604051611c5f83826122f6565b5f815282810190601f1984013683377f4910fdfa16fed3260ed0e7147f7cc6da11a60208b5b9406d12a635614ffd91435460ff1615611ca45750506104629150612886565b6040516352d1902d60e01b81526001600160a01b038416908581600481855afa5f9181611ec2575b50611d2d5760405162461bcd60e51b815260048101879052602e60248201527f45524331393637557067726164653a206e657720696d706c656d656e7461746960448201526d6f6e206973206e6f74205555505360901b6064820152608490fd5b5f5160206129625f395f51905f5203611e6b57611d4984612886565b604051907fbc7cd75a20ee27fd9adebab32041f755214dbc6bffa90cc0225b39da2e5c2d3b5f80a2815115801590611e64575b611d8257005b833b15611e13575061046293925f92839251915af43d15611e0b573d90611da882612318565b91611db660405193846122f6565b82523d5f8484013e5b7f416464726573733a206c6f772d6c6576656c2064656c65676174652063616c6c60405193611def6060866122f6565b60278552840152660819985a5b195960ca1b604084015261291d565b606090611dbf565b62461bcd60e51b815260048101859052602660248201527f416464726573733a2064656c65676174652063616c6c20746f206e6f6e2d636f6044820152651b9d1c9858dd60d21b6064820152608490fd5b505f611d7c565b60405162461bcd60e51b815260048101869052602960248201527f45524331393637557067726164653a20756e737570706f727465642070726f786044820152681a58589b195555525160ba1b6064820152608490fd5b9091508681813d8311611eea575b611eda81836122f6565b810103126103bc57519087611ccc565b503d611ed0565b346103bc5760803660031901126103bc57611f0a6122ca565b50611f136122e0565b5060643567ffffffffffffffff81116103bc57366023820112156103bc57806004013567ffffffffffffffff81116103bc57369101602401116103bc57604051630a85bd0160e11b8152602090f35b346103bc5760203660031901126103bc576004355f5260fc60205260405f206004602060018060a01b0360fb54166040519283809263aed96b5960e01b82525afa90811561060c575f9161222b575b5060011c600181018091116103c057600382015442109081159161221c575b50156121c55760048101805460ff811661218d5760019060ff19161790556001810154600282015410611fff57005b805460ff8160a01c1680809161216a575b1561204957505080546001600160a01b039081165f90815261010060205260409020805460ff19166001179055905461046291166123d7565b1580612148575b61205657005b6001600160a01b03165f90815261010060205260408120805460ff191690555b60ff54808210156104625761208a82612376565b9054845460039290921b1c6001600160a01b039081169116146120b05750600101612076565b5f198101925082116103c0576120e36120cb61210793612376565b905460039190911b1c6001600160a01b031691612376565b81546001600160a01b0393841660039290921b91821b9390911b1916919091179055565b60ff548015612134575f190161211c81612376565b81549060018060a01b039060031b1b1916905560ff55005b634e487b7160e01b5f52603160045260245ffd5b506001600160a01b0381165f908152610100602052604090205460ff16612050565b506001600160a01b0382165f908152610100602052604090205460ff1615612010565b60405162461bcd60e51b815260206004820152601060248201526f105b1c9958591e48195e1958dd5d195960821b6044820152606490fd5b60405162461bcd60e51b815260206004820152602960248201527f566f74696e67206e6f7420656e64656420616e64206e6f206162736f6c757465604482015268206d616a6f7269747960b81b6064820152608490fd5b90506001820154101582611fd0565b90506020813d602011612255575b81612246602093836122f6565b810103126103bc575182611fb1565b3d9150612239565b346103bc5760203660031901126103bc5760c0906004355f5260fc60205260405f20805490600181015460028201549060ff8060046003860154950154169460018060a01b038116875260a01c1615156020860152604085015260608401526080830152151560a0820152f35b600435906001600160a01b03821682036103bc57565b602435906001600160a01b03821682036103bc57565b90601f8019910116810190811067ffffffffffffffff821117610bdf57604052565b67ffffffffffffffff8111610bdf57601f01601f191660200190565b60206040818301928281528451809452019201905f5b8181106123575750505090565b82516001600160a01b031684526020938401939092019160010161234a565b60ff548110156104155760ff5f5260205f2001905f90565b61010354811015610415576101035f5260205f2001905f90565b8054821015610415575f5260205f2001905f90565b919082018092116103c057565b919082039182116103c057565b60ff5490600160401b821015610bdf576120e38260016123fc940160ff5560ff6123a8565b565b6101035490600160401b821015610bdf576120e38260016123fc9401610103556101036123a8565b1561242d57565b60405162461bcd60e51b815260206004820152602c60248201527f46756e6374696f6e206d7573742062652063616c6c6564207468726f7567682060448201526b19195b1959d85d1958d85b1b60a21b6064820152608490fd5b1561248e57565b60405162461bcd60e51b815260206004820152602c60248201527f46756e6374696f6e206d7573742062652063616c6c6564207468726f7567682060448201526b6163746976652070726f787960a01b6064820152608490fd5b156124ef57565b60405162461bcd60e51b815260206004820152602160248201527f4f6e6c79204e465420636f6e74726163742063616e20757064617465206465626044820152601d60fa1b6064820152608490fd5b818102929181159184041417156103c057565b1561255857565b60405162461bcd60e51b815260206004820152601f60248201527f5265656e7472616e637947756172643a207265656e7472616e742063616c6c006044820152606490fd5b908160209103126103bc57516001600160a01b03811681036103bc5790565b156125c357565b60405162461bcd60e51b815260206004820152600f60248201526e2737ba103a37b5b2b71037bbb732b960891b6044820152606490fd5b908160209103126103bc575180151581036103bc5790565b1561261957565b60405162461bcd60e51b815260206004820152600e60248201526d27379039b430b932903837bbb2b960911b6044820152606490fd5b60fb54604051636f08bc8760e11b8152600481018490529190602090839060249082906001600160a01b03165afa91821561060c575f9261270f575b506001600160a01b03165f81815261010160205260409020549091670de0b6b3a7640000916126b99161253e565b0491815f5261010560205260405f20815f5260205260405f2054915f5261010660205260405f20905f5260205260405f2054918181116126f857505090565b61270c9291612706916123ca565b906123bd565b90565b9091506020813d60201161273d575b8161272b602093836122f6565b810103126103bc5751906126b961268b565b3d915061271e565b8051156104155760200190565b8051600110156104155760400190565b805180835260209291819084018484015e5f828201840152601f01601f1916010190565b1561278d57565b60405162461bcd60e51b815260206004820152602b60248201527f496e697469616c697a61626c653a20636f6e7472616374206973206e6f74206960448201526a6e697469616c697a696e6760a81b6064820152608490fd5b6097546001600160a01b031633036127fa57565b606460405162461bcd60e51b815260206004820152602060248201527f4f776e61626c653a2063616c6c6572206973206e6f7420746865206f776e65726044820152fd5b609780546001600160a01b039283166001600160a01b0319821681179092559091167f8be0079c531659141344cd1fd0a4f28419497f9722a3daafe3b4186f6b6457e05f80a3565b803b156128c25760018060a01b03166001600160601b0360a01b5f5160206129625f395f51905f525416175f5160206129625f395f51905f5255565b60405162461bcd60e51b815260206004820152602d60248201527f455243313936373a206e657720696d706c656d656e746174696f6e206973206e60448201526c1bdd08184818dbdb9d1c9858dd609a1b6064820152608490fd5b90919015612929575090565b8151156129395750805190602001fd5b60405162461bcd60e51b81526020600482015290819061295d906024830190612762565b0390fdfe360894a13ba1a3210667c828492db98dca3e2076cc3735a920a3ca505d382bbca264697066735822122018d64949aecc62b0f267399236d5cd1d85f43f79a05b91afcf3714763a0fbb9d64736f6c634300081b0033",
          "opcodes": "PUSH1 0xA0 DUP1 PUSH1 0x40 MSTORE CALLVALUE PUSH2 0xDA JUMPI ADDRESS PUSH1 0x80 MSTORE PUSH0 SLOAD SWAP1 PUSH1 0xFF DUP3 PUSH1 0x8 SHR AND PUSH2 0x88 JUMPI POP PUSH1 0xFF DUP1 DUP3 AND LT PUSH2 0x4E JUMPI JUMPDEST PUSH1 0x40 MLOAD PUSH2 0x29B7 SWAP1 DUP2 PUSH2 0xDF DUP3 CODECOPY PUSH1 0x80 MLOAD DUP2 DUP2 DUP2 PUSH2 0x1165 ADD MSTORE DUP2 DUP2 PUSH2 0x128A ADD MSTORE PUSH2 0x1C13 ADD MSTORE RETURN JUMPDEST PUSH1 0xFF SWAP1 DUP2 NOT AND OR PUSH0 SSTORE PUSH32 0x7F26B83FF96E1F2B6A682F133852F6798A09C465DA95921460CEFB3847402498 PUSH1 0x20 PUSH1 0x40 MLOAD PUSH1 0xFF DUP2 MSTORE LOG1 PUSH0 PUSH2 0x28 JUMP JUMPDEST PUSH3 0x461BCD PUSH1 0xE5 SHL DUP2 MSTORE PUSH1 0x20 PUSH1 0x4 DUP3 ADD MSTORE PUSH1 0x27 PUSH1 0x24 DUP3 ADD MSTORE PUSH32 0x496E697469616C697A61626C653A20636F6E747261637420697320696E697469 PUSH1 0x44 DUP3 ADD MSTORE PUSH7 0x616C697A696E67 PUSH1 0xC8 SHL PUSH1 0x64 DUP3 ADD MSTORE PUSH1 0x84 SWAP1 REVERT JUMPDEST PUSH0 DUP1 REVERT INVALID PUSH1 0x80 DUP1 PUSH1 0x40 MSTORE PUSH1 0x4 CALLDATASIZE LT ISZERO PUSH2 0x12 JUMPI PUSH0 DUP1 REVERT JUMPDEST PUSH0 SWAP1 PUSH0 CALLDATALOAD PUSH1 0xE0 SHR SWAP1 DUP2 PUSH4 0x13CF08B EQ PUSH2 0x225D JUMPI POP DUP1 PUSH4 0xD61B519 EQ PUSH2 0x1F62 JUMPI DUP1 PUSH4 0x150B7A02 EQ PUSH2 0x1EF1 JUMPI DUP1 PUSH4 0x3659CFE6 EQ PUSH2 0x1BF5 JUMPI DUP1 PUSH4 0x3F71573E EQ PUSH2 0x1B03 JUMPI DUP1 PUSH4 0x43E9585F EQ PUSH2 0x18F9 JUMPI DUP1 PUSH4 0x4443B69D EQ PUSH2 0x1708 JUMPI DUP1 PUSH4 0x485CC955 EQ PUSH2 0x156D JUMPI DUP1 PUSH4 0x4F1EF286 EQ PUSH2 0x1215 JUMPI DUP1 PUSH4 0x52D1902D EQ PUSH2 0x1153 JUMPI DUP1 PUSH4 0x52F5AD77 EQ PUSH2 0x1110 JUMPI DUP1 PUSH4 0x5760F2E3 EQ PUSH2 0x10CC JUMPI DUP1 PUSH4 0x5C3BDD88 EQ PUSH2 0x1087 JUMPI DUP1 PUSH4 0x64390FF1 EQ PUSH2 0x104C JUMPI DUP1 PUSH4 0x6A18FF7A EQ PUSH2 0xE55 JUMPI DUP1 PUSH4 0x715018A6 EQ PUSH2 0xDFA JUMPI DUP1 PUSH4 0x745890F6 EQ PUSH2 0xD7D JUMPI DUP1 PUSH4 0x791B98BC EQ PUSH2 0xD54 JUMPI DUP1 PUSH4 0x7BB7BED1 EQ PUSH2 0xD2A JUMPI DUP1 PUSH4 0x88DF1E9B EQ PUSH2 0xCE3 JUMPI DUP1 PUSH4 0x8DA5CB5B EQ PUSH2 0xCBB JUMPI DUP1 PUSH4 0xA566F3AC EQ PUSH2 0xC54 JUMPI DUP1 PUSH4 0xB1276169 EQ PUSH2 0xA56 JUMPI DUP1 PUSH4 0xB5FD73F8 EQ PUSH2 0xA18 JUMPI DUP1 PUSH4 0xBD4BA9C0 EQ PUSH2 0x818 JUMPI DUP1 PUSH4 0xC244F68C EQ PUSH2 0x7DA JUMPI DUP1 PUSH4 0xC4F59F9B EQ PUSH2 0x74B JUMPI DUP1 PUSH4 0xCC738AC3 EQ PUSH2 0x712 JUMPI DUP1 PUSH4 0xD2B91BD1 EQ PUSH2 0x6E3 JUMPI DUP1 PUSH4 0xD56D229D EQ PUSH2 0x6BB JUMPI DUP1 PUSH4 0xDA35C664 EQ PUSH2 0x69E JUMPI DUP1 PUSH4 0xE18E6306 EQ PUSH2 0x65C JUMPI DUP1 PUSH4 0xE2D076C9 EQ PUSH2 0x617 JUMPI DUP1 PUSH4 0xEC3D3C31 EQ PUSH2 0x4B8 JUMPI DUP1 PUSH4 0xF2FDE38B EQ PUSH2 0x429 JUMPI PUSH4 0xFB0132D3 EQ PUSH2 0x1AA JUMPI PUSH0 DUP1 REVERT JUMPDEST CALLVALUE PUSH2 0x3BC JUMPI PUSH1 0x60 CALLDATASIZE PUSH1 0x3 NOT ADD SLT PUSH2 0x3BC JUMPI PUSH2 0x1C3 PUSH2 0x22E0 JUMP JUMPDEST PUSH1 0x44 CALLDATALOAD PUSH1 0x1 PUSH1 0x1 PUSH1 0xA0 SHL SUB DUP2 AND SWAP1 DUP2 SWAP1 SUB PUSH2 0x3BC JUMPI PUSH2 0x1E7 PUSH1 0x2 PUSH1 0xC9 SLOAD EQ ISZERO PUSH2 0x2551 JUMP JUMPDEST PUSH1 0x2 PUSH1 0xC9 SSTORE PUSH2 0x1F4 PUSH2 0x27E6 JUMP JUMPDEST PUSH1 0x40 SWAP1 DUP2 MLOAD SWAP1 PUSH2 0x204 DUP4 DUP4 PUSH2 0x22F6 JUMP JUMPDEST PUSH1 0x2 DUP3 MSTORE PUSH1 0x20 DUP3 ADD PUSH1 0x1F NOT DUP5 ADD CALLDATASIZE DUP3 CALLDATACOPY DUP3 MLOAD ISZERO PUSH2 0x415 JUMPI PUSH1 0x1 SWAP1 MSTORE8 DUP2 MLOAD PUSH1 0x1 LT ISZERO PUSH2 0x415 JUMPI PUSH1 0x11 PUSH1 0x21 DUP4 SWAP6 SWAP4 ADD MSTORE8 PUSH1 0x60 SWAP2 DUP4 MLOAD SWAP2 PUSH2 0x242 DUP5 DUP5 PUSH2 0x22F6 JUMP JUMPDEST PUSH1 0x2 DUP4 MSTORE PUSH1 0x1F NOT DUP5 ADD PUSH0 JUMPDEST DUP2 DUP2 LT PUSH2 0x405 JUMPI POP POP DUP5 MLOAD PUSH1 0x4 CALLDATALOAD PUSH1 0x20 DUP3 ADD MSTORE PUSH0 DUP7 DUP3 ADD MSTORE PUSH0 DUP6 DUP3 ADD MSTORE PUSH0 PUSH1 0x80 DUP3 ADD MSTORE PUSH1 0xA0 DUP1 DUP3 ADD MSTORE PUSH0 PUSH1 0xC0 DUP3 ADD MSTORE PUSH1 0xC0 DUP2 MSTORE PUSH2 0x28B PUSH1 0xE0 DUP3 PUSH2 0x22F6 JUMP JUMPDEST PUSH2 0x294 DUP5 PUSH2 0x2745 JUMP JUMPDEST MSTORE PUSH2 0x29E DUP4 PUSH2 0x2745 JUMP JUMPDEST POP DUP5 MLOAD PUSH1 0x1 PUSH1 0x1 PUSH1 0xA0 SHL SUB SWAP1 SWAP3 AND PUSH1 0x20 DUP4 ADD MSTORE DUP2 DUP6 ADD MSTORE ADDRESS DUP4 DUP3 ADD MSTORE DUP3 DUP2 MSTORE PUSH2 0x2C8 PUSH1 0x80 DUP3 PUSH2 0x22F6 JUMP JUMPDEST PUSH2 0x2D1 DUP3 PUSH2 0x2752 JUMP JUMPDEST MSTORE PUSH2 0x2DB DUP2 PUSH2 0x2752 JUMP JUMPDEST POP PUSH1 0x1 DUP1 PUSH1 0xA0 SHL SUB PUSH2 0x107 SLOAD AND SWAP2 PUSH2 0x2FF DUP5 MLOAD SWAP6 DUP7 SWAP3 DUP7 PUSH1 0x20 DUP6 ADD MSTORE DUP4 ADD SWAP1 PUSH2 0x2762 JUMP JUMPDEST SWAP2 PUSH1 0x1F NOT DUP3 DUP5 SUB ADD DUP6 DUP4 ADD MSTORE DUP1 MLOAD DUP1 DUP5 MSTORE PUSH1 0x20 DUP5 ADD SWAP4 PUSH1 0x20 DUP1 DUP4 PUSH1 0x5 SHL DUP4 ADD ADD SWAP4 ADD SWAP5 PUSH0 SWAP2 JUMPDEST DUP4 DUP4 LT PUSH2 0x3D4 JUMPI POP POP POP POP PUSH2 0x343 SWAP3 POP SUB PUSH1 0x1F NOT DUP2 ADD DUP6 MSTORE DUP5 PUSH2 0x22F6 JUMP JUMPDEST PUSH2 0x12C TIMESTAMP ADD SWAP3 DUP4 TIMESTAMP GT PUSH2 0x3C0 JUMPI DUP2 EXTCODESIZE ISZERO PUSH2 0x3BC JUMPI PUSH0 SWAP2 PUSH2 0x380 SWAP2 DUP4 DUP6 MLOAD DUP1 SWAP8 DUP2 SWAP6 DUP3 SWAP5 PUSH4 0xDD46508F PUSH1 0xE0 SHL DUP5 MSTORE DUP10 PUSH1 0x4 DUP6 ADD MSTORE PUSH1 0x44 DUP5 ADD SWAP1 PUSH2 0x2762 JUMP JUMPDEST SWAP1 PUSH1 0x24 DUP4 ADD MSTORE SUB SWAP3 GAS CALL SWAP1 DUP2 ISZERO PUSH2 0x3B3 JUMPI POP PUSH2 0x3A0 JUMPI JUMPDEST POP PUSH1 0x1 PUSH1 0xC9 SSTORE DUP1 RETURN JUMPDEST PUSH2 0x3AC SWAP2 POP PUSH0 SWAP1 PUSH2 0x22F6 JUMP JUMPDEST PUSH0 PUSH0 PUSH2 0x397 JUMP JUMPDEST MLOAD RETURNDATASIZE PUSH0 DUP3 RETURNDATACOPY RETURNDATASIZE SWAP1 REVERT JUMPDEST PUSH0 DUP1 REVERT JUMPDEST PUSH4 0x4E487B71 PUSH1 0xE0 SHL PUSH0 MSTORE PUSH1 0x11 PUSH1 0x4 MSTORE PUSH1 0x24 PUSH0 REVERT JUMPDEST SWAP2 SWAP4 PUSH1 0x1 SWAP2 SWAP4 SWAP6 POP PUSH1 0x20 PUSH2 0x3F3 DUP2 SWAP3 PUSH1 0x1F NOT DUP7 DUP3 SUB ADD DUP8 MSTORE DUP10 MLOAD PUSH2 0x2762 JUMP JUMPDEST SWAP8 ADD SWAP4 ADD SWAP4 ADD SWAP1 SWAP3 DUP9 SWAP5 SWAP3 SWAP6 SWAP4 PUSH2 0x325 JUMP JUMPDEST PUSH1 0x20 DUP2 DUP7 ADD DUP2 ADD DUP8 SWAP1 MSTORE ADD PUSH2 0x24D JUMP JUMPDEST PUSH4 0x4E487B71 PUSH1 0xE0 SHL PUSH0 MSTORE PUSH1 0x32 PUSH1 0x4 MSTORE PUSH1 0x24 PUSH0 REVERT JUMPDEST CALLVALUE PUSH2 0x3BC JUMPI PUSH1 0x20 CALLDATASIZE PUSH1 0x3 NOT ADD SLT PUSH2 0x3BC JUMPI PUSH2 0x442 PUSH2 0x22CA JUMP JUMPDEST PUSH2 0x44A PUSH2 0x27E6 JUMP JUMPDEST PUSH1 0x1 PUSH1 0x1 PUSH1 0xA0 SHL SUB DUP2 AND ISZERO PUSH2 0x464 JUMPI PUSH2 0x462 SWAP1 PUSH2 0x283E JUMP JUMPDEST STOP JUMPDEST PUSH1 0x40 MLOAD PUSH3 0x461BCD PUSH1 0xE5 SHL DUP2 MSTORE PUSH1 0x20 PUSH1 0x4 DUP3 ADD MSTORE PUSH1 0x26 PUSH1 0x24 DUP3 ADD MSTORE PUSH32 0x4F776E61626C653A206E6577206F776E657220697320746865207A65726F2061 PUSH1 0x44 DUP3 ADD MSTORE PUSH6 0x646472657373 PUSH1 0xD0 SHL PUSH1 0x64 DUP3 ADD MSTORE PUSH1 0x84 SWAP1 REVERT JUMPDEST CALLVALUE PUSH2 0x3BC JUMPI PUSH1 0x20 CALLDATASIZE PUSH1 0x3 NOT ADD SLT PUSH2 0x3BC JUMPI PUSH1 0xFB SLOAD PUSH1 0x4 CALLDATALOAD SWAP1 PUSH1 0x24 SWAP1 PUSH1 0x20 SWAP1 PUSH1 0x1 PUSH1 0x1 PUSH1 0xA0 SHL SUB AND PUSH2 0x4EA CALLER DUP3 EQ PUSH2 0x24E8 JUMP JUMPDEST PUSH1 0x40 MLOAD SWAP3 DUP4 DUP1 SWAP3 PUSH4 0x6F08BC87 PUSH1 0xE1 SHL DUP3 MSTORE DUP7 PUSH1 0x4 DUP4 ADD MSTORE GAS STATICCALL SWAP1 DUP2 ISZERO PUSH2 0x60C JUMPI PUSH0 SWAP2 PUSH2 0x5DA JUMPI JUMPDEST POP PUSH0 JUMPDEST PUSH2 0x103 SLOAD DUP2 LT ISZERO PUSH2 0x462 JUMPI DUP1 PUSH2 0x52B PUSH1 0x1 SWAP3 PUSH2 0x238E JUMP JUMPDEST DUP4 DUP1 PUSH1 0xA0 SHL SUB SWAP2 SLOAD SWAP1 PUSH1 0x3 SHL SHR AND DUP1 PUSH0 MSTORE PUSH2 0x101 PUSH1 0x20 MSTORE PUSH8 0xDE0B6B3A7640000 PUSH2 0x587 PUSH1 0x40 PUSH0 KECCAK256 SLOAD DUP3 PUSH2 0x55E DUP3 DUP10 PUSH2 0x253E JUMP JUMPDEST DIV DUP5 PUSH0 MSTORE PUSH2 0x105 PUSH1 0x20 MSTORE PUSH1 0x40 PUSH0 KECCAK256 DUP10 PUSH0 MSTORE PUSH1 0x20 MSTORE PUSH1 0x40 PUSH0 KECCAK256 SLOAD DUP1 DUP3 GT PUSH2 0x5A6 JUMPI JUMPDEST POP POP DUP7 PUSH2 0x253E JUMP JUMPDEST DIV SWAP1 PUSH0 MSTORE PUSH2 0x105 PUSH1 0x20 MSTORE PUSH1 0x40 PUSH0 KECCAK256 DUP6 PUSH0 MSTORE PUSH1 0x20 MSTORE PUSH1 0x40 PUSH0 KECCAK256 SSTORE ADD PUSH2 0x514 JUMP JUMPDEST PUSH2 0x5AF SWAP2 PUSH2 0x23CA JUMP JUMPDEST DUP5 PUSH0 MSTORE PUSH2 0x106 PUSH1 0x20 MSTORE PUSH1 0x40 PUSH0 KECCAK256 DUP10 PUSH0 MSTORE PUSH1 0x20 MSTORE PUSH2 0x5D1 PUSH1 0x40 PUSH0 KECCAK256 SWAP2 DUP3 SLOAD PUSH2 0x23BD JUMP JUMPDEST SWAP1 SSTORE DUP9 DUP1 PUSH2 0x57F JUMP JUMPDEST SWAP1 POP PUSH1 0x20 DUP2 RETURNDATASIZE PUSH1 0x20 GT PUSH2 0x604 JUMPI JUMPDEST DUP2 PUSH2 0x5F5 PUSH1 0x20 SWAP4 DUP4 PUSH2 0x22F6 JUMP JUMPDEST DUP2 ADD SUB SLT PUSH2 0x3BC JUMPI MLOAD DUP3 PUSH2 0x511 JUMP JUMPDEST RETURNDATASIZE SWAP2 POP PUSH2 0x5E8 JUMP JUMPDEST PUSH1 0x40 MLOAD RETURNDATASIZE PUSH0 DUP3 RETURNDATACOPY RETURNDATASIZE SWAP1 REVERT JUMPDEST CALLVALUE PUSH2 0x3BC JUMPI PUSH1 0x40 CALLDATASIZE PUSH1 0x3 NOT ADD SLT PUSH2 0x3BC JUMPI PUSH1 0x1 PUSH1 0x1 PUSH1 0xA0 SHL SUB PUSH2 0x638 PUSH2 0x22CA JUMP JUMPDEST AND PUSH0 MSTORE PUSH2 0x105 PUSH1 0x20 MSTORE PUSH1 0x40 PUSH0 KECCAK256 PUSH1 0x24 CALLDATALOAD PUSH0 MSTORE PUSH1 0x20 MSTORE PUSH1 0x20 PUSH1 0x40 PUSH0 KECCAK256 SLOAD PUSH1 0x40 MLOAD SWAP1 DUP2 MSTORE RETURN JUMPDEST CALLVALUE PUSH2 0x3BC JUMPI PUSH1 0x20 CALLDATASIZE PUSH1 0x3 NOT ADD SLT PUSH2 0x3BC JUMPI PUSH1 0x4 CALLDATALOAD PUSH1 0xFF SLOAD DUP2 LT ISZERO PUSH2 0x3BC JUMPI PUSH2 0x685 PUSH1 0x20 SWAP2 PUSH2 0x2376 JUMP JUMPDEST SWAP1 SLOAD PUSH1 0x40 MLOAD PUSH1 0x3 SWAP3 SWAP1 SWAP3 SHL SHR PUSH1 0x1 PUSH1 0x1 PUSH1 0xA0 SHL SUB AND DUP2 MSTORE RETURN JUMPDEST CALLVALUE PUSH2 0x3BC JUMPI PUSH0 CALLDATASIZE PUSH1 0x3 NOT ADD SLT PUSH2 0x3BC JUMPI PUSH1 0x20 PUSH1 0xFD SLOAD PUSH1 0x40 MLOAD SWAP1 DUP2 MSTORE RETURN JUMPDEST CALLVALUE PUSH2 0x3BC JUMPI PUSH0 CALLDATASIZE PUSH1 0x3 NOT ADD SLT PUSH2 0x3BC JUMPI PUSH1 0xFB SLOAD PUSH1 0x40 MLOAD PUSH1 0x1 PUSH1 0x1 PUSH1 0xA0 SHL SUB SWAP1 SWAP2 AND DUP2 MSTORE PUSH1 0x20 SWAP1 RETURN JUMPDEST CALLVALUE PUSH2 0x3BC JUMPI PUSH1 0x40 CALLDATASIZE PUSH1 0x3 NOT ADD SLT PUSH2 0x3BC JUMPI PUSH1 0x20 PUSH2 0x70A PUSH2 0x701 PUSH2 0x22CA JUMP JUMPDEST PUSH1 0x24 CALLDATALOAD SWAP1 PUSH2 0x264F JUMP JUMPDEST PUSH1 0x40 MLOAD SWAP1 DUP2 MSTORE RETURN JUMPDEST CALLVALUE PUSH2 0x3BC JUMPI PUSH1 0x20 CALLDATASIZE PUSH1 0x3 NOT ADD SLT PUSH2 0x3BC JUMPI PUSH1 0x1 PUSH1 0x1 PUSH1 0xA0 SHL SUB PUSH2 0x733 PUSH2 0x22CA JUMP JUMPDEST AND PUSH0 MSTORE PUSH2 0x101 PUSH1 0x20 MSTORE PUSH1 0x20 PUSH1 0x40 PUSH0 KECCAK256 SLOAD PUSH1 0x40 MLOAD SWAP1 DUP2 MSTORE RETURN JUMPDEST CALLVALUE PUSH2 0x3BC JUMPI PUSH0 CALLDATASIZE PUSH1 0x3 NOT ADD SLT PUSH2 0x3BC JUMPI PUSH1 0x40 MLOAD DUP1 PUSH1 0x20 PUSH2 0x103 SLOAD SWAP2 DUP3 DUP2 MSTORE ADD SWAP1 PUSH2 0x103 PUSH0 MSTORE PUSH32 0x2C297AB74AAD0AEDE3A1895C857B1F2C71E6A203FEB727BEC95AC752998CB78 SWAP1 PUSH0 JUMPDEST DUP2 DUP2 LT PUSH2 0x7BB JUMPI PUSH2 0x7B7 DUP6 PUSH2 0x7AB DUP2 DUP8 SUB DUP3 PUSH2 0x22F6 JUMP JUMPDEST PUSH1 0x40 MLOAD SWAP2 DUP3 SWAP2 DUP3 PUSH2 0x2334 JUMP JUMPDEST SUB SWAP1 RETURN JUMPDEST DUP3 SLOAD PUSH1 0x1 PUSH1 0x1 PUSH1 0xA0 SHL SUB AND DUP5 MSTORE PUSH1 0x20 SWAP1 SWAP4 ADD SWAP3 PUSH1 0x1 SWAP3 DUP4 ADD SWAP3 ADD PUSH2 0x794 JUMP JUMPDEST CALLVALUE PUSH2 0x3BC JUMPI PUSH1 0x20 CALLDATASIZE PUSH1 0x3 NOT ADD SLT PUSH2 0x3BC JUMPI PUSH1 0x1 PUSH1 0x1 PUSH1 0xA0 SHL SUB PUSH2 0x7FB PUSH2 0x22CA JUMP JUMPDEST AND PUSH0 MSTORE PUSH2 0x100 PUSH1 0x20 MSTORE PUSH1 0x20 PUSH1 0xFF PUSH1 0x40 PUSH0 KECCAK256 SLOAD AND PUSH1 0x40 MLOAD SWAP1 ISZERO ISZERO DUP2 MSTORE RETURN JUMPDEST CALLVALUE PUSH2 0x3BC JUMPI PUSH1 0x40 CALLDATASIZE PUSH1 0x3 NOT ADD SLT PUSH2 0x3BC JUMPI PUSH2 0x831 PUSH2 0x22CA JUMP JUMPDEST PUSH1 0x1 PUSH1 0x1 PUSH1 0xA0 SHL SUB DUP2 AND PUSH0 DUP2 DUP2 MSTORE PUSH2 0x100 PUSH1 0x20 MSTORE PUSH1 0x40 SWAP1 KECCAK256 SLOAD SWAP1 SWAP2 SWAP1 PUSH1 0x24 CALLDATALOAD SWAP1 PUSH1 0xFF AND ISZERO PUSH2 0x9DD JUMPI PUSH1 0xFB SLOAD PUSH1 0x40 MLOAD PUSH4 0xAED96B59 PUSH1 0xE0 SHL DUP2 MSTORE SWAP2 SWAP1 PUSH1 0x20 SWAP1 DUP4 SWAP1 PUSH1 0x4 SWAP1 DUP3 SWAP1 PUSH1 0x1 PUSH1 0x1 PUSH1 0xA0 SHL SUB AND GAS STATICCALL SWAP2 DUP3 ISZERO PUSH2 0x60C JUMPI PUSH0 SWAP3 PUSH2 0x9A9 JUMPI JUMPDEST POP DUP2 ISZERO PUSH2 0x96C JUMPI PUSH1 0x40 MLOAD PUSH4 0x23B872DD PUSH1 0xE0 SHL DUP2 MSTORE CALLER PUSH1 0x4 DUP3 ADD MSTORE ADDRESS PUSH1 0x24 DUP3 ADD MSTORE PUSH1 0x44 DUP2 ADD DUP3 SWAP1 MSTORE PUSH1 0x20 DUP2 PUSH1 0x64 DUP2 PUSH0 DUP10 GAS CALL DUP1 ISZERO PUSH2 0x60C JUMPI PUSH2 0x93F JUMPI JUMPDEST POP PUSH8 0xDE0B6B3A7640000 DUP2 MUL SWAP1 DUP1 DUP3 DIV PUSH8 0xDE0B6B3A7640000 EQ SWAP1 ISZERO OR ISZERO PUSH2 0x3C0 JUMPI DIV DUP3 PUSH0 MSTORE PUSH2 0x101 PUSH1 0x20 MSTORE PUSH2 0x905 PUSH1 0x40 PUSH0 KECCAK256 SWAP2 DUP3 SLOAD PUSH2 0x23BD JUMP JUMPDEST SWAP1 SSTORE DUP2 PUSH0 MSTORE PUSH2 0x104 PUSH1 0x20 MSTORE PUSH1 0xFF PUSH1 0x40 PUSH0 KECCAK256 SLOAD AND ISZERO PUSH2 0x91F JUMPI STOP JUMPDEST PUSH2 0x462 SWAP2 PUSH0 MSTORE PUSH2 0x104 PUSH1 0x20 MSTORE PUSH1 0x40 PUSH0 KECCAK256 PUSH1 0x1 PUSH1 0xFF NOT DUP3 SLOAD AND OR SWAP1 SSTORE PUSH2 0x23FE JUMP JUMPDEST PUSH2 0x960 SWAP1 PUSH1 0x20 RETURNDATASIZE PUSH1 0x20 GT PUSH2 0x965 JUMPI JUMPDEST PUSH2 0x958 DUP2 DUP4 PUSH2 0x22F6 JUMP JUMPDEST DUP2 ADD SWAP1 PUSH2 0x25FA JUMP JUMPDEST PUSH2 0x8CA JUMP JUMPDEST POP RETURNDATASIZE PUSH2 0x94E JUMP JUMPDEST PUSH1 0x40 MLOAD PUSH3 0x461BCD PUSH1 0xE5 SHL DUP2 MSTORE PUSH1 0x20 PUSH1 0x4 DUP3 ADD MSTORE PUSH1 0x15 PUSH1 0x24 DUP3 ADD MSTORE PUSH21 0x4E6F20736861726520706F77657220657869737473 PUSH1 0x58 SHL PUSH1 0x44 DUP3 ADD MSTORE PUSH1 0x64 SWAP1 REVERT JUMPDEST SWAP1 SWAP2 POP PUSH1 0x20 DUP2 RETURNDATASIZE PUSH1 0x20 GT PUSH2 0x9D5 JUMPI JUMPDEST DUP2 PUSH2 0x9C5 PUSH1 0x20 SWAP4 DUP4 PUSH2 0x22F6 JUMP JUMPDEST DUP2 ADD SUB SLT PUSH2 0x3BC JUMPI MLOAD SWAP1 DUP5 PUSH2 0x88E JUMP JUMPDEST RETURNDATASIZE SWAP2 POP PUSH2 0x9B8 JUMP JUMPDEST PUSH1 0x40 MLOAD PUSH3 0x461BCD PUSH1 0xE5 SHL DUP2 MSTORE PUSH1 0x20 PUSH1 0x4 DUP3 ADD MSTORE PUSH1 0x13 PUSH1 0x24 DUP3 ADD MSTORE PUSH19 0x4E6F7420616E20617070726F76656420525741 PUSH1 0x68 SHL PUSH1 0x44 DUP3 ADD MSTORE PUSH1 0x64 SWAP1 REVERT JUMPDEST CALLVALUE PUSH2 0x3BC JUMPI PUSH1 0x20 CALLDATASIZE PUSH1 0x3 NOT ADD SLT PUSH2 0x3BC JUMPI PUSH1 0x1 PUSH1 0x1 PUSH1 0xA0 SHL SUB PUSH2 0xA39 PUSH2 0x22CA JUMP JUMPDEST AND PUSH0 MSTORE PUSH2 0x104 PUSH1 0x20 MSTORE PUSH1 0x20 PUSH1 0xFF PUSH1 0x40 PUSH0 KECCAK256 SLOAD AND PUSH1 0x40 MLOAD SWAP1 ISZERO ISZERO DUP2 MSTORE RETURN JUMPDEST CALLVALUE PUSH2 0x3BC JUMPI PUSH1 0x60 CALLDATASIZE PUSH1 0x3 NOT ADD SLT PUSH2 0x3BC JUMPI PUSH2 0xA6F PUSH2 0x22CA JUMP JUMPDEST PUSH1 0x24 CALLDATALOAD SWAP1 DUP2 ISZERO ISZERO DUP1 SWAP3 SUB PUSH2 0x3BC JUMPI PUSH1 0xFB SLOAD PUSH1 0x40 MLOAD PUSH4 0x31A9108F PUSH1 0xE1 SHL DUP2 MSTORE PUSH1 0x44 CALLDATALOAD PUSH1 0x4 DUP3 ADD DUP2 SWAP1 MSTORE PUSH1 0x1 PUSH1 0x1 PUSH1 0xA0 SHL SUB SWAP1 SWAP3 AND SWAP2 PUSH1 0x20 DUP3 PUSH1 0x24 DUP2 DUP7 GAS STATICCALL SWAP2 DUP3 ISZERO PUSH2 0x60C JUMPI PUSH1 0x20 SWAP3 PUSH2 0xAD2 SWAP2 PUSH0 SWAP2 PUSH2 0xC27 JUMPI JUMPDEST POP PUSH1 0x1 PUSH1 0x1 PUSH1 0xA0 SHL SUB AND CALLER EQ PUSH2 0x25BC JUMP JUMPDEST PUSH1 0x24 PUSH1 0x40 MLOAD DUP1 SWAP5 DUP2 SWAP4 PUSH4 0x6F08BC87 PUSH1 0xE1 SHL DUP4 MSTORE PUSH1 0x4 DUP4 ADD MSTORE GAS STATICCALL DUP1 ISZERO PUSH2 0x60C JUMPI PUSH0 SWAP1 PUSH2 0xBF3 JUMPI JUMPDEST PUSH2 0xB05 SWAP2 POP ISZERO ISZERO PUSH2 0x2612 JUMP JUMPDEST PUSH1 0xFD SLOAD PUSH0 NOT DUP2 EQ PUSH2 0x3C0 JUMPI PUSH1 0x1 ADD SWAP2 DUP3 PUSH1 0xFD SSTORE PUSH3 0x3F480 TIMESTAMP ADD DUP1 TIMESTAMP GT PUSH2 0x3C0 JUMPI PUSH1 0x40 MLOAD SWAP2 PUSH1 0xC0 DUP4 ADD SWAP4 DUP4 DUP6 LT PUSH8 0xFFFFFFFFFFFFFFFF DUP7 GT OR PUSH2 0xBDF JUMPI PUSH1 0x4 SWAP5 PUSH1 0x40 MSTORE PUSH1 0x1 DUP1 PUSH1 0xA0 SHL SUB AND DUP4 MSTORE PUSH1 0x20 DUP4 ADD SWAP1 DUP2 MSTORE PUSH1 0x40 DUP4 ADD PUSH0 DUP2 MSTORE PUSH1 0x60 DUP5 ADD SWAP2 PUSH0 DUP4 MSTORE PUSH1 0x80 DUP6 ADD SWAP4 DUP5 MSTORE PUSH1 0xA0 DUP6 ADD SWAP7 PUSH0 DUP9 MSTORE PUSH0 MSTORE PUSH1 0xFC PUSH1 0x20 MSTORE PUSH1 0x40 PUSH0 KECCAK256 SWAP5 PUSH1 0x1 DUP1 PUSH1 0xA0 SHL SUB SWAP1 MLOAD AND PUSH1 0x1 PUSH1 0x1 PUSH1 0x60 SHL SUB PUSH1 0xA0 SHL DUP7 SLOAD AND OR DUP6 SSTORE MLOAD ISZERO ISZERO DUP5 SLOAD SWAP1 PUSH1 0xFF PUSH1 0xA0 SHL SWAP1 PUSH1 0xA0 SHL AND SWAP1 PUSH1 0xFF PUSH1 0xA0 SHL NOT AND OR DUP5 SSTORE MLOAD PUSH1 0x1 DUP5 ADD SSTORE MLOAD PUSH1 0x2 DUP4 ADD SSTORE MLOAD PUSH1 0x3 DUP3 ADD SSTORE ADD SWAP1 MLOAD ISZERO ISZERO PUSH1 0xFF DUP1 NOT DUP4 SLOAD AND SWAP2 AND OR SWAP1 SSTORE PUSH0 DUP1 RETURN JUMPDEST PUSH4 0x4E487B71 PUSH1 0xE0 SHL PUSH0 MSTORE PUSH1 0x41 PUSH1 0x4 MSTORE PUSH1 0x24 PUSH0 REVERT JUMPDEST POP PUSH1 0x20 DUP2 RETURNDATASIZE PUSH1 0x20 GT PUSH2 0xC1F JUMPI JUMPDEST DUP2 PUSH2 0xC0D PUSH1 0x20 SWAP4 DUP4 PUSH2 0x22F6 JUMP JUMPDEST DUP2 ADD SUB SLT PUSH2 0x3BC JUMPI PUSH2 0xB05 SWAP1 MLOAD PUSH2 0xAF9 JUMP JUMPDEST RETURNDATASIZE SWAP2 POP PUSH2 0xC00 JUMP JUMPDEST PUSH2 0xC47 SWAP2 POP DUP5 RETURNDATASIZE DUP7 GT PUSH2 0xC4D JUMPI JUMPDEST PUSH2 0xC3F DUP2 DUP4 PUSH2 0x22F6 JUMP JUMPDEST DUP2 ADD SWAP1 PUSH2 0x259D JUMP JUMPDEST DUP8 PUSH2 0xAC1 JUMP JUMPDEST POP RETURNDATASIZE PUSH2 0xC35 JUMP JUMPDEST CALLVALUE PUSH2 0x3BC JUMPI PUSH1 0x20 CALLDATASIZE PUSH1 0x3 NOT ADD SLT PUSH2 0x3BC JUMPI PUSH2 0xC6D PUSH2 0x22CA JUMP JUMPDEST PUSH2 0xC75 PUSH2 0x27E6 JUMP JUMPDEST PUSH1 0x1 PUSH1 0x1 PUSH1 0xA0 SHL SUB DUP2 AND PUSH0 DUP2 DUP2 MSTORE PUSH2 0x100 PUSH1 0x20 MSTORE PUSH1 0x40 SWAP1 KECCAK256 SLOAD SWAP1 SWAP2 SWAP1 PUSH1 0xFF AND ISZERO PUSH2 0xC9B JUMPI STOP JUMPDEST PUSH2 0x462 SWAP2 PUSH0 MSTORE PUSH2 0x100 PUSH1 0x20 MSTORE PUSH1 0x40 PUSH0 KECCAK256 PUSH1 0x1 PUSH1 0xFF NOT DUP3 SLOAD AND OR SWAP1 SSTORE PUSH2 0x23D7 JUMP JUMPDEST CALLVALUE PUSH2 0x3BC JUMPI PUSH0 CALLDATASIZE PUSH1 0x3 NOT ADD SLT PUSH2 0x3BC JUMPI PUSH1 0x97 SLOAD PUSH1 0x40 MLOAD PUSH1 0x1 PUSH1 0x1 PUSH1 0xA0 SHL SUB SWAP1 SWAP2 AND DUP2 MSTORE PUSH1 0x20 SWAP1 RETURN JUMPDEST CALLVALUE PUSH2 0x3BC JUMPI PUSH1 0x20 CALLDATASIZE PUSH1 0x3 NOT ADD SLT PUSH2 0x3BC JUMPI PUSH2 0xCFC PUSH2 0x22CA JUMP JUMPDEST PUSH2 0xD04 PUSH2 0x27E6 JUMP JUMPDEST PUSH1 0x1 PUSH1 0x1 PUSH1 0xA0 SHL SUB DUP2 AND PUSH0 DUP2 DUP2 MSTORE PUSH2 0x104 PUSH1 0x20 MSTORE PUSH1 0x40 SWAP1 KECCAK256 SLOAD SWAP1 SWAP2 SWAP1 PUSH1 0xFF AND ISZERO PUSH2 0x91F JUMPI STOP JUMPDEST CALLVALUE PUSH2 0x3BC JUMPI PUSH1 0x20 CALLDATASIZE PUSH1 0x3 NOT ADD SLT PUSH2 0x3BC JUMPI PUSH1 0x4 CALLDATALOAD PUSH2 0x103 SLOAD DUP2 LT ISZERO PUSH2 0x3BC JUMPI PUSH2 0x685 PUSH1 0x20 SWAP2 PUSH2 0x238E JUMP JUMPDEST CALLVALUE PUSH2 0x3BC JUMPI PUSH0 CALLDATASIZE PUSH1 0x3 NOT ADD SLT PUSH2 0x3BC JUMPI PUSH2 0x107 SLOAD PUSH1 0x40 MLOAD PUSH1 0x1 PUSH1 0x1 PUSH1 0xA0 SHL SUB SWAP1 SWAP2 AND DUP2 MSTORE PUSH1 0x20 SWAP1 RETURN JUMPDEST CALLVALUE PUSH2 0x3BC JUMPI PUSH0 CALLDATASIZE PUSH1 0x3 NOT ADD SLT PUSH2 0x3BC JUMPI PUSH1 0x40 MLOAD DUP1 PUSH1 0x20 PUSH1 0xFF SLOAD SWAP2 DUP3 DUP2 MSTORE ADD SWAP1 PUSH1 0xFF PUSH0 MSTORE PUSH32 0xE08EC2AF2CFC251225E1968FD6CA21E4044F129BFFA95BAC3503BE8BDB30A367 SWAP1 PUSH0 JUMPDEST DUP2 DUP2 LT PUSH2 0xDDB JUMPI PUSH2 0x7B7 DUP6 PUSH2 0x7AB DUP2 DUP8 SUB DUP3 PUSH2 0x22F6 JUMP JUMPDEST DUP3 SLOAD PUSH1 0x1 PUSH1 0x1 PUSH1 0xA0 SHL SUB AND DUP5 MSTORE PUSH1 0x20 SWAP1 SWAP4 ADD SWAP3 PUSH1 0x1 SWAP3 DUP4 ADD SWAP3 ADD PUSH2 0xDC4 JUMP JUMPDEST CALLVALUE PUSH2 0x3BC JUMPI PUSH0 CALLDATASIZE PUSH1 0x3 NOT ADD SLT PUSH2 0x3BC JUMPI PUSH2 0xE12 PUSH2 0x27E6 JUMP JUMPDEST PUSH1 0x97 DUP1 SLOAD PUSH1 0x1 PUSH1 0x1 PUSH1 0xA0 SHL SUB NOT DUP2 AND SWAP1 SWAP2 SSTORE PUSH0 SWAP1 PUSH1 0x1 PUSH1 0x1 PUSH1 0xA0 SHL SUB AND PUSH32 0x8BE0079C531659141344CD1FD0A4F28419497F9722A3DAAFE3B4186F6B6457E0 DUP3 DUP1 LOG3 STOP JUMPDEST CALLVALUE PUSH2 0x3BC JUMPI PUSH1 0x60 CALLDATASIZE PUSH1 0x3 NOT ADD SLT PUSH2 0x3BC JUMPI PUSH1 0x24 CALLDATALOAD PUSH1 0x4 CALLDATALOAD PUSH1 0x44 CALLDATALOAD DUP1 ISZERO ISZERO DUP2 SUB PUSH2 0x3BC JUMPI PUSH1 0xFB SLOAD PUSH1 0x40 MLOAD PUSH4 0x31A9108F PUSH1 0xE1 SHL DUP2 MSTORE PUSH1 0x4 DUP2 ADD DUP6 SWAP1 MSTORE PUSH1 0x1 PUSH1 0x1 PUSH1 0xA0 SHL SUB SWAP1 SWAP2 AND SWAP4 SWAP1 PUSH1 0x20 DUP2 PUSH1 0x24 DUP2 DUP9 GAS STATICCALL DUP1 ISZERO PUSH2 0x60C JUMPI PUSH2 0xEC6 SWAP2 PUSH0 SWAP2 PUSH2 0x102D JUMPI POP PUSH1 0x1 PUSH1 0x1 PUSH1 0xA0 SHL SUB AND CALLER EQ PUSH2 0x25BC JUMP JUMPDEST DUP3 PUSH0 MSTORE PUSH1 0xFE PUSH1 0x20 MSTORE PUSH1 0x40 PUSH0 KECCAK256 DUP2 PUSH0 MSTORE PUSH1 0x20 MSTORE PUSH1 0xFF PUSH1 0x40 PUSH0 KECCAK256 SLOAD AND PUSH2 0xFF8 JUMPI DUP3 PUSH0 MSTORE PUSH1 0xFC PUSH1 0x20 MSTORE PUSH1 0x3 PUSH1 0x40 PUSH0 KECCAK256 ADD SLOAD TIMESTAMP LT ISZERO PUSH2 0xFC4 JUMPI PUSH1 0x20 PUSH1 0x24 SWAP5 PUSH1 0x40 MLOAD SWAP6 DUP7 DUP1 SWAP3 PUSH4 0x6F08BC87 PUSH1 0xE1 SHL DUP3 MSTORE DUP6 PUSH1 0x4 DUP4 ADD MSTORE GAS STATICCALL SWAP4 DUP5 ISZERO PUSH2 0x60C JUMPI PUSH0 SWAP5 PUSH2 0xF90 JUMPI JUMPDEST POP PUSH2 0xF33 DUP5 ISZERO ISZERO PUSH2 0x2612 JUMP JUMPDEST DUP3 PUSH0 MSTORE PUSH1 0xFE PUSH1 0x20 MSTORE PUSH1 0x40 PUSH0 KECCAK256 SWAP1 PUSH0 MSTORE PUSH1 0x20 MSTORE PUSH1 0x40 PUSH0 KECCAK256 PUSH1 0x1 PUSH1 0xFF NOT DUP3 SLOAD AND OR SWAP1 SSTORE PUSH0 EQ PUSH2 0xF77 JUMPI PUSH0 MSTORE PUSH1 0xFC PUSH1 0x20 MSTORE PUSH2 0xF73 PUSH1 0x1 PUSH1 0x40 PUSH0 KECCAK256 ADD SWAP2 DUP3 SLOAD PUSH2 0x23BD JUMP JUMPDEST SWAP1 SSTORE STOP JUMPDEST PUSH0 MSTORE PUSH1 0xFC PUSH1 0x20 MSTORE PUSH2 0xF73 PUSH1 0x2 PUSH1 0x40 PUSH0 KECCAK256 ADD SWAP2 DUP3 SLOAD PUSH2 0x23BD JUMP JUMPDEST SWAP1 SWAP4 POP PUSH1 0x20 DUP2 RETURNDATASIZE PUSH1 0x20 GT PUSH2 0xFBC JUMPI JUMPDEST DUP2 PUSH2 0xFAC PUSH1 0x20 SWAP4 DUP4 PUSH2 0x22F6 JUMP JUMPDEST DUP2 ADD SUB SLT PUSH2 0x3BC JUMPI MLOAD SWAP3 DUP5 PUSH2 0xF27 JUMP JUMPDEST RETURNDATASIZE SWAP2 POP PUSH2 0xF9F JUMP JUMPDEST PUSH1 0x40 MLOAD PUSH3 0x461BCD PUSH1 0xE5 SHL DUP2 MSTORE PUSH1 0x20 PUSH1 0x4 DUP3 ADD MSTORE PUSH1 0xC PUSH1 0x24 DUP3 ADD MSTORE PUSH12 0x159BDD1A5B99C8195B991959 PUSH1 0xA2 SHL PUSH1 0x44 DUP3 ADD MSTORE PUSH1 0x64 SWAP1 REVERT JUMPDEST PUSH1 0x40 MLOAD PUSH3 0x461BCD PUSH1 0xE5 SHL DUP2 MSTORE PUSH1 0x20 PUSH1 0x4 DUP3 ADD MSTORE PUSH1 0xD PUSH1 0x24 DUP3 ADD MSTORE PUSH13 0x105B1C9958591E481D9BDD1959 PUSH1 0x9A SHL PUSH1 0x44 DUP3 ADD MSTORE PUSH1 0x64 SWAP1 REVERT JUMPDEST PUSH2 0x1046 SWAP2 POP PUSH1 0x20 RETURNDATASIZE PUSH1 0x20 GT PUSH2 0xC4D JUMPI PUSH2 0xC3F DUP2 DUP4 PUSH2 0x22F6 JUMP JUMPDEST DUP7 PUSH2 0xAC1 JUMP JUMPDEST CALLVALUE PUSH2 0x3BC JUMPI PUSH1 0x40 CALLDATASIZE PUSH1 0x3 NOT ADD SLT PUSH2 0x3BC JUMPI PUSH1 0x4 CALLDATALOAD PUSH0 MSTORE PUSH1 0xFE PUSH1 0x20 MSTORE PUSH1 0x40 PUSH0 KECCAK256 PUSH1 0x24 CALLDATALOAD PUSH0 MSTORE PUSH1 0x20 MSTORE PUSH1 0x20 PUSH1 0xFF PUSH1 0x40 PUSH0 KECCAK256 SLOAD AND PUSH1 0x40 MLOAD SWAP1 ISZERO ISZERO DUP2 MSTORE RETURN JUMPDEST CALLVALUE PUSH2 0x3BC JUMPI PUSH1 0x40 CALLDATASIZE PUSH1 0x3 NOT ADD SLT PUSH2 0x3BC JUMPI PUSH1 0x1 PUSH1 0x1 PUSH1 0xA0 SHL SUB PUSH2 0x10A8 PUSH2 0x22CA JUMP JUMPDEST AND PUSH0 MSTORE PUSH2 0x106 PUSH1 0x20 MSTORE PUSH1 0x40 PUSH0 KECCAK256 PUSH1 0x24 CALLDATALOAD PUSH0 MSTORE PUSH1 0x20 MSTORE PUSH1 0x20 PUSH1 0x40 PUSH0 KECCAK256 SLOAD PUSH1 0x40 MLOAD SWAP1 DUP2 MSTORE RETURN JUMPDEST CALLVALUE PUSH2 0x3BC JUMPI PUSH1 0x20 CALLDATASIZE PUSH1 0x3 NOT ADD SLT PUSH2 0x3BC JUMPI PUSH2 0x10E5 PUSH2 0x22CA JUMP JUMPDEST PUSH2 0x10ED PUSH2 0x27E6 JUMP JUMPDEST PUSH2 0x107 DUP1 SLOAD PUSH1 0x1 PUSH1 0x1 PUSH1 0xA0 SHL SUB NOT AND PUSH1 0x1 PUSH1 0x1 PUSH1 0xA0 SHL SUB SWAP3 SWAP1 SWAP3 AND SWAP2 SWAP1 SWAP2 OR SWAP1 SSTORE STOP JUMPDEST CALLVALUE PUSH2 0x3BC JUMPI PUSH1 0x20 CALLDATASIZE PUSH1 0x3 NOT ADD SLT PUSH2 0x3BC JUMPI PUSH2 0x1129 PUSH2 0x22CA JUMP JUMPDEST PUSH2 0x1131 PUSH2 0x27E6 JUMP JUMPDEST PUSH1 0xFB DUP1 SLOAD PUSH1 0x1 PUSH1 0x1 PUSH1 0xA0 SHL SUB NOT AND PUSH1 0x1 PUSH1 0x1 PUSH1 0xA0 SHL SUB SWAP3 SWAP1 SWAP3 AND SWAP2 SWAP1 SWAP2 OR SWAP1 SSTORE STOP JUMPDEST CALLVALUE PUSH2 0x3BC JUMPI PUSH0 CALLDATASIZE PUSH1 0x3 NOT ADD SLT PUSH2 0x3BC JUMPI PUSH32 0x0 PUSH1 0x1 PUSH1 0x1 PUSH1 0xA0 SHL SUB AND ADDRESS SUB PUSH2 0x11AA JUMPI PUSH1 0x20 PUSH1 0x40 MLOAD PUSH0 MLOAD PUSH1 0x20 PUSH2 0x2962 PUSH0 CODECOPY PUSH0 MLOAD SWAP1 PUSH0 MSTORE DUP2 MSTORE RETURN JUMPDEST PUSH1 0x40 MLOAD PUSH3 0x461BCD PUSH1 0xE5 SHL DUP2 MSTORE PUSH1 0x20 PUSH1 0x4 DUP3 ADD MSTORE PUSH1 0x38 PUSH1 0x24 DUP3 ADD MSTORE PUSH32 0x555550535570677261646561626C653A206D757374206E6F742062652063616C PUSH1 0x44 DUP3 ADD MSTORE PUSH32 0x6C6564207468726F7567682064656C656761746563616C6C0000000000000000 PUSH1 0x64 DUP3 ADD MSTORE PUSH1 0x84 SWAP1 REVERT JUMPDEST PUSH1 0x40 CALLDATASIZE PUSH1 0x3 NOT ADD SLT PUSH2 0x3BC JUMPI PUSH2 0x1229 PUSH2 0x22CA JUMP JUMPDEST PUSH1 0x24 CALLDATALOAD PUSH8 0xFFFFFFFFFFFFFFFF DUP2 GT PUSH2 0x3BC JUMPI CALLDATASIZE PUSH1 0x23 DUP3 ADD SLT ISZERO PUSH2 0x3BC JUMPI DUP1 PUSH1 0x4 ADD CALLDATALOAD PUSH2 0x1254 DUP2 PUSH2 0x2318 JUMP JUMPDEST SWAP1 PUSH2 0x1262 PUSH1 0x40 MLOAD SWAP3 DUP4 PUSH2 0x22F6 JUMP JUMPDEST DUP1 DUP3 MSTORE PUSH1 0x20 DUP3 ADD SWAP3 CALLDATASIZE PUSH1 0x24 DUP4 DUP4 ADD ADD GT PUSH2 0x3BC JUMPI DUP2 PUSH0 SWAP3 PUSH1 0x24 PUSH1 0x20 SWAP4 ADD DUP7 CALLDATACOPY DUP4 ADD ADD MSTORE PUSH2 0x12DC PUSH32 0x0 PUSH1 0x1 PUSH1 0x1 PUSH1 0xA0 SHL SUB AND PUSH2 0x12BE ADDRESS DUP3 EQ ISZERO PUSH2 0x2426 JUMP JUMPDEST PUSH0 MLOAD PUSH1 0x20 PUSH2 0x2962 PUSH0 CODECOPY PUSH0 MLOAD SWAP1 PUSH0 MSTORE SLOAD PUSH1 0x1 PUSH1 0x1 PUSH1 0xA0 SHL SUB AND EQ PUSH2 0x2487 JUMP JUMPDEST PUSH2 0x12E4 PUSH2 0x27E6 JUMP JUMPDEST PUSH32 0x4910FDFA16FED3260ED0E7147F7CC6DA11A60208B5B9406D12A635614FFD9143 SLOAD PUSH1 0xFF AND ISZERO PUSH2 0x1319 JUMPI POP POP PUSH2 0x462 SWAP1 PUSH2 0x2886 JUMP JUMPDEST PUSH1 0x40 MLOAD PUSH4 0x52D1902D PUSH1 0xE0 SHL DUP2 MSTORE PUSH1 0x1 PUSH1 0x1 PUSH1 0xA0 SHL SUB DUP5 AND SWAP1 PUSH1 0x20 DUP2 PUSH1 0x4 DUP2 DUP6 GAS STATICCALL PUSH0 SWAP2 DUP2 PUSH2 0x1539 JUMPI JUMPDEST POP PUSH2 0x13A3 JUMPI PUSH1 0x40 MLOAD PUSH3 0x461BCD PUSH1 0xE5 SHL DUP2 MSTORE PUSH1 0x20 PUSH1 0x4 DUP3 ADD MSTORE PUSH1 0x2E PUSH1 0x24 DUP3 ADD MSTORE PUSH32 0x45524331393637557067726164653A206E657720696D706C656D656E74617469 PUSH1 0x44 DUP3 ADD MSTORE PUSH14 0x6F6E206973206E6F742055555053 PUSH1 0x90 SHL PUSH1 0x64 DUP3 ADD MSTORE PUSH1 0x84 SWAP1 REVERT JUMPDEST PUSH0 MLOAD PUSH1 0x20 PUSH2 0x2962 PUSH0 CODECOPY PUSH0 MLOAD SWAP1 PUSH0 MSTORE SUB PUSH2 0x14E2 JUMPI PUSH2 0x13BF DUP5 PUSH2 0x2886 JUMP JUMPDEST PUSH1 0x40 MLOAD SWAP1 PUSH32 0xBC7CD75A20EE27FD9ADEBAB32041F755214DBC6BFFA90CC0225B39DA2E5C2D3B PUSH0 DUP1 LOG2 DUP2 MLOAD ISZERO DUP1 ISZERO SWAP1 PUSH2 0x14DA JUMPI JUMPDEST PUSH2 0x13F8 JUMPI STOP JUMPDEST DUP4 EXTCODESIZE ISZERO PUSH2 0x1489 JUMPI POP PUSH2 0x462 SWAP3 PUSH0 SWAP3 DUP4 SWAP3 MLOAD SWAP2 GAS DELEGATECALL RETURNDATASIZE ISZERO PUSH2 0x1482 JUMPI RETURNDATASIZE PUSH2 0x141C DUP2 PUSH2 0x2318 JUMP JUMPDEST SWAP1 PUSH2 0x142A PUSH1 0x40 MLOAD SWAP3 DUP4 PUSH2 0x22F6 JUMP JUMPDEST DUP2 MSTORE RETURNDATASIZE PUSH0 PUSH1 0x20 DUP4 ADD RETURNDATACOPY JUMPDEST PUSH1 0x40 MLOAD SWAP2 PUSH2 0x1443 PUSH1 0x60 DUP5 PUSH2 0x22F6 JUMP JUMPDEST PUSH1 0x27 DUP4 MSTORE PUSH32 0x416464726573733A206C6F772D6C6576656C2064656C65676174652063616C6C PUSH1 0x20 DUP5 ADD MSTORE PUSH7 0x819985A5B1959 PUSH1 0xCA SHL PUSH1 0x40 DUP5 ADD MSTORE PUSH2 0x291D JUMP JUMPDEST PUSH1 0x60 PUSH2 0x1434 JUMP JUMPDEST PUSH3 0x461BCD PUSH1 0xE5 SHL DUP2 MSTORE PUSH1 0x20 PUSH1 0x4 DUP3 ADD MSTORE PUSH1 0x26 PUSH1 0x24 DUP3 ADD MSTORE PUSH32 0x416464726573733A2064656C65676174652063616C6C20746F206E6F6E2D636F PUSH1 0x44 DUP3 ADD MSTORE PUSH6 0x1B9D1C9858DD PUSH1 0xD2 SHL PUSH1 0x64 DUP3 ADD MSTORE PUSH1 0x84 SWAP1 REVERT JUMPDEST POP PUSH1 0x1 PUSH2 0x13F2 JUMP JUMPDEST PUSH1 0x40 MLOAD PUSH3 0x461BCD PUSH1 0xE5 SHL DUP2 MSTORE PUSH1 0x20 PUSH1 0x4 DUP3 ADD MSTORE PUSH1 0x29 PUSH1 0x24 DUP3 ADD MSTORE PUSH32 0x45524331393637557067726164653A20756E737570706F727465642070726F78 PUSH1 0x44 DUP3 ADD MSTORE PUSH9 0x1A58589B1955555251 PUSH1 0xBA SHL PUSH1 0x64 DUP3 ADD MSTORE PUSH1 0x84 SWAP1 REVERT JUMPDEST SWAP1 SWAP2 POP PUSH1 0x20 DUP2 RETURNDATASIZE PUSH1 0x20 GT PUSH2 0x1565 JUMPI JUMPDEST DUP2 PUSH2 0x1555 PUSH1 0x20 SWAP4 DUP4 PUSH2 0x22F6 JUMP JUMPDEST DUP2 ADD SUB SLT PUSH2 0x3BC JUMPI MLOAD SWAP1 DUP7 PUSH2 0x1342 JUMP JUMPDEST RETURNDATASIZE SWAP2 POP PUSH2 0x1548 JUMP JUMPDEST CALLVALUE PUSH2 0x3BC JUMPI PUSH1 0x40 CALLDATASIZE PUSH1 0x3 NOT ADD SLT PUSH2 0x3BC JUMPI PUSH2 0x1586 PUSH2 0x22CA JUMP JUMPDEST PUSH2 0x158E PUSH2 0x22E0 JUMP JUMPDEST PUSH0 SLOAD SWAP1 PUSH1 0xFF DUP3 PUSH1 0x8 SHR AND ISZERO SWAP2 DUP3 DUP1 SWAP4 PUSH2 0x16FB JUMPI JUMPDEST DUP1 ISZERO PUSH2 0x16E4 JUMPI JUMPDEST ISZERO PUSH2 0x1688 JUMPI PUSH1 0xFF NOT DUP2 AND PUSH1 0x1 OR PUSH0 SSTORE DUP3 PUSH2 0x1677 JUMPI JUMPDEST POP PUSH2 0x15D8 PUSH1 0xFF PUSH0 SLOAD PUSH1 0x8 SHR AND PUSH2 0x15D3 DUP2 PUSH2 0x2786 JUMP JUMPDEST PUSH2 0x2786 JUMP JUMPDEST PUSH2 0x15E1 CALLER PUSH2 0x283E JUMP JUMPDEST PUSH0 SLOAD SWAP3 PUSH2 0x1600 PUSH1 0xFF DUP6 PUSH1 0x8 SHR AND PUSH2 0x15F7 DUP2 PUSH2 0x2786 JUMP JUMPDEST PUSH2 0x15D3 DUP2 PUSH2 0x2786 JUMP JUMPDEST PUSH1 0x1 PUSH1 0xC9 SSTORE PUSH1 0x1 DUP1 PUSH1 0xA0 SHL SUB AND PUSH1 0x1 PUSH1 0x1 PUSH1 0x60 SHL SUB PUSH1 0xA0 SHL PUSH1 0xFB SLOAD AND OR PUSH1 0xFB SSTORE PUSH1 0x1 DUP1 PUSH1 0xA0 SHL SUB AND PUSH1 0x1 PUSH1 0x1 PUSH1 0x60 SHL SUB PUSH1 0xA0 SHL PUSH2 0x107 SLOAD AND OR PUSH2 0x107 SSTORE PUSH2 0x1643 JUMPI STOP JUMPDEST PUSH2 0xFF00 NOT AND PUSH0 SSTORE PUSH32 0x7F26B83FF96E1F2B6A682F133852F6798A09C465DA95921460CEFB3847402498 PUSH1 0x20 PUSH1 0x40 MLOAD PUSH1 0x1 DUP2 MSTORE LOG1 STOP JUMPDEST PUSH2 0xFFFF NOT AND PUSH2 0x101 OR PUSH0 SSTORE DUP4 PUSH2 0x15BE JUMP JUMPDEST PUSH1 0x40 MLOAD PUSH3 0x461BCD PUSH1 0xE5 SHL DUP2 MSTORE PUSH1 0x20 PUSH1 0x4 DUP3 ADD MSTORE PUSH1 0x2E PUSH1 0x24 DUP3 ADD MSTORE PUSH32 0x496E697469616C697A61626C653A20636F6E747261637420697320616C726561 PUSH1 0x44 DUP3 ADD MSTORE PUSH14 0x191E481A5B9A5D1A585B1A5E9959 PUSH1 0x92 SHL PUSH1 0x64 DUP3 ADD MSTORE PUSH1 0x84 SWAP1 REVERT JUMPDEST POP ADDRESS EXTCODESIZE ISZERO DUP1 ISZERO PUSH2 0x15A9 JUMPI POP PUSH1 0x1 PUSH1 0xFF DUP3 AND EQ PUSH2 0x15A9 JUMP JUMPDEST POP PUSH1 0x1 PUSH1 0xFF DUP3 AND LT PUSH2 0x15A2 JUMP JUMPDEST CALLVALUE PUSH2 0x3BC JUMPI PUSH1 0x40 CALLDATASIZE PUSH1 0x3 NOT ADD SLT PUSH2 0x3BC JUMPI PUSH1 0x4 CALLDATALOAD PUSH2 0x1724 PUSH2 0x22E0 JUMP JUMPDEST PUSH2 0x1733 PUSH1 0x2 PUSH1 0xC9 SLOAD EQ ISZERO PUSH2 0x2551 JUMP JUMPDEST PUSH1 0x2 PUSH1 0xC9 SSTORE PUSH1 0xFB SLOAD PUSH1 0x1 PUSH1 0x1 PUSH1 0xA0 SHL SUB AND SWAP2 CALLER DUP4 SWAP1 SUB PUSH2 0x18B5 JUMPI PUSH1 0x20 PUSH1 0x24 SWAP4 PUSH1 0x40 MLOAD SWAP5 DUP6 DUP1 SWAP3 PUSH4 0x6F08BC87 PUSH1 0xE1 SHL DUP3 MSTORE DUP6 PUSH1 0x4 DUP4 ADD MSTORE GAS STATICCALL SWAP3 DUP4 ISZERO PUSH2 0x60C JUMPI PUSH0 SWAP4 PUSH2 0x1881 JUMPI JUMPDEST POP PUSH0 JUMPDEST PUSH2 0x103 SLOAD DUP2 LT ISZERO PUSH2 0x187A JUMPI PUSH2 0x1790 DUP2 PUSH2 0x238E JUMP JUMPDEST SWAP1 SLOAD PUSH1 0x3 SWAP2 SWAP1 SWAP2 SHL SHR PUSH1 0x1 PUSH1 0x1 PUSH1 0xA0 SHL SUB AND SWAP1 PUSH2 0x17AD DUP4 DUP4 PUSH2 0x264F JUMP JUMPDEST DUP1 PUSH2 0x17BE JUMPI JUMPDEST POP PUSH1 0x1 SWAP2 POP ADD PUSH2 0x177C JUMP JUMPDEST PUSH2 0x1849 DUP4 PUSH1 0x20 SWAP3 PUSH0 SWAP6 DUP7 MSTORE PUSH2 0x106 DUP5 MSTORE PUSH1 0x40 DUP7 KECCAK256 DUP8 DUP8 MSTORE DUP5 MSTORE DUP6 PUSH1 0x40 DUP2 KECCAK256 SSTORE DUP2 DUP7 MSTORE PUSH2 0x101 DUP5 MSTORE PUSH8 0xDE0B6B3A7640000 PUSH2 0x17FC PUSH1 0x40 DUP9 KECCAK256 SLOAD DUP12 PUSH2 0x253E JUMP JUMPDEST DUP4 DUP9 MSTORE PUSH2 0x105 DUP7 MSTORE PUSH1 0x40 DUP1 DUP10 KECCAK256 DUP11 DUP11 MSTORE DUP8 MSTORE DUP1 DUP10 KECCAK256 SWAP3 SWAP1 SWAP2 DIV SWAP1 SWAP2 SSTORE MLOAD PUSH4 0xA9059CBB PUSH1 0xE0 SHL DUP2 MSTORE PUSH1 0x1 PUSH1 0x1 PUSH1 0xA0 SHL SUB DUP10 AND PUSH1 0x4 DUP3 ADD MSTORE PUSH1 0x24 DUP2 ADD SWAP2 SWAP1 SWAP2 MSTORE SWAP5 DUP6 SWAP3 DUP4 SWAP2 SWAP1 DUP3 SWAP1 PUSH1 0x44 DUP3 ADD SWAP1 JUMP JUMPDEST SUB SWAP3 GAS CALL SWAP2 DUP3 ISZERO PUSH2 0x60C JUMPI PUSH1 0x1 SWAP3 ISZERO PUSH2 0x17B3 JUMPI PUSH2 0x1873 SWAP1 PUSH1 0x20 RETURNDATASIZE DUP2 GT PUSH2 0x965 JUMPI PUSH2 0x958 DUP2 DUP4 PUSH2 0x22F6 JUMP JUMPDEST POP DUP6 PUSH2 0x17B3 JUMP JUMPDEST PUSH1 0x1 PUSH1 0xC9 SSTORE STOP JUMPDEST SWAP1 SWAP3 POP PUSH1 0x20 DUP2 RETURNDATASIZE PUSH1 0x20 GT PUSH2 0x18AD JUMPI JUMPDEST DUP2 PUSH2 0x189D PUSH1 0x20 SWAP4 DUP4 PUSH2 0x22F6 JUMP JUMPDEST DUP2 ADD SUB SLT PUSH2 0x3BC JUMPI MLOAD SWAP2 DUP4 PUSH2 0x1779 JUMP JUMPDEST RETURNDATASIZE SWAP2 POP PUSH2 0x1890 JUMP JUMPDEST PUSH1 0x64 PUSH1 0x40 MLOAD PUSH3 0x461BCD PUSH1 0xE5 SHL DUP2 MSTORE PUSH1 0x20 PUSH1 0x4 DUP3 ADD MSTORE PUSH1 0x20 PUSH1 0x24 DUP3 ADD MSTORE PUSH32 0x4F6E6C79204E465420636F6E74726163742063616E206175746F2D7377656570 PUSH1 0x44 DUP3 ADD MSTORE REVERT JUMPDEST CALLVALUE PUSH2 0x3BC JUMPI PUSH1 0x40 CALLDATASIZE PUSH1 0x3 NOT ADD SLT PUSH2 0x3BC JUMPI PUSH2 0x1912 PUSH2 0x22CA JUMP JUMPDEST PUSH1 0x24 CALLDATALOAD PUSH2 0x1924 PUSH1 0x2 PUSH1 0xC9 SLOAD EQ ISZERO PUSH2 0x2551 JUMP JUMPDEST PUSH1 0x2 PUSH1 0xC9 SSTORE PUSH1 0xFB SLOAD PUSH1 0x40 MLOAD PUSH4 0x31A9108F PUSH1 0xE1 SHL DUP2 MSTORE PUSH1 0x4 DUP2 ADD DUP4 SWAP1 MSTORE PUSH1 0x1 PUSH1 0x1 PUSH1 0xA0 SHL SUB SWAP1 SWAP2 AND SWAP2 SWAP1 PUSH1 0x20 DUP2 PUSH1 0x24 DUP2 DUP7 GAS STATICCALL DUP1 ISZERO PUSH2 0x60C JUMPI PUSH2 0x1977 SWAP2 PUSH0 SWAP2 PUSH2 0x1AE4 JUMPI POP PUSH1 0x1 PUSH1 0x1 PUSH1 0xA0 SHL SUB AND CALLER EQ PUSH2 0x25BC JUMP JUMPDEST PUSH2 0x1981 DUP2 DUP5 PUSH2 0x264F JUMP JUMPDEST SWAP3 DUP4 ISZERO PUSH2 0x1AAB JUMPI PUSH1 0x20 PUSH1 0x24 SWAP4 PUSH1 0x40 MLOAD SWAP5 DUP6 DUP1 SWAP3 PUSH4 0x6F08BC87 PUSH1 0xE1 SHL DUP3 MSTORE DUP7 PUSH1 0x4 DUP4 ADD MSTORE GAS STATICCALL SWAP3 DUP4 ISZERO PUSH2 0x60C JUMPI PUSH0 SWAP4 PUSH2 0x1A75 JUMPI JUMPDEST POP SWAP2 PUSH0 SWAP4 PUSH2 0x1A41 SWAP3 PUSH8 0xDE0B6B3A7640000 PUSH2 0x19FE PUSH1 0x20 SWAP7 PUSH1 0x1 DUP1 PUSH1 0xA0 SHL SUB AND SWAP5 DUP6 DUP10 MSTORE PUSH2 0x106 DUP9 MSTORE PUSH1 0x40 DUP10 KECCAK256 DUP5 DUP11 MSTORE DUP9 MSTORE DUP9 PUSH1 0x40 DUP2 KECCAK256 SSTORE DUP6 DUP10 MSTORE PUSH2 0x101 DUP9 MSTORE PUSH1 0x40 DUP10 KECCAK256 SLOAD SWAP1 PUSH2 0x253E JUMP JUMPDEST DUP5 DUP9 MSTORE PUSH2 0x105 DUP8 MSTORE PUSH1 0x40 DUP1 DUP10 KECCAK256 SWAP4 DUP10 MSTORE SWAP3 DUP8 MSTORE DUP3 DUP9 KECCAK256 SWAP2 SWAP1 DIV SWAP1 SSTORE MLOAD PUSH4 0xA9059CBB PUSH1 0xE0 SHL DUP2 MSTORE CALLER PUSH1 0x4 DUP3 ADD MSTORE PUSH1 0x24 DUP2 ADD SWAP2 SWAP1 SWAP2 MSTORE SWAP4 DUP5 SWAP3 DUP4 SWAP2 SWAP1 DUP3 SWAP1 PUSH1 0x44 DUP3 ADD SWAP1 JUMP JUMPDEST SUB SWAP3 GAS CALL DUP1 ISZERO PUSH2 0x60C JUMPI PUSH2 0x1A56 JUMPI PUSH1 0x1 PUSH1 0xC9 SSTORE STOP JUMPDEST PUSH2 0x1A6E SWAP1 PUSH1 0x20 RETURNDATASIZE PUSH1 0x20 GT PUSH2 0x965 JUMPI PUSH2 0x958 DUP2 DUP4 PUSH2 0x22F6 JUMP JUMPDEST POP DUP1 PUSH2 0x187A JUMP JUMPDEST SWAP2 SWAP3 POP PUSH1 0x20 DUP3 RETURNDATASIZE PUSH1 0x20 GT PUSH2 0x1AA3 JUMPI JUMPDEST DUP2 PUSH2 0x1A91 PUSH1 0x20 SWAP4 DUP4 PUSH2 0x22F6 JUMP JUMPDEST DUP2 ADD SUB SLT PUSH2 0x3BC JUMPI SWAP1 MLOAD SWAP2 SWAP1 PUSH0 PUSH2 0x19B4 JUMP JUMPDEST RETURNDATASIZE SWAP2 POP PUSH2 0x1A84 JUMP JUMPDEST PUSH1 0x40 MLOAD PUSH3 0x461BCD PUSH1 0xE5 SHL DUP2 MSTORE PUSH1 0x20 PUSH1 0x4 DUP3 ADD MSTORE PUSH1 0x11 PUSH1 0x24 DUP3 ADD MSTORE PUSH17 0x139BC8191A5D9A59195B991CC81BDDD959 PUSH1 0x7A SHL PUSH1 0x44 DUP3 ADD MSTORE PUSH1 0x64 SWAP1 REVERT JUMPDEST PUSH2 0x1AFD SWAP2 POP PUSH1 0x20 RETURNDATASIZE PUSH1 0x20 GT PUSH2 0xC4D JUMPI PUSH2 0xC3F DUP2 DUP4 PUSH2 0x22F6 JUMP JUMPDEST DUP6 PUSH2 0xAC1 JUMP JUMPDEST CALLVALUE PUSH2 0x3BC JUMPI PUSH1 0x20 CALLDATASIZE PUSH1 0x3 NOT ADD SLT PUSH2 0x3BC JUMPI PUSH1 0xFB SLOAD PUSH1 0x4 CALLDATALOAD SWAP1 PUSH1 0x24 SWAP1 PUSH1 0x20 SWAP1 PUSH1 0x1 PUSH1 0x1 PUSH1 0xA0 SHL SUB AND PUSH2 0x1B35 CALLER DUP3 EQ PUSH2 0x24E8 JUMP JUMPDEST PUSH1 0x40 MLOAD SWAP3 DUP4 DUP1 SWAP3 PUSH4 0x6F08BC87 PUSH1 0xE1 SHL DUP3 MSTORE DUP7 PUSH1 0x4 DUP4 ADD MSTORE GAS STATICCALL SWAP1 DUP2 ISZERO PUSH2 0x60C JUMPI PUSH0 SWAP2 PUSH2 0x1BC3 JUMPI JUMPDEST POP PUSH0 JUMPDEST PUSH2 0x103 SLOAD DUP2 LT ISZERO PUSH2 0x462 JUMPI DUP1 PUSH2 0x1B76 PUSH1 0x1 SWAP3 PUSH2 0x238E JUMP JUMPDEST DUP4 DUP1 PUSH1 0xA0 SHL SUB SWAP2 SLOAD SWAP1 PUSH1 0x3 SHL SHR AND DUP1 PUSH0 MSTORE PUSH2 0x101 PUSH1 0x20 MSTORE PUSH8 0xDE0B6B3A7640000 PUSH2 0x1BA4 PUSH1 0x40 PUSH0 KECCAK256 SLOAD DUP7 PUSH2 0x253E JUMP JUMPDEST DIV SWAP1 PUSH0 MSTORE PUSH2 0x105 PUSH1 0x20 MSTORE PUSH1 0x40 PUSH0 KECCAK256 DUP6 PUSH0 MSTORE PUSH1 0x20 MSTORE PUSH1 0x40 PUSH0 KECCAK256 SSTORE ADD PUSH2 0x1B5F JUMP JUMPDEST SWAP1 POP PUSH1 0x20 DUP2 RETURNDATASIZE PUSH1 0x20 GT PUSH2 0x1BED JUMPI JUMPDEST DUP2 PUSH2 0x1BDE PUSH1 0x20 SWAP4 DUP4 PUSH2 0x22F6 JUMP JUMPDEST DUP2 ADD SUB SLT PUSH2 0x3BC JUMPI MLOAD DUP3 PUSH2 0x1B5C JUMP JUMPDEST RETURNDATASIZE SWAP2 POP PUSH2 0x1BD1 JUMP JUMPDEST CALLVALUE PUSH2 0x3BC JUMPI PUSH1 0x20 CALLDATASIZE PUSH1 0x3 NOT ADD SLT PUSH2 0x3BC JUMPI PUSH2 0x1C0E PUSH2 0x22CA JUMP JUMPDEST PUSH2 0x1C47 PUSH32 0x0 PUSH1 0x1 PUSH1 0x1 PUSH1 0xA0 SHL SUB AND PUSH2 0x12BE ADDRESS DUP3 EQ ISZERO PUSH2 0x2426 JUMP JUMPDEST PUSH2 0x1C4F PUSH2 0x27E6 JUMP JUMPDEST PUSH1 0x20 SWAP1 PUSH1 0x40 MLOAD PUSH2 0x1C5F DUP4 DUP3 PUSH2 0x22F6 JUMP JUMPDEST PUSH0 DUP2 MSTORE DUP3 DUP2 ADD SWAP1 PUSH1 0x1F NOT DUP5 ADD CALLDATASIZE DUP4 CALLDATACOPY PUSH32 0x4910FDFA16FED3260ED0E7147F7CC6DA11A60208B5B9406D12A635614FFD9143 SLOAD PUSH1 0xFF AND ISZERO PUSH2 0x1CA4 JUMPI POP POP PUSH2 0x462 SWAP2 POP PUSH2 0x2886 JUMP JUMPDEST PUSH1 0x40 MLOAD PUSH4 0x52D1902D PUSH1 0xE0 SHL DUP2 MSTORE PUSH1 0x1 PUSH1 0x1 PUSH1 0xA0 SHL SUB DUP5 AND SWAP1 DUP6 DUP2 PUSH1 0x4 DUP2 DUP6 GAS STATICCALL PUSH0 SWAP2 DUP2 PUSH2 0x1EC2 JUMPI JUMPDEST POP PUSH2 0x1D2D JUMPI PUSH1 0x40 MLOAD PUSH3 0x461BCD PUSH1 0xE5 SHL DUP2 MSTORE PUSH1 0x4 DUP2 ADD DUP8 SWAP1 MSTORE PUSH1 0x2E PUSH1 0x24 DUP3 ADD MSTORE PUSH32 0x45524331393637557067726164653A206E657720696D706C656D656E74617469 PUSH1 0x44 DUP3 ADD MSTORE PUSH14 0x6F6E206973206E6F742055555053 PUSH1 0x90 SHL PUSH1 0x64 DUP3 ADD MSTORE PUSH1 0x84 SWAP1 REVERT JUMPDEST PUSH0 MLOAD PUSH1 0x20 PUSH2 0x2962 PUSH0 CODECOPY PUSH0 MLOAD SWAP1 PUSH0 MSTORE SUB PUSH2 0x1E6B JUMPI PUSH2 0x1D49 DUP5 PUSH2 0x2886 JUMP JUMPDEST PUSH1 0x40 MLOAD SWAP1 PUSH32 0xBC7CD75A20EE27FD9ADEBAB32041F755214DBC6BFFA90CC0225B39DA2E5C2D3B PUSH0 DUP1 LOG2 DUP2 MLOAD ISZERO DUP1 ISZERO SWAP1 PUSH2 0x1E64 JUMPI JUMPDEST PUSH2 0x1D82 JUMPI STOP JUMPDEST DUP4 EXTCODESIZE ISZERO PUSH2 0x1E13 JUMPI POP PUSH2 0x462 SWAP4 SWAP3 PUSH0 SWAP3 DUP4 SWAP3 MLOAD SWAP2 GAS DELEGATECALL RETURNDATASIZE ISZERO PUSH2 0x1E0B JUMPI RETURNDATASIZE SWAP1 PUSH2 0x1DA8 DUP3 PUSH2 0x2318 JUMP JUMPDEST SWAP2 PUSH2 0x1DB6 PUSH1 0x40 MLOAD SWAP4 DUP5 PUSH2 0x22F6 JUMP JUMPDEST DUP3 MSTORE RETURNDATASIZE PUSH0 DUP5 DUP5 ADD RETURNDATACOPY JUMPDEST PUSH32 0x416464726573733A206C6F772D6C6576656C2064656C65676174652063616C6C PUSH1 0x40 MLOAD SWAP4 PUSH2 0x1DEF PUSH1 0x60 DUP7 PUSH2 0x22F6 JUMP JUMPDEST PUSH1 0x27 DUP6 MSTORE DUP5 ADD MSTORE PUSH7 0x819985A5B1959 PUSH1 0xCA SHL PUSH1 0x40 DUP5 ADD MSTORE PUSH2 0x291D JUMP JUMPDEST PUSH1 0x60 SWAP1 PUSH2 0x1DBF JUMP JUMPDEST PUSH3 0x461BCD PUSH1 0xE5 SHL DUP2 MSTORE PUSH1 0x4 DUP2 ADD DUP6 SWAP1 MSTORE PUSH1 0x26 PUSH1 0x24 DUP3 ADD MSTORE PUSH32 0x416464726573733A2064656C65676174652063616C6C20746F206E6F6E2D636F PUSH1 0x44 DUP3 ADD MSTORE PUSH6 0x1B9D1C9858DD PUSH1 0xD2 SHL PUSH1 0x64 DUP3 ADD MSTORE PUSH1 0x84 SWAP1 REVERT JUMPDEST POP PUSH0 PUSH2 0x1D7C JUMP JUMPDEST PUSH1 0x40 MLOAD PUSH3 0x461BCD PUSH1 0xE5 SHL DUP2 MSTORE PUSH1 0x4 DUP2 ADD DUP7 SWAP1 MSTORE PUSH1 0x29 PUSH1 0x24 DUP3 ADD MSTORE PUSH32 0x45524331393637557067726164653A20756E737570706F727465642070726F78 PUSH1 0x44 DUP3 ADD MSTORE PUSH9 0x1A58589B1955555251 PUSH1 0xBA SHL PUSH1 0x64 DUP3 ADD MSTORE PUSH1 0x84 SWAP1 REVERT JUMPDEST SWAP1 SWAP2 POP DUP7 DUP2 DUP2 RETURNDATASIZE DUP4 GT PUSH2 0x1EEA JUMPI JUMPDEST PUSH2 0x1EDA DUP2 DUP4 PUSH2 0x22F6 JUMP JUMPDEST DUP2 ADD SUB SLT PUSH2 0x3BC JUMPI MLOAD SWAP1 DUP8 PUSH2 0x1CCC JUMP JUMPDEST POP RETURNDATASIZE PUSH2 0x1ED0 JUMP JUMPDEST CALLVALUE PUSH2 0x3BC JUMPI PUSH1 0x80 CALLDATASIZE PUSH1 0x3 NOT ADD SLT PUSH2 0x3BC JUMPI PUSH2 0x1F0A PUSH2 0x22CA JUMP JUMPDEST POP PUSH2 0x1F13 PUSH2 0x22E0 JUMP JUMPDEST POP PUSH1 0x64 CALLDATALOAD PUSH8 0xFFFFFFFFFFFFFFFF DUP2 GT PUSH2 0x3BC JUMPI CALLDATASIZE PUSH1 0x23 DUP3 ADD SLT ISZERO PUSH2 0x3BC JUMPI DUP1 PUSH1 0x4 ADD CALLDATALOAD PUSH8 0xFFFFFFFFFFFFFFFF DUP2 GT PUSH2 0x3BC JUMPI CALLDATASIZE SWAP2 ADD PUSH1 0x24 ADD GT PUSH2 0x3BC JUMPI PUSH1 0x40 MLOAD PUSH4 0xA85BD01 PUSH1 0xE1 SHL DUP2 MSTORE PUSH1 0x20 SWAP1 RETURN JUMPDEST CALLVALUE PUSH2 0x3BC JUMPI PUSH1 0x20 CALLDATASIZE PUSH1 0x3 NOT ADD SLT PUSH2 0x3BC JUMPI PUSH1 0x4 CALLDATALOAD PUSH0 MSTORE PUSH1 0xFC PUSH1 0x20 MSTORE PUSH1 0x40 PUSH0 KECCAK256 PUSH1 0x4 PUSH1 0x20 PUSH1 0x1 DUP1 PUSH1 0xA0 SHL SUB PUSH1 0xFB SLOAD AND PUSH1 0x40 MLOAD SWAP3 DUP4 DUP1 SWAP3 PUSH4 0xAED96B59 PUSH1 0xE0 SHL DUP3 MSTORE GAS STATICCALL SWAP1 DUP2 ISZERO PUSH2 0x60C JUMPI PUSH0 SWAP2 PUSH2 0x222B JUMPI JUMPDEST POP PUSH1 0x1 SHR PUSH1 0x1 DUP2 ADD DUP1 SWAP2 GT PUSH2 0x3C0 JUMPI PUSH1 0x3 DUP3 ADD SLOAD TIMESTAMP LT SWAP1 DUP2 ISZERO SWAP2 PUSH2 0x221C JUMPI JUMPDEST POP ISZERO PUSH2 0x21C5 JUMPI PUSH1 0x4 DUP2 ADD DUP1 SLOAD PUSH1 0xFF DUP2 AND PUSH2 0x218D JUMPI PUSH1 0x1 SWAP1 PUSH1 0xFF NOT AND OR SWAP1 SSTORE PUSH1 0x1 DUP2 ADD SLOAD PUSH1 0x2 DUP3 ADD SLOAD LT PUSH2 0x1FFF JUMPI STOP JUMPDEST DUP1 SLOAD PUSH1 0xFF DUP2 PUSH1 0xA0 SHR AND DUP1 DUP1 SWAP2 PUSH2 0x216A JUMPI JUMPDEST ISZERO PUSH2 0x2049 JUMPI POP POP DUP1 SLOAD PUSH1 0x1 PUSH1 0x1 PUSH1 0xA0 SHL SUB SWAP1 DUP2 AND PUSH0 SWAP1 DUP2 MSTORE PUSH2 0x100 PUSH1 0x20 MSTORE PUSH1 0x40 SWAP1 KECCAK256 DUP1 SLOAD PUSH1 0xFF NOT AND PUSH1 0x1 OR SWAP1 SSTORE SWAP1 SLOAD PUSH2 0x462 SWAP2 AND PUSH2 0x23D7 JUMP JUMPDEST ISZERO DUP1 PUSH2 0x2148 JUMPI JUMPDEST PUSH2 0x2056 JUMPI STOP JUMPDEST PUSH1 0x1 PUSH1 0x1 PUSH1 0xA0 SHL SUB AND PUSH0 SWAP1 DUP2 MSTORE PUSH2 0x100 PUSH1 0x20 MSTORE PUSH1 0x40 DUP2 KECCAK256 DUP1 SLOAD PUSH1 0xFF NOT AND SWAP1 SSTORE JUMPDEST PUSH1 0xFF SLOAD DUP1 DUP3 LT ISZERO PUSH2 0x462 JUMPI PUSH2 0x208A DUP3 PUSH2 0x2376 JUMP JUMPDEST SWAP1 SLOAD DUP5 SLOAD PUSH1 0x3 SWAP3 SWAP1 SWAP3 SHL SHR PUSH1 0x1 PUSH1 0x1 PUSH1 0xA0 SHL SUB SWAP1 DUP2 AND SWAP2 AND EQ PUSH2 0x20B0 JUMPI POP PUSH1 0x1 ADD PUSH2 0x2076 JUMP JUMPDEST PUSH0 NOT DUP2 ADD SWAP3 POP DUP3 GT PUSH2 0x3C0 JUMPI PUSH2 0x20E3 PUSH2 0x20CB PUSH2 0x2107 SWAP4 PUSH2 0x2376 JUMP JUMPDEST SWAP1 SLOAD PUSH1 0x3 SWAP2 SWAP1 SWAP2 SHL SHR PUSH1 0x1 PUSH1 0x1 PUSH1 0xA0 SHL SUB AND SWAP2 PUSH2 0x2376 JUMP JUMPDEST DUP2 SLOAD PUSH1 0x1 PUSH1 0x1 PUSH1 0xA0 SHL SUB SWAP4 DUP5 AND PUSH1 0x3 SWAP3 SWAP1 SWAP3 SHL SWAP2 DUP3 SHL SWAP4 SWAP1 SWAP2 SHL NOT AND SWAP2 SWAP1 SWAP2 OR SWAP1 SSTORE JUMP JUMPDEST PUSH1 0xFF SLOAD DUP1 ISZERO PUSH2 0x2134 JUMPI PUSH0 NOT ADD PUSH2 0x211C DUP2 PUSH2 0x2376 JUMP JUMPDEST DUP2 SLOAD SWAP1 PUSH1 0x1 DUP1 PUSH1 0xA0 SHL SUB SWAP1 PUSH1 0x3 SHL SHL NOT AND SWAP1 SSTORE PUSH1 0xFF SSTORE STOP JUMPDEST PUSH4 0x4E487B71 PUSH1 0xE0 SHL PUSH0 MSTORE PUSH1 0x31 PUSH1 0x4 MSTORE PUSH1 0x24 PUSH0 REVERT JUMPDEST POP PUSH1 0x1 PUSH1 0x1 PUSH1 0xA0 SHL SUB DUP2 AND PUSH0 SWAP1 DUP2 MSTORE PUSH2 0x100 PUSH1 0x20 MSTORE PUSH1 0x40 SWAP1 KECCAK256 SLOAD PUSH1 0xFF AND PUSH2 0x2050 JUMP JUMPDEST POP PUSH1 0x1 PUSH1 0x1 PUSH1 0xA0 SHL SUB DUP3 AND PUSH0 SWAP1 DUP2 MSTORE PUSH2 0x100 PUSH1 0x20 MSTORE PUSH1 0x40 SWAP1 KECCAK256 SLOAD PUSH1 0xFF AND ISZERO PUSH2 0x2010 JUMP JUMPDEST PUSH1 0x40 MLOAD PUSH3 0x461BCD PUSH1 0xE5 SHL DUP2 MSTORE PUSH1 0x20 PUSH1 0x4 DUP3 ADD MSTORE PUSH1 0x10 PUSH1 0x24 DUP3 ADD MSTORE PUSH16 0x105B1C9958591E48195E1958DD5D1959 PUSH1 0x82 SHL PUSH1 0x44 DUP3 ADD MSTORE PUSH1 0x64 SWAP1 REVERT JUMPDEST PUSH1 0x40 MLOAD PUSH3 0x461BCD PUSH1 0xE5 SHL DUP2 MSTORE PUSH1 0x20 PUSH1 0x4 DUP3 ADD MSTORE PUSH1 0x29 PUSH1 0x24 DUP3 ADD MSTORE PUSH32 0x566F74696E67206E6F7420656E64656420616E64206E6F206162736F6C757465 PUSH1 0x44 DUP3 ADD MSTORE PUSH9 0x206D616A6F72697479 PUSH1 0xB8 SHL PUSH1 0x64 DUP3 ADD MSTORE PUSH1 0x84 SWAP1 REVERT JUMPDEST SWAP1 POP PUSH1 0x1 DUP3 ADD SLOAD LT ISZERO DUP3 PUSH2 0x1FD0 JUMP JUMPDEST SWAP1 POP PUSH1 0x20 DUP2 RETURNDATASIZE PUSH1 0x20 GT PUSH2 0x2255 JUMPI JUMPDEST DUP2 PUSH2 0x2246 PUSH1 0x20 SWAP4 DUP4 PUSH2 0x22F6 JUMP JUMPDEST DUP2 ADD SUB SLT PUSH2 0x3BC JUMPI MLOAD DUP3 PUSH2 0x1FB1 JUMP JUMPDEST RETURNDATASIZE SWAP2 POP PUSH2 0x2239 JUMP JUMPDEST CALLVALUE PUSH2 0x3BC JUMPI PUSH1 0x20 CALLDATASIZE PUSH1 0x3 NOT ADD SLT PUSH2 0x3BC JUMPI PUSH1 0xC0 SWAP1 PUSH1 0x4 CALLDATALOAD PUSH0 MSTORE PUSH1 0xFC PUSH1 0x20 MSTORE PUSH1 0x40 PUSH0 KECCAK256 DUP1 SLOAD SWAP1 PUSH1 0x1 DUP2 ADD SLOAD PUSH1 0x2 DUP3 ADD SLOAD SWAP1 PUSH1 0xFF DUP1 PUSH1 0x4 PUSH1 0x3 DUP7 ADD SLOAD SWAP6 ADD SLOAD AND SWAP5 PUSH1 0x1 DUP1 PUSH1 0xA0 SHL SUB DUP2 AND DUP8 MSTORE PUSH1 0xA0 SHR AND ISZERO ISZERO PUSH1 0x20 DUP7 ADD MSTORE PUSH1 0x40 DUP6 ADD MSTORE PUSH1 0x60 DUP5 ADD MSTORE PUSH1 0x80 DUP4 ADD MSTORE ISZERO ISZERO PUSH1 0xA0 DUP3 ADD MSTORE RETURN JUMPDEST PUSH1 0x4 CALLDATALOAD SWAP1 PUSH1 0x1 PUSH1 0x1 PUSH1 0xA0 SHL SUB DUP3 AND DUP3 SUB PUSH2 0x3BC JUMPI JUMP JUMPDEST PUSH1 0x24 CALLDATALOAD SWAP1 PUSH1 0x1 PUSH1 0x1 PUSH1 0xA0 SHL SUB DUP3 AND DUP3 SUB PUSH2 0x3BC JUMPI JUMP JUMPDEST SWAP1 PUSH1 0x1F DUP1 NOT SWAP2 ADD AND DUP2 ADD SWAP1 DUP2 LT PUSH8 0xFFFFFFFFFFFFFFFF DUP3 GT OR PUSH2 0xBDF JUMPI PUSH1 0x40 MSTORE JUMP JUMPDEST PUSH8 0xFFFFFFFFFFFFFFFF DUP2 GT PUSH2 0xBDF JUMPI PUSH1 0x1F ADD PUSH1 0x1F NOT AND PUSH1 0x20 ADD SWAP1 JUMP JUMPDEST PUSH1 0x20 PUSH1 0x40 DUP2 DUP4 ADD SWAP3 DUP3 DUP2 MSTORE DUP5 MLOAD DUP1 SWAP5 MSTORE ADD SWAP3 ADD SWAP1 PUSH0 JUMPDEST DUP2 DUP2 LT PUSH2 0x2357 JUMPI POP POP POP SWAP1 JUMP JUMPDEST DUP3 MLOAD PUSH1 0x1 PUSH1 0x1 PUSH1 0xA0 SHL SUB AND DUP5 MSTORE PUSH1 0x20 SWAP4 DUP5 ADD SWAP4 SWAP1 SWAP3 ADD SWAP2 PUSH1 0x1 ADD PUSH2 0x234A JUMP JUMPDEST PUSH1 0xFF SLOAD DUP2 LT ISZERO PUSH2 0x415 JUMPI PUSH1 0xFF PUSH0 MSTORE PUSH1 0x20 PUSH0 KECCAK256 ADD SWAP1 PUSH0 SWAP1 JUMP JUMPDEST PUSH2 0x103 SLOAD DUP2 LT ISZERO PUSH2 0x415 JUMPI PUSH2 0x103 PUSH0 MSTORE PUSH1 0x20 PUSH0 KECCAK256 ADD SWAP1 PUSH0 SWAP1 JUMP JUMPDEST DUP1 SLOAD DUP3 LT ISZERO PUSH2 0x415 JUMPI PUSH0 MSTORE PUSH1 0x20 PUSH0 KECCAK256 ADD SWAP1 PUSH0 SWAP1 JUMP JUMPDEST SWAP2 SWAP1 DUP3 ADD DUP1 SWAP3 GT PUSH2 0x3C0 JUMPI JUMP JUMPDEST SWAP2 SWAP1 DUP3 SUB SWAP2 DUP3 GT PUSH2 0x3C0 JUMPI JUMP JUMPDEST PUSH1 0xFF SLOAD SWAP1 PUSH1 0x1 PUSH1 0x40 SHL DUP3 LT ISZERO PUSH2 0xBDF JUMPI PUSH2 0x20E3 DUP3 PUSH1 0x1 PUSH2 0x23FC SWAP5 ADD PUSH1 0xFF SSTORE PUSH1 0xFF PUSH2 0x23A8 JUMP JUMPDEST JUMP JUMPDEST PUSH2 0x103 SLOAD SWAP1 PUSH1 0x1 PUSH1 0x40 SHL DUP3 LT ISZERO PUSH2 0xBDF JUMPI PUSH2 0x20E3 DUP3 PUSH1 0x1 PUSH2 0x23FC SWAP5 ADD PUSH2 0x103 SSTORE PUSH2 0x103 PUSH2 0x23A8 JUMP JUMPDEST ISZERO PUSH2 0x242D JUMPI JUMP JUMPDEST PUSH1 0x40 MLOAD PUSH3 0x461BCD PUSH1 0xE5 SHL DUP2 MSTORE PUSH1 0x20 PUSH1 0x4 DUP3 ADD MSTORE PUSH1 0x2C PUSH1 0x24 DUP3 ADD MSTORE PUSH32 0x46756E6374696F6E206D7573742062652063616C6C6564207468726F75676820 PUSH1 0x44 DUP3 ADD MSTORE PUSH12 0x19195B1959D85D1958D85B1B PUSH1 0xA2 SHL PUSH1 0x64 DUP3 ADD MSTORE PUSH1 0x84 SWAP1 REVERT JUMPDEST ISZERO PUSH2 0x248E JUMPI JUMP JUMPDEST PUSH1 0x40 MLOAD PUSH3 0x461BCD PUSH1 0xE5 SHL DUP2 MSTORE PUSH1 0x20 PUSH1 0x4 DUP3 ADD MSTORE PUSH1 0x2C PUSH1 0x24 DUP3 ADD MSTORE PUSH32 0x46756E6374696F6E206D7573742062652063616C6C6564207468726F75676820 PUSH1 0x44 DUP3 ADD MSTORE PUSH12 0x6163746976652070726F7879 PUSH1 0xA0 SHL PUSH1 0x64 DUP3 ADD MSTORE PUSH1 0x84 SWAP1 REVERT JUMPDEST ISZERO PUSH2 0x24EF JUMPI JUMP JUMPDEST PUSH1 0x40 MLOAD PUSH3 0x461BCD PUSH1 0xE5 SHL DUP2 MSTORE PUSH1 0x20 PUSH1 0x4 DUP3 ADD MSTORE PUSH1 0x21 PUSH1 0x24 DUP3 ADD MSTORE PUSH32 0x4F6E6C79204E465420636F6E74726163742063616E2075706461746520646562 PUSH1 0x44 DUP3 ADD MSTORE PUSH1 0x1D PUSH1 0xFA SHL PUSH1 0x64 DUP3 ADD MSTORE PUSH1 0x84 SWAP1 REVERT JUMPDEST DUP2 DUP2 MUL SWAP3 SWAP2 DUP2 ISZERO SWAP2 DUP5 DIV EQ OR ISZERO PUSH2 0x3C0 JUMPI JUMP JUMPDEST ISZERO PUSH2 0x2558 JUMPI JUMP JUMPDEST PUSH1 0x40 MLOAD PUSH3 0x461BCD PUSH1 0xE5 SHL DUP2 MSTORE PUSH1 0x20 PUSH1 0x4 DUP3 ADD MSTORE PUSH1 0x1F PUSH1 0x24 DUP3 ADD MSTORE PUSH32 0x5265656E7472616E637947756172643A207265656E7472616E742063616C6C00 PUSH1 0x44 DUP3 ADD MSTORE PUSH1 0x64 SWAP1 REVERT JUMPDEST SWAP1 DUP2 PUSH1 0x20 SWAP2 SUB SLT PUSH2 0x3BC JUMPI MLOAD PUSH1 0x1 PUSH1 0x1 PUSH1 0xA0 SHL SUB DUP2 AND DUP2 SUB PUSH2 0x3BC JUMPI SWAP1 JUMP JUMPDEST ISZERO PUSH2 0x25C3 JUMPI JUMP JUMPDEST PUSH1 0x40 MLOAD PUSH3 0x461BCD PUSH1 0xE5 SHL DUP2 MSTORE PUSH1 0x20 PUSH1 0x4 DUP3 ADD MSTORE PUSH1 0xF PUSH1 0x24 DUP3 ADD MSTORE PUSH15 0x2737BA103A37B5B2B71037BBB732B9 PUSH1 0x89 SHL PUSH1 0x44 DUP3 ADD MSTORE PUSH1 0x64 SWAP1 REVERT JUMPDEST SWAP1 DUP2 PUSH1 0x20 SWAP2 SUB SLT PUSH2 0x3BC JUMPI MLOAD DUP1 ISZERO ISZERO DUP2 SUB PUSH2 0x3BC JUMPI SWAP1 JUMP JUMPDEST ISZERO PUSH2 0x2619 JUMPI JUMP JUMPDEST PUSH1 0x40 MLOAD PUSH3 0x461BCD PUSH1 0xE5 SHL DUP2 MSTORE PUSH1 0x20 PUSH1 0x4 DUP3 ADD MSTORE PUSH1 0xE PUSH1 0x24 DUP3 ADD MSTORE PUSH14 0x27379039B430B932903837BBB2B9 PUSH1 0x91 SHL PUSH1 0x44 DUP3 ADD MSTORE PUSH1 0x64 SWAP1 REVERT JUMPDEST PUSH1 0xFB SLOAD PUSH1 0x40 MLOAD PUSH4 0x6F08BC87 PUSH1 0xE1 SHL DUP2 MSTORE PUSH1 0x4 DUP2 ADD DUP5 SWAP1 MSTORE SWAP2 SWAP1 PUSH1 0x20 SWAP1 DUP4 SWAP1 PUSH1 0x24 SWAP1 DUP3 SWAP1 PUSH1 0x1 PUSH1 0x1 PUSH1 0xA0 SHL SUB AND GAS STATICCALL SWAP2 DUP3 ISZERO PUSH2 0x60C JUMPI PUSH0 SWAP3 PUSH2 0x270F JUMPI JUMPDEST POP PUSH1 0x1 PUSH1 0x1 PUSH1 0xA0 SHL SUB AND PUSH0 DUP2 DUP2 MSTORE PUSH2 0x101 PUSH1 0x20 MSTORE PUSH1 0x40 SWAP1 KECCAK256 SLOAD SWAP1 SWAP2 PUSH8 0xDE0B6B3A7640000 SWAP2 PUSH2 0x26B9 SWAP2 PUSH2 0x253E JUMP JUMPDEST DIV SWAP2 DUP2 PUSH0 MSTORE PUSH2 0x105 PUSH1 0x20 MSTORE PUSH1 0x40 PUSH0 KECCAK256 DUP2 PUSH0 MSTORE PUSH1 0x20 MSTORE PUSH1 0x40 PUSH0 KECCAK256 SLOAD SWAP2 PUSH0 MSTORE PUSH2 0x106 PUSH1 0x20 MSTORE PUSH1 0x40 PUSH0 KECCAK256 SWAP1 PUSH0 MSTORE PUSH1 0x20 MSTORE PUSH1 0x40 PUSH0 KECCAK256 SLOAD SWAP2 DUP2 DUP2 GT PUSH2 0x26F8 JUMPI POP POP SWAP1 JUMP JUMPDEST PUSH2 0x270C SWAP3 SWAP2 PUSH2 0x2706 SWAP2 PUSH2 0x23CA JUMP JUMPDEST SWAP1 PUSH2 0x23BD JUMP JUMPDEST SWAP1 JUMP JUMPDEST SWAP1 SWAP2 POP PUSH1 0x20 DUP2 RETURNDATASIZE PUSH1 0x20 GT PUSH2 0x273D JUMPI JUMPDEST DUP2 PUSH2 0x272B PUSH1 0x20 SWAP4 DUP4 PUSH2 0x22F6 JUMP JUMPDEST DUP2 ADD SUB SLT PUSH2 0x3BC JUMPI MLOAD SWAP1 PUSH2 0x26B9 PUSH2 0x268B JUMP JUMPDEST RETURNDATASIZE SWAP2 POP PUSH2 0x271E JUMP JUMPDEST DUP1 MLOAD ISZERO PUSH2 0x415 JUMPI PUSH1 0x20 ADD SWAP1 JUMP JUMPDEST DUP1 MLOAD PUSH1 0x1 LT ISZERO PUSH2 0x415 JUMPI PUSH1 0x40 ADD SWAP1 JUMP JUMPDEST DUP1 MLOAD DUP1 DUP4 MSTORE PUSH1 0x20 SWAP3 SWAP2 DUP2 SWAP1 DUP5 ADD DUP5 DUP5 ADD MCOPY PUSH0 DUP3 DUP3 ADD DUP5 ADD MSTORE PUSH1 0x1F ADD PUSH1 0x1F NOT AND ADD ADD SWAP1 JUMP JUMPDEST ISZERO PUSH2 0x278D JUMPI JUMP JUMPDEST PUSH1 0x40 MLOAD PUSH3 0x461BCD PUSH1 0xE5 SHL DUP2 MSTORE PUSH1 0x20 PUSH1 0x4 DUP3 ADD MSTORE PUSH1 0x2B PUSH1 0x24 DUP3 ADD MSTORE PUSH32 0x496E697469616C697A61626C653A20636F6E7472616374206973206E6F742069 PUSH1 0x44 DUP3 ADD MSTORE PUSH11 0x6E697469616C697A696E67 PUSH1 0xA8 SHL PUSH1 0x64 DUP3 ADD MSTORE PUSH1 0x84 SWAP1 REVERT JUMPDEST PUSH1 0x97 SLOAD PUSH1 0x1 PUSH1 0x1 PUSH1 0xA0 SHL SUB AND CALLER SUB PUSH2 0x27FA JUMPI JUMP JUMPDEST PUSH1 0x64 PUSH1 0x40 MLOAD PUSH3 0x461BCD PUSH1 0xE5 SHL DUP2 MSTORE PUSH1 0x20 PUSH1 0x4 DUP3 ADD MSTORE PUSH1 0x20 PUSH1 0x24 DUP3 ADD MSTORE PUSH32 0x4F776E61626C653A2063616C6C6572206973206E6F7420746865206F776E6572 PUSH1 0x44 DUP3 ADD MSTORE REVERT JUMPDEST PUSH1 0x97 DUP1 SLOAD PUSH1 0x1 PUSH1 0x1 PUSH1 0xA0 SHL SUB SWAP3 DUP4 AND PUSH1 0x1 PUSH1 0x1 PUSH1 0xA0 SHL SUB NOT DUP3 AND DUP2 OR SWAP1 SWAP3 SSTORE SWAP1 SWAP2 AND PUSH32 0x8BE0079C531659141344CD1FD0A4F28419497F9722A3DAAFE3B4186F6B6457E0 PUSH0 DUP1 LOG3 JUMP JUMPDEST DUP1 EXTCODESIZE ISZERO PUSH2 0x28C2 JUMPI PUSH1 0x1 DUP1 PUSH1 0xA0 SHL SUB AND PUSH1 0x1 PUSH1 0x1 PUSH1 0x60 SHL SUB PUSH1 0xA0 SHL PUSH0 MLOAD PUSH1 0x20 PUSH2 0x2962 PUSH0 CODECOPY PUSH0 MLOAD SWAP1 PUSH0 MSTORE SLOAD AND OR PUSH0 MLOAD PUSH1 0x20 PUSH2 0x2962 PUSH0 CODECOPY PUSH0 MLOAD SWAP1 PUSH0 MSTORE SSTORE JUMP JUMPDEST PUSH1 0x40 MLOAD PUSH3 0x461BCD PUSH1 0xE5 SHL DUP2 MSTORE PUSH1 0x20 PUSH1 0x4 DUP3 ADD MSTORE PUSH1 0x2D PUSH1 0x24 DUP3 ADD MSTORE PUSH32 0x455243313936373A206E657720696D706C656D656E746174696F6E206973206E PUSH1 0x44 DUP3 ADD MSTORE PUSH13 0x1BDD08184818DBDB9D1C9858DD PUSH1 0x9A SHL PUSH1 0x64 DUP3 ADD MSTORE PUSH1 0x84 SWAP1 REVERT JUMPDEST SWAP1 SWAP2 SWAP1 ISZERO PUSH2 0x2929 JUMPI POP SWAP1 JUMP JUMPDEST DUP2 MLOAD ISZERO PUSH2 0x2939 JUMPI POP DUP1 MLOAD SWAP1 PUSH1 0x20 ADD REVERT JUMPDEST PUSH1 0x40 MLOAD PUSH3 0x461BCD PUSH1 0xE5 SHL DUP2 MSTORE PUSH1 0x20 PUSH1 0x4 DUP3 ADD MSTORE SWAP1 DUP2 SWAP1 PUSH2 0x295D SWAP1 PUSH1 0x24 DUP4 ADD SWAP1 PUSH2 0x2762 JUMP JUMPDEST SUB SWAP1 REVERT INVALID CALLDATASIZE ADDMOD SWAP5 LOG1 EXTCODESIZE LOG1 LOG3 0x21 MOD PUSH8 0xC828492DB98DCA3E KECCAK256 PUSH23 0xCC3735A920A3CA505D382BBCA264697066735822122018 0xD6 BLOBHASH BLOBHASH 0xAE 0xCC PUSH3 0xB0F267 CODECOPY SWAP3 CALLDATASIZE 0xD5 0xCD SAR DUP6 DELEGATECALL EXTCODEHASH PUSH26 0xA05B91AFCF3714763A0FBB9D64736F6C634300081B0033000000 "
        },
        "methodIdentifiers": {
          "activeBuyList(uint256)": "e18e6306",
          "claimAllDividendsFor(uint256,address)": "4443b69d",
          "claimDividends(address,uint256)": "43e9585f",
          "claimFeesFromPosition(uint256,address,address)": "fb0132d3",
          "distributeYield(address,uint256)": "bd4ba9c0",
          "executeProposal(uint256)": "0d61b519",
          "getActiveBuyList()": "745890f6",
          "getClaimableDividends(address,uint256)": "d2b91bd1",
          "getRewardTokens()": "c4f59f9b",
          "hasVoted(uint256,uint256)": "64390ff1",
          "hotfixAddRewardToken(address)": "88df1e9b",
          "hotfixAddToBuyList(address)": "a566f3ac",
          "inBuyList(address)": "c244f68c",
          "initialize(address,address)": "485cc955",
          "isRewardToken(address)": "b5fd73f8",
          "nftContract()": "d56d229d",
          "onERC721Received(address,address,uint256,bytes)": "150b7a02",
          "owner()": "8da5cb5b",
          "pendingDividends(address,uint256)": "5c3bdd88",
          "positionManager()": "791b98bc",
          "proposalCount()": "da35c664",
          "proposals(uint256)": "013cf08b",
          "propose(address,bool,uint256)": "b1276169",
          "proxiableUUID()": "52d1902d",
          "renounceOwnership()": "715018a6",
          "rewardDebt(address,uint256)": "e2d076c9",
          "rewardTokens(uint256)": "7bb7bed1",
          "setNftContract(address)": "52f5ad77",
          "setPositionManager(address)": "5760f2e3",
          "syncRewardDebt(uint256)": "3f71573e",
          "totalDividendsPerPower(address)": "cc738ac3",
          "transferOwnership(address)": "f2fde38b",
          "updateRewardDebt(uint256)": "ec3d3c31",
          "upgradeTo(address)": "3659cfe6",
          "upgradeToAndCall(address,bytes)": "4f1ef286",
          "vote(uint256,uint256,bool)": "6a18ff7a"
        }
      }
    }
  }
}