{
  "@uniswap/v4-core/src/types/Currency.sol": {
    "CurrencyLibrary": {
      "abi": [
        {
          "inputs": [],
          "name": "ERC20TransferFailed",
          "type": "error"
        },
        {
          "inputs": [],
          "name": "NativeTransferFailed",
          "type": "error"
        },
        {
          "inputs": [],
          "name": "ADDRESS_ZERO",
          "outputs": [
            {
              "internalType": "Currency",
              "name": "",
              "type": "address"
            }
          ],
          "stateMutability": "view",
          "type": "function"
        }
      ],
      "evm": {
        "bytecode": {
          "linkReferences": {},
          "object": "60808060405234601757606f9081601c823930815050f35b5f80fdfe60808060405260043610156011575f80fd5b5f3560e01c6366e79509146023575f80fd5b5f366003190112603557805f60209252f35b5f80fdfea2646970667358221220c923630094a9f1317bdd8271e9c4c961a5cc61f37413dd048dd21d53d678596f64736f6c634300081b0033",
          "opcodes": "PUSH1 0x80 DUP1 PUSH1 0x40 MSTORE CALLVALUE PUSH1 0x17 JUMPI PUSH1 0x6F SWAP1 DUP2 PUSH1 0x1C DUP3 CODECOPY ADDRESS DUP2 POP POP RETURN JUMPDEST PUSH0 DUP1 REVERT INVALID PUSH1 0x80 DUP1 PUSH1 0x40 MSTORE PUSH1 0x4 CALLDATASIZE LT ISZERO PUSH1 0x11 JUMPI PUSH0 DUP1 REVERT JUMPDEST PUSH0 CALLDATALOAD PUSH1 0xE0 SHR PUSH4 0x66E79509 EQ PUSH1 0x23 JUMPI PUSH0 DUP1 REVERT JUMPDEST PUSH0 CALLDATASIZE PUSH1 0x3 NOT ADD SLT PUSH1 0x35 JUMPI DUP1 PUSH0 PUSH1 0x20 SWAP3 MSTORE RETURN JUMPDEST PUSH0 DUP1 REVERT INVALID LOG2 PUSH5 0x6970667358 0x22 SLT KECCAK256 0xC9 0x23 PUSH4 0x94A9F1 BALANCE PUSH28 0xDD8271E9C4C961A5CC61F37413DD048DD21D53D678596F64736F6C63 NUMBER STOP ADDMOD SHL STOP CALLER "
        },
        "methodIdentifiers": {
          "ADDRESS_ZERO()": "66e79509"
        }
      }
    }
  }
}