{
  "@uniswap/v4-core/src/types/BeforeSwapDelta.sol": {
    "BeforeSwapDeltaLibrary": {
      "abi": [
        {
          "inputs": [],
          "name": "ZERO_DELTA",
          "outputs": [
            {
              "internalType": "BeforeSwapDelta",
              "name": "",
              "type": "int256"
            }
          ],
          "stateMutability": "view",
          "type": "function"
        }
      ],
      "evm": {
        "bytecode": {
          "linkReferences": {},
          "object": "60808060405234601757606f9081601c823930815050f35b5f80fdfe60808060405260043610156011575f80fd5b5f3560e01c6391cb4669146023575f80fd5b5f366003190112603557805f60209252f35b5f80fdfea264697066735822122013d82940c6030c6894064e04691eb35ed91bacb3a3ec35a37549974abc14d72464736f6c634300081b0033",
          "opcodes": "PUSH1 0x80 DUP1 PUSH1 0x40 MSTORE CALLVALUE PUSH1 0x17 JUMPI PUSH1 0x6F SWAP1 DUP2 PUSH1 0x1C DUP3 CODECOPY ADDRESS DUP2 POP POP RETURN JUMPDEST PUSH0 DUP1 REVERT INVALID PUSH1 0x80 DUP1 PUSH1 0x40 MSTORE PUSH1 0x4 CALLDATASIZE LT ISZERO PUSH1 0x11 JUMPI PUSH0 DUP1 REVERT JUMPDEST PUSH0 CALLDATALOAD PUSH1 0xE0 SHR PUSH4 0x91CB4669 EQ PUSH1 0x23 JUMPI PUSH0 DUP1 REVERT JUMPDEST PUSH0 CALLDATASIZE PUSH1 0x3 NOT ADD SLT PUSH1 0x35 JUMPI DUP1 PUSH0 PUSH1 0x20 SWAP3 MSTORE RETURN JUMPDEST PUSH0 DUP1 REVERT INVALID LOG2 PUSH5 0x6970667358 0x22 SLT KECCAK256 SGT 0xD8 0x29 BLOCKHASH 0xC6 SUB 0xC PUSH9 0x94064E04691EB35ED9 SHL 0xAC 0xB3 LOG3 0xEC CALLDATALOAD LOG3 PUSH22 0x49974ABC14D72464736F6C634300081B003300000000 "
        },
        "methodIdentifiers": {
          "ZERO_DELTA()": "91cb4669"
        }
      }
    }
  }
}