{
  "contracts/Strategy/PengoStrategyTest.sol": {
    "PengoStrategyTest": {
      "abi": [
        {
          "anonymous": false,
          "inputs": [
            {
              "indexed": false,
              "internalType": "address",
              "name": "previousAdmin",
              "type": "address"
            },
            {
              "indexed": false,
              "internalType": "address",
              "name": "newAdmin",
              "type": "address"
            }
          ],
          "name": "AdminChanged",
          "type": "event"
        },
        {
          "anonymous": false,
          "inputs": [
            {
              "indexed": true,
              "internalType": "address",
              "name": "beacon",
              "type": "address"
            }
          ],
          "name": "BeaconUpgraded",
          "type": "event"
        },
        {
          "anonymous": false,
          "inputs": [
            {
              "indexed": false,
              "internalType": "uint8",
              "name": "version",
              "type": "uint8"
            }
          ],
          "name": "Initialized",
          "type": "event"
        },
        {
          "anonymous": false,
          "inputs": [
            {
              "indexed": true,
              "internalType": "address",
              "name": "previousOwner",
              "type": "address"
            },
            {
              "indexed": true,
              "internalType": "address",
              "name": "newOwner",
              "type": "address"
            }
          ],
          "name": "OwnershipTransferred",
          "type": "event"
        },
        {
          "anonymous": false,
          "inputs": [
            {
              "indexed": true,
              "internalType": "address",
              "name": "implementation",
              "type": "address"
            }
          ],
          "name": "Upgraded",
          "type": "event"
        },
        {
          "inputs": [
            {
              "internalType": "uint256",
              "name": "",
              "type": "uint256"
            }
          ],
          "name": "activeBuyList",
          "outputs": [
            {
              "internalType": "address",
              "name": "",
              "type": "address"
            }
          ],
          "stateMutability": "view",
          "type": "function"
        },
        {
          "inputs": [
            {
              "internalType": "uint256",
              "name": "tokenId",
              "type": "uint256"
            },
            {
              "internalType": "address",
              "name": "receiver",
              "type": "address"
            }
          ],
          "name": "claimAllDividendsFor",
          "outputs": [],
          "stateMutability": "nonpayable",
          "type": "function"
        },
        {
          "inputs": [
            {
              "internalType": "address",
              "name": "rwaToken",
              "type": "address"
            },
            {
              "internalType": "uint256",
              "name": "tokenId",
              "type": "uint256"
            }
          ],
          "name": "claimDividends",
          "outputs": [],
          "stateMutability": "nonpayable",
          "type": "function"
        },
        {
          "inputs": [
            {
              "internalType": "uint256",
              "name": "lpTokenId",
              "type": "uint256"
            },
            {
              "internalType": "Currency",
              "name": "currency0",
              "type": "address"
            },
            {
              "internalType": "Currency",
              "name": "currency1",
              "type": "address"
            }
          ],
          "name": "claimFeesFromPosition",
          "outputs": [],
          "stateMutability": "nonpayable",
          "type": "function"
        },
        {
          "inputs": [
            {
              "internalType": "address",
              "name": "rwaToken",
              "type": "address"
            },
            {
              "internalType": "uint256",
              "name": "amount",
              "type": "uint256"
            }
          ],
          "name": "distributeYield",
          "outputs": [],
          "stateMutability": "nonpayable",
          "type": "function"
        },
        {
          "inputs": [
            {
              "internalType": "uint256",
              "name": "proposalId",
              "type": "uint256"
            }
          ],
          "name": "executeProposal",
          "outputs": [],
          "stateMutability": "nonpayable",
          "type": "function"
        },
        {
          "inputs": [
            {
              "internalType": "address",
              "name": "rwaToken",
              "type": "address"
            }
          ],
          "name": "forceAddRWA",
          "outputs": [],
          "stateMutability": "nonpayable",
          "type": "function"
        },
        {
          "inputs": [],
          "name": "getActiveBuyList",
          "outputs": [
            {
              "internalType": "address[]",
              "name": "",
              "type": "address[]"
            }
          ],
          "stateMutability": "view",
          "type": "function"
        },
        {
          "inputs": [
            {
              "internalType": "address",
              "name": "rwaToken",
              "type": "address"
            },
            {
              "internalType": "uint256",
              "name": "tokenId",
              "type": "uint256"
            }
          ],
          "name": "getClaimableDividends",
          "outputs": [
            {
              "internalType": "uint256",
              "name": "",
              "type": "uint256"
            }
          ],
          "stateMutability": "view",
          "type": "function"
        },
        {
          "inputs": [],
          "name": "getRewardTokens",
          "outputs": [
            {
              "internalType": "address[]",
              "name": "",
              "type": "address[]"
            }
          ],
          "stateMutability": "view",
          "type": "function"
        },
        {
          "inputs": [
            {
              "internalType": "uint256",
              "name": "",
              "type": "uint256"
            },
            {
              "internalType": "uint256",
              "name": "",
              "type": "uint256"
            }
          ],
          "name": "hasVoted",
          "outputs": [
            {
              "internalType": "bool",
              "name": "",
              "type": "bool"
            }
          ],
          "stateMutability": "view",
          "type": "function"
        },
        {
          "inputs": [
            {
              "internalType": "address",
              "name": "rwa",
              "type": "address"
            }
          ],
          "name": "hotfixAddRewardToken",
          "outputs": [],
          "stateMutability": "nonpayable",
          "type": "function"
        },
        {
          "inputs": [
            {
              "internalType": "address",
              "name": "rwa",
              "type": "address"
            }
          ],
          "name": "hotfixAddToBuyList",
          "outputs": [],
          "stateMutability": "nonpayable",
          "type": "function"
        },
        {
          "inputs": [
            {
              "internalType": "address",
              "name": "",
              "type": "address"
            }
          ],
          "name": "inBuyList",
          "outputs": [
            {
              "internalType": "bool",
              "name": "",
              "type": "bool"
            }
          ],
          "stateMutability": "view",
          "type": "function"
        },
        {
          "inputs": [
            {
              "internalType": "address",
              "name": "_nftContract",
              "type": "address"
            },
            {
              "internalType": "address",
              "name": "_positionManager",
              "type": "address"
            }
          ],
          "name": "initialize",
          "outputs": [],
          "stateMutability": "nonpayable",
          "type": "function"
        },
        {
          "inputs": [
            {
              "internalType": "address",
              "name": "",
              "type": "address"
            }
          ],
          "name": "isRewardToken",
          "outputs": [
            {
              "internalType": "bool",
              "name": "",
              "type": "bool"
            }
          ],
          "stateMutability": "view",
          "type": "function"
        },
        {
          "inputs": [],
          "name": "nftContract",
          "outputs": [
            {
              "internalType": "contract IPenguinOnchain",
              "name": "",
              "type": "address"
            }
          ],
          "stateMutability": "view",
          "type": "function"
        },
        {
          "inputs": [
            {
              "internalType": "address",
              "name": "operator",
              "type": "address"
            },
            {
              "internalType": "address",
              "name": "from",
              "type": "address"
            },
            {
              "internalType": "uint256",
              "name": "tokenId",
              "type": "uint256"
            },
            {
              "internalType": "bytes",
              "name": "data",
              "type": "bytes"
            }
          ],
          "name": "onERC721Received",
          "outputs": [
            {
              "internalType": "bytes4",
              "name": "",
              "type": "bytes4"
            }
          ],
          "stateMutability": "nonpayable",
          "type": "function"
        },
        {
          "inputs": [],
          "name": "owner",
          "outputs": [
            {
              "internalType": "address",
              "name": "",
              "type": "address"
            }
          ],
          "stateMutability": "view",
          "type": "function"
        },
        {
          "inputs": [
            {
              "internalType": "address",
              "name": "",
              "type": "address"
            },
            {
              "internalType": "uint256",
              "name": "",
              "type": "uint256"
            }
          ],
          "name": "pendingDividends",
          "outputs": [
            {
              "internalType": "uint256",
              "name": "",
              "type": "uint256"
            }
          ],
          "stateMutability": "view",
          "type": "function"
        },
        {
          "inputs": [],
          "name": "positionManager",
          "outputs": [
            {
              "internalType": "contract IPositionManager",
              "name": "",
              "type": "address"
            }
          ],
          "stateMutability": "view",
          "type": "function"
        },
        {
          "inputs": [],
          "name": "proposalCount",
          "outputs": [
            {
              "internalType": "uint256",
              "name": "",
              "type": "uint256"
            }
          ],
          "stateMutability": "view",
          "type": "function"
        },
        {
          "inputs": [
            {
              "internalType": "uint256",
              "name": "",
              "type": "uint256"
            }
          ],
          "name": "proposals",
          "outputs": [
            {
              "internalType": "address",
              "name": "rwaToken",
              "type": "address"
            },
            {
              "internalType": "bool",
              "name": "isAdd",
              "type": "bool"
            },
            {
              "internalType": "uint256",
              "name": "yesVotes",
              "type": "uint256"
            },
            {
              "internalType": "uint256",
              "name": "noVotes",
              "type": "uint256"
            },
            {
              "internalType": "uint256",
              "name": "endTime",
              "type": "uint256"
            },
            {
              "internalType": "bool",
              "name": "executed",
              "type": "bool"
            }
          ],
          "stateMutability": "view",
          "type": "function"
        },
        {
          "inputs": [
            {
              "internalType": "address",
              "name": "rwaToken",
              "type": "address"
            },
            {
              "internalType": "bool",
              "name": "isAdd",
              "type": "bool"
            },
            {
              "internalType": "uint256",
              "name": "tokenId",
              "type": "uint256"
            }
          ],
          "name": "propose",
          "outputs": [],
          "stateMutability": "nonpayable",
          "type": "function"
        },
        {
          "inputs": [],
          "name": "proxiableUUID",
          "outputs": [
            {
              "internalType": "bytes32",
              "name": "",
              "type": "bytes32"
            }
          ],
          "stateMutability": "view",
          "type": "function"
        },
        {
          "inputs": [],
          "name": "renounceOwnership",
          "outputs": [],
          "stateMutability": "nonpayable",
          "type": "function"
        },
        {
          "inputs": [
            {
              "internalType": "address",
              "name": "",
              "type": "address"
            },
            {
              "internalType": "uint256",
              "name": "",
              "type": "uint256"
            }
          ],
          "name": "rewardDebt",
          "outputs": [
            {
              "internalType": "uint256",
              "name": "",
              "type": "uint256"
            }
          ],
          "stateMutability": "view",
          "type": "function"
        },
        {
          "inputs": [
            {
              "internalType": "uint256",
              "name": "",
              "type": "uint256"
            }
          ],
          "name": "rewardTokens",
          "outputs": [
            {
              "internalType": "address",
              "name": "",
              "type": "address"
            }
          ],
          "stateMutability": "view",
          "type": "function"
        },
        {
          "inputs": [
            {
              "internalType": "address",
              "name": "_nftContract",
              "type": "address"
            }
          ],
          "name": "setNftContract",
          "outputs": [],
          "stateMutability": "nonpayable",
          "type": "function"
        },
        {
          "inputs": [
            {
              "internalType": "address",
              "name": "_positionManager",
              "type": "address"
            }
          ],
          "name": "setPositionManager",
          "outputs": [],
          "stateMutability": "nonpayable",
          "type": "function"
        },
        {
          "inputs": [
            {
              "internalType": "uint256",
              "name": "tokenId",
              "type": "uint256"
            }
          ],
          "name": "syncRewardDebt",
          "outputs": [],
          "stateMutability": "nonpayable",
          "type": "function"
        },
        {
          "inputs": [
            {
              "internalType": "address",
              "name": "",
              "type": "address"
            }
          ],
          "name": "totalDividendsPerPower",
          "outputs": [
            {
              "internalType": "uint256",
              "name": "",
              "type": "uint256"
            }
          ],
          "stateMutability": "view",
          "type": "function"
        },
        {
          "inputs": [
            {
              "internalType": "address",
              "name": "newOwner",
              "type": "address"
            }
          ],
          "name": "transferOwnership",
          "outputs": [],
          "stateMutability": "nonpayable",
          "type": "function"
        },
        {
          "inputs": [
            {
              "internalType": "uint256",
              "name": "tokenId",
              "type": "uint256"
            }
          ],
          "name": "updateRewardDebt",
          "outputs": [],
          "stateMutability": "nonpayable",
          "type": "function"
        },
        {
          "inputs": [
            {
              "internalType": "address",
              "name": "newImplementation",
              "type": "address"
            }
          ],
          "name": "upgradeTo",
          "outputs": [],
          "stateMutability": "nonpayable",
          "type": "function"
        },
        {
          "inputs": [
            {
              "internalType": "address",
              "name": "newImplementation",
              "type": "address"
            },
            {
              "internalType": "bytes",
              "name": "data",
              "type": "bytes"
            }
          ],
          "name": "upgradeToAndCall",
          "outputs": [],
          "stateMutability": "payable",
          "type": "function"
        },
        {
          "inputs": [
            {
              "internalType": "uint256",
              "name": "proposalId",
              "type": "uint256"
            },
            {
              "internalType": "uint256",
              "name": "tokenId",
              "type": "uint256"
            },
            {
              "internalType": "bool",
              "name": "support",
              "type": "bool"
            }
          ],
          "name": "vote",
          "outputs": [],
          "stateMutability": "nonpayable",
          "type": "function"
        }
      ],
      "evm": {
        "bytecode": {
          "linkReferences": {},
          "object": "60a080604052346100da57306080525f549060ff8260081c16610088575060ff8082161061004e575b6040516129cc90816100df8239608051818181611132015281816112570152611be00152f35b60ff90811916175f557f7f26b83ff96e1f2b6a682f133852f6798a09c465da95921460cefb3847402498602060405160ff8152a15f610028565b62461bcd60e51b815260206004820152602760248201527f496e697469616c697a61626c653a20636f6e747261637420697320696e697469604482015266616c697a696e6760c81b6064820152608490fd5b5f80fdfe6080806040526004361015610012575f80fd5b5f905f3560e01c908163013cf08b1461222a575080630d61b51914611f2f578063150b7a0214611ebe5780633659cfe614611bc25780633f71573e14611ad057806343e9585f146118c65780634443b69d146116d5578063485cc9551461153a5780634f1ef286146111e257806352d1902d1461112057806352f5ad77146110dd5780635760f2e3146110995780635c3bdd881461105457806364390ff1146110195780636a18ff7a14610e22578063715018a614610dc7578063745890f614610d4a578063791b98bc14610d215780637bb7bed114610cf757806388df1e9b14610cb05780638da5cb5b14610c88578063a566f3ac146106c6578063b127616914610a8a578063b5fd73f814610a4c578063bd4ba9c01461084c578063c244f68c1461080e578063c4f59f9b1461077f578063cc738ac314610746578063d2b91bd114610717578063d56d229d146106ef578063d7818cd9146106c6578063da35c664146106a9578063e18e630614610667578063e2d076c914610622578063ec3d3c31146104c3578063f2fde38b146104345763fb0132d3146101b5575f80fd5b346103c75760603660031901126103c7576101ce6122ad565b6044356001600160a01b038116908190036103c7576101f2600260c954141561251e565b600260c9556101ff6127fb565b60409081519061020f83836122c3565b6002825260208201601f19840136823782511561042057600190538151600110156104205760116021839593015360609183519161024d84846122c3565b60028352601f1984015f5b818110610410575050845160043560208201525f868201525f858201525f608082015260a0808201525f60c082015260c0815261029660e0826122c3565b61029f8461275a565b526102a98361275a565b5084516001600160a01b0390921660208301528185015230838201528281526102d36080826122c3565b6102dc82612767565b526102e681612767565b5060018060a01b0361010754169161030a8451958692866020850152830190612777565b91601f198284030185830152805180845260208401936020808360051b8301019301945f915b8383106103df575050505061034e925003601f1981018552846122c3565b61012c4201928342116103cb57813b156103c7575f9161038b9183855180978195829463dd46508f60e01b84528960048501526044840190612777565b90602483015203925af19081156103be57506103ab575b50600160c95580f35b6103b791505f906122c3565b5f5f6103a2565b513d5f823e3d90fd5b5f80fd5b634e487b7160e01b5f52601160045260245ffd5b919360019193955060206103fe8192601f198682030187528951612777565b97019301930190928894929593610330565b6020818601810187905201610258565b634e487b7160e01b5f52603260045260245ffd5b346103c75760203660031901126103c75761044d612297565b6104556127fb565b6001600160a01b0381161561046f5761046d90612853565b005b60405162461bcd60e51b815260206004820152602660248201527f4f776e61626c653a206e6577206f776e657220697320746865207a65726f206160448201526564647265737360d01b6064820152608490fd5b346103c75760203660031901126103c75760fb54600435906024906020906001600160a01b03166104f53382146124b5565b60405192838092636f08bc8760e11b82528660048301525afa908115610617575f916105e5575b505f5b6101035481101561046d578061053660019261235b565b838060a01b0391549060031b1c16805f52610101602052670de0b6b3a764000061059260405f205482610569828961250b565b04845f5261010560205260405f20895f5260205260405f20548082116105b1575b50508661250b565b04905f5261010560205260405f20855f5260205260405f20550161051f565b6105ba91612397565b845f5261010660205260405f20895f526020526105dc60405f2091825461238a565b9055888061058a565b90506020813d60201161060f575b81610600602093836122c3565b810103126103c757518261051c565b3d91506105f3565b6040513d5f823e3d90fd5b346103c75760403660031901126103c7576001600160a01b03610643612297565b165f5261010560205260405f206024355f52602052602060405f2054604051908152f35b346103c75760203660031901126103c75760043560ff548110156103c757610690602091612343565b905460405160039290921b1c6001600160a01b03168152f35b346103c7575f3660031901126103c757602060fd54604051908152f35b346103c75760203660031901126103c75761046d6106e2612297565b6106ea6127fb565b61261c565b346103c7575f3660031901126103c75760fb546040516001600160a01b039091168152602090f35b346103c75760403660031901126103c757602061073e610735612297565b60243590612664565b604051908152f35b346103c75760203660031901126103c7576001600160a01b03610767612297565b165f52610101602052602060405f2054604051908152f35b346103c7575f3660031901126103c757604051806020610103549182815201906101035f527f02c297ab74aad0aede3a1895c857b1f2c71e6a203feb727bec95ac752998cb78905f5b8181106107ef576107eb856107df818703826122c3565b60405191829182612301565b0390f35b82546001600160a01b03168452602090930192600192830192016107c8565b346103c75760203660031901126103c7576001600160a01b0361082f612297565b165f52610100602052602060ff60405f2054166040519015158152f35b346103c75760403660031901126103c757610865612297565b6001600160a01b0381165f81815261010060205260409020549091906024359060ff1615610a115760fb5460405163aed96b5960e01b81529190602090839060049082906001600160a01b03165afa918215610617575f926109dd575b5081156109a0576040516323b872dd60e01b8152336004820152306024820152604481018290526020816064815f895af1801561061757610973575b50670de0b6b3a7640000810290808204670de0b6b3a764000014901517156103cb5704825f5261010160205261093960405f2091825461238a565b9055815f5261010460205260ff60405f2054161561095357005b61046d915f5261010460205260405f20600160ff198254161790556123cb565b6109949060203d602011610999575b61098c81836122c3565b8101906125c7565b6108fe565b503d610982565b60405162461bcd60e51b81526020600482015260156024820152744e6f20736861726520706f7765722065786973747360581b6044820152606490fd5b9091506020813d602011610a09575b816109f9602093836122c3565b810103126103c7575190846108c2565b3d91506109ec565b60405162461bcd60e51b81526020600482015260136024820152724e6f7420616e20617070726f7665642052574160681b6044820152606490fd5b346103c75760203660031901126103c7576001600160a01b03610a6d612297565b165f52610104602052602060ff60405f2054166040519015158152f35b346103c75760603660031901126103c757610aa3612297565b602435908115158092036103c75760fb546040516331a9108f60e11b8152604435600482018190526001600160a01b0390921691602082602481865afa91821561061757602092610b06915f91610c5b575b506001600160a01b03163314612589565b602460405180948193636f08bc8760e11b835260048301525afa8015610617575f90610c27575b610b39915015156125df565b60fd545f1981146103cb57600101918260fd556203f48042018042116103cb576040519160c083019383851067ffffffffffffffff861117610c135760049460405260018060a01b0316835260208301908152604083015f815260608401915f83526080850193845260a08501965f88525f5260fc60205260405f209460018060a01b039051166001600160601b0360a01b86541617855551151584549060ff60a01b9060a01b169060ff60a01b1916178455516001840155516002830155516003820155019051151560ff801983541691161790555f80f35b634e487b7160e01b5f52604160045260245ffd5b506020813d602011610c53575b81610c41602093836122c3565b810103126103c757610b399051610b2d565b3d9150610c34565b610c7b9150843d8611610c81575b610c7381836122c3565b81019061256a565b87610af5565b503d610c69565b346103c7575f3660031901126103c7576097546040516001600160a01b039091168152602090f35b346103c75760203660031901126103c757610cc9612297565b610cd16127fb565b6001600160a01b0381165f818152610104602052604090205490919060ff161561095357005b346103c75760203660031901126103c757600435610103548110156103c75761069060209161235b565b346103c7575f3660031901126103c757610107546040516001600160a01b039091168152602090f35b346103c7575f3660031901126103c75760405180602060ff5491828152019060ff5f527fe08ec2af2cfc251225e1968fd6ca21e4044f129bffa95bac3503be8bdb30a367905f5b818110610da8576107eb856107df818703826122c3565b82546001600160a01b0316845260209093019260019283019201610d91565b346103c7575f3660031901126103c757610ddf6127fb565b609780546001600160a01b031981169091555f906001600160a01b03167f8be0079c531659141344cd1fd0a4f28419497f9722a3daafe3b4186f6b6457e08280a3005b346103c75760603660031901126103c75760243560043560443580151581036103c75760fb546040516331a9108f60e11b8152600481018590526001600160a01b039091169390602081602481885afa801561061757610e93915f91610ffa57506001600160a01b03163314612589565b825f5260fe60205260405f20815f5260205260ff60405f205416610fc557825f5260fc602052600360405f200154421015610f9157602060249460405195868092636f08bc8760e11b82528560048301525afa938415610617575f94610f5d575b50610f008415156125df565b825f5260fe60205260405f20905f5260205260405f20600160ff198254161790555f14610f44575f5260fc602052610f40600160405f200191825461238a565b9055005b5f5260fc602052610f40600260405f200191825461238a565b9093506020813d602011610f89575b81610f79602093836122c3565b810103126103c757519284610ef4565b3d9150610f6c565b60405162461bcd60e51b815260206004820152600c60248201526b159bdd1a5b99c8195b99195960a21b6044820152606490fd5b60405162461bcd60e51b815260206004820152600d60248201526c105b1c9958591e481d9bdd1959609a1b6044820152606490fd5b611013915060203d602011610c8157610c7381836122c3565b86610af5565b346103c75760403660031901126103c7576004355f5260fe60205260405f206024355f52602052602060ff60405f2054166040519015158152f35b346103c75760403660031901126103c7576001600160a01b03611075612297565b165f5261010660205260405f206024355f52602052602060405f2054604051908152f35b346103c75760203660031901126103c7576110b2612297565b6110ba6127fb565b61010780546001600160a01b0319166001600160a01b0392909216919091179055005b346103c75760203660031901126103c7576110f6612297565b6110fe6127fb565b60fb80546001600160a01b0319166001600160a01b0392909216919091179055005b346103c7575f3660031901126103c7577f00000000000000000000000000000000000000000000000000000000000000006001600160a01b031630036111775760206040515f5160206129775f395f51905f528152f35b60405162461bcd60e51b815260206004820152603860248201527f555550535570677261646561626c653a206d757374206e6f742062652063616c60448201527f6c6564207468726f7567682064656c656761746563616c6c00000000000000006064820152608490fd5b60403660031901126103c7576111f6612297565b60243567ffffffffffffffff81116103c757366023820112156103c7578060040135611221816122e5565b9061122f60405192836122c3565b808252602082019236602483830101116103c757815f926024602093018637830101526112a97f00000000000000000000000000000000000000000000000000000000000000006001600160a01b031661128b308214156123f3565b5f5160206129775f395f51905f52546001600160a01b031614612454565b6112b16127fb565b7f4910fdfa16fed3260ed0e7147f7cc6da11a60208b5b9406d12a635614ffd91435460ff16156112e657505061046d9061289b565b6040516352d1902d60e01b81526001600160a01b03841690602081600481855afa5f9181611506575b506113705760405162461bcd60e51b815260206004820152602e60248201527f45524331393637557067726164653a206e657720696d706c656d656e7461746960448201526d6f6e206973206e6f74205555505360901b6064820152608490fd5b5f5160206129775f395f51905f52036114af5761138c8461289b565b604051907fbc7cd75a20ee27fd9adebab32041f755214dbc6bffa90cc0225b39da2e5c2d3b5f80a28151158015906114a7575b6113c557005b833b15611456575061046d925f92839251915af43d1561144f573d6113e9816122e5565b906113f760405192836122c3565b81523d5f602083013e5b604051916114106060846122c3565b602783527f416464726573733a206c6f772d6c6576656c2064656c65676174652063616c6c6020840152660819985a5b195960ca1b6040840152612932565b6060611401565b62461bcd60e51b815260206004820152602660248201527f416464726573733a2064656c65676174652063616c6c20746f206e6f6e2d636f6044820152651b9d1c9858dd60d21b6064820152608490fd5b5060016113bf565b60405162461bcd60e51b815260206004820152602960248201527f45524331393637557067726164653a20756e737570706f727465642070726f786044820152681a58589b195555525160ba1b6064820152608490fd5b9091506020813d602011611532575b81611522602093836122c3565b810103126103c75751908661130f565b3d9150611515565b346103c75760403660031901126103c757611553612297565b61155b6122ad565b5f549060ff8260081c1615918280936116c8575b80156116b1575b156116555760ff1981166001175f5582611644575b506115a560ff5f5460081c166115a08161279b565b61279b565b6115ae33612853565b5f54926115cd60ff8560081c166115c48161279b565b6115a08161279b565b600160c95560018060a01b03166001600160601b0360a01b60fb54161760fb5560018060a01b03166001600160601b0360a01b6101075416176101075561161057005b61ff0019165f557f7f26b83ff96e1f2b6a682f133852f6798a09c465da95921460cefb3847402498602060405160018152a1005b61ffff1916610101175f558361158b565b60405162461bcd60e51b815260206004820152602e60248201527f496e697469616c697a61626c653a20636f6e747261637420697320616c72656160448201526d191e481a5b9a5d1a585b1a5e995960921b6064820152608490fd5b50303b1580156115765750600160ff821614611576565b50600160ff82161061156f565b346103c75760403660031901126103c7576004356116f16122ad565b611700600260c954141561251e565b600260c95560fb546001600160a01b0316913383900361188257602060249360405194858092636f08bc8760e11b82528560048301525afa928315610617575f9361184e575b505f5b610103548110156118475761175d8161235b565b905460039190911b1c6001600160a01b03169061177a8383612664565b8061178b575b506001915001611749565b611816836020925f95865261010684526040862087875284528560408120558186526101018452670de0b6b3a76400006117c960408820548b61250b565b838852610105865260408089208a8a528752808920929091049091555163a9059cbb60e01b81526001600160a01b0389166004820152602481019190915294859283919082906044820190565b03925af19182156106175760019215611780576118409060203d81116109995761098c81836122c3565b5085611780565b600160c955005b9092506020813d60201161187a575b8161186a602093836122c3565b810103126103c757519183611746565b3d915061185d565b606460405162461bcd60e51b815260206004820152602060248201527f4f6e6c79204e465420636f6e74726163742063616e206175746f2d73776565706044820152fd5b346103c75760403660031901126103c7576118df612297565b6024356118f1600260c954141561251e565b600260c95560fb546040516331a9108f60e11b8152600481018390526001600160a01b039091169190602081602481865afa801561061757611944915f91611ab157506001600160a01b03163314612589565b61194e8184612664565b928315611a7857602060249360405194858092636f08bc8760e11b82528660048301525afa928315610617575f93611a42575b50915f93611a0e92670de0b6b3a76400006119cb60209660018060a01b031694858952610106885260408920848a528852886040812055858952610101885260408920549061250b565b8488526101058752604080892093895292875282882091900490555163a9059cbb60e01b8152336004820152602481019190915293849283919082906044820190565b03925af1801561061757611a2357600160c955005b611a3b9060203d6020116109995761098c81836122c3565b5080611847565b9192506020823d602011611a70575b81611a5e602093836122c3565b810103126103c757905191905f611981565b3d9150611a51565b60405162461bcd60e51b8152602060048201526011602482015270139bc8191a5d9a59195b991cc81bddd959607a1b6044820152606490fd5b611aca915060203d602011610c8157610c7381836122c3565b85610af5565b346103c75760203660031901126103c75760fb54600435906024906020906001600160a01b0316611b023382146124b5565b60405192838092636f08bc8760e11b82528660048301525afa908115610617575f91611b90575b505f5b6101035481101561046d5780611b4360019261235b565b838060a01b0391549060031b1c16805f52610101602052670de0b6b3a7640000611b7160405f20548661250b565b04905f5261010560205260405f20855f5260205260405f205501611b2c565b90506020813d602011611bba575b81611bab602093836122c3565b810103126103c7575182611b29565b3d9150611b9e565b346103c75760203660031901126103c757611bdb612297565b611c147f00000000000000000000000000000000000000000000000000000000000000006001600160a01b031661128b308214156123f3565b611c1c6127fb565b602090604051611c2c83826122c3565b5f815282810190601f1984013683377f4910fdfa16fed3260ed0e7147f7cc6da11a60208b5b9406d12a635614ffd91435460ff1615611c7157505061046d915061289b565b6040516352d1902d60e01b81526001600160a01b038416908581600481855afa5f9181611e8f575b50611cfa5760405162461bcd60e51b815260048101879052602e60248201527f45524331393637557067726164653a206e657720696d706c656d656e7461746960448201526d6f6e206973206e6f74205555505360901b6064820152608490fd5b5f5160206129775f395f51905f5203611e3857611d168461289b565b604051907fbc7cd75a20ee27fd9adebab32041f755214dbc6bffa90cc0225b39da2e5c2d3b5f80a2815115801590611e31575b611d4f57005b833b15611de0575061046d93925f92839251915af43d15611dd8573d90611d75826122e5565b91611d8360405193846122c3565b82523d5f8484013e5b7f416464726573733a206c6f772d6c6576656c2064656c65676174652063616c6c60405193611dbc6060866122c3565b60278552840152660819985a5b195960ca1b6040840152612932565b606090611d8c565b62461bcd60e51b815260048101859052602660248201527f416464726573733a2064656c65676174652063616c6c20746f206e6f6e2d636f6044820152651b9d1c9858dd60d21b6064820152608490fd5b505f611d49565b60405162461bcd60e51b815260048101869052602960248201527f45524331393637557067726164653a20756e737570706f727465642070726f786044820152681a58589b195555525160ba1b6064820152608490fd5b9091508681813d8311611eb7575b611ea781836122c3565b810103126103c757519087611c99565b503d611e9d565b346103c75760803660031901126103c757611ed7612297565b50611ee06122ad565b5060643567ffffffffffffffff81116103c757366023820112156103c757806004013567ffffffffffffffff81116103c757369101602401116103c757604051630a85bd0160e11b8152602090f35b346103c75760203660031901126103c7576004355f5260fc60205260405f206004602060018060a01b0360fb54166040519283809263aed96b5960e01b82525afa908115610617575f916121f8575b5060011c600181018091116103cb5760038201544210908115916121e9575b50156121925760048101805460ff811661215a5760019060ff19161790556001810154600282015410611fcc57005b805460ff8160a01c16808091612137575b1561201657505080546001600160a01b039081165f90815261010060205260409020805460ff19166001179055905461046d91166123a4565b1580612115575b61202357005b6001600160a01b03165f90815261010060205260408120805460ff191690555b60ff548082101561046d5761205782612343565b9054845460039290921b1c6001600160a01b0390811691161461207d5750600101612043565b5f198101925082116103cb576120b06120986120d493612343565b905460039190911b1c6001600160a01b031691612343565b81546001600160a01b0393841660039290921b91821b9390911b1916919091179055565b60ff548015612101575f19016120e981612343565b81549060018060a01b039060031b1b1916905560ff55005b634e487b7160e01b5f52603160045260245ffd5b506001600160a01b0381165f908152610100602052604090205460ff1661201d565b506001600160a01b0382165f908152610100602052604090205460ff1615611fdd565b60405162461bcd60e51b815260206004820152601060248201526f105b1c9958591e48195e1958dd5d195960821b6044820152606490fd5b60405162461bcd60e51b815260206004820152602960248201527f566f74696e67206e6f7420656e64656420616e64206e6f206162736f6c757465604482015268206d616a6f7269747960b81b6064820152608490fd5b90506001820154101582611f9d565b90506020813d602011612222575b81612213602093836122c3565b810103126103c7575182611f7e565b3d9150612206565b346103c75760203660031901126103c75760c0906004355f5260fc60205260405f20805490600181015460028201549060ff8060046003860154950154169460018060a01b038116875260a01c1615156020860152604085015260608401526080830152151560a0820152f35b600435906001600160a01b03821682036103c757565b602435906001600160a01b03821682036103c757565b90601f8019910116810190811067ffffffffffffffff821117610c1357604052565b67ffffffffffffffff8111610c1357601f01601f191660200190565b60206040818301928281528451809452019201905f5b8181106123245750505090565b82516001600160a01b0316845260209384019390920191600101612317565b60ff548110156104205760ff5f5260205f2001905f90565b61010354811015610420576101035f5260205f2001905f90565b8054821015610420575f5260205f2001905f90565b919082018092116103cb57565b919082039182116103cb57565b60ff5490600160401b821015610c13576120b08260016123c9940160ff5560ff612375565b565b6101035490600160401b821015610c13576120b08260016123c9940161010355610103612375565b156123fa57565b60405162461bcd60e51b815260206004820152602c60248201527f46756e6374696f6e206d7573742062652063616c6c6564207468726f7567682060448201526b19195b1959d85d1958d85b1b60a21b6064820152608490fd5b1561245b57565b60405162461bcd60e51b815260206004820152602c60248201527f46756e6374696f6e206d7573742062652063616c6c6564207468726f7567682060448201526b6163746976652070726f787960a01b6064820152608490fd5b156124bc57565b60405162461bcd60e51b815260206004820152602160248201527f4f6e6c79204e465420636f6e74726163742063616e20757064617465206465626044820152601d60fa1b6064820152608490fd5b818102929181159184041417156103cb57565b1561252557565b60405162461bcd60e51b815260206004820152601f60248201527f5265656e7472616e637947756172643a207265656e7472616e742063616c6c006044820152606490fd5b908160209103126103c757516001600160a01b03811681036103c75790565b1561259057565b60405162461bcd60e51b815260206004820152600f60248201526e2737ba103a37b5b2b71037bbb732b960891b6044820152606490fd5b908160209103126103c7575180151581036103c75790565b156125e657565b60405162461bcd60e51b815260206004820152600e60248201526d27379039b430b932903837bbb2b960911b6044820152606490fd5b6001600160a01b0381165f818152610100602052604090205490919060ff1615612644575050565b6123c9915f5261010060205260405f20600160ff198254161790556123a4565b60fb54604051636f08bc8760e11b8152600481018490529190602090839060249082906001600160a01b03165afa918215610617575f92612724575b506001600160a01b03165f81815261010160205260409020549091670de0b6b3a7640000916126ce9161250b565b0491815f5261010560205260405f20815f5260205260405f2054915f5261010660205260405f20905f5260205260405f20549181811161270d57505090565b612721929161271b91612397565b9061238a565b90565b9091506020813d602011612752575b81612740602093836122c3565b810103126103c75751906126ce6126a0565b3d9150612733565b8051156104205760200190565b8051600110156104205760400190565b805180835260209291819084018484015e5f828201840152601f01601f1916010190565b156127a257565b60405162461bcd60e51b815260206004820152602b60248201527f496e697469616c697a61626c653a20636f6e7472616374206973206e6f74206960448201526a6e697469616c697a696e6760a81b6064820152608490fd5b6097546001600160a01b0316330361280f57565b606460405162461bcd60e51b815260206004820152602060248201527f4f776e61626c653a2063616c6c6572206973206e6f7420746865206f776e65726044820152fd5b609780546001600160a01b039283166001600160a01b0319821681179092559091167f8be0079c531659141344cd1fd0a4f28419497f9722a3daafe3b4186f6b6457e05f80a3565b803b156128d75760018060a01b03166001600160601b0360a01b5f5160206129775f395f51905f525416175f5160206129775f395f51905f5255565b60405162461bcd60e51b815260206004820152602d60248201527f455243313936373a206e657720696d706c656d656e746174696f6e206973206e60448201526c1bdd08184818dbdb9d1c9858dd609a1b6064820152608490fd5b9091901561293e575090565b81511561294e5750805190602001fd5b60405162461bcd60e51b815260206004820152908190612972906024830190612777565b0390fdfe360894a13ba1a3210667c828492db98dca3e2076cc3735a920a3ca505d382bbca2646970667358221220eb2c34f0276217dbe4fe316f9890102b31704724102059b60479b2dcbafe233964736f6c634300081b0033",
          "opcodes": "PUSH1 0xA0 DUP1 PUSH1 0x40 MSTORE CALLVALUE PUSH2 0xDA JUMPI ADDRESS PUSH1 0x80 MSTORE PUSH0 SLOAD SWAP1 PUSH1 0xFF DUP3 PUSH1 0x8 SHR AND PUSH2 0x88 JUMPI POP PUSH1 0xFF DUP1 DUP3 AND LT PUSH2 0x4E JUMPI JUMPDEST PUSH1 0x40 MLOAD PUSH2 0x29CC SWAP1 DUP2 PUSH2 0xDF DUP3 CODECOPY PUSH1 0x80 MLOAD DUP2 DUP2 DUP2 PUSH2 0x1132 ADD MSTORE DUP2 DUP2 PUSH2 0x1257 ADD MSTORE PUSH2 0x1BE0 ADD MSTORE RETURN JUMPDEST PUSH1 0xFF SWAP1 DUP2 NOT AND OR PUSH0 SSTORE PUSH32 0x7F26B83FF96E1F2B6A682F133852F6798A09C465DA95921460CEFB3847402498 PUSH1 0x20 PUSH1 0x40 MLOAD PUSH1 0xFF DUP2 MSTORE LOG1 PUSH0 PUSH2 0x28 JUMP JUMPDEST PUSH3 0x461BCD PUSH1 0xE5 SHL DUP2 MSTORE PUSH1 0x20 PUSH1 0x4 DUP3 ADD MSTORE PUSH1 0x27 PUSH1 0x24 DUP3 ADD MSTORE PUSH32 0x496E697469616C697A61626C653A20636F6E747261637420697320696E697469 PUSH1 0x44 DUP3 ADD MSTORE PUSH7 0x616C697A696E67 PUSH1 0xC8 SHL PUSH1 0x64 DUP3 ADD MSTORE PUSH1 0x84 SWAP1 REVERT JUMPDEST PUSH0 DUP1 REVERT INVALID PUSH1 0x80 DUP1 PUSH1 0x40 MSTORE PUSH1 0x4 CALLDATASIZE LT ISZERO PUSH2 0x12 JUMPI PUSH0 DUP1 REVERT JUMPDEST PUSH0 SWAP1 PUSH0 CALLDATALOAD PUSH1 0xE0 SHR SWAP1 DUP2 PUSH4 0x13CF08B EQ PUSH2 0x222A JUMPI POP DUP1 PUSH4 0xD61B519 EQ PUSH2 0x1F2F JUMPI DUP1 PUSH4 0x150B7A02 EQ PUSH2 0x1EBE JUMPI DUP1 PUSH4 0x3659CFE6 EQ PUSH2 0x1BC2 JUMPI DUP1 PUSH4 0x3F71573E EQ PUSH2 0x1AD0 JUMPI DUP1 PUSH4 0x43E9585F EQ PUSH2 0x18C6 JUMPI DUP1 PUSH4 0x4443B69D EQ PUSH2 0x16D5 JUMPI DUP1 PUSH4 0x485CC955 EQ PUSH2 0x153A JUMPI DUP1 PUSH4 0x4F1EF286 EQ PUSH2 0x11E2 JUMPI DUP1 PUSH4 0x52D1902D EQ PUSH2 0x1120 JUMPI DUP1 PUSH4 0x52F5AD77 EQ PUSH2 0x10DD JUMPI DUP1 PUSH4 0x5760F2E3 EQ PUSH2 0x1099 JUMPI DUP1 PUSH4 0x5C3BDD88 EQ PUSH2 0x1054 JUMPI DUP1 PUSH4 0x64390FF1 EQ PUSH2 0x1019 JUMPI DUP1 PUSH4 0x6A18FF7A EQ PUSH2 0xE22 JUMPI DUP1 PUSH4 0x715018A6 EQ PUSH2 0xDC7 JUMPI DUP1 PUSH4 0x745890F6 EQ PUSH2 0xD4A JUMPI DUP1 PUSH4 0x791B98BC EQ PUSH2 0xD21 JUMPI DUP1 PUSH4 0x7BB7BED1 EQ PUSH2 0xCF7 JUMPI DUP1 PUSH4 0x88DF1E9B EQ PUSH2 0xCB0 JUMPI DUP1 PUSH4 0x8DA5CB5B EQ PUSH2 0xC88 JUMPI DUP1 PUSH4 0xA566F3AC EQ PUSH2 0x6C6 JUMPI DUP1 PUSH4 0xB1276169 EQ PUSH2 0xA8A JUMPI DUP1 PUSH4 0xB5FD73F8 EQ PUSH2 0xA4C JUMPI DUP1 PUSH4 0xBD4BA9C0 EQ PUSH2 0x84C JUMPI DUP1 PUSH4 0xC244F68C EQ PUSH2 0x80E JUMPI DUP1 PUSH4 0xC4F59F9B EQ PUSH2 0x77F JUMPI DUP1 PUSH4 0xCC738AC3 EQ PUSH2 0x746 JUMPI DUP1 PUSH4 0xD2B91BD1 EQ PUSH2 0x717 JUMPI DUP1 PUSH4 0xD56D229D EQ PUSH2 0x6EF JUMPI DUP1 PUSH4 0xD7818CD9 EQ PUSH2 0x6C6 JUMPI DUP1 PUSH4 0xDA35C664 EQ PUSH2 0x6A9 JUMPI DUP1 PUSH4 0xE18E6306 EQ PUSH2 0x667 JUMPI DUP1 PUSH4 0xE2D076C9 EQ PUSH2 0x622 JUMPI DUP1 PUSH4 0xEC3D3C31 EQ PUSH2 0x4C3 JUMPI DUP1 PUSH4 0xF2FDE38B EQ PUSH2 0x434 JUMPI PUSH4 0xFB0132D3 EQ PUSH2 0x1B5 JUMPI PUSH0 DUP1 REVERT JUMPDEST CALLVALUE PUSH2 0x3C7 JUMPI PUSH1 0x60 CALLDATASIZE PUSH1 0x3 NOT ADD SLT PUSH2 0x3C7 JUMPI PUSH2 0x1CE PUSH2 0x22AD JUMP JUMPDEST PUSH1 0x44 CALLDATALOAD PUSH1 0x1 PUSH1 0x1 PUSH1 0xA0 SHL SUB DUP2 AND SWAP1 DUP2 SWAP1 SUB PUSH2 0x3C7 JUMPI PUSH2 0x1F2 PUSH1 0x2 PUSH1 0xC9 SLOAD EQ ISZERO PUSH2 0x251E JUMP JUMPDEST PUSH1 0x2 PUSH1 0xC9 SSTORE PUSH2 0x1FF PUSH2 0x27FB JUMP JUMPDEST PUSH1 0x40 SWAP1 DUP2 MLOAD SWAP1 PUSH2 0x20F DUP4 DUP4 PUSH2 0x22C3 JUMP JUMPDEST PUSH1 0x2 DUP3 MSTORE PUSH1 0x20 DUP3 ADD PUSH1 0x1F NOT DUP5 ADD CALLDATASIZE DUP3 CALLDATACOPY DUP3 MLOAD ISZERO PUSH2 0x420 JUMPI PUSH1 0x1 SWAP1 MSTORE8 DUP2 MLOAD PUSH1 0x1 LT ISZERO PUSH2 0x420 JUMPI PUSH1 0x11 PUSH1 0x21 DUP4 SWAP6 SWAP4 ADD MSTORE8 PUSH1 0x60 SWAP2 DUP4 MLOAD SWAP2 PUSH2 0x24D DUP5 DUP5 PUSH2 0x22C3 JUMP JUMPDEST PUSH1 0x2 DUP4 MSTORE PUSH1 0x1F NOT DUP5 ADD PUSH0 JUMPDEST DUP2 DUP2 LT PUSH2 0x410 JUMPI POP POP DUP5 MLOAD PUSH1 0x4 CALLDATALOAD PUSH1 0x20 DUP3 ADD MSTORE PUSH0 DUP7 DUP3 ADD MSTORE PUSH0 DUP6 DUP3 ADD MSTORE PUSH0 PUSH1 0x80 DUP3 ADD MSTORE PUSH1 0xA0 DUP1 DUP3 ADD MSTORE PUSH0 PUSH1 0xC0 DUP3 ADD MSTORE PUSH1 0xC0 DUP2 MSTORE PUSH2 0x296 PUSH1 0xE0 DUP3 PUSH2 0x22C3 JUMP JUMPDEST PUSH2 0x29F DUP5 PUSH2 0x275A JUMP JUMPDEST MSTORE PUSH2 0x2A9 DUP4 PUSH2 0x275A JUMP JUMPDEST POP DUP5 MLOAD PUSH1 0x1 PUSH1 0x1 PUSH1 0xA0 SHL SUB SWAP1 SWAP3 AND PUSH1 0x20 DUP4 ADD MSTORE DUP2 DUP6 ADD MSTORE ADDRESS DUP4 DUP3 ADD MSTORE DUP3 DUP2 MSTORE PUSH2 0x2D3 PUSH1 0x80 DUP3 PUSH2 0x22C3 JUMP JUMPDEST PUSH2 0x2DC DUP3 PUSH2 0x2767 JUMP JUMPDEST MSTORE PUSH2 0x2E6 DUP2 PUSH2 0x2767 JUMP JUMPDEST POP PUSH1 0x1 DUP1 PUSH1 0xA0 SHL SUB PUSH2 0x107 SLOAD AND SWAP2 PUSH2 0x30A DUP5 MLOAD SWAP6 DUP7 SWAP3 DUP7 PUSH1 0x20 DUP6 ADD MSTORE DUP4 ADD SWAP1 PUSH2 0x2777 JUMP JUMPDEST SWAP2 PUSH1 0x1F NOT DUP3 DUP5 SUB ADD DUP6 DUP4 ADD MSTORE DUP1 MLOAD DUP1 DUP5 MSTORE PUSH1 0x20 DUP5 ADD SWAP4 PUSH1 0x20 DUP1 DUP4 PUSH1 0x5 SHL DUP4 ADD ADD SWAP4 ADD SWAP5 PUSH0 SWAP2 JUMPDEST DUP4 DUP4 LT PUSH2 0x3DF JUMPI POP POP POP POP PUSH2 0x34E SWAP3 POP SUB PUSH1 0x1F NOT DUP2 ADD DUP6 MSTORE DUP5 PUSH2 0x22C3 JUMP JUMPDEST PUSH2 0x12C TIMESTAMP ADD SWAP3 DUP4 TIMESTAMP GT PUSH2 0x3CB JUMPI DUP2 EXTCODESIZE ISZERO PUSH2 0x3C7 JUMPI PUSH0 SWAP2 PUSH2 0x38B SWAP2 DUP4 DUP6 MLOAD DUP1 SWAP8 DUP2 SWAP6 DUP3 SWAP5 PUSH4 0xDD46508F PUSH1 0xE0 SHL DUP5 MSTORE DUP10 PUSH1 0x4 DUP6 ADD MSTORE PUSH1 0x44 DUP5 ADD SWAP1 PUSH2 0x2777 JUMP JUMPDEST SWAP1 PUSH1 0x24 DUP4 ADD MSTORE SUB SWAP3 GAS CALL SWAP1 DUP2 ISZERO PUSH2 0x3BE JUMPI POP PUSH2 0x3AB JUMPI JUMPDEST POP PUSH1 0x1 PUSH1 0xC9 SSTORE DUP1 RETURN JUMPDEST PUSH2 0x3B7 SWAP2 POP PUSH0 SWAP1 PUSH2 0x22C3 JUMP JUMPDEST PUSH0 PUSH0 PUSH2 0x3A2 JUMP JUMPDEST MLOAD RETURNDATASIZE PUSH0 DUP3 RETURNDATACOPY RETURNDATASIZE SWAP1 REVERT JUMPDEST PUSH0 DUP1 REVERT JUMPDEST PUSH4 0x4E487B71 PUSH1 0xE0 SHL PUSH0 MSTORE PUSH1 0x11 PUSH1 0x4 MSTORE PUSH1 0x24 PUSH0 REVERT JUMPDEST SWAP2 SWAP4 PUSH1 0x1 SWAP2 SWAP4 SWAP6 POP PUSH1 0x20 PUSH2 0x3FE DUP2 SWAP3 PUSH1 0x1F NOT DUP7 DUP3 SUB ADD DUP8 MSTORE DUP10 MLOAD PUSH2 0x2777 JUMP JUMPDEST SWAP8 ADD SWAP4 ADD SWAP4 ADD SWAP1 SWAP3 DUP9 SWAP5 SWAP3 SWAP6 SWAP4 PUSH2 0x330 JUMP JUMPDEST PUSH1 0x20 DUP2 DUP7 ADD DUP2 ADD DUP8 SWAP1 MSTORE ADD PUSH2 0x258 JUMP JUMPDEST PUSH4 0x4E487B71 PUSH1 0xE0 SHL PUSH0 MSTORE PUSH1 0x32 PUSH1 0x4 MSTORE PUSH1 0x24 PUSH0 REVERT JUMPDEST CALLVALUE PUSH2 0x3C7 JUMPI PUSH1 0x20 CALLDATASIZE PUSH1 0x3 NOT ADD SLT PUSH2 0x3C7 JUMPI PUSH2 0x44D PUSH2 0x2297 JUMP JUMPDEST PUSH2 0x455 PUSH2 0x27FB JUMP JUMPDEST PUSH1 0x1 PUSH1 0x1 PUSH1 0xA0 SHL SUB DUP2 AND ISZERO PUSH2 0x46F JUMPI PUSH2 0x46D SWAP1 PUSH2 0x2853 JUMP JUMPDEST STOP JUMPDEST PUSH1 0x40 MLOAD PUSH3 0x461BCD PUSH1 0xE5 SHL DUP2 MSTORE PUSH1 0x20 PUSH1 0x4 DUP3 ADD MSTORE PUSH1 0x26 PUSH1 0x24 DUP3 ADD MSTORE PUSH32 0x4F776E61626C653A206E6577206F776E657220697320746865207A65726F2061 PUSH1 0x44 DUP3 ADD MSTORE PUSH6 0x646472657373 PUSH1 0xD0 SHL PUSH1 0x64 DUP3 ADD MSTORE PUSH1 0x84 SWAP1 REVERT JUMPDEST CALLVALUE PUSH2 0x3C7 JUMPI PUSH1 0x20 CALLDATASIZE PUSH1 0x3 NOT ADD SLT PUSH2 0x3C7 JUMPI PUSH1 0xFB SLOAD PUSH1 0x4 CALLDATALOAD SWAP1 PUSH1 0x24 SWAP1 PUSH1 0x20 SWAP1 PUSH1 0x1 PUSH1 0x1 PUSH1 0xA0 SHL SUB AND PUSH2 0x4F5 CALLER DUP3 EQ PUSH2 0x24B5 JUMP JUMPDEST PUSH1 0x40 MLOAD SWAP3 DUP4 DUP1 SWAP3 PUSH4 0x6F08BC87 PUSH1 0xE1 SHL DUP3 MSTORE DUP7 PUSH1 0x4 DUP4 ADD MSTORE GAS STATICCALL SWAP1 DUP2 ISZERO PUSH2 0x617 JUMPI PUSH0 SWAP2 PUSH2 0x5E5 JUMPI JUMPDEST POP PUSH0 JUMPDEST PUSH2 0x103 SLOAD DUP2 LT ISZERO PUSH2 0x46D JUMPI DUP1 PUSH2 0x536 PUSH1 0x1 SWAP3 PUSH2 0x235B JUMP JUMPDEST DUP4 DUP1 PUSH1 0xA0 SHL SUB SWAP2 SLOAD SWAP1 PUSH1 0x3 SHL SHR AND DUP1 PUSH0 MSTORE PUSH2 0x101 PUSH1 0x20 MSTORE PUSH8 0xDE0B6B3A7640000 PUSH2 0x592 PUSH1 0x40 PUSH0 KECCAK256 SLOAD DUP3 PUSH2 0x569 DUP3 DUP10 PUSH2 0x250B JUMP JUMPDEST DIV DUP5 PUSH0 MSTORE PUSH2 0x105 PUSH1 0x20 MSTORE PUSH1 0x40 PUSH0 KECCAK256 DUP10 PUSH0 MSTORE PUSH1 0x20 MSTORE PUSH1 0x40 PUSH0 KECCAK256 SLOAD DUP1 DUP3 GT PUSH2 0x5B1 JUMPI JUMPDEST POP POP DUP7 PUSH2 0x250B JUMP JUMPDEST DIV SWAP1 PUSH0 MSTORE PUSH2 0x105 PUSH1 0x20 MSTORE PUSH1 0x40 PUSH0 KECCAK256 DUP6 PUSH0 MSTORE PUSH1 0x20 MSTORE PUSH1 0x40 PUSH0 KECCAK256 SSTORE ADD PUSH2 0x51F JUMP JUMPDEST PUSH2 0x5BA SWAP2 PUSH2 0x2397 JUMP JUMPDEST DUP5 PUSH0 MSTORE PUSH2 0x106 PUSH1 0x20 MSTORE PUSH1 0x40 PUSH0 KECCAK256 DUP10 PUSH0 MSTORE PUSH1 0x20 MSTORE PUSH2 0x5DC PUSH1 0x40 PUSH0 KECCAK256 SWAP2 DUP3 SLOAD PUSH2 0x238A JUMP JUMPDEST SWAP1 SSTORE DUP9 DUP1 PUSH2 0x58A JUMP JUMPDEST SWAP1 POP PUSH1 0x20 DUP2 RETURNDATASIZE PUSH1 0x20 GT PUSH2 0x60F JUMPI JUMPDEST DUP2 PUSH2 0x600 PUSH1 0x20 SWAP4 DUP4 PUSH2 0x22C3 JUMP JUMPDEST DUP2 ADD SUB SLT PUSH2 0x3C7 JUMPI MLOAD DUP3 PUSH2 0x51C JUMP JUMPDEST RETURNDATASIZE SWAP2 POP PUSH2 0x5F3 JUMP JUMPDEST PUSH1 0x40 MLOAD RETURNDATASIZE PUSH0 DUP3 RETURNDATACOPY RETURNDATASIZE SWAP1 REVERT JUMPDEST CALLVALUE PUSH2 0x3C7 JUMPI PUSH1 0x40 CALLDATASIZE PUSH1 0x3 NOT ADD SLT PUSH2 0x3C7 JUMPI PUSH1 0x1 PUSH1 0x1 PUSH1 0xA0 SHL SUB PUSH2 0x643 PUSH2 0x2297 JUMP JUMPDEST AND PUSH0 MSTORE PUSH2 0x105 PUSH1 0x20 MSTORE PUSH1 0x40 PUSH0 KECCAK256 PUSH1 0x24 CALLDATALOAD PUSH0 MSTORE PUSH1 0x20 MSTORE PUSH1 0x20 PUSH1 0x40 PUSH0 KECCAK256 SLOAD PUSH1 0x40 MLOAD SWAP1 DUP2 MSTORE RETURN JUMPDEST CALLVALUE PUSH2 0x3C7 JUMPI PUSH1 0x20 CALLDATASIZE PUSH1 0x3 NOT ADD SLT PUSH2 0x3C7 JUMPI PUSH1 0x4 CALLDATALOAD PUSH1 0xFF SLOAD DUP2 LT ISZERO PUSH2 0x3C7 JUMPI PUSH2 0x690 PUSH1 0x20 SWAP2 PUSH2 0x2343 JUMP JUMPDEST SWAP1 SLOAD PUSH1 0x40 MLOAD PUSH1 0x3 SWAP3 SWAP1 SWAP3 SHL SHR PUSH1 0x1 PUSH1 0x1 PUSH1 0xA0 SHL SUB AND DUP2 MSTORE RETURN JUMPDEST CALLVALUE PUSH2 0x3C7 JUMPI PUSH0 CALLDATASIZE PUSH1 0x3 NOT ADD SLT PUSH2 0x3C7 JUMPI PUSH1 0x20 PUSH1 0xFD SLOAD PUSH1 0x40 MLOAD SWAP1 DUP2 MSTORE RETURN JUMPDEST CALLVALUE PUSH2 0x3C7 JUMPI PUSH1 0x20 CALLDATASIZE PUSH1 0x3 NOT ADD SLT PUSH2 0x3C7 JUMPI PUSH2 0x46D PUSH2 0x6E2 PUSH2 0x2297 JUMP JUMPDEST PUSH2 0x6EA PUSH2 0x27FB JUMP JUMPDEST PUSH2 0x261C JUMP JUMPDEST CALLVALUE PUSH2 0x3C7 JUMPI PUSH0 CALLDATASIZE PUSH1 0x3 NOT ADD SLT PUSH2 0x3C7 JUMPI PUSH1 0xFB SLOAD PUSH1 0x40 MLOAD PUSH1 0x1 PUSH1 0x1 PUSH1 0xA0 SHL SUB SWAP1 SWAP2 AND DUP2 MSTORE PUSH1 0x20 SWAP1 RETURN JUMPDEST CALLVALUE PUSH2 0x3C7 JUMPI PUSH1 0x40 CALLDATASIZE PUSH1 0x3 NOT ADD SLT PUSH2 0x3C7 JUMPI PUSH1 0x20 PUSH2 0x73E PUSH2 0x735 PUSH2 0x2297 JUMP JUMPDEST PUSH1 0x24 CALLDATALOAD SWAP1 PUSH2 0x2664 JUMP JUMPDEST PUSH1 0x40 MLOAD SWAP1 DUP2 MSTORE RETURN JUMPDEST CALLVALUE PUSH2 0x3C7 JUMPI PUSH1 0x20 CALLDATASIZE PUSH1 0x3 NOT ADD SLT PUSH2 0x3C7 JUMPI PUSH1 0x1 PUSH1 0x1 PUSH1 0xA0 SHL SUB PUSH2 0x767 PUSH2 0x2297 JUMP JUMPDEST AND PUSH0 MSTORE PUSH2 0x101 PUSH1 0x20 MSTORE PUSH1 0x20 PUSH1 0x40 PUSH0 KECCAK256 SLOAD PUSH1 0x40 MLOAD SWAP1 DUP2 MSTORE RETURN JUMPDEST CALLVALUE PUSH2 0x3C7 JUMPI PUSH0 CALLDATASIZE PUSH1 0x3 NOT ADD SLT PUSH2 0x3C7 JUMPI PUSH1 0x40 MLOAD DUP1 PUSH1 0x20 PUSH2 0x103 SLOAD SWAP2 DUP3 DUP2 MSTORE ADD SWAP1 PUSH2 0x103 PUSH0 MSTORE PUSH32 0x2C297AB74AAD0AEDE3A1895C857B1F2C71E6A203FEB727BEC95AC752998CB78 SWAP1 PUSH0 JUMPDEST DUP2 DUP2 LT PUSH2 0x7EF JUMPI PUSH2 0x7EB DUP6 PUSH2 0x7DF DUP2 DUP8 SUB DUP3 PUSH2 0x22C3 JUMP JUMPDEST PUSH1 0x40 MLOAD SWAP2 DUP3 SWAP2 DUP3 PUSH2 0x2301 JUMP JUMPDEST SUB SWAP1 RETURN JUMPDEST DUP3 SLOAD PUSH1 0x1 PUSH1 0x1 PUSH1 0xA0 SHL SUB AND DUP5 MSTORE PUSH1 0x20 SWAP1 SWAP4 ADD SWAP3 PUSH1 0x1 SWAP3 DUP4 ADD SWAP3 ADD PUSH2 0x7C8 JUMP JUMPDEST CALLVALUE PUSH2 0x3C7 JUMPI PUSH1 0x20 CALLDATASIZE PUSH1 0x3 NOT ADD SLT PUSH2 0x3C7 JUMPI PUSH1 0x1 PUSH1 0x1 PUSH1 0xA0 SHL SUB PUSH2 0x82F PUSH2 0x2297 JUMP JUMPDEST AND PUSH0 MSTORE PUSH2 0x100 PUSH1 0x20 MSTORE PUSH1 0x20 PUSH1 0xFF PUSH1 0x40 PUSH0 KECCAK256 SLOAD AND PUSH1 0x40 MLOAD SWAP1 ISZERO ISZERO DUP2 MSTORE RETURN JUMPDEST CALLVALUE PUSH2 0x3C7 JUMPI PUSH1 0x40 CALLDATASIZE PUSH1 0x3 NOT ADD SLT PUSH2 0x3C7 JUMPI PUSH2 0x865 PUSH2 0x2297 JUMP JUMPDEST PUSH1 0x1 PUSH1 0x1 PUSH1 0xA0 SHL SUB DUP2 AND PUSH0 DUP2 DUP2 MSTORE PUSH2 0x100 PUSH1 0x20 MSTORE PUSH1 0x40 SWAP1 KECCAK256 SLOAD SWAP1 SWAP2 SWAP1 PUSH1 0x24 CALLDATALOAD SWAP1 PUSH1 0xFF AND ISZERO PUSH2 0xA11 JUMPI PUSH1 0xFB SLOAD PUSH1 0x40 MLOAD PUSH4 0xAED96B59 PUSH1 0xE0 SHL DUP2 MSTORE SWAP2 SWAP1 PUSH1 0x20 SWAP1 DUP4 SWAP1 PUSH1 0x4 SWAP1 DUP3 SWAP1 PUSH1 0x1 PUSH1 0x1 PUSH1 0xA0 SHL SUB AND GAS STATICCALL SWAP2 DUP3 ISZERO PUSH2 0x617 JUMPI PUSH0 SWAP3 PUSH2 0x9DD JUMPI JUMPDEST POP DUP2 ISZERO PUSH2 0x9A0 JUMPI PUSH1 0x40 MLOAD PUSH4 0x23B872DD PUSH1 0xE0 SHL DUP2 MSTORE CALLER PUSH1 0x4 DUP3 ADD MSTORE ADDRESS PUSH1 0x24 DUP3 ADD MSTORE PUSH1 0x44 DUP2 ADD DUP3 SWAP1 MSTORE PUSH1 0x20 DUP2 PUSH1 0x64 DUP2 PUSH0 DUP10 GAS CALL DUP1 ISZERO PUSH2 0x617 JUMPI PUSH2 0x973 JUMPI JUMPDEST POP PUSH8 0xDE0B6B3A7640000 DUP2 MUL SWAP1 DUP1 DUP3 DIV PUSH8 0xDE0B6B3A7640000 EQ SWAP1 ISZERO OR ISZERO PUSH2 0x3CB JUMPI DIV DUP3 PUSH0 MSTORE PUSH2 0x101 PUSH1 0x20 MSTORE PUSH2 0x939 PUSH1 0x40 PUSH0 KECCAK256 SWAP2 DUP3 SLOAD PUSH2 0x238A JUMP JUMPDEST SWAP1 SSTORE DUP2 PUSH0 MSTORE PUSH2 0x104 PUSH1 0x20 MSTORE PUSH1 0xFF PUSH1 0x40 PUSH0 KECCAK256 SLOAD AND ISZERO PUSH2 0x953 JUMPI STOP JUMPDEST PUSH2 0x46D SWAP2 PUSH0 MSTORE PUSH2 0x104 PUSH1 0x20 MSTORE PUSH1 0x40 PUSH0 KECCAK256 PUSH1 0x1 PUSH1 0xFF NOT DUP3 SLOAD AND OR SWAP1 SSTORE PUSH2 0x23CB JUMP JUMPDEST PUSH2 0x994 SWAP1 PUSH1 0x20 RETURNDATASIZE PUSH1 0x20 GT PUSH2 0x999 JUMPI JUMPDEST PUSH2 0x98C DUP2 DUP4 PUSH2 0x22C3 JUMP JUMPDEST DUP2 ADD SWAP1 PUSH2 0x25C7 JUMP JUMPDEST PUSH2 0x8FE JUMP JUMPDEST POP RETURNDATASIZE PUSH2 0x982 JUMP JUMPDEST PUSH1 0x40 MLOAD PUSH3 0x461BCD PUSH1 0xE5 SHL DUP2 MSTORE PUSH1 0x20 PUSH1 0x4 DUP3 ADD MSTORE PUSH1 0x15 PUSH1 0x24 DUP3 ADD MSTORE PUSH21 0x4E6F20736861726520706F77657220657869737473 PUSH1 0x58 SHL PUSH1 0x44 DUP3 ADD MSTORE PUSH1 0x64 SWAP1 REVERT JUMPDEST SWAP1 SWAP2 POP PUSH1 0x20 DUP2 RETURNDATASIZE PUSH1 0x20 GT PUSH2 0xA09 JUMPI JUMPDEST DUP2 PUSH2 0x9F9 PUSH1 0x20 SWAP4 DUP4 PUSH2 0x22C3 JUMP JUMPDEST DUP2 ADD SUB SLT PUSH2 0x3C7 JUMPI MLOAD SWAP1 DUP5 PUSH2 0x8C2 JUMP JUMPDEST RETURNDATASIZE SWAP2 POP PUSH2 0x9EC JUMP JUMPDEST PUSH1 0x40 MLOAD PUSH3 0x461BCD PUSH1 0xE5 SHL DUP2 MSTORE PUSH1 0x20 PUSH1 0x4 DUP3 ADD MSTORE PUSH1 0x13 PUSH1 0x24 DUP3 ADD MSTORE PUSH19 0x4E6F7420616E20617070726F76656420525741 PUSH1 0x68 SHL PUSH1 0x44 DUP3 ADD MSTORE PUSH1 0x64 SWAP1 REVERT JUMPDEST CALLVALUE PUSH2 0x3C7 JUMPI PUSH1 0x20 CALLDATASIZE PUSH1 0x3 NOT ADD SLT PUSH2 0x3C7 JUMPI PUSH1 0x1 PUSH1 0x1 PUSH1 0xA0 SHL SUB PUSH2 0xA6D PUSH2 0x2297 JUMP JUMPDEST AND PUSH0 MSTORE PUSH2 0x104 PUSH1 0x20 MSTORE PUSH1 0x20 PUSH1 0xFF PUSH1 0x40 PUSH0 KECCAK256 SLOAD AND PUSH1 0x40 MLOAD SWAP1 ISZERO ISZERO DUP2 MSTORE RETURN JUMPDEST CALLVALUE PUSH2 0x3C7 JUMPI PUSH1 0x60 CALLDATASIZE PUSH1 0x3 NOT ADD SLT PUSH2 0x3C7 JUMPI PUSH2 0xAA3 PUSH2 0x2297 JUMP JUMPDEST PUSH1 0x24 CALLDATALOAD SWAP1 DUP2 ISZERO ISZERO DUP1 SWAP3 SUB PUSH2 0x3C7 JUMPI PUSH1 0xFB SLOAD PUSH1 0x40 MLOAD PUSH4 0x31A9108F PUSH1 0xE1 SHL DUP2 MSTORE PUSH1 0x44 CALLDATALOAD PUSH1 0x4 DUP3 ADD DUP2 SWAP1 MSTORE PUSH1 0x1 PUSH1 0x1 PUSH1 0xA0 SHL SUB SWAP1 SWAP3 AND SWAP2 PUSH1 0x20 DUP3 PUSH1 0x24 DUP2 DUP7 GAS STATICCALL SWAP2 DUP3 ISZERO PUSH2 0x617 JUMPI PUSH1 0x20 SWAP3 PUSH2 0xB06 SWAP2 PUSH0 SWAP2 PUSH2 0xC5B JUMPI JUMPDEST POP PUSH1 0x1 PUSH1 0x1 PUSH1 0xA0 SHL SUB AND CALLER EQ PUSH2 0x2589 JUMP JUMPDEST PUSH1 0x24 PUSH1 0x40 MLOAD DUP1 SWAP5 DUP2 SWAP4 PUSH4 0x6F08BC87 PUSH1 0xE1 SHL DUP4 MSTORE PUSH1 0x4 DUP4 ADD MSTORE GAS STATICCALL DUP1 ISZERO PUSH2 0x617 JUMPI PUSH0 SWAP1 PUSH2 0xC27 JUMPI JUMPDEST PUSH2 0xB39 SWAP2 POP ISZERO ISZERO PUSH2 0x25DF JUMP JUMPDEST PUSH1 0xFD SLOAD PUSH0 NOT DUP2 EQ PUSH2 0x3CB JUMPI PUSH1 0x1 ADD SWAP2 DUP3 PUSH1 0xFD SSTORE PUSH3 0x3F480 TIMESTAMP ADD DUP1 TIMESTAMP GT PUSH2 0x3CB JUMPI PUSH1 0x40 MLOAD SWAP2 PUSH1 0xC0 DUP4 ADD SWAP4 DUP4 DUP6 LT PUSH8 0xFFFFFFFFFFFFFFFF DUP7 GT OR PUSH2 0xC13 JUMPI PUSH1 0x4 SWAP5 PUSH1 0x40 MSTORE PUSH1 0x1 DUP1 PUSH1 0xA0 SHL SUB AND DUP4 MSTORE PUSH1 0x20 DUP4 ADD SWAP1 DUP2 MSTORE PUSH1 0x40 DUP4 ADD PUSH0 DUP2 MSTORE PUSH1 0x60 DUP5 ADD SWAP2 PUSH0 DUP4 MSTORE PUSH1 0x80 DUP6 ADD SWAP4 DUP5 MSTORE PUSH1 0xA0 DUP6 ADD SWAP7 PUSH0 DUP9 MSTORE PUSH0 MSTORE PUSH1 0xFC PUSH1 0x20 MSTORE PUSH1 0x40 PUSH0 KECCAK256 SWAP5 PUSH1 0x1 DUP1 PUSH1 0xA0 SHL SUB SWAP1 MLOAD AND PUSH1 0x1 PUSH1 0x1 PUSH1 0x60 SHL SUB PUSH1 0xA0 SHL DUP7 SLOAD AND OR DUP6 SSTORE MLOAD ISZERO ISZERO DUP5 SLOAD SWAP1 PUSH1 0xFF PUSH1 0xA0 SHL SWAP1 PUSH1 0xA0 SHL AND SWAP1 PUSH1 0xFF PUSH1 0xA0 SHL NOT AND OR DUP5 SSTORE MLOAD PUSH1 0x1 DUP5 ADD SSTORE MLOAD PUSH1 0x2 DUP4 ADD SSTORE MLOAD PUSH1 0x3 DUP3 ADD SSTORE ADD SWAP1 MLOAD ISZERO ISZERO PUSH1 0xFF DUP1 NOT DUP4 SLOAD AND SWAP2 AND OR SWAP1 SSTORE PUSH0 DUP1 RETURN JUMPDEST PUSH4 0x4E487B71 PUSH1 0xE0 SHL PUSH0 MSTORE PUSH1 0x41 PUSH1 0x4 MSTORE PUSH1 0x24 PUSH0 REVERT JUMPDEST POP PUSH1 0x20 DUP2 RETURNDATASIZE PUSH1 0x20 GT PUSH2 0xC53 JUMPI JUMPDEST DUP2 PUSH2 0xC41 PUSH1 0x20 SWAP4 DUP4 PUSH2 0x22C3 JUMP JUMPDEST DUP2 ADD SUB SLT PUSH2 0x3C7 JUMPI PUSH2 0xB39 SWAP1 MLOAD PUSH2 0xB2D JUMP JUMPDEST RETURNDATASIZE SWAP2 POP PUSH2 0xC34 JUMP JUMPDEST PUSH2 0xC7B SWAP2 POP DUP5 RETURNDATASIZE DUP7 GT PUSH2 0xC81 JUMPI JUMPDEST PUSH2 0xC73 DUP2 DUP4 PUSH2 0x22C3 JUMP JUMPDEST DUP2 ADD SWAP1 PUSH2 0x256A JUMP JUMPDEST DUP8 PUSH2 0xAF5 JUMP JUMPDEST POP RETURNDATASIZE PUSH2 0xC69 JUMP JUMPDEST CALLVALUE PUSH2 0x3C7 JUMPI PUSH0 CALLDATASIZE PUSH1 0x3 NOT ADD SLT PUSH2 0x3C7 JUMPI PUSH1 0x97 SLOAD PUSH1 0x40 MLOAD PUSH1 0x1 PUSH1 0x1 PUSH1 0xA0 SHL SUB SWAP1 SWAP2 AND DUP2 MSTORE PUSH1 0x20 SWAP1 RETURN JUMPDEST CALLVALUE PUSH2 0x3C7 JUMPI PUSH1 0x20 CALLDATASIZE PUSH1 0x3 NOT ADD SLT PUSH2 0x3C7 JUMPI PUSH2 0xCC9 PUSH2 0x2297 JUMP JUMPDEST PUSH2 0xCD1 PUSH2 0x27FB JUMP JUMPDEST PUSH1 0x1 PUSH1 0x1 PUSH1 0xA0 SHL SUB DUP2 AND PUSH0 DUP2 DUP2 MSTORE PUSH2 0x104 PUSH1 0x20 MSTORE PUSH1 0x40 SWAP1 KECCAK256 SLOAD SWAP1 SWAP2 SWAP1 PUSH1 0xFF AND ISZERO PUSH2 0x953 JUMPI STOP JUMPDEST CALLVALUE PUSH2 0x3C7 JUMPI PUSH1 0x20 CALLDATASIZE PUSH1 0x3 NOT ADD SLT PUSH2 0x3C7 JUMPI PUSH1 0x4 CALLDATALOAD PUSH2 0x103 SLOAD DUP2 LT ISZERO PUSH2 0x3C7 JUMPI PUSH2 0x690 PUSH1 0x20 SWAP2 PUSH2 0x235B JUMP JUMPDEST CALLVALUE PUSH2 0x3C7 JUMPI PUSH0 CALLDATASIZE PUSH1 0x3 NOT ADD SLT PUSH2 0x3C7 JUMPI PUSH2 0x107 SLOAD PUSH1 0x40 MLOAD PUSH1 0x1 PUSH1 0x1 PUSH1 0xA0 SHL SUB SWAP1 SWAP2 AND DUP2 MSTORE PUSH1 0x20 SWAP1 RETURN JUMPDEST CALLVALUE PUSH2 0x3C7 JUMPI PUSH0 CALLDATASIZE PUSH1 0x3 NOT ADD SLT PUSH2 0x3C7 JUMPI PUSH1 0x40 MLOAD DUP1 PUSH1 0x20 PUSH1 0xFF SLOAD SWAP2 DUP3 DUP2 MSTORE ADD SWAP1 PUSH1 0xFF PUSH0 MSTORE PUSH32 0xE08EC2AF2CFC251225E1968FD6CA21E4044F129BFFA95BAC3503BE8BDB30A367 SWAP1 PUSH0 JUMPDEST DUP2 DUP2 LT PUSH2 0xDA8 JUMPI PUSH2 0x7EB DUP6 PUSH2 0x7DF DUP2 DUP8 SUB DUP3 PUSH2 0x22C3 JUMP JUMPDEST DUP3 SLOAD PUSH1 0x1 PUSH1 0x1 PUSH1 0xA0 SHL SUB AND DUP5 MSTORE PUSH1 0x20 SWAP1 SWAP4 ADD SWAP3 PUSH1 0x1 SWAP3 DUP4 ADD SWAP3 ADD PUSH2 0xD91 JUMP JUMPDEST CALLVALUE PUSH2 0x3C7 JUMPI PUSH0 CALLDATASIZE PUSH1 0x3 NOT ADD SLT PUSH2 0x3C7 JUMPI PUSH2 0xDDF PUSH2 0x27FB JUMP JUMPDEST PUSH1 0x97 DUP1 SLOAD PUSH1 0x1 PUSH1 0x1 PUSH1 0xA0 SHL SUB NOT DUP2 AND SWAP1 SWAP2 SSTORE PUSH0 SWAP1 PUSH1 0x1 PUSH1 0x1 PUSH1 0xA0 SHL SUB AND PUSH32 0x8BE0079C531659141344CD1FD0A4F28419497F9722A3DAAFE3B4186F6B6457E0 DUP3 DUP1 LOG3 STOP JUMPDEST CALLVALUE PUSH2 0x3C7 JUMPI PUSH1 0x60 CALLDATASIZE PUSH1 0x3 NOT ADD SLT PUSH2 0x3C7 JUMPI PUSH1 0x24 CALLDATALOAD PUSH1 0x4 CALLDATALOAD PUSH1 0x44 CALLDATALOAD DUP1 ISZERO ISZERO DUP2 SUB PUSH2 0x3C7 JUMPI PUSH1 0xFB SLOAD PUSH1 0x40 MLOAD PUSH4 0x31A9108F PUSH1 0xE1 SHL DUP2 MSTORE PUSH1 0x4 DUP2 ADD DUP6 SWAP1 MSTORE PUSH1 0x1 PUSH1 0x1 PUSH1 0xA0 SHL SUB SWAP1 SWAP2 AND SWAP4 SWAP1 PUSH1 0x20 DUP2 PUSH1 0x24 DUP2 DUP9 GAS STATICCALL DUP1 ISZERO PUSH2 0x617 JUMPI PUSH2 0xE93 SWAP2 PUSH0 SWAP2 PUSH2 0xFFA JUMPI POP PUSH1 0x1 PUSH1 0x1 PUSH1 0xA0 SHL SUB AND CALLER EQ PUSH2 0x2589 JUMP JUMPDEST DUP3 PUSH0 MSTORE PUSH1 0xFE PUSH1 0x20 MSTORE PUSH1 0x40 PUSH0 KECCAK256 DUP2 PUSH0 MSTORE PUSH1 0x20 MSTORE PUSH1 0xFF PUSH1 0x40 PUSH0 KECCAK256 SLOAD AND PUSH2 0xFC5 JUMPI DUP3 PUSH0 MSTORE PUSH1 0xFC PUSH1 0x20 MSTORE PUSH1 0x3 PUSH1 0x40 PUSH0 KECCAK256 ADD SLOAD TIMESTAMP LT ISZERO PUSH2 0xF91 JUMPI PUSH1 0x20 PUSH1 0x24 SWAP5 PUSH1 0x40 MLOAD SWAP6 DUP7 DUP1 SWAP3 PUSH4 0x6F08BC87 PUSH1 0xE1 SHL DUP3 MSTORE DUP6 PUSH1 0x4 DUP4 ADD MSTORE GAS STATICCALL SWAP4 DUP5 ISZERO PUSH2 0x617 JUMPI PUSH0 SWAP5 PUSH2 0xF5D JUMPI JUMPDEST POP PUSH2 0xF00 DUP5 ISZERO ISZERO PUSH2 0x25DF JUMP JUMPDEST DUP3 PUSH0 MSTORE PUSH1 0xFE PUSH1 0x20 MSTORE PUSH1 0x40 PUSH0 KECCAK256 SWAP1 PUSH0 MSTORE PUSH1 0x20 MSTORE PUSH1 0x40 PUSH0 KECCAK256 PUSH1 0x1 PUSH1 0xFF NOT DUP3 SLOAD AND OR SWAP1 SSTORE PUSH0 EQ PUSH2 0xF44 JUMPI PUSH0 MSTORE PUSH1 0xFC PUSH1 0x20 MSTORE PUSH2 0xF40 PUSH1 0x1 PUSH1 0x40 PUSH0 KECCAK256 ADD SWAP2 DUP3 SLOAD PUSH2 0x238A JUMP JUMPDEST SWAP1 SSTORE STOP JUMPDEST PUSH0 MSTORE PUSH1 0xFC PUSH1 0x20 MSTORE PUSH2 0xF40 PUSH1 0x2 PUSH1 0x40 PUSH0 KECCAK256 ADD SWAP2 DUP3 SLOAD PUSH2 0x238A JUMP JUMPDEST SWAP1 SWAP4 POP PUSH1 0x20 DUP2 RETURNDATASIZE PUSH1 0x20 GT PUSH2 0xF89 JUMPI JUMPDEST DUP2 PUSH2 0xF79 PUSH1 0x20 SWAP4 DUP4 PUSH2 0x22C3 JUMP JUMPDEST DUP2 ADD SUB SLT PUSH2 0x3C7 JUMPI MLOAD SWAP3 DUP5 PUSH2 0xEF4 JUMP JUMPDEST RETURNDATASIZE SWAP2 POP PUSH2 0xF6C JUMP JUMPDEST PUSH1 0x40 MLOAD PUSH3 0x461BCD PUSH1 0xE5 SHL DUP2 MSTORE PUSH1 0x20 PUSH1 0x4 DUP3 ADD MSTORE PUSH1 0xC PUSH1 0x24 DUP3 ADD MSTORE PUSH12 0x159BDD1A5B99C8195B991959 PUSH1 0xA2 SHL PUSH1 0x44 DUP3 ADD MSTORE PUSH1 0x64 SWAP1 REVERT JUMPDEST PUSH1 0x40 MLOAD PUSH3 0x461BCD PUSH1 0xE5 SHL DUP2 MSTORE PUSH1 0x20 PUSH1 0x4 DUP3 ADD MSTORE PUSH1 0xD PUSH1 0x24 DUP3 ADD MSTORE PUSH13 0x105B1C9958591E481D9BDD1959 PUSH1 0x9A SHL PUSH1 0x44 DUP3 ADD MSTORE PUSH1 0x64 SWAP1 REVERT JUMPDEST PUSH2 0x1013 SWAP2 POP PUSH1 0x20 RETURNDATASIZE PUSH1 0x20 GT PUSH2 0xC81 JUMPI PUSH2 0xC73 DUP2 DUP4 PUSH2 0x22C3 JUMP JUMPDEST DUP7 PUSH2 0xAF5 JUMP JUMPDEST CALLVALUE PUSH2 0x3C7 JUMPI PUSH1 0x40 CALLDATASIZE PUSH1 0x3 NOT ADD SLT PUSH2 0x3C7 JUMPI PUSH1 0x4 CALLDATALOAD PUSH0 MSTORE PUSH1 0xFE PUSH1 0x20 MSTORE PUSH1 0x40 PUSH0 KECCAK256 PUSH1 0x24 CALLDATALOAD PUSH0 MSTORE PUSH1 0x20 MSTORE PUSH1 0x20 PUSH1 0xFF PUSH1 0x40 PUSH0 KECCAK256 SLOAD AND PUSH1 0x40 MLOAD SWAP1 ISZERO ISZERO DUP2 MSTORE RETURN JUMPDEST CALLVALUE PUSH2 0x3C7 JUMPI PUSH1 0x40 CALLDATASIZE PUSH1 0x3 NOT ADD SLT PUSH2 0x3C7 JUMPI PUSH1 0x1 PUSH1 0x1 PUSH1 0xA0 SHL SUB PUSH2 0x1075 PUSH2 0x2297 JUMP JUMPDEST AND PUSH0 MSTORE PUSH2 0x106 PUSH1 0x20 MSTORE PUSH1 0x40 PUSH0 KECCAK256 PUSH1 0x24 CALLDATALOAD PUSH0 MSTORE PUSH1 0x20 MSTORE PUSH1 0x20 PUSH1 0x40 PUSH0 KECCAK256 SLOAD PUSH1 0x40 MLOAD SWAP1 DUP2 MSTORE RETURN JUMPDEST CALLVALUE PUSH2 0x3C7 JUMPI PUSH1 0x20 CALLDATASIZE PUSH1 0x3 NOT ADD SLT PUSH2 0x3C7 JUMPI PUSH2 0x10B2 PUSH2 0x2297 JUMP JUMPDEST PUSH2 0x10BA PUSH2 0x27FB JUMP JUMPDEST PUSH2 0x107 DUP1 SLOAD PUSH1 0x1 PUSH1 0x1 PUSH1 0xA0 SHL SUB NOT AND PUSH1 0x1 PUSH1 0x1 PUSH1 0xA0 SHL SUB SWAP3 SWAP1 SWAP3 AND SWAP2 SWAP1 SWAP2 OR SWAP1 SSTORE STOP JUMPDEST CALLVALUE PUSH2 0x3C7 JUMPI PUSH1 0x20 CALLDATASIZE PUSH1 0x3 NOT ADD SLT PUSH2 0x3C7 JUMPI PUSH2 0x10F6 PUSH2 0x2297 JUMP JUMPDEST PUSH2 0x10FE PUSH2 0x27FB JUMP JUMPDEST PUSH1 0xFB DUP1 SLOAD PUSH1 0x1 PUSH1 0x1 PUSH1 0xA0 SHL SUB NOT AND PUSH1 0x1 PUSH1 0x1 PUSH1 0xA0 SHL SUB SWAP3 SWAP1 SWAP3 AND SWAP2 SWAP1 SWAP2 OR SWAP1 SSTORE STOP JUMPDEST CALLVALUE PUSH2 0x3C7 JUMPI PUSH0 CALLDATASIZE PUSH1 0x3 NOT ADD SLT PUSH2 0x3C7 JUMPI PUSH32 0x0 PUSH1 0x1 PUSH1 0x1 PUSH1 0xA0 SHL SUB AND ADDRESS SUB PUSH2 0x1177 JUMPI PUSH1 0x20 PUSH1 0x40 MLOAD PUSH0 MLOAD PUSH1 0x20 PUSH2 0x2977 PUSH0 CODECOPY PUSH0 MLOAD SWAP1 PUSH0 MSTORE DUP2 MSTORE RETURN JUMPDEST PUSH1 0x40 MLOAD PUSH3 0x461BCD PUSH1 0xE5 SHL DUP2 MSTORE PUSH1 0x20 PUSH1 0x4 DUP3 ADD MSTORE PUSH1 0x38 PUSH1 0x24 DUP3 ADD MSTORE PUSH32 0x555550535570677261646561626C653A206D757374206E6F742062652063616C PUSH1 0x44 DUP3 ADD MSTORE PUSH32 0x6C6564207468726F7567682064656C656761746563616C6C0000000000000000 PUSH1 0x64 DUP3 ADD MSTORE PUSH1 0x84 SWAP1 REVERT JUMPDEST PUSH1 0x40 CALLDATASIZE PUSH1 0x3 NOT ADD SLT PUSH2 0x3C7 JUMPI PUSH2 0x11F6 PUSH2 0x2297 JUMP JUMPDEST PUSH1 0x24 CALLDATALOAD PUSH8 0xFFFFFFFFFFFFFFFF DUP2 GT PUSH2 0x3C7 JUMPI CALLDATASIZE PUSH1 0x23 DUP3 ADD SLT ISZERO PUSH2 0x3C7 JUMPI DUP1 PUSH1 0x4 ADD CALLDATALOAD PUSH2 0x1221 DUP2 PUSH2 0x22E5 JUMP JUMPDEST SWAP1 PUSH2 0x122F PUSH1 0x40 MLOAD SWAP3 DUP4 PUSH2 0x22C3 JUMP JUMPDEST DUP1 DUP3 MSTORE PUSH1 0x20 DUP3 ADD SWAP3 CALLDATASIZE PUSH1 0x24 DUP4 DUP4 ADD ADD GT PUSH2 0x3C7 JUMPI DUP2 PUSH0 SWAP3 PUSH1 0x24 PUSH1 0x20 SWAP4 ADD DUP7 CALLDATACOPY DUP4 ADD ADD MSTORE PUSH2 0x12A9 PUSH32 0x0 PUSH1 0x1 PUSH1 0x1 PUSH1 0xA0 SHL SUB AND PUSH2 0x128B ADDRESS DUP3 EQ ISZERO PUSH2 0x23F3 JUMP JUMPDEST PUSH0 MLOAD PUSH1 0x20 PUSH2 0x2977 PUSH0 CODECOPY PUSH0 MLOAD SWAP1 PUSH0 MSTORE SLOAD PUSH1 0x1 PUSH1 0x1 PUSH1 0xA0 SHL SUB AND EQ PUSH2 0x2454 JUMP JUMPDEST PUSH2 0x12B1 PUSH2 0x27FB JUMP JUMPDEST PUSH32 0x4910FDFA16FED3260ED0E7147F7CC6DA11A60208B5B9406D12A635614FFD9143 SLOAD PUSH1 0xFF AND ISZERO PUSH2 0x12E6 JUMPI POP POP PUSH2 0x46D SWAP1 PUSH2 0x289B JUMP JUMPDEST PUSH1 0x40 MLOAD PUSH4 0x52D1902D PUSH1 0xE0 SHL DUP2 MSTORE PUSH1 0x1 PUSH1 0x1 PUSH1 0xA0 SHL SUB DUP5 AND SWAP1 PUSH1 0x20 DUP2 PUSH1 0x4 DUP2 DUP6 GAS STATICCALL PUSH0 SWAP2 DUP2 PUSH2 0x1506 JUMPI JUMPDEST POP PUSH2 0x1370 JUMPI PUSH1 0x40 MLOAD PUSH3 0x461BCD PUSH1 0xE5 SHL DUP2 MSTORE PUSH1 0x20 PUSH1 0x4 DUP3 ADD MSTORE PUSH1 0x2E PUSH1 0x24 DUP3 ADD MSTORE PUSH32 0x45524331393637557067726164653A206E657720696D706C656D656E74617469 PUSH1 0x44 DUP3 ADD MSTORE PUSH14 0x6F6E206973206E6F742055555053 PUSH1 0x90 SHL PUSH1 0x64 DUP3 ADD MSTORE PUSH1 0x84 SWAP1 REVERT JUMPDEST PUSH0 MLOAD PUSH1 0x20 PUSH2 0x2977 PUSH0 CODECOPY PUSH0 MLOAD SWAP1 PUSH0 MSTORE SUB PUSH2 0x14AF JUMPI PUSH2 0x138C DUP5 PUSH2 0x289B JUMP JUMPDEST PUSH1 0x40 MLOAD SWAP1 PUSH32 0xBC7CD75A20EE27FD9ADEBAB32041F755214DBC6BFFA90CC0225B39DA2E5C2D3B PUSH0 DUP1 LOG2 DUP2 MLOAD ISZERO DUP1 ISZERO SWAP1 PUSH2 0x14A7 JUMPI JUMPDEST PUSH2 0x13C5 JUMPI STOP JUMPDEST DUP4 EXTCODESIZE ISZERO PUSH2 0x1456 JUMPI POP PUSH2 0x46D SWAP3 PUSH0 SWAP3 DUP4 SWAP3 MLOAD SWAP2 GAS DELEGATECALL RETURNDATASIZE ISZERO PUSH2 0x144F JUMPI RETURNDATASIZE PUSH2 0x13E9 DUP2 PUSH2 0x22E5 JUMP JUMPDEST SWAP1 PUSH2 0x13F7 PUSH1 0x40 MLOAD SWAP3 DUP4 PUSH2 0x22C3 JUMP JUMPDEST DUP2 MSTORE RETURNDATASIZE PUSH0 PUSH1 0x20 DUP4 ADD RETURNDATACOPY JUMPDEST PUSH1 0x40 MLOAD SWAP2 PUSH2 0x1410 PUSH1 0x60 DUP5 PUSH2 0x22C3 JUMP JUMPDEST PUSH1 0x27 DUP4 MSTORE PUSH32 0x416464726573733A206C6F772D6C6576656C2064656C65676174652063616C6C PUSH1 0x20 DUP5 ADD MSTORE PUSH7 0x819985A5B1959 PUSH1 0xCA SHL PUSH1 0x40 DUP5 ADD MSTORE PUSH2 0x2932 JUMP JUMPDEST PUSH1 0x60 PUSH2 0x1401 JUMP JUMPDEST PUSH3 0x461BCD PUSH1 0xE5 SHL DUP2 MSTORE PUSH1 0x20 PUSH1 0x4 DUP3 ADD MSTORE PUSH1 0x26 PUSH1 0x24 DUP3 ADD MSTORE PUSH32 0x416464726573733A2064656C65676174652063616C6C20746F206E6F6E2D636F PUSH1 0x44 DUP3 ADD MSTORE PUSH6 0x1B9D1C9858DD PUSH1 0xD2 SHL PUSH1 0x64 DUP3 ADD MSTORE PUSH1 0x84 SWAP1 REVERT JUMPDEST POP PUSH1 0x1 PUSH2 0x13BF JUMP JUMPDEST PUSH1 0x40 MLOAD PUSH3 0x461BCD PUSH1 0xE5 SHL DUP2 MSTORE PUSH1 0x20 PUSH1 0x4 DUP3 ADD MSTORE PUSH1 0x29 PUSH1 0x24 DUP3 ADD MSTORE PUSH32 0x45524331393637557067726164653A20756E737570706F727465642070726F78 PUSH1 0x44 DUP3 ADD MSTORE PUSH9 0x1A58589B1955555251 PUSH1 0xBA SHL PUSH1 0x64 DUP3 ADD MSTORE PUSH1 0x84 SWAP1 REVERT JUMPDEST SWAP1 SWAP2 POP PUSH1 0x20 DUP2 RETURNDATASIZE PUSH1 0x20 GT PUSH2 0x1532 JUMPI JUMPDEST DUP2 PUSH2 0x1522 PUSH1 0x20 SWAP4 DUP4 PUSH2 0x22C3 JUMP JUMPDEST DUP2 ADD SUB SLT PUSH2 0x3C7 JUMPI MLOAD SWAP1 DUP7 PUSH2 0x130F JUMP JUMPDEST RETURNDATASIZE SWAP2 POP PUSH2 0x1515 JUMP JUMPDEST CALLVALUE PUSH2 0x3C7 JUMPI PUSH1 0x40 CALLDATASIZE PUSH1 0x3 NOT ADD SLT PUSH2 0x3C7 JUMPI PUSH2 0x1553 PUSH2 0x2297 JUMP JUMPDEST PUSH2 0x155B PUSH2 0x22AD JUMP JUMPDEST PUSH0 SLOAD SWAP1 PUSH1 0xFF DUP3 PUSH1 0x8 SHR AND ISZERO SWAP2 DUP3 DUP1 SWAP4 PUSH2 0x16C8 JUMPI JUMPDEST DUP1 ISZERO PUSH2 0x16B1 JUMPI JUMPDEST ISZERO PUSH2 0x1655 JUMPI PUSH1 0xFF NOT DUP2 AND PUSH1 0x1 OR PUSH0 SSTORE DUP3 PUSH2 0x1644 JUMPI JUMPDEST POP PUSH2 0x15A5 PUSH1 0xFF PUSH0 SLOAD PUSH1 0x8 SHR AND PUSH2 0x15A0 DUP2 PUSH2 0x279B JUMP JUMPDEST PUSH2 0x279B JUMP JUMPDEST PUSH2 0x15AE CALLER PUSH2 0x2853 JUMP JUMPDEST PUSH0 SLOAD SWAP3 PUSH2 0x15CD PUSH1 0xFF DUP6 PUSH1 0x8 SHR AND PUSH2 0x15C4 DUP2 PUSH2 0x279B JUMP JUMPDEST PUSH2 0x15A0 DUP2 PUSH2 0x279B JUMP JUMPDEST PUSH1 0x1 PUSH1 0xC9 SSTORE PUSH1 0x1 DUP1 PUSH1 0xA0 SHL SUB AND PUSH1 0x1 PUSH1 0x1 PUSH1 0x60 SHL SUB PUSH1 0xA0 SHL PUSH1 0xFB SLOAD AND OR PUSH1 0xFB SSTORE PUSH1 0x1 DUP1 PUSH1 0xA0 SHL SUB AND PUSH1 0x1 PUSH1 0x1 PUSH1 0x60 SHL SUB PUSH1 0xA0 SHL PUSH2 0x107 SLOAD AND OR PUSH2 0x107 SSTORE PUSH2 0x1610 JUMPI STOP JUMPDEST PUSH2 0xFF00 NOT AND PUSH0 SSTORE PUSH32 0x7F26B83FF96E1F2B6A682F133852F6798A09C465DA95921460CEFB3847402498 PUSH1 0x20 PUSH1 0x40 MLOAD PUSH1 0x1 DUP2 MSTORE LOG1 STOP JUMPDEST PUSH2 0xFFFF NOT AND PUSH2 0x101 OR PUSH0 SSTORE DUP4 PUSH2 0x158B JUMP JUMPDEST PUSH1 0x40 MLOAD PUSH3 0x461BCD PUSH1 0xE5 SHL DUP2 MSTORE PUSH1 0x20 PUSH1 0x4 DUP3 ADD MSTORE PUSH1 0x2E PUSH1 0x24 DUP3 ADD MSTORE PUSH32 0x496E697469616C697A61626C653A20636F6E747261637420697320616C726561 PUSH1 0x44 DUP3 ADD MSTORE PUSH14 0x191E481A5B9A5D1A585B1A5E9959 PUSH1 0x92 SHL PUSH1 0x64 DUP3 ADD MSTORE PUSH1 0x84 SWAP1 REVERT JUMPDEST POP ADDRESS EXTCODESIZE ISZERO DUP1 ISZERO PUSH2 0x1576 JUMPI POP PUSH1 0x1 PUSH1 0xFF DUP3 AND EQ PUSH2 0x1576 JUMP JUMPDEST POP PUSH1 0x1 PUSH1 0xFF DUP3 AND LT PUSH2 0x156F JUMP JUMPDEST CALLVALUE PUSH2 0x3C7 JUMPI PUSH1 0x40 CALLDATASIZE PUSH1 0x3 NOT ADD SLT PUSH2 0x3C7 JUMPI PUSH1 0x4 CALLDATALOAD PUSH2 0x16F1 PUSH2 0x22AD JUMP JUMPDEST PUSH2 0x1700 PUSH1 0x2 PUSH1 0xC9 SLOAD EQ ISZERO PUSH2 0x251E JUMP JUMPDEST PUSH1 0x2 PUSH1 0xC9 SSTORE PUSH1 0xFB SLOAD PUSH1 0x1 PUSH1 0x1 PUSH1 0xA0 SHL SUB AND SWAP2 CALLER DUP4 SWAP1 SUB PUSH2 0x1882 JUMPI PUSH1 0x20 PUSH1 0x24 SWAP4 PUSH1 0x40 MLOAD SWAP5 DUP6 DUP1 SWAP3 PUSH4 0x6F08BC87 PUSH1 0xE1 SHL DUP3 MSTORE DUP6 PUSH1 0x4 DUP4 ADD MSTORE GAS STATICCALL SWAP3 DUP4 ISZERO PUSH2 0x617 JUMPI PUSH0 SWAP4 PUSH2 0x184E JUMPI JUMPDEST POP PUSH0 JUMPDEST PUSH2 0x103 SLOAD DUP2 LT ISZERO PUSH2 0x1847 JUMPI PUSH2 0x175D DUP2 PUSH2 0x235B JUMP JUMPDEST SWAP1 SLOAD PUSH1 0x3 SWAP2 SWAP1 SWAP2 SHL SHR PUSH1 0x1 PUSH1 0x1 PUSH1 0xA0 SHL SUB AND SWAP1 PUSH2 0x177A DUP4 DUP4 PUSH2 0x2664 JUMP JUMPDEST DUP1 PUSH2 0x178B JUMPI JUMPDEST POP PUSH1 0x1 SWAP2 POP ADD PUSH2 0x1749 JUMP JUMPDEST PUSH2 0x1816 DUP4 PUSH1 0x20 SWAP3 PUSH0 SWAP6 DUP7 MSTORE PUSH2 0x106 DUP5 MSTORE PUSH1 0x40 DUP7 KECCAK256 DUP8 DUP8 MSTORE DUP5 MSTORE DUP6 PUSH1 0x40 DUP2 KECCAK256 SSTORE DUP2 DUP7 MSTORE PUSH2 0x101 DUP5 MSTORE PUSH8 0xDE0B6B3A7640000 PUSH2 0x17C9 PUSH1 0x40 DUP9 KECCAK256 SLOAD DUP12 PUSH2 0x250B JUMP JUMPDEST DUP4 DUP9 MSTORE PUSH2 0x105 DUP7 MSTORE PUSH1 0x40 DUP1 DUP10 KECCAK256 DUP11 DUP11 MSTORE DUP8 MSTORE DUP1 DUP10 KECCAK256 SWAP3 SWAP1 SWAP2 DIV SWAP1 SWAP2 SSTORE MLOAD PUSH4 0xA9059CBB PUSH1 0xE0 SHL DUP2 MSTORE PUSH1 0x1 PUSH1 0x1 PUSH1 0xA0 SHL SUB DUP10 AND PUSH1 0x4 DUP3 ADD MSTORE PUSH1 0x24 DUP2 ADD SWAP2 SWAP1 SWAP2 MSTORE SWAP5 DUP6 SWAP3 DUP4 SWAP2 SWAP1 DUP3 SWAP1 PUSH1 0x44 DUP3 ADD SWAP1 JUMP JUMPDEST SUB SWAP3 GAS CALL SWAP2 DUP3 ISZERO PUSH2 0x617 JUMPI PUSH1 0x1 SWAP3 ISZERO PUSH2 0x1780 JUMPI PUSH2 0x1840 SWAP1 PUSH1 0x20 RETURNDATASIZE DUP2 GT PUSH2 0x999 JUMPI PUSH2 0x98C DUP2 DUP4 PUSH2 0x22C3 JUMP JUMPDEST POP DUP6 PUSH2 0x1780 JUMP JUMPDEST PUSH1 0x1 PUSH1 0xC9 SSTORE STOP JUMPDEST SWAP1 SWAP3 POP PUSH1 0x20 DUP2 RETURNDATASIZE PUSH1 0x20 GT PUSH2 0x187A JUMPI JUMPDEST DUP2 PUSH2 0x186A PUSH1 0x20 SWAP4 DUP4 PUSH2 0x22C3 JUMP JUMPDEST DUP2 ADD SUB SLT PUSH2 0x3C7 JUMPI MLOAD SWAP2 DUP4 PUSH2 0x1746 JUMP JUMPDEST RETURNDATASIZE SWAP2 POP PUSH2 0x185D JUMP JUMPDEST PUSH1 0x64 PUSH1 0x40 MLOAD PUSH3 0x461BCD PUSH1 0xE5 SHL DUP2 MSTORE PUSH1 0x20 PUSH1 0x4 DUP3 ADD MSTORE PUSH1 0x20 PUSH1 0x24 DUP3 ADD MSTORE PUSH32 0x4F6E6C79204E465420636F6E74726163742063616E206175746F2D7377656570 PUSH1 0x44 DUP3 ADD MSTORE REVERT JUMPDEST CALLVALUE PUSH2 0x3C7 JUMPI PUSH1 0x40 CALLDATASIZE PUSH1 0x3 NOT ADD SLT PUSH2 0x3C7 JUMPI PUSH2 0x18DF PUSH2 0x2297 JUMP JUMPDEST PUSH1 0x24 CALLDATALOAD PUSH2 0x18F1 PUSH1 0x2 PUSH1 0xC9 SLOAD EQ ISZERO PUSH2 0x251E JUMP JUMPDEST PUSH1 0x2 PUSH1 0xC9 SSTORE PUSH1 0xFB SLOAD PUSH1 0x40 MLOAD PUSH4 0x31A9108F PUSH1 0xE1 SHL DUP2 MSTORE PUSH1 0x4 DUP2 ADD DUP4 SWAP1 MSTORE PUSH1 0x1 PUSH1 0x1 PUSH1 0xA0 SHL SUB SWAP1 SWAP2 AND SWAP2 SWAP1 PUSH1 0x20 DUP2 PUSH1 0x24 DUP2 DUP7 GAS STATICCALL DUP1 ISZERO PUSH2 0x617 JUMPI PUSH2 0x1944 SWAP2 PUSH0 SWAP2 PUSH2 0x1AB1 JUMPI POP PUSH1 0x1 PUSH1 0x1 PUSH1 0xA0 SHL SUB AND CALLER EQ PUSH2 0x2589 JUMP JUMPDEST PUSH2 0x194E DUP2 DUP5 PUSH2 0x2664 JUMP JUMPDEST SWAP3 DUP4 ISZERO PUSH2 0x1A78 JUMPI PUSH1 0x20 PUSH1 0x24 SWAP4 PUSH1 0x40 MLOAD SWAP5 DUP6 DUP1 SWAP3 PUSH4 0x6F08BC87 PUSH1 0xE1 SHL DUP3 MSTORE DUP7 PUSH1 0x4 DUP4 ADD MSTORE GAS STATICCALL SWAP3 DUP4 ISZERO PUSH2 0x617 JUMPI PUSH0 SWAP4 PUSH2 0x1A42 JUMPI JUMPDEST POP SWAP2 PUSH0 SWAP4 PUSH2 0x1A0E SWAP3 PUSH8 0xDE0B6B3A7640000 PUSH2 0x19CB PUSH1 0x20 SWAP7 PUSH1 0x1 DUP1 PUSH1 0xA0 SHL SUB AND SWAP5 DUP6 DUP10 MSTORE PUSH2 0x106 DUP9 MSTORE PUSH1 0x40 DUP10 KECCAK256 DUP5 DUP11 MSTORE DUP9 MSTORE DUP9 PUSH1 0x40 DUP2 KECCAK256 SSTORE DUP6 DUP10 MSTORE PUSH2 0x101 DUP9 MSTORE PUSH1 0x40 DUP10 KECCAK256 SLOAD SWAP1 PUSH2 0x250B JUMP JUMPDEST DUP5 DUP9 MSTORE PUSH2 0x105 DUP8 MSTORE PUSH1 0x40 DUP1 DUP10 KECCAK256 SWAP4 DUP10 MSTORE SWAP3 DUP8 MSTORE DUP3 DUP9 KECCAK256 SWAP2 SWAP1 DIV SWAP1 SSTORE MLOAD PUSH4 0xA9059CBB PUSH1 0xE0 SHL DUP2 MSTORE CALLER PUSH1 0x4 DUP3 ADD MSTORE PUSH1 0x24 DUP2 ADD SWAP2 SWAP1 SWAP2 MSTORE SWAP4 DUP5 SWAP3 DUP4 SWAP2 SWAP1 DUP3 SWAP1 PUSH1 0x44 DUP3 ADD SWAP1 JUMP JUMPDEST SUB SWAP3 GAS CALL DUP1 ISZERO PUSH2 0x617 JUMPI PUSH2 0x1A23 JUMPI PUSH1 0x1 PUSH1 0xC9 SSTORE STOP JUMPDEST PUSH2 0x1A3B SWAP1 PUSH1 0x20 RETURNDATASIZE PUSH1 0x20 GT PUSH2 0x999 JUMPI PUSH2 0x98C DUP2 DUP4 PUSH2 0x22C3 JUMP JUMPDEST POP DUP1 PUSH2 0x1847 JUMP JUMPDEST SWAP2 SWAP3 POP PUSH1 0x20 DUP3 RETURNDATASIZE PUSH1 0x20 GT PUSH2 0x1A70 JUMPI JUMPDEST DUP2 PUSH2 0x1A5E PUSH1 0x20 SWAP4 DUP4 PUSH2 0x22C3 JUMP JUMPDEST DUP2 ADD SUB SLT PUSH2 0x3C7 JUMPI SWAP1 MLOAD SWAP2 SWAP1 PUSH0 PUSH2 0x1981 JUMP JUMPDEST RETURNDATASIZE SWAP2 POP PUSH2 0x1A51 JUMP JUMPDEST PUSH1 0x40 MLOAD PUSH3 0x461BCD PUSH1 0xE5 SHL DUP2 MSTORE PUSH1 0x20 PUSH1 0x4 DUP3 ADD MSTORE PUSH1 0x11 PUSH1 0x24 DUP3 ADD MSTORE PUSH17 0x139BC8191A5D9A59195B991CC81BDDD959 PUSH1 0x7A SHL PUSH1 0x44 DUP3 ADD MSTORE PUSH1 0x64 SWAP1 REVERT JUMPDEST PUSH2 0x1ACA SWAP2 POP PUSH1 0x20 RETURNDATASIZE PUSH1 0x20 GT PUSH2 0xC81 JUMPI PUSH2 0xC73 DUP2 DUP4 PUSH2 0x22C3 JUMP JUMPDEST DUP6 PUSH2 0xAF5 JUMP JUMPDEST CALLVALUE PUSH2 0x3C7 JUMPI PUSH1 0x20 CALLDATASIZE PUSH1 0x3 NOT ADD SLT PUSH2 0x3C7 JUMPI PUSH1 0xFB SLOAD PUSH1 0x4 CALLDATALOAD SWAP1 PUSH1 0x24 SWAP1 PUSH1 0x20 SWAP1 PUSH1 0x1 PUSH1 0x1 PUSH1 0xA0 SHL SUB AND PUSH2 0x1B02 CALLER DUP3 EQ PUSH2 0x24B5 JUMP JUMPDEST PUSH1 0x40 MLOAD SWAP3 DUP4 DUP1 SWAP3 PUSH4 0x6F08BC87 PUSH1 0xE1 SHL DUP3 MSTORE DUP7 PUSH1 0x4 DUP4 ADD MSTORE GAS STATICCALL SWAP1 DUP2 ISZERO PUSH2 0x617 JUMPI PUSH0 SWAP2 PUSH2 0x1B90 JUMPI JUMPDEST POP PUSH0 JUMPDEST PUSH2 0x103 SLOAD DUP2 LT ISZERO PUSH2 0x46D JUMPI DUP1 PUSH2 0x1B43 PUSH1 0x1 SWAP3 PUSH2 0x235B JUMP JUMPDEST DUP4 DUP1 PUSH1 0xA0 SHL SUB SWAP2 SLOAD SWAP1 PUSH1 0x3 SHL SHR AND DUP1 PUSH0 MSTORE PUSH2 0x101 PUSH1 0x20 MSTORE PUSH8 0xDE0B6B3A7640000 PUSH2 0x1B71 PUSH1 0x40 PUSH0 KECCAK256 SLOAD DUP7 PUSH2 0x250B JUMP JUMPDEST DIV SWAP1 PUSH0 MSTORE PUSH2 0x105 PUSH1 0x20 MSTORE PUSH1 0x40 PUSH0 KECCAK256 DUP6 PUSH0 MSTORE PUSH1 0x20 MSTORE PUSH1 0x40 PUSH0 KECCAK256 SSTORE ADD PUSH2 0x1B2C JUMP JUMPDEST SWAP1 POP PUSH1 0x20 DUP2 RETURNDATASIZE PUSH1 0x20 GT PUSH2 0x1BBA JUMPI JUMPDEST DUP2 PUSH2 0x1BAB PUSH1 0x20 SWAP4 DUP4 PUSH2 0x22C3 JUMP JUMPDEST DUP2 ADD SUB SLT PUSH2 0x3C7 JUMPI MLOAD DUP3 PUSH2 0x1B29 JUMP JUMPDEST RETURNDATASIZE SWAP2 POP PUSH2 0x1B9E JUMP JUMPDEST CALLVALUE PUSH2 0x3C7 JUMPI PUSH1 0x20 CALLDATASIZE PUSH1 0x3 NOT ADD SLT PUSH2 0x3C7 JUMPI PUSH2 0x1BDB PUSH2 0x2297 JUMP JUMPDEST PUSH2 0x1C14 PUSH32 0x0 PUSH1 0x1 PUSH1 0x1 PUSH1 0xA0 SHL SUB AND PUSH2 0x128B ADDRESS DUP3 EQ ISZERO PUSH2 0x23F3 JUMP JUMPDEST PUSH2 0x1C1C PUSH2 0x27FB JUMP JUMPDEST PUSH1 0x20 SWAP1 PUSH1 0x40 MLOAD PUSH2 0x1C2C DUP4 DUP3 PUSH2 0x22C3 JUMP JUMPDEST PUSH0 DUP2 MSTORE DUP3 DUP2 ADD SWAP1 PUSH1 0x1F NOT DUP5 ADD CALLDATASIZE DUP4 CALLDATACOPY PUSH32 0x4910FDFA16FED3260ED0E7147F7CC6DA11A60208B5B9406D12A635614FFD9143 SLOAD PUSH1 0xFF AND ISZERO PUSH2 0x1C71 JUMPI POP POP PUSH2 0x46D SWAP2 POP PUSH2 0x289B JUMP JUMPDEST PUSH1 0x40 MLOAD PUSH4 0x52D1902D PUSH1 0xE0 SHL DUP2 MSTORE PUSH1 0x1 PUSH1 0x1 PUSH1 0xA0 SHL SUB DUP5 AND SWAP1 DUP6 DUP2 PUSH1 0x4 DUP2 DUP6 GAS STATICCALL PUSH0 SWAP2 DUP2 PUSH2 0x1E8F JUMPI JUMPDEST POP PUSH2 0x1CFA JUMPI PUSH1 0x40 MLOAD PUSH3 0x461BCD PUSH1 0xE5 SHL DUP2 MSTORE PUSH1 0x4 DUP2 ADD DUP8 SWAP1 MSTORE PUSH1 0x2E PUSH1 0x24 DUP3 ADD MSTORE PUSH32 0x45524331393637557067726164653A206E657720696D706C656D656E74617469 PUSH1 0x44 DUP3 ADD MSTORE PUSH14 0x6F6E206973206E6F742055555053 PUSH1 0x90 SHL PUSH1 0x64 DUP3 ADD MSTORE PUSH1 0x84 SWAP1 REVERT JUMPDEST PUSH0 MLOAD PUSH1 0x20 PUSH2 0x2977 PUSH0 CODECOPY PUSH0 MLOAD SWAP1 PUSH0 MSTORE SUB PUSH2 0x1E38 JUMPI PUSH2 0x1D16 DUP5 PUSH2 0x289B JUMP JUMPDEST PUSH1 0x40 MLOAD SWAP1 PUSH32 0xBC7CD75A20EE27FD9ADEBAB32041F755214DBC6BFFA90CC0225B39DA2E5C2D3B PUSH0 DUP1 LOG2 DUP2 MLOAD ISZERO DUP1 ISZERO SWAP1 PUSH2 0x1E31 JUMPI JUMPDEST PUSH2 0x1D4F JUMPI STOP JUMPDEST DUP4 EXTCODESIZE ISZERO PUSH2 0x1DE0 JUMPI POP PUSH2 0x46D SWAP4 SWAP3 PUSH0 SWAP3 DUP4 SWAP3 MLOAD SWAP2 GAS DELEGATECALL RETURNDATASIZE ISZERO PUSH2 0x1DD8 JUMPI RETURNDATASIZE SWAP1 PUSH2 0x1D75 DUP3 PUSH2 0x22E5 JUMP JUMPDEST SWAP2 PUSH2 0x1D83 PUSH1 0x40 MLOAD SWAP4 DUP5 PUSH2 0x22C3 JUMP JUMPDEST DUP3 MSTORE RETURNDATASIZE PUSH0 DUP5 DUP5 ADD RETURNDATACOPY JUMPDEST PUSH32 0x416464726573733A206C6F772D6C6576656C2064656C65676174652063616C6C PUSH1 0x40 MLOAD SWAP4 PUSH2 0x1DBC PUSH1 0x60 DUP7 PUSH2 0x22C3 JUMP JUMPDEST PUSH1 0x27 DUP6 MSTORE DUP5 ADD MSTORE PUSH7 0x819985A5B1959 PUSH1 0xCA SHL PUSH1 0x40 DUP5 ADD MSTORE PUSH2 0x2932 JUMP JUMPDEST PUSH1 0x60 SWAP1 PUSH2 0x1D8C JUMP JUMPDEST PUSH3 0x461BCD PUSH1 0xE5 SHL DUP2 MSTORE PUSH1 0x4 DUP2 ADD DUP6 SWAP1 MSTORE PUSH1 0x26 PUSH1 0x24 DUP3 ADD MSTORE PUSH32 0x416464726573733A2064656C65676174652063616C6C20746F206E6F6E2D636F PUSH1 0x44 DUP3 ADD MSTORE PUSH6 0x1B9D1C9858DD PUSH1 0xD2 SHL PUSH1 0x64 DUP3 ADD MSTORE PUSH1 0x84 SWAP1 REVERT JUMPDEST POP PUSH0 PUSH2 0x1D49 JUMP JUMPDEST PUSH1 0x40 MLOAD PUSH3 0x461BCD PUSH1 0xE5 SHL DUP2 MSTORE PUSH1 0x4 DUP2 ADD DUP7 SWAP1 MSTORE PUSH1 0x29 PUSH1 0x24 DUP3 ADD MSTORE PUSH32 0x45524331393637557067726164653A20756E737570706F727465642070726F78 PUSH1 0x44 DUP3 ADD MSTORE PUSH9 0x1A58589B1955555251 PUSH1 0xBA SHL PUSH1 0x64 DUP3 ADD MSTORE PUSH1 0x84 SWAP1 REVERT JUMPDEST SWAP1 SWAP2 POP DUP7 DUP2 DUP2 RETURNDATASIZE DUP4 GT PUSH2 0x1EB7 JUMPI JUMPDEST PUSH2 0x1EA7 DUP2 DUP4 PUSH2 0x22C3 JUMP JUMPDEST DUP2 ADD SUB SLT PUSH2 0x3C7 JUMPI MLOAD SWAP1 DUP8 PUSH2 0x1C99 JUMP JUMPDEST POP RETURNDATASIZE PUSH2 0x1E9D JUMP JUMPDEST CALLVALUE PUSH2 0x3C7 JUMPI PUSH1 0x80 CALLDATASIZE PUSH1 0x3 NOT ADD SLT PUSH2 0x3C7 JUMPI PUSH2 0x1ED7 PUSH2 0x2297 JUMP JUMPDEST POP PUSH2 0x1EE0 PUSH2 0x22AD JUMP JUMPDEST POP PUSH1 0x64 CALLDATALOAD PUSH8 0xFFFFFFFFFFFFFFFF DUP2 GT PUSH2 0x3C7 JUMPI CALLDATASIZE PUSH1 0x23 DUP3 ADD SLT ISZERO PUSH2 0x3C7 JUMPI DUP1 PUSH1 0x4 ADD CALLDATALOAD PUSH8 0xFFFFFFFFFFFFFFFF DUP2 GT PUSH2 0x3C7 JUMPI CALLDATASIZE SWAP2 ADD PUSH1 0x24 ADD GT PUSH2 0x3C7 JUMPI PUSH1 0x40 MLOAD PUSH4 0xA85BD01 PUSH1 0xE1 SHL DUP2 MSTORE PUSH1 0x20 SWAP1 RETURN JUMPDEST CALLVALUE PUSH2 0x3C7 JUMPI PUSH1 0x20 CALLDATASIZE PUSH1 0x3 NOT ADD SLT PUSH2 0x3C7 JUMPI PUSH1 0x4 CALLDATALOAD PUSH0 MSTORE PUSH1 0xFC PUSH1 0x20 MSTORE PUSH1 0x40 PUSH0 KECCAK256 PUSH1 0x4 PUSH1 0x20 PUSH1 0x1 DUP1 PUSH1 0xA0 SHL SUB PUSH1 0xFB SLOAD AND PUSH1 0x40 MLOAD SWAP3 DUP4 DUP1 SWAP3 PUSH4 0xAED96B59 PUSH1 0xE0 SHL DUP3 MSTORE GAS STATICCALL SWAP1 DUP2 ISZERO PUSH2 0x617 JUMPI PUSH0 SWAP2 PUSH2 0x21F8 JUMPI JUMPDEST POP PUSH1 0x1 SHR PUSH1 0x1 DUP2 ADD DUP1 SWAP2 GT PUSH2 0x3CB JUMPI PUSH1 0x3 DUP3 ADD SLOAD TIMESTAMP LT SWAP1 DUP2 ISZERO SWAP2 PUSH2 0x21E9 JUMPI JUMPDEST POP ISZERO PUSH2 0x2192 JUMPI PUSH1 0x4 DUP2 ADD DUP1 SLOAD PUSH1 0xFF DUP2 AND PUSH2 0x215A JUMPI PUSH1 0x1 SWAP1 PUSH1 0xFF NOT AND OR SWAP1 SSTORE PUSH1 0x1 DUP2 ADD SLOAD PUSH1 0x2 DUP3 ADD SLOAD LT PUSH2 0x1FCC JUMPI STOP JUMPDEST DUP1 SLOAD PUSH1 0xFF DUP2 PUSH1 0xA0 SHR AND DUP1 DUP1 SWAP2 PUSH2 0x2137 JUMPI JUMPDEST ISZERO PUSH2 0x2016 JUMPI POP POP DUP1 SLOAD PUSH1 0x1 PUSH1 0x1 PUSH1 0xA0 SHL SUB SWAP1 DUP2 AND PUSH0 SWAP1 DUP2 MSTORE PUSH2 0x100 PUSH1 0x20 MSTORE PUSH1 0x40 SWAP1 KECCAK256 DUP1 SLOAD PUSH1 0xFF NOT AND PUSH1 0x1 OR SWAP1 SSTORE SWAP1 SLOAD PUSH2 0x46D SWAP2 AND PUSH2 0x23A4 JUMP JUMPDEST ISZERO DUP1 PUSH2 0x2115 JUMPI JUMPDEST PUSH2 0x2023 JUMPI STOP JUMPDEST PUSH1 0x1 PUSH1 0x1 PUSH1 0xA0 SHL SUB AND PUSH0 SWAP1 DUP2 MSTORE PUSH2 0x100 PUSH1 0x20 MSTORE PUSH1 0x40 DUP2 KECCAK256 DUP1 SLOAD PUSH1 0xFF NOT AND SWAP1 SSTORE JUMPDEST PUSH1 0xFF SLOAD DUP1 DUP3 LT ISZERO PUSH2 0x46D JUMPI PUSH2 0x2057 DUP3 PUSH2 0x2343 JUMP JUMPDEST SWAP1 SLOAD DUP5 SLOAD PUSH1 0x3 SWAP3 SWAP1 SWAP3 SHL SHR PUSH1 0x1 PUSH1 0x1 PUSH1 0xA0 SHL SUB SWAP1 DUP2 AND SWAP2 AND EQ PUSH2 0x207D JUMPI POP PUSH1 0x1 ADD PUSH2 0x2043 JUMP JUMPDEST PUSH0 NOT DUP2 ADD SWAP3 POP DUP3 GT PUSH2 0x3CB JUMPI PUSH2 0x20B0 PUSH2 0x2098 PUSH2 0x20D4 SWAP4 PUSH2 0x2343 JUMP JUMPDEST SWAP1 SLOAD PUSH1 0x3 SWAP2 SWAP1 SWAP2 SHL SHR PUSH1 0x1 PUSH1 0x1 PUSH1 0xA0 SHL SUB AND SWAP2 PUSH2 0x2343 JUMP JUMPDEST DUP2 SLOAD PUSH1 0x1 PUSH1 0x1 PUSH1 0xA0 SHL SUB SWAP4 DUP5 AND PUSH1 0x3 SWAP3 SWAP1 SWAP3 SHL SWAP2 DUP3 SHL SWAP4 SWAP1 SWAP2 SHL NOT AND SWAP2 SWAP1 SWAP2 OR SWAP1 SSTORE JUMP JUMPDEST PUSH1 0xFF SLOAD DUP1 ISZERO PUSH2 0x2101 JUMPI PUSH0 NOT ADD PUSH2 0x20E9 DUP2 PUSH2 0x2343 JUMP JUMPDEST DUP2 SLOAD SWAP1 PUSH1 0x1 DUP1 PUSH1 0xA0 SHL SUB SWAP1 PUSH1 0x3 SHL SHL NOT AND SWAP1 SSTORE PUSH1 0xFF SSTORE STOP JUMPDEST PUSH4 0x4E487B71 PUSH1 0xE0 SHL PUSH0 MSTORE PUSH1 0x31 PUSH1 0x4 MSTORE PUSH1 0x24 PUSH0 REVERT JUMPDEST POP PUSH1 0x1 PUSH1 0x1 PUSH1 0xA0 SHL SUB DUP2 AND PUSH0 SWAP1 DUP2 MSTORE PUSH2 0x100 PUSH1 0x20 MSTORE PUSH1 0x40 SWAP1 KECCAK256 SLOAD PUSH1 0xFF AND PUSH2 0x201D JUMP JUMPDEST POP PUSH1 0x1 PUSH1 0x1 PUSH1 0xA0 SHL SUB DUP3 AND PUSH0 SWAP1 DUP2 MSTORE PUSH2 0x100 PUSH1 0x20 MSTORE PUSH1 0x40 SWAP1 KECCAK256 SLOAD PUSH1 0xFF AND ISZERO PUSH2 0x1FDD JUMP JUMPDEST PUSH1 0x40 MLOAD PUSH3 0x461BCD PUSH1 0xE5 SHL DUP2 MSTORE PUSH1 0x20 PUSH1 0x4 DUP3 ADD MSTORE PUSH1 0x10 PUSH1 0x24 DUP3 ADD MSTORE PUSH16 0x105B1C9958591E48195E1958DD5D1959 PUSH1 0x82 SHL PUSH1 0x44 DUP3 ADD MSTORE PUSH1 0x64 SWAP1 REVERT JUMPDEST PUSH1 0x40 MLOAD PUSH3 0x461BCD PUSH1 0xE5 SHL DUP2 MSTORE PUSH1 0x20 PUSH1 0x4 DUP3 ADD MSTORE PUSH1 0x29 PUSH1 0x24 DUP3 ADD MSTORE PUSH32 0x566F74696E67206E6F7420656E64656420616E64206E6F206162736F6C757465 PUSH1 0x44 DUP3 ADD MSTORE PUSH9 0x206D616A6F72697479 PUSH1 0xB8 SHL PUSH1 0x64 DUP3 ADD MSTORE PUSH1 0x84 SWAP1 REVERT JUMPDEST SWAP1 POP PUSH1 0x1 DUP3 ADD SLOAD LT ISZERO DUP3 PUSH2 0x1F9D JUMP JUMPDEST SWAP1 POP PUSH1 0x20 DUP2 RETURNDATASIZE PUSH1 0x20 GT PUSH2 0x2222 JUMPI JUMPDEST DUP2 PUSH2 0x2213 PUSH1 0x20 SWAP4 DUP4 PUSH2 0x22C3 JUMP JUMPDEST DUP2 ADD SUB SLT PUSH2 0x3C7 JUMPI MLOAD DUP3 PUSH2 0x1F7E JUMP JUMPDEST RETURNDATASIZE SWAP2 POP PUSH2 0x2206 JUMP JUMPDEST CALLVALUE PUSH2 0x3C7 JUMPI PUSH1 0x20 CALLDATASIZE PUSH1 0x3 NOT ADD SLT PUSH2 0x3C7 JUMPI PUSH1 0xC0 SWAP1 PUSH1 0x4 CALLDATALOAD PUSH0 MSTORE PUSH1 0xFC PUSH1 0x20 MSTORE PUSH1 0x40 PUSH0 KECCAK256 DUP1 SLOAD SWAP1 PUSH1 0x1 DUP2 ADD SLOAD PUSH1 0x2 DUP3 ADD SLOAD SWAP1 PUSH1 0xFF DUP1 PUSH1 0x4 PUSH1 0x3 DUP7 ADD SLOAD SWAP6 ADD SLOAD AND SWAP5 PUSH1 0x1 DUP1 PUSH1 0xA0 SHL SUB DUP2 AND DUP8 MSTORE PUSH1 0xA0 SHR AND ISZERO ISZERO PUSH1 0x20 DUP7 ADD MSTORE PUSH1 0x40 DUP6 ADD MSTORE PUSH1 0x60 DUP5 ADD MSTORE PUSH1 0x80 DUP4 ADD MSTORE ISZERO ISZERO PUSH1 0xA0 DUP3 ADD MSTORE RETURN JUMPDEST PUSH1 0x4 CALLDATALOAD SWAP1 PUSH1 0x1 PUSH1 0x1 PUSH1 0xA0 SHL SUB DUP3 AND DUP3 SUB PUSH2 0x3C7 JUMPI JUMP JUMPDEST PUSH1 0x24 CALLDATALOAD SWAP1 PUSH1 0x1 PUSH1 0x1 PUSH1 0xA0 SHL SUB DUP3 AND DUP3 SUB PUSH2 0x3C7 JUMPI JUMP JUMPDEST SWAP1 PUSH1 0x1F DUP1 NOT SWAP2 ADD AND DUP2 ADD SWAP1 DUP2 LT PUSH8 0xFFFFFFFFFFFFFFFF DUP3 GT OR PUSH2 0xC13 JUMPI PUSH1 0x40 MSTORE JUMP JUMPDEST PUSH8 0xFFFFFFFFFFFFFFFF DUP2 GT PUSH2 0xC13 JUMPI PUSH1 0x1F ADD PUSH1 0x1F NOT AND PUSH1 0x20 ADD SWAP1 JUMP JUMPDEST PUSH1 0x20 PUSH1 0x40 DUP2 DUP4 ADD SWAP3 DUP3 DUP2 MSTORE DUP5 MLOAD DUP1 SWAP5 MSTORE ADD SWAP3 ADD SWAP1 PUSH0 JUMPDEST DUP2 DUP2 LT PUSH2 0x2324 JUMPI POP POP POP SWAP1 JUMP JUMPDEST DUP3 MLOAD PUSH1 0x1 PUSH1 0x1 PUSH1 0xA0 SHL SUB AND DUP5 MSTORE PUSH1 0x20 SWAP4 DUP5 ADD SWAP4 SWAP1 SWAP3 ADD SWAP2 PUSH1 0x1 ADD PUSH2 0x2317 JUMP JUMPDEST PUSH1 0xFF SLOAD DUP2 LT ISZERO PUSH2 0x420 JUMPI PUSH1 0xFF PUSH0 MSTORE PUSH1 0x20 PUSH0 KECCAK256 ADD SWAP1 PUSH0 SWAP1 JUMP JUMPDEST PUSH2 0x103 SLOAD DUP2 LT ISZERO PUSH2 0x420 JUMPI PUSH2 0x103 PUSH0 MSTORE PUSH1 0x20 PUSH0 KECCAK256 ADD SWAP1 PUSH0 SWAP1 JUMP JUMPDEST DUP1 SLOAD DUP3 LT ISZERO PUSH2 0x420 JUMPI PUSH0 MSTORE PUSH1 0x20 PUSH0 KECCAK256 ADD SWAP1 PUSH0 SWAP1 JUMP JUMPDEST SWAP2 SWAP1 DUP3 ADD DUP1 SWAP3 GT PUSH2 0x3CB JUMPI JUMP JUMPDEST SWAP2 SWAP1 DUP3 SUB SWAP2 DUP3 GT PUSH2 0x3CB JUMPI JUMP JUMPDEST PUSH1 0xFF SLOAD SWAP1 PUSH1 0x1 PUSH1 0x40 SHL DUP3 LT ISZERO PUSH2 0xC13 JUMPI PUSH2 0x20B0 DUP3 PUSH1 0x1 PUSH2 0x23C9 SWAP5 ADD PUSH1 0xFF SSTORE PUSH1 0xFF PUSH2 0x2375 JUMP JUMPDEST JUMP JUMPDEST PUSH2 0x103 SLOAD SWAP1 PUSH1 0x1 PUSH1 0x40 SHL DUP3 LT ISZERO PUSH2 0xC13 JUMPI PUSH2 0x20B0 DUP3 PUSH1 0x1 PUSH2 0x23C9 SWAP5 ADD PUSH2 0x103 SSTORE PUSH2 0x103 PUSH2 0x2375 JUMP JUMPDEST ISZERO PUSH2 0x23FA JUMPI JUMP JUMPDEST PUSH1 0x40 MLOAD PUSH3 0x461BCD PUSH1 0xE5 SHL DUP2 MSTORE PUSH1 0x20 PUSH1 0x4 DUP3 ADD MSTORE PUSH1 0x2C PUSH1 0x24 DUP3 ADD MSTORE PUSH32 0x46756E6374696F6E206D7573742062652063616C6C6564207468726F75676820 PUSH1 0x44 DUP3 ADD MSTORE PUSH12 0x19195B1959D85D1958D85B1B PUSH1 0xA2 SHL PUSH1 0x64 DUP3 ADD MSTORE PUSH1 0x84 SWAP1 REVERT JUMPDEST ISZERO PUSH2 0x245B JUMPI JUMP JUMPDEST PUSH1 0x40 MLOAD PUSH3 0x461BCD PUSH1 0xE5 SHL DUP2 MSTORE PUSH1 0x20 PUSH1 0x4 DUP3 ADD MSTORE PUSH1 0x2C PUSH1 0x24 DUP3 ADD MSTORE PUSH32 0x46756E6374696F6E206D7573742062652063616C6C6564207468726F75676820 PUSH1 0x44 DUP3 ADD MSTORE PUSH12 0x6163746976652070726F7879 PUSH1 0xA0 SHL PUSH1 0x64 DUP3 ADD MSTORE PUSH1 0x84 SWAP1 REVERT JUMPDEST ISZERO PUSH2 0x24BC JUMPI JUMP JUMPDEST PUSH1 0x40 MLOAD PUSH3 0x461BCD PUSH1 0xE5 SHL DUP2 MSTORE PUSH1 0x20 PUSH1 0x4 DUP3 ADD MSTORE PUSH1 0x21 PUSH1 0x24 DUP3 ADD MSTORE PUSH32 0x4F6E6C79204E465420636F6E74726163742063616E2075706461746520646562 PUSH1 0x44 DUP3 ADD MSTORE PUSH1 0x1D PUSH1 0xFA SHL PUSH1 0x64 DUP3 ADD MSTORE PUSH1 0x84 SWAP1 REVERT JUMPDEST DUP2 DUP2 MUL SWAP3 SWAP2 DUP2 ISZERO SWAP2 DUP5 DIV EQ OR ISZERO PUSH2 0x3CB JUMPI JUMP JUMPDEST ISZERO PUSH2 0x2525 JUMPI JUMP JUMPDEST PUSH1 0x40 MLOAD PUSH3 0x461BCD PUSH1 0xE5 SHL DUP2 MSTORE PUSH1 0x20 PUSH1 0x4 DUP3 ADD MSTORE PUSH1 0x1F PUSH1 0x24 DUP3 ADD MSTORE PUSH32 0x5265656E7472616E637947756172643A207265656E7472616E742063616C6C00 PUSH1 0x44 DUP3 ADD MSTORE PUSH1 0x64 SWAP1 REVERT JUMPDEST SWAP1 DUP2 PUSH1 0x20 SWAP2 SUB SLT PUSH2 0x3C7 JUMPI MLOAD PUSH1 0x1 PUSH1 0x1 PUSH1 0xA0 SHL SUB DUP2 AND DUP2 SUB PUSH2 0x3C7 JUMPI SWAP1 JUMP JUMPDEST ISZERO PUSH2 0x2590 JUMPI JUMP JUMPDEST PUSH1 0x40 MLOAD PUSH3 0x461BCD PUSH1 0xE5 SHL DUP2 MSTORE PUSH1 0x20 PUSH1 0x4 DUP3 ADD MSTORE PUSH1 0xF PUSH1 0x24 DUP3 ADD MSTORE PUSH15 0x2737BA103A37B5B2B71037BBB732B9 PUSH1 0x89 SHL PUSH1 0x44 DUP3 ADD MSTORE PUSH1 0x64 SWAP1 REVERT JUMPDEST SWAP1 DUP2 PUSH1 0x20 SWAP2 SUB SLT PUSH2 0x3C7 JUMPI MLOAD DUP1 ISZERO ISZERO DUP2 SUB PUSH2 0x3C7 JUMPI SWAP1 JUMP JUMPDEST ISZERO PUSH2 0x25E6 JUMPI JUMP JUMPDEST PUSH1 0x40 MLOAD PUSH3 0x461BCD PUSH1 0xE5 SHL DUP2 MSTORE PUSH1 0x20 PUSH1 0x4 DUP3 ADD MSTORE PUSH1 0xE PUSH1 0x24 DUP3 ADD MSTORE PUSH14 0x27379039B430B932903837BBB2B9 PUSH1 0x91 SHL PUSH1 0x44 DUP3 ADD MSTORE PUSH1 0x64 SWAP1 REVERT JUMPDEST PUSH1 0x1 PUSH1 0x1 PUSH1 0xA0 SHL SUB DUP2 AND PUSH0 DUP2 DUP2 MSTORE PUSH2 0x100 PUSH1 0x20 MSTORE PUSH1 0x40 SWAP1 KECCAK256 SLOAD SWAP1 SWAP2 SWAP1 PUSH1 0xFF AND ISZERO PUSH2 0x2644 JUMPI POP POP JUMP JUMPDEST PUSH2 0x23C9 SWAP2 PUSH0 MSTORE PUSH2 0x100 PUSH1 0x20 MSTORE PUSH1 0x40 PUSH0 KECCAK256 PUSH1 0x1 PUSH1 0xFF NOT DUP3 SLOAD AND OR SWAP1 SSTORE PUSH2 0x23A4 JUMP JUMPDEST PUSH1 0xFB SLOAD PUSH1 0x40 MLOAD PUSH4 0x6F08BC87 PUSH1 0xE1 SHL DUP2 MSTORE PUSH1 0x4 DUP2 ADD DUP5 SWAP1 MSTORE SWAP2 SWAP1 PUSH1 0x20 SWAP1 DUP4 SWAP1 PUSH1 0x24 SWAP1 DUP3 SWAP1 PUSH1 0x1 PUSH1 0x1 PUSH1 0xA0 SHL SUB AND GAS STATICCALL SWAP2 DUP3 ISZERO PUSH2 0x617 JUMPI PUSH0 SWAP3 PUSH2 0x2724 JUMPI JUMPDEST POP PUSH1 0x1 PUSH1 0x1 PUSH1 0xA0 SHL SUB AND PUSH0 DUP2 DUP2 MSTORE PUSH2 0x101 PUSH1 0x20 MSTORE PUSH1 0x40 SWAP1 KECCAK256 SLOAD SWAP1 SWAP2 PUSH8 0xDE0B6B3A7640000 SWAP2 PUSH2 0x26CE SWAP2 PUSH2 0x250B JUMP JUMPDEST DIV SWAP2 DUP2 PUSH0 MSTORE PUSH2 0x105 PUSH1 0x20 MSTORE PUSH1 0x40 PUSH0 KECCAK256 DUP2 PUSH0 MSTORE PUSH1 0x20 MSTORE PUSH1 0x40 PUSH0 KECCAK256 SLOAD SWAP2 PUSH0 MSTORE PUSH2 0x106 PUSH1 0x20 MSTORE PUSH1 0x40 PUSH0 KECCAK256 SWAP1 PUSH0 MSTORE PUSH1 0x20 MSTORE PUSH1 0x40 PUSH0 KECCAK256 SLOAD SWAP2 DUP2 DUP2 GT PUSH2 0x270D JUMPI POP POP SWAP1 JUMP JUMPDEST PUSH2 0x2721 SWAP3 SWAP2 PUSH2 0x271B SWAP2 PUSH2 0x2397 JUMP JUMPDEST SWAP1 PUSH2 0x238A JUMP JUMPDEST SWAP1 JUMP JUMPDEST SWAP1 SWAP2 POP PUSH1 0x20 DUP2 RETURNDATASIZE PUSH1 0x20 GT PUSH2 0x2752 JUMPI JUMPDEST DUP2 PUSH2 0x2740 PUSH1 0x20 SWAP4 DUP4 PUSH2 0x22C3 JUMP JUMPDEST DUP2 ADD SUB SLT PUSH2 0x3C7 JUMPI MLOAD SWAP1 PUSH2 0x26CE PUSH2 0x26A0 JUMP JUMPDEST RETURNDATASIZE SWAP2 POP PUSH2 0x2733 JUMP JUMPDEST DUP1 MLOAD ISZERO PUSH2 0x420 JUMPI PUSH1 0x20 ADD SWAP1 JUMP JUMPDEST DUP1 MLOAD PUSH1 0x1 LT ISZERO PUSH2 0x420 JUMPI PUSH1 0x40 ADD SWAP1 JUMP JUMPDEST DUP1 MLOAD DUP1 DUP4 MSTORE PUSH1 0x20 SWAP3 SWAP2 DUP2 SWAP1 DUP5 ADD DUP5 DUP5 ADD MCOPY PUSH0 DUP3 DUP3 ADD DUP5 ADD MSTORE PUSH1 0x1F ADD PUSH1 0x1F NOT AND ADD ADD SWAP1 JUMP JUMPDEST ISZERO PUSH2 0x27A2 JUMPI JUMP JUMPDEST PUSH1 0x40 MLOAD PUSH3 0x461BCD PUSH1 0xE5 SHL DUP2 MSTORE PUSH1 0x20 PUSH1 0x4 DUP3 ADD MSTORE PUSH1 0x2B PUSH1 0x24 DUP3 ADD MSTORE PUSH32 0x496E697469616C697A61626C653A20636F6E7472616374206973206E6F742069 PUSH1 0x44 DUP3 ADD MSTORE PUSH11 0x6E697469616C697A696E67 PUSH1 0xA8 SHL PUSH1 0x64 DUP3 ADD MSTORE PUSH1 0x84 SWAP1 REVERT JUMPDEST PUSH1 0x97 SLOAD PUSH1 0x1 PUSH1 0x1 PUSH1 0xA0 SHL SUB AND CALLER SUB PUSH2 0x280F JUMPI JUMP JUMPDEST PUSH1 0x64 PUSH1 0x40 MLOAD PUSH3 0x461BCD PUSH1 0xE5 SHL DUP2 MSTORE PUSH1 0x20 PUSH1 0x4 DUP3 ADD MSTORE PUSH1 0x20 PUSH1 0x24 DUP3 ADD MSTORE PUSH32 0x4F776E61626C653A2063616C6C6572206973206E6F7420746865206F776E6572 PUSH1 0x44 DUP3 ADD MSTORE REVERT JUMPDEST PUSH1 0x97 DUP1 SLOAD PUSH1 0x1 PUSH1 0x1 PUSH1 0xA0 SHL SUB SWAP3 DUP4 AND PUSH1 0x1 PUSH1 0x1 PUSH1 0xA0 SHL SUB NOT DUP3 AND DUP2 OR SWAP1 SWAP3 SSTORE SWAP1 SWAP2 AND PUSH32 0x8BE0079C531659141344CD1FD0A4F28419497F9722A3DAAFE3B4186F6B6457E0 PUSH0 DUP1 LOG3 JUMP JUMPDEST DUP1 EXTCODESIZE ISZERO PUSH2 0x28D7 JUMPI PUSH1 0x1 DUP1 PUSH1 0xA0 SHL SUB AND PUSH1 0x1 PUSH1 0x1 PUSH1 0x60 SHL SUB PUSH1 0xA0 SHL PUSH0 MLOAD PUSH1 0x20 PUSH2 0x2977 PUSH0 CODECOPY PUSH0 MLOAD SWAP1 PUSH0 MSTORE SLOAD AND OR PUSH0 MLOAD PUSH1 0x20 PUSH2 0x2977 PUSH0 CODECOPY PUSH0 MLOAD SWAP1 PUSH0 MSTORE SSTORE JUMP JUMPDEST PUSH1 0x40 MLOAD PUSH3 0x461BCD PUSH1 0xE5 SHL DUP2 MSTORE PUSH1 0x20 PUSH1 0x4 DUP3 ADD MSTORE PUSH1 0x2D PUSH1 0x24 DUP3 ADD MSTORE PUSH32 0x455243313936373A206E657720696D706C656D656E746174696F6E206973206E PUSH1 0x44 DUP3 ADD MSTORE PUSH13 0x1BDD08184818DBDB9D1C9858DD PUSH1 0x9A SHL PUSH1 0x64 DUP3 ADD MSTORE PUSH1 0x84 SWAP1 REVERT JUMPDEST SWAP1 SWAP2 SWAP1 ISZERO PUSH2 0x293E JUMPI POP SWAP1 JUMP JUMPDEST DUP2 MLOAD ISZERO PUSH2 0x294E JUMPI POP DUP1 MLOAD SWAP1 PUSH1 0x20 ADD REVERT JUMPDEST PUSH1 0x40 MLOAD PUSH3 0x461BCD PUSH1 0xE5 SHL DUP2 MSTORE PUSH1 0x20 PUSH1 0x4 DUP3 ADD MSTORE SWAP1 DUP2 SWAP1 PUSH2 0x2972 SWAP1 PUSH1 0x24 DUP4 ADD SWAP1 PUSH2 0x2777 JUMP JUMPDEST SUB SWAP1 REVERT INVALID CALLDATASIZE ADDMOD SWAP5 LOG1 EXTCODESIZE LOG1 LOG3 0x21 MOD PUSH8 0xC828492DB98DCA3E KECCAK256 PUSH23 0xCC3735A920A3CA505D382BBCA2646970667358221220EB 0x2C CALLVALUE CREATE 0x27 PUSH3 0x17DBE4 INVALID BALANCE PUSH16 0x9890102B31704724102059B60479B2DC 0xBA INVALID 0x23 CODECOPY PUSH5 0x736F6C6343 STOP ADDMOD SHL STOP CALLER "
        },
        "methodIdentifiers": {
          "activeBuyList(uint256)": "e18e6306",
          "claimAllDividendsFor(uint256,address)": "4443b69d",
          "claimDividends(address,uint256)": "43e9585f",
          "claimFeesFromPosition(uint256,address,address)": "fb0132d3",
          "distributeYield(address,uint256)": "bd4ba9c0",
          "executeProposal(uint256)": "0d61b519",
          "forceAddRWA(address)": "d7818cd9",
          "getActiveBuyList()": "745890f6",
          "getClaimableDividends(address,uint256)": "d2b91bd1",
          "getRewardTokens()": "c4f59f9b",
          "hasVoted(uint256,uint256)": "64390ff1",
          "hotfixAddRewardToken(address)": "88df1e9b",
          "hotfixAddToBuyList(address)": "a566f3ac",
          "inBuyList(address)": "c244f68c",
          "initialize(address,address)": "485cc955",
          "isRewardToken(address)": "b5fd73f8",
          "nftContract()": "d56d229d",
          "onERC721Received(address,address,uint256,bytes)": "150b7a02",
          "owner()": "8da5cb5b",
          "pendingDividends(address,uint256)": "5c3bdd88",
          "positionManager()": "791b98bc",
          "proposalCount()": "da35c664",
          "proposals(uint256)": "013cf08b",
          "propose(address,bool,uint256)": "b1276169",
          "proxiableUUID()": "52d1902d",
          "renounceOwnership()": "715018a6",
          "rewardDebt(address,uint256)": "e2d076c9",
          "rewardTokens(uint256)": "7bb7bed1",
          "setNftContract(address)": "52f5ad77",
          "setPositionManager(address)": "5760f2e3",
          "syncRewardDebt(uint256)": "3f71573e",
          "totalDividendsPerPower(address)": "cc738ac3",
          "transferOwnership(address)": "f2fde38b",
          "updateRewardDebt(uint256)": "ec3d3c31",
          "upgradeTo(address)": "3659cfe6",
          "upgradeToAndCall(address,bytes)": "4f1ef286",
          "vote(uint256,uint256,bool)": "6a18ff7a"
        }
      }
    }
  }
}