{
  "contracts/ERC20/PengoBondingCurve.sol": {
    "PengoBondingCurve": {
      "abi": [
        {
          "inputs": [
            {
              "internalType": "address",
              "name": "_pengoToken",
              "type": "address"
            },
            {
              "internalType": "address",
              "name": "_uniswapRouter",
              "type": "address"
            },
            {
              "internalType": "address",
              "name": "_strategyVault",
              "type": "address"
            }
          ],
          "stateMutability": "nonpayable",
          "type": "constructor"
        },
        {
          "anonymous": false,
          "inputs": [
            {
              "indexed": false,
              "internalType": "uint256",
              "name": "ethAmount",
              "type": "uint256"
            },
            {
              "indexed": false,
              "internalType": "uint256",
              "name": "tokenAmount",
              "type": "uint256"
            },
            {
              "indexed": false,
              "internalType": "uint256",
              "name": "lpTokens",
              "type": "uint256"
            }
          ],
          "name": "LiquidityMigrated",
          "type": "event"
        },
        {
          "anonymous": false,
          "inputs": [
            {
              "indexed": true,
              "internalType": "address",
              "name": "previousOwner",
              "type": "address"
            },
            {
              "indexed": true,
              "internalType": "address",
              "name": "newOwner",
              "type": "address"
            }
          ],
          "name": "OwnershipTransferred",
          "type": "event"
        },
        {
          "anonymous": false,
          "inputs": [
            {
              "indexed": true,
              "internalType": "address",
              "name": "buyer",
              "type": "address"
            },
            {
              "indexed": false,
              "internalType": "uint256",
              "name": "amount",
              "type": "uint256"
            },
            {
              "indexed": false,
              "internalType": "uint256",
              "name": "cost",
              "type": "uint256"
            }
          ],
          "name": "TokensPurchased",
          "type": "event"
        },
        {
          "anonymous": false,
          "inputs": [
            {
              "indexed": true,
              "internalType": "address",
              "name": "seller",
              "type": "address"
            },
            {
              "indexed": false,
              "internalType": "uint256",
              "name": "amount",
              "type": "uint256"
            },
            {
              "indexed": false,
              "internalType": "uint256",
              "name": "returnEth",
              "type": "uint256"
            },
            {
              "indexed": false,
              "internalType": "uint256",
              "name": "taxEth",
              "type": "uint256"
            }
          ],
          "name": "TokensSold",
          "type": "event"
        },
        {
          "inputs": [],
          "name": "TARGET_LIQUIDITY",
          "outputs": [
            {
              "internalType": "uint256",
              "name": "",
              "type": "uint256"
            }
          ],
          "stateMutability": "view",
          "type": "function"
        },
        {
          "inputs": [],
          "name": "TOKENS_FOR_LIQUIDITY",
          "outputs": [
            {
              "internalType": "uint256",
              "name": "",
              "type": "uint256"
            }
          ],
          "stateMutability": "view",
          "type": "function"
        },
        {
          "inputs": [],
          "name": "TOKENS_FOR_SALE",
          "outputs": [
            {
              "internalType": "uint256",
              "name": "",
              "type": "uint256"
            }
          ],
          "stateMutability": "view",
          "type": "function"
        },
        {
          "inputs": [],
          "name": "basePrice",
          "outputs": [
            {
              "internalType": "uint256",
              "name": "",
              "type": "uint256"
            }
          ],
          "stateMutability": "view",
          "type": "function"
        },
        {
          "inputs": [
            {
              "internalType": "uint256",
              "name": "amount",
              "type": "uint256"
            }
          ],
          "name": "buy",
          "outputs": [],
          "stateMutability": "payable",
          "type": "function"
        },
        {
          "inputs": [
            {
              "internalType": "uint256",
              "name": "amount",
              "type": "uint256"
            }
          ],
          "name": "getCost",
          "outputs": [
            {
              "internalType": "uint256",
              "name": "",
              "type": "uint256"
            }
          ],
          "stateMutability": "view",
          "type": "function"
        },
        {
          "inputs": [
            {
              "internalType": "uint256",
              "name": "amount",
              "type": "uint256"
            }
          ],
          "name": "getSellValue",
          "outputs": [
            {
              "internalType": "uint256",
              "name": "returnEth",
              "type": "uint256"
            },
            {
              "internalType": "uint256",
              "name": "taxEth",
              "type": "uint256"
            }
          ],
          "stateMutability": "view",
          "type": "function"
        },
        {
          "inputs": [],
          "name": "isMigrated",
          "outputs": [
            {
              "internalType": "bool",
              "name": "",
              "type": "bool"
            }
          ],
          "stateMutability": "view",
          "type": "function"
        },
        {
          "inputs": [],
          "name": "owner",
          "outputs": [
            {
              "internalType": "address",
              "name": "",
              "type": "address"
            }
          ],
          "stateMutability": "view",
          "type": "function"
        },
        {
          "inputs": [],
          "name": "pengoToken",
          "outputs": [
            {
              "internalType": "contract IERC20",
              "name": "",
              "type": "address"
            }
          ],
          "stateMutability": "view",
          "type": "function"
        },
        {
          "inputs": [],
          "name": "priceIncrement",
          "outputs": [
            {
              "internalType": "uint256",
              "name": "",
              "type": "uint256"
            }
          ],
          "stateMutability": "view",
          "type": "function"
        },
        {
          "inputs": [],
          "name": "renounceOwnership",
          "outputs": [],
          "stateMutability": "nonpayable",
          "type": "function"
        },
        {
          "inputs": [
            {
              "internalType": "uint256",
              "name": "amount",
              "type": "uint256"
            }
          ],
          "name": "sell",
          "outputs": [],
          "stateMutability": "nonpayable",
          "type": "function"
        },
        {
          "inputs": [],
          "name": "strategyVault",
          "outputs": [
            {
              "internalType": "address",
              "name": "",
              "type": "address"
            }
          ],
          "stateMutability": "view",
          "type": "function"
        },
        {
          "inputs": [],
          "name": "tokensSold",
          "outputs": [
            {
              "internalType": "uint256",
              "name": "",
              "type": "uint256"
            }
          ],
          "stateMutability": "view",
          "type": "function"
        },
        {
          "inputs": [
            {
              "internalType": "address",
              "name": "newOwner",
              "type": "address"
            }
          ],
          "name": "transferOwnership",
          "outputs": [],
          "stateMutability": "nonpayable",
          "type": "function"
        },
        {
          "inputs": [],
          "name": "uniswapRouter",
          "outputs": [
            {
              "internalType": "contract IUniswapV2Router02",
              "name": "",
              "type": "address"
            }
          ],
          "stateMutability": "view",
          "type": "function"
        }
      ],
      "evm": {
        "bytecode": {
          "linkReferences": {},
          "object": "60803461011957601f610e5338819003918201601f19168301916001600160401b0383118484101761011d578084926060946040528339810103126101195761004781610131565b90610060604061005960208401610131565b9201610131565b5f8054336001600160a01b0319821681178355604051959394939290916001600160a01b0316907f8be0079c531659141344cd1fd0a4f28419497f9722a3daafe3b4186f6b6457e09080a3631dcd650f600355601e600455600180546001600160a01b03199081166001600160a01b0393841617909155600280549091169290911691909117905560068054610100600160a81b03191660089290921b610100600160a81b0316919091179055610d0d90816101468239f35b5f80fd5b634e487b7160e01b5f52604160045260245ffd5b51906001600160a01b03821682036101195756fe6080806040526004361015610012575f80fd5b5f3560e01c9081631f3940271461075057508063280d62ac146107335780634009909814610707578063487ef216146106df578063518ab2a8146106c25780635a4dd47d1461069c5780635c95eb521461067a578063715018a614610623578063735de9f7146105fb5780637939a10b146105d15780638da5cb5b146105aa578063b06faf6214610588578063c7876ea41461056b578063c8612b2f14610545578063d96a094a14610379578063e4849b32146101a55763f2fde38b146100d7575f80fd5b346101a15760203660031901126101a1576004356001600160a01b038116908190036101a157610105610a4a565b801561014d575f80546001600160a01b03198116831782556001600160a01b0316907f8be0079c531659141344cd1fd0a4f28419497f9722a3daafe3b4186f6b6457e09080a3005b60405162461bcd60e51b815260206004820152602660248201527f4f776e61626c653a206e6577206f776e657220697320746865207a65726f206160448201526564647265737360d01b6064820152608490fd5b5f80fd5b346101a15760203660031901126101a1576004356101c860ff6006541615610962565b8015610335576101d781610880565b8147106102f0576101ea836005546107f3565b6005556001546040516323b872dd60e01b81523360048201523060248201526044810185905290602090829060649082905f906001600160a01b03165af180156102ad5761023f915f916102c1575b50610a06565b815f81156102b8575b5f80809381933390f1156102ad576040805193845260208401929092529082015233907f6db63bebf1e6540277744df32846ebdb98385b1a73f2d5de49b28348add63f5090606090a2670de0b6b3a76400004710156102a357005b6102ab610aa1565b005b6040513d5f823e3d90fd5b506108fc610248565b6102e3915060203d6020116102e9575b6102db81836109b8565b8101906109ee565b85610239565b503d6102d1565b60405162461bcd60e51b815260206004820152601d60248201527f436f6e74726163742068617320696e73756666696369656e74204554480000006044820152606490fd5b606460405162461bcd60e51b815260206004820152602060248201527f416d6f756e74206d7573742062652067726561746572207468616e207a65726f6044820152fd5b60203660031901126101a15760043561039760ff6006541615610962565b600554906b0295be96e6406697200000006103b282846107e6565b116104f6576103c081610800565b918234106104b957816103d2916107e6565b60055560015460405163a9059cbb60e01b81523360048201526024810183905290602090829060449082905f906001600160a01b03165af180156102ad57610420915f9161049a5750610a06565b6040519081528160208201527f8fafebcaf9d154343dad25669bfa277f4fbacd7ac6b0c4fed522580e040a0f3360403392a280341161046d575b50670de0b6b3a76400004710156102a357005b5f808061047b8194346107f3565b818115610491575b3390f1156102ad578061045a565b506108fc610483565b6104b3915060203d6020116102e9576102db81836109b8565b84610239565b60405162461bcd60e51b8152602060048201526015602482015274125b9cdd59999a58da595b9d08115512081cd95b9d605a1b6044820152606490fd5b60405162461bcd60e51b815260206004820152602160248201527f4578636565647320617661696c61626c6520746f6b656e7320666f722073616c6044820152606560f81b6064820152608490fd5b346101a1575f3660031901126101a15760206040516b0295be96e6406697200000008152f35b346101a1575f3660031901126101a1576020600354604051908152f35b346101a1575f3660031901126101a157602060ff600654166040519015158152f35b346101a1575f3660031901126101a1575f546040516001600160a01b039091168152602090f35b346101a15760203660031901126101a15760406105ef600435610880565b82519182526020820152f35b346101a1575f3660031901126101a1576002546040516001600160a01b039091168152602090f35b346101a1575f3660031901126101a15761063b610a4a565b5f80546001600160a01b0319811682556001600160a01b03167f8be0079c531659141344cd1fd0a4f28419497f9722a3daafe3b4186f6b6457e08280a3005b346101a1575f3660031901126101a1576020604051670de0b6b3a76400008152f35b346101a15760203660031901126101a15760206106ba600435610800565b604051908152f35b346101a1575f3660031901126101a1576020600554604051908152f35b346101a1575f3660031901126101a1576001546040516001600160a01b039091168152602090f35b346101a1575f3660031901126101a15760065460405160089190911c6001600160a01b03168152602090f35b346101a1575f3660031901126101a1576020600454604051908152f35b346101a1575f3660031901126101a157806aa56fa5b99019a5c800000060209252f35b1561077a57565b60405162461bcd60e51b815260206004820152601d60248201527f416d6f756e74206d75737420626520696e2066756c6c20746f6b656e730000006044820152606490fd5b818102929181159184041417156107d257565b634e487b7160e01b5f52601160045260245ffd5b919082018092116107d257565b919082039182116107d257565b670de0b6b3a76400009061081682820615610773565b04670de0b6b3a7640000600554049061083e60035461083860045480956107bf565b906107e6565b916001600160ff1b03831683036107d2575f198201928284116107d25761086b6108749261087a956107bf565b9060011b6107e6565b906107bf565b60011c90565b610894670de0b6b3a7640000820615610773565b6005549081811161091d576108b581670de0b6b3a7640000809304936107f3565b04906108ca60035461083860045480956107bf565b916001600160ff1b03831683036107d2575f198201928284116107d25761086b610874926108f7956107bf565b60011c60038102818104600314821517156107d257606461091a910480926107f3565b91565b60405162461bcd60e51b815260206004820152601a60248201527f416d6f756e74206578636565647320746f6b656e7320736f6c640000000000006044820152606490fd5b1561096957565b60405162461bcd60e51b815260206004820152602160248201527f4c697175696469747920616c7265616479206d6967726174656420746f2044456044820152600b60fb1b6064820152608490fd5b90601f8019910116810190811067ffffffffffffffff8211176109da57604052565b634e487b7160e01b5f52604160045260245ffd5b908160209103126101a1575180151581036101a15790565b15610a0d57565b60405162461bcd60e51b8152602060048201526015602482015274151bdad95b881d1c985b9cd9995c8819985a5b1959605a1b6044820152606490fd5b5f546001600160a01b03163303610a5d57565b606460405162461bcd60e51b815260206004820152602060248201527f4f776e61626c653a2063616c6c6572206973206e6f7420746865206f776e65726044820152fd5b6006805460ff19166001908117909155546040516370a0823160e01b815230600482015247916001600160a01b0316602082602481845afa9182156102ad575f92610ca3575b506aa56fa5b99019a5c80000008210610c5e5760025460405163095ea7b360e01b81526001600160a01b0390911660048201526024810183905290602090829060449082905f905af180156102ad57610c41575b5060025460015460065460081c6001600160a01b039081169492811693924261012c8101939092169183106107d25760609460c493604051978896879563f305d71960e01b8752600487015260248601525f60448601525f6064860152608485015260a48401525af19081156102ad575f905f905f93610bfe575b50610bf97fb601ba6099d0385f3a4bad0485aa6ff9186cda7fff3307a3b408b9ecee520e6f93604051938493846040919493926060820195825260208201520152565b0390a1565b925050506060813d606011610c39575b81610c1b606093836109b8565b810103126101a1578051602082015160409092015191610bf9610bb6565b3d9150610c0e565b610c599060203d6020116102e9576102db81836109b8565b610b3b565b60405162461bcd60e51b815260206004820152601860248201527f4e6f7420656e6f75676820746f6b656e7320666f72204c5000000000000000006044820152606490fd5b9091506020813d602011610ccf575b81610cbf602093836109b8565b810103126101a15751905f610ae7565b3d9150610cb256fea2646970667358221220e7ea1b0f8761b0bd77fa4e178fa8e8bee888ee061fca217635d30e8aad77e85664736f6c634300081b0033",
          "opcodes": "PUSH1 0x80 CALLVALUE PUSH2 0x119 JUMPI PUSH1 0x1F PUSH2 0xE53 CODESIZE DUP2 SWAP1 SUB SWAP2 DUP3 ADD PUSH1 0x1F NOT AND DUP4 ADD SWAP2 PUSH1 0x1 PUSH1 0x1 PUSH1 0x40 SHL SUB DUP4 GT DUP5 DUP5 LT OR PUSH2 0x11D JUMPI DUP1 DUP5 SWAP3 PUSH1 0x60 SWAP5 PUSH1 0x40 MSTORE DUP4 CODECOPY DUP2 ADD SUB SLT PUSH2 0x119 JUMPI PUSH2 0x47 DUP2 PUSH2 0x131 JUMP JUMPDEST SWAP1 PUSH2 0x60 PUSH1 0x40 PUSH2 0x59 PUSH1 0x20 DUP5 ADD PUSH2 0x131 JUMP JUMPDEST SWAP3 ADD PUSH2 0x131 JUMP JUMPDEST PUSH0 DUP1 SLOAD CALLER PUSH1 0x1 PUSH1 0x1 PUSH1 0xA0 SHL SUB NOT DUP3 AND DUP2 OR DUP4 SSTORE PUSH1 0x40 MLOAD SWAP6 SWAP4 SWAP5 SWAP4 SWAP3 SWAP1 SWAP2 PUSH1 0x1 PUSH1 0x1 PUSH1 0xA0 SHL SUB AND SWAP1 PUSH32 0x8BE0079C531659141344CD1FD0A4F28419497F9722A3DAAFE3B4186F6B6457E0 SWAP1 DUP1 LOG3 PUSH4 0x1DCD650F PUSH1 0x3 SSTORE PUSH1 0x1E PUSH1 0x4 SSTORE PUSH1 0x1 DUP1 SLOAD PUSH1 0x1 PUSH1 0x1 PUSH1 0xA0 SHL SUB NOT SWAP1 DUP2 AND PUSH1 0x1 PUSH1 0x1 PUSH1 0xA0 SHL SUB SWAP4 DUP5 AND OR SWAP1 SWAP2 SSTORE PUSH1 0x2 DUP1 SLOAD SWAP1 SWAP2 AND SWAP3 SWAP1 SWAP2 AND SWAP2 SWAP1 SWAP2 OR SWAP1 SSTORE PUSH1 0x6 DUP1 SLOAD PUSH2 0x100 PUSH1 0x1 PUSH1 0xA8 SHL SUB NOT AND PUSH1 0x8 SWAP3 SWAP1 SWAP3 SHL PUSH2 0x100 PUSH1 0x1 PUSH1 0xA8 SHL SUB AND SWAP2 SWAP1 SWAP2 OR SWAP1 SSTORE PUSH2 0xD0D SWAP1 DUP2 PUSH2 0x146 DUP3 CODECOPY RETURN JUMPDEST PUSH0 DUP1 REVERT JUMPDEST PUSH4 0x4E487B71 PUSH1 0xE0 SHL PUSH0 MSTORE PUSH1 0x41 PUSH1 0x4 MSTORE PUSH1 0x24 PUSH0 REVERT JUMPDEST MLOAD SWAP1 PUSH1 0x1 PUSH1 0x1 PUSH1 0xA0 SHL SUB DUP3 AND DUP3 SUB PUSH2 0x119 JUMPI JUMP INVALID PUSH1 0x80 DUP1 PUSH1 0x40 MSTORE PUSH1 0x4 CALLDATASIZE LT ISZERO PUSH2 0x12 JUMPI PUSH0 DUP1 REVERT JUMPDEST PUSH0 CALLDATALOAD PUSH1 0xE0 SHR SWAP1 DUP2 PUSH4 0x1F394027 EQ PUSH2 0x750 JUMPI POP DUP1 PUSH4 0x280D62AC EQ PUSH2 0x733 JUMPI DUP1 PUSH4 0x40099098 EQ PUSH2 0x707 JUMPI DUP1 PUSH4 0x487EF216 EQ PUSH2 0x6DF JUMPI DUP1 PUSH4 0x518AB2A8 EQ PUSH2 0x6C2 JUMPI DUP1 PUSH4 0x5A4DD47D EQ PUSH2 0x69C JUMPI DUP1 PUSH4 0x5C95EB52 EQ PUSH2 0x67A JUMPI DUP1 PUSH4 0x715018A6 EQ PUSH2 0x623 JUMPI DUP1 PUSH4 0x735DE9F7 EQ PUSH2 0x5FB JUMPI DUP1 PUSH4 0x7939A10B EQ PUSH2 0x5D1 JUMPI DUP1 PUSH4 0x8DA5CB5B EQ PUSH2 0x5AA JUMPI DUP1 PUSH4 0xB06FAF62 EQ PUSH2 0x588 JUMPI DUP1 PUSH4 0xC7876EA4 EQ PUSH2 0x56B JUMPI DUP1 PUSH4 0xC8612B2F EQ PUSH2 0x545 JUMPI DUP1 PUSH4 0xD96A094A EQ PUSH2 0x379 JUMPI DUP1 PUSH4 0xE4849B32 EQ PUSH2 0x1A5 JUMPI PUSH4 0xF2FDE38B EQ PUSH2 0xD7 JUMPI PUSH0 DUP1 REVERT JUMPDEST CALLVALUE PUSH2 0x1A1 JUMPI PUSH1 0x20 CALLDATASIZE PUSH1 0x3 NOT ADD SLT PUSH2 0x1A1 JUMPI PUSH1 0x4 CALLDATALOAD PUSH1 0x1 PUSH1 0x1 PUSH1 0xA0 SHL SUB DUP2 AND SWAP1 DUP2 SWAP1 SUB PUSH2 0x1A1 JUMPI PUSH2 0x105 PUSH2 0xA4A JUMP JUMPDEST DUP1 ISZERO PUSH2 0x14D JUMPI PUSH0 DUP1 SLOAD PUSH1 0x1 PUSH1 0x1 PUSH1 0xA0 SHL SUB NOT DUP2 AND DUP4 OR DUP3 SSTORE PUSH1 0x1 PUSH1 0x1 PUSH1 0xA0 SHL SUB AND SWAP1 PUSH32 0x8BE0079C531659141344CD1FD0A4F28419497F9722A3DAAFE3B4186F6B6457E0 SWAP1 DUP1 LOG3 STOP JUMPDEST PUSH1 0x40 MLOAD PUSH3 0x461BCD PUSH1 0xE5 SHL DUP2 MSTORE PUSH1 0x20 PUSH1 0x4 DUP3 ADD MSTORE PUSH1 0x26 PUSH1 0x24 DUP3 ADD MSTORE PUSH32 0x4F776E61626C653A206E6577206F776E657220697320746865207A65726F2061 PUSH1 0x44 DUP3 ADD MSTORE PUSH6 0x646472657373 PUSH1 0xD0 SHL PUSH1 0x64 DUP3 ADD MSTORE PUSH1 0x84 SWAP1 REVERT JUMPDEST PUSH0 DUP1 REVERT JUMPDEST CALLVALUE PUSH2 0x1A1 JUMPI PUSH1 0x20 CALLDATASIZE PUSH1 0x3 NOT ADD SLT PUSH2 0x1A1 JUMPI PUSH1 0x4 CALLDATALOAD PUSH2 0x1C8 PUSH1 0xFF PUSH1 0x6 SLOAD AND ISZERO PUSH2 0x962 JUMP JUMPDEST DUP1 ISZERO PUSH2 0x335 JUMPI PUSH2 0x1D7 DUP2 PUSH2 0x880 JUMP JUMPDEST DUP2 SELFBALANCE LT PUSH2 0x2F0 JUMPI PUSH2 0x1EA DUP4 PUSH1 0x5 SLOAD PUSH2 0x7F3 JUMP JUMPDEST PUSH1 0x5 SSTORE PUSH1 0x1 SLOAD PUSH1 0x40 MLOAD PUSH4 0x23B872DD PUSH1 0xE0 SHL DUP2 MSTORE CALLER PUSH1 0x4 DUP3 ADD MSTORE ADDRESS PUSH1 0x24 DUP3 ADD MSTORE PUSH1 0x44 DUP2 ADD DUP6 SWAP1 MSTORE SWAP1 PUSH1 0x20 SWAP1 DUP3 SWAP1 PUSH1 0x64 SWAP1 DUP3 SWAP1 PUSH0 SWAP1 PUSH1 0x1 PUSH1 0x1 PUSH1 0xA0 SHL SUB AND GAS CALL DUP1 ISZERO PUSH2 0x2AD JUMPI PUSH2 0x23F SWAP2 PUSH0 SWAP2 PUSH2 0x2C1 JUMPI JUMPDEST POP PUSH2 0xA06 JUMP JUMPDEST DUP2 PUSH0 DUP2 ISZERO PUSH2 0x2B8 JUMPI JUMPDEST PUSH0 DUP1 DUP1 SWAP4 DUP2 SWAP4 CALLER SWAP1 CALL ISZERO PUSH2 0x2AD JUMPI PUSH1 0x40 DUP1 MLOAD SWAP4 DUP5 MSTORE PUSH1 0x20 DUP5 ADD SWAP3 SWAP1 SWAP3 MSTORE SWAP1 DUP3 ADD MSTORE CALLER SWAP1 PUSH32 0x6DB63BEBF1E6540277744DF32846EBDB98385B1A73F2D5DE49B28348ADD63F50 SWAP1 PUSH1 0x60 SWAP1 LOG2 PUSH8 0xDE0B6B3A7640000 SELFBALANCE LT ISZERO PUSH2 0x2A3 JUMPI STOP JUMPDEST PUSH2 0x2AB PUSH2 0xAA1 JUMP JUMPDEST STOP JUMPDEST PUSH1 0x40 MLOAD RETURNDATASIZE PUSH0 DUP3 RETURNDATACOPY RETURNDATASIZE SWAP1 REVERT JUMPDEST POP PUSH2 0x8FC PUSH2 0x248 JUMP JUMPDEST PUSH2 0x2E3 SWAP2 POP PUSH1 0x20 RETURNDATASIZE PUSH1 0x20 GT PUSH2 0x2E9 JUMPI JUMPDEST PUSH2 0x2DB DUP2 DUP4 PUSH2 0x9B8 JUMP JUMPDEST DUP2 ADD SWAP1 PUSH2 0x9EE JUMP JUMPDEST DUP6 PUSH2 0x239 JUMP JUMPDEST POP RETURNDATASIZE PUSH2 0x2D1 JUMP JUMPDEST PUSH1 0x40 MLOAD PUSH3 0x461BCD PUSH1 0xE5 SHL DUP2 MSTORE PUSH1 0x20 PUSH1 0x4 DUP3 ADD MSTORE PUSH1 0x1D PUSH1 0x24 DUP3 ADD MSTORE PUSH32 0x436F6E74726163742068617320696E73756666696369656E7420455448000000 PUSH1 0x44 DUP3 ADD MSTORE PUSH1 0x64 SWAP1 REVERT JUMPDEST PUSH1 0x64 PUSH1 0x40 MLOAD PUSH3 0x461BCD PUSH1 0xE5 SHL DUP2 MSTORE PUSH1 0x20 PUSH1 0x4 DUP3 ADD MSTORE PUSH1 0x20 PUSH1 0x24 DUP3 ADD MSTORE PUSH32 0x416D6F756E74206D7573742062652067726561746572207468616E207A65726F PUSH1 0x44 DUP3 ADD MSTORE REVERT JUMPDEST PUSH1 0x20 CALLDATASIZE PUSH1 0x3 NOT ADD SLT PUSH2 0x1A1 JUMPI PUSH1 0x4 CALLDATALOAD PUSH2 0x397 PUSH1 0xFF PUSH1 0x6 SLOAD AND ISZERO PUSH2 0x962 JUMP JUMPDEST PUSH1 0x5 SLOAD SWAP1 PUSH12 0x295BE96E640669720000000 PUSH2 0x3B2 DUP3 DUP5 PUSH2 0x7E6 JUMP JUMPDEST GT PUSH2 0x4F6 JUMPI PUSH2 0x3C0 DUP2 PUSH2 0x800 JUMP JUMPDEST SWAP2 DUP3 CALLVALUE LT PUSH2 0x4B9 JUMPI DUP2 PUSH2 0x3D2 SWAP2 PUSH2 0x7E6 JUMP JUMPDEST PUSH1 0x5 SSTORE PUSH1 0x1 SLOAD PUSH1 0x40 MLOAD PUSH4 0xA9059CBB PUSH1 0xE0 SHL DUP2 MSTORE CALLER PUSH1 0x4 DUP3 ADD MSTORE PUSH1 0x24 DUP2 ADD DUP4 SWAP1 MSTORE SWAP1 PUSH1 0x20 SWAP1 DUP3 SWAP1 PUSH1 0x44 SWAP1 DUP3 SWAP1 PUSH0 SWAP1 PUSH1 0x1 PUSH1 0x1 PUSH1 0xA0 SHL SUB AND GAS CALL DUP1 ISZERO PUSH2 0x2AD JUMPI PUSH2 0x420 SWAP2 PUSH0 SWAP2 PUSH2 0x49A JUMPI POP PUSH2 0xA06 JUMP JUMPDEST PUSH1 0x40 MLOAD SWAP1 DUP2 MSTORE DUP2 PUSH1 0x20 DUP3 ADD MSTORE PUSH32 0x8FAFEBCAF9D154343DAD25669BFA277F4FBACD7AC6B0C4FED522580E040A0F33 PUSH1 0x40 CALLER SWAP3 LOG2 DUP1 CALLVALUE GT PUSH2 0x46D JUMPI JUMPDEST POP PUSH8 0xDE0B6B3A7640000 SELFBALANCE LT ISZERO PUSH2 0x2A3 JUMPI STOP JUMPDEST PUSH0 DUP1 DUP1 PUSH2 0x47B DUP2 SWAP5 CALLVALUE PUSH2 0x7F3 JUMP JUMPDEST DUP2 DUP2 ISZERO PUSH2 0x491 JUMPI JUMPDEST CALLER SWAP1 CALL ISZERO PUSH2 0x2AD JUMPI DUP1 PUSH2 0x45A JUMP JUMPDEST POP PUSH2 0x8FC PUSH2 0x483 JUMP JUMPDEST PUSH2 0x4B3 SWAP2 POP PUSH1 0x20 RETURNDATASIZE PUSH1 0x20 GT PUSH2 0x2E9 JUMPI PUSH2 0x2DB DUP2 DUP4 PUSH2 0x9B8 JUMP JUMPDEST DUP5 PUSH2 0x239 JUMP JUMPDEST PUSH1 0x40 MLOAD PUSH3 0x461BCD PUSH1 0xE5 SHL DUP2 MSTORE PUSH1 0x20 PUSH1 0x4 DUP3 ADD MSTORE PUSH1 0x15 PUSH1 0x24 DUP3 ADD MSTORE PUSH21 0x125B9CDD59999A58DA595B9D08115512081CD95B9D PUSH1 0x5A SHL PUSH1 0x44 DUP3 ADD MSTORE PUSH1 0x64 SWAP1 REVERT JUMPDEST PUSH1 0x40 MLOAD PUSH3 0x461BCD PUSH1 0xE5 SHL DUP2 MSTORE PUSH1 0x20 PUSH1 0x4 DUP3 ADD MSTORE PUSH1 0x21 PUSH1 0x24 DUP3 ADD MSTORE PUSH32 0x4578636565647320617661696C61626C6520746F6B656E7320666F722073616C PUSH1 0x44 DUP3 ADD MSTORE PUSH1 0x65 PUSH1 0xF8 SHL PUSH1 0x64 DUP3 ADD MSTORE PUSH1 0x84 SWAP1 REVERT JUMPDEST CALLVALUE PUSH2 0x1A1 JUMPI PUSH0 CALLDATASIZE PUSH1 0x3 NOT ADD SLT PUSH2 0x1A1 JUMPI PUSH1 0x20 PUSH1 0x40 MLOAD PUSH12 0x295BE96E640669720000000 DUP2 MSTORE RETURN JUMPDEST CALLVALUE PUSH2 0x1A1 JUMPI PUSH0 CALLDATASIZE PUSH1 0x3 NOT ADD SLT PUSH2 0x1A1 JUMPI PUSH1 0x20 PUSH1 0x3 SLOAD PUSH1 0x40 MLOAD SWAP1 DUP2 MSTORE RETURN JUMPDEST CALLVALUE PUSH2 0x1A1 JUMPI PUSH0 CALLDATASIZE PUSH1 0x3 NOT ADD SLT PUSH2 0x1A1 JUMPI PUSH1 0x20 PUSH1 0xFF PUSH1 0x6 SLOAD AND PUSH1 0x40 MLOAD SWAP1 ISZERO ISZERO DUP2 MSTORE RETURN JUMPDEST CALLVALUE PUSH2 0x1A1 JUMPI PUSH0 CALLDATASIZE PUSH1 0x3 NOT ADD SLT PUSH2 0x1A1 JUMPI PUSH0 SLOAD PUSH1 0x40 MLOAD PUSH1 0x1 PUSH1 0x1 PUSH1 0xA0 SHL SUB SWAP1 SWAP2 AND DUP2 MSTORE PUSH1 0x20 SWAP1 RETURN JUMPDEST CALLVALUE PUSH2 0x1A1 JUMPI PUSH1 0x20 CALLDATASIZE PUSH1 0x3 NOT ADD SLT PUSH2 0x1A1 JUMPI PUSH1 0x40 PUSH2 0x5EF PUSH1 0x4 CALLDATALOAD PUSH2 0x880 JUMP JUMPDEST DUP3 MLOAD SWAP2 DUP3 MSTORE PUSH1 0x20 DUP3 ADD MSTORE RETURN JUMPDEST CALLVALUE PUSH2 0x1A1 JUMPI PUSH0 CALLDATASIZE PUSH1 0x3 NOT ADD SLT PUSH2 0x1A1 JUMPI PUSH1 0x2 SLOAD PUSH1 0x40 MLOAD PUSH1 0x1 PUSH1 0x1 PUSH1 0xA0 SHL SUB SWAP1 SWAP2 AND DUP2 MSTORE PUSH1 0x20 SWAP1 RETURN JUMPDEST CALLVALUE PUSH2 0x1A1 JUMPI PUSH0 CALLDATASIZE PUSH1 0x3 NOT ADD SLT PUSH2 0x1A1 JUMPI PUSH2 0x63B PUSH2 0xA4A JUMP JUMPDEST PUSH0 DUP1 SLOAD PUSH1 0x1 PUSH1 0x1 PUSH1 0xA0 SHL SUB NOT DUP2 AND DUP3 SSTORE PUSH1 0x1 PUSH1 0x1 PUSH1 0xA0 SHL SUB AND PUSH32 0x8BE0079C531659141344CD1FD0A4F28419497F9722A3DAAFE3B4186F6B6457E0 DUP3 DUP1 LOG3 STOP JUMPDEST CALLVALUE PUSH2 0x1A1 JUMPI PUSH0 CALLDATASIZE PUSH1 0x3 NOT ADD SLT PUSH2 0x1A1 JUMPI PUSH1 0x20 PUSH1 0x40 MLOAD PUSH8 0xDE0B6B3A7640000 DUP2 MSTORE RETURN JUMPDEST CALLVALUE PUSH2 0x1A1 JUMPI PUSH1 0x20 CALLDATASIZE PUSH1 0x3 NOT ADD SLT PUSH2 0x1A1 JUMPI PUSH1 0x20 PUSH2 0x6BA PUSH1 0x4 CALLDATALOAD PUSH2 0x800 JUMP JUMPDEST PUSH1 0x40 MLOAD SWAP1 DUP2 MSTORE RETURN JUMPDEST CALLVALUE PUSH2 0x1A1 JUMPI PUSH0 CALLDATASIZE PUSH1 0x3 NOT ADD SLT PUSH2 0x1A1 JUMPI PUSH1 0x20 PUSH1 0x5 SLOAD PUSH1 0x40 MLOAD SWAP1 DUP2 MSTORE RETURN JUMPDEST CALLVALUE PUSH2 0x1A1 JUMPI PUSH0 CALLDATASIZE PUSH1 0x3 NOT ADD SLT PUSH2 0x1A1 JUMPI PUSH1 0x1 SLOAD PUSH1 0x40 MLOAD PUSH1 0x1 PUSH1 0x1 PUSH1 0xA0 SHL SUB SWAP1 SWAP2 AND DUP2 MSTORE PUSH1 0x20 SWAP1 RETURN JUMPDEST CALLVALUE PUSH2 0x1A1 JUMPI PUSH0 CALLDATASIZE PUSH1 0x3 NOT ADD SLT PUSH2 0x1A1 JUMPI PUSH1 0x6 SLOAD PUSH1 0x40 MLOAD PUSH1 0x8 SWAP2 SWAP1 SWAP2 SHR PUSH1 0x1 PUSH1 0x1 PUSH1 0xA0 SHL SUB AND DUP2 MSTORE PUSH1 0x20 SWAP1 RETURN JUMPDEST CALLVALUE PUSH2 0x1A1 JUMPI PUSH0 CALLDATASIZE PUSH1 0x3 NOT ADD SLT PUSH2 0x1A1 JUMPI PUSH1 0x20 PUSH1 0x4 SLOAD PUSH1 0x40 MLOAD SWAP1 DUP2 MSTORE RETURN JUMPDEST CALLVALUE PUSH2 0x1A1 JUMPI PUSH0 CALLDATASIZE PUSH1 0x3 NOT ADD SLT PUSH2 0x1A1 JUMPI DUP1 PUSH11 0xA56FA5B99019A5C8000000 PUSH1 0x20 SWAP3 MSTORE RETURN JUMPDEST ISZERO PUSH2 0x77A JUMPI JUMP JUMPDEST PUSH1 0x40 MLOAD PUSH3 0x461BCD PUSH1 0xE5 SHL DUP2 MSTORE PUSH1 0x20 PUSH1 0x4 DUP3 ADD MSTORE PUSH1 0x1D PUSH1 0x24 DUP3 ADD MSTORE PUSH32 0x416D6F756E74206D75737420626520696E2066756C6C20746F6B656E73000000 PUSH1 0x44 DUP3 ADD MSTORE PUSH1 0x64 SWAP1 REVERT JUMPDEST DUP2 DUP2 MUL SWAP3 SWAP2 DUP2 ISZERO SWAP2 DUP5 DIV EQ OR ISZERO PUSH2 0x7D2 JUMPI JUMP JUMPDEST PUSH4 0x4E487B71 PUSH1 0xE0 SHL PUSH0 MSTORE PUSH1 0x11 PUSH1 0x4 MSTORE PUSH1 0x24 PUSH0 REVERT JUMPDEST SWAP2 SWAP1 DUP3 ADD DUP1 SWAP3 GT PUSH2 0x7D2 JUMPI JUMP JUMPDEST SWAP2 SWAP1 DUP3 SUB SWAP2 DUP3 GT PUSH2 0x7D2 JUMPI JUMP JUMPDEST PUSH8 0xDE0B6B3A7640000 SWAP1 PUSH2 0x816 DUP3 DUP3 MOD ISZERO PUSH2 0x773 JUMP JUMPDEST DIV PUSH8 0xDE0B6B3A7640000 PUSH1 0x5 SLOAD DIV SWAP1 PUSH2 0x83E PUSH1 0x3 SLOAD PUSH2 0x838 PUSH1 0x4 SLOAD DUP1 SWAP6 PUSH2 0x7BF JUMP JUMPDEST SWAP1 PUSH2 0x7E6 JUMP JUMPDEST SWAP2 PUSH1 0x1 PUSH1 0x1 PUSH1 0xFF SHL SUB DUP4 AND DUP4 SUB PUSH2 0x7D2 JUMPI PUSH0 NOT DUP3 ADD SWAP3 DUP3 DUP5 GT PUSH2 0x7D2 JUMPI PUSH2 0x86B PUSH2 0x874 SWAP3 PUSH2 0x87A SWAP6 PUSH2 0x7BF JUMP JUMPDEST SWAP1 PUSH1 0x1 SHL PUSH2 0x7E6 JUMP JUMPDEST SWAP1 PUSH2 0x7BF JUMP JUMPDEST PUSH1 0x1 SHR SWAP1 JUMP JUMPDEST PUSH2 0x894 PUSH8 0xDE0B6B3A7640000 DUP3 MOD ISZERO PUSH2 0x773 JUMP JUMPDEST PUSH1 0x5 SLOAD SWAP1 DUP2 DUP2 GT PUSH2 0x91D JUMPI PUSH2 0x8B5 DUP2 PUSH8 0xDE0B6B3A7640000 DUP1 SWAP4 DIV SWAP4 PUSH2 0x7F3 JUMP JUMPDEST DIV SWAP1 PUSH2 0x8CA PUSH1 0x3 SLOAD PUSH2 0x838 PUSH1 0x4 SLOAD DUP1 SWAP6 PUSH2 0x7BF JUMP JUMPDEST SWAP2 PUSH1 0x1 PUSH1 0x1 PUSH1 0xFF SHL SUB DUP4 AND DUP4 SUB PUSH2 0x7D2 JUMPI PUSH0 NOT DUP3 ADD SWAP3 DUP3 DUP5 GT PUSH2 0x7D2 JUMPI PUSH2 0x86B PUSH2 0x874 SWAP3 PUSH2 0x8F7 SWAP6 PUSH2 0x7BF JUMP JUMPDEST PUSH1 0x1 SHR PUSH1 0x3 DUP2 MUL DUP2 DUP2 DIV PUSH1 0x3 EQ DUP3 ISZERO OR ISZERO PUSH2 0x7D2 JUMPI PUSH1 0x64 PUSH2 0x91A SWAP2 DIV DUP1 SWAP3 PUSH2 0x7F3 JUMP JUMPDEST SWAP2 JUMP JUMPDEST PUSH1 0x40 MLOAD PUSH3 0x461BCD PUSH1 0xE5 SHL DUP2 MSTORE PUSH1 0x20 PUSH1 0x4 DUP3 ADD MSTORE PUSH1 0x1A PUSH1 0x24 DUP3 ADD MSTORE PUSH32 0x416D6F756E74206578636565647320746F6B656E7320736F6C64000000000000 PUSH1 0x44 DUP3 ADD MSTORE PUSH1 0x64 SWAP1 REVERT JUMPDEST ISZERO PUSH2 0x969 JUMPI JUMP JUMPDEST PUSH1 0x40 MLOAD PUSH3 0x461BCD PUSH1 0xE5 SHL DUP2 MSTORE PUSH1 0x20 PUSH1 0x4 DUP3 ADD MSTORE PUSH1 0x21 PUSH1 0x24 DUP3 ADD MSTORE PUSH32 0x4C697175696469747920616C7265616479206D6967726174656420746F204445 PUSH1 0x44 DUP3 ADD MSTORE PUSH1 0xB PUSH1 0xFB SHL PUSH1 0x64 DUP3 ADD MSTORE PUSH1 0x84 SWAP1 REVERT JUMPDEST SWAP1 PUSH1 0x1F DUP1 NOT SWAP2 ADD AND DUP2 ADD SWAP1 DUP2 LT PUSH8 0xFFFFFFFFFFFFFFFF DUP3 GT OR PUSH2 0x9DA JUMPI PUSH1 0x40 MSTORE JUMP JUMPDEST PUSH4 0x4E487B71 PUSH1 0xE0 SHL PUSH0 MSTORE PUSH1 0x41 PUSH1 0x4 MSTORE PUSH1 0x24 PUSH0 REVERT JUMPDEST SWAP1 DUP2 PUSH1 0x20 SWAP2 SUB SLT PUSH2 0x1A1 JUMPI MLOAD DUP1 ISZERO ISZERO DUP2 SUB PUSH2 0x1A1 JUMPI SWAP1 JUMP JUMPDEST ISZERO PUSH2 0xA0D JUMPI JUMP JUMPDEST PUSH1 0x40 MLOAD PUSH3 0x461BCD PUSH1 0xE5 SHL DUP2 MSTORE PUSH1 0x20 PUSH1 0x4 DUP3 ADD MSTORE PUSH1 0x15 PUSH1 0x24 DUP3 ADD MSTORE PUSH21 0x151BDAD95B881D1C985B9CD9995C8819985A5B1959 PUSH1 0x5A SHL PUSH1 0x44 DUP3 ADD MSTORE PUSH1 0x64 SWAP1 REVERT JUMPDEST PUSH0 SLOAD PUSH1 0x1 PUSH1 0x1 PUSH1 0xA0 SHL SUB AND CALLER SUB PUSH2 0xA5D JUMPI JUMP JUMPDEST PUSH1 0x64 PUSH1 0x40 MLOAD PUSH3 0x461BCD PUSH1 0xE5 SHL DUP2 MSTORE PUSH1 0x20 PUSH1 0x4 DUP3 ADD MSTORE PUSH1 0x20 PUSH1 0x24 DUP3 ADD MSTORE PUSH32 0x4F776E61626C653A2063616C6C6572206973206E6F7420746865206F776E6572 PUSH1 0x44 DUP3 ADD MSTORE REVERT JUMPDEST PUSH1 0x6 DUP1 SLOAD PUSH1 0xFF NOT AND PUSH1 0x1 SWAP1 DUP2 OR SWAP1 SWAP2 SSTORE SLOAD PUSH1 0x40 MLOAD PUSH4 0x70A08231 PUSH1 0xE0 SHL DUP2 MSTORE ADDRESS PUSH1 0x4 DUP3 ADD MSTORE SELFBALANCE SWAP2 PUSH1 0x1 PUSH1 0x1 PUSH1 0xA0 SHL SUB AND PUSH1 0x20 DUP3 PUSH1 0x24 DUP2 DUP5 GAS STATICCALL SWAP2 DUP3 ISZERO PUSH2 0x2AD JUMPI PUSH0 SWAP3 PUSH2 0xCA3 JUMPI JUMPDEST POP PUSH11 0xA56FA5B99019A5C8000000 DUP3 LT PUSH2 0xC5E JUMPI PUSH1 0x2 SLOAD PUSH1 0x40 MLOAD PUSH4 0x95EA7B3 PUSH1 0xE0 SHL DUP2 MSTORE PUSH1 0x1 PUSH1 0x1 PUSH1 0xA0 SHL SUB SWAP1 SWAP2 AND PUSH1 0x4 DUP3 ADD MSTORE PUSH1 0x24 DUP2 ADD DUP4 SWAP1 MSTORE SWAP1 PUSH1 0x20 SWAP1 DUP3 SWAP1 PUSH1 0x44 SWAP1 DUP3 SWAP1 PUSH0 SWAP1 GAS CALL DUP1 ISZERO PUSH2 0x2AD JUMPI PUSH2 0xC41 JUMPI JUMPDEST POP PUSH1 0x2 SLOAD PUSH1 0x1 SLOAD PUSH1 0x6 SLOAD PUSH1 0x8 SHR PUSH1 0x1 PUSH1 0x1 PUSH1 0xA0 SHL SUB SWAP1 DUP2 AND SWAP5 SWAP3 DUP2 AND SWAP4 SWAP3 TIMESTAMP PUSH2 0x12C DUP2 ADD SWAP4 SWAP1 SWAP3 AND SWAP2 DUP4 LT PUSH2 0x7D2 JUMPI PUSH1 0x60 SWAP5 PUSH1 0xC4 SWAP4 PUSH1 0x40 MLOAD SWAP8 DUP9 SWAP7 DUP8 SWAP6 PUSH4 0xF305D719 PUSH1 0xE0 SHL DUP8 MSTORE PUSH1 0x4 DUP8 ADD MSTORE PUSH1 0x24 DUP7 ADD MSTORE PUSH0 PUSH1 0x44 DUP7 ADD MSTORE PUSH0 PUSH1 0x64 DUP7 ADD MSTORE PUSH1 0x84 DUP6 ADD MSTORE PUSH1 0xA4 DUP5 ADD MSTORE GAS CALL SWAP1 DUP2 ISZERO PUSH2 0x2AD JUMPI PUSH0 SWAP1 PUSH0 SWAP1 PUSH0 SWAP4 PUSH2 0xBFE JUMPI JUMPDEST POP PUSH2 0xBF9 PUSH32 0xB601BA6099D0385F3A4BAD0485AA6FF9186CDA7FFF3307A3B408B9ECEE520E6F SWAP4 PUSH1 0x40 MLOAD SWAP4 DUP5 SWAP4 DUP5 PUSH1 0x40 SWAP2 SWAP5 SWAP4 SWAP3 PUSH1 0x60 DUP3 ADD SWAP6 DUP3 MSTORE PUSH1 0x20 DUP3 ADD MSTORE ADD MSTORE JUMP JUMPDEST SUB SWAP1 LOG1 JUMP JUMPDEST SWAP3 POP POP POP PUSH1 0x60 DUP2 RETURNDATASIZE PUSH1 0x60 GT PUSH2 0xC39 JUMPI JUMPDEST DUP2 PUSH2 0xC1B PUSH1 0x60 SWAP4 DUP4 PUSH2 0x9B8 JUMP JUMPDEST DUP2 ADD SUB SLT PUSH2 0x1A1 JUMPI DUP1 MLOAD PUSH1 0x20 DUP3 ADD MLOAD PUSH1 0x40 SWAP1 SWAP3 ADD MLOAD SWAP2 PUSH2 0xBF9 PUSH2 0xBB6 JUMP JUMPDEST RETURNDATASIZE SWAP2 POP PUSH2 0xC0E JUMP JUMPDEST PUSH2 0xC59 SWAP1 PUSH1 0x20 RETURNDATASIZE PUSH1 0x20 GT PUSH2 0x2E9 JUMPI PUSH2 0x2DB DUP2 DUP4 PUSH2 0x9B8 JUMP JUMPDEST PUSH2 0xB3B JUMP JUMPDEST PUSH1 0x40 MLOAD PUSH3 0x461BCD PUSH1 0xE5 SHL DUP2 MSTORE PUSH1 0x20 PUSH1 0x4 DUP3 ADD MSTORE PUSH1 0x18 PUSH1 0x24 DUP3 ADD MSTORE PUSH32 0x4E6F7420656E6F75676820746F6B656E7320666F72204C500000000000000000 PUSH1 0x44 DUP3 ADD MSTORE PUSH1 0x64 SWAP1 REVERT JUMPDEST SWAP1 SWAP2 POP PUSH1 0x20 DUP2 RETURNDATASIZE PUSH1 0x20 GT PUSH2 0xCCF JUMPI JUMPDEST DUP2 PUSH2 0xCBF PUSH1 0x20 SWAP4 DUP4 PUSH2 0x9B8 JUMP JUMPDEST DUP2 ADD SUB SLT PUSH2 0x1A1 JUMPI MLOAD SWAP1 PUSH0 PUSH2 0xAE7 JUMP JUMPDEST RETURNDATASIZE SWAP2 POP PUSH2 0xCB2 JUMP INVALID LOG2 PUSH5 0x6970667358 0x22 SLT KECCAK256 0xE7 0xEA SHL 0xF DUP8 PUSH2 0xB0BD PUSH24 0xFA4E178FA8E8BEE888EE061FCA217635D30E8AAD77E85664 PUSH20 0x6F6C634300081B00330000000000000000000000 "
        },
        "methodIdentifiers": {
          "TARGET_LIQUIDITY()": "5c95eb52",
          "TOKENS_FOR_LIQUIDITY()": "1f394027",
          "TOKENS_FOR_SALE()": "c8612b2f",
          "basePrice()": "c7876ea4",
          "buy(uint256)": "d96a094a",
          "getCost(uint256)": "5a4dd47d",
          "getSellValue(uint256)": "7939a10b",
          "isMigrated()": "b06faf62",
          "owner()": "8da5cb5b",
          "pengoToken()": "487ef216",
          "priceIncrement()": "280d62ac",
          "renounceOwnership()": "715018a6",
          "sell(uint256)": "e4849b32",
          "strategyVault()": "40099098",
          "tokensSold()": "518ab2a8",
          "transferOwnership(address)": "f2fde38b",
          "uniswapRouter()": "735de9f7"
        }
      }
    }
  }
}