{
  "_format": "hh-sol-artifact-1",
  "contractName": "PengoStrategy",
  "sourceName": "contracts/Strategy/PengoStrategy.sol",
  "abi": [
    {
      "inputs": [],
      "stateMutability": "nonpayable",
      "type": "constructor"
    },
    {
      "anonymous": false,
      "inputs": [
        {
          "indexed": false,
          "internalType": "address",
          "name": "previousAdmin",
          "type": "address"
        },
        {
          "indexed": false,
          "internalType": "address",
          "name": "newAdmin",
          "type": "address"
        }
      ],
      "name": "AdminChanged",
      "type": "event"
    },
    {
      "anonymous": false,
      "inputs": [
        {
          "indexed": true,
          "internalType": "address",
          "name": "beacon",
          "type": "address"
        }
      ],
      "name": "BeaconUpgraded",
      "type": "event"
    },
    {
      "anonymous": false,
      "inputs": [
        {
          "indexed": false,
          "internalType": "uint8",
          "name": "version",
          "type": "uint8"
        }
      ],
      "name": "Initialized",
      "type": "event"
    },
    {
      "anonymous": false,
      "inputs": [
        {
          "indexed": true,
          "internalType": "address",
          "name": "previousOwner",
          "type": "address"
        },
        {
          "indexed": true,
          "internalType": "address",
          "name": "newOwner",
          "type": "address"
        }
      ],
      "name": "OwnershipTransferred",
      "type": "event"
    },
    {
      "anonymous": false,
      "inputs": [
        {
          "indexed": true,
          "internalType": "address",
          "name": "implementation",
          "type": "address"
        }
      ],
      "name": "Upgraded",
      "type": "event"
    },
    {
      "inputs": [
        {
          "internalType": "uint256",
          "name": "",
          "type": "uint256"
        }
      ],
      "name": "activeBuyList",
      "outputs": [
        {
          "internalType": "address",
          "name": "",
          "type": "address"
        }
      ],
      "stateMutability": "view",
      "type": "function"
    },
    {
      "inputs": [
        {
          "internalType": "address",
          "name": "rwaToken",
          "type": "address"
        },
        {
          "internalType": "uint256",
          "name": "tokenId",
          "type": "uint256"
        }
      ],
      "name": "claimDividends",
      "outputs": [],
      "stateMutability": "nonpayable",
      "type": "function"
    },
    {
      "inputs": [
        {
          "internalType": "address",
          "name": "",
          "type": "address"
        },
        {
          "internalType": "uint256",
          "name": "",
          "type": "uint256"
        }
      ],
      "name": "claimedDividendsPerPower",
      "outputs": [
        {
          "internalType": "uint256",
          "name": "",
          "type": "uint256"
        }
      ],
      "stateMutability": "view",
      "type": "function"
    },
    {
      "inputs": [
        {
          "internalType": "address",
          "name": "rwaToken",
          "type": "address"
        },
        {
          "internalType": "uint256",
          "name": "amount",
          "type": "uint256"
        }
      ],
      "name": "distributeYield",
      "outputs": [],
      "stateMutability": "nonpayable",
      "type": "function"
    },
    {
      "inputs": [
        {
          "internalType": "uint256",
          "name": "proposalId",
          "type": "uint256"
        }
      ],
      "name": "executeProposal",
      "outputs": [],
      "stateMutability": "nonpayable",
      "type": "function"
    },
    {
      "inputs": [
        {
          "internalType": "uint256",
          "name": "",
          "type": "uint256"
        },
        {
          "internalType": "uint256",
          "name": "",
          "type": "uint256"
        }
      ],
      "name": "hasVoted",
      "outputs": [
        {
          "internalType": "bool",
          "name": "",
          "type": "bool"
        }
      ],
      "stateMutability": "view",
      "type": "function"
    },
    {
      "inputs": [
        {
          "internalType": "address",
          "name": "",
          "type": "address"
        }
      ],
      "name": "inBuyList",
      "outputs": [
        {
          "internalType": "bool",
          "name": "",
          "type": "bool"
        }
      ],
      "stateMutability": "view",
      "type": "function"
    },
    {
      "inputs": [
        {
          "internalType": "address",
          "name": "_nftContract",
          "type": "address"
        }
      ],
      "name": "initialize",
      "outputs": [],
      "stateMutability": "nonpayable",
      "type": "function"
    },
    {
      "inputs": [],
      "name": "nftContract",
      "outputs": [
        {
          "internalType": "contract IPenguinOnchain",
          "name": "",
          "type": "address"
        }
      ],
      "stateMutability": "view",
      "type": "function"
    },
    {
      "inputs": [],
      "name": "owner",
      "outputs": [
        {
          "internalType": "address",
          "name": "",
          "type": "address"
        }
      ],
      "stateMutability": "view",
      "type": "function"
    },
    {
      "inputs": [],
      "name": "proposalCount",
      "outputs": [
        {
          "internalType": "uint256",
          "name": "",
          "type": "uint256"
        }
      ],
      "stateMutability": "view",
      "type": "function"
    },
    {
      "inputs": [
        {
          "internalType": "uint256",
          "name": "",
          "type": "uint256"
        }
      ],
      "name": "proposals",
      "outputs": [
        {
          "internalType": "address",
          "name": "rwaToken",
          "type": "address"
        },
        {
          "internalType": "bool",
          "name": "isAdd",
          "type": "bool"
        },
        {
          "internalType": "uint256",
          "name": "yesVotes",
          "type": "uint256"
        },
        {
          "internalType": "uint256",
          "name": "noVotes",
          "type": "uint256"
        },
        {
          "internalType": "uint256",
          "name": "endTime",
          "type": "uint256"
        },
        {
          "internalType": "bool",
          "name": "executed",
          "type": "bool"
        }
      ],
      "stateMutability": "view",
      "type": "function"
    },
    {
      "inputs": [
        {
          "internalType": "address",
          "name": "rwaToken",
          "type": "address"
        },
        {
          "internalType": "bool",
          "name": "isAdd",
          "type": "bool"
        }
      ],
      "name": "propose",
      "outputs": [],
      "stateMutability": "nonpayable",
      "type": "function"
    },
    {
      "inputs": [],
      "name": "proxiableUUID",
      "outputs": [
        {
          "internalType": "bytes32",
          "name": "",
          "type": "bytes32"
        }
      ],
      "stateMutability": "view",
      "type": "function"
    },
    {
      "inputs": [],
      "name": "renounceOwnership",
      "outputs": [],
      "stateMutability": "nonpayable",
      "type": "function"
    },
    {
      "inputs": [
        {
          "internalType": "address",
          "name": "",
          "type": "address"
        }
      ],
      "name": "totalDividendsPerPower",
      "outputs": [
        {
          "internalType": "uint256",
          "name": "",
          "type": "uint256"
        }
      ],
      "stateMutability": "view",
      "type": "function"
    },
    {
      "inputs": [
        {
          "internalType": "address",
          "name": "newOwner",
          "type": "address"
        }
      ],
      "name": "transferOwnership",
      "outputs": [],
      "stateMutability": "nonpayable",
      "type": "function"
    },
    {
      "inputs": [
        {
          "internalType": "address",
          "name": "newImplementation",
          "type": "address"
        }
      ],
      "name": "upgradeTo",
      "outputs": [],
      "stateMutability": "nonpayable",
      "type": "function"
    },
    {
      "inputs": [
        {
          "internalType": "address",
          "name": "newImplementation",
          "type": "address"
        },
        {
          "internalType": "bytes",
          "name": "data",
          "type": "bytes"
        }
      ],
      "name": "upgradeToAndCall",
      "outputs": [],
      "stateMutability": "payable",
      "type": "function"
    },
    {
      "inputs": [
        {
          "internalType": "uint256",
          "name": "proposalId",
          "type": "uint256"
        },
        {
          "internalType": "uint256",
          "name": "tokenId",
          "type": "uint256"
        },
        {
          "internalType": "bool",
          "name": "support",
          "type": "bool"
        }
      ],
      "name": "vote",
      "outputs": [],
      "stateMutability": "nonpayable",
      "type": "function"
    }
  ],
  "bytecode": "0x60a080604052346100da57306080525f549060ff8260081c16610088575060ff8082161061004e575b604051611a8a90816100df82396080518181816109cc01528181610af101526110410152f35b60ff90811916175f557f7f26b83ff96e1f2b6a682f133852f6798a09c465da95921460cefb3847402498602060405160ff8152a15f610028565b62461bcd60e51b815260206004820152602760248201527f496e697469616c697a61626c653a20636f6e747261637420697320696e697469604482015266616c697a696e6760c81b6064820152608490fd5b5f80fdfe6080806040526004361015610012575f80fd5b5f3560e01c908163013cf08b146115d45750806308eebfec1461158f5780630d61b5191461131f5780633659cfe61461102357806343e9585f14610dd45780634f1ef28614610a7c57806352d1902d146109ba57806364390ff11461097f5780636a18ff7a1461077b578063715018a61461072057806389b3bc841461060b5780638da5cb5b146105e3578063bd4ba9c0146103fe578063c244f68c146103c0578063c4d66de81461024b578063cc738ac314610212578063d56d229d146101ea578063da35c664146101cd578063e18e63061461018b5763f2fde38b146100f8575f80fd5b3461018757602036600319011261018757610111611641565b610119611842565b6001600160a01b03811615610133576101319061189a565b005b60405162461bcd60e51b815260206004820152602660248201527f4f776e61626c653a206e6577206f776e657220697320746865207a65726f206160448201526564647265737360d01b6064820152608490fd5b5f80fd5b346101875760203660031901126101875760043560ff54811015610187576101b4602091611695565b905460405160039290921b1c6001600160a01b03168152f35b34610187575f36600319011261018757602060fd54604051908152f35b34610187575f3660031901126101875760fb546040516001600160a01b039091168152602090f35b34610187576020366003190112610187576001600160a01b03610233611641565b165f52610101602052602060405f2054604051908152f35b3461018757602036600319011261018757610264611641565b5f5460ff8160081c1615908180926103b3575b801561039c575b156103405760ff1981166001175f558161032f575b506102ad60ff5f5460081c166102a8816118e2565b6118e2565b6102b63361189a565b5f54916102d560ff8460081c166102cc816118e2565b6102a8816118e2565b600160c95560018060a01b03166001600160601b0360a01b60fb54161760fb556102fb57005b61ff0019165f557f7f26b83ff96e1f2b6a682f133852f6798a09c465da95921460cefb3847402498602060405160018152a1005b61ffff1916610101175f5582610293565b60405162461bcd60e51b815260206004820152602e60248201527f496e697469616c697a61626c653a20636f6e747261637420697320616c72656160448201526d191e481a5b9a5d1a585b1a5e995960921b6064820152608490fd5b50303b15801561027e5750600160ff82161461027e565b50600160ff821610610277565b34610187576020366003190112610187576001600160a01b036103e1611641565b165f52610100602052602060ff60405f2054166040519015158152f35b3461018757604036600319011261018757610417611641565b6001600160a01b03165f81815261010060205260409020546024359060ff16156105a85760fb5460405163aed96b5960e01b81529190602090839060049082906001600160a01b03165afa91821561052c575f92610574575b508115610537576040516323b872dd60e01b8152336004820152306024820152604481018290526020816064815f885af1801561052c576104ff575b50670de0b6b3a7640000810290808204670de0b6b3a764000014901517156104eb5704905f526101016020526104e760405f20918254611835565b9055005b634e487b7160e01b5f52601160045260245ffd5b6105209060203d602011610525575b6105188183611657565b81019061181d565b6104ac565b503d61050e565b6040513d5f823e3d90fd5b60405162461bcd60e51b81526020600482015260156024820152744e6f20736861726520706f7765722065786973747360581b6044820152606490fd5b9091506020813d6020116105a0575b8161059060209383611657565b8101031261018757519083610470565b3d9150610583565b60405162461bcd60e51b81526020600482015260136024820152724e6f7420616e20617070726f7665642052574160681b6044820152606490fd5b34610187575f366003190112610187576097546040516001600160a01b039091168152602090f35b3461018757604036600319011261018757610624611641565b602435908115158092036101875760fd545f1981146104eb57600101918260fd556203f48042018042116104eb576040519160c083019383851067ffffffffffffffff86111761070c5760049460405260018060a01b0316835260208301908152604083015f815260608401915f83526080850193845260a08501965f88525f5260fc60205260405f209460018060a01b039051166001600160601b0360a01b86541617855551151584549060ff60a01b9060a01b169060ff60a01b1916178455516001840155516002830155516003820155019051151560ff801983541691161790555f80f35b634e487b7160e01b5f52604160045260245ffd5b34610187575f36600319011261018757610738611842565b609780546001600160a01b031981169091555f906001600160a01b03167f8be0079c531659141344cd1fd0a4f28419497f9722a3daafe3b4186f6b6457e08280a3005b346101875760603660031901126101875760243560043560443580151581036101875760fb546040516331a9108f60e11b8152600481018590526001600160a01b039091169390602081602481885afa801561052c576107ed915f91610950575b506001600160a01b031633146117a2565b825f5260fe60205260405f20815f5260205260ff60405f20541661091b57825f5260fc602052600360405f2001544210156108e757602060249460405195868092636f08bc8760e11b82528560048301525afa93841561052c575f946108b3575b5061085a8415156117e0565b825f5260fe60205260405f20905f5260205260405f20600160ff198254161790555f1461089a575f5260fc6020526104e7600160405f2001918254611835565b5f5260fc6020526104e7600260405f2001918254611835565b9093506020813d6020116108df575b816108cf60209383611657565b810103126101875751928461084e565b3d91506108c2565b60405162461bcd60e51b815260206004820152600c60248201526b159bdd1a5b99c8195b99195960a21b6044820152606490fd5b60405162461bcd60e51b815260206004820152600d60248201526c105b1c9958591e481d9bdd1959609a1b6044820152606490fd5b610972915060203d602011610978575b61096a8183611657565b810190611783565b866107dc565b503d610960565b34610187576040366003190112610187576004355f5260fe60205260405f206024355f52602052602060ff60405f2054166040519015158152f35b34610187575f366003190112610187577f00000000000000000000000000000000000000000000000000000000000000006001600160a01b03163003610a115760206040515f516020611a355f395f51905f528152f35b60405162461bcd60e51b815260206004820152603860248201527f555550535570677261646561626c653a206d757374206e6f742062652063616c60448201527f6c6564207468726f7567682064656c656761746563616c6c00000000000000006064820152608490fd5b604036600319011261018757610a90611641565b60243567ffffffffffffffff81116101875736602382011215610187578060040135610abb81611679565b90610ac96040519283611657565b8082526020820192366024838301011161018757815f92602460209301863783010152610b437f00000000000000000000000000000000000000000000000000000000000000006001600160a01b0316610b25308214156116c1565b5f516020611a355f395f51905f52546001600160a01b031614611722565b610b4b611842565b7f4910fdfa16fed3260ed0e7147f7cc6da11a60208b5b9406d12a635614ffd91435460ff1615610b8057505061013190611942565b6040516352d1902d60e01b81526001600160a01b03841690602081600481855afa5f9181610da0575b50610c0a5760405162461bcd60e51b815260206004820152602e60248201527f45524331393637557067726164653a206e657720696d706c656d656e7461746960448201526d6f6e206973206e6f74205555505360901b6064820152608490fd5b5f516020611a355f395f51905f5203610d4957610c2684611942565b604051907fbc7cd75a20ee27fd9adebab32041f755214dbc6bffa90cc0225b39da2e5c2d3b5f80a2815115801590610d41575b610c5f57005b833b15610cf05750610131925f92839251915af43d15610ce9573d610c8381611679565b90610c916040519283611657565b81523d5f602083013e5b60405191610caa606084611657565b602783527f416464726573733a206c6f772d6c6576656c2064656c65676174652063616c6c6020840152660819985a5b195960ca1b60408401526119d9565b6060610c9b565b62461bcd60e51b815260206004820152602660248201527f416464726573733a2064656c65676174652063616c6c20746f206e6f6e2d636f6044820152651b9d1c9858dd60d21b6064820152608490fd5b506001610c59565b60405162461bcd60e51b815260206004820152602960248201527f45524331393637557067726164653a20756e737570706f727465642070726f786044820152681a58589b195555525160ba1b6064820152608490fd5b9091506020813d602011610dcc575b81610dbc60209383611657565b8101031261018757519086610ba9565b3d9150610daf565b3461018757604036600319011261018757610ded611641565b602435600260c95414610fde57600260c95560fb546040516331a9108f60e11b815260048101839052906001600160a01b0316602082602481845afa90811561052c57610e506020926024945f91610fc157506001600160a01b031633146117a2565b60405192838092636f08bc8760e11b82528660048301525afa90811561052c575f91610f8f575b50801592610e8584156117e0565b60018060a01b031692835f5261010160205260405f2054845f5261010260205260405f20845f5260205260405f2054808203918083116104eb5714610f56578083029283041417156104eb576044670de0b6b3a764000091602093855f52610101855260405f205490865f52610102865260405f20905f52855260405f20555f604051958694859363a9059cbb60e01b85523360048601520460248401525af1801561052c57610f37575b600160c955005b610f4f9060203d602011610525576105188183611657565b5080610f30565b60405162461bcd60e51b8152602060048201526011602482015270139bc8191a5d9a59195b991cc81bddd959607a1b6044820152606490fd5b90506020813d602011610fb9575b81610faa60209383611657565b81010312610187575183610e77565b3d9150610f9d565b610fd89150843d86116109785761096a8183611657565b876107dc565b60405162461bcd60e51b815260206004820152601f60248201527f5265656e7472616e637947756172643a207265656e7472616e742063616c6c006044820152606490fd5b346101875760203660031901126101875761103c611641565b6110757f00000000000000000000000000000000000000000000000000000000000000006001600160a01b0316610b25308214156116c1565b61107d611842565b60209060405161108d8382611657565b5f815282810190601f1984013683377f4910fdfa16fed3260ed0e7147f7cc6da11a60208b5b9406d12a635614ffd91435460ff16156110d25750506101319150611942565b6040516352d1902d60e01b81526001600160a01b038416908581600481855afa5f91816112f0575b5061115b5760405162461bcd60e51b815260048101879052602e60248201527f45524331393637557067726164653a206e657720696d706c656d656e7461746960448201526d6f6e206973206e6f74205555505360901b6064820152608490fd5b5f516020611a355f395f51905f52036112995761117784611942565b604051907fbc7cd75a20ee27fd9adebab32041f755214dbc6bffa90cc0225b39da2e5c2d3b5f80a2815115801590611292575b6111b057005b833b15611241575061013193925f92839251915af43d15611239573d906111d682611679565b916111e46040519384611657565b82523d5f8484013e5b7f416464726573733a206c6f772d6c6576656c2064656c65676174652063616c6c6040519361121d606086611657565b60278552840152660819985a5b195960ca1b60408401526119d9565b6060906111ed565b62461bcd60e51b815260048101859052602660248201527f416464726573733a2064656c65676174652063616c6c20746f206e6f6e2d636f6044820152651b9d1c9858dd60d21b6064820152608490fd5b505f6111aa565b60405162461bcd60e51b815260048101869052602960248201527f45524331393637557067726164653a20756e737570706f727465642070726f786044820152681a58589b195555525160ba1b6064820152608490fd5b9091508681813d8311611318575b6113088183611657565b81010312610187575190876110fa565b503d6112fe565b34610187576020366003190112610187576004355f5260fc60205260405f20600381015442106115575760048101805460ff811661151f5760019060ff1916179055600181015460028201541061137257005b805460ff8160a01c168080916114fc575b156113ff57505080546001600160a01b039081165f90815261010060205260409020805460ff19166001179055905460ff5491166801000000000000000082101561070c576113db826001610131940160ff55611695565b81546001600160a01b0393841660039290921b91821b9390911b1916919091179055565b15806114da575b61140c57005b6001600160a01b03165f90815261010060205260408120805460ff191690555b60ff54808210156101315761144082611695565b9054845460039290921b1c6001600160a01b03908116911614611466575060010161142c565b5f198101925082116104eb576113db61148161149993611695565b905460039190911b1c6001600160a01b031691611695565b60ff5480156114c6575f19016114ae81611695565b81549060018060a01b039060031b1b1916905560ff55005b634e487b7160e01b5f52603160045260245ffd5b506001600160a01b0381165f908152610100602052604090205460ff16611406565b506001600160a01b0382165f908152610100602052604090205460ff1615611383565b60405162461bcd60e51b815260206004820152601060248201526f105b1c9958591e48195e1958dd5d195960821b6044820152606490fd5b60405162461bcd60e51b815260206004820152601060248201526f159bdd1a5b99c81b9bdd08195b99195960821b6044820152606490fd5b34610187576040366003190112610187576001600160a01b036115b0611641565b165f5261010260205260405f206024355f52602052602060405f2054604051908152f35b346101875760203660031901126101875760c0906004355f5260fc60205260405f20805490600181015460028201549060ff8060046003860154950154169460018060a01b038116875260a01c1615156020860152604085015260608401526080830152151560a0820152f35b600435906001600160a01b038216820361018757565b90601f8019910116810190811067ffffffffffffffff82111761070c57604052565b67ffffffffffffffff811161070c57601f01601f191660200190565b60ff548110156116ad5760ff5f5260205f2001905f90565b634e487b7160e01b5f52603260045260245ffd5b156116c857565b60405162461bcd60e51b815260206004820152602c60248201527f46756e6374696f6e206d7573742062652063616c6c6564207468726f7567682060448201526b19195b1959d85d1958d85b1b60a21b6064820152608490fd5b1561172957565b60405162461bcd60e51b815260206004820152602c60248201527f46756e6374696f6e206d7573742062652063616c6c6564207468726f7567682060448201526b6163746976652070726f787960a01b6064820152608490fd5b9081602091031261018757516001600160a01b03811681036101875790565b156117a957565b60405162461bcd60e51b815260206004820152600f60248201526e2737ba103a37b5b2b71037bbb732b960891b6044820152606490fd5b156117e757565b60405162461bcd60e51b815260206004820152600e60248201526d27379039b430b932903837bbb2b960911b6044820152606490fd5b90816020910312610187575180151581036101875790565b919082018092116104eb57565b6097546001600160a01b0316330361185657565b606460405162461bcd60e51b815260206004820152602060248201527f4f776e61626c653a2063616c6c6572206973206e6f7420746865206f776e65726044820152fd5b609780546001600160a01b039283166001600160a01b0319821681179092559091167f8be0079c531659141344cd1fd0a4f28419497f9722a3daafe3b4186f6b6457e05f80a3565b156118e957565b60405162461bcd60e51b815260206004820152602b60248201527f496e697469616c697a61626c653a20636f6e7472616374206973206e6f74206960448201526a6e697469616c697a696e6760a81b6064820152608490fd5b803b1561197e5760018060a01b03166001600160601b0360a01b5f516020611a355f395f51905f525416175f516020611a355f395f51905f5255565b60405162461bcd60e51b815260206004820152602d60248201527f455243313936373a206e657720696d706c656d656e746174696f6e206973206e60448201526c1bdd08184818dbdb9d1c9858dd609a1b6064820152608490fd5b909190156119e5575090565b8151156119f55750805190602001fd5b604460209160405192839162461bcd60e51b83528160048401528051918291826024860152018484015e5f828201840152601f01601f19168101030190fdfe360894a13ba1a3210667c828492db98dca3e2076cc3735a920a3ca505d382bbca26469706673582212209f1d679713ca0604165e274cecf43b664f2f210f1366e6e52cd7d4952cd930ff64736f6c634300081b0033",
  "linkReferences": {},
  "deployedLinkReferences": {}
}