{
  "_format": "hh-sol-artifact-1",
  "contractName": "PengoBondingCurve",
  "sourceName": "contracts/ERC20/PengoBondingCurve.sol",
  "abi": [
    {
      "inputs": [
        {
          "internalType": "address",
          "name": "_pengoToken",
          "type": "address"
        },
        {
          "internalType": "address",
          "name": "_poolManager",
          "type": "address"
        },
        {
          "internalType": "address",
          "name": "_positionManager",
          "type": "address"
        },
        {
          "internalType": "address",
          "name": "_permit2",
          "type": "address"
        },
        {
          "internalType": "address",
          "name": "_strategyVault",
          "type": "address"
        },
        {
          "internalType": "uint256",
          "name": "_targetLiquidity",
          "type": "uint256"
        }
      ],
      "stateMutability": "nonpayable",
      "type": "constructor"
    },
    {
      "anonymous": false,
      "inputs": [
        {
          "indexed": false,
          "internalType": "uint256",
          "name": "ethAmount",
          "type": "uint256"
        },
        {
          "indexed": false,
          "internalType": "uint256",
          "name": "tokenAmount",
          "type": "uint256"
        },
        {
          "indexed": false,
          "internalType": "uint256",
          "name": "lpTokens",
          "type": "uint256"
        }
      ],
      "name": "LiquidityMigrated",
      "type": "event"
    },
    {
      "anonymous": false,
      "inputs": [
        {
          "indexed": true,
          "internalType": "address",
          "name": "previousOwner",
          "type": "address"
        },
        {
          "indexed": true,
          "internalType": "address",
          "name": "newOwner",
          "type": "address"
        }
      ],
      "name": "OwnershipTransferred",
      "type": "event"
    },
    {
      "anonymous": false,
      "inputs": [
        {
          "indexed": true,
          "internalType": "address",
          "name": "buyer",
          "type": "address"
        },
        {
          "indexed": false,
          "internalType": "uint256",
          "name": "amount",
          "type": "uint256"
        },
        {
          "indexed": false,
          "internalType": "uint256",
          "name": "cost",
          "type": "uint256"
        },
        {
          "indexed": false,
          "internalType": "uint256",
          "name": "taxEth",
          "type": "uint256"
        }
      ],
      "name": "TokensPurchased",
      "type": "event"
    },
    {
      "anonymous": false,
      "inputs": [
        {
          "indexed": true,
          "internalType": "address",
          "name": "seller",
          "type": "address"
        },
        {
          "indexed": false,
          "internalType": "uint256",
          "name": "amount",
          "type": "uint256"
        },
        {
          "indexed": false,
          "internalType": "uint256",
          "name": "returnEth",
          "type": "uint256"
        },
        {
          "indexed": false,
          "internalType": "uint256",
          "name": "taxEth",
          "type": "uint256"
        }
      ],
      "name": "TokensSold",
      "type": "event"
    },
    {
      "inputs": [],
      "name": "TARGET_LIQUIDITY",
      "outputs": [
        {
          "internalType": "uint256",
          "name": "",
          "type": "uint256"
        }
      ],
      "stateMutability": "view",
      "type": "function"
    },
    {
      "inputs": [],
      "name": "TOKENS_FOR_LIQUIDITY",
      "outputs": [
        {
          "internalType": "uint256",
          "name": "",
          "type": "uint256"
        }
      ],
      "stateMutability": "view",
      "type": "function"
    },
    {
      "inputs": [],
      "name": "TOKENS_FOR_SALE",
      "outputs": [
        {
          "internalType": "uint256",
          "name": "",
          "type": "uint256"
        }
      ],
      "stateMutability": "view",
      "type": "function"
    },
    {
      "inputs": [],
      "name": "basePrice",
      "outputs": [
        {
          "internalType": "uint256",
          "name": "",
          "type": "uint256"
        }
      ],
      "stateMutability": "view",
      "type": "function"
    },
    {
      "inputs": [
        {
          "internalType": "uint256",
          "name": "amount",
          "type": "uint256"
        }
      ],
      "name": "buy",
      "outputs": [],
      "stateMutability": "payable",
      "type": "function"
    },
    {
      "inputs": [
        {
          "internalType": "uint256",
          "name": "amount",
          "type": "uint256"
        }
      ],
      "name": "getCost",
      "outputs": [
        {
          "internalType": "uint256",
          "name": "totalCost",
          "type": "uint256"
        },
        {
          "internalType": "uint256",
          "name": "taxEth",
          "type": "uint256"
        }
      ],
      "stateMutability": "view",
      "type": "function"
    },
    {
      "inputs": [
        {
          "internalType": "uint256",
          "name": "amount",
          "type": "uint256"
        }
      ],
      "name": "getSellValue",
      "outputs": [
        {
          "internalType": "uint256",
          "name": "returnEth",
          "type": "uint256"
        },
        {
          "internalType": "uint256",
          "name": "taxEth",
          "type": "uint256"
        }
      ],
      "stateMutability": "view",
      "type": "function"
    },
    {
      "inputs": [],
      "name": "isMigrated",
      "outputs": [
        {
          "internalType": "bool",
          "name": "",
          "type": "bool"
        }
      ],
      "stateMutability": "view",
      "type": "function"
    },
    {
      "inputs": [],
      "name": "owner",
      "outputs": [
        {
          "internalType": "address",
          "name": "",
          "type": "address"
        }
      ],
      "stateMutability": "view",
      "type": "function"
    },
    {
      "inputs": [],
      "name": "pengoToken",
      "outputs": [
        {
          "internalType": "contract IERC20",
          "name": "",
          "type": "address"
        }
      ],
      "stateMutability": "view",
      "type": "function"
    },
    {
      "inputs": [],
      "name": "permit2",
      "outputs": [
        {
          "internalType": "contract IAllowanceTransfer",
          "name": "",
          "type": "address"
        }
      ],
      "stateMutability": "view",
      "type": "function"
    },
    {
      "inputs": [],
      "name": "poolManager",
      "outputs": [
        {
          "internalType": "contract IPoolManager",
          "name": "",
          "type": "address"
        }
      ],
      "stateMutability": "view",
      "type": "function"
    },
    {
      "inputs": [],
      "name": "positionManager",
      "outputs": [
        {
          "internalType": "contract IPositionManager",
          "name": "",
          "type": "address"
        }
      ],
      "stateMutability": "view",
      "type": "function"
    },
    {
      "inputs": [],
      "name": "priceIncrement",
      "outputs": [
        {
          "internalType": "uint256",
          "name": "",
          "type": "uint256"
        }
      ],
      "stateMutability": "view",
      "type": "function"
    },
    {
      "inputs": [],
      "name": "renounceOwnership",
      "outputs": [],
      "stateMutability": "nonpayable",
      "type": "function"
    },
    {
      "inputs": [
        {
          "internalType": "uint256",
          "name": "amount",
          "type": "uint256"
        }
      ],
      "name": "sell",
      "outputs": [],
      "stateMutability": "nonpayable",
      "type": "function"
    },
    {
      "inputs": [],
      "name": "strategyVault",
      "outputs": [
        {
          "internalType": "address",
          "name": "",
          "type": "address"
        }
      ],
      "stateMutability": "view",
      "type": "function"
    },
    {
      "inputs": [],
      "name": "tokensSold",
      "outputs": [
        {
          "internalType": "uint256",
          "name": "",
          "type": "uint256"
        }
      ],
      "stateMutability": "view",
      "type": "function"
    },
    {
      "inputs": [
        {
          "internalType": "address",
          "name": "newOwner",
          "type": "address"
        }
      ],
      "name": "transferOwnership",
      "outputs": [],
      "stateMutability": "nonpayable",
      "type": "function"
    }
  ],
  "bytecode": "0x60e03461025d57601f611c4338819003918201601f19168301916001600160401b038311848410176102615780849260c09460405283398101031261025d5761004781610275565b9061005460208201610275565b61006060408301610275565b61006c60608401610275565b9160a061007b60808601610275565b9401515f8054336001600160a01b0319821681178355929792916001600160a01b03909116907f8be0079c531659141344cd1fd0a4f28419497f9722a3daafe3b4186f6b6457e09080a3600180546001600160a01b03199081166001600160a01b039384161782556002805482169484169490941784556003805482169584169590951790945560048054909416949091169390931790915560068054610100600160a81b03191660089490941b610100600160a81b03169390931790925560808390526019632faf080084040460a08190529083901b92909181159184041417156101f9578060011b90808204600214901517156101f957632faf0800810290808204632faf080014901517156101f9578082111561020d5781039081116101f9576708e1bc9bc090f800900460c0526040516119b9908161028a82396080518181816102aa015281816104ca0152610732015260a0518181816106060152610948015260c0518181816107fb0152818161092001526109fb0152f35b634e487b7160e01b5f52601160045260245ffd5b60405162461bcd60e51b815260206004820152602260248201527f496e76616c696420746172676574206c697175696469747920666f7220637572604482015261766560f01b6064820152608490fd5b5f80fd5b634e487b7160e01b5f52604160045260245ffd5b51906001600160a01b038216820361025d5756fe6080806040526004361015610012575f80fd5b5f3560e01c90816312261ee714610843575080631f3940271461081e578063280d62ac146107e457806340099098146107b8578063487ef21614610790578063518ab2a8146107735780635a4dd47d146107555780635c95eb521461071b578063715018a6146106c4578063791b98bc1461069c5780637939a10b146106725780638da5cb5b1461064b578063b06faf6214610629578063c7876ea4146105ef578063c8612b2f146105c9578063d96a094a146103cf578063dc4c90d3146103a7578063e4849b32146101bb5763f2fde38b146100ed575f80fd5b346101b75760203660031901126101b7576004356001600160a01b038116908190036101b75761011b610b8c565b8015610163575f80546001600160a01b03198116831782556001600160a01b0316907f8be0079c531659141344cd1fd0a4f28419497f9722a3daafe3b4186f6b6457e09080a3005b60405162461bcd60e51b815260206004820152602660248201527f4f776e61626c653a206e6577206f776e657220697320746865207a65726f206160448201526564647265737360d01b6064820152608490fd5b5f80fd5b346101b75760203660031901126101b7576004356101de60ff6006541615610aa4565b8015610363576101ed816109bc565b81471061031e57610200836005546108e6565b6005556001546040516323b872dd60e01b81523360048201523060248201526044810185905290602090829060649082905f906001600160a01b03165af180156102db57610255915f916102ef575b50610b48565b815f81156102e6575b5f80809381933390f1156102db576040805193845260208401929092529082015233907f6db63bebf1e6540277744df32846ebdb98385b1a73f2d5de49b28348add63f5090606090a2477f000000000000000000000000000000000000000000000000000000000000000011156102d157005b6102d9610c90565b005b6040513d5f823e3d90fd5b506108fc61025e565b610311915060203d602011610317575b6103098183610afa565b810190610b30565b8561024f565b503d6102ff565b60405162461bcd60e51b815260206004820152601d60248201527f436f6e74726163742068617320696e73756666696369656e74204554480000006044820152606490fd5b606460405162461bcd60e51b815260206004820152602060248201527f416d6f756e74206d7573742062652067726561746572207468616e207a65726f6044820152fd5b346101b7575f3660031901126101b7576002546040516001600160a01b039091168152602090f35b60203660031901126101b7576004356103ed60ff6006541615610aa4565b600554906b0295be96e64066972000000061040882846108d9565b1161057a57610416816108f3565b909283341061053d5782610429916108d9565b60055560015460405163a9059cbb60e01b8152336004820152602481018490529190602090839060449082905f906001600160a01b03165af19081156102db5761049e6104bb927f0d1a0d5e3d583a0e92588799dd06e50fd78c07daf05f0cc06d7b848b1ca445f1945f9161051e5750610b48565b604080519485526020850186905284015233929081906060820190565b0390a28034116104f1575b50477f000000000000000000000000000000000000000000000000000000000000000011156102d157005b5f80806104ff8194346108e6565b818115610515575b3390f1156102db57806104c6565b506108fc610507565b610537915060203d602011610317576103098183610afa565b8761024f565b60405162461bcd60e51b8152602060048201526015602482015274125b9cdd59999a58da595b9d08115512081cd95b9d605a1b6044820152606490fd5b60405162461bcd60e51b815260206004820152602160248201527f4578636565647320617661696c61626c6520746f6b656e7320666f722073616c6044820152606560f81b6064820152608490fd5b346101b7575f3660031901126101b75760206040516b0295be96e6406697200000008152f35b346101b7575f3660031901126101b75760206040517f00000000000000000000000000000000000000000000000000000000000000008152f35b346101b7575f3660031901126101b757602060ff600654166040519015158152f35b346101b7575f3660031901126101b7575f546040516001600160a01b039091168152602090f35b346101b75760203660031901126101b75760406106906004356109bc565b82519182526020820152f35b346101b7575f3660031901126101b7576003546040516001600160a01b039091168152602090f35b346101b7575f3660031901126101b7576106dc610b8c565b5f80546001600160a01b0319811682556001600160a01b03167f8be0079c531659141344cd1fd0a4f28419497f9722a3daafe3b4186f6b6457e08280a3005b346101b7575f3660031901126101b75760206040517f00000000000000000000000000000000000000000000000000000000000000008152f35b346101b75760203660031901126101b75760406106906004356108f3565b346101b7575f3660031901126101b7576020600554604051908152f35b346101b7575f3660031901126101b7576001546040516001600160a01b039091168152602090f35b346101b7575f3660031901126101b75760065460405160089190911c6001600160a01b03168152602090f35b346101b7575f3660031901126101b75760206040517f00000000000000000000000000000000000000000000000000000000000000008152f35b346101b7575f3660031901126101b75760206040516aa56fa5b99019a5c80000008152f35b346101b7575f3660031901126101b7576004546001600160a01b03168152602090f35b1561086d57565b60405162461bcd60e51b815260206004820152601d60248201527f416d6f756e74206d75737420626520696e2066756c6c20746f6b656e730000006044820152606490fd5b818102929181159184041417156108c557565b634e487b7160e01b5f52601160045260245ffd5b919082018092116108c557565b919082039182116108c557565b670de0b6b3a76400009061090982820615610866565b04670de0b6b3a7640000600554049061096c6109467f000000000000000000000000000000000000000000000000000000000000000080946108b2565b7f00000000000000000000000000000000000000000000000000000000000000006108d9565b916001600160ff1b03831683036108c5575f198201928284116108c5576109996109a2926109a8956108b2565b9060011b6108d9565b906108b2565b60011c6109b96064820480926108d9565b91565b6109d0670de0b6b3a7640000820615610866565b60055490818111610a5f576109f181670de0b6b3a7640000809304936108e6565b0490610a216109467f000000000000000000000000000000000000000000000000000000000000000080946108b2565b916001600160ff1b03831683036108c5575f198201928284116108c5576109996109a292610a4e956108b2565b60011c6109b96064820480926108e6565b60405162461bcd60e51b815260206004820152601a60248201527f416d6f756e74206578636565647320746f6b656e7320736f6c640000000000006044820152606490fd5b15610aab57565b60405162461bcd60e51b815260206004820152602160248201527f4c697175696469747920616c7265616479206d6967726174656420746f2044456044820152600b60fb1b6064820152608490fd5b90601f8019910116810190811067ffffffffffffffff821117610b1c57604052565b634e487b7160e01b5f52604160045260245ffd5b908160209103126101b7575180151581036101b75790565b15610b4f57565b60405162461bcd60e51b8152602060048201526015602482015274151bdad95b881d1c985b9cd9995c8819985a5b1959605a1b6044820152606490fd5b5f546001600160a01b03163303610b9f57565b606460405162461bcd60e51b815260206004820152602060248201527f4f776e61626c653a2063616c6c6572206973206e6f7420746865206f776e65726044820152fd5b80516001600160a01b03908116835260208083015182169084015260408083015162ffffff169084015260608083015160020b9084015260809182015116910152565b603c9060020b02908160020b9182036108c557565b805115610c485760200190565b634e487b7160e01b5f52603260045260245ffd5b805160011015610c485760400190565b805180835260209291819084018484015e5f828201840152601f01601f1916010190565b6006805460ff19166001908117909155546040516370a0823160e01b81523060048201525f916001600160a01b0316904790602081602481865afa80156102db575f90611410575b6aa56fa5b99019a5c80000009150106113cb576040519160a0830183811067ffffffffffffffff821117610b1c576040525f8352806020840152610bb86040840152603c60608401525f608084015262a56fa58211156101b75781600160c01b6aa56fa5b99019a5c80000000982805f0316908184046002816003021880820260020302808202600203028082026002030280820260020302808202600203028091026002030291600181805f0304016417320334b960db1b831162a56fa50302916417320334b960db1b030417028070ffffffffffffffffffffffffffffffffff1060071b81811c68ffffffffffffffffff1060061b1781811c64ffffffffff1060051b1781811c62ffffff1060041b1760b56201000083831c019160011c1b0260121c8082040160011c8082040160011c8082040160011c8082040160011c8082040160011c8082040160011c8082040160011c808060018060a01b03930410900316905f602060018060a01b036002541660c46040518094819363313b65df60e11b8352610e6c600484018c610be3565b8860a48401525af180156102db57611392575b50610e8c6139c219610c26565b93610e986139c3610c26565b9284610ea3876115a0565b91610ead866115a0565b9081846001600160a01b0380831690821611611386575b50506001600160a01b03841681116113285750610ee092611913565b915b6001546004805460405163095ea7b360e01b81526001600160a01b03918216928101929092525f1960248301529091602091839160449183915f91165af180156102db5761130b575b506004546001546003546001600160a01b03928316929182169116823b156101b7576040516387517c4560e01b8152600481019290925260248201526001600160a01b03604482015265ffffffffffff6064820152905f908290608490829084905af180156102db576112f6575b50604051600160f91b6020820152600d60f81b60218201526002815291610fc1602284610afa565b60609660405194610fd28987610afa565b60028652601f1989018a5b8181106112e6575050906001600160801b036110de9596949392169660018060a01b0360065460081c1691611019604051946020860190610be3565b60020b60c084015260020b60e0830152866101008301526001600160801b0388166101208301526aa56fa5b99019a5c800000061014083015261016082015261018080820152886101a08201526101a081526110776101c082610afa565b61108083610c3b565b5261108a82610c3b565b50604051908860208301526040820152604081526110a88782610afa565b6110b182610c5c565b526110bb81610c5c565b5060018060a01b0360035416926040519283916040602084015288830190610c6c565b91601f19828403016040830152805180845260208401936020808360051b8301019301948b915b8383106112b55750505050611123925003601f198101835282610afa565b813b156112b1576111558492879260405194858094819363dd46508f60e01b8352604060048401526044830190610c6c565b42602483015203925af180156112a65790859161128d575b5050604080519283526aa56fa5b99019a5c800000060208401528201527fb601ba6099d0385f3a4bad0485aa6ff9186cda7fff3307a3b408b9ecee520e6f9190a16001546040516370a0823160e01b81523060048201526001600160a01b0390911690602081602481855afa908115611282578391611250575b50806111f257505050565b82916044602092604051958693849263a9059cbb60e01b845261dead600485015260248401525af190811561124457506112295750565b6112419060203d602011610317576103098183610afa565b50565b604051903d90823e3d90fd5b90506020813d60201161127a575b8161126b60209383610afa565b810103126101b757515f6111e7565b3d915061125e565b6040513d85823e3d90fd5b8161129791610afa565b6112a257835f61116d565b8380fd5b6040513d87823e3d90fd5b8580fd5b919360019193955060206112d48192601f198682030187528951610c6c565b97019301930190928694929593611105565b808b602080938b01015201610fdd565b6113039197505f90610afa565b5f955f610f99565b6113239060203d602011610317576103098183610afa565b610f2b565b91906001600160a01b03811683101561137a57829161134a9161135094611913565b926118cd565b6001600160801b0381166001600160801b038316105f1461137357505b91610ee2565b905061136d565b91505061136d916118cd565b90945091505f80610ec4565b6020813d6020116113c3575b816113ab60209383610afa565b810103126101b757518060020b810315610e7f575f80fd5b3d915061139e565b60405162461bcd60e51b815260206004820152601860248201527f4e6f7420656e6f75676820746f6b656e7320666f72204c5000000000000000006044820152606490fd5b506020813d602011611445575b8161142a60209383610afa565b810103126101b7576aa56fa5b99019a5c80000009051610cd8565b3d915061141d565b90606082901b905f19600160601b8409928280851094039380850394858411156101b757146114d0578190600160601b900981805f03168092046002816003021880820260020302808202600203028082026002030280820260020302808202600203028091026002030293600183805f03040190848311900302920304170290565b5091500490565b81810291905f1982820991838084109303928084039384600160601b11156101b7571461151757600160601b910990828211900360a01b910360601c1790565b50505060601c90565b91818302915f19818509938380861095039480860395868511156101b75714611598579082910981805f03168092046002816003021880820260020302808202600203028082026002030280820260020302808202600203028091026002030293600183805f03040190848311900302920304170290565b505091500490565b60020b908160ff1d82810118620d89e881116118ba5763ffffffff9192600182167001fffcb933bd6fad37aa2d162d1a59400102600160801b18916002811661189e575b60048116611882575b60088116611866575b6010811661184a575b6020811661182e575b60408116611812575b608081166117f6575b61010081166117da575b61020081166117be575b61040081166117a2575b6108008116611786575b611000811661176a575b612000811661174e575b6140008116611732575b6180008116611716575b6201000081166116fa575b6202000081166116df575b6204000081166116c4575b62080000166116ab575b5f126116a3575b0160201c90565b5f190461169c565b6b048a170391f7dc42444e8fa290910260801c90611695565b6d2216e584f5fa1ea926041bedfe9890920260801c9161168b565b916e5d6af8dedb81196699c329225ee6040260801c91611680565b916f09aa508b5b7a84e1c677de54f3e99bc90260801c91611675565b916f31be135f97d08fd981231505542fcfa60260801c9161166a565b916f70d869a156d2a1b890bb3df62baf32f70260801c91611660565b916fa9f746462d870fdf8a65dc1f90e061e50260801c91611656565b916fd097f3bdfd2022b8845ad8f792aa58250260801c9161164c565b916fe7159475a2c29b7443b29c7fa6e889d90260801c91611642565b916ff3392b0822b70005940c7a398e4b70f30260801c91611638565b916ff987a7253ac413176f2b074cf7815e540260801c9161162e565b916ffcbe86c7900a88aedcffc83b479aa3a40260801c91611624565b916ffe5dee046a99a2a811c461f1969c30530260801c9161161a565b916fff2ea16466c96a3843ec78b326b528610260801c91611611565b916fff973b41fa98c081472e6896dfb254c00260801c91611608565b916fffcb9843d60f6159c9db58835c9266440260801c916115ff565b916fffe5caca7e10e4e61c3624eaa0941cd00260801c916115f6565b916ffff2e50f5f656932ef12357cf3c7fdcc0260801c916115ed565b916ffff97272373d413259a46990580e213a0260801c916115e4565b826345c3193d60e11b5f5260045260245ffd5b61190a91611905916001600160a01b038083169082161161190d575b90036001600160a01b03166aa56fa5b99019a5c800000061144d565b611960565b90565b906118e9565b61190a92611905929091906001600160a01b038082169083161161195a575b6119486001600160a01b038281169084166114d7565b9190036001600160a01b031691611520565b90611932565b906001600160801b03821680920361197457565b6393dafdf160e01b5f5260045ffdfea2646970667358221220699beb4d965f356739d9a29c0ec5261d77578d6b1df6fbe876ac54545999582664736f6c634300081b0033",
  "linkReferences": {},
  "deployedLinkReferences": {}
}