{
  "_format": "hh-sol-artifact-1",
  "contractName": "PenguinOnchainTestnet",
  "sourceName": "contracts/ERC721/PenguinOnchainTestnet.sol",
  "abi": [
    {
      "inputs": [],
      "stateMutability": "nonpayable",
      "type": "constructor"
    },
    {
      "inputs": [],
      "name": "AlreadyListed",
      "type": "error"
    },
    {
      "inputs": [],
      "name": "ApprovalCallerNotOwnerNorApproved",
      "type": "error"
    },
    {
      "inputs": [],
      "name": "ApprovalQueryForNonexistentToken",
      "type": "error"
    },
    {
      "inputs": [],
      "name": "BalanceQueryForZeroAddress",
      "type": "error"
    },
    {
      "inputs": [],
      "name": "InsufficientPayment",
      "type": "error"
    },
    {
      "inputs": [],
      "name": "InvalidBeneficiary",
      "type": "error"
    },
    {
      "inputs": [],
      "name": "InvalidPixelData",
      "type": "error"
    },
    {
      "inputs": [],
      "name": "InvalidQueryRange",
      "type": "error"
    },
    {
      "inputs": [],
      "name": "InvalidRecipient",
      "type": "error"
    },
    {
      "inputs": [],
      "name": "MaxMintPerWalletReached",
      "type": "error"
    },
    {
      "inputs": [],
      "name": "MintERC2309QuantityExceedsLimit",
      "type": "error"
    },
    {
      "inputs": [],
      "name": "MintToZeroAddress",
      "type": "error"
    },
    {
      "inputs": [],
      "name": "MintZeroQuantity",
      "type": "error"
    },
    {
      "inputs": [],
      "name": "NoActiveOffer",
      "type": "error"
    },
    {
      "inputs": [],
      "name": "NoWithdrawableFunds",
      "type": "error"
    },
    {
      "inputs": [],
      "name": "NotAccessoryOwner",
      "type": "error"
    },
    {
      "inputs": [],
      "name": "NotCompatibleWithSpotMints",
      "type": "error"
    },
    {
      "inputs": [],
      "name": "NotForSale",
      "type": "error"
    },
    {
      "inputs": [],
      "name": "NotTokenOwner",
      "type": "error"
    },
    {
      "inputs": [],
      "name": "NotYourOffer",
      "type": "error"
    },
    {
      "inputs": [],
      "name": "OfferTooLow",
      "type": "error"
    },
    {
      "inputs": [],
      "name": "OwnerCannotOffer",
      "type": "error"
    },
    {
      "inputs": [],
      "name": "OwnerQueryForNonexistentToken",
      "type": "error"
    },
    {
      "inputs": [],
      "name": "OwnershipNotInitializedForExtraData",
      "type": "error"
    },
    {
      "inputs": [],
      "name": "PartNotAllowed",
      "type": "error"
    },
    {
      "inputs": [],
      "name": "SequentialMintExceedsLimit",
      "type": "error"
    },
    {
      "inputs": [],
      "name": "SequentialUpToTooSmall",
      "type": "error"
    },
    {
      "inputs": [],
      "name": "SlotFilled",
      "type": "error"
    },
    {
      "inputs": [],
      "name": "SoldOut",
      "type": "error"
    },
    {
      "inputs": [],
      "name": "SpotMintTokenIdTooSmall",
      "type": "error"
    },
    {
      "inputs": [],
      "name": "TokenAlreadyExists",
      "type": "error"
    },
    {
      "inputs": [],
      "name": "TokenDoesNotExist",
      "type": "error"
    },
    {
      "inputs": [],
      "name": "TransferCallerNotOwnerNorApproved",
      "type": "error"
    },
    {
      "inputs": [],
      "name": "TransferFailed",
      "type": "error"
    },
    {
      "inputs": [],
      "name": "TransferFromIncorrectOwner",
      "type": "error"
    },
    {
      "inputs": [],
      "name": "TransferToNonERC721ReceiverImplementer",
      "type": "error"
    },
    {
      "inputs": [],
      "name": "TransferToZeroAddress",
      "type": "error"
    },
    {
      "inputs": [],
      "name": "URIQueryForNonexistentToken",
      "type": "error"
    },
    {
      "inputs": [],
      "name": "ZeroAddress",
      "type": "error"
    },
    {
      "inputs": [],
      "name": "ZeroMintAmount",
      "type": "error"
    },
    {
      "inputs": [],
      "name": "ZeroPrice",
      "type": "error"
    },
    {
      "anonymous": false,
      "inputs": [
        {
          "indexed": true,
          "internalType": "uint256",
          "name": "tokenId",
          "type": "uint256"
        },
        {
          "indexed": false,
          "internalType": "string",
          "name": "trait_type",
          "type": "string"
        },
        {
          "indexed": false,
          "internalType": "uint256",
          "name": "accessoryId",
          "type": "uint256"
        }
      ],
      "name": "AccessoryAdded",
      "type": "event"
    },
    {
      "anonymous": false,
      "inputs": [
        {
          "indexed": true,
          "internalType": "uint256",
          "name": "accessoryId",
          "type": "uint256"
        },
        {
          "indexed": true,
          "internalType": "uint256",
          "name": "fromTokenId",
          "type": "uint256"
        }
      ],
      "name": "AccessoryDeleted",
      "type": "event"
    },
    {
      "anonymous": false,
      "inputs": [
        {
          "indexed": true,
          "internalType": "uint256",
          "name": "accessoryId",
          "type": "uint256"
        },
        {
          "indexed": false,
          "internalType": "uint256",
          "name": "price",
          "type": "uint256"
        }
      ],
      "name": "AccessoryListed",
      "type": "event"
    },
    {
      "anonymous": false,
      "inputs": [
        {
          "indexed": true,
          "internalType": "uint256",
          "name": "accessoryId",
          "type": "uint256"
        },
        {
          "indexed": true,
          "internalType": "uint256",
          "name": "fromTokenId",
          "type": "uint256"
        },
        {
          "indexed": true,
          "internalType": "uint256",
          "name": "toTokenId",
          "type": "uint256"
        },
        {
          "indexed": false,
          "internalType": "address",
          "name": "buyer",
          "type": "address"
        },
        {
          "indexed": false,
          "internalType": "uint256",
          "name": "price",
          "type": "uint256"
        }
      ],
      "name": "AccessoryOfferCancelled",
      "type": "event"
    },
    {
      "anonymous": false,
      "inputs": [
        {
          "indexed": true,
          "internalType": "uint256",
          "name": "accessoryId",
          "type": "uint256"
        },
        {
          "indexed": true,
          "internalType": "uint256",
          "name": "fromTokenId",
          "type": "uint256"
        },
        {
          "indexed": true,
          "internalType": "uint256",
          "name": "toTokenId",
          "type": "uint256"
        },
        {
          "indexed": false,
          "internalType": "address",
          "name": "buyer",
          "type": "address"
        },
        {
          "indexed": false,
          "internalType": "uint256",
          "name": "price",
          "type": "uint256"
        }
      ],
      "name": "AccessoryOfferMade",
      "type": "event"
    },
    {
      "anonymous": false,
      "inputs": [
        {
          "indexed": true,
          "internalType": "uint256",
          "name": "accessoryId",
          "type": "uint256"
        },
        {
          "indexed": false,
          "internalType": "address",
          "name": "accessoryOwner",
          "type": "address"
        }
      ],
      "name": "AccessorySaleCancelled",
      "type": "event"
    },
    {
      "anonymous": false,
      "inputs": [
        {
          "indexed": false,
          "internalType": "string",
          "name": "accessoryType",
          "type": "string"
        },
        {
          "indexed": true,
          "internalType": "uint256",
          "name": "accessoryId",
          "type": "uint256"
        },
        {
          "indexed": true,
          "internalType": "uint256",
          "name": "fromTokenId",
          "type": "uint256"
        },
        {
          "indexed": true,
          "internalType": "uint256",
          "name": "toTokenId",
          "type": "uint256"
        },
        {
          "indexed": false,
          "internalType": "address",
          "name": "seller",
          "type": "address"
        },
        {
          "indexed": false,
          "internalType": "address",
          "name": "buyer",
          "type": "address"
        },
        {
          "indexed": false,
          "internalType": "uint256",
          "name": "price",
          "type": "uint256"
        }
      ],
      "name": "AccessorySold",
      "type": "event"
    },
    {
      "anonymous": false,
      "inputs": [
        {
          "indexed": true,
          "internalType": "address",
          "name": "owner",
          "type": "address"
        },
        {
          "indexed": true,
          "internalType": "address",
          "name": "approved",
          "type": "address"
        },
        {
          "indexed": true,
          "internalType": "uint256",
          "name": "tokenId",
          "type": "uint256"
        }
      ],
      "name": "Approval",
      "type": "event"
    },
    {
      "anonymous": false,
      "inputs": [
        {
          "indexed": true,
          "internalType": "address",
          "name": "owner",
          "type": "address"
        },
        {
          "indexed": true,
          "internalType": "address",
          "name": "operator",
          "type": "address"
        },
        {
          "indexed": false,
          "internalType": "bool",
          "name": "approved",
          "type": "bool"
        }
      ],
      "name": "ApprovalForAll",
      "type": "event"
    },
    {
      "anonymous": false,
      "inputs": [
        {
          "indexed": true,
          "internalType": "uint256",
          "name": "fromTokenId",
          "type": "uint256"
        },
        {
          "indexed": false,
          "internalType": "uint256",
          "name": "toTokenId",
          "type": "uint256"
        },
        {
          "indexed": true,
          "internalType": "address",
          "name": "from",
          "type": "address"
        },
        {
          "indexed": true,
          "internalType": "address",
          "name": "to",
          "type": "address"
        }
      ],
      "name": "ConsecutiveTransfer",
      "type": "event"
    },
    {
      "anonymous": false,
      "inputs": [
        {
          "indexed": false,
          "internalType": "uint256",
          "name": "_tokenId",
          "type": "uint256"
        }
      ],
      "name": "MetadataUpdate",
      "type": "event"
    },
    {
      "anonymous": false,
      "inputs": [
        {
          "indexed": true,
          "internalType": "address",
          "name": "previousOwner",
          "type": "address"
        },
        {
          "indexed": true,
          "internalType": "address",
          "name": "newOwner",
          "type": "address"
        }
      ],
      "name": "OwnershipTransferred",
      "type": "event"
    },
    {
      "anonymous": false,
      "inputs": [
        {
          "indexed": true,
          "internalType": "address",
          "name": "from",
          "type": "address"
        },
        {
          "indexed": true,
          "internalType": "address",
          "name": "to",
          "type": "address"
        },
        {
          "indexed": true,
          "internalType": "uint256",
          "name": "tokenId",
          "type": "uint256"
        }
      ],
      "name": "Transfer",
      "type": "event"
    },
    {
      "inputs": [],
      "name": "BENEFICARY_ADDRESS",
      "outputs": [
        {
          "internalType": "address",
          "name": "",
          "type": "address"
        }
      ],
      "stateMutability": "view",
      "type": "function"
    },
    {
      "inputs": [],
      "name": "MAX_MINT_PER_WALLET",
      "outputs": [
        {
          "internalType": "uint256",
          "name": "",
          "type": "uint256"
        }
      ],
      "stateMutability": "view",
      "type": "function"
    },
    {
      "inputs": [],
      "name": "MAX_SUPPLY",
      "outputs": [
        {
          "internalType": "uint256",
          "name": "",
          "type": "uint256"
        }
      ],
      "stateMutability": "view",
      "type": "function"
    },
    {
      "inputs": [],
      "name": "MINT_PRICE",
      "outputs": [
        {
          "internalType": "uint256",
          "name": "",
          "type": "uint256"
        }
      ],
      "stateMutability": "view",
      "type": "function"
    },
    {
      "inputs": [],
      "name": "ROYALTY_ADDRESS",
      "outputs": [
        {
          "internalType": "address",
          "name": "",
          "type": "address"
        }
      ],
      "stateMutability": "view",
      "type": "function"
    },
    {
      "inputs": [],
      "name": "ROYALTY_PERCENT",
      "outputs": [
        {
          "internalType": "uint256",
          "name": "",
          "type": "uint256"
        }
      ],
      "stateMutability": "view",
      "type": "function"
    },
    {
      "inputs": [
        {
          "internalType": "uint256",
          "name": "",
          "type": "uint256"
        },
        {
          "internalType": "uint256",
          "name": "",
          "type": "uint256"
        }
      ],
      "name": "accessories",
      "outputs": [
        {
          "internalType": "uint256",
          "name": "accessoryId",
          "type": "uint256"
        },
        {
          "internalType": "string",
          "name": "trait_type",
          "type": "string"
        },
        {
          "internalType": "string",
          "name": "trait_name",
          "type": "string"
        },
        {
          "internalType": "string",
          "name": "bytePixel",
          "type": "string"
        },
        {
          "internalType": "uint256",
          "name": "sellingPrice",
          "type": "uint256"
        },
        {
          "internalType": "uint256",
          "name": "lastPrice",
          "type": "uint256"
        },
        {
          "internalType": "address",
          "name": "owner",
          "type": "address"
        },
        {
          "internalType": "bool",
          "name": "forSale",
          "type": "bool"
        }
      ],
      "stateMutability": "view",
      "type": "function"
    },
    {
      "inputs": [
        {
          "internalType": "uint256",
          "name": "",
          "type": "uint256"
        }
      ],
      "name": "accessoriesForSale",
      "outputs": [
        {
          "internalType": "uint256",
          "name": "tokenId",
          "type": "uint256"
        },
        {
          "internalType": "uint256",
          "name": "accessoryId",
          "type": "uint256"
        },
        {
          "components": [
            {
              "internalType": "uint256",
              "name": "accessoryId",
              "type": "uint256"
            },
            {
              "internalType": "string",
              "name": "trait_type",
              "type": "string"
            },
            {
              "internalType": "string",
              "name": "trait_name",
              "type": "string"
            },
            {
              "internalType": "string",
              "name": "bytePixel",
              "type": "string"
            },
            {
              "internalType": "uint256",
              "name": "sellingPrice",
              "type": "uint256"
            },
            {
              "internalType": "uint256",
              "name": "lastPrice",
              "type": "uint256"
            },
            {
              "internalType": "address",
              "name": "owner",
              "type": "address"
            },
            {
              "internalType": "bool",
              "name": "forSale",
              "type": "bool"
            }
          ],
          "internalType": "struct IPenguinOnchain.Accessory",
          "name": "accessory",
          "type": "tuple"
        }
      ],
      "stateMutability": "view",
      "type": "function"
    },
    {
      "inputs": [
        {
          "internalType": "uint256",
          "name": "",
          "type": "uint256"
        },
        {
          "internalType": "uint256",
          "name": "",
          "type": "uint256"
        }
      ],
      "name": "accessoryIds",
      "outputs": [
        {
          "internalType": "uint256",
          "name": "",
          "type": "uint256"
        }
      ],
      "stateMutability": "view",
      "type": "function"
    },
    {
      "inputs": [
        {
          "internalType": "uint256",
          "name": "tokenId",
          "type": "uint256"
        },
        {
          "internalType": "string",
          "name": "trait_type",
          "type": "string"
        },
        {
          "internalType": "string",
          "name": "trait_name",
          "type": "string"
        },
        {
          "internalType": "string",
          "name": "byteCode",
          "type": "string"
        }
      ],
      "name": "addAccessory",
      "outputs": [],
      "stateMutability": "nonpayable",
      "type": "function"
    },
    {
      "inputs": [
        {
          "internalType": "address",
          "name": "to",
          "type": "address"
        },
        {
          "internalType": "uint256",
          "name": "tokenId",
          "type": "uint256"
        }
      ],
      "name": "approve",
      "outputs": [],
      "stateMutability": "payable",
      "type": "function"
    },
    {
      "inputs": [
        {
          "internalType": "uint256",
          "name": "fromTokenId",
          "type": "uint256"
        },
        {
          "internalType": "uint256",
          "name": "accessoryId",
          "type": "uint256"
        }
      ],
      "name": "approveOffer",
      "outputs": [],
      "stateMutability": "nonpayable",
      "type": "function"
    },
    {
      "inputs": [
        {
          "internalType": "address",
          "name": "owner",
          "type": "address"
        }
      ],
      "name": "balanceOf",
      "outputs": [
        {
          "internalType": "uint256",
          "name": "",
          "type": "uint256"
        }
      ],
      "stateMutability": "view",
      "type": "function"
    },
    {
      "inputs": [
        {
          "internalType": "uint256",
          "name": "accessoryId",
          "type": "uint256"
        },
        {
          "internalType": "uint256",
          "name": "fromTokenId",
          "type": "uint256"
        }
      ],
      "name": "cancelOffer",
      "outputs": [],
      "stateMutability": "nonpayable",
      "type": "function"
    },
    {
      "inputs": [],
      "name": "contractURI",
      "outputs": [
        {
          "internalType": "string",
          "name": "",
          "type": "string"
        }
      ],
      "stateMutability": "view",
      "type": "function"
    },
    {
      "inputs": [
        {
          "internalType": "uint256",
          "name": "tokenId",
          "type": "uint256"
        }
      ],
      "name": "explicitOwnershipOf",
      "outputs": [
        {
          "components": [
            {
              "internalType": "address",
              "name": "addr",
              "type": "address"
            },
            {
              "internalType": "uint64",
              "name": "startTimestamp",
              "type": "uint64"
            },
            {
              "internalType": "bool",
              "name": "burned",
              "type": "bool"
            },
            {
              "internalType": "uint24",
              "name": "extraData",
              "type": "uint24"
            }
          ],
          "internalType": "struct IERC721A.TokenOwnership",
          "name": "ownership",
          "type": "tuple"
        }
      ],
      "stateMutability": "view",
      "type": "function"
    },
    {
      "inputs": [
        {
          "internalType": "uint256[]",
          "name": "tokenIds",
          "type": "uint256[]"
        }
      ],
      "name": "explicitOwnershipsOf",
      "outputs": [
        {
          "components": [
            {
              "internalType": "address",
              "name": "addr",
              "type": "address"
            },
            {
              "internalType": "uint64",
              "name": "startTimestamp",
              "type": "uint64"
            },
            {
              "internalType": "bool",
              "name": "burned",
              "type": "bool"
            },
            {
              "internalType": "uint24",
              "name": "extraData",
              "type": "uint24"
            }
          ],
          "internalType": "struct IERC721A.TokenOwnership[]",
          "name": "",
          "type": "tuple[]"
        }
      ],
      "stateMutability": "view",
      "type": "function"
    },
    {
      "inputs": [],
      "name": "factory",
      "outputs": [
        {
          "internalType": "contract IPengoFactory",
          "name": "",
          "type": "address"
        }
      ],
      "stateMutability": "view",
      "type": "function"
    },
    {
      "inputs": [
        {
          "internalType": "uint256",
          "name": "tokenId",
          "type": "uint256"
        },
        {
          "internalType": "uint256",
          "name": "accessoryId",
          "type": "uint256"
        }
      ],
      "name": "findAccessoryIndex",
      "outputs": [
        {
          "internalType": "uint256",
          "name": "",
          "type": "uint256"
        }
      ],
      "stateMutability": "view",
      "type": "function"
    },
    {
      "inputs": [],
      "name": "getAllAccessoriesForSale",
      "outputs": [
        {
          "components": [
            {
              "internalType": "uint256",
              "name": "tokenId",
              "type": "uint256"
            },
            {
              "internalType": "uint256",
              "name": "accessoryId",
              "type": "uint256"
            },
            {
              "components": [
                {
                  "internalType": "uint256",
                  "name": "accessoryId",
                  "type": "uint256"
                },
                {
                  "internalType": "string",
                  "name": "trait_type",
                  "type": "string"
                },
                {
                  "internalType": "string",
                  "name": "trait_name",
                  "type": "string"
                },
                {
                  "internalType": "string",
                  "name": "bytePixel",
                  "type": "string"
                },
                {
                  "internalType": "uint256",
                  "name": "sellingPrice",
                  "type": "uint256"
                },
                {
                  "internalType": "uint256",
                  "name": "lastPrice",
                  "type": "uint256"
                },
                {
                  "internalType": "address",
                  "name": "owner",
                  "type": "address"
                },
                {
                  "internalType": "bool",
                  "name": "forSale",
                  "type": "bool"
                }
              ],
              "internalType": "struct IPenguinOnchain.Accessory",
              "name": "accessory",
              "type": "tuple"
            }
          ],
          "internalType": "struct IPenguinOnchain.AccessoryForSale[]",
          "name": "",
          "type": "tuple[]"
        }
      ],
      "stateMutability": "view",
      "type": "function"
    },
    {
      "inputs": [
        {
          "internalType": "uint256",
          "name": "tokenId",
          "type": "uint256"
        }
      ],
      "name": "getApproved",
      "outputs": [
        {
          "internalType": "address",
          "name": "",
          "type": "address"
        }
      ],
      "stateMutability": "view",
      "type": "function"
    },
    {
      "inputs": [
        {
          "internalType": "uint256",
          "name": "tokenId",
          "type": "uint256"
        }
      ],
      "name": "getNFTDetails",
      "outputs": [
        {
          "components": [
            {
              "internalType": "uint256",
              "name": "accessoryId",
              "type": "uint256"
            },
            {
              "internalType": "string",
              "name": "trait_type",
              "type": "string"
            },
            {
              "internalType": "string",
              "name": "trait_name",
              "type": "string"
            },
            {
              "internalType": "string",
              "name": "bytePixel",
              "type": "string"
            },
            {
              "internalType": "uint256",
              "name": "sellingPrice",
              "type": "uint256"
            },
            {
              "internalType": "uint256",
              "name": "lastPrice",
              "type": "uint256"
            },
            {
              "internalType": "address",
              "name": "owner",
              "type": "address"
            },
            {
              "internalType": "bool",
              "name": "forSale",
              "type": "bool"
            }
          ],
          "internalType": "struct IPenguinOnchain.Accessory[]",
          "name": "",
          "type": "tuple[]"
        },
        {
          "components": [
            {
              "internalType": "string",
              "name": "category",
              "type": "string"
            },
            {
              "internalType": "string",
              "name": "networth",
              "type": "string"
            }
          ],
          "internalType": "struct IPenguinOnchain.SpecialTrait",
          "name": "",
          "type": "tuple"
        }
      ],
      "stateMutability": "view",
      "type": "function"
    },
    {
      "inputs": [
        {
          "internalType": "uint256",
          "name": "tokenId",
          "type": "uint256"
        }
      ],
      "name": "getSeed",
      "outputs": [
        {
          "internalType": "uint256",
          "name": "",
          "type": "uint256"
        }
      ],
      "stateMutability": "view",
      "type": "function"
    },
    {
      "inputs": [
        {
          "internalType": "address",
          "name": "owner",
          "type": "address"
        },
        {
          "internalType": "address",
          "name": "operator",
          "type": "address"
        }
      ],
      "name": "isApprovedForAll",
      "outputs": [
        {
          "internalType": "bool",
          "name": "",
          "type": "bool"
        }
      ],
      "stateMutability": "view",
      "type": "function"
    },
    {
      "inputs": [
        {
          "internalType": "uint256",
          "name": "tokenId",
          "type": "uint256"
        },
        {
          "internalType": "uint256",
          "name": "accessoryId",
          "type": "uint256"
        },
        {
          "internalType": "uint256",
          "name": "price",
          "type": "uint256"
        }
      ],
      "name": "listAccessoryForSale",
      "outputs": [],
      "stateMutability": "nonpayable",
      "type": "function"
    },
    {
      "inputs": [
        {
          "internalType": "uint256",
          "name": "accessoryId",
          "type": "uint256"
        },
        {
          "internalType": "uint256",
          "name": "fromTokenId",
          "type": "uint256"
        },
        {
          "internalType": "uint256",
          "name": "toTokenId",
          "type": "uint256"
        }
      ],
      "name": "makeOffer",
      "outputs": [],
      "stateMutability": "payable",
      "type": "function"
    },
    {
      "inputs": [
        {
          "internalType": "uint256",
          "name": "_mintAmount",
          "type": "uint256"
        }
      ],
      "name": "mintPengo",
      "outputs": [
        {
          "internalType": "uint256[]",
          "name": "",
          "type": "uint256[]"
        }
      ],
      "stateMutability": "payable",
      "type": "function"
    },
    {
      "inputs": [
        {
          "internalType": "address",
          "name": "",
          "type": "address"
        }
      ],
      "name": "mintedCount",
      "outputs": [
        {
          "internalType": "uint256",
          "name": "",
          "type": "uint256"
        }
      ],
      "stateMutability": "view",
      "type": "function"
    },
    {
      "inputs": [],
      "name": "name",
      "outputs": [
        {
          "internalType": "string",
          "name": "",
          "type": "string"
        }
      ],
      "stateMutability": "view",
      "type": "function"
    },
    {
      "inputs": [],
      "name": "nextAccessoryId",
      "outputs": [
        {
          "internalType": "uint256",
          "name": "",
          "type": "uint256"
        }
      ],
      "stateMutability": "view",
      "type": "function"
    },
    {
      "inputs": [
        {
          "internalType": "address",
          "name": "",
          "type": "address"
        }
      ],
      "name": "offerBalances",
      "outputs": [
        {
          "internalType": "uint256",
          "name": "",
          "type": "uint256"
        }
      ],
      "stateMutability": "view",
      "type": "function"
    },
    {
      "inputs": [
        {
          "internalType": "uint256",
          "name": "",
          "type": "uint256"
        },
        {
          "internalType": "uint256",
          "name": "",
          "type": "uint256"
        }
      ],
      "name": "offers",
      "outputs": [
        {
          "internalType": "address",
          "name": "buyer",
          "type": "address"
        },
        {
          "internalType": "uint256",
          "name": "toTokenId",
          "type": "uint256"
        },
        {
          "internalType": "uint256",
          "name": "price",
          "type": "uint256"
        },
        {
          "internalType": "bool",
          "name": "active",
          "type": "bool"
        }
      ],
      "stateMutability": "view",
      "type": "function"
    },
    {
      "inputs": [],
      "name": "owner",
      "outputs": [
        {
          "internalType": "address",
          "name": "",
          "type": "address"
        }
      ],
      "stateMutability": "view",
      "type": "function"
    },
    {
      "inputs": [
        {
          "internalType": "uint256",
          "name": "tokenId",
          "type": "uint256"
        }
      ],
      "name": "ownerOf",
      "outputs": [
        {
          "internalType": "address",
          "name": "",
          "type": "address"
        }
      ],
      "stateMutability": "view",
      "type": "function"
    },
    {
      "inputs": [
        {
          "internalType": "uint256",
          "name": "accessoryId",
          "type": "uint256"
        },
        {
          "internalType": "uint256",
          "name": "fromTokenId",
          "type": "uint256"
        },
        {
          "internalType": "uint256",
          "name": "toTokenId",
          "type": "uint256"
        }
      ],
      "name": "purchaseAccessory",
      "outputs": [],
      "stateMutability": "payable",
      "type": "function"
    },
    {
      "inputs": [
        {
          "internalType": "uint256",
          "name": "tokenId",
          "type": "uint256"
        },
        {
          "internalType": "uint256",
          "name": "accessoryId",
          "type": "uint256"
        }
      ],
      "name": "removeAccesory",
      "outputs": [],
      "stateMutability": "nonpayable",
      "type": "function"
    },
    {
      "inputs": [],
      "name": "renounceOwnership",
      "outputs": [],
      "stateMutability": "nonpayable",
      "type": "function"
    },
    {
      "inputs": [
        {
          "internalType": "address",
          "name": "from",
          "type": "address"
        },
        {
          "internalType": "address",
          "name": "to",
          "type": "address"
        },
        {
          "internalType": "uint256",
          "name": "tokenId",
          "type": "uint256"
        }
      ],
      "name": "safeTransferFrom",
      "outputs": [],
      "stateMutability": "payable",
      "type": "function"
    },
    {
      "inputs": [
        {
          "internalType": "address",
          "name": "from",
          "type": "address"
        },
        {
          "internalType": "address",
          "name": "to",
          "type": "address"
        },
        {
          "internalType": "uint256",
          "name": "tokenId",
          "type": "uint256"
        },
        {
          "internalType": "bytes",
          "name": "_data",
          "type": "bytes"
        }
      ],
      "name": "safeTransferFrom",
      "outputs": [],
      "stateMutability": "payable",
      "type": "function"
    },
    {
      "inputs": [
        {
          "internalType": "address",
          "name": "operator",
          "type": "address"
        },
        {
          "internalType": "bool",
          "name": "approved",
          "type": "bool"
        }
      ],
      "name": "setApprovalForAll",
      "outputs": [],
      "stateMutability": "nonpayable",
      "type": "function"
    },
    {
      "inputs": [
        {
          "internalType": "address",
          "name": "_beneficiaryAddress",
          "type": "address"
        }
      ],
      "name": "setBeneficiaryAddress",
      "outputs": [],
      "stateMutability": "nonpayable",
      "type": "function"
    },
    {
      "inputs": [
        {
          "internalType": "contract IPengoFactory",
          "name": "_factoryAddress",
          "type": "address"
        }
      ],
      "name": "setFactory",
      "outputs": [],
      "stateMutability": "nonpayable",
      "type": "function"
    },
    {
      "inputs": [
        {
          "internalType": "address",
          "name": "_royaltyAddress",
          "type": "address"
        }
      ],
      "name": "setRoyaltyAddress",
      "outputs": [],
      "stateMutability": "nonpayable",
      "type": "function"
    },
    {
      "inputs": [
        {
          "internalType": "uint256",
          "name": "",
          "type": "uint256"
        }
      ],
      "name": "specialTraits",
      "outputs": [
        {
          "internalType": "string",
          "name": "category",
          "type": "string"
        },
        {
          "internalType": "string",
          "name": "networth",
          "type": "string"
        }
      ],
      "stateMutability": "view",
      "type": "function"
    },
    {
      "inputs": [
        {
          "internalType": "bytes4",
          "name": "interfaceId",
          "type": "bytes4"
        }
      ],
      "name": "supportsInterface",
      "outputs": [
        {
          "internalType": "bool",
          "name": "",
          "type": "bool"
        }
      ],
      "stateMutability": "view",
      "type": "function"
    },
    {
      "inputs": [],
      "name": "symbol",
      "outputs": [
        {
          "internalType": "string",
          "name": "",
          "type": "string"
        }
      ],
      "stateMutability": "view",
      "type": "function"
    },
    {
      "inputs": [
        {
          "internalType": "uint256",
          "name": "tokenId",
          "type": "uint256"
        }
      ],
      "name": "tokenURI",
      "outputs": [
        {
          "internalType": "string",
          "name": "",
          "type": "string"
        }
      ],
      "stateMutability": "view",
      "type": "function"
    },
    {
      "inputs": [
        {
          "internalType": "address",
          "name": "owner",
          "type": "address"
        }
      ],
      "name": "tokensOfOwner",
      "outputs": [
        {
          "internalType": "uint256[]",
          "name": "",
          "type": "uint256[]"
        }
      ],
      "stateMutability": "view",
      "type": "function"
    },
    {
      "inputs": [
        {
          "internalType": "address",
          "name": "owner",
          "type": "address"
        },
        {
          "internalType": "uint256",
          "name": "start",
          "type": "uint256"
        },
        {
          "internalType": "uint256",
          "name": "stop",
          "type": "uint256"
        }
      ],
      "name": "tokensOfOwnerIn",
      "outputs": [
        {
          "internalType": "uint256[]",
          "name": "",
          "type": "uint256[]"
        }
      ],
      "stateMutability": "view",
      "type": "function"
    },
    {
      "inputs": [],
      "name": "totalOfferBalance",
      "outputs": [
        {
          "internalType": "uint256",
          "name": "",
          "type": "uint256"
        }
      ],
      "stateMutability": "view",
      "type": "function"
    },
    {
      "inputs": [],
      "name": "totalSupply",
      "outputs": [
        {
          "internalType": "uint256",
          "name": "result",
          "type": "uint256"
        }
      ],
      "stateMutability": "view",
      "type": "function"
    },
    {
      "inputs": [
        {
          "internalType": "address",
          "name": "from",
          "type": "address"
        },
        {
          "internalType": "address",
          "name": "to",
          "type": "address"
        },
        {
          "internalType": "uint256",
          "name": "tokenId",
          "type": "uint256"
        }
      ],
      "name": "transferFrom",
      "outputs": [],
      "stateMutability": "payable",
      "type": "function"
    },
    {
      "inputs": [
        {
          "internalType": "address",
          "name": "newOwner",
          "type": "address"
        }
      ],
      "name": "transferOwnership",
      "outputs": [],
      "stateMutability": "nonpayable",
      "type": "function"
    },
    {
      "inputs": [],
      "name": "withdraw",
      "outputs": [],
      "stateMutability": "nonpayable",
      "type": "function"
    }
  ],
  "bytecode": "0x608060405234610196576100116101ae565b7f50656e676f20546573746e657420536e617073686f6f74000000000000000000602082015261003f6101d1565b6450656e676f60d81b60208201528151916001600160401b038311610191576100728361006d6002546101f4565b61022c565b602090601f841160011461010b5792806100a5926100ad955f92610100575b50508160011b915f199060031b1c19161790565b6002556102cb565b5f80556100b9336103a4565b6100c36001600a55565b6100cd6001600e55565b600c80546001600160a01b03191633179055600d80546001600160a01b0319163317905560405161494490816103ed8239f35b015190505f80610091565b60025f52601f19841691907f405787fa12a823e0f2b7631cc41b3ba8828b3321ca811111fa75cd3aa3bb5ace925f5b81811061017957509160019391866100ad979410610161575b505050811b016002556102cb565b01515f1960f88460031b161c191690555f8080610153565b9293602060018192878601518155019501930161013a565b61019a565b5f80fd5b634e487b7160e01b5f52604160045260245ffd5b60408051919082016001600160401b038111838210176101915760405260178252565b60408051919082016001600160401b038111838210176101915760405260058252565b90600182811c92168015610222575b602083101461020e57565b634e487b7160e01b5f52602260045260245ffd5b91607f1691610203565b601f8111610238575050565b60025f5260205f20906020601f840160051c83019310610272575b601f0160051c01905b818110610267575050565b5f815560010161025c565b9091508190610253565b601f821161028957505050565b5f5260205f20906020601f840160051c830193106102c1575b601f0160051c01905b8181106102b6575050565b5f81556001016102ab565b90915081906102a2565b80519091906001600160401b038111610191576102f4816102ed6003546101f4565b600361027c565b602092601f821160011461032857610323929382915f926101005750508160011b915f199060031b1c19161790565b600355565b60035f52601f198216937fc2575a0e9e593c00f959f8c92f12db2869c3395a3b0502d05e2516446f71f85b915f5b86811061038c5750836001959610610374575b505050811b01600355565b01515f1960f88460031b161c191690555f8080610369565b91926020600181928685015181550194019201610356565b600980546001600160a01b039283166001600160a01b0319821681179092559091167f8be0079c531659141344cd1fd0a4f28419497f9722a3daafe3b4186f6b6457e05f80a356fe60806040526004361015610011575f80fd5b5f3560e01c806301ffc9a71461037457806306d254da1461036f57806306fdde031461036a578063081812fc14610365578063095ea7b314610360578063143759be1461035b57806318160ddd146103565780631f05db791461035157806323b872dd1461034c57806332cb6b0c1461034757806334aeb564146103425780633ccfd60b1461033d57806342842e0e146103385780634d03a9a5146103335780635b771e3f1461032e5780635bb47808146103295780635bbb2177146103245780635f34389b1461031f5780636352211e1461031a57806370a0823114610315578063715018a61461031057806378c91ed61461030b578063813cd2761461030657806382260f35146103015780638462151c146102fc5780638a78fb1e146102f75780638da5cb5b146102f257806393aba1fb146102ed57806395d89b41146102e857806399a2557a146102e3578063a079100d146102de578063a204a82f146102d9578063a22cb465146102d4578063a942cccb146102cf578063b19960e6146102ca578063b1c456ad146102c5578063b88d4fde146102c0578063c002d23d146102bb578063c23dc68f146102b6578063c45a0155146102b1578063c87b56dd146102ac578063cdcd897e146102a7578063d45557cc146102a2578063da4e18171461029d578063e0d4ea3714610298578063e210a72d14610293578063e82507051461028e578063e8a3d48514610289578063e985e9c514610284578063ec6be06e1461027f578063ed51ef411461027a578063f16f373014610275578063f2fde38b146102705763fddcb5ea1461026b575f80fd5b6128ab565b6127db565b612590565b612549565b6124e9565b612485565b61240d565b612361565b6120f0565b6120b8565b61205c565b611f25565b611f0a565b611e56565b611e2e565b611dcb565b611daa565b611d48565b611cda565b611cbe565b6119b4565b611914565b61172a565b6116ef565b611578565b6114d3565b611443565b61141b565b61139c565b6111dd565b6110b4565b610fc8565b610e0e565b610db3565b610d8c565b610d5d565b610d34565b610cc8565b610c04565b610be7565b610b80565b610b5c565b610ada565b6109d3565b61099d565b610989565b6108d6565b6106cd565b6106a5565b6105e4565b610595565b6104bb565b610429565b61038f565b6001600160e01b031981160361038b57565b5f80fd5b3461038b57602036600319011261038b576004356103ac81610379565b63ffffffff60e01b16632483248360e11b81149081156103d5575b506040519015158152602090f35b6301ffc9a760e01b811491508115610407575b81156103f6575b505f6103c7565b635b5e139f60e01b1490505f6103ef565b6380ac58cd60e01b811491506103e8565b6001600160a01b0381160361038b57565b3461038b57602036600319011261038b5760043561044681610418565b61044e613a82565b6001600160a01b03168015610474576001600160601b0360a01b600d541617600d555f80f35b63d92e233d60e01b5f5260045ffd5b805180835260209291819084018484015e5f828201840152601f01601f1916010190565b9060206104b8928181520190610483565b90565b3461038b575f36600319011261038b576040515f6002546104db816106ee565b80845290600181169081156105715750600114610513575b61050f83610503818503826107ac565b604051918291826104a7565b0390f35b60025f9081527f405787fa12a823e0f2b7631cc41b3ba8828b3321ca811111fa75cd3aa3bb5ace939250905b808210610557575090915081016020016105036104f3565b91926001816020925483858801015201910190929161053f565b60ff191660208086019190915291151560051b8401909101915061050390506104f3565b3461038b57602036600319011261038b576004356105b281613ada565b156105d5575f526006602052602060018060a01b0360405f205416604051908152f35b6333d1c03960e21b5f5260045ffd5b604036600319011261038b576004356105fc81610418565b602435906001600160a01b0361061183613b8f565b1690813303610680575b61065081610631855f52600660205260405f2090565b80546001600160a01b0319166001600160a01b03909216919091179055565b6001600160a01b0316907f8c5be1e5ebec7d5bd14f71427d1e84f3dd0314c0f7b2291e5b200ac8c7c3b9255f80a4005b5f82815260076020908152604080832033845290915290205460ff1661061b57613b19565b3461038b575f36600319011261038b57600d546040516001600160a01b039091168152602090f35b3461038b575f36600319011261038b5760205f546001549003604051908152f35b90600182811c9216801561071c575b602083101461070857565b634e487b7160e01b5f52602260045260245ffd5b91607f16916106fd565b634e487b7160e01b5f52604160045260245ffd5b61010081019081106001600160401b0382111761075657604052565b610726565b604081019081106001600160401b0382111761075657604052565b606081019081106001600160401b0382111761075657604052565b608081019081106001600160401b0382111761075657604052565b90601f801991011681019081106001600160401b0382111761075657604052565b9060405191825f8254926107e0846106ee565b808452936001811690811561084b5750600114610807575b50610805925003836107ac565b565b90505f9291925260205f20905f915b81831061082f575050906020610805928201015f6107f8565b6020919350806001915483858901015201910190918492610816565b90506020925061080594915060ff191682840152151560051b8201015f6107f8565b96939060e096936108986108b4946108a6939c9b989c8b5261010060208c01526101008b0190610483565b9089820360408b0152610483565b908782036060890152610483565b608086019790975260a08501526001600160a01b031660c08401521515910152565b3461038b57604036600319011261038b57600435602435905f52601260205260405f20905f5260205260405f2080549061050f610915600183016107cd565b91610922600282016107cd565b9361092f600383016107cd565b916004810154600660058301549201549360405197889760ff8760a01c169660018060a01b0316958961086d565b606090600319011261038b5760043561097581610418565b9060243561098281610418565b9060443590565b61099b6109953661095d565b916128e6565b005b3461038b575f36600319011261038b57602060405161c3508152f35b606090600319011261038b57600435906024359060443590565b3461038b576109e1366109b9565b610a06826109f98594955f52601260205260405f2090565b905f5260205260405f2090565b60068101805490929190336001600160a01b03821603610acb5760a01c60ff16610abc578115610aad5760048101829055825460ff60a01b1916600160a01b179092557f8b150673121b01316e8e9f04c655dcb53717f3ea8192a7606efea4685085293492610aa892610a989190610a8e90610a80610e84565b928352876020840152610ec1565b6040820152612c52565b6040519081529081906020820190565b0390a2005b634dfba02360e01b5f5260045ffd5b6328f560bb60e21b5f5260045ffd5b630ff76c1760e01b5f5260045ffd5b3461038b575f36600319011261038b57610af2613a82565b610aff4760155490612d39565b8015610b4d57600c546001600160a01b03168015610b3e575f80809381935af1610b27612d46565b5015610b2f57005b6312171d8360e31b5f5260045ffd5b631559b7d760e21b5f5260045ffd5b6353cd7f7960e01b5f5260045ffd5b61099b610b683661095d565b9060405192610b786020856107ac565b5f84526138cb565b3461038b57604036600319011261038b576004355f908152601660209081526040808320602435845282529182902080546001820154600283015460039093015485516001600160a01b039093168352938201529283015260ff1615156060820152608090f35b3461038b575f36600319011261038b576020600e54604051908152f35b3461038b57602036600319011261038b57600435610c2181610418565b610c29613a82565b6001600160a01b03168015610474576001600160601b0360a01b600b541617600b555f80f35b60206040818301928281528451809452019201905f5b818110610c725750505090565b9091926020608082610cbd600194885162ffffff6060809260018060a01b0381511685526001600160401b036020820151166020860152604081015115156040860152015116910152565b019401929101610c65565b3461038b57602036600319011261038b576004356001600160401b03811161038b573660238201121561038b578060040135906001600160401b03821161038b573660248360051b8301011161038b5761050f916024610d289201612d75565b60405191829182610c4f565b3461038b57604036600319011261038b576020610d55602435600435612db7565b604051908152f35b3461038b57602036600319011261038b5760206001600160a01b03610d83600435613b8f565b16604051908152f35b3461038b57602036600319011261038b576020610d55600435610dae81610418565b612e06565b3461038b575f36600319011261038b57610dcb613a82565b600980546001600160a01b031981169091555f906001600160a01b03167f8be0079c531659141344cd1fd0a4f28419497f9722a3daafe3b4186f6b6457e08280a3005b3461038b575f36600319011261038b57600c546040516001600160a01b039091168152602090f35b634e487b7160e01b5f52603260045260245ffd5b601854811015610e665760185f52600960205f20910201905f90565b610e36565b8054821015610e66575f52600960205f20910201905f90565b604051906108056060836107ac565b604051906108056040836107ac565b60405190610805610100836107ac565b604051906108056080836107ac565b90610805604051610ed18161073a565b60e0610f3f6006839680548552610eea600182016107cd565b6020860152610efb600282016107cd565b6040860152610f0c600382016107cd565b606086015260048101546080860152600581015460a086015201546001600160a01b03811660c085015260a01c60ff1690565b1515910152565b906104b8908251815260e080610f97610f85610f7360208801516101006020880152610100870190610483565b60408801518682036040880152610483565b60608701518582036060870152610483565b6080808701519085015260a0808701519085015260c0808701516001600160a01b0316908501529401511515910152565b3461038b57602036600319011261038b5760043560185481101561038b57610fef90610e4a565b50805461050f611006600260018501549401610ec1565b60405193849384526020840152606060408401526060830190610f46565b92919060408401936040815281518095526060810194602060608260051b8401019301905f965b818810611089575050506104b8939450602081830391015260206110788351604084526040840190610483565b920151906020818403910152610483565b9091936020806110a5600193605f198882030186528851610f46565b9601920197019691909161104b565b3461038b57602036600319011261038b57600435606060206040516110d88161075b565b8281520152805f52601360205260405f2054906110f482612e53565b915f5b8181106111295783611119611114855f52601160205260405f2090565b612ee8565b9061050f60405192839283611024565b60019061117d611178611144865f52601260205260405f2090565b61116c6111628561115d8a5f52601360205260405f2090565b612534565b90549060031b1c90565b5f5260205260405f2090565b610ec1565b6111878287612ed4565b526111928186612ed4565b50016110f7565b90602080835192838152019201905f5b8181106111b65750505090565b82518452602093840193909201916001016111a9565b9060206104b8928181520190611199565b3461038b57602036600319011261038b576004356111fa81610418565b5f546060908015908115611217575b6040518061050f85826111cc565b80929192935f9160609461136a575f5480911015611362575b5061123a81612e06565b92851561135a575b83611258575b5050505061050f91505f80611209565b909192809450851115611352575b604051916001850160051b830194856040526112815f613930565b905f916112986112946040830151151590565b1590565b611340575b505f9791959160015b15611311575b5f966112b78461440a565b6040810151156112d657505060015f935b0196886040529692966112a6565b9390935180611309575b50848418861b156112f4575b6001906112c8565b6001909901600581901b87018a9052986112ec565b93505f6112e0565b8083148015611337575b156112ac57505050505091505061050f9181525f808080611248565b5081891461131b565b516001600160a01b031691505f61129d565b849350611266565b5f9350611242565b94505f611230565b613b63565b9181601f8401121561038b578235916001600160401b03831161038b576020838186019501011161038b57565b3461038b57608036600319011261038b576004356024356001600160401b03811161038b576113cf90369060040161136f565b916044356001600160401b03811161038b576113ef90369060040161136f565b90606435946001600160401b03861161038b5761141361099b96369060040161136f565b95909461323b565b3461038b575f36600319011261038b576009546040516001600160a01b039091168152602090f35b3461038b57604036600319011261038b5760043560243590805f52601260205260405f20825f5260205260405f2060018060a01b036006820154163303610acb576114bd602061099b946114a661149f60016114ce96016107cd565b918661401b565b845f526014825260405f2060405193848093613740565b90815203019020805460ff19169055565b613e11565b3461038b575f36600319011261038b576040515f6003546114f3816106ee565b8084529060018116908115610571575060011461151a5761050f83610503818503826107ac565b60035f9081527fc2575a0e9e593c00f959f8c92f12db2869c3395a3b0502d05e2516446f71f85b939250905b80821061155e575090915081016020016105036104f3565b919260018160209254838588010152019101909291611546565b3461038b57606036600319011261038b5760043561159581610418565b60243560443590819281906060938084101561136a575f54809110156116e7575b506115c081612e06565b90858410156116df575b816115de575b6040518061050f87826111cc565b9091928094508503828111156116d7575b506040519161160a6001820160051b84019586604052613930565b905f9161161d6112946040830151151590565b6116c5575b505f9691949160015b15611697575b5f9561163c8461440a565b60408101511561165b57505060015f935b01958760405295929561162b565b939093518061168f575b5084841860601b1561167a575b60019061164d565b6001909801600581901b860189905297611672565b93505f611665565b80831480156116bc575b15611631575050505091505061050f9181525f8080806115d0565b508188146116a1565b516001600160a01b031691505f611622565b91505f6115ef565b5f91506115ca565b94505f6115b6565b3461038b57602036600319011261038b5760043561170c81610418565b60018060a01b03165f526017602052602060405f2054604051908152f35b602036600319011261038b57600435611741614116565b80156118fb5761c3506117608261175b5f54600154900390565b61305f565b116118ec5761176e81612f7e565b34106118dd57335f90815260106020526040902054906101f4611791828461305f565b116118ce57805f54926117a38261416c565b6117ad82336141de565b335f908152601060205260409020910190556117c881613094565b915f5b82811061184f575050600c546001600160a01b0316908115610b3e576117f090612f7e565b90813403611829575b5f80809381935af1611809612d46565b5015610b2f5761050f9061181d6001600a55565b604051918291826111cc565b5f808080853403335af161183b612d46565b506117f9576312171d8360e31b5f5260045ffd5b807ff8e1a15aba9398e019f0b49df1a4fde98ee17ae345cb5f6b5e2c27f5033e8ce76118c56118806001948661305f565b8061188b858a612ed4565b52610a98611897610e93565b61189f61376f565b81526118a9613796565b60208201526118c0835f52601160205260405f2090565b6137b9565b0390a1016117cb565b634c2bc38160e01b5f5260045ffd5b63cd1c886760e01b5f5260045ffd5b6352df9fe560e01b5f5260045ffd5b630856e64360e21b5f5260045ffd5b8015150361038b57565b3461038b57604036600319011261038b5760043561193181610418565b6024359061193e8261190a565b335f526007602052611978826119678360405f209060018060a01b03165f5260205260405f2090565b9060ff801983541691151516179055565b60405191151582526001600160a01b03169033907f17307eab39ab6107e8899845ad3d59bd9653f200f220920489ca2b5937696c3190602090a3005b6119bd366109b9565b916119c6614116565b6119e16119d56119d585613b8f565b6001600160a01b031690565b336001600160a01b0390911603611caf57611a08816109f9845f52601260205260405f2090565b600681015460ff60a082901c1615611ca0576004820154918215610aad578234106118dd57611a39600182016107cd565b91611a5f611a58611a52895f52601460205260405f2090565b85613752565b5460ff1690565b611c91576001600160a01b031690611a856003611a7e600284016107cd565b92016107cd565b86848988611a9c611a958a612fa0565b6064900490565b95611aa7878b612d39565b600d549091908b906001600160a01b031680611c6857506009546001600160a01b0316975f97611b63611b778a99611b718b9a611b638c9b611b4c611b949b611b8a9b611b849b5b611af7610ea2565b92858452896020850152604084015260608301528f608083015260a0820152611b2b3360c083019060018060a01b03169052565b8e60e0820152611b47836109f9875f52601260205260405f2090565b612bb4565b611b5e835f52601360205260405f2090565b6131e3565b5f52601460205260405f2090565b90613752565b805460ff19166001179055565b8b613752565b805460ff19169055565b611b9e8b8d61401b565b611ba78d613e11565b611bb08c613e11565b6001600160a01b0388165af1611bc4612d46565b5015610b2f5781611c40575b5050823403611c1a575b611c0d7fd41dbe053a12b0e9617e572dccd16aaf1bc0f94ad99781008b928fe29c5f7c3993604051938493339185613897565b0390a461099b6001600a55565b5f808080863403335af1611c2c612d46565b50611bda576312171d8360e31b5f5260045ffd5b5f918291829182916001600160a01b03165af1611c5b612d46565b5015610b2f575f80611bd0565b975f97611b63611b778a99611b718b9a611b638c9b611b4c611b949b611b8a9b611b849b611aef565b63fa256cb360e01b5f5260045ffd5b631d99ddbf60e01b5f5260045ffd5b6359dc379f60e01b5f5260045ffd5b3461038b575f36600319011261038b5760206040516101f48152f35b3461038b575f36600319011261038b576020601554604051908152f35b6001600160401b03811161075657601f01601f191660200190565b929192611d1e82611cf7565b91611d2c60405193846107ac565b82948184528183011161038b578281602093845f960137010152565b608036600319011261038b57600435611d6081610418565b60243590611d6d82610418565b604435606435926001600160401b03841161038b573660238501121561038b57611da461099b943690602481600401359101611d12565b926138cb565b3461038b575f36600319011261038b57602060405166b1a2bc2ec500008152f35b3461038b57602036600319011261038b576080611de9600435613930565b611e2c604051809262ffffff6060809260018060a01b0381511685526001600160401b036020820151166020860152604081015115156040860152015116910152565bf35b3461038b575f36600319011261038b57600b546040516001600160a01b039091168152602090f35b3461038b57602036600319011261038b57600435611e7381613ada565b15611efb57600b545f828152600f60205260408082205490516392cb829d60e01b81526004810194909452602484015290829060449082906001600160a01b03165afa8015611ef65761050f915f91611ed4575b50604051918291826104a7565b611ef091503d805f833e611ee881836107ac565b81019061310f565b5f611ec7565b612f5a565b63677510db60e11b5f5260045ffd5b3461038b575f36600319011261038b57602060405160058152f35b3461038b57604036600319011261038b57600435602435611f44614116565b611f5a826109f9835f52601660205260405f2090565b91611f6c611294600385015460ff1690565b61204d578254336001600160a01b039091160361203e576001600284015493015492611fbe611fa7836109f9865f52601660205260405f2090565b60035f918281558260018201558260028201550155565b335f908152601760205260409020611fd7828254612d39565b9055611fed611fe882601554612d39565b601555565b5f80808084335af1611ffd612d46565b5015610b2f576040805133815260208101929092527f12867efde6a16e6f5c9ade6f54557dc3aa2017a6716b589059eceb542d47917d919081908101611c0d565b6332a0bb6960e01b5f5260045ffd5b6305995b5360e41b5f5260045ffd5b3461038b57602036600319011261038b576004355f5260116020526120aa60405f2061050f612096600161208f846107cd565b93016107cd565b604051938493604085526040850190610483565b908382036020850152610483565b3461038b57602036600319011261038b576004356120d581613ada565b15611efb575f52600f602052602060405f2054604051908152f35b6120f9366109b9565b91612102614116565b3415610aad576121176119d56119d585613b8f565b336001600160a01b0390911603611caf5761213e816109f9845f52601260205260405f2090565b60068101543390612157906001600160a01b03166119d5565b146122d857611a5861217e916001612177875f52601460205260405f2090565b910161396b565b611c9157612198816109f9845f52601660205260405f2090565b600381015460ff1680806122ca575b6122bb57612255575b506121f36121bc610eb2565b3381528460208201523460408201526121d86060820160019052565b6121ee836109f9865f52601660205260405f2090565b6139f0565b335f90815260176020526040902061220c34825461305f565b905561221d611fe83460155461305f565b604080513381523460208201527f4b011cd95fe592ba0d71bdb34e58553f73ca97ab2d8789c2dc4b6c8b8714148c9181908101611c0d565b80546002909101546001600160a01b039091165f818152601760205260408120805491938493849384939061228b908490612d39565b905561229c611fe883601554612d39565b6001600160a01b03165af16122af612d46565b5015610b2f575f6121b0565b6372351e5360e01b5f5260045ffd5b5060028201543411156121a7565b630f5cd12360e31b5f5260045ffd5b602081016020825282518091526040820191602060408360051b8301019401925f915b83831061231957505050505090565b9091929394602080612352600193603f19868203018752606060408b518051845285810151868501520151918160408201520190610f46565b9701930193019193929061230a565b3461038b575f36600319011261038b5760185461237d81612e3c565b9061238b60405192836107ac565b8082526020820160185f527fb13d2d76d1f4b7be834882e410b3e3a8afaf69f83600ae24db354391d2378d2e5f915b8383106123cf576040518061050f87826122e7565b600960206001926040516123e281610776565b8554815284860154838201526123fa60028701610ec1565b60408201528152019201920191906123ba565b3461038b575f36600319011261038b57600b54604051600162f4a24960e01b03198152905f90829060049082906001600160a01b03165afa8015611ef65761050f915f9161246b575b50604051918291602083526020830190610483565b61247f91503d805f833e611ee881836107ac565b5f612456565b3461038b57604036600319011261038b57602060ff6124dd6004356124a981610418565b602435906124b682610418565b60018060a01b03165f526007845260405f209060018060a01b03165f5260205260405f2090565b54166040519015158152f35b3461038b57602036600319011261038b5760043561250681610418565b61250e613a82565b6001600160a01b03168015610474576001600160601b0360a01b600c541617600c555f80f35b8054821015610e66575f5260205f2001905f90565b3461038b57604036600319011261038b57600435602435905f52601360205260405f20805482101561038b5760209161258191612534565b90549060031b1c604051908152f35b3461038b57604036600319011261038b576024356004356125af614116565b6125cd6125c8836109f9845f52601660205260405f2090565b613a42565b916125de6112946060850151151590565b61204d576125f8816109f9845f52601260205260405f2090565b6006810154336001600160a01b0390911603610acb576040840151602085015194519091906001600160a01b031690612633600182016107cd565b906126456003611a7e600284016107cd565b906126556119d56119d58a613b8f565b6001600160a01b03858116911603611caf5761267f611a58611a528a5f52601460205260405f2090565b611c915761272a916126a0611fa7886109f98b5f52601660205260405f2090565b6001600160a01b0385165f9081526017602052604090206126c2878254612d39565b90556126d3611fe887601554612d39565b6126db610ea2565b87815260208101859052604081019290925260608201525f608082015260a081018590526001600160a01b03841660c08201525f60e0820152611b47866109f98a5f52601260205260405f2090565b61274084611b5e885f52601360205260405f2090565b61275e611b77612758885f52601460205260405f2090565b83613752565b612776611b8a612758875f52601460205260405f2090565b612780848661401b565b61278986613e11565b61279285613e11565b5f80808086335af16127a2612d46565b5015610b2f57611c0d7fd41dbe053a12b0e9617e572dccd16aaf1bc0f94ad99781008b928fe29c5f7c3993604051938493339085613897565b3461038b57602036600319011261038b576004356127f881610418565b612800613a82565b6001600160a01b0381161561285757600980546001600160a01b039283166001600160a01b0319821681179092559091167f8be0079c531659141344cd1fd0a4f28419497f9722a3daafe3b4186f6b6457e05f80a3005b60405162461bcd60e51b815260206004820152602660248201527f4f776e61626c653a206e6577206f776e657220697320746865207a65726f206160448201526564647265737360d01b6064820152608490fd5b3461038b57602036600319011261038b576004356128c881610418565b60018060a01b03165f526010602052602060405f2054604051908152f35b91906128f182613b8f565b6001600160a01b03938416938116849003612a78575f838152600660205260409020805461292e6001600160a01b03871633908114908314171590565b612a35575b612a2c575b506001600160a01b0384165f90815260056020526040902080545f190190556001600160a01b0382165f908152600560205260409020805460010190556001600160a01b0382164260a01b17600160e11b1761299c845f52600460205260405f2090565b55600160e11b8116156129e7575b506001600160a01b03169182907fddf252ad1be2c89b69c2b068fc378daa952ba7f163c4a11628f55a4df523b3ef5f80a4156129e257565b613b45565b600183016129fd815f52600460205260405f2090565b5415612a0a575b506129aa565b5f548114612a0457612a24905f52600460205260405f2090565b555f80612a04565b5f90555f612938565b612a6e611294611a5833612a598a60018060a01b03165f52600760205260405f2090565b9060018060a01b03165f5260205260405f2090565b1561293357613b36565b613b28565b634e487b7160e01b5f525f60045260245ffd5b818110612a9b575050565b5f8155600101612a90565b9190601f8111612ab557505050565b610805925f5260205f20906020601f840160051c83019310612adf575b601f0160051c0190612a90565b9091508190612ad2565b91909182516001600160401b03811161075657612b1081612b0a84546106ee565b84612aa6565b6020601f8211600114612b4f578190612b409394955f92612b44575b50508160011b915f199060031b1c19161790565b9055565b015190505f80612b2c565b601f19821690612b62845f5260205f2090565b915f5b818110612b9c57509583600195969710612b84575b505050811b019055565b01515f1960f88460031b161c191690555f8080612b7a565b9192602060018192868b015181550194019201612b65565b90612c3860e060066108059484518155612bd5602086015160018301612ae9565b612be6604086015160028301612ae9565b612bf7606086015160038301612ae9565b6080850151600482015560a0850151600582015560c0850151910180546001600160a01b0319166001600160a01b03909216919091178155925b0151151590565b815460ff60a01b191690151560a01b60ff60a01b16179055565b601854600160401b81101561075657806001612c7392016018556018610e6b565b612d0d57612c3860e06008604085610805965186556020810151600187015501519384516002820155612cad602086015160038301612ae9565b612cbe604086015160048301612ae9565b612ccf606086015160058301612ae9565b6080850151600682015560a0850151600782015560c0850151910180546001600160a01b0319166001600160a01b0390921691909117815592612c31565b612a7d565b634e487b7160e01b5f52601160045260245ffd5b5f19810191908211612d3457565b612d12565b91908203918211612d3457565b3d15612d70573d90612d5782611cf7565b91612d6560405193846107ac565b82523d5f602084013e565b606090565b6040519180835260051b906020828401016040525b81828015612db057601f1990810193612da7919084010135613930565b90840152612d8a565b5050505090565b601854915f5b838110612dca5750505090565b82612dd482610e4a565b50541480612df0575b612de957600101612dbd565b9250505090565b50816001612dfd83610e4a565b50015414612ddd565b6001600160a01b03168015612e2d575f5260056020526001600160401b0360405f20541690565b6323d3ad8160e21b5f5260045ffd5b6001600160401b0381116107565760051b60200190565b90612e5d82612e3c565b612e6a60405191826107ac565b8281528092612e7b601f1991612e3c565b01905f5b828110612e8b57505050565b602090604051612e9a8161073a565b5f8152606083820152606060408201526060808201525f60808201525f60a08201525f60c08201525f60e082015282828501015201612e7f565b8051821015610e665760209160051b010190565b90604051612ef58161075b565b6020612f0f60018395612f07816107cd565b8552016107cd565b910152565b9081602091031261038b57516104b88161190a565b908060209392818452848401375f828201840152601f01601f1916010190565b9160206104b8938181520191612f29565b6040513d5f823e3d90fd5b6020919283604051948593843782019081520301902090565b9066b1a2bc2ec5000082029180830466b1a2bc2ec500001490151715612d3457565b90600582029180830460051490151715612d3457565b90600782029180830460071490151715612d3457565b908160021b9180830460041490151715612d3457565b600181901b91906001600160ff1b03811603612d3457565b908151811015610e66570160200190565b9060018201809211612d3457565b9060028201809211612d3457565b9060038201809211612d3457565b9060048201809211612d3457565b9060058201809211612d3457565b9060068201809211612d3457565b91908201809211612d3457565b92949360ff6130878193604095606088526060880191612f29565b9616602085015216910152565b9061309e82612e3c565b6130ab60405191826107ac565b82815280926130bc601f1991612e3c565b0190602036910137565b906130d082612e3c565b6130dd60405191826107ac565b82815280926130ee601f1991612e3c565b01905f5b8281106130fe57505050565b8060606020809385010152016130f2565b60208183031261038b578051906001600160401b03821161038b570181601f8201121561038b5780519061314282611cf7565b9261315060405194856107ac565b8284526020838301011161038b57815f9260208093018386015e8301015290565b9061318490604083526040830190611199565b906020818303910152815180825260208201916020808360051b8301019401925f915b8383106131b657505050505090565b90919293946020806131d4600193601f198682030187528951610483565b970193019301919392906131a7565b90815491600160401b831015610756578261320691600161080595018155612534565b90919082549060031b91821b915f19901b1916179055565b93929160209161323691604087526040870191612f29565b930152565b9590929193946132506119d56119d589613b8f565b336001600160a01b0390911603611caf57600b54613276906001600160a01b03166119d5565b9160405163c36a2bff60e01b8152602081806132968a8a60048401612f49565b0381875afa908115611ef6575f91613721575b5015613712576132ce611a586132c78a5f52601460205260405f2090565b8888612f65565b611c91576132e6916132e1913691611d12565b613c50565b9081518015908115613704575b5061365d578151600790045f905f5b81811061366c5750811561365d5761332a61332461331f84612fcc565b613094565b926130c6565b935f5f5b8381106134725750505050915f9161335d94936040518096819482936372565e2360e01b845260048401613171565b03915afa918215611ef6577f52e15ab134f84fe4816b97c4a3d135945e2725295c41f26f23d1180e44bb51009561345393613409925f91613458575b506133d0600e54946133ad60018701600e55565b6133b5610ea2565b938685526133c4368b8b611d12565b60208601523691611d12565b604083015260608201525f6080820181905260a08201523360c08201525f60e0820152611b47836109f98a5f52601260205260405f2090565b61341f81611b5e885f52601360205260405f2090565b61343e611b77613437885f52601460205260405f2090565b8686612f65565b61344786613e11565b6040519384938461321e565b0390a2565b61346c91503d805f833e611ee881836107ac565b5f613399565b61347b81612fb6565b60208a8c6134a361349d61348f868a612ffa565b516001600160f81b03191690565b60f81c90565b9283916134be61349d61348f6134b88961300b565b8c612ffa565b936134de856040519586948594633eeb0b2560e21b86526004860161306c565b03818d5afa908115611ef6575f9161362f575b50613502575b50505060010161332e565b91849160ff6001959694816135178897612fcc565b9316613523848d612ed4565b52166135376135318361300b565b8b612ed4565b5261355961355361349d61348f61354d86613019565b8b612ffa565b60ff1690565b61356561353183613019565b5261359361358d61358761355361349d61348f61358188613027565b8d612ffa565b92613027565b8a612ed4565b5261360f6135ac61348f6135a684613035565b89612ffa565b6136016135d461348f61354d6135ce61348f8d6135c88a613043565b90612ffa565b96613051565b6040516001600160f81b031993841660208201529483166021860152909116602284015282906023820190565b03601f1981018352826107ac565b613619828b612ed4565b52613624818a612ed4565b500191905f806134f7565b613650915060203d8111613656575b61364881836107ac565b810190612f14565b5f6134f1565b503d61363e565b633907cf2960e01b5f5260045ffd5b84602089896136ba61369f61349d61348f61358161369961349d61348f6136928d612fb6565b809c612ffa565b9861300b565b604051633eeb0b2560e21b815295869485946004860161306c565b0381885afa908115611ef6575f916136e6575b506136db575b600101613302565b6001909201916136d3565b6136fe915060203d81116136565761364881836107ac565b5f6136cd565b60079006905015155f6132f3565b636172ef9960e01b5f5260045ffd5b61373a915060203d6020116136565761364881836107ac565b5f6132a9565b805191908290602001825e015f815290565b6020906137659260405193848093613740565b9081520301902090565b6040519061377e6040836107ac565b60098252686c696c2070656e676f60b81b6020830152565b604051906137a56040836107ac565b6005825264181026a7a760d91b6020830152565b91909182519283516001600160401b038111610756576137e3816137dd85546106ee565b85612aa6565b6020601f8211600114613826579161381a8260209360019561080598995f92612b445750508160011b915f199060031b1c19161790565b84555b01519101612ae9565b601f19821695613839855f5260205f2090565b965f5b81811061387f57509261080596976001959386938360209710613867575b505050811b01845561381d565b01515f1960f88460031b161c191690555f808061385a565b8383015189556001909801976020938401930161383c565b90926138b0606093969594608084526080840190610483565b6001600160a01b039687166020840152951660408201520152565b9291906138d98282866128e6565b803b6138e6575b50505050565b6138ef936143e2565b156138fd575f8080806138e0565b6368d2bf6b60e11b5f5260045ffd5b6040519061391982610791565b5f6060838281528260208201528260408201520152565b9061393961390c565b915f5481106139455750565b9091505b805f52600460205260405f2054613962575f1901613949565b6104b89061440a565b9060405180925f9080549061397f826106ee565b91600181169081156139d857506001146139a2575b505060209281520301902090565b9091505f5260205f205f905b8282106139c1575050810160205f613994565b8054828701528593506020909101906001016139ae565b60ff191685525050801515028201905060205f613994565b815181546001600160a01b0319166001600160a01b03919091161781556108059160039060609060208101516001850155604081015160028501550151151591019060ff801983541691151516179055565b90604051613a4f81610791565b82546001600160a01b03168152600183015460208201526002830154604082015260039092015460ff1615156060830152565b6009546001600160a01b03163303613a9657565b606460405162461bcd60e51b815260206004820152602060248201527f4f776e61626c653a2063616c6c6572206973206e6f7420746865206f776e65726044820152fd5b905f915f548110613ae85750565b9091505b805f52600460205260405f205480613b0d57508015612d34575f1901613aec565b600160e01b1615919050565b6367d9dca160e11b5f5260045ffd5b62a1148160e81b5f5260045ffd5b632ce44b5f60e11b5f5260045ffd5b633a954ecd60e21b5f5260045ffd5b636f96cda160e11b5f5260045ffd5b631960ccad60e11b5f5260045ffd5b63b562e8dd60e01b5f5260045ffd5b622e076360e81b5f5260045ffd5b613ba1815f52600460205260405f2090565b54908115613bb85750600160e01b8116613b545790565b90505f54811015613b54575b5f19015f81815260046020526040902054908115613bf85750600160e01b8116156104b857636f96cda160e11b5f5260045ffd5b9050613bc4565b90613c0982611cf7565b613c1660405191826107ac565b82815280926130bc601f1991611cf7565b60041b90610ff060f0831692168203612d3457565b9060ff8091169116019060ff8211612d3457565b90815160018116613ce35760011c613c6781613bff565b905f5b818110613c78575090925050565b80613cd0613cc0613ca0613c9b613c9661348f6134b8600198612fe2565b61449b565b613c27565b613cba613c9661348f6134b8613cb588612fe2565b61300b565b90613c3c565b60f81b6001600160f81b03191690565b5f1a613cdc8286612ffa565b5301613c6a565b60405162461bcd60e51b815260206004820152601960248201527f496e76616c69642068657820737472696e67206c656e677468000000000000006044820152606490fd5b60405190613d376040836107ac565b60128252716675636b696e6720726963682070656e676f60701b6020830152565b60405190613d676040836107ac565b601182527070656e676f2062696c6c696f6e6169726560781b6020830152565b60405190613d966040836107ac565b601182527070656e676f206d696c6c696f6e6169726560781b6020830152565b60405190613dc56040836107ac565b600a82526970656e676f2061726d7960b01b6020830152565b906108056004613df8936040519485916020830190613740565b631026a7a760e11b815203601b198101855201836107ac565b5f81815260136020526040812080545f915b818310613f03575050507ff8e1a15aba9398e019f0b49df1a4fde98ee17ae345cb5f6b5e2c27f5033e8ce791610a98613e67613eab93670de0b6b3a7640000900490565b6001811015613eb057613e89613e84613e7e61376f565b92614544565b613dde565b613e91610e93565b91825260208201526118c0835f52601160205260405f2090565b0390a1565b6002811015613ec757613e89613e84613e7e613db6565b6005811015613ede57613e89613e84613e7e613d87565b600a811015613ef557613e89613e84613e7e613d58565b613e89613e84613e7e613d28565b909192613f386001916005613f30613f23895f52601260205260405f2090565b61116c6111628a89612534565b01549061305f565b93019190613e23565b613f4b81546106ee565b9081613f55575050565b81601f5f9311600114613f66575055565b81835260208320613f8291601f0160051c810190600101612a90565b808252602082209081548360011b9084198560031b1c191617905555565b60065f91828155613fb360018201613f41565b613fbf60028201613f41565b613fcb60038201613f41565b8260048201558260058201550155565b634e487b7160e01b5f52603160045260245ffd5b80548015614016575f1901906140058282612534565b8154905f199060031b1b1916905555565b613fdb565b61402d815f52601260205260405f2090565b825f52602052614048600660405f20015460ff9060a01c1690565b614107575b61406b614066836109f9845f52601260205260405f2090565b613fa0565b61407d815f52601360205260405f2090565b918254925f5b8481106140b6575b50509091507ff7499acb9d9f4141eb50430bdef419d2ecc52d1b220932562fd11ab43f21bc1b5f80a3565b826140c46111628385612534565b146140d157600101614083565b6140f9906132066140f26111626140ec6140fe979899612d26565b86612534565b9184612534565b613fef565b81905f8061408b565b614111828261488a565b61404d565b6002600a5414614127576002600a55565b60405162461bcd60e51b815260206004820152601f60248201527f5265656e7472616e637947756172643a207265656e7472616e742063616c6c006044820152606490fd5b5f545f903360601b903060601b905b848410614189575050505050565b600180916040516020810190448252426040820152866060820152826074820152856094820152608881526141bf60a8826107ac565b5190206141d4825f52600f60205260405f2090565b550193019261417b565b91604051906141ee6020836107ac565b5f82525f549183156142f8576001600160a01b0385164260a01b6001861460e11b1717614223845f52600460205260405f2090565b556001600160a01b0385165f81815260056020526040902080546801000000000000000187020190559384156142f357808401939560015b1561428e575b5f87875f7fddf252ad1be2c89b69c2b068fc378daa952ba7f163c4a11628f55a4df523b3ef8180a461425b565b956001019584870361426157929550929093505f55803b6142ae57505050565b9091925f549283039260015b156142de575b5f6142d361129487600188019787614343565b156142ba575b6138fd565b8084106142c05792509250505f540361038b57565b613b81565b613b72565b9081602091031261038b57516104b881610379565b6001600160a01b0391821681529116602082015260408101919091526080606082018190526104b892910190610483565b9161436a926020925f604051809681958294630a85bd0160e11b8452843360048601614312565b03926001600160a01b03165af15f91816143b1575b5061439b5761438c612d46565b8051156142d957805190602001fd5b6001600160e01b031916630a85bd0160e11b1490565b6143d491925060203d6020116143db575b6143cc81836107ac565b8101906142fd565b905f61437f565b503d6143c2565b906020925f61436a959360405196879586948593630a85bd0160e11b85523360048601614312565b61441261390c565b505f52600460205260405f205461442761390c565b6001600160a01b038216815260a082901c6001600160401b03166020820152600160e01b82161515604082015260e89190911c606082015290565b60ff602f199116019060ff8211612d3457565b60ff6036199116019060ff8211612d3457565b60ff6056199116019060ff8211612d3457565b60f81c603081101580614539575b61453057604181101580614525575b61451c57606181101580614511575b6145085760405162461bcd60e51b815260206004820152601560248201527424b73b30b634b2103432bc1031b430b930b1ba32b960591b6044820152606490fd5b6104b890614488565b5060668111156144c7565b6104b890614475565b5060468111156144b8565b6104b890614462565b5060398111156144a9565b805f9172184f03e93ff9f4daa797ed6e38ed64bf6a1f0160401b821015614677575b806d04ee2d6d415b85acef8100000000600a92101561465b575b662386f26fc10000811015614646575b6305f5e100811015614634575b612710811015614624575b6064811015614615575b101561460a575b6145f560216145ca60018501613bff565b938401015b5f1901916f181899199a1a9b1b9c1cb0b131b232b360811b600a82061a8353600a900490565b8015614605576145f590916145cf565b505090565b6001909101906145b9565b600290606490049301926145b2565b60049061271090049301926145a8565b6008906305f5e100900493019261459d565b601090662386f26fc100009004930192614590565b6020906d04ee2d6d415b85acef81000000009004930192614580565b506040915072184f03e93ff9f4daa797ed6e38ed64bf6a1f0160401b8104614566565b919091828114614775576146ae83546106ee565b6001600160401b038111610756576146ca81612b0a84546106ee565b5f93601f821160011461470457612b4092939482915f926146f95750508160011b915f199060031b1c19161790565b015490505f80612b2c565b614716601f198316915f5260205f2090565b94614724845f5260205f2090565b915f5b81811061475d5750958360019596971061474557505050811b019055565b01545f1960f88460031b161c191690555f8080612b7a565b9192600180602092868b015481550194019201614727565b509050565b9190612d0d5780820361478b575050565b8054825560018101546001830155600282019160028201928381036147b05750505050565b600860ff92819261484c965490556147ce600386016003830161469a565b6147de600486016004830161469a565b6147ee600586016005830161469a565b60068581015490820155600780860154908201559190930180549390910180546001600160a01b0319166001600160a01b039490941693909317835554825460ff60a01b191660a091821c929092161515901b60ff60a01b16179055565b5f8080806138e0565b6018548015614016575f190161486c816018610e6b565b612d0d576002815f61488593555f600182015501613fa0565b601855565b906148958183612db7565b91601854831015611ca0575f90815260126020908152604080832093835292905290812060068101805460ff60a01b19169055600401556018546148d890612d26565b908181036148eb575b5050610805614855565b6149016148fa61490793610e4a565b5091610e4a565b9061477a565b5f806148e156fea2646970667358221220260b3c6e2bf66160675c888c8a77c700a4c52072185fa00d5ec648e4b4740f2464736f6c634300081b0033",
  "linkReferences": {},
  "deployedLinkReferences": {}
}