{
  "_format": "hh-sol-artifact-1",
  "contractName": "PengoToken",
  "sourceName": "contracts/ERC20/PengoToken.sol",
  "abi": [
    {
      "inputs": [
        {
          "internalType": "uint256",
          "name": "initialSupply",
          "type": "uint256"
        }
      ],
      "stateMutability": "nonpayable",
      "type": "constructor"
    },
    {
      "anonymous": false,
      "inputs": [
        {
          "indexed": true,
          "internalType": "address",
          "name": "owner",
          "type": "address"
        },
        {
          "indexed": true,
          "internalType": "address",
          "name": "spender",
          "type": "address"
        },
        {
          "indexed": false,
          "internalType": "uint256",
          "name": "value",
          "type": "uint256"
        }
      ],
      "name": "Approval",
      "type": "event"
    },
    {
      "anonymous": false,
      "inputs": [
        {
          "indexed": true,
          "internalType": "address",
          "name": "previousOwner",
          "type": "address"
        },
        {
          "indexed": true,
          "internalType": "address",
          "name": "newOwner",
          "type": "address"
        }
      ],
      "name": "OwnershipTransferred",
      "type": "event"
    },
    {
      "anonymous": false,
      "inputs": [
        {
          "indexed": true,
          "internalType": "address",
          "name": "from",
          "type": "address"
        },
        {
          "indexed": true,
          "internalType": "address",
          "name": "to",
          "type": "address"
        },
        {
          "indexed": false,
          "internalType": "uint256",
          "name": "value",
          "type": "uint256"
        }
      ],
      "name": "Transfer",
      "type": "event"
    },
    {
      "inputs": [
        {
          "internalType": "address",
          "name": "owner",
          "type": "address"
        },
        {
          "internalType": "address",
          "name": "spender",
          "type": "address"
        }
      ],
      "name": "allowance",
      "outputs": [
        {
          "internalType": "uint256",
          "name": "",
          "type": "uint256"
        }
      ],
      "stateMutability": "view",
      "type": "function"
    },
    {
      "inputs": [
        {
          "internalType": "address",
          "name": "spender",
          "type": "address"
        },
        {
          "internalType": "uint256",
          "name": "amount",
          "type": "uint256"
        }
      ],
      "name": "approve",
      "outputs": [
        {
          "internalType": "bool",
          "name": "",
          "type": "bool"
        }
      ],
      "stateMutability": "nonpayable",
      "type": "function"
    },
    {
      "inputs": [
        {
          "internalType": "address",
          "name": "account",
          "type": "address"
        }
      ],
      "name": "balanceOf",
      "outputs": [
        {
          "internalType": "uint256",
          "name": "",
          "type": "uint256"
        }
      ],
      "stateMutability": "view",
      "type": "function"
    },
    {
      "inputs": [
        {
          "internalType": "uint256",
          "name": "tokenId",
          "type": "uint256"
        },
        {
          "internalType": "uint256",
          "name": "amount",
          "type": "uint256"
        }
      ],
      "name": "burnForPower",
      "outputs": [],
      "stateMutability": "nonpayable",
      "type": "function"
    },
    {
      "inputs": [],
      "name": "decimals",
      "outputs": [
        {
          "internalType": "uint8",
          "name": "",
          "type": "uint8"
        }
      ],
      "stateMutability": "view",
      "type": "function"
    },
    {
      "inputs": [
        {
          "internalType": "address",
          "name": "spender",
          "type": "address"
        },
        {
          "internalType": "uint256",
          "name": "subtractedValue",
          "type": "uint256"
        }
      ],
      "name": "decreaseAllowance",
      "outputs": [
        {
          "internalType": "bool",
          "name": "",
          "type": "bool"
        }
      ],
      "stateMutability": "nonpayable",
      "type": "function"
    },
    {
      "inputs": [
        {
          "internalType": "address",
          "name": "spender",
          "type": "address"
        },
        {
          "internalType": "uint256",
          "name": "addedValue",
          "type": "uint256"
        }
      ],
      "name": "increaseAllowance",
      "outputs": [
        {
          "internalType": "bool",
          "name": "",
          "type": "bool"
        }
      ],
      "stateMutability": "nonpayable",
      "type": "function"
    },
    {
      "inputs": [],
      "name": "name",
      "outputs": [
        {
          "internalType": "string",
          "name": "",
          "type": "string"
        }
      ],
      "stateMutability": "view",
      "type": "function"
    },
    {
      "inputs": [],
      "name": "nftContract",
      "outputs": [
        {
          "internalType": "contract IPenguinOnchain",
          "name": "",
          "type": "address"
        }
      ],
      "stateMutability": "view",
      "type": "function"
    },
    {
      "inputs": [],
      "name": "owner",
      "outputs": [
        {
          "internalType": "address",
          "name": "",
          "type": "address"
        }
      ],
      "stateMutability": "view",
      "type": "function"
    },
    {
      "inputs": [],
      "name": "renounceOwnership",
      "outputs": [],
      "stateMutability": "nonpayable",
      "type": "function"
    },
    {
      "inputs": [
        {
          "internalType": "address",
          "name": "_nftContract",
          "type": "address"
        }
      ],
      "name": "setNftContract",
      "outputs": [],
      "stateMutability": "nonpayable",
      "type": "function"
    },
    {
      "inputs": [],
      "name": "symbol",
      "outputs": [
        {
          "internalType": "string",
          "name": "",
          "type": "string"
        }
      ],
      "stateMutability": "view",
      "type": "function"
    },
    {
      "inputs": [],
      "name": "totalSupply",
      "outputs": [
        {
          "internalType": "uint256",
          "name": "",
          "type": "uint256"
        }
      ],
      "stateMutability": "view",
      "type": "function"
    },
    {
      "inputs": [
        {
          "internalType": "address",
          "name": "to",
          "type": "address"
        },
        {
          "internalType": "uint256",
          "name": "amount",
          "type": "uint256"
        }
      ],
      "name": "transfer",
      "outputs": [
        {
          "internalType": "bool",
          "name": "",
          "type": "bool"
        }
      ],
      "stateMutability": "nonpayable",
      "type": "function"
    },
    {
      "inputs": [
        {
          "internalType": "address",
          "name": "from",
          "type": "address"
        },
        {
          "internalType": "address",
          "name": "to",
          "type": "address"
        },
        {
          "internalType": "uint256",
          "name": "amount",
          "type": "uint256"
        }
      ],
      "name": "transferFrom",
      "outputs": [
        {
          "internalType": "bool",
          "name": "",
          "type": "bool"
        }
      ],
      "stateMutability": "nonpayable",
      "type": "function"
    },
    {
      "inputs": [
        {
          "internalType": "address",
          "name": "newOwner",
          "type": "address"
        }
      ],
      "name": "transferOwnership",
      "outputs": [],
      "stateMutability": "nonpayable",
      "type": "function"
    }
  ],
  "bytecode": "0x60806040523461041e5761110b6020813803918261001c81610422565b93849283398101031261041e57516100346040610422565b90601582527f50656e6775696e204f6e636861696e20546f6b656e000000000000000000000060208301526100696040610422565b600581526450454e474f60d81b602082015282519091906001600160401b03811161032f57600354600181811c91168015610414575b602082101461031157601f81116103b1575b506020601f821160011461034e57819293945f92610343575b50508160011b915f199060031b1c1916176003555b81516001600160401b03811161032f57600454600181811c91168015610325575b602082101461031157601f81116102ae575b50602092601f821160011461024d57928192935f92610242575b50508160011b915f199060031b1c1916176004555b60058054336001600160a01b03198216811790925560405191906001600160a01b03167f8be0079c531659141344cd1fd0a4f28419497f9722a3daafe3b4186f6b6457e05f80a3331561020057506002548181018091116101ec57600255335f525f60205260405f208181540190556040519081525f7fddf252ad1be2c89b69c2b068fc378daa952ba7f163c4a11628f55a4df523b3ef60203393a3604051610cc390816104488239f35b634e487b7160e01b5f52601160045260245ffd5b62461bcd60e51b815260206004820152601f60248201527f45524332303a206d696e7420746f20746865207a65726f2061646472657373006044820152606490fd5b015190505f8061012c565b601f1982169360045f52805f20915f5b868110610296575083600195961061027e575b505050811b01600455610141565b01515f1960f88460031b161c191690555f8080610270565b9192602060018192868501518155019401920161025d565b60045f527f8a35acfbc15ff81a39ae7d344fd709f28e8600b4aa8c65c6b64bfe7fe36bd19b601f830160051c81019160208410610307575b601f0160051c01905b8181106102fc5750610112565b5f81556001016102ef565b90915081906102e6565b634e487b7160e01b5f52602260045260245ffd5b90607f1690610100565b634e487b7160e01b5f52604160045260245ffd5b015190505f806100ca565b601f1982169060035f52805f20915f5b81811061039957509583600195969710610381575b505050811b016003556100df565b01515f1960f88460031b161c191690555f8080610373565b9192602060018192868b01518155019401920161035e565b60035f527fc2575a0e9e593c00f959f8c92f12db2869c3395a3b0502d05e2516446f71f85b601f830160051c8101916020841061040a575b601f0160051c01905b8181106103ff57506100b1565b5f81556001016103f2565b90915081906103e9565b90607f169061009f565b5f80fd5b6040519190601f01601f191682016001600160401b0381118382101761032f5760405256fe6080806040526004361015610012575f80fd5b5f905f3560e01c90816306fdde031461083e57508063095ea7b31461081857806318160ddd146107fb57806323b872dd1461073e578063313ce5671461072357806339509351146106c157806352f5ad771461067e57806370a0823114610647578063715018a6146105ec57806375ba56d1146104275780638da5cb5b146103fe57806395d89b41146102f5578063a457c2d714610252578063a9059cbb14610220578063d56d229d146101f7578063dd62ed3e146101a45763f2fde38b146100d9575f80fd5b346101a15760203660031901126101a1576100f2610959565b6100fa610c35565b6001600160a01b0316801561014d57600580546001600160a01b0319811683179091556001600160a01b03167f8be0079c531659141344cd1fd0a4f28419497f9722a3daafe3b4186f6b6457e08380a380f35b60405162461bcd60e51b815260206004820152602660248201527f4f776e61626c653a206e6577206f776e657220697320746865207a65726f206160448201526564647265737360d01b6064820152608490fd5b80fd5b50346101a15760403660031901126101a15760406101c0610959565b916101c961096f565b9260018060a01b031681526001602052209060018060a01b03165f52602052602060405f2054604051908152f35b50346101a157806003193601126101a1576006546040516001600160a01b039091168152602090f35b50346101a15760403660031901126101a15761024761023d610959565b6024359033610abf565b602060405160018152f35b50346101a15760403660031901126101a15761026c610959565b60406024359233815260016020522060018060a01b0382165f5260205260405f2054918083106102a257610247920390336109bb565b60405162461bcd60e51b815260206004820152602560248201527f45524332303a2064656372656173656420616c6c6f77616e63652062656c6f77604482015264207a65726f60d81b6064820152608490fd5b50346101a157806003193601126101a1576040519080600454908160011c916001811680156103f4575b6020841081146103e0578386529081156103b9575060011461035c575b6103588461034c81860382610985565b6040519182918261092f565b0390f35b600481527f8a35acfbc15ff81a39ae7d344fd709f28e8600b4aa8c65c6b64bfe7fe36bd19b939250905b80821061039f5750909150810160200161034c8261033c565b919260018160209254838588010152019101909291610386565b60ff191660208087019190915292151560051b8501909201925061034c915083905061033c565b634e487b7160e01b83526022600452602483fd5b92607f169261031f565b50346101a157806003193601126101a1576005546040516001600160a01b039091168152602090f35b503461050d57604036600319011261050d57600654602435906001600160a01b0316156105b057331561056157335f525f60205260405f2054818110610511578190335f525f6020520360405f205580600254036002555f6040518281527fddf252ad1be2c89b69c2b068fc378daa952ba7f163c4a11628f55a4df523b3ef60203392a36006546001600160a01b031690813b1561050d575f916044839260405194859384926399d8cd1160e01b8452600435600485015260248401525af18015610502576104f4575080f35b61050091505f90610985565b005b6040513d5f823e3d90fd5b5f80fd5b60405162461bcd60e51b815260206004820152602260248201527f45524332303a206275726e20616d6f756e7420657863656564732062616c616e604482015261636560f01b6064820152608490fd5b60405162461bcd60e51b815260206004820152602160248201527f45524332303a206275726e2066726f6d20746865207a65726f206164647265736044820152607360f81b6064820152608490fd5b60405162461bcd60e51b81526020600482015260146024820152731391950818dbdb9d1c9858dd081b9bdd081cd95d60621b6044820152606490fd5b3461050d575f36600319011261050d57610604610c35565b600580546001600160a01b031981169091555f906001600160a01b03167f8be0079c531659141344cd1fd0a4f28419497f9722a3daafe3b4186f6b6457e08280a3005b3461050d57602036600319011261050d576001600160a01b03610668610959565b165f525f602052602060405f2054604051908152f35b3461050d57602036600319011261050d57610697610959565b61069f610c35565b600680546001600160a01b0319166001600160a01b0392909216919091179055005b3461050d57604036600319011261050d576106da610959565b335f52600160205260405f2060018060a01b0382165f5260205260405f2054602435810180911161070f5761024791336109bb565b634e487b7160e01b5f52601160045260245ffd5b3461050d575f36600319011261050d57602060405160128152f35b3461050d57606036600319011261050d57610757610959565b61075f61096f565b6001600160a01b0382165f90815260016020818152604080842033855290915290912054926044359291840161079a575b6102479350610abf565b8284106107b6576107b183610247950333836109bb565b610790565b60405162461bcd60e51b815260206004820152601d60248201527f45524332303a20696e73756666696369656e7420616c6c6f77616e63650000006044820152606490fd5b3461050d575f36600319011261050d576020600254604051908152f35b3461050d57604036600319011261050d57610247610834610959565b60243590336109bb565b3461050d575f36600319011261050d575f6003548060011c90600181168015610925575b602083108114610911578285529081156108ed575060011461088f575b6103588361034c81850382610985565b91905060035f527fc2575a0e9e593c00f959f8c92f12db2869c3395a3b0502d05e2516446f71f85b915f905b8082106108d35750909150810160200161034c61087f565b9192600181602092548385880101520191019092916108bb565b60ff191660208086019190915291151560051b8401909101915061034c905061087f565b634e487b7160e01b5f52602260045260245ffd5b91607f1691610862565b602060409281835280519182918282860152018484015e5f828201840152601f01601f1916010190565b600435906001600160a01b038216820361050d57565b602435906001600160a01b038216820361050d57565b90601f8019910116810190811067ffffffffffffffff8211176109a757604052565b634e487b7160e01b5f52604160045260245ffd5b6001600160a01b0316908115610a6e576001600160a01b0316918215610a1e5760207f8c5be1e5ebec7d5bd14f71427d1e84f3dd0314c0f7b2291e5b200ac8c7c3b92591835f526001825260405f20855f5282528060405f2055604051908152a3565b60405162461bcd60e51b815260206004820152602260248201527f45524332303a20617070726f766520746f20746865207a65726f206164647265604482015261737360f01b6064820152608490fd5b60405162461bcd60e51b8152602060048201526024808201527f45524332303a20617070726f76652066726f6d20746865207a65726f206164646044820152637265737360e01b6064820152608490fd5b6001600160a01b0316908115610be2576001600160a01b0316918215610b9157815f525f60205260405f2054818110610b3d57817fddf252ad1be2c89b69c2b068fc378daa952ba7f163c4a11628f55a4df523b3ef92602092855f525f84520360405f2055845f525f825260405f20818154019055604051908152a3565b60405162461bcd60e51b815260206004820152602660248201527f45524332303a207472616e7366657220616d6f756e7420657863656564732062604482015265616c616e636560d01b6064820152608490fd5b60405162461bcd60e51b815260206004820152602360248201527f45524332303a207472616e7366657220746f20746865207a65726f206164647260448201526265737360e81b6064820152608490fd5b60405162461bcd60e51b815260206004820152602560248201527f45524332303a207472616e736665722066726f6d20746865207a65726f206164604482015264647265737360d81b6064820152608490fd5b6005546001600160a01b03163303610c4957565b606460405162461bcd60e51b815260206004820152602060248201527f4f776e61626c653a2063616c6c6572206973206e6f7420746865206f776e65726044820152fdfea2646970667358221220bb893e9d97416ed1b3b7977a36c13830f84b98ab70a08301af9e704cd2c748fe64736f6c634300081b0033",
  "linkReferences": {},
  "deployedLinkReferences": {}
}