{
  "_format": "hh-sol-artifact-1",
  "contractName": "PengoConverter",
  "sourceName": "contracts/libraries/pengoConverter.sol",
  "abi": [
    {
      "inputs": [
        {
          "internalType": "uint256[]",
          "name": "pixels",
          "type": "uint256[]"
        },
        {
          "internalType": "string[]",
          "name": "colors",
          "type": "string[]"
        }
      ],
      "name": "reconstructHexString",
      "outputs": [
        {
          "internalType": "string",
          "name": "",
          "type": "string"
        }
      ],
      "stateMutability": "pure",
      "type": "function"
    }
  ],
  "bytecode": "0x608060405234601d576040516108b96100238239308150506108b990f35b600080fdfe6080604052600436101561001257600080fd5b60003560e01c6372565e23036100925761029d565b634e487b7160e01b600052604160045260246000fd5b90601f01601f1916810190811067ffffffffffffffff82111761005f57604052565b610027565b9061007861007160405190565b928361003d565b565b67ffffffffffffffff811161005f5760208091020190565b600080fd5b909291926100ac6100a78261007a565b610064565b938185526020808601920283019281841161009257915b8383106100d05750505050565b82358152602092830192016100c3565b9080601f83011215610092578160206100fb93359101610097565b90565b67ffffffffffffffff811161005f57602090601f01601f19160190565b0190565b90826000939282370152565b9092919261013b6100a7826100fe565b93818552818301116100925761007891602085019061011f565b9080601f83011215610092578160206100fb9335910161012b565b92919061017f6100a78261007a565b93818552602080860192028101918383116100925781905b8382106101a5575050505050565b813567ffffffffffffffff8111610092576020916101c68784938701610155565b815201910190610197565b9080601f83011215610092578160206100fb93359101610170565b91909160408184031261009257803567ffffffffffffffff811161009257836102169183016100e0565b92602082013567ffffffffffffffff8111610092576100fb92016101d1565b60005b8381106102485750506000910152565b8181015183820152602001610238565b61027961028260209361011b9361026d815190565b80835293849260200190565b95869101610235565b601f01601f191690565b60208082526100fb92910190610258565b6102c06102b46102ae3660046101ec565b90610488565b6040519182918261028c565b0390f35b6100fb6100fb6100fb9290565b634e487b7160e01b600052601260045260246000fd5b906102f1565b9190565b9081156102fc570690565b6102d1565b1561030857565b60405162461bcd60e51b8152602060048201526012602482015271496e76616c696420706978656c206461746160701b6044820152606490fd5b634e487b7160e01b600052601160045260246000fd5b81156102fc570490565b1561036957565b60405162461bcd60e51b815260206004820152601860248201527f506978656c20616e6420636f6c6f72206d69736d6174636800000000000000006044820152606490fd5b818102929181159184041417156103c157565b610342565b634e487b7160e01b600052603260045260246000fd5b906103e5825190565b8110156103f6576020809102010190565b6103c6565b6104086100fb6100fb9290565b60ff1690565b61042461041e6100fb9260ff1690565b60f81b90565b6001600160f81b03191690565b919082018092116103c157565b0180926001600160f81b0319169052565b61011b61046792602092610461815190565b94859290565b93849101610235565b916104826100fb94936104829361044f565b9061044f565b8051916104b66104a360049461049d866102c4565b906102e7565b6104b06102ed60006102c4565b14610301565b6104e76104c1825190565b6104e16102ed6100fb6104d2875190565b6104db896102c4565b90610358565b14610362565b6060926104f460006102c4565b935b6105016100fb845190565b85101561068f57610511826102c4565b61051b90866103ae565b61052590856103dc565b5161052f906103fb565b6105389061040e565b610541836102c4565b61054b90876103ae565b61055560016102c4565b61055e91610431565b61056890866103dc565b51610572906103fb565b61057b9061040e565b610584846102c4565b61058e90886103ae565b61059860026102c4565b6105a191610431565b6105ab90876103dc565b516105b5906103fb565b6105be9061040e565b906105c8856102c4565b6105d290896103ae565b6105dc60036102c4565b6105e591610431565b6105ef90886103dc565b516105f9906103fb565b6106029061040e565b9261060c60405190565b938493602085019361063e93859261043e600161011b9461043e828861043e829b9a83996001600160f81b0319169052565b90810382520361064e908261003d565b61065886856103dc565b519061066360405190565b92839260208401926106759284610470565b908103825203610685908261003d565b93600101936104f6565b925050506100fb9150610768565b906106aa6100a7836100fe565b918252565b6106b9601061069d565b6f181899199a1a9b1b9c1ca0a121a222a360811b602082015290565b6100fb6106af565b369037565b906100786106f86106f28461069d565b936100fe565b601f1901602084016106dd565b9061070e825190565b8110156103f6570160200190565b6104086100fb6100fb9260ff1690565b6100fb9060f81c61071c565b6104089061075361074c6100fb9460ff1690565b9160ff1690565b901c90565b6100fb6100fb6100fb9260ff1690565b906107716106d5565b6002610795610790610781865190565b61078b60026102c4565b6103ae565b6106e2565b916000946107a360006102c4565b6107ae6100fb835190565b81101561087657806108036107d56107fd6107f86107e86107e36107d5610871988a610705565b516001600160f81b03191690565b61072c565b6107f260046103fb565b90610738565b610758565b86610705565b61081d6108138361078b896102c4565b918a1a9188610705565b536108476107d56107fd6108376107e36107d58689610705565b610841600f6103fb565b16610758565b61086a61081361085a8461078b8a6102c4565b61086460016102c4565b90610431565b5360010190565b6107a3565b505050506100fb9192509056fea264697066735822122030e3521570847535ebf7e622950517d9339832e53f45a7254ec435baa6ab5de064736f6c634300081b0033",
  "linkReferences": {},
  "deployedLinkReferences": {}
}