{
  "_format": "hh-sol-artifact-1",
  "contractName": "PengoStrategy",
  "sourceName": "contracts/Strategy/PengoStrategy.sol",
  "abi": [
    {
      "inputs": [],
      "stateMutability": "nonpayable",
      "type": "constructor"
    },
    {
      "anonymous": false,
      "inputs": [
        {
          "indexed": false,
          "internalType": "address",
          "name": "previousAdmin",
          "type": "address"
        },
        {
          "indexed": false,
          "internalType": "address",
          "name": "newAdmin",
          "type": "address"
        }
      ],
      "name": "AdminChanged",
      "type": "event"
    },
    {
      "anonymous": false,
      "inputs": [
        {
          "indexed": true,
          "internalType": "address",
          "name": "beacon",
          "type": "address"
        }
      ],
      "name": "BeaconUpgraded",
      "type": "event"
    },
    {
      "anonymous": false,
      "inputs": [
        {
          "indexed": false,
          "internalType": "uint8",
          "name": "version",
          "type": "uint8"
        }
      ],
      "name": "Initialized",
      "type": "event"
    },
    {
      "anonymous": false,
      "inputs": [
        {
          "indexed": true,
          "internalType": "address",
          "name": "previousOwner",
          "type": "address"
        },
        {
          "indexed": true,
          "internalType": "address",
          "name": "newOwner",
          "type": "address"
        }
      ],
      "name": "OwnershipTransferred",
      "type": "event"
    },
    {
      "anonymous": false,
      "inputs": [
        {
          "indexed": true,
          "internalType": "address",
          "name": "implementation",
          "type": "address"
        }
      ],
      "name": "Upgraded",
      "type": "event"
    },
    {
      "inputs": [
        {
          "internalType": "uint256",
          "name": "",
          "type": "uint256"
        }
      ],
      "name": "activeBuyList",
      "outputs": [
        {
          "internalType": "address",
          "name": "",
          "type": "address"
        }
      ],
      "stateMutability": "view",
      "type": "function"
    },
    {
      "inputs": [
        {
          "internalType": "uint256",
          "name": "tokenId",
          "type": "uint256"
        },
        {
          "internalType": "address",
          "name": "receiver",
          "type": "address"
        }
      ],
      "name": "claimAllDividendsFor",
      "outputs": [],
      "stateMutability": "nonpayable",
      "type": "function"
    },
    {
      "inputs": [
        {
          "internalType": "address",
          "name": "rwaToken",
          "type": "address"
        },
        {
          "internalType": "uint256",
          "name": "tokenId",
          "type": "uint256"
        }
      ],
      "name": "claimDividends",
      "outputs": [],
      "stateMutability": "nonpayable",
      "type": "function"
    },
    {
      "inputs": [
        {
          "internalType": "uint256",
          "name": "lpTokenId",
          "type": "uint256"
        },
        {
          "internalType": "Currency",
          "name": "currency0",
          "type": "address"
        },
        {
          "internalType": "Currency",
          "name": "currency1",
          "type": "address"
        }
      ],
      "name": "claimFeesFromPosition",
      "outputs": [],
      "stateMutability": "nonpayable",
      "type": "function"
    },
    {
      "inputs": [
        {
          "internalType": "address",
          "name": "rwaToken",
          "type": "address"
        },
        {
          "internalType": "uint256",
          "name": "amount",
          "type": "uint256"
        }
      ],
      "name": "distributeYield",
      "outputs": [],
      "stateMutability": "nonpayable",
      "type": "function"
    },
    {
      "inputs": [
        {
          "internalType": "uint256",
          "name": "proposalId",
          "type": "uint256"
        }
      ],
      "name": "executeProposal",
      "outputs": [],
      "stateMutability": "nonpayable",
      "type": "function"
    },
    {
      "inputs": [],
      "name": "getActiveBuyList",
      "outputs": [
        {
          "internalType": "address[]",
          "name": "",
          "type": "address[]"
        }
      ],
      "stateMutability": "view",
      "type": "function"
    },
    {
      "inputs": [
        {
          "internalType": "address",
          "name": "rwaToken",
          "type": "address"
        },
        {
          "internalType": "uint256",
          "name": "tokenId",
          "type": "uint256"
        }
      ],
      "name": "getClaimableDividends",
      "outputs": [
        {
          "internalType": "uint256",
          "name": "",
          "type": "uint256"
        }
      ],
      "stateMutability": "view",
      "type": "function"
    },
    {
      "inputs": [],
      "name": "getRewardTokens",
      "outputs": [
        {
          "internalType": "address[]",
          "name": "",
          "type": "address[]"
        }
      ],
      "stateMutability": "view",
      "type": "function"
    },
    {
      "inputs": [
        {
          "internalType": "uint256",
          "name": "",
          "type": "uint256"
        },
        {
          "internalType": "uint256",
          "name": "",
          "type": "uint256"
        }
      ],
      "name": "hasVoted",
      "outputs": [
        {
          "internalType": "bool",
          "name": "",
          "type": "bool"
        }
      ],
      "stateMutability": "view",
      "type": "function"
    },
    {
      "inputs": [
        {
          "internalType": "address",
          "name": "rwa",
          "type": "address"
        }
      ],
      "name": "hotfixAddRewardToken",
      "outputs": [],
      "stateMutability": "nonpayable",
      "type": "function"
    },
    {
      "inputs": [
        {
          "internalType": "address",
          "name": "rwa",
          "type": "address"
        }
      ],
      "name": "hotfixAddToBuyList",
      "outputs": [],
      "stateMutability": "nonpayable",
      "type": "function"
    },
    {
      "inputs": [
        {
          "internalType": "address",
          "name": "",
          "type": "address"
        }
      ],
      "name": "inBuyList",
      "outputs": [
        {
          "internalType": "bool",
          "name": "",
          "type": "bool"
        }
      ],
      "stateMutability": "view",
      "type": "function"
    },
    {
      "inputs": [
        {
          "internalType": "address",
          "name": "_nftContract",
          "type": "address"
        },
        {
          "internalType": "address",
          "name": "_positionManager",
          "type": "address"
        }
      ],
      "name": "initialize",
      "outputs": [],
      "stateMutability": "nonpayable",
      "type": "function"
    },
    {
      "inputs": [
        {
          "internalType": "address",
          "name": "",
          "type": "address"
        }
      ],
      "name": "isRewardToken",
      "outputs": [
        {
          "internalType": "bool",
          "name": "",
          "type": "bool"
        }
      ],
      "stateMutability": "view",
      "type": "function"
    },
    {
      "inputs": [],
      "name": "nftContract",
      "outputs": [
        {
          "internalType": "contract IPenguinOnchain",
          "name": "",
          "type": "address"
        }
      ],
      "stateMutability": "view",
      "type": "function"
    },
    {
      "inputs": [
        {
          "internalType": "address",
          "name": "operator",
          "type": "address"
        },
        {
          "internalType": "address",
          "name": "from",
          "type": "address"
        },
        {
          "internalType": "uint256",
          "name": "tokenId",
          "type": "uint256"
        },
        {
          "internalType": "bytes",
          "name": "data",
          "type": "bytes"
        }
      ],
      "name": "onERC721Received",
      "outputs": [
        {
          "internalType": "bytes4",
          "name": "",
          "type": "bytes4"
        }
      ],
      "stateMutability": "nonpayable",
      "type": "function"
    },
    {
      "inputs": [],
      "name": "owner",
      "outputs": [
        {
          "internalType": "address",
          "name": "",
          "type": "address"
        }
      ],
      "stateMutability": "view",
      "type": "function"
    },
    {
      "inputs": [
        {
          "internalType": "address",
          "name": "",
          "type": "address"
        },
        {
          "internalType": "uint256",
          "name": "",
          "type": "uint256"
        }
      ],
      "name": "pendingDividends",
      "outputs": [
        {
          "internalType": "uint256",
          "name": "",
          "type": "uint256"
        }
      ],
      "stateMutability": "view",
      "type": "function"
    },
    {
      "inputs": [],
      "name": "positionManager",
      "outputs": [
        {
          "internalType": "contract IPositionManager",
          "name": "",
          "type": "address"
        }
      ],
      "stateMutability": "view",
      "type": "function"
    },
    {
      "inputs": [],
      "name": "proposalCount",
      "outputs": [
        {
          "internalType": "uint256",
          "name": "",
          "type": "uint256"
        }
      ],
      "stateMutability": "view",
      "type": "function"
    },
    {
      "inputs": [
        {
          "internalType": "uint256",
          "name": "",
          "type": "uint256"
        }
      ],
      "name": "proposals",
      "outputs": [
        {
          "internalType": "address",
          "name": "rwaToken",
          "type": "address"
        },
        {
          "internalType": "bool",
          "name": "isAdd",
          "type": "bool"
        },
        {
          "internalType": "uint256",
          "name": "yesVotes",
          "type": "uint256"
        },
        {
          "internalType": "uint256",
          "name": "noVotes",
          "type": "uint256"
        },
        {
          "internalType": "uint256",
          "name": "endTime",
          "type": "uint256"
        },
        {
          "internalType": "bool",
          "name": "executed",
          "type": "bool"
        }
      ],
      "stateMutability": "view",
      "type": "function"
    },
    {
      "inputs": [
        {
          "internalType": "address",
          "name": "rwaToken",
          "type": "address"
        },
        {
          "internalType": "bool",
          "name": "isAdd",
          "type": "bool"
        },
        {
          "internalType": "uint256",
          "name": "tokenId",
          "type": "uint256"
        }
      ],
      "name": "propose",
      "outputs": [],
      "stateMutability": "nonpayable",
      "type": "function"
    },
    {
      "inputs": [],
      "name": "proxiableUUID",
      "outputs": [
        {
          "internalType": "bytes32",
          "name": "",
          "type": "bytes32"
        }
      ],
      "stateMutability": "view",
      "type": "function"
    },
    {
      "inputs": [],
      "name": "renounceOwnership",
      "outputs": [],
      "stateMutability": "nonpayable",
      "type": "function"
    },
    {
      "inputs": [
        {
          "internalType": "address",
          "name": "",
          "type": "address"
        },
        {
          "internalType": "uint256",
          "name": "",
          "type": "uint256"
        }
      ],
      "name": "rewardDebt",
      "outputs": [
        {
          "internalType": "uint256",
          "name": "",
          "type": "uint256"
        }
      ],
      "stateMutability": "view",
      "type": "function"
    },
    {
      "inputs": [
        {
          "internalType": "uint256",
          "name": "",
          "type": "uint256"
        }
      ],
      "name": "rewardTokens",
      "outputs": [
        {
          "internalType": "address",
          "name": "",
          "type": "address"
        }
      ],
      "stateMutability": "view",
      "type": "function"
    },
    {
      "inputs": [
        {
          "internalType": "address",
          "name": "_nftContract",
          "type": "address"
        }
      ],
      "name": "setNftContract",
      "outputs": [],
      "stateMutability": "nonpayable",
      "type": "function"
    },
    {
      "inputs": [
        {
          "internalType": "address",
          "name": "_positionManager",
          "type": "address"
        }
      ],
      "name": "setPositionManager",
      "outputs": [],
      "stateMutability": "nonpayable",
      "type": "function"
    },
    {
      "inputs": [
        {
          "internalType": "uint256",
          "name": "tokenId",
          "type": "uint256"
        }
      ],
      "name": "syncRewardDebt",
      "outputs": [],
      "stateMutability": "nonpayable",
      "type": "function"
    },
    {
      "inputs": [
        {
          "internalType": "address",
          "name": "",
          "type": "address"
        }
      ],
      "name": "totalDividendsPerPower",
      "outputs": [
        {
          "internalType": "uint256",
          "name": "",
          "type": "uint256"
        }
      ],
      "stateMutability": "view",
      "type": "function"
    },
    {
      "inputs": [
        {
          "internalType": "address",
          "name": "newOwner",
          "type": "address"
        }
      ],
      "name": "transferOwnership",
      "outputs": [],
      "stateMutability": "nonpayable",
      "type": "function"
    },
    {
      "inputs": [
        {
          "internalType": "uint256",
          "name": "tokenId",
          "type": "uint256"
        }
      ],
      "name": "updateRewardDebt",
      "outputs": [],
      "stateMutability": "nonpayable",
      "type": "function"
    },
    {
      "inputs": [
        {
          "internalType": "address",
          "name": "newImplementation",
          "type": "address"
        }
      ],
      "name": "upgradeTo",
      "outputs": [],
      "stateMutability": "nonpayable",
      "type": "function"
    },
    {
      "inputs": [
        {
          "internalType": "address",
          "name": "newImplementation",
          "type": "address"
        },
        {
          "internalType": "bytes",
          "name": "data",
          "type": "bytes"
        }
      ],
      "name": "upgradeToAndCall",
      "outputs": [],
      "stateMutability": "payable",
      "type": "function"
    },
    {
      "inputs": [
        {
          "internalType": "uint256",
          "name": "proposalId",
          "type": "uint256"
        },
        {
          "internalType": "uint256",
          "name": "tokenId",
          "type": "uint256"
        },
        {
          "internalType": "bool",
          "name": "support",
          "type": "bool"
        }
      ],
      "name": "vote",
      "outputs": [],
      "stateMutability": "nonpayable",
      "type": "function"
    }
  ],
  "bytecode": "0x60a080604052346100da57306080525f549060ff8260081c16610088575060ff8082161061004e575b6040516129b790816100df82396080518181816111650152818161128a0152611c130152f35b60ff90811916175f557f7f26b83ff96e1f2b6a682f133852f6798a09c465da95921460cefb3847402498602060405160ff8152a15f610028565b62461bcd60e51b815260206004820152602760248201527f496e697469616c697a61626c653a20636f6e747261637420697320696e697469604482015266616c697a696e6760c81b6064820152608490fd5b5f80fdfe6080806040526004361015610012575f80fd5b5f905f3560e01c908163013cf08b1461225d575080630d61b51914611f62578063150b7a0214611ef15780633659cfe614611bf55780633f71573e14611b0357806343e9585f146118f95780634443b69d14611708578063485cc9551461156d5780634f1ef2861461121557806352d1902d1461115357806352f5ad77146111105780635760f2e3146110cc5780635c3bdd881461108757806364390ff11461104c5780636a18ff7a14610e55578063715018a614610dfa578063745890f614610d7d578063791b98bc14610d545780637bb7bed114610d2a57806388df1e9b14610ce35780638da5cb5b14610cbb578063a566f3ac14610c54578063b127616914610a56578063b5fd73f814610a18578063bd4ba9c014610818578063c244f68c146107da578063c4f59f9b1461074b578063cc738ac314610712578063d2b91bd1146106e3578063d56d229d146106bb578063da35c6641461069e578063e18e63061461065c578063e2d076c914610617578063ec3d3c31146104b8578063f2fde38b146104295763fb0132d3146101aa575f80fd5b346103bc5760603660031901126103bc576101c36122e0565b6044356001600160a01b038116908190036103bc576101e7600260c9541415612551565b600260c9556101f46127e6565b60409081519061020483836122f6565b6002825260208201601f19840136823782511561041557600190538151600110156104155760116021839593015360609183519161024284846122f6565b60028352601f1984015f5b818110610405575050845160043560208201525f868201525f858201525f608082015260a0808201525f60c082015260c0815261028b60e0826122f6565b61029484612745565b5261029e83612745565b5084516001600160a01b0390921660208301528185015230838201528281526102c86080826122f6565b6102d182612752565b526102db81612752565b5060018060a01b036101075416916102ff8451958692866020850152830190612762565b91601f198284030185830152805180845260208401936020808360051b8301019301945f915b8383106103d45750505050610343925003601f1981018552846122f6565b61012c4201928342116103c057813b156103bc575f916103809183855180978195829463dd46508f60e01b84528960048501526044840190612762565b90602483015203925af19081156103b357506103a0575b50600160c95580f35b6103ac91505f906122f6565b5f5f610397565b513d5f823e3d90fd5b5f80fd5b634e487b7160e01b5f52601160045260245ffd5b919360019193955060206103f38192601f198682030187528951612762565b97019301930190928894929593610325565b602081860181018790520161024d565b634e487b7160e01b5f52603260045260245ffd5b346103bc5760203660031901126103bc576104426122ca565b61044a6127e6565b6001600160a01b03811615610464576104629061283e565b005b60405162461bcd60e51b815260206004820152602660248201527f4f776e61626c653a206e6577206f776e657220697320746865207a65726f206160448201526564647265737360d01b6064820152608490fd5b346103bc5760203660031901126103bc5760fb54600435906024906020906001600160a01b03166104ea3382146124e8565b60405192838092636f08bc8760e11b82528660048301525afa90811561060c575f916105da575b505f5b61010354811015610462578061052b60019261238e565b838060a01b0391549060031b1c16805f52610101602052670de0b6b3a764000061058760405f20548261055e828961253e565b04845f5261010560205260405f20895f5260205260405f20548082116105a6575b50508661253e565b04905f5261010560205260405f20855f5260205260405f205501610514565b6105af916123ca565b845f5261010660205260405f20895f526020526105d160405f209182546123bd565b9055888061057f565b90506020813d602011610604575b816105f5602093836122f6565b810103126103bc575182610511565b3d91506105e8565b6040513d5f823e3d90fd5b346103bc5760403660031901126103bc576001600160a01b036106386122ca565b165f5261010560205260405f206024355f52602052602060405f2054604051908152f35b346103bc5760203660031901126103bc5760043560ff548110156103bc57610685602091612376565b905460405160039290921b1c6001600160a01b03168152f35b346103bc575f3660031901126103bc57602060fd54604051908152f35b346103bc575f3660031901126103bc5760fb546040516001600160a01b039091168152602090f35b346103bc5760403660031901126103bc57602061070a6107016122ca565b6024359061264f565b604051908152f35b346103bc5760203660031901126103bc576001600160a01b036107336122ca565b165f52610101602052602060405f2054604051908152f35b346103bc575f3660031901126103bc57604051806020610103549182815201906101035f527f02c297ab74aad0aede3a1895c857b1f2c71e6a203feb727bec95ac752998cb78905f5b8181106107bb576107b7856107ab818703826122f6565b60405191829182612334565b0390f35b82546001600160a01b0316845260209093019260019283019201610794565b346103bc5760203660031901126103bc576001600160a01b036107fb6122ca565b165f52610100602052602060ff60405f2054166040519015158152f35b346103bc5760403660031901126103bc576108316122ca565b6001600160a01b0381165f81815261010060205260409020549091906024359060ff16156109dd5760fb5460405163aed96b5960e01b81529190602090839060049082906001600160a01b03165afa91821561060c575f926109a9575b50811561096c576040516323b872dd60e01b8152336004820152306024820152604481018290526020816064815f895af1801561060c5761093f575b50670de0b6b3a7640000810290808204670de0b6b3a764000014901517156103c05704825f5261010160205261090560405f209182546123bd565b9055815f5261010460205260ff60405f2054161561091f57005b610462915f5261010460205260405f20600160ff198254161790556123fe565b6109609060203d602011610965575b61095881836122f6565b8101906125fa565b6108ca565b503d61094e565b60405162461bcd60e51b81526020600482015260156024820152744e6f20736861726520706f7765722065786973747360581b6044820152606490fd5b9091506020813d6020116109d5575b816109c5602093836122f6565b810103126103bc5751908461088e565b3d91506109b8565b60405162461bcd60e51b81526020600482015260136024820152724e6f7420616e20617070726f7665642052574160681b6044820152606490fd5b346103bc5760203660031901126103bc576001600160a01b03610a396122ca565b165f52610104602052602060ff60405f2054166040519015158152f35b346103bc5760603660031901126103bc57610a6f6122ca565b602435908115158092036103bc5760fb546040516331a9108f60e11b8152604435600482018190526001600160a01b0390921691602082602481865afa91821561060c57602092610ad2915f91610c27575b506001600160a01b031633146125bc565b602460405180948193636f08bc8760e11b835260048301525afa801561060c575f90610bf3575b610b0591501515612612565b60fd545f1981146103c057600101918260fd556203f48042018042116103c0576040519160c083019383851067ffffffffffffffff861117610bdf5760049460405260018060a01b0316835260208301908152604083015f815260608401915f83526080850193845260a08501965f88525f5260fc60205260405f209460018060a01b039051166001600160601b0360a01b86541617855551151584549060ff60a01b9060a01b169060ff60a01b1916178455516001840155516002830155516003820155019051151560ff801983541691161790555f80f35b634e487b7160e01b5f52604160045260245ffd5b506020813d602011610c1f575b81610c0d602093836122f6565b810103126103bc57610b059051610af9565b3d9150610c00565b610c479150843d8611610c4d575b610c3f81836122f6565b81019061259d565b87610ac1565b503d610c35565b346103bc5760203660031901126103bc57610c6d6122ca565b610c756127e6565b6001600160a01b0381165f818152610100602052604090205490919060ff1615610c9b57005b610462915f5261010060205260405f20600160ff198254161790556123d7565b346103bc575f3660031901126103bc576097546040516001600160a01b039091168152602090f35b346103bc5760203660031901126103bc57610cfc6122ca565b610d046127e6565b6001600160a01b0381165f818152610104602052604090205490919060ff161561091f57005b346103bc5760203660031901126103bc57600435610103548110156103bc5761068560209161238e565b346103bc575f3660031901126103bc57610107546040516001600160a01b039091168152602090f35b346103bc575f3660031901126103bc5760405180602060ff5491828152019060ff5f527fe08ec2af2cfc251225e1968fd6ca21e4044f129bffa95bac3503be8bdb30a367905f5b818110610ddb576107b7856107ab818703826122f6565b82546001600160a01b0316845260209093019260019283019201610dc4565b346103bc575f3660031901126103bc57610e126127e6565b609780546001600160a01b031981169091555f906001600160a01b03167f8be0079c531659141344cd1fd0a4f28419497f9722a3daafe3b4186f6b6457e08280a3005b346103bc5760603660031901126103bc5760243560043560443580151581036103bc5760fb546040516331a9108f60e11b8152600481018590526001600160a01b039091169390602081602481885afa801561060c57610ec6915f9161102d57506001600160a01b031633146125bc565b825f5260fe60205260405f20815f5260205260ff60405f205416610ff857825f5260fc602052600360405f200154421015610fc457602060249460405195868092636f08bc8760e11b82528560048301525afa93841561060c575f94610f90575b50610f33841515612612565b825f5260fe60205260405f20905f5260205260405f20600160ff198254161790555f14610f77575f5260fc602052610f73600160405f20019182546123bd565b9055005b5f5260fc602052610f73600260405f20019182546123bd565b9093506020813d602011610fbc575b81610fac602093836122f6565b810103126103bc57519284610f27565b3d9150610f9f565b60405162461bcd60e51b815260206004820152600c60248201526b159bdd1a5b99c8195b99195960a21b6044820152606490fd5b60405162461bcd60e51b815260206004820152600d60248201526c105b1c9958591e481d9bdd1959609a1b6044820152606490fd5b611046915060203d602011610c4d57610c3f81836122f6565b86610ac1565b346103bc5760403660031901126103bc576004355f5260fe60205260405f206024355f52602052602060ff60405f2054166040519015158152f35b346103bc5760403660031901126103bc576001600160a01b036110a86122ca565b165f5261010660205260405f206024355f52602052602060405f2054604051908152f35b346103bc5760203660031901126103bc576110e56122ca565b6110ed6127e6565b61010780546001600160a01b0319166001600160a01b0392909216919091179055005b346103bc5760203660031901126103bc576111296122ca565b6111316127e6565b60fb80546001600160a01b0319166001600160a01b0392909216919091179055005b346103bc575f3660031901126103bc577f00000000000000000000000000000000000000000000000000000000000000006001600160a01b031630036111aa5760206040515f5160206129625f395f51905f528152f35b60405162461bcd60e51b815260206004820152603860248201527f555550535570677261646561626c653a206d757374206e6f742062652063616c60448201527f6c6564207468726f7567682064656c656761746563616c6c00000000000000006064820152608490fd5b60403660031901126103bc576112296122ca565b60243567ffffffffffffffff81116103bc57366023820112156103bc57806004013561125481612318565b9061126260405192836122f6565b808252602082019236602483830101116103bc57815f926024602093018637830101526112dc7f00000000000000000000000000000000000000000000000000000000000000006001600160a01b03166112be30821415612426565b5f5160206129625f395f51905f52546001600160a01b031614612487565b6112e46127e6565b7f4910fdfa16fed3260ed0e7147f7cc6da11a60208b5b9406d12a635614ffd91435460ff161561131957505061046290612886565b6040516352d1902d60e01b81526001600160a01b03841690602081600481855afa5f9181611539575b506113a35760405162461bcd60e51b815260206004820152602e60248201527f45524331393637557067726164653a206e657720696d706c656d656e7461746960448201526d6f6e206973206e6f74205555505360901b6064820152608490fd5b5f5160206129625f395f51905f52036114e2576113bf84612886565b604051907fbc7cd75a20ee27fd9adebab32041f755214dbc6bffa90cc0225b39da2e5c2d3b5f80a28151158015906114da575b6113f857005b833b156114895750610462925f92839251915af43d15611482573d61141c81612318565b9061142a60405192836122f6565b81523d5f602083013e5b604051916114436060846122f6565b602783527f416464726573733a206c6f772d6c6576656c2064656c65676174652063616c6c6020840152660819985a5b195960ca1b604084015261291d565b6060611434565b62461bcd60e51b815260206004820152602660248201527f416464726573733a2064656c65676174652063616c6c20746f206e6f6e2d636f6044820152651b9d1c9858dd60d21b6064820152608490fd5b5060016113f2565b60405162461bcd60e51b815260206004820152602960248201527f45524331393637557067726164653a20756e737570706f727465642070726f786044820152681a58589b195555525160ba1b6064820152608490fd5b9091506020813d602011611565575b81611555602093836122f6565b810103126103bc57519086611342565b3d9150611548565b346103bc5760403660031901126103bc576115866122ca565b61158e6122e0565b5f549060ff8260081c1615918280936116fb575b80156116e4575b156116885760ff1981166001175f5582611677575b506115d860ff5f5460081c166115d381612786565b612786565b6115e13361283e565b5f549261160060ff8560081c166115f781612786565b6115d381612786565b600160c95560018060a01b03166001600160601b0360a01b60fb54161760fb5560018060a01b03166001600160601b0360a01b6101075416176101075561164357005b61ff0019165f557f7f26b83ff96e1f2b6a682f133852f6798a09c465da95921460cefb3847402498602060405160018152a1005b61ffff1916610101175f55836115be565b60405162461bcd60e51b815260206004820152602e60248201527f496e697469616c697a61626c653a20636f6e747261637420697320616c72656160448201526d191e481a5b9a5d1a585b1a5e995960921b6064820152608490fd5b50303b1580156115a95750600160ff8216146115a9565b50600160ff8216106115a2565b346103bc5760403660031901126103bc576004356117246122e0565b611733600260c9541415612551565b600260c95560fb546001600160a01b031691338390036118b557602060249360405194858092636f08bc8760e11b82528560048301525afa92831561060c575f93611881575b505f5b6101035481101561187a576117908161238e565b905460039190911b1c6001600160a01b0316906117ad838361264f565b806117be575b50600191500161177c565b611849836020925f95865261010684526040862087875284528560408120558186526101018452670de0b6b3a76400006117fc60408820548b61253e565b838852610105865260408089208a8a528752808920929091049091555163a9059cbb60e01b81526001600160a01b0389166004820152602481019190915294859283919082906044820190565b03925af191821561060c57600192156117b3576118739060203d81116109655761095881836122f6565b50856117b3565b600160c955005b9092506020813d6020116118ad575b8161189d602093836122f6565b810103126103bc57519183611779565b3d9150611890565b606460405162461bcd60e51b815260206004820152602060248201527f4f6e6c79204e465420636f6e74726163742063616e206175746f2d73776565706044820152fd5b346103bc5760403660031901126103bc576119126122ca565b602435611924600260c9541415612551565b600260c95560fb546040516331a9108f60e11b8152600481018390526001600160a01b039091169190602081602481865afa801561060c57611977915f91611ae457506001600160a01b031633146125bc565b611981818461264f565b928315611aab57602060249360405194858092636f08bc8760e11b82528660048301525afa92831561060c575f93611a75575b50915f93611a4192670de0b6b3a76400006119fe60209660018060a01b031694858952610106885260408920848a528852886040812055858952610101885260408920549061253e565b8488526101058752604080892093895292875282882091900490555163a9059cbb60e01b8152336004820152602481019190915293849283919082906044820190565b03925af1801561060c57611a5657600160c955005b611a6e9060203d6020116109655761095881836122f6565b508061187a565b9192506020823d602011611aa3575b81611a91602093836122f6565b810103126103bc57905191905f6119b4565b3d9150611a84565b60405162461bcd60e51b8152602060048201526011602482015270139bc8191a5d9a59195b991cc81bddd959607a1b6044820152606490fd5b611afd915060203d602011610c4d57610c3f81836122f6565b85610ac1565b346103bc5760203660031901126103bc5760fb54600435906024906020906001600160a01b0316611b353382146124e8565b60405192838092636f08bc8760e11b82528660048301525afa90811561060c575f91611bc3575b505f5b610103548110156104625780611b7660019261238e565b838060a01b0391549060031b1c16805f52610101602052670de0b6b3a7640000611ba460405f20548661253e565b04905f5261010560205260405f20855f5260205260405f205501611b5f565b90506020813d602011611bed575b81611bde602093836122f6565b810103126103bc575182611b5c565b3d9150611bd1565b346103bc5760203660031901126103bc57611c0e6122ca565b611c477f00000000000000000000000000000000000000000000000000000000000000006001600160a01b03166112be30821415612426565b611c4f6127e6565b602090604051611c5f83826122f6565b5f815282810190601f1984013683377f4910fdfa16fed3260ed0e7147f7cc6da11a60208b5b9406d12a635614ffd91435460ff1615611ca45750506104629150612886565b6040516352d1902d60e01b81526001600160a01b038416908581600481855afa5f9181611ec2575b50611d2d5760405162461bcd60e51b815260048101879052602e60248201527f45524331393637557067726164653a206e657720696d706c656d656e7461746960448201526d6f6e206973206e6f74205555505360901b6064820152608490fd5b5f5160206129625f395f51905f5203611e6b57611d4984612886565b604051907fbc7cd75a20ee27fd9adebab32041f755214dbc6bffa90cc0225b39da2e5c2d3b5f80a2815115801590611e64575b611d8257005b833b15611e13575061046293925f92839251915af43d15611e0b573d90611da882612318565b91611db660405193846122f6565b82523d5f8484013e5b7f416464726573733a206c6f772d6c6576656c2064656c65676174652063616c6c60405193611def6060866122f6565b60278552840152660819985a5b195960ca1b604084015261291d565b606090611dbf565b62461bcd60e51b815260048101859052602660248201527f416464726573733a2064656c65676174652063616c6c20746f206e6f6e2d636f6044820152651b9d1c9858dd60d21b6064820152608490fd5b505f611d7c565b60405162461bcd60e51b815260048101869052602960248201527f45524331393637557067726164653a20756e737570706f727465642070726f786044820152681a58589b195555525160ba1b6064820152608490fd5b9091508681813d8311611eea575b611eda81836122f6565b810103126103bc57519087611ccc565b503d611ed0565b346103bc5760803660031901126103bc57611f0a6122ca565b50611f136122e0565b5060643567ffffffffffffffff81116103bc57366023820112156103bc57806004013567ffffffffffffffff81116103bc57369101602401116103bc57604051630a85bd0160e11b8152602090f35b346103bc5760203660031901126103bc576004355f5260fc60205260405f206004602060018060a01b0360fb54166040519283809263aed96b5960e01b82525afa90811561060c575f9161222b575b5060011c600181018091116103c057600382015442109081159161221c575b50156121c55760048101805460ff811661218d5760019060ff19161790556001810154600282015410611fff57005b805460ff8160a01c1680809161216a575b1561204957505080546001600160a01b039081165f90815261010060205260409020805460ff19166001179055905461046291166123d7565b1580612148575b61205657005b6001600160a01b03165f90815261010060205260408120805460ff191690555b60ff54808210156104625761208a82612376565b9054845460039290921b1c6001600160a01b039081169116146120b05750600101612076565b5f198101925082116103c0576120e36120cb61210793612376565b905460039190911b1c6001600160a01b031691612376565b81546001600160a01b0393841660039290921b91821b9390911b1916919091179055565b60ff548015612134575f190161211c81612376565b81549060018060a01b039060031b1b1916905560ff55005b634e487b7160e01b5f52603160045260245ffd5b506001600160a01b0381165f908152610100602052604090205460ff16612050565b506001600160a01b0382165f908152610100602052604090205460ff1615612010565b60405162461bcd60e51b815260206004820152601060248201526f105b1c9958591e48195e1958dd5d195960821b6044820152606490fd5b60405162461bcd60e51b815260206004820152602960248201527f566f74696e67206e6f7420656e64656420616e64206e6f206162736f6c757465604482015268206d616a6f7269747960b81b6064820152608490fd5b90506001820154101582611fd0565b90506020813d602011612255575b81612246602093836122f6565b810103126103bc575182611fb1565b3d9150612239565b346103bc5760203660031901126103bc5760c0906004355f5260fc60205260405f20805490600181015460028201549060ff8060046003860154950154169460018060a01b038116875260a01c1615156020860152604085015260608401526080830152151560a0820152f35b600435906001600160a01b03821682036103bc57565b602435906001600160a01b03821682036103bc57565b90601f8019910116810190811067ffffffffffffffff821117610bdf57604052565b67ffffffffffffffff8111610bdf57601f01601f191660200190565b60206040818301928281528451809452019201905f5b8181106123575750505090565b82516001600160a01b031684526020938401939092019160010161234a565b60ff548110156104155760ff5f5260205f2001905f90565b61010354811015610415576101035f5260205f2001905f90565b8054821015610415575f5260205f2001905f90565b919082018092116103c057565b919082039182116103c057565b60ff5490600160401b821015610bdf576120e38260016123fc940160ff5560ff6123a8565b565b6101035490600160401b821015610bdf576120e38260016123fc9401610103556101036123a8565b1561242d57565b60405162461bcd60e51b815260206004820152602c60248201527f46756e6374696f6e206d7573742062652063616c6c6564207468726f7567682060448201526b19195b1959d85d1958d85b1b60a21b6064820152608490fd5b1561248e57565b60405162461bcd60e51b815260206004820152602c60248201527f46756e6374696f6e206d7573742062652063616c6c6564207468726f7567682060448201526b6163746976652070726f787960a01b6064820152608490fd5b156124ef57565b60405162461bcd60e51b815260206004820152602160248201527f4f6e6c79204e465420636f6e74726163742063616e20757064617465206465626044820152601d60fa1b6064820152608490fd5b818102929181159184041417156103c057565b1561255857565b60405162461bcd60e51b815260206004820152601f60248201527f5265656e7472616e637947756172643a207265656e7472616e742063616c6c006044820152606490fd5b908160209103126103bc57516001600160a01b03811681036103bc5790565b156125c357565b60405162461bcd60e51b815260206004820152600f60248201526e2737ba103a37b5b2b71037bbb732b960891b6044820152606490fd5b908160209103126103bc575180151581036103bc5790565b1561261957565b60405162461bcd60e51b815260206004820152600e60248201526d27379039b430b932903837bbb2b960911b6044820152606490fd5b60fb54604051636f08bc8760e11b8152600481018490529190602090839060249082906001600160a01b03165afa91821561060c575f9261270f575b506001600160a01b03165f81815261010160205260409020549091670de0b6b3a7640000916126b99161253e565b0491815f5261010560205260405f20815f5260205260405f2054915f5261010660205260405f20905f5260205260405f2054918181116126f857505090565b61270c9291612706916123ca565b906123bd565b90565b9091506020813d60201161273d575b8161272b602093836122f6565b810103126103bc5751906126b961268b565b3d915061271e565b8051156104155760200190565b8051600110156104155760400190565b805180835260209291819084018484015e5f828201840152601f01601f1916010190565b1561278d57565b60405162461bcd60e51b815260206004820152602b60248201527f496e697469616c697a61626c653a20636f6e7472616374206973206e6f74206960448201526a6e697469616c697a696e6760a81b6064820152608490fd5b6097546001600160a01b031633036127fa57565b606460405162461bcd60e51b815260206004820152602060248201527f4f776e61626c653a2063616c6c6572206973206e6f7420746865206f776e65726044820152fd5b609780546001600160a01b039283166001600160a01b0319821681179092559091167f8be0079c531659141344cd1fd0a4f28419497f9722a3daafe3b4186f6b6457e05f80a3565b803b156128c25760018060a01b03166001600160601b0360a01b5f5160206129625f395f51905f525416175f5160206129625f395f51905f5255565b60405162461bcd60e51b815260206004820152602d60248201527f455243313936373a206e657720696d706c656d656e746174696f6e206973206e60448201526c1bdd08184818dbdb9d1c9858dd609a1b6064820152608490fd5b90919015612929575090565b8151156129395750805190602001fd5b60405162461bcd60e51b81526020600482015290819061295d906024830190612762565b0390fdfe360894a13ba1a3210667c828492db98dca3e2076cc3735a920a3ca505d382bbca264697066735822122018d64949aecc62b0f267399236d5cd1d85f43f79a05b91afcf3714763a0fbb9d64736f6c634300081b0033",
  "linkReferences": {},
  "deployedLinkReferences": {}
}