{
  "_format": "hh-sol-artifact-1",
  "contractName": "PengoFactory",
  "sourceName": "contracts/utils/PengoFactory.sol",
  "abi": [
    {
      "inputs": [],
      "stateMutability": "nonpayable",
      "type": "constructor"
    },
    {
      "anonymous": false,
      "inputs": [
        {
          "indexed": false,
          "internalType": "string",
          "name": "part",
          "type": "string"
        },
        {
          "indexed": false,
          "internalType": "string",
          "name": "byteData",
          "type": "string"
        }
      ],
      "name": "CoordinatesInitialized",
      "type": "event"
    },
    {
      "anonymous": false,
      "inputs": [
        {
          "indexed": true,
          "internalType": "address",
          "name": "previousOwner",
          "type": "address"
        },
        {
          "indexed": true,
          "internalType": "address",
          "name": "newOwner",
          "type": "address"
        }
      ],
      "name": "OwnershipTransferred",
      "type": "event"
    },
    {
      "anonymous": false,
      "inputs": [
        {
          "indexed": false,
          "internalType": "string",
          "name": "part",
          "type": "string"
        }
      ],
      "name": "RemovedPart",
      "type": "event"
    },
    {
      "inputs": [
        {
          "internalType": "string",
          "name": "",
          "type": "string"
        }
      ],
      "name": "allowedParts",
      "outputs": [
        {
          "internalType": "bool",
          "name": "",
          "type": "bool"
        }
      ],
      "stateMutability": "view",
      "type": "function"
    },
    {
      "inputs": [],
      "name": "getAllAllowedParts",
      "outputs": [
        {
          "internalType": "string[]",
          "name": "",
          "type": "string[]"
        }
      ],
      "stateMutability": "view",
      "type": "function"
    },
    {
      "inputs": [
        {
          "internalType": "string",
          "name": "part",
          "type": "string"
        }
      ],
      "name": "getPixelPart",
      "outputs": [
        {
          "internalType": "uint256[]",
          "name": "xCoords",
          "type": "uint256[]"
        },
        {
          "internalType": "uint256[]",
          "name": "yCoords",
          "type": "uint256[]"
        }
      ],
      "stateMutability": "view",
      "type": "function"
    },
    {
      "inputs": [
        {
          "internalType": "string",
          "name": "part",
          "type": "string"
        },
        {
          "internalType": "string",
          "name": "byteData",
          "type": "string"
        }
      ],
      "name": "initializeCoordinates",
      "outputs": [],
      "stateMutability": "nonpayable",
      "type": "function"
    },
    {
      "inputs": [
        {
          "internalType": "string",
          "name": "part",
          "type": "string"
        }
      ],
      "name": "isAllowedPart",
      "outputs": [
        {
          "internalType": "bool",
          "name": "",
          "type": "bool"
        }
      ],
      "stateMutability": "view",
      "type": "function"
    },
    {
      "inputs": [
        {
          "internalType": "string",
          "name": "part",
          "type": "string"
        },
        {
          "internalType": "uint8",
          "name": "x",
          "type": "uint8"
        },
        {
          "internalType": "uint8",
          "name": "y",
          "type": "uint8"
        }
      ],
      "name": "isValidCoordinate",
      "outputs": [
        {
          "internalType": "bool",
          "name": "",
          "type": "bool"
        }
      ],
      "stateMutability": "view",
      "type": "function"
    },
    {
      "inputs": [],
      "name": "owner",
      "outputs": [
        {
          "internalType": "address",
          "name": "",
          "type": "address"
        }
      ],
      "stateMutability": "view",
      "type": "function"
    },
    {
      "inputs": [],
      "name": "pengoContract",
      "outputs": [
        {
          "internalType": "contract IPenguinOnchain",
          "name": "",
          "type": "address"
        }
      ],
      "stateMutability": "view",
      "type": "function"
    },
    {
      "inputs": [
        {
          "internalType": "string",
          "name": "",
          "type": "string"
        },
        {
          "internalType": "uint8",
          "name": "",
          "type": "uint8"
        },
        {
          "internalType": "uint8",
          "name": "",
          "type": "uint8"
        }
      ],
      "name": "pixelMapCoordinates",
      "outputs": [
        {
          "internalType": "bool",
          "name": "",
          "type": "bool"
        }
      ],
      "stateMutability": "view",
      "type": "function"
    },
    {
      "inputs": [
        {
          "internalType": "uint256[]",
          "name": "pixels",
          "type": "uint256[]"
        },
        {
          "internalType": "string[]",
          "name": "colors",
          "type": "string[]"
        }
      ],
      "name": "reconstructHexString",
      "outputs": [
        {
          "internalType": "string",
          "name": "",
          "type": "string"
        }
      ],
      "stateMutability": "pure",
      "type": "function"
    },
    {
      "inputs": [
        {
          "internalType": "string",
          "name": "part",
          "type": "string"
        }
      ],
      "name": "removeAllowedPart",
      "outputs": [],
      "stateMutability": "nonpayable",
      "type": "function"
    },
    {
      "inputs": [],
      "name": "renounceOwnership",
      "outputs": [],
      "stateMutability": "nonpayable",
      "type": "function"
    },
    {
      "inputs": [
        {
          "internalType": "address",
          "name": "_pengoContract",
          "type": "address"
        }
      ],
      "name": "setPengoContract",
      "outputs": [],
      "stateMutability": "nonpayable",
      "type": "function"
    },
    {
      "inputs": [
        {
          "internalType": "uint256",
          "name": "tokenId",
          "type": "uint256"
        },
        {
          "internalType": "uint256",
          "name": "seed",
          "type": "uint256"
        }
      ],
      "name": "tokenURI",
      "outputs": [
        {
          "internalType": "string",
          "name": "",
          "type": "string"
        }
      ],
      "stateMutability": "view",
      "type": "function"
    },
    {
      "inputs": [
        {
          "internalType": "address",
          "name": "newOwner",
          "type": "address"
        }
      ],
      "name": "transferOwnership",
      "outputs": [],
      "stateMutability": "nonpayable",
      "type": "function"
    }
  ],
  "bytecode": "0x60806040523461002257610011610027565b60405161449d610106823961449d90f35b600080fd5b61002f610031565b565b61002f336100ae565b61004b905b6001600160a01b031690565b90565b61004b905461003a565b61004b9061003f906001600160a01b031682565b61004b90610058565b61004b9061006c565b9061008e61004b6100aa92610075565b82546001600160a01b0319166001600160a01b03919091161790565b9055565b6100d46100ce6100be600061004e565b6100c984600061007e565b610075565b91610075565b907f8be0079c531659141344cd1fd0a4f28419497f9722a3daafe3b4186f6b6457e06100ff60405190565b600090a356fe6080604052600436101561001257600080fd5b60003560e01c80633d2620d01461010257806357ad1ced146100fd578063715018a6146100f857806372565e23146100f357806381bb57c7146100ee5780638da5cb5b146100e957806392cb829d146100e4578063ac2a2407146100df578063ac984131146100da578063b1650cd0146100d5578063c36a2bff146100d0578063df0cfde2146100cb578063f2fde38b146100c6578063f589e3b5146100c15763fbac2c94036101b45761093a565b610921565b6108c2565b6108aa565b61085e565b6107eb565b6107b4565b610732565b610716565b6106be565b61068b565b6105dc565b610426565b6103ed565b61027b565b634e487b7160e01b600052604160045260246000fd5b90601f01601f191681019081106001600160401b0382111761013e57604052565b610107565b9061015761015060405190565b928361011d565b565b6001600160401b03811161013e57602090601f01601f19160190565b0190565b90826000939282370152565b9092919261019a61019582610159565b610143565b93818552818301116101b457610157916020850190610179565b600080fd5b9080601f830112156101b4578160206101d493359101610185565b90565b906020828203126101b45781356001600160401b0381116101b4576101d492016101b9565b9052565b9061022061021961020f845190565b8084529260200190565b9260200190565b9060005b8181106102315750505090565b90919261024e6102476001928651815260200190565b9460200190565b929101610224565b60408082526101d493919261026d91840190610200565b916020818403910152610200565b346101b45761029361028e3660046101d7565b610a5e565b906102a96102a060405190565b92839283610256565b0390f35b60ff81165b036101b457565b90503590610157826102ad565b90916060828403126101b45781356001600160401b0381116101b4576102f1846101d49285016101b9565b93604061030182602087016102b9565b94016102b9565b60005b83811061031b5750506000910152565b818101518382015260200161030b565b6101756103439260209261033d815190565b94859290565b93849101610308565b61035c610175916020949361032b565b918252565b61037661036d60405190565b9283928361034c565b03902090565b6101d491610361565b6103956101d46101d49260ff1690565b60ff1690565b906103a590610385565b600052602052604060002090565b6101d4916008021c610395565b906101d491546103b3565b6101d4926103e36000936103e36103e894600161037c565b61039b565b6103c0565b346101b4576102a96104096104033660046102c6565b916103cb565b60405191829182901515815260200190565b60009103126101b457565b346101b45761043636600461041b565b61043e610b66565b604051005b6001600160401b03811161013e5760208091020190565b806102b2565b905035906101578261045a565b9092919261047d61019582610443565b93818552602080860192028301928184116101b457915b8383106104a15750505050565b602080916104af8486610460565b815201920191610494565b9080601f830112156101b4578160206101d49335910161046d565b9291906104e461019582610443565b93818552602080860192028101918383116101b45781905b83821061050a575050505050565b81356001600160401b0381116101b45760209161052a87849387016101b9565b8152019101906104fc565b9080601f830112156101b4578160206101d4933591016104d5565b9190916040818403126101b45780356001600160401b0381116101b457836105799183016104ba565b9260208201356001600160401b0381116101b4576101d49201610535565b6105b86105c1602093610175936105ac815190565b80835293849260200190565b95869101610308565b601f01601f191690565b60208082526101d492910190610597565b346101b4576102a96105f86105f2366004610550565b90610ccd565b604051918291826105cb565b906101d491610597565b9061062461061a835190565b8083529160200190565b90816106366020830284019460200190565b926000915b83831061064a57505050505090565b9091929394602061066d61066683856001950387528951610604565b9760200190565b930193019193929061063b565b60208082526101d49291019061060e565b346101b45761069b36600461041b565b6102a96106a6611037565b6040519182918261067a565b6001600160a01b031690565b346101b4576106ce36600461041b565b6102a96106d96110b6565b604051918291826001600160a01b03909116815260200190565b91906040838203126101b4576101d490602061070f8286610460565b9401610460565b346101b4576102a96105f861072c3660046106f3565b90611fcb565b346101b45761043e6107453660046101d7565b612b40565b6101d4916008021c6001600160a01b031690565b906101d4915461074a565b6101d46000600661075e565b6101d4906106b2906001600160a01b031682565b6101d490610775565b6101d490610789565b6101fc90610792565b602081019291610157919061079b565b346101b4576107c436600461041b565b6102a96107cf610769565b604051918291826107a4565b60006103e86101d492600261037c565b346101b4576102a96104096108013660046101d7565b6107db565b909182601f830112156101b4578135916001600160401b0383116101b45760200192600183028401116101b457565b906020828203126101b45781356001600160401b0381116101b45761085a9201610806565b9091565b346101b4576102a9610409610874366004610835565b90612b8c565b6001600160a01b0381166102b2565b905035906101578261087a565b906020828203126101b4576101d491610889565b346101b45761043e6108bd366004610896565b612bc1565b346101b45761043e6108d5366004610896565b612c65565b9190916040818403126101b45780356001600160401b0381116101b457836109039183016101b9565b9260208201356001600160401b0381116101b4576101d492016101b9565b346101b45761043e6109343660046108da565b90612fba565b346101b4576102a96104096109503660046102c6565b91612fc4565b6101d490610395565b6101d49054610956565b1561097057565b60405162461bcd60e51b815260206004820152601160248201527050617274206e6f7420616c6c6f7765642160781b604482015280606481015b0390fd5b9061035c61019583610443565b369037565b906101576109d66109d0846109ae565b93610443565b601f1901602084016109bb565b6101d46101d46101d49290565b634e487b7160e01b600052603260045260246000fd5b8054919291831015610a2f576020610a25600192600052602060002090565b8185040193060290565b6109f0565b6101d46101d46101d49260ff1690565b90610a4d825190565b811015610a2f576020809102010190565b610a79610a74610a6f83600261037c565b61095f565b610969565b600390610a8e610a8a82600361037c565b5490565b91610a98836109c0565b9081610aa3856109c0565b958690610ab060006109e3565b875b811015610b2357610b1c81610b168b610b0c83610b06610b01610afb8f998f8f9b610b0f610af692610b0c610ab29f610b06610b01610afb89610af689829661037c565b610a06565b906103c0565b610a34565b92610a44565b52565b600461037c565b60010190565b9050610ab0565b509450945094505050565b610b36613044565b610157610b54565b6106b26101d46101d49290565b6101d490610b3e565b610157610b616000610b4b565b61306e565b610157610b2e565b634e487b7160e01b600052601260045260246000fd5b90610b8e565b9190565b908115610b99570690565b610b6e565b15610ba557565b60405162461bcd60e51b8152602060048201526012602482015271496e76616c696420706978656c206461746160701b6044820152606490fd5b634e487b7160e01b600052601160045260246000fd5b8115610b99570490565b15610c0657565b60405162461bcd60e51b815260206004820152601860248201527f506978656c20616e6420636f6c6f72206d69736d6174636800000000000000006044820152606490fd5b81810292918115918404141715610c5e57565b610bdf565b5190565b6103956101d46101d49290565b610c8a610c846101d49260ff1690565b60f81b90565b6001600160f81b03191690565b91908201809211610c5e57565b0180926001600160f81b0319169052565b91610cc76101d49493610cc79361032b565b9061032b565b805191610cfb610ce8600494610ce2866109e3565b90610b84565b610cf5610b8a60006109e3565b14610b9e565b610d2c610d06825190565b610d26610b8a6101d4610d17875190565b610d20896109e3565b90610bf5565b14610bff565b606092610d3960006109e3565b935b610d466101d4845190565b851015610ed457610d56826109e3565b610d609086610c4b565b610d6a9085610a44565b51610d7490610c67565b610d7d90610c74565b610d86836109e3565b610d909087610c4b565b610d9a60016109e3565b610da391610c97565b610dad9086610a44565b51610db790610c67565b610dc090610c74565b610dc9846109e3565b610dd39088610c4b565b610ddd60026109e3565b610de691610c97565b610df09087610a44565b51610dfa90610c67565b610e0390610c74565b90610e0d856109e3565b610e179089610c4b565b610e2160036109e3565b610e2a91610c97565b610e349088610a44565b51610e3e90610c67565b610e4790610c74565b92610e5160405190565b9384936020850193610e83938592610ca4600161017594610ca48288610ca4829b9a83996001600160f81b0319169052565b908103825203610e93908261011d565b610e9d8685610a44565b5190610ea860405190565b9283926020840192610eba9284610cb5565b908103825203610eca908261011d565b9360010193610d3b565b925050506101d49150613124565b60005b828110610ef157505050565b606082820152602001610ee5565b90610157610f0f6109d0846109ae565b601f190160208401610ee2565b8054821015610a2f57610f36600191600052602060002090565b91020190600090565b634e487b7160e01b600052602260045260246000fd5b9060016002830492168015610f75575b6020831014610f7057565b610f3f565b91607f1691610f65565b80546000939291610f9c610f9283610f55565b8085529360200190565b9160018116908115610fee5750600114610fb557505050565b610fc89192939450600052602060002090565b916000925b818410610fda5750500190565b805484840152602090930192600101610fcd565b92949550505060ff1916825215156020020190565b906101d491610f7f565b906101576110279261101e60405190565b93848092611003565b038361011d565b6101d49061100d565b6005611049611044825490565b610eff565b9061105460006109e3565b61105f6101d4835490565b81101561109e578061107d6110776110999385610f1c565b5061102e565b6110878286610a44565b526110928185610a44565b5060010190565b611054565b505090565b6101d4906106b2565b6101d490546110a3565b6101d460006110ac565b9061035c61019583610159565b6110d760046110c0565b63426f647960e01b602082015290565b6101d46110cd565b6110f960076110c0565b66746f705f65796560c81b602082015290565b6101d46110ef565b905051906101578261045a565b9092919261113161019582610159565b93818552818301116101b457610157916020850190610308565b9080601f830112156101b45781516101d492602001611121565b905051906101578261087a565b8015156102b2565b9050519061015782611172565b919091610100818403126101b4576111a0610100610143565b926111ab8183611114565b845260208201516001600160401b0381116101b457816111cc91840161114b565b602085015260408201516001600160401b0381116101b457816111f091840161114b565b604085015260608201516001600160401b0381116101b4578261121a8360e09361125b960161114b565b606087015261122c8360808301611114565b608087015261123e8360a08301611114565b60a08701526112508360c08301611165565b60c08701520161117a565b60e0830152565b92919061127161019582610443565b93818552602080860192028101918383116101b45781905b838210611297575050505050565b81516001600160401b0381116101b4576020916112b78784938701611187565b815201910190611289565b9080601f830112156101b45781516101d492602001611262565b9190916040818403126101b4576112f36040610143565b9260008201516001600160401b0381116101b4578161131391840161114b565b845260208201516001600160401b0381116101b457611332920161114b565b6020830152565b9190916040818403126101b45780516001600160401b0381116101b457836113629183016112c2565b9260208201516001600160401b0381116101b4576101d492016112dc565b6040513d6000823e3d90fd5b61139761032c6110c0565b7f306430623031303134413441344130653061303130313441344134413066306160208201527f303130313441344134413130306130313031344134413441313130613031303160408201527f344134413441306530623031303134413441344130663062303130313441344160608201527f344131303062303130313441344134413131306230313031344134413441313260808201527f306230313031344134413441306430633031303134413441344130643064303160a08201527f303134413441344130643065303130313441344134413065306530313031344160c08201527f344134413066306530313031344134413441313030653031303134413441344160e08201527f31313065303130313441344134413132306530313031344134413441313230646101008201527f30313031344134413441313230633031303134413441344130663063303130316101208201527f34413441344131303063303130313441344134413063306630313031344134416101408201527f34413063306530313031344134413441306230663031303134413441344130616101608201527f31303031303134413441344131333065303130313441344134413133306630316101808201527f30313441344134413134306630313031344134413441306231303031303134416101a08201527f34413441313431303031303134413441344130613131303130313441344134416101c08201527f30623131303130313441344134413062313230313031344134413441306231336101e08201527f30313031344134413441306331333031303134413441344130633134303130316102008201527f34413441344130633135303130313441344134413064313430313031344134416102208201527f34413064313530313031344134413441306531353031303134413441344130666102408201527f31353031303134413441344131303135303130313441344134413131313530316102608201527f30313441344134413132313530313031344134413441313331353031303134416102808201527f34413441313431313031303134413441344131343132303130313441344134416102a08201527f31343133303130313441344134413133313330313031344134413441313331346102c08201527f30313031344134413441313531303031303134413441344131353131303130316102e08201527f34413441344131323134303130313441344134413064306630313031344134416103008201527f34413063313030313031344134413441313230663031303134413441344131336103208201526b31303031303134413441344160a01b61034082015290565b6101d461138c565b6101d4611778565b610cc7906101d4939261032b565b6117a16101f86110c0565b7f306530663031303146464646464630663066303130314646464646463130306660208201527f303130314646464646463131306630313031464646464646306431303031303160408201527f464646464646306331313031303146464646464630633132303130314646464660608201527f464630643133303130314646464646463065313430313031464646464646306660808201527f313430313031464646464646313031343031303146464646464631313134303160a08201527f303146464646464631323133303130314646464646463133313230313031464660c08201527f464646463133313130313031464646464646313231303031303146464646464660e08201527f30653130303130314646464646463066313030313031464646464646313031306101008201527f30313031464646464646313131303031303146464646464631313131303130316101208201527f46464646464631303131303130314646464646463066313130313031464646466101408201527f46463065313130313031464646464646306431313031303146464646464630646101608201527f31323031303146464646464631303132303130314646464646463131313230316101808201527f30314646464646463132313230313031464646464646313231313031303146466101a08201527f46464646313031333031303146464646464630663133303130314646464646466101c08201527f30653133303130314646464646463065313230313031464646464646306631326101e08201527f303130314646464646463131313330313031464646464646000000000000000061020082015290565b6101d4611796565b6101d4611a0d565b6101d460006110c0565b6101d4611a1d565b611a39601c6110c0565b7f3066306430313031463541363233313030643031303146354136323300000000602082015290565b6101d4611a2f565b6101d4611a62565b611a7c601c6110c0565b7f3065306330313031464646464646313130633031303146464646464600000000602082015290565b6101d4611a72565b6101d4611aa5565b611abf601c6110c0565b7f3065306430313031303030303030313130643031303130303030303000000000602082015290565b6101d4611ab5565b6101d4611ae8565b611b0260386110c0565b7f306431363031303146354136323330653136303130314635413632333131313660208201527f3031303146354136323331323136303130314635413632330000000000000000604082015290565b6101d4611af8565b6101d4611b51565b611b6b60016110c0565b600b60fa1b602082015290565b6101d4611b61565b611bd493610cc7611b9f6101d49795610cc7611bbb95610cc79761032b565b6f3d913a3930b4ba2fba3cb832911d101160811b815260100190565b6c111610113b30b63ab2911d101160991b8152600d0190565b61227d60f01b815260020190565b611bec60066110c0565b651e17b9bb339f60d11b602082015290565b6101d4611be2565b6101d4611bfe565b611f55611ed7610cc797610cc7611f1d611ed7611f8d9d9a6101d49f9d98611ee6611ed7610cc79d610cc7611e9e611bd49f611c8b610cc79f91610cc7611e4d611c99611c8b610cc79c610cc7611c6f611e8399607b60f81b815260010190565b6f226e616d65223a202250656e676f202360801b815260100190565b61088b60f21b815260020190565b7f226465736372697074696f6e223a202250656e6775696e204f6e636861696e2081527f697320616e20696e6e6f766174697665206f6e2d636861696e204e465420707260208201527f6f6a6563742074686174207075736865732074686520626f756e64617269657360408201527f206f662067656e657261746976652061727420616e6420626c6f636b6368616960608201527f6e20637573746f6d697a6174696f6e2e20556e6c696b6520747261646974696f60808201527f6e616c204e465420636f6c6c656374696f6e732074686174206172652070726560a08201527f2d67656e65726174656420616e642073746f726564206f66662d636861696e2c60c08201527f2065766572792050656e6775696e204e46542069732067656e6572617465642060e08201527f7573696e6720616e20616c676f726974686d206469726563746c79206f6e20746101008201527f686520626c6f636b636861696e2c20656e737572696e672074727565206465636101208201527f656e7472616c697a6174696f6e20616e6420696d6d75746162696c6974792e22610140820152600b60fa1b6101608201526101610190565b7f22696d616765223a2022646174613a696d6167652f7376672b786d6c3b626173815263194d8d0b60e21b602082015260240190565b6e2261747472696275746573223a205b60881b8152600f0190565b7f7b2274726169745f74797065223a202250656e676f2054797065222c20227661815266363ab2911d101160c91b602082015260270190565b62089f4b60ea1b815260030190565b7f7b2274726169745f74797065223a20224579652054797065222c202276616c7581526432911d101160d91b602082015260250190565b7f7b2274726169745f74797065223a20224c69666520476f616c222c202276616c8152653ab2911d101160d11b602082015260260190565b7f7b2274726169745f74797065223a20224e657420576f727468222c202276616c8152653ab2911d101160d11b602082015260260190565b615d7d60f01b815260020190565b7f646174613a6170706c69636174696f6e2f6a736f6e3b6261736536342c00000081526101d49190601d01610cc7565b90611fe9611fe082611fdb6110e7565b61356d565b91611fdb61110c565b90611ffc611ff760066110ac565b610792565b92600061200860405190565b6382260f3560e01b81526004810183905294859060249082905afa928315612370576000948594612349575b50916121be61213e6101d46121b361213e6101d46121a861213e6101d461219a61213e6101d461218f61213e6101d48f61213e6101d46121769261215e61214a61207d60405190565b6101d4816020810161213e817f3c7376672073686170652d72656e646572696e673d226372697370456467657381527f222076696577426f783d223020302033302033302220786d6c6e733d2268747460208201527f703a2f2f7777772e77332e6f72672f323030302f737667223e0000000000000060408201527f3c726563742077696474683d223130302522206865696768743d223130302522605982015270103334b6361e91119b9a9a9b309c11179f60791b6079820152608a0190565b9081038252038261011d565b916020612155611780565b91015190613a2b565b9061216860405190565b938492602084019283611788565b61215e612181611a15565b612189611a27565b90613a2b565b61215e612181611a6a565b61215e8d6020612155611aad565b61215e612181611af0565b61215e612181611b59565b926121c7611a27565b916000936121d4856109e3565b955b6121e16101d4895190565b8710156122915761226d886101d48961221761213e6101d46122749761215e606061220c878a610a44565b510151612189611a27565b98612220815190565b61222c610b8a8d6109e3565b111561227b5761213e6040612259612242611b78565b945b6020612250828a610a44565b51015197610a44565b510151604051958694602086019485611b80565b9660010190565b95936121d6565b61213e604061225961228b611a27565b94612244565b61231f97506122d296506101d493946101d49987806101d4996122d76122d26122ce6122c861213e6101d461213e9b61215e611c06565b99613e96565b9890565b613fd7565b97015198015191602082820151910151916122fe610b8a6122f8610c638890565b926109e3565b111561233b5761230c611b78565b925b604051998a9860208a019889611c0e565b6101d461232b60405190565b809261213e602083019182611f9b565b612343611a27565b9261230e565b90945082933d8091833e61235d818361011d565b810161236891611339565b949093612034565b611380565b61015790612381613044565b61291a565b1561238d57565b60405162461bcd60e51b815260206004820152600e60248201526d14185c9d081b9bdd08199bdd5b9960921b6044820152606490fd5b919060086123dc9102916123d760ff841b90565b921b90565b9181191691161790565b91906123f76101d46123ff93151590565b9083546123c3565b9055565b610157916000916123e6565b60016101d4910160ff1690565b9160001960089290920291821b911b6123dc565b91906124416101d46123ff936109e3565b90835461241c565b61015791600091612430565b818110612460575050565b8061246e6000600193612449565b01612455565b9061248790600019906020036008021c90565b8154169055565b91909182821061249d57505050565b610157926020601f9091010490600160206124c4601f860182900493600052602060002090565b928301940602600081116124db575b500190612455565b6124e89060018503612474565b386124d3565b90600160401b811161013e5781612506610157935490565b9082815561248e565b6000610157916124ee565b634e487b7160e01b600052600060045260246000fd5b90600003612541576101579061250f565b61251a565b8054600093929161255d61255983610f55565b9390565b91600181169081156125ae575060011461257657505050565b6125899192939450600052602060002090565b6000905b83821061259a5750500190565b60018160209254848601520191019061258d565b60ff191683525050811515909102019150565b6101d491612546565b6101d49161032b565b91908203918211610c5e57565b6101d49054610f55565b8181106125f5575050565b806126036000600193612449565b016125ea565b9190601f811161261857505050565b61262a61015793600052602060002090565b906020601f84018190048301931061264d575b6020601f909101045b01906125ea565b909150819061263d565b600019600883021c1916906002021790565b908082146127465761267a816125e0565b906001600160401b03821161013e5761269d826126978554610f55565b85612609565b600090601f83116001146126cb576123ff9291600091836126c0575b5050612657565b0154905038806126b9565b906126e0601f19841692600052602060002090565b906126f085600052602060002090565b92815b81811061272e57509160029391856001969410612714575b50505002019055565b01546000196008601f8516021c19165b905538808061270b565b919360018060209287870154815501950192016126f3565b5050565b91906125415761015791612669565b634e487b7160e01b600052603160045260246000fd5b9060009161278d61278582600052602060002090565b928354612657565b905555565b91929060208210156127ea57601f84116001146127b4576123ff929350612657565b50906127e56101579360016127dc6127d185600052602060002090565b92601f602091010490565b820191016125ea565b61276f565b506128238293612801600194600052602060002090565b6126466020601f860104820192601f86168061282b575b50601f602091010490565b600202179055565b61283790888603612474565b38612818565b929091600160401b821161013e5760201115612884576020811015612865576123ff91612657565b60019160ff191661287b84600052602060002090565b55600202019055565b60019150600202019055565b90815461289c81610f55565b908183116128c5575b8183106128b3575b50505050565b6128bc93612792565b388080806128ad565b6128d18383838761283d565b6128a5565b600061015791612890565b9060000361254157610157906128d6565b8054801561291557600019019061291261290c8383610f1c565b906128e1565b55565b612759565b9061293161292c610a6f84600261037c565b612386565b612946600061294184600261037c565b612403565b600061295181610c67565b905b60ff9261295f84610c67565b60ff841610156129e95761297282610c67565b61297b85610c67565b60ff821610156129d6576129b39084846001838a6129a4610a6f836103e3886103e3868961037c565b6129b8575b505050505061240f565b612972565b6129cc946103e36103e3926129419561037c565b848438838a6129a9565b509250906129e39061240f565b90612953565b939250612a199150612a0581612a0085600361037c565b612530565b612a1481612a0085600461037c565b6109e3565b6005612a266101d4825490565b821015612b1457612a378282610f1c565b50612a54612a4460405190565b809261213e6020830191826125c1565b612a66612a5f825190565b9160200190565b20612a97610b8a612a7660405190565b612a88816020810161213e8a826125ca565b612a93612a5f825190565b2090565b14612aa55750600101612a19565b916105f8612b0a846101d4612b0f95612b04612afc612af6612ae67f5337ade8d1d62c362903db3fd2aa9ffcba271a15ce038a502e476b7e173811ff9b5490565b612af060016109e3565b906125d3565b85610f1c565b509184610f1c565b9061274a565b6128f2565b0390a1565b5050612b0f7f5337ade8d1d62c362903db3fd2aa9ffcba271a15ce038a502e476b7e173811ff916105f8565b61015790612375565b90916101759083908093610179565b61035c906020949361017593612b49565b909161037690612b7860405190565b93849384612b58565b90916101d492612b69565b6101d491610a6f916002612b81565b906001600160a01b03906123dc565b90612bba6101d46123ff92610792565b8254612b9b565b612bcd61015791610792565b6006612baa565b61015790612be0613044565b612c40565b15612bec57565b60405162461bcd60e51b815260206004820152602660248201527f4f776e61626c653a206e6577206f776e657220697320746865207a65726f206160448201526564647265737360d01b6064820152608490fd5b61015790610b61612c546106b26000610b4b565b6001600160a01b0383161415612be5565b61015790612bd4565b9061015791612c7b613044565b612e5e565b15612c8757565b60405162461bcd60e51b815260206004820152601860248201527f5061727420616c726561647920696e697469616c697a656400000000000000006044820152606490fd5b90612cd5825190565b811015610a2f570160200190565b6101d49060f81c610385565b9060ff906123dc565b90612d086101d46123ff92151590565b8254612cef565b91906123f76101d46123ff93610385565b90815491600160401b83101561013e5782612d4391600161015795018155610a06565b90612d0f565b90612d52815190565b906001600160401b03821161013e57612d6f826126978554610f55565b602090601f8311600114612d9c576123ff929160009183612d91575050612657565b0151905038806126b9565b601f19831691612db185600052602060002090565b9260005b818110612de957509160029391856001969410612dd55750505002019055565b01516000196008601f8516021c1916612724565b91936020600181928787015181550195019201612db5565b91906125415761015791612d49565b90815491600160401b83101561013e5782612e3391600161015795018155610f1c565b90612e01565b60408082526101d4939192612e5091840190610597565b916020818403910152610597565b612e7b612e76612e72610a6f84600261037c565b1590565b612c80565b612e8482614165565b90612e8d825190565b93612e9e600795610d2060076109e3565b93612ea960006109e3565b855b811015612f6257612f5b612eab91610b166103e3612f4d612efb612f3a8b612f358f6103e3612ee48f92612ede906109e3565b8b610c4b565b93612f2c612f09612f0e612f09612efb8986612ccc565b516001600160f81b03191690565b612ce3565b988993612f26600199612f208b6109e3565b90610c97565b90612ccc565b9889938661037c565b612cf8565b612f486101d48b600361037c565b612d20565b612f486101d489600461037c565b9050612ea9565b50925093507f89fb70f7621117a0372d49c06a6a61941c90f12179dc3998d02d8ddd336640fe9250612f9a6001612f3583600261037c565b612fa5816005612e10565b612b0f612fb160405190565b92839283612e39565b9061015791612c6e565b916103e3610a6f926103e36101d495612fdb600090565b50612fed610a74610a6f83600261037c565b600161037c565b15612ffb57565b60405162461bcd60e51b8152806109aa600482016020808252818101527f4f776e61626c653a2063616c6c6572206973206e6f7420746865206f776e6572604082015260600190565b61015761304f6110b6565b61306861305b336106b2565b916001600160a01b031690565b14612ff4565b61308f61308961307e60006110ac565b611ff7846000612baa565b91610792565b907f8be0079c531659141344cd1fd0a4f28419497f9722a3daafe3b4186f6b6457e06130ba60405190565b600090a3565b6130ca60106110c0565b6f181899199a1a9b1b9c1ca0a121a222a360811b602082015290565b6101d46130c0565b906101576109d66130fe846110c0565b93610159565b6103959061311f6131186101d49460ff1690565b9160ff1690565b901c90565b9061312d6130e6565b600261315161314c61313d865190565b61314760026109e3565b610c4b565b6130ee565b9160009461315f60006109e3565b61316a6101d4835190565b81101561321457806131a7612efb6131a1610b01613191612f09612efb61320f988a612ccc565b61319b6004610c67565b90613104565b86612ccc565b6131c16131b783613147896109e3565b918a1a9188612ccc565b536131eb612efb6131a16131db612f09612efb8689612ccc565b6131e5600f610c67565b16610a34565b6132086131b76131fe846131478a6109e3565b612f2060016109e3565b5360010190565b61315f565b505050506101d491925090565b6101d46040610143565b613233613221565b906060825260606020830152565b6101d461322b565b61325360066110c0565b655a6f6d62696560d01b602082015290565b6101d4613249565b61327760066110c0565b6519981a30989960d11b602082015290565b6101d461326d565b61329b60066110c0565b6541726374696360d01b602082015290565b6101d4613291565b6132bf60066110c0565b651a992098232360d11b602082015290565b6101d46132b5565b6132e360046110c0565b634669726560e01b602082015290565b6101d46132d9565b61330560066110c0565b6507272606e62760d31b602082015290565b6101d46132fb565b61332960046110c0565b634d616c6560e01b602082015290565b6101d461331f565b61334b60066110c0565b651a211a219a2360d11b602082015290565b6101d4613341565b61336f60066110c0565b6546656d616c6560d01b602082015290565b6101d4613365565b61339360066110c0565b651ca11ca11ca160d11b602082015290565b6101d4613389565b6133b7600a6110c0565b695a6f6d6269652045796560b01b602082015290565b6101d46133ad565b6133df60066110c0565b6544373437353560d01b602082015290565b6101d46133d5565b61340360086110c0565b6714dd185b99185c9960c21b602082015290565b6101d46133f9565b61342960066110c0565b6523232323232360d11b602082015290565b6101d461341f565b61344d600c6110c0565b6b507572706c6520536861646560a01b602082015290565b6101d4613443565b61347760066110c0565b6541383637453160d01b602082015290565b6101d461346d565b61349b60066110c0565b65536c6565707960d01b602082015290565b6101d4613491565b6134bf60066110c0565b650d0e0dcc904d60d21b602082015290565b6101d46134b5565b6134e360096110c0565b68416e636573746f727360b81b602082015290565b6101d46134d9565b61350a60066110c0565b6504230423042360d41b602082015290565b6101d4613500565b61352e60076110c0565b662ab735b737bbb760c91b602082015290565b6101d4613524565b61355360066110c0565b6503030303030360d41b602082015290565b6101d4613549565b90613576613241565b5061358261c3506109e3565b9061358d8282610b84565b9261359760405190565b6135a9816020810161213e85826125ca565b6135b4612a5f825190565b206135e0610b8a6135c460405190565b612a88816020810161213e8163426f647960e01b815260040190565b14613813576136016135f160405190565b809261213e6020830191826125ca565b61360c612a5f825190565b2061363b610b8a61361c60405190565b612a88816020810161213e8166746f705f65796560c81b815260070190565b146136655750505061364b613221565b61365a613656613541565b8252565b6101d4611332613565565b61367190611fdb6110e7565b5160405161367e906135f1565b613689612a5f825190565b206136b7610b8a61369960405190565b612a88816020810161213e81655a6f6d62696560d01b815260060190565b146137f3576136cc61012c91612af0836109e3565b6136ec6136e26136dc60056109e3565b83610c4b565b610d2060646109e3565b9161371a6136e26137096136e2613703600a6109e3565b86610c4b565b93613714601e6109e3565b90610c4b565b61372f6101d48561372a856109e3565b610c97565b851015613759575050505050613743613221565b61374e6136566134f8565b6101d461133261351c565b61376d6101d48461372a8761372a876109e3565b851015613797575050505050613781613221565b61378c6136566134ad565b6101d46113326134d1565b61372a610b8a9361372a6137b19661372a6101d4966109e3565b10156137d5576137bf613221565b6137ca613656613465565b6101d4611332613489565b6137dd613221565b6137e8613656613417565b6101d461133261343b565b50506137fd613221565b6138086136566133cd565b6101d46113326133f1565b505061012c90613822826109e3565b831061391857612af0613834926109e3565b61383f6103e86109e3565b82106138f85761385490612af06102bc6109e3565b6109c4613860816109e3565b83106138d7576101d4610b8a9161372a61388f61388561389596612af06105dc6109e3565b610d2060026109e3565b916109e3565b10156138b9576138a3613221565b6138ae613656613381565b6101d46113326133a5565b6138c1613221565b6138cc613656613339565b6101d461133261335d565b5050506138e2613221565b6138ed6136566132f3565b6101d4611332613317565b5050613902613221565b61390d6136566132ad565b6101d46113326132d1565b505050613923613221565b61392e613656613265565b6101d4611332613289565b1561394057565b60405162461bcd60e51b815260206004820152601960248201527f496e76616c696420706978656c2064617461206c656e677468000000000000006044820152606490fd5b6139f16101d49795610cc76139dc610cc797610cc76139cb613a0799610cc76139b6613a1c9f9b9a610cc79b61032b565b683c7265637420783d2760b81b815260090190565b642720793d2760d81b815260050190565b68272077696474683d2760b81b815260090190565b6927206865696768743d2760b01b8152600a0190565b68272066696c6c3d272360b81b815260090190565b6213979f60e91b815260030190565b613a3490614165565b8051613a46600791610ce260076109e3565b90613a5f600092613a59610b8a856109e3565b14613939565b613a67611a27565b90613a7d613a73855190565b610d2060076109e3565b95600492613a9b613a96613a90866109e3565b8a610c4b565b6109c0565b94613aa589610eff565b97613aaf826109e3565b8a811015613d3957613ac0866109e3565b613aca9082610c4b565b613ad4818b612ccc565b516001600160f81b031916613ae890612ce3565b613af190610a34565b613afa896109e3565b613b049084610c4b565b613b0e908b610a44565b526001613b1a816109e3565b613b249083610c97565b613b2e908c612ccc565b516001600160f81b031916613b4290612ce3565b613b4b90610a34565b90613b558a6109e3565b613b5f9085610c4b565b90613b69906109e3565b613b7291610c97565b613b7c908b610a44565b526002613b88816109e3565b613b929083610c97565b613b9c908c612ccc565b516001600160f81b031916613bb090612ce3565b613bb990610a34565b90613bc38a6109e3565b613bcd9085610c4b565b90613bd7906109e3565b613be091610c97565b613bea908b610a44565b526003613bf6816109e3565b613c009083610c97565b613c0a908c612ccc565b516001600160f81b031916613c1e90612ce3565b613c2790610a34565b90613c318a6109e3565b613c3b9085610c4b565b90613c45906109e3565b613c4e91610c97565b613c58908b610a44565b52613c62886109e3565b613c6c9082610c97565b613c76908b612ccc565b516001600160f81b031916613c8a9061424e565b90613c9560056109e3565b613c9f9082610c97565b613ca9908c612ccc565b516001600160f81b031916613cbd9061424e565b90613cc860066109e3565b613cd191610c97565b613cdb908c612ccc565b516001600160f81b031916613cef9061424e565b90613cf960405190565b9283926020840192613d0b9284610cb5565b908103825203613d1b908261011d565b613d25828c610a44565b52613d30818b610a44565b50600101613aaf565b509298509250929450613d4b826109e3565b925b613d586101d4865190565b841015613e5e57613d698486610a44565b51613d7460016109e3565b613d7e9086610c97565b613d889087610a44565b5190613d9460026109e3565b613d9e9087610c97565b613da89088610a44565b5190613db460036109e3565b613dbe9088610c97565b613dc89089610a44565b5192613dd38a6109e3565b613ddd9089610bf5565b613de7908c610a44565b51948651613df4896109e3565b10613e5096613e46966101d49561213e93613e56575b613e28613e22613e1c613e2e936142d6565b976142d6565b986142d6565b916142d6565b90613e3860405190565b978896602088019687613985565b93612f20876109e3565b92613d4d565b8a9250613e0a565b9550505050505090565b613e7260016110c0565b600360fc1b602082015290565b6101d4613e68565b6000198114610c5e5760010190565b906000613ea2816109e3565b8314613f63579091908160005b613eb8836109e3565b8414613edb57613eca613ed591613e87565b93610d20600a6109e3565b92613eaf565b91939250613ee8826130ee565b915b613ef3856109e3565b8214613f5857613f0a613f5291612af060016109e3565b91610d20600a84613f4c613f43613f3e613f39613f2f613f29876109e3565b89610b84565b61372a60306109e3565b610c67565b610c74565b8a1a9188612ccc565b536109e3565b90613eea565b50506101d491925090565b5090506101d4613e7f565b613f7860406110c0565b7f4142434445464748494a4b4c4d4e4f505152535455565758595a61626364656660208201527f6768696a6b6c6d6e6f707172737475767778797a303132333435363738392b2f604082015290565b6101d4613f6e565b6101d4613fc7565b8051613fe6610b8a60006109e3565b146140dd57613ff3613fcf565b90614009613fff825190565b612f2060026109e3565b90600161402961401f600394610d2060036109e3565b61314760046109e3565b9361404061314c61403a60206109e3565b87610c97565b94855201918192825183019160208601945b838110614095575050505060039051068060011461408457600214614075575090565b603d60f81b6000199091015290565b50613d3d60f01b6001199091015290565b8160019196929394960191603f828080865194848660121c168a01518153018385600c1c16890151815301828460061c16880151815301911685015181530194929190614052565b506101d4611a27565b156140ed57565b60405162461bcd60e51b815260206004820152601960248201527f496e76616c69642068657820737472696e67206c656e677468000000000000006044820152606490fd5b61413e9060ff16613118565b029060ff8216918203610c5e57565b6141599060ff16613118565b019060ff8211610c5e57565b9061416e825190565b9161417e600293610ce2856109e3565b92614198600094614192610b8a60006109e3565b146140e6565b6141af61314c6141a6845190565b610d20846109e3565b916141ba60006109e3565b6141d16101d46141c8845190565b610d20866109e3565b8110156142465780614235613f3e614216614206614201612efb6141fb614241986131478c6109e3565b89612ccc565b61435e565b6142106010610c67565b90614132565b61422f614201612efb6141fb6131fe886131478d6109e3565b9061414d565b871a6132088287612ccc565b6141ba565b509193505050565b6101d4906142bc612efb6142606130e6565b612f2661427961427361314c60026109e3565b95612ce3565b61429b612efb614295610b0161428f6004610c67565b85613104565b85612ccc565b60001a6142b16142ab60006109e3565b88612ccc565b536131e5600f610c67565b60001a6142d26142cc60016109e3565b83612ccc565b5390565b9060006142e2816109e3565b8314613f63579091908160005b6142f8836109e3565b841461431057613eca61430a91613e87565b926142ef565b9193925061431d826130ee565b915b614328856109e3565b8214613f5857613f0a61433f91612af060016109e3565b9061431f565b6143519060ff16613118565b90039060ff8211610c5e57565b61436790612ce3565b6143716030610c67565b60ff8216101580614451575b15614396576101d4906143906030610c67565b90614345565b6143a06041610c67565b60ff821610158061443b575b156143bf576101d4906143906037610c67565b6143c96061610c67565b60ff8216101580614425575b156143e8576101d4906143906057610c67565b60405162461bcd60e51b815260206004820152601560248201527424b73b30b634b2103432bc1031b430b930b1ba32b960591b6044820152606490fd5b506144306066610c67565b60ff821611156143d5565b506144466046610c67565b60ff821611156143ac565b5061445c6039610c67565b60ff8216111561437d56fea2646970667358221220af40782f4d57dcf9144d4fab4e86fc01c0b3a7bd6328845d84da39345e9d9c6b64736f6c634300081b0033",
  "linkReferences": {},
  "deployedLinkReferences": {}
}