{
  "_format": "hh-sol-artifact-1",
  "contractName": "PengoFactory",
  "sourceName": "contracts/utils/PengoFactory.sol",
  "abi": [
    {
      "inputs": [],
      "stateMutability": "nonpayable",
      "type": "constructor"
    },
    {
      "anonymous": false,
      "inputs": [
        {
          "indexed": false,
          "internalType": "string",
          "name": "part",
          "type": "string"
        },
        {
          "indexed": false,
          "internalType": "string",
          "name": "byteData",
          "type": "string"
        }
      ],
      "name": "CoordinatesInitialized",
      "type": "event"
    },
    {
      "anonymous": false,
      "inputs": [
        {
          "indexed": true,
          "internalType": "address",
          "name": "previousOwner",
          "type": "address"
        },
        {
          "indexed": true,
          "internalType": "address",
          "name": "newOwner",
          "type": "address"
        }
      ],
      "name": "OwnershipTransferred",
      "type": "event"
    },
    {
      "anonymous": false,
      "inputs": [
        {
          "indexed": false,
          "internalType": "string",
          "name": "part",
          "type": "string"
        }
      ],
      "name": "RemovedPart",
      "type": "event"
    },
    {
      "inputs": [],
      "name": "_createContractURI",
      "outputs": [
        {
          "internalType": "string",
          "name": "",
          "type": "string"
        }
      ],
      "stateMutability": "view",
      "type": "function"
    },
    {
      "inputs": [
        {
          "internalType": "string",
          "name": "",
          "type": "string"
        }
      ],
      "name": "allowedParts",
      "outputs": [
        {
          "internalType": "bool",
          "name": "",
          "type": "bool"
        }
      ],
      "stateMutability": "view",
      "type": "function"
    },
    {
      "inputs": [],
      "name": "getAllAllowedParts",
      "outputs": [
        {
          "internalType": "string[]",
          "name": "",
          "type": "string[]"
        }
      ],
      "stateMutability": "view",
      "type": "function"
    },
    {
      "inputs": [
        {
          "internalType": "string",
          "name": "part",
          "type": "string"
        }
      ],
      "name": "getPixelPart",
      "outputs": [
        {
          "internalType": "uint256[]",
          "name": "xCoords",
          "type": "uint256[]"
        },
        {
          "internalType": "uint256[]",
          "name": "yCoords",
          "type": "uint256[]"
        }
      ],
      "stateMutability": "view",
      "type": "function"
    },
    {
      "inputs": [
        {
          "internalType": "string",
          "name": "part",
          "type": "string"
        },
        {
          "internalType": "string",
          "name": "byteData",
          "type": "string"
        }
      ],
      "name": "initializeCoordinates",
      "outputs": [],
      "stateMutability": "nonpayable",
      "type": "function"
    },
    {
      "inputs": [
        {
          "internalType": "string",
          "name": "part",
          "type": "string"
        }
      ],
      "name": "isAllowedPart",
      "outputs": [
        {
          "internalType": "bool",
          "name": "",
          "type": "bool"
        }
      ],
      "stateMutability": "view",
      "type": "function"
    },
    {
      "inputs": [
        {
          "internalType": "string",
          "name": "part",
          "type": "string"
        },
        {
          "internalType": "uint8",
          "name": "x",
          "type": "uint8"
        },
        {
          "internalType": "uint8",
          "name": "y",
          "type": "uint8"
        }
      ],
      "name": "isValidCoordinate",
      "outputs": [
        {
          "internalType": "bool",
          "name": "",
          "type": "bool"
        }
      ],
      "stateMutability": "view",
      "type": "function"
    },
    {
      "inputs": [],
      "name": "owner",
      "outputs": [
        {
          "internalType": "address",
          "name": "",
          "type": "address"
        }
      ],
      "stateMutability": "view",
      "type": "function"
    },
    {
      "inputs": [],
      "name": "pengoContract",
      "outputs": [
        {
          "internalType": "contract IPenguinOnchain",
          "name": "",
          "type": "address"
        }
      ],
      "stateMutability": "view",
      "type": "function"
    },
    {
      "inputs": [
        {
          "internalType": "string",
          "name": "",
          "type": "string"
        },
        {
          "internalType": "uint8",
          "name": "",
          "type": "uint8"
        },
        {
          "internalType": "uint8",
          "name": "",
          "type": "uint8"
        }
      ],
      "name": "pixelMapCoordinates",
      "outputs": [
        {
          "internalType": "bool",
          "name": "",
          "type": "bool"
        }
      ],
      "stateMutability": "view",
      "type": "function"
    },
    {
      "inputs": [
        {
          "internalType": "uint256[]",
          "name": "pixels",
          "type": "uint256[]"
        },
        {
          "internalType": "string[]",
          "name": "colors",
          "type": "string[]"
        }
      ],
      "name": "reconstructHexString",
      "outputs": [
        {
          "internalType": "string",
          "name": "",
          "type": "string"
        }
      ],
      "stateMutability": "pure",
      "type": "function"
    },
    {
      "inputs": [
        {
          "internalType": "string",
          "name": "part",
          "type": "string"
        }
      ],
      "name": "removeAllowedPart",
      "outputs": [],
      "stateMutability": "nonpayable",
      "type": "function"
    },
    {
      "inputs": [],
      "name": "renounceOwnership",
      "outputs": [],
      "stateMutability": "nonpayable",
      "type": "function"
    },
    {
      "inputs": [
        {
          "internalType": "address",
          "name": "_pengoContract",
          "type": "address"
        }
      ],
      "name": "setPengoContract",
      "outputs": [],
      "stateMutability": "nonpayable",
      "type": "function"
    },
    {
      "inputs": [
        {
          "internalType": "uint256",
          "name": "tokenId",
          "type": "uint256"
        },
        {
          "internalType": "uint256",
          "name": "seed",
          "type": "uint256"
        }
      ],
      "name": "tokenURI",
      "outputs": [
        {
          "internalType": "string",
          "name": "",
          "type": "string"
        }
      ],
      "stateMutability": "view",
      "type": "function"
    },
    {
      "inputs": [
        {
          "internalType": "address",
          "name": "newOwner",
          "type": "address"
        }
      ],
      "name": "transferOwnership",
      "outputs": [],
      "stateMutability": "nonpayable",
      "type": "function"
    }
  ],
  "bytecode": "0x608080604052346059575f8054336001600160a01b0319821681178355916001600160a01b03909116907f8be0079c531659141344cd1fd0a4f28419497f9722a3daafe3b4186f6b6457e09080a3613d7e908161005e8239f35b5f80fdfe60806040526004361015610011575f80fd5b5f3560e01c80633d2620d01461277b57806357ad1ced146126f5578063715018a61461269e57806372565e23146122f757806381bb57c71461216f5780638da5cb5b1461214857806392cb829d14611008578063ac2a240714610c60578063ac98413114610c38578063b1650cd014610bde578063c36a2bff14610b88578063df0cfde214610b04578063f2fde38b14610a3a578063f589e3b5146106e6578063fbac2c94146106465763ff0b5db7146100c9575f80fd5b34610642575f3660031901126106425761038a6040516100e8816128a1565b60608152604051906100fc610240836128d7565b61021182527f7b226e616d65223a202250656e6775696e204f6e636861696e222c226465736360208301527f72697074696f6e223a202250656e6775696e204f6e636861696e20697320616e60408301527f20696e6e6f766174697665206f6e2d636861696e204e46542070726f6a65637460608301527f2074686174207075736865732074686520626f756e646172696573206f66206760808301527f656e657261746976652061727420616e6420626c6f636b636861696e2063757360a08301527f746f6d697a6174696f6e2e20556e6c696b6520747261646974696f6e616c204e60c08301527f465420636f6c6c656374696f6e73207468617420617265207072652d67656e6560e08301527f726174656420616e642073746f726564206f66662d636861696e2c20657665726101008301527f792050656e6775696e204e46542069732067656e657261746564207573696e676101208301527f20616e20616c676f726974686d206469726563746c79206f6e2074686520626c6101408301527f6f636b636861696e2c20656e737572696e67207472756520646563656e7472616101608301527f6c697a6174696f6e20616e6420696d6d75746162696c6974792e222c22696d616101808301527f6765223a202268747470733a2f2f70656e6775696e6f6e636861696e2e746f706101a08301527f2f70656e676f2d69636f6e2e706e67222c2265787465726e616c5f75726c223a6101c08301527f202268747470733a2f2f70656e6775696e6f6e636861696e2e746f70222c22736101e08301527f656c6c65725f6665655f62617369735f706f696e7473223a2022353030222c22610200830152703332b2afb932b1b4b834b2b73a111d101160791b61022083015261354c565b5f5460405190608082016040526f30313233343536373839616263646566600f526002820190602882525f604a8401526bffffffffffffffffffffffff199060601b1660015f5b8080018501602284831a600f811651602384015360041c519101530190601482146103ff57906001906103d1565b505061307860028251019152815260228101907f8888888888888888888888888888888888888888888888888888888888888880602883201660015f5b601160f31b83821a028180015201906014821461045c579060019061043c565b6104d96104cb84878780517f2020202020202020202020202020202020202020202020202020202020202020815f511660011c161890526042820180517f2020202020202020202020202020202020202020202020202020202020202020816020511660011c1618905261354c565b6104d3612c23565b9061354c565b51606090805180610553575b61054f602061053b603d866040519384917f646174613a6170706c69636174696f6e2f6a736f6e3b6261736536342c000000828401528051918291018484015e81015f838201520301601f1981018352826128d7565b6040519182916020835260208301906129d4565b0390f35b9091506003600282010460021b604051907f4142434445464748494a4b4c4d4e4f505152535455565758595a616263646566601f526106707f6768696a6b6c6d6e6f707172737475767778797a303132333435363738392d5f18603f52602082019181810191602083019560208682010194600460038751935f89525b0191603f8351818160121c16515f538181600c1c1651600153818160061c165160025316516003535f518152019088821015610611576004906003906105d0565b5094526040928301909252613d3d60f01b60039094066002048303939093525f90915281529050602061053b6104e5565b5f80fd5b34610642576060366003190112610642576004356001600160401b038111610642576106769036906004016129f8565b60ff61068061299d565b91602061068b6129ad565b946106ab8460405185848237848187810160028152030190205416612a25565b8260405193849283378101600181520301902091165f5260205260ff60405f2091165f52602052602060ff60405f2054166040519015158152f35b34610642576040366003190112610642576004356001600160401b03811161064257610716903690600401612924565b6024356001600160401b03811161064257610735903690600401612924565b9061073e612de9565b60405160ff825191602081818601948086835e8101600281520301902054166109f55761076a83613a27565b6007815104905f5b828110610927575050506020604051809284518091835e81016002815203019020600160ff19825416179055600554600160401b811015610900578060016107bd9201600555612b4c565b929092610914578151926001600160401b038411610900576107e9846107e38354612b64565b83612c80565b602093601f81116001146108765791610866916108418461085896957f89fb70f7621117a0372d49c06a6a61941c90f12179dc3998d02d8ddd336640fe985f9161086b575b508160011b915f199060031b1c19161790565b90555b6040519384936040855260408501906129d4565b9083820360208501526129d4565b0390a1005b90508601518961082e565b601f19811694825f52805f20955f5b8181106108e85750827f89fb70f7621117a0372d49c06a6a61941c90f12179dc3998d02d8ddd336640fe976108669593610858989795600194106108d0575b5050811b019055610844565b8701515f1960f88460031b161c1916905588806108c4565b86830151885560019097019660209283019201610885565b634e487b7160e01b5f52604160045260245ffd5b634e487b7160e01b5f525f60045260245ffd5b6007810290808204600714811517156109e1576109448284612da3565b5160f81c91600181018091116109e1576001926109c06109676109db9387612da3565b5160f81c916040516020818c51808d835e81018981520301902060ff82165f5260205260405f2060ff84165f5260205260405f208660ff198254161790556040516020818c51808d835e81016003815203019020612db4565b6040516020818a51808b835e81016004815203019020612db4565b01610772565b634e487b7160e01b5f52601160045260245ffd5b60405162461bcd60e51b815260206004820152601860248201527f5061727420616c726561647920696e697469616c697a656400000000000000006044820152606490fd5b34610642576020366003190112610642576004356001600160a01b0381169081900361064257610a68612de9565b8015610ab0575f80546001600160a01b03198116831782556001600160a01b0316907f8be0079c531659141344cd1fd0a4f28419497f9722a3daafe3b4186f6b6457e09080a3005b60405162461bcd60e51b815260206004820152602660248201527f4f776e61626c653a206e6577206f776e657220697320746865207a65726f206160448201526564647265737360d01b6064820152608490fd5b34610642576020366003190112610642576004356001600160a01b0381169081900361064257610b32612de9565b8015610b54576bffffffffffffffffffffffff60a01b60065416176006555f80f35b60405162461bcd60e51b815260206004820152600c60248201526b7a65726f206164647265737360a01b6044820152606490fd5b34610642576020366003190112610642576004356001600160401b0381116106425760ff6020610bbd819336906004016129f8565b91908260405193849283378101600281520301902054166040519015158152f35b34610642576020366003190112610642576004356001600160401b0381116106425760ff602080610c1481943690600401612924565b604051928184925191829101835e8101600281520301902054166040519015158152f35b34610642575f366003190112610642576006546040516001600160a01b039091168152602090f35b34610642576020366003190112610642576004356001600160401b03811161064257610c90903690600401612924565b610c98612de9565b60405160ff825191602081818601948086835e81016002815203019020541615610fd25760405160208184518085835e81016002815203019020805460ff191690555f5b60ff80821610610f355750610d0560405160208185518086835e81016003815203019020612c59565b610d2360405160208185518086835e81016004815203019020612c59565b5f5b60055480821015610f0857610d3982612b4c565b506040516020810191815f825492610d5084612b64565b9360018116908115610eea5750600114610eac575b50610d79925003601f1981018352826128d7565b5190206040516020810190610da66020828951808a875e81015f838201520301601f1981018352826128d7565b51902014610db75750600101610d25565b9091505f1981019081116109e157610dd1610dd891612b4c565b5091612b4c565b91909161091457610de891612cc3565b6005548015610e98575f190190610dfe82612b4c565b919091610914577f5337ade8d1d62c362903db3fd2aa9ffcba271a15ce038a502e476b7e173811ff9282610e356108669454612b64565b9081610e55575b50506005556040519182916020835260208301906129d4565b81601f5f9311600114610e6c5750555b8480610e3c565b81835260208320610e8891601f0160051c810190600101612c43565b8082528160208120915555610e65565b634e487b7160e01b5f52603160045260245ffd5b9150505f5260205f205f905b828210610ed1575050816020610d799282010189610d65565b8054602083860181019190915290910190600101610eb8565b60ff1916875250610d799380151502830160200191508a9050610d65565b5050506108667f5337ade8d1d62c362903db3fd2aa9ffcba271a15ce038a502e476b7e173811ff9161053b565b5f5b60ff80821610610f4d575060010160ff16610cdc565b9060ff938460018095946040516020818651808a835e8101858152030190208386165f5260205260405f208382165f526020528260405f205416610f99575b0116919293509350610f37565b6040516020818651808a835e8101858152030190208386165f5260205260405f208382165f5260205260405f2080548419169055610f8c565b60405162461bcd60e51b815260206004820152600e60248201526d14185c9d081b9bdd08199bdd5b9960921b6044820152606490fd5b346106425760403660031901126106425760043560243560246110328261102d612b9c565b6131d3565b9261105e604093845161104586826128d7565b6007815266746f705f65796560c81b60208201526131d3565b60065484516382260f3560e01b815260048101849052935f9185919082906001600160a01b03165afa90811561213e575f935f92611f41575b506118f86118a96118656118166115798a6104d38b602061118082516110bc816128a1565b606081528351906110ce60c0836128d7565b608a82527f3c7376672073686170652d72656e646572696e673d2263726973704564676573848301527f222076696577426f783d223020302033302033302220786d6c6e733d22687474858301527f703a2f2f7777772e77332e6f72672f323030302f737667223e3c72656374207760608301527f696474683d223130302522206865696768743d2231303025222066696c6c3d2260808301526911b0b1b333181811179f60b11b60a083015261354c565b937f3031303134413441344131303061303130313441344134413131306130313031610360936111b2815195866128d7565b61032c85527f3064306230313031344134413441306530613031303134413441344130663061848601528401527f344134413441306530623031303134413441344130663062303130313441344160608401527f344131303062303130313441344134413131306230313031344134413441313260808401527f306230313031344134413441306430633031303134413441344130643064303160a08401527f303134413441344130643065303130313441344134413065306530313031344160c08401527f344134413066306530313031344134413441313030653031303134413441344160e08401527f31313065303130313441344134413132306530313031344134413441313230646101008401527f30313031344134413441313230633031303134413441344130663063303130316101208401527f34413441344131303063303130313441344134413063306630313031344134416101408401527f34413063306530313031344134413441306230663031303134413441344130616101608401527f31303031303134413441344131333065303130313441344134413133306630316101808401527f30313441344134413134306630313031344134413441306231303031303134416101a08401527f34413441313431303031303134413441344130613131303130313441344134416101c08401527f30623131303130313441344134413062313230313031344134413441306231336101e08401527f30313031344134413441306331333031303134413441344130633134303130316102008401527f34413441344130633135303130313441344134413064313430313031344134416102208401527f34413064313530313031344134413441306531353031303134413441344130666102408401527f31353031303134413441344131303135303130313441344134413131313530316102608401527f30313441344134413132313530313031344134413441313331353031303134416102808401527f34413441313431313031303134413441344131343132303130313441344134416102a08401527f31343133303130313441344134413133313330313031344134413441313331346102c08401527f30313031344134413441313531303031303134413441344131353131303130316102e08401527f34413441344131323134303130313441344134413064306630313031344134416103008401527f34413063313030313031344134413441313230663031303134413441344131336103208401526b31303031303134413441344160a01b610340840152015190613688565b6104d361022061158b8c5191826128d7565b6101f881527f306530663031303146464646464630663066303130314646464646463130306660208201527f30313031464646464646313130663031303146464646464630643130303130318c8201527f464646464646306331313031303146464646464630633132303130314646464660608201527f464630643133303130314646464646463065313430313031464646464646306660808201527f313430313031464646464646313031343031303146464646464631313134303160a08201527f303146464646464631323133303130314646464646463133313230313031464660c08201527f464646463133313130313031464646464646313231303031303146464646464660e08201527f30653130303130314646464646463066313030313031464646464646313031306101008201527f30313031464646464646313131303031303146464646464631313131303130316101208201527f46464646464631303131303130314646464646463066313130313031464646466101408201527f46463065313130313031464646464646306431313031303146464646464630646101608201527f31323031303146464646464631303132303130314646464646463131313230316101808201527f30314646464646463132313230313031464646464646313231313031303146466101a08201527f46464646313031333031303146464646464630663133303130314646464646466101c08201527f30653133303130314646464646463065313230313031464646464646306631326101e08201527f30313031464646464646313131333031303146464646464600000000000000006102008201526118015f612909565b9061180e8d5192836128d7565b5f8252613688565b6104d389516118258b826128d7565b601c81527f306630643031303146354136323331303064303130314635413632330000000060208201526118585f612909565b9061180e8c5192836128d7565b6104d388516118748a826128d7565b601c81527f30653063303130314646464646463131306330313031464646464646000000006020820152602086015190613688565b6104d387516118b889826128d7565b601c81527f306530643031303130303030303031313064303130313030303030300000000060208201526118eb5f612909565b9061180e8a5192836128d7565b906119736060926104d3885161190e86826128d7565b603881527f306431363031303146354136323330653136303130314635413632333131313660208201527f30313031463541363233313231363031303146354136323300000000000000008a8201526119665f612909565b9061180e8b5192836128d7565b96865161197f816128a1565b838152948651965f905b888210611e3f5750506104cb611dcd956020611d9d87611d52611d4a61054f9f9e859f819f9b611e189f9b611cb3611a219f91611cab611c4b611da69f611c4689611cab977f70726f6a6563742074686174207075736865732074686520626f756e64617269611a72611a27611a21611cfe9e865190611a0988836128d7565b60068252651e17b9bb339f60d11b602083015261354c565b51613b9d565b956104d3611a6c8651611a39816128a1565b868152875190611a4989836128d7565b60118252707b226e616d65223a202250656e676f202360781b602083015261354c565b916139e2565b917f6e20697320616e20696e6e6f766174697665206f6e2d636861696e204e4654206101c094611aa4815196876128d7565b61018786527f222c226465736372697074696f6e223a202250656e6775696e204f6e6368616960208701528501528301527f6573206f662067656e657261746976652061727420616e6420626c6f636b636860808301527f61696e20637573746f6d697a6174696f6e2e20556e6c696b652074726164697460a08301527f696f6e616c204e465420636f6c6c656374696f6e73207468617420617265207060c08301527f72652d67656e65726174656420616e642073746f726564206f66662d6368616960e08301527f6e2c2065766572792050656e6775696e204e46542069732067656e65726174656101008301527f64207573696e6720616e20616c676f726974686d206469726563746c79206f6e6101208301527f2074686520626c6f636b636861696e2c20656e737572696e67207472756520646101408301527f6563656e7472616c697a6174696f6e20616e6420696d6d75746162696c6974796101608301527f2e222c22696d616765223a2022646174613a696d6167652f7376672b786d6c3b6101808301526618985cd94d8d0b60ca1b6101a083015261354c565b61354c565b875190611c588c836128d7565b603882527f222c2261747472696275746573223a205b7b2274726169745f74797065223a208e8301527f2250656e676f2054797065222c202276616c7565223a202200000000000000008983015261354c565b90519061354c565b845190611cc089836128d7565b602882527f227d2c7b2274726169745f74797065223a20224579652054797065222c2022768b8301526730b63ab2911d101160c11b8683015261354c565b815191611d0b86846128d7565b602983527f227d2c7b2274726169745f74797065223a20224c69666520476f616c222c202288840152683b30b63ab2911d101160b91b9083015261354c565b85519061354c565b611d5e8d5192836128d7565b602982527f227d2c7b2274726169745f74797065223a20224e657420576f727468222c202284830152683b30b63ab2911d101160b91b8d83015261354c565b9101519061354c565b91611e2a575b50845190611dba86836128d7565b60028252615d7d60f01b8783015261354c565b603d83519485927f646174613a6170706c69636174696f6e2f6a736f6e3b6261736536342c00000082850152828401815192839201905e8201015f815203601f1981018452836128d7565b519182916020835260208301906129d4565b611cab611e39926104d3612c04565b87611dac565b818a81999c88611e50859686612ac9565b510151611e5c5f612909565b835190611e6990826128d7565b5f8152611e7591613688565b611e7e9161354c565b9c88831515600195611c46611f2896611c46611c4696611c4695611f30575b885190611eaa8a836128d7565b601082526f3d913a3930b4ba2fba3cb832911d101160811b602083015289611f076020611ed7878a612ac9565b51015195825198611ee8848b6128d7565b600d8a526c111610113b30b63ab2911d101160991b60208b0152612ac9565b51015197611f13612c23565b9a805191611f20836128a1565b82525261354c565b970190611989565b611f3c906104d3612c04565b611e9d565b935090503d805f853e611f5481856128d7565b83019284818503126106425780516001600160401b0381116106425781019084601f8301121561064257815191611f8a836129bd565b92611f97885194856128d7565b80845260208085019160051b830101918783116106425760208101915b83831061203157505050506020810151906001600160401b0382116106425701858186031261064257855194611fe9866128bc565b81516001600160401b0381116106425781612005918401612bbe565b865260208201516001600160401b038111610642576120249201612bbe565b6020850152929086611097565b82516001600160401b03811161064257820190610100828b03601f190112610642578a519161010083018381106001600160401b03821117610900578c52602081015183528b8101516001600160401b038111610642578b602061209792840101612bbe565b602084015260608101516001600160401b038111610642578b60206120be92840101612bbe565b8c84015260808101516001600160401b038111610642578b60206120e492840101612bbe565b606084015260a081810151608085015260c08201519084015260e0810151906001600160a01b0382168203610642576101009160c0850152015190811515820361064257826020939260e085940152815201920191611fb4565b84513d5f823e3d90fd5b34610642575f366003190112610642575f546040516001600160a01b039091168152602090f35b34610642575f3660031901126106425760055461218b816129bd565b9061219960405192836128d7565b808252601f196121a8826129bd565b015f5b8181106122e65750505f5b81811061222457826040518091602082016020835281518091526040830190602060408260051b8601019301915f905b8282106121f557505050500390f35b919360019193955060206122148192603f198a820301865288516129d4565b96019201920185949391926121e6565b61222d81612b4c565b50604051905f9080549061224082612b64565b80855291600181169081156122bf5750600114612286575b50509061226a816001949303826128d7565b6122748286612ac9565b5261227f8185612ac9565b50016121b6565b5f908152602081209092505b8183106122a9575050810160200161226a82612258565b6001816020925483868801015201920191612292565b60ff191660208087019190915292151560051b8501909201925061226a9150839050612258565b8060606020809387010152016121ab565b34610642576040366003190112610642576004356001600160401b038111610642573660238201121561064257806004013590612333826129bd565b9161234160405193846128d7565b8083526024602084019160051b8301019136831161064257602401905b82821061268e57602435846001600160401b0382116106425736602383011215610642578160040135612390816129bd565b9261239e60405194856128d7565b8184526024602085019260051b820101903682116106425760248101925b82841061265f5785856003815116612625578151815160021c036125e0575f9060605b8351831015612509578260021b838104600414841517156109e1576001600160f81b031961240d8285612ac9565b5160f81b16600182018083116109e1576001600160f81b0319906124319086612ac9565b5160f81b1692600283018084116109e1576001600160f81b0319906124569087612ac9565b5160f81b16600384018094116109e15760019460209461250194869384926001600160f81b031990612488908c612ac9565b5160f81b169060405194848601938452602186015260228501526023840152600483526124b66024846128d7565b6124c08a8c612ac9565b51926040519786899751918291018589015e860190838201905f8252519283915e0101905f8252805192839101825e015f815203601f1981018352826128d7565b9201916123df565b612511612e40565b81519091906001600160ff1b03811681036109e1576125329060011b612e6e565b5f5b82518110156125ca576001600160f81b031961255d6125538386612da3565b5160fc1c86612da3565b51600183901b9291166001600160ff1b03821682036109e1575f1a6125828385612da3565b536001600160f81b03196125a6600f61259b8488612da3565b5160f81c1687612da3565b511691600181018091116109e1576125c36001935f1a9185612da3565b5301612534565b6040516020808252819061054f908201856129d4565b60405162461bcd60e51b815260206004820152601860248201527f506978656c20616e6420636f6c6f72206d69736d6174636800000000000000006044820152606490fd5b60405162461bcd60e51b8152602060048201526012602482015271496e76616c696420706978656c206461746160701b6044820152606490fd5b83356001600160401b03811161064257602091612683839260243691870101612924565b8152019301926123bc565b813581526020918201910161235e565b34610642575f366003190112610642576126b6612de9565b5f80546001600160a01b0319811682556001600160a01b03167f8be0079c531659141344cd1fd0a4f28419497f9722a3daafe3b4186f6b6457e08280a3005b34610642576060366003190112610642576004356001600160401b03811161064257612725903690600401612924565b61272d61299d565b60ff60208061273a6129ad565b94604051928184925191829101835e8101600181520301902091165f5260205260ff60405f2091165f52602052602060ff60405f2054166040519015158152f35b34610642576020366003190112610642576004356001600160401b038111610642576127ab903690600401612924565b6040516127d260ff835192602081818701958087835e810160028152030190205416612a25565b60405160208184518085835e81016003815203019020546127f281612a65565b916127fc82612a65565b935f5b838110612830576128228561054f8860405193849360408552604085019061296a565b90838203602085015261296a565b8060ff6128546001936040516020818851808b835e81016003815203019020612a97565b90549060031b1c166128668288612ac9565b5260ff612888826040516020818851808b835e81016004815203019020612a97565b90549060031b1c1661289a8289612ac9565b52016127ff565b602081019081106001600160401b0382111761090057604052565b604081019081106001600160401b0382111761090057604052565b90601f801991011681019081106001600160401b0382111761090057604052565b604051906129076040836128d7565b565b6001600160401b03811161090057601f01601f191660200190565b81601f820112156106425780359061293b82612909565b9261294960405194856128d7565b8284526020838301011161064257815f926020809301838601378301015290565b90602080835192838152019201905f5b8181106129875750505090565b825184526020938401939092019160010161297a565b6024359060ff8216820361064257565b6044359060ff8216820361064257565b6001600160401b0381116109005760051b60200190565b805180835260209291819084018484015e5f828201840152601f01601f1916010190565b9181601f84011215610642578235916001600160401b038311610642576020838186019501011161064257565b15612a2c57565b60405162461bcd60e51b815260206004820152601160248201527050617274206e6f7420616c6c6f7765642160781b6044820152606490fd5b90612a6f826129bd565b612a7c60405191826128d7565b8281528092612a8d601f19916129bd565b0190602036910137565b9190918054831015612ab5575f52601f60205f208360051c01921690565b634e487b7160e01b5f52603260045260245ffd5b8051821015612ab55760209160051b010190565b906005820291808304600514901517156109e157565b90600a820291808304600a14901517156109e157565b90601e820291808304601e14901517156109e157565b6109c40190816109c4116109e157565b61012c01908161012c116109e157565b919082018092116109e157565b600554811015612ab55760055f5260205f2001905f90565b90600182811c92168015612b92575b6020831014612b7e57565b634e487b7160e01b5f52602260045260245ffd5b91607f1691612b73565b60405190612bab6040836128d7565b6004825263426f647960e01b6020830152565b81601f8201121561064257805190612bd582612909565b92612be360405194856128d7565b8284526020838301011161064257815f9260208093018386015e8301015290565b60405190612c136040836128d7565b60018252600b60fa1b6020830152565b60405190612c326040836128d7565b6002825261227d60f01b6020830152565b818110612c4e575050565b5f8155600101612c43565b80545f825580612c67575050565b612907915f52601f60205f20910160051c810190612c43565b9190601f8111612c8f57505050565b612907925f5260205f20906020601f840160051c83019310612cb9575b601f0160051c0190612c43565b9091508190612cac565b919091828114612d9e57612cd78354612b64565b6001600160401b03811161090057612cf981612cf38454612b64565b84612c80565b5f93601f8211600114612d3857612d2992939482915f92612d2d575b50508160011b915f199060031b1c19161790565b9055565b015490505f80612d15565b601f198216905f5260205f2094835f5260205f20915f5b818110612d8657509583600195969710612d6e575b505050811b019055565b01545f1960f88460031b161c191690555f8080612d64565b9192600180602092868b015481550194019201612d4f565b509050565b908151811015612ab5570160200190565b8054600160401b81101561090057612dd191600182018155612a97565b60ff80839493549260031b9316831b921b1916179055565b5f546001600160a01b03163303612dfc57565b606460405162461bcd60e51b815260206004820152602060248201527f4f776e61626c653a2063616c6c6572206973206e6f7420746865206f776e65726044820152fd5b60405190612e4f6040836128d7565b601082526f181899199a1a9b1b9c1ca0a121a222a360811b6020830152565b90612e7882612909565b612e8560405191826128d7565b8281528092612a8d601f1991612909565b60405190612ea3826128bc565b60606020838281520152565b60405190612ebe6040836128d7565b60068252655a6f6d62696560d01b6020830152565b60405190612ee26040836128d7565b600682526519981a30989960d11b6020830152565b60405190612f066040836128d7565b600682526541726374696360d01b6020830152565b60405190612f2a6040836128d7565b60068252651a992098232360d11b6020830152565b60405190612f4e6040836128d7565b60048252634669726560e01b6020830152565b60405190612f706040836128d7565b600682526507272606e62760d31b6020830152565b60405190612f946040836128d7565b600682526546656d616c6560d01b6020830152565b60405190612fb86040836128d7565b60068252651ca11ca11ca160d11b6020830152565b60405190612fdc6040836128d7565b60048252634d616c6560e01b6020830152565b60405190612ffe6040836128d7565b60068252651a211a219a2360d11b6020830152565b604051906130226040836128d7565b600a8252695a6f6d6269652045796560b01b6020830152565b6040519061304a6040836128d7565b600682526544373437353560d01b6020830152565b6040519061306e6040836128d7565b6009825268416e636573746f727360b81b6020830152565b604051906130956040836128d7565b600682526504230423042360d41b6020830152565b604051906130b96040836128d7565b6006825265536c6565707960d01b6020830152565b604051906130dd6040836128d7565b60068252650d0e0dcc904d60d21b6020830152565b604051906131016040836128d7565b600c82526b507572706c6520536861646560a01b6020830152565b6040519061312b6040836128d7565b600682526541383637453160d01b6020830152565b6040519061314f6040836128d7565b600882526714dd185b99185c9960c21b6020830152565b604051906131756040836128d7565b600682526523232323232360d11b6020830152565b604051906131996040836128d7565b60078252662ab735b737bbb760c91b6020830152565b604051906131be6040836128d7565b600682526503030303030360d41b6020830152565b906131dc612e96565b5061c350810691602081519101207f21b0bc2edffd5fad1b6e5180fd7a2c57b79ce078356dae92e09334b0a3d7f18a811461338c577f187f167c01c08bdab747205b9d88bf41c440c462989e37f628fdfef348aaacbb1461325b5750506132416128f8565b61324961318a565b81526132536131af565b602082015290565b6132679061102d612b9c565b7ff41cb73ce9ba5c1f594bcdfd56e2d14e42d2ecc23f0a4863835bdd4baacd8b72905160208151910120146133715761c2246132ac6132a582612add565b6064900490565b6132c46132a56132be6132a585612af3565b93612b09565b906132ce81612b2f565b8410613353576132e6836132e183612b2f565b612b3f565b8410613335576132fc926132e16132e192612b2f565b1161331b576133096128f8565b613311613140565b8152613253613166565b6133236128f8565b61332b6130f2565b815261325361311c565b505050506133416128f8565b6133496130aa565b81526132536130ce565b5050505061335f6128f8565b61336761305f565b8152613253613086565b5061337a6128f8565b613382613013565b815261325361303b565b505061012c8110613423576103e88110613408576109c481106133ed576133b4615cc6612b1f565b116133d3576133c16128f8565b6133c9612fcd565b8152613253612fef565b6133db6128f8565b6133e3612f85565b8152613253612fa9565b506133f66128f8565b6133fe612f3f565b8152613253612f61565b506134116128f8565b613419612ef7565b8152613253612f1b565b5061342c6128f8565b613434612eaf565b8152613253612ed3565b9060405161344b816128a1565b60608152604052600151828115613547578051908151809301601f198301516605c284b9def7798082061591040291828210916020601f1991851785010116928015601f19602088011691856605c284b9def7790294156134d5575b50505f600152506020925050505b6001810151828401820152601f1901806134b557505f6020838301015252565b60409087949596970101604051181715613529576060946040519360208501968792860101604052525b8181015183820160200152601f190190811561351b57906134ff565b5050525f80808080806134a7565b50929050604091601f198401528201016040525f80808080806134a7565b925050565b91909160405161355b816128a1565b606081526040528092805190811561368157825191825180910193601f198401516605c284b9def779808206159104029081861090601f19602088851785010116928015601f19602087011691856605c284b9def779029415613606575b505050505050600182146135fb575b8151602001601f19165b82810151848301820152601f19019182156135ed57916135d2565b5050505f6020838301015252565b92505f8152826135c8565b604090899495969998979801016040511817156136605760609495966040519360208501968792860101604052525b8181015183820160200152601f19019081156136515790613635565b505052915f80808080806135b9565b50949050604091601f949394198601528401016040525f80808080806135b9565b5090925050565b61369190613a27565b600781510661399d5760078151049180511515916040516136b1816128a1565b6060815260308502858104603014861517156109e1576040516136d3816128a1565b6060815260405281805151808311613968575b5091955f959490939250604091505b838610613706575050505050505190565b90919293949560078702878104600714881517156109e15786156138a05761379261376e61375885945b87519061373d89836128d7565b60098252683c7265637420783d2760b81b602083015261354c565b6104d3613765858a612da3565b5160f81c6139e2565b85519061377b87836128d7565b60058252642720793d2760d81b602083015261354c565b600182018083116109e1576137d9916104d36137656137b1938a612da3565b8551906137be87836128d7565b6009825268272077696474683d2760b81b602083015261354c565b600282018083116109e157613821916104d36137656137f8938a612da3565b85519061380587836128d7565b600a82526927206865696768743d2760b01b602083015261354c565b90600381018091116109e157600192611c4661384a613894946104d3613765613872968c612da3565b87519061385789836128d7565b6009825268272066696c6c3d272360b81b602083015261354c565b84519061387f86836128d7565b600382526213979f60e91b602083015261354c565b960194939291906136f5565b600481018082116109e1576138ca906001600160f81b0319906138c39088612da3565b5116613b24565b600582018083116109e1576138ed906001600160f81b0319906138c39089612da3565b9060068301908184116109e157602061396261375892828a8180613792998f613922906138c361376e9c60ff60f81b92612da3565b93519786899751918291018489015e8601908282015f8152815193849201905e0101905f8252805192839101825e015f815203601f1981018352826128d7565b94613730565b90919250604060015b1561397d575b5f613971565b60011b8381106139775761399593500360015261343e565b5f80806136e6565b60405162461bcd60e51b815260206004820152601960248201527f496e76616c696420706978656c2064617461206c656e677468000000000000006044820152606490fd5b90604051600a608082019360a083016040525f8552935b5f190193603082820601855304928315613a1557600a906139f9565b809350608091030191601f1901918252565b805160018116613adf5760011c613a3d81612e6e565b915f5b828110613a4d5750505090565b600181901b6001600160ff1b03821682036109e157613a7f6001600160f81b0319613a788386612da3565b5116613c8d565b60041b90610ff060f08316921682036109e157600181018091116109e157613ab160ff91613a788360f81b9187612da3565b16019060ff82116109e15760019160f81b6001600160f81b0319165f1a613ad88287612da3565b5301613a40565b60405162461bcd60e51b815260206004820152601960248201527f496e76616c69642068657820737472696e67206c656e677468000000000000006044820152606490fd5b613b2c612e40565b9060405191613b3c6040846128d7565b60028352602080840191903683376001600160f81b0319613b6160fc85901c83612da3565b51165f1a845115612ab557613b8792536001600160f81b03199260f81c600f1690612da3565b51165f1a815160011015612ab557602182015390565b80516060929181613bac575050565b9092506003600284010460021b90604051937f4142434445464748494a4b4c4d4e4f505152535455565758595a616263646566601f526106707f6768696a6b6c6d6e6f707172737475767778797a303132333435363738392d5f18603f52602085019083860191602083019260208386010191600460038451975f86525b0191603f8351818160121c16515f538181600c1c1651600153818160061c165160025316516003535f518152019085821015613c6b57600490600390613c2a565b5093505f9460409252016040526003613d3d60f01b9106600204820352528252565b60f81c603081101580613d3d575b613d2e57604181101580613d23575b613d1457606181101580613d09575b613cfa5760405162461bcd60e51b815260206004820152601560248201527424b73b30b634b2103432bc1031b430b930b1ba32b960591b6044820152606490fd5b6056190160ff81116109e15790565b506066811115613cb9565b6036190160ff81116109e15790565b506046811115613caa565b602f190160ff81116109e15790565b506039811115613c9b56fea2646970667358221220eff079c81a1fa88593d07d39c29927209caaa98fd1a1ffd424acd7a90ccb3b3f64736f6c634300081b0033",
  "linkReferences": {},
  "deployedLinkReferences": {}
}