{
  "_format": "hh-sol-artifact-1",
  "contractName": "PengoBondingCurve",
  "sourceName": "contracts/ERC20/PengoBondingCurve.sol",
  "abi": [
    {
      "inputs": [
        {
          "internalType": "address",
          "name": "_pengoToken",
          "type": "address"
        },
        {
          "internalType": "address",
          "name": "_uniswapRouter",
          "type": "address"
        },
        {
          "internalType": "address",
          "name": "_strategyVault",
          "type": "address"
        }
      ],
      "stateMutability": "nonpayable",
      "type": "constructor"
    },
    {
      "anonymous": false,
      "inputs": [
        {
          "indexed": false,
          "internalType": "uint256",
          "name": "ethAmount",
          "type": "uint256"
        },
        {
          "indexed": false,
          "internalType": "uint256",
          "name": "tokenAmount",
          "type": "uint256"
        },
        {
          "indexed": false,
          "internalType": "uint256",
          "name": "lpTokens",
          "type": "uint256"
        }
      ],
      "name": "LiquidityMigrated",
      "type": "event"
    },
    {
      "anonymous": false,
      "inputs": [
        {
          "indexed": true,
          "internalType": "address",
          "name": "previousOwner",
          "type": "address"
        },
        {
          "indexed": true,
          "internalType": "address",
          "name": "newOwner",
          "type": "address"
        }
      ],
      "name": "OwnershipTransferred",
      "type": "event"
    },
    {
      "anonymous": false,
      "inputs": [
        {
          "indexed": true,
          "internalType": "address",
          "name": "buyer",
          "type": "address"
        },
        {
          "indexed": false,
          "internalType": "uint256",
          "name": "amount",
          "type": "uint256"
        },
        {
          "indexed": false,
          "internalType": "uint256",
          "name": "cost",
          "type": "uint256"
        }
      ],
      "name": "TokensPurchased",
      "type": "event"
    },
    {
      "inputs": [],
      "name": "TARGET_LIQUIDITY",
      "outputs": [
        {
          "internalType": "uint256",
          "name": "",
          "type": "uint256"
        }
      ],
      "stateMutability": "view",
      "type": "function"
    },
    {
      "inputs": [],
      "name": "TOKENS_FOR_LIQUIDITY",
      "outputs": [
        {
          "internalType": "uint256",
          "name": "",
          "type": "uint256"
        }
      ],
      "stateMutability": "view",
      "type": "function"
    },
    {
      "inputs": [],
      "name": "TOKENS_FOR_SALE",
      "outputs": [
        {
          "internalType": "uint256",
          "name": "",
          "type": "uint256"
        }
      ],
      "stateMutability": "view",
      "type": "function"
    },
    {
      "inputs": [],
      "name": "basePrice",
      "outputs": [
        {
          "internalType": "uint256",
          "name": "",
          "type": "uint256"
        }
      ],
      "stateMutability": "view",
      "type": "function"
    },
    {
      "inputs": [
        {
          "internalType": "uint256",
          "name": "amount",
          "type": "uint256"
        }
      ],
      "name": "buy",
      "outputs": [],
      "stateMutability": "payable",
      "type": "function"
    },
    {
      "inputs": [
        {
          "internalType": "uint256",
          "name": "amount",
          "type": "uint256"
        }
      ],
      "name": "getCost",
      "outputs": [
        {
          "internalType": "uint256",
          "name": "",
          "type": "uint256"
        }
      ],
      "stateMutability": "view",
      "type": "function"
    },
    {
      "inputs": [],
      "name": "isMigrated",
      "outputs": [
        {
          "internalType": "bool",
          "name": "",
          "type": "bool"
        }
      ],
      "stateMutability": "view",
      "type": "function"
    },
    {
      "inputs": [],
      "name": "owner",
      "outputs": [
        {
          "internalType": "address",
          "name": "",
          "type": "address"
        }
      ],
      "stateMutability": "view",
      "type": "function"
    },
    {
      "inputs": [],
      "name": "pengoToken",
      "outputs": [
        {
          "internalType": "contract IERC20",
          "name": "",
          "type": "address"
        }
      ],
      "stateMutability": "view",
      "type": "function"
    },
    {
      "inputs": [],
      "name": "priceIncrement",
      "outputs": [
        {
          "internalType": "uint256",
          "name": "",
          "type": "uint256"
        }
      ],
      "stateMutability": "view",
      "type": "function"
    },
    {
      "inputs": [],
      "name": "renounceOwnership",
      "outputs": [],
      "stateMutability": "nonpayable",
      "type": "function"
    },
    {
      "inputs": [],
      "name": "strategyVault",
      "outputs": [
        {
          "internalType": "address",
          "name": "",
          "type": "address"
        }
      ],
      "stateMutability": "view",
      "type": "function"
    },
    {
      "inputs": [],
      "name": "tokensSold",
      "outputs": [
        {
          "internalType": "uint256",
          "name": "",
          "type": "uint256"
        }
      ],
      "stateMutability": "view",
      "type": "function"
    },
    {
      "inputs": [
        {
          "internalType": "address",
          "name": "newOwner",
          "type": "address"
        }
      ],
      "name": "transferOwnership",
      "outputs": [],
      "stateMutability": "nonpayable",
      "type": "function"
    },
    {
      "inputs": [],
      "name": "uniswapRouter",
      "outputs": [
        {
          "internalType": "contract IUniswapV2Router02",
          "name": "",
          "type": "address"
        }
      ],
      "stateMutability": "view",
      "type": "function"
    }
  ],
  "bytecode": "0x60803461011957601f610b6638819003918201601f19168301916001600160401b0383118484101761011d578084926060946040528339810103126101195761004781610131565b90610060604061005960208401610131565b9201610131565b5f8054336001600160a01b0319821681178355604051959394939290916001600160a01b0316907f8be0079c531659141344cd1fd0a4f28419497f9722a3daafe3b4186f6b6457e09080a3634a817c80600355604b600455600180546001600160a01b03199081166001600160a01b0393841617909155600280549091169290911691909117905560068054610100600160a81b03191660089290921b610100600160a81b0316919091179055610a2090816101468239f35b5f80fd5b634e487b7160e01b5f52604160045260245ffd5b51906001600160a01b03821682036101195756fe6080806040526004361015610012575f80fd5b5f3560e01c9081631f3940271461083a57508063280d62ac1461081d57806340099098146107f1578063487ef216146107c9578063518ab2a8146107ac5780635a4dd47d146107865780635c95eb5214610763578063715018a61461070c578063735de9f7146106e45780638da5cb5b146106bd578063b06faf621461069b578063c7876ea41461067e578063c8612b2f14610658578063d96a094a1461018f5763f2fde38b146100c1575f80fd5b3461018b57602036600319011261018b576004356001600160a01b0381169081900361018b576100ef610993565b8015610137575f80546001600160a01b03198116831782556001600160a01b0316907f8be0079c531659141344cd1fd0a4f28419497f9722a3daafe3b4186f6b6457e09080a3005b60405162461bcd60e51b815260206004820152602660248201527f4f776e61626c653a206e6577206f776e657220697320746865207a65726f206160448201526564647265737360d01b6064820152608490fd5b5f80fd5b602036600319011261018b5760043560ff6006541661060957600554906b0295be96e6406697200000006101c38284610870565b116105ba576101d18161087d565b9182341061057d57816101e391610870565b60055560015460405163a9059cbb60e01b81523360048201526024810183905290602090829060449082905f906001600160a01b03165af190811561042b575f9161055e575b5015610521576040519081528160208201527f8fafebcaf9d154343dad25669bfa277f4fbacd7ac6b0c4fed522580e040a0f3360403392a28034116104f0575b5068015af1d78b58c4000047101561027d57005b6006805460ff19166001908117909155546040516370a0823160e01b815230600482015247916001600160a01b0316602082602481845afa91821561042b575f926104bc575b506aa56fa5b99019a5c800000082106104775760025460405163095ea7b360e01b81526001600160a01b0390911660048201526024810183905290602090829060449082905f905af1801561042b5761044a575b5060025460015460065460081c6001600160a01b039081169492811693924261012c8101939092169183106104365760609460c493604051978896879563f305d71960e01b8752600487015260248601525f60448601525f6064860152608485015260a48401525af1801561042b575f5f925f926103ca575b50916060917fb601ba6099d0385f3a4bad0485aa6ff9186cda7fff3307a3b408b9ecee520e6f9360405192835260208301526040820152a1005b925050506060813d606011610423575b816103e760609383610945565b8101031261018b5780516020820151604090920151907fb601ba6099d0385f3a4bad0485aa6ff9186cda7fff3307a3b408b9ecee520e6f610390565b3d91506103da565b6040513d5f823e3d90fd5b634e487b7160e01b5f52601160045260245ffd5b61046b9060203d602011610470575b6104638183610945565b81019061097b565b610317565b503d610459565b60405162461bcd60e51b815260206004820152601860248201527f4e6f7420656e6f75676820746f6b656e7320666f72204c5000000000000000006044820152606490fd5b9091506020813d6020116104e8575b816104d860209383610945565b8101031261018b575190836102c3565b3d91506104cb565b80340390348211610436575f808093819382903414610518575b3390f11561042b5780610269565b506108fc61050a565b60405162461bcd60e51b8152602060048201526015602482015274151bdad95b881d1c985b9cd9995c8819985a5b1959605a1b6044820152606490fd5b610577915060203d602011610470576104638183610945565b83610229565b60405162461bcd60e51b8152602060048201526015602482015274125b9cdd59999a58da595b9d08115512081cd95b9d605a1b6044820152606490fd5b60405162461bcd60e51b815260206004820152602160248201527f4578636565647320617661696c61626c6520746f6b656e7320666f722073616c6044820152606560f81b6064820152608490fd5b60405162461bcd60e51b815260206004820152602160248201527f4c697175696469747920616c7265616479206d6967726174656420746f2044456044820152600b60fb1b6064820152608490fd5b3461018b575f36600319011261018b5760206040516b0295be96e6406697200000008152f35b3461018b575f36600319011261018b576020600354604051908152f35b3461018b575f36600319011261018b57602060ff600654166040519015158152f35b3461018b575f36600319011261018b575f546040516001600160a01b039091168152602090f35b3461018b575f36600319011261018b576002546040516001600160a01b039091168152602090f35b3461018b575f36600319011261018b57610724610993565b5f80546001600160a01b0319811682556001600160a01b03167f8be0079c531659141344cd1fd0a4f28419497f9722a3daafe3b4186f6b6457e08280a3005b3461018b575f36600319011261018b57602060405168015af1d78b58c400008152f35b3461018b57602036600319011261018b5760206107a460043561087d565b604051908152f35b3461018b575f36600319011261018b576020600554604051908152f35b3461018b575f36600319011261018b576001546040516001600160a01b039091168152602090f35b3461018b575f36600319011261018b5760065460405160089190911c6001600160a01b03168152602090f35b3461018b575f36600319011261018b576020600454604051908152f35b3461018b575f36600319011261018b57806aa56fa5b99019a5c800000060209252f35b8181029291811591840414171561043657565b9190820180921161043657565b670de0b6b3a7640000810661090057670de0b6b3a76400009004670de0b6b3a764000060055404906108be6003546108b8600454809561085d565b90610870565b916001600160ff1b0383168303610436575f19820192828411610436576108eb6108f4926108fa9561085d565b9060011b610870565b9061085d565b60011c90565b60405162461bcd60e51b815260206004820152601d60248201527f416d6f756e74206d75737420626520696e2066756c6c20746f6b656e730000006044820152606490fd5b90601f8019910116810190811067ffffffffffffffff82111761096757604052565b634e487b7160e01b5f52604160045260245ffd5b9081602091031261018b5751801515810361018b5790565b5f546001600160a01b031633036109a657565b606460405162461bcd60e51b815260206004820152602060248201527f4f776e61626c653a2063616c6c6572206973206e6f7420746865206f776e65726044820152fdfea2646970667358221220f22ed850a0ffb4342aafd4617c2c1960029076dcba151b9f920ddb810ccd94f464736f6c634300081b0033",
  "linkReferences": {},
  "deployedLinkReferences": {}
}