{
  "_format": "hh-sol-artifact-1",
  "contractName": "PenguinOnchain",
  "sourceName": "contracts/ERC721/PenguinOnchain.sol",
  "abi": [
    {
      "inputs": [],
      "stateMutability": "nonpayable",
      "type": "constructor"
    },
    {
      "inputs": [],
      "name": "ApprovalCallerNotOwnerNorApproved",
      "type": "error"
    },
    {
      "inputs": [],
      "name": "ApprovalQueryForNonexistentToken",
      "type": "error"
    },
    {
      "inputs": [],
      "name": "ApproveToCaller",
      "type": "error"
    },
    {
      "inputs": [],
      "name": "BalanceQueryForZeroAddress",
      "type": "error"
    },
    {
      "inputs": [],
      "name": "InvalidQueryRange",
      "type": "error"
    },
    {
      "inputs": [],
      "name": "MintERC2309QuantityExceedsLimit",
      "type": "error"
    },
    {
      "inputs": [],
      "name": "MintToZeroAddress",
      "type": "error"
    },
    {
      "inputs": [],
      "name": "MintZeroQuantity",
      "type": "error"
    },
    {
      "inputs": [],
      "name": "OwnerQueryForNonexistentToken",
      "type": "error"
    },
    {
      "inputs": [],
      "name": "OwnershipNotInitializedForExtraData",
      "type": "error"
    },
    {
      "inputs": [],
      "name": "TransferCallerNotOwnerNorApproved",
      "type": "error"
    },
    {
      "inputs": [],
      "name": "TransferFromIncorrectOwner",
      "type": "error"
    },
    {
      "inputs": [],
      "name": "TransferToNonERC721ReceiverImplementer",
      "type": "error"
    },
    {
      "inputs": [],
      "name": "TransferToZeroAddress",
      "type": "error"
    },
    {
      "inputs": [],
      "name": "URIQueryForNonexistentToken",
      "type": "error"
    },
    {
      "anonymous": false,
      "inputs": [
        {
          "indexed": true,
          "internalType": "uint256",
          "name": "tokenId",
          "type": "uint256"
        },
        {
          "indexed": false,
          "internalType": "string",
          "name": "trait_type",
          "type": "string"
        },
        {
          "indexed": false,
          "internalType": "uint256",
          "name": "accessoryId",
          "type": "uint256"
        }
      ],
      "name": "AccessoryAdded",
      "type": "event"
    },
    {
      "anonymous": false,
      "inputs": [
        {
          "indexed": true,
          "internalType": "uint256",
          "name": "accessoryId",
          "type": "uint256"
        },
        {
          "indexed": false,
          "internalType": "uint256",
          "name": "price",
          "type": "uint256"
        }
      ],
      "name": "AccessoryListed",
      "type": "event"
    },
    {
      "anonymous": false,
      "inputs": [
        {
          "indexed": true,
          "internalType": "uint256",
          "name": "accessoryId",
          "type": "uint256"
        },
        {
          "indexed": true,
          "internalType": "uint256",
          "name": "fromTokenId",
          "type": "uint256"
        },
        {
          "indexed": true,
          "internalType": "uint256",
          "name": "toTokenId",
          "type": "uint256"
        },
        {
          "indexed": false,
          "internalType": "address",
          "name": "buyer",
          "type": "address"
        },
        {
          "indexed": false,
          "internalType": "uint256",
          "name": "price",
          "type": "uint256"
        }
      ],
      "name": "AccessoryOfferCancelled",
      "type": "event"
    },
    {
      "anonymous": false,
      "inputs": [
        {
          "indexed": true,
          "internalType": "uint256",
          "name": "accessoryId",
          "type": "uint256"
        },
        {
          "indexed": true,
          "internalType": "uint256",
          "name": "fromTokenId",
          "type": "uint256"
        },
        {
          "indexed": true,
          "internalType": "uint256",
          "name": "toTokenId",
          "type": "uint256"
        },
        {
          "indexed": false,
          "internalType": "address",
          "name": "buyer",
          "type": "address"
        },
        {
          "indexed": false,
          "internalType": "uint256",
          "name": "price",
          "type": "uint256"
        }
      ],
      "name": "AccessoryOfferMade",
      "type": "event"
    },
    {
      "anonymous": false,
      "inputs": [
        {
          "indexed": true,
          "internalType": "uint256",
          "name": "accessoryId",
          "type": "uint256"
        },
        {
          "indexed": false,
          "internalType": "address",
          "name": "accessoryOwner",
          "type": "address"
        }
      ],
      "name": "AccessorySaleCancelled",
      "type": "event"
    },
    {
      "anonymous": false,
      "inputs": [
        {
          "indexed": false,
          "internalType": "string",
          "name": "accessoryType",
          "type": "string"
        },
        {
          "indexed": true,
          "internalType": "uint256",
          "name": "accessoryId",
          "type": "uint256"
        },
        {
          "indexed": true,
          "internalType": "uint256",
          "name": "fromTokenId",
          "type": "uint256"
        },
        {
          "indexed": true,
          "internalType": "uint256",
          "name": "toTokenId",
          "type": "uint256"
        },
        {
          "indexed": false,
          "internalType": "address",
          "name": "seller",
          "type": "address"
        },
        {
          "indexed": false,
          "internalType": "address",
          "name": "buyer",
          "type": "address"
        },
        {
          "indexed": false,
          "internalType": "uint256",
          "name": "price",
          "type": "uint256"
        }
      ],
      "name": "AccessorySold",
      "type": "event"
    },
    {
      "anonymous": false,
      "inputs": [
        {
          "indexed": true,
          "internalType": "address",
          "name": "owner",
          "type": "address"
        },
        {
          "indexed": true,
          "internalType": "address",
          "name": "approved",
          "type": "address"
        },
        {
          "indexed": true,
          "internalType": "uint256",
          "name": "tokenId",
          "type": "uint256"
        }
      ],
      "name": "Approval",
      "type": "event"
    },
    {
      "anonymous": false,
      "inputs": [
        {
          "indexed": true,
          "internalType": "address",
          "name": "owner",
          "type": "address"
        },
        {
          "indexed": true,
          "internalType": "address",
          "name": "operator",
          "type": "address"
        },
        {
          "indexed": false,
          "internalType": "bool",
          "name": "approved",
          "type": "bool"
        }
      ],
      "name": "ApprovalForAll",
      "type": "event"
    },
    {
      "anonymous": false,
      "inputs": [
        {
          "indexed": true,
          "internalType": "uint256",
          "name": "fromTokenId",
          "type": "uint256"
        },
        {
          "indexed": false,
          "internalType": "uint256",
          "name": "toTokenId",
          "type": "uint256"
        },
        {
          "indexed": true,
          "internalType": "address",
          "name": "from",
          "type": "address"
        },
        {
          "indexed": true,
          "internalType": "address",
          "name": "to",
          "type": "address"
        }
      ],
      "name": "ConsecutiveTransfer",
      "type": "event"
    },
    {
      "anonymous": false,
      "inputs": [
        {
          "indexed": false,
          "internalType": "string",
          "name": "part",
          "type": "string"
        },
        {
          "indexed": false,
          "internalType": "string",
          "name": "byteData",
          "type": "string"
        }
      ],
      "name": "CoordinatesInitialized",
      "type": "event"
    },
    {
      "anonymous": false,
      "inputs": [
        {
          "indexed": true,
          "internalType": "address",
          "name": "previousOwner",
          "type": "address"
        },
        {
          "indexed": true,
          "internalType": "address",
          "name": "newOwner",
          "type": "address"
        }
      ],
      "name": "OwnershipTransferred",
      "type": "event"
    },
    {
      "anonymous": false,
      "inputs": [
        {
          "indexed": false,
          "internalType": "string",
          "name": "part",
          "type": "string"
        }
      ],
      "name": "RemovedPart",
      "type": "event"
    },
    {
      "anonymous": false,
      "inputs": [
        {
          "indexed": true,
          "internalType": "address",
          "name": "from",
          "type": "address"
        },
        {
          "indexed": true,
          "internalType": "address",
          "name": "to",
          "type": "address"
        },
        {
          "indexed": true,
          "internalType": "uint256",
          "name": "tokenId",
          "type": "uint256"
        }
      ],
      "name": "Transfer",
      "type": "event"
    },
    {
      "inputs": [],
      "name": "BENEFICARY_ADDRESS",
      "outputs": [
        {
          "internalType": "address",
          "name": "",
          "type": "address"
        }
      ],
      "stateMutability": "view",
      "type": "function"
    },
    {
      "inputs": [],
      "name": "MAX_MINT_PER_WALLET",
      "outputs": [
        {
          "internalType": "uint256",
          "name": "",
          "type": "uint256"
        }
      ],
      "stateMutability": "view",
      "type": "function"
    },
    {
      "inputs": [],
      "name": "MAX_SUPPLY",
      "outputs": [
        {
          "internalType": "uint256",
          "name": "",
          "type": "uint256"
        }
      ],
      "stateMutability": "view",
      "type": "function"
    },
    {
      "inputs": [],
      "name": "MINT_PRICE",
      "outputs": [
        {
          "internalType": "uint256",
          "name": "",
          "type": "uint256"
        }
      ],
      "stateMutability": "view",
      "type": "function"
    },
    {
      "inputs": [],
      "name": "ROYALTY_ADDRESS",
      "outputs": [
        {
          "internalType": "address",
          "name": "",
          "type": "address"
        }
      ],
      "stateMutability": "view",
      "type": "function"
    },
    {
      "inputs": [],
      "name": "ROYALTY_PERCENT",
      "outputs": [
        {
          "internalType": "uint256",
          "name": "",
          "type": "uint256"
        }
      ],
      "stateMutability": "view",
      "type": "function"
    },
    {
      "inputs": [
        {
          "internalType": "uint256",
          "name": "",
          "type": "uint256"
        },
        {
          "internalType": "uint256",
          "name": "",
          "type": "uint256"
        }
      ],
      "name": "accessories",
      "outputs": [
        {
          "internalType": "string",
          "name": "trait_type",
          "type": "string"
        },
        {
          "internalType": "string",
          "name": "trait_name",
          "type": "string"
        },
        {
          "internalType": "string",
          "name": "bytePixel",
          "type": "string"
        },
        {
          "internalType": "uint256",
          "name": "sellingPrice",
          "type": "uint256"
        },
        {
          "internalType": "uint256",
          "name": "lastPrice",
          "type": "uint256"
        },
        {
          "internalType": "address",
          "name": "owner",
          "type": "address"
        },
        {
          "internalType": "bool",
          "name": "forSale",
          "type": "bool"
        }
      ],
      "stateMutability": "view",
      "type": "function"
    },
    {
      "inputs": [
        {
          "internalType": "uint256",
          "name": "",
          "type": "uint256"
        }
      ],
      "name": "accessoriesForSale",
      "outputs": [
        {
          "internalType": "string",
          "name": "trait_type",
          "type": "string"
        },
        {
          "internalType": "string",
          "name": "trait_name",
          "type": "string"
        },
        {
          "internalType": "string",
          "name": "bytePixel",
          "type": "string"
        },
        {
          "internalType": "uint256",
          "name": "sellingPrice",
          "type": "uint256"
        },
        {
          "internalType": "uint256",
          "name": "lastPrice",
          "type": "uint256"
        },
        {
          "internalType": "address",
          "name": "owner",
          "type": "address"
        },
        {
          "internalType": "bool",
          "name": "forSale",
          "type": "bool"
        }
      ],
      "stateMutability": "view",
      "type": "function"
    },
    {
      "inputs": [
        {
          "internalType": "uint256",
          "name": "tokenId",
          "type": "uint256"
        },
        {
          "internalType": "string",
          "name": "trait_type",
          "type": "string"
        },
        {
          "internalType": "string",
          "name": "trait_name",
          "type": "string"
        },
        {
          "internalType": "string",
          "name": "byteCode",
          "type": "string"
        }
      ],
      "name": "addAccessory",
      "outputs": [],
      "stateMutability": "nonpayable",
      "type": "function"
    },
    {
      "inputs": [
        {
          "internalType": "string",
          "name": "",
          "type": "string"
        }
      ],
      "name": "allowedParts",
      "outputs": [
        {
          "internalType": "bool",
          "name": "",
          "type": "bool"
        }
      ],
      "stateMutability": "view",
      "type": "function"
    },
    {
      "inputs": [
        {
          "internalType": "address",
          "name": "to",
          "type": "address"
        },
        {
          "internalType": "uint256",
          "name": "tokenId",
          "type": "uint256"
        }
      ],
      "name": "approve",
      "outputs": [],
      "stateMutability": "nonpayable",
      "type": "function"
    },
    {
      "inputs": [
        {
          "internalType": "uint256",
          "name": "fromTokenId",
          "type": "uint256"
        },
        {
          "internalType": "uint256",
          "name": "accessoryId",
          "type": "uint256"
        }
      ],
      "name": "approveOffer",
      "outputs": [],
      "stateMutability": "nonpayable",
      "type": "function"
    },
    {
      "inputs": [
        {
          "internalType": "address",
          "name": "owner",
          "type": "address"
        }
      ],
      "name": "balanceOf",
      "outputs": [
        {
          "internalType": "uint256",
          "name": "",
          "type": "uint256"
        }
      ],
      "stateMutability": "view",
      "type": "function"
    },
    {
      "inputs": [
        {
          "internalType": "uint256",
          "name": "tokenId",
          "type": "uint256"
        },
        {
          "internalType": "uint256",
          "name": "accessoryId",
          "type": "uint256"
        }
      ],
      "name": "cancelAccessorySale",
      "outputs": [],
      "stateMutability": "nonpayable",
      "type": "function"
    },
    {
      "inputs": [
        {
          "internalType": "uint256",
          "name": "accessoryId",
          "type": "uint256"
        },
        {
          "internalType": "uint256",
          "name": "fromTokenId",
          "type": "uint256"
        }
      ],
      "name": "cancelOffer",
      "outputs": [],
      "stateMutability": "nonpayable",
      "type": "function"
    },
    {
      "inputs": [
        {
          "internalType": "uint256",
          "name": "tokenId",
          "type": "uint256"
        }
      ],
      "name": "explicitOwnershipOf",
      "outputs": [
        {
          "components": [
            {
              "internalType": "address",
              "name": "addr",
              "type": "address"
            },
            {
              "internalType": "uint64",
              "name": "startTimestamp",
              "type": "uint64"
            },
            {
              "internalType": "bool",
              "name": "burned",
              "type": "bool"
            },
            {
              "internalType": "uint24",
              "name": "extraData",
              "type": "uint24"
            }
          ],
          "internalType": "struct IERC721A.TokenOwnership",
          "name": "",
          "type": "tuple"
        }
      ],
      "stateMutability": "view",
      "type": "function"
    },
    {
      "inputs": [
        {
          "internalType": "uint256[]",
          "name": "tokenIds",
          "type": "uint256[]"
        }
      ],
      "name": "explicitOwnershipsOf",
      "outputs": [
        {
          "components": [
            {
              "internalType": "address",
              "name": "addr",
              "type": "address"
            },
            {
              "internalType": "uint64",
              "name": "startTimestamp",
              "type": "uint64"
            },
            {
              "internalType": "bool",
              "name": "burned",
              "type": "bool"
            },
            {
              "internalType": "uint24",
              "name": "extraData",
              "type": "uint24"
            }
          ],
          "internalType": "struct IERC721A.TokenOwnership[]",
          "name": "",
          "type": "tuple[]"
        }
      ],
      "stateMutability": "view",
      "type": "function"
    },
    {
      "inputs": [],
      "name": "factory",
      "outputs": [
        {
          "internalType": "contract IPengoFactory",
          "name": "",
          "type": "address"
        }
      ],
      "stateMutability": "view",
      "type": "function"
    },
    {
      "inputs": [],
      "name": "getAllAccessoriesForSale",
      "outputs": [
        {
          "components": [
            {
              "internalType": "string",
              "name": "trait_type",
              "type": "string"
            },
            {
              "internalType": "string",
              "name": "trait_name",
              "type": "string"
            },
            {
              "internalType": "string",
              "name": "bytePixel",
              "type": "string"
            },
            {
              "internalType": "uint256",
              "name": "sellingPrice",
              "type": "uint256"
            },
            {
              "internalType": "uint256",
              "name": "lastPrice",
              "type": "uint256"
            },
            {
              "internalType": "address",
              "name": "owner",
              "type": "address"
            },
            {
              "internalType": "bool",
              "name": "forSale",
              "type": "bool"
            }
          ],
          "internalType": "struct IPenguinOnchain.Accessory[]",
          "name": "",
          "type": "tuple[]"
        }
      ],
      "stateMutability": "view",
      "type": "function"
    },
    {
      "inputs": [],
      "name": "getAllAllowedParts",
      "outputs": [
        {
          "internalType": "string[]",
          "name": "",
          "type": "string[]"
        }
      ],
      "stateMutability": "view",
      "type": "function"
    },
    {
      "inputs": [
        {
          "internalType": "uint256",
          "name": "tokenId",
          "type": "uint256"
        }
      ],
      "name": "getApproved",
      "outputs": [
        {
          "internalType": "address",
          "name": "",
          "type": "address"
        }
      ],
      "stateMutability": "view",
      "type": "function"
    },
    {
      "inputs": [
        {
          "internalType": "uint256",
          "name": "tokenId",
          "type": "uint256"
        }
      ],
      "name": "getNFTDetails",
      "outputs": [
        {
          "components": [
            {
              "internalType": "string",
              "name": "trait_type",
              "type": "string"
            },
            {
              "internalType": "string",
              "name": "trait_name",
              "type": "string"
            },
            {
              "internalType": "string",
              "name": "bytePixel",
              "type": "string"
            },
            {
              "internalType": "uint256",
              "name": "sellingPrice",
              "type": "uint256"
            },
            {
              "internalType": "uint256",
              "name": "lastPrice",
              "type": "uint256"
            },
            {
              "internalType": "address",
              "name": "owner",
              "type": "address"
            },
            {
              "internalType": "bool",
              "name": "forSale",
              "type": "bool"
            }
          ],
          "internalType": "struct IPenguinOnchain.Accessory[]",
          "name": "",
          "type": "tuple[]"
        },
        {
          "components": [
            {
              "internalType": "string",
              "name": "category",
              "type": "string"
            },
            {
              "internalType": "string",
              "name": "networth",
              "type": "string"
            }
          ],
          "internalType": "struct IPenguinOnchain.SpecialTrait",
          "name": "",
          "type": "tuple"
        }
      ],
      "stateMutability": "view",
      "type": "function"
    },
    {
      "inputs": [
        {
          "internalType": "string",
          "name": "part",
          "type": "string"
        }
      ],
      "name": "getPixelPart",
      "outputs": [
        {
          "internalType": "uint256[]",
          "name": "xCoords",
          "type": "uint256[]"
        },
        {
          "internalType": "uint256[]",
          "name": "yCoords",
          "type": "uint256[]"
        }
      ],
      "stateMutability": "view",
      "type": "function"
    },
    {
      "inputs": [
        {
          "internalType": "uint256",
          "name": "tokenId",
          "type": "uint256"
        }
      ],
      "name": "getSeed",
      "outputs": [
        {
          "internalType": "uint256",
          "name": "",
          "type": "uint256"
        }
      ],
      "stateMutability": "view",
      "type": "function"
    },
    {
      "inputs": [
        {
          "internalType": "string",
          "name": "part",
          "type": "string"
        },
        {
          "internalType": "string",
          "name": "byteData",
          "type": "string"
        }
      ],
      "name": "initializeCoordinates",
      "outputs": [],
      "stateMutability": "nonpayable",
      "type": "function"
    },
    {
      "inputs": [
        {
          "internalType": "address",
          "name": "owner",
          "type": "address"
        },
        {
          "internalType": "address",
          "name": "operator",
          "type": "address"
        }
      ],
      "name": "isApprovedForAll",
      "outputs": [
        {
          "internalType": "bool",
          "name": "",
          "type": "bool"
        }
      ],
      "stateMutability": "view",
      "type": "function"
    },
    {
      "inputs": [
        {
          "internalType": "string",
          "name": "part",
          "type": "string"
        },
        {
          "internalType": "uint8",
          "name": "x",
          "type": "uint8"
        },
        {
          "internalType": "uint8",
          "name": "y",
          "type": "uint8"
        }
      ],
      "name": "isValidCoordinate",
      "outputs": [
        {
          "internalType": "bool",
          "name": "",
          "type": "bool"
        }
      ],
      "stateMutability": "view",
      "type": "function"
    },
    {
      "inputs": [
        {
          "internalType": "uint256",
          "name": "tokenId",
          "type": "uint256"
        },
        {
          "internalType": "uint256",
          "name": "accessoryId",
          "type": "uint256"
        },
        {
          "internalType": "uint256",
          "name": "price",
          "type": "uint256"
        }
      ],
      "name": "listAccessoryForSale",
      "outputs": [],
      "stateMutability": "nonpayable",
      "type": "function"
    },
    {
      "inputs": [
        {
          "internalType": "uint256",
          "name": "accessoryId",
          "type": "uint256"
        },
        {
          "internalType": "uint256",
          "name": "fromTokenId",
          "type": "uint256"
        },
        {
          "internalType": "uint256",
          "name": "toTokenId",
          "type": "uint256"
        }
      ],
      "name": "makeOffer",
      "outputs": [],
      "stateMutability": "payable",
      "type": "function"
    },
    {
      "inputs": [
        {
          "internalType": "uint256",
          "name": "_mintAmount",
          "type": "uint256"
        }
      ],
      "name": "mintPengo",
      "outputs": [
        {
          "internalType": "uint256[]",
          "name": "",
          "type": "uint256[]"
        }
      ],
      "stateMutability": "payable",
      "type": "function"
    },
    {
      "inputs": [
        {
          "internalType": "address",
          "name": "",
          "type": "address"
        }
      ],
      "name": "mintedCount",
      "outputs": [
        {
          "internalType": "uint256",
          "name": "",
          "type": "uint256"
        }
      ],
      "stateMutability": "view",
      "type": "function"
    },
    {
      "inputs": [],
      "name": "name",
      "outputs": [
        {
          "internalType": "string",
          "name": "",
          "type": "string"
        }
      ],
      "stateMutability": "view",
      "type": "function"
    },
    {
      "inputs": [
        {
          "internalType": "address",
          "name": "",
          "type": "address"
        }
      ],
      "name": "offerBalances",
      "outputs": [
        {
          "internalType": "uint256",
          "name": "",
          "type": "uint256"
        }
      ],
      "stateMutability": "view",
      "type": "function"
    },
    {
      "inputs": [
        {
          "internalType": "uint256",
          "name": "",
          "type": "uint256"
        },
        {
          "internalType": "uint256",
          "name": "",
          "type": "uint256"
        }
      ],
      "name": "offers",
      "outputs": [
        {
          "internalType": "address",
          "name": "buyer",
          "type": "address"
        },
        {
          "internalType": "uint256",
          "name": "toTokenId",
          "type": "uint256"
        },
        {
          "internalType": "uint256",
          "name": "price",
          "type": "uint256"
        },
        {
          "internalType": "bool",
          "name": "active",
          "type": "bool"
        }
      ],
      "stateMutability": "view",
      "type": "function"
    },
    {
      "inputs": [],
      "name": "owner",
      "outputs": [
        {
          "internalType": "address",
          "name": "",
          "type": "address"
        }
      ],
      "stateMutability": "view",
      "type": "function"
    },
    {
      "inputs": [
        {
          "internalType": "uint256",
          "name": "tokenId",
          "type": "uint256"
        }
      ],
      "name": "ownerOf",
      "outputs": [
        {
          "internalType": "address",
          "name": "",
          "type": "address"
        }
      ],
      "stateMutability": "view",
      "type": "function"
    },
    {
      "inputs": [
        {
          "internalType": "string",
          "name": "",
          "type": "string"
        },
        {
          "internalType": "uint8",
          "name": "",
          "type": "uint8"
        },
        {
          "internalType": "uint8",
          "name": "",
          "type": "uint8"
        }
      ],
      "name": "pixelMapCoordinates",
      "outputs": [
        {
          "internalType": "bool",
          "name": "",
          "type": "bool"
        }
      ],
      "stateMutability": "view",
      "type": "function"
    },
    {
      "inputs": [
        {
          "internalType": "uint256",
          "name": "accessoryId",
          "type": "uint256"
        },
        {
          "internalType": "uint256",
          "name": "fromTokenId",
          "type": "uint256"
        },
        {
          "internalType": "uint256",
          "name": "toTokenId",
          "type": "uint256"
        }
      ],
      "name": "purchaseAccessory",
      "outputs": [],
      "stateMutability": "payable",
      "type": "function"
    },
    {
      "inputs": [
        {
          "internalType": "string",
          "name": "part",
          "type": "string"
        }
      ],
      "name": "removeAllowedPart",
      "outputs": [],
      "stateMutability": "nonpayable",
      "type": "function"
    },
    {
      "inputs": [],
      "name": "renounceOwnership",
      "outputs": [],
      "stateMutability": "nonpayable",
      "type": "function"
    },
    {
      "inputs": [
        {
          "internalType": "address",
          "name": "from",
          "type": "address"
        },
        {
          "internalType": "address",
          "name": "to",
          "type": "address"
        },
        {
          "internalType": "uint256",
          "name": "tokenId",
          "type": "uint256"
        }
      ],
      "name": "safeTransferFrom",
      "outputs": [],
      "stateMutability": "nonpayable",
      "type": "function"
    },
    {
      "inputs": [
        {
          "internalType": "address",
          "name": "from",
          "type": "address"
        },
        {
          "internalType": "address",
          "name": "to",
          "type": "address"
        },
        {
          "internalType": "uint256",
          "name": "tokenId",
          "type": "uint256"
        },
        {
          "internalType": "bytes",
          "name": "_data",
          "type": "bytes"
        }
      ],
      "name": "safeTransferFrom",
      "outputs": [],
      "stateMutability": "nonpayable",
      "type": "function"
    },
    {
      "inputs": [
        {
          "internalType": "address",
          "name": "operator",
          "type": "address"
        },
        {
          "internalType": "bool",
          "name": "approved",
          "type": "bool"
        }
      ],
      "name": "setApprovalForAll",
      "outputs": [],
      "stateMutability": "nonpayable",
      "type": "function"
    },
    {
      "inputs": [
        {
          "internalType": "address",
          "name": "_beneficiaryAddress",
          "type": "address"
        }
      ],
      "name": "setBeneficiaryAddress",
      "outputs": [],
      "stateMutability": "nonpayable",
      "type": "function"
    },
    {
      "inputs": [
        {
          "internalType": "contract IPengoFactory",
          "name": "_factoryAddress",
          "type": "address"
        }
      ],
      "name": "setFactory",
      "outputs": [],
      "stateMutability": "nonpayable",
      "type": "function"
    },
    {
      "inputs": [
        {
          "internalType": "address",
          "name": "_royaltyAddress",
          "type": "address"
        }
      ],
      "name": "setRoyaltyAddress",
      "outputs": [],
      "stateMutability": "nonpayable",
      "type": "function"
    },
    {
      "inputs": [
        {
          "internalType": "uint256",
          "name": "",
          "type": "uint256"
        }
      ],
      "name": "specialTraits",
      "outputs": [
        {
          "internalType": "string",
          "name": "category",
          "type": "string"
        },
        {
          "internalType": "string",
          "name": "networth",
          "type": "string"
        }
      ],
      "stateMutability": "view",
      "type": "function"
    },
    {
      "inputs": [
        {
          "internalType": "bytes4",
          "name": "interfaceId",
          "type": "bytes4"
        }
      ],
      "name": "supportsInterface",
      "outputs": [
        {
          "internalType": "bool",
          "name": "",
          "type": "bool"
        }
      ],
      "stateMutability": "view",
      "type": "function"
    },
    {
      "inputs": [],
      "name": "symbol",
      "outputs": [
        {
          "internalType": "string",
          "name": "",
          "type": "string"
        }
      ],
      "stateMutability": "view",
      "type": "function"
    },
    {
      "inputs": [
        {
          "internalType": "uint256",
          "name": "tokenId",
          "type": "uint256"
        }
      ],
      "name": "tokenURI",
      "outputs": [
        {
          "internalType": "string",
          "name": "",
          "type": "string"
        }
      ],
      "stateMutability": "view",
      "type": "function"
    },
    {
      "inputs": [
        {
          "internalType": "address",
          "name": "owner",
          "type": "address"
        }
      ],
      "name": "tokensOfOwner",
      "outputs": [
        {
          "internalType": "uint256[]",
          "name": "",
          "type": "uint256[]"
        }
      ],
      "stateMutability": "view",
      "type": "function"
    },
    {
      "inputs": [
        {
          "internalType": "address",
          "name": "owner",
          "type": "address"
        },
        {
          "internalType": "uint256",
          "name": "start",
          "type": "uint256"
        },
        {
          "internalType": "uint256",
          "name": "stop",
          "type": "uint256"
        }
      ],
      "name": "tokensOfOwnerIn",
      "outputs": [
        {
          "internalType": "uint256[]",
          "name": "",
          "type": "uint256[]"
        }
      ],
      "stateMutability": "view",
      "type": "function"
    },
    {
      "inputs": [],
      "name": "totalOfferBalance",
      "outputs": [
        {
          "internalType": "uint256",
          "name": "",
          "type": "uint256"
        }
      ],
      "stateMutability": "view",
      "type": "function"
    },
    {
      "inputs": [],
      "name": "totalSupply",
      "outputs": [
        {
          "internalType": "uint256",
          "name": "",
          "type": "uint256"
        }
      ],
      "stateMutability": "view",
      "type": "function"
    },
    {
      "inputs": [
        {
          "internalType": "address",
          "name": "from",
          "type": "address"
        },
        {
          "internalType": "address",
          "name": "to",
          "type": "address"
        },
        {
          "internalType": "uint256",
          "name": "tokenId",
          "type": "uint256"
        }
      ],
      "name": "transferFrom",
      "outputs": [],
      "stateMutability": "nonpayable",
      "type": "function"
    },
    {
      "inputs": [
        {
          "internalType": "address",
          "name": "newOwner",
          "type": "address"
        }
      ],
      "name": "transferOwnership",
      "outputs": [],
      "stateMutability": "nonpayable",
      "type": "function"
    },
    {
      "inputs": [],
      "name": "withdraw",
      "outputs": [],
      "stateMutability": "nonpayable",
      "type": "function"
    }
  ],
  "bytecode": "0x60806040523461002257610011610161565b604051615fbd6104858239615fbd90f35b600080fd5b634e487b7160e01b600052604160045260246000fd5b90601f01601f191681019081106001600160401b0382111761005e57604052565b610027565b9061007761007060405190565b928361003d565b565b6001600160401b03811161005e57602090601f01601f19160190565b906100a76100a283610079565b610063565b918252565b6100b6600f610095565b6e2832b733bab4b71027b731b430b4b760891b602082015290565b6100d96100ac565b90565b6100e66005610095565b6450656e676f60d81b602082015290565b6100d96100dc565b906001600160a01b03905b9181191691161790565b6100d990610128906001600160a01b031682565b6001600160a01b031690565b6100d990610114565b6100d990610134565b906101566100d961015d9261013d565b82546100ff565b9055565b61017a61016c6100d1565b6101746100f7565b9061019e565b61018c610185610419565b600b610146565b610077610197610419565b600c610146565b90610077916101e0565b6100d96100d96100d99290565b6100d960016101a8565b906000199061010a565b906101d96100d961015d926101a8565b82546101bf565b906101ea916101fc565b6100776101f56101b5565b60096101c9565b906102069161020f565b61007733610423565b6100779182918291906103de565b634e487b7160e01b600052602260045260246000fd5b9060016002830492168015610253575b602083101461024e57565b61021d565b91607f1691610243565b9160001960089290920291821b911b61010a565b91906102826100d961015d936101a8565b90835461025d565b61007791600091610271565b8181106102a1575050565b806102af600060019361028a565b01610296565b9190601f81116102c457505050565b6102d661007793600052602060002090565b906020601f8401819004830193106102f8575b6020601f909101040190610296565b90915081906102e9565b9061030b815190565b906001600160401b03821161005e5761032e826103288554610233565b856102b5565b602090601f83116001146103695761015d92916000918361035e575b5050600019600883021c1916906002021790565b01519050388061034a565b601f1983169161037e85600052602060002090565b9260005b8181106103bc575091600293918560019694106103a3575b50505002019055565b01516000196008601f8516021c1916905538808061039a565b91936020600181928787015181550195019201610382565b9061007791610302565b906103ed6103f49260026103d4565b60036103d4565b6100776103ff61047a565b60006101c9565b6100d990610128565b6100d99054610406565b6100d9600861040f565b610449610443610433600861040f565b61043e846008610146565b61013d565b9161013d565b907f8be0079c531659141344cd1fd0a4f28419497f9722a3daafe3b4186f6b6457e061047460405190565b600090a3565b6100d960006101a856fe6080604052600436101561001257600080fd5b60003560e01c806301ffc9a7146103a257806306d254da1461039d57806306fdde0314610398578063081812fc14610393578063095ea7b31461038e578063143759be1461038957806318160ddd146103845780631f05db791461037f57806323b872dd1461037a57806332cb6b0c1461037557806334aeb564146103705780633ccfd60b1461036b5780633d2620d01461036657806342842e0e146103615780634d03a9a51461035c57806357ad1ced146103575780635bb47808146103525780635bbb21771461034d5780636352211e1461034857806370a0823114610343578063715018a61461033e57806378c91ed614610339578063813cd2761461033457806381bb57c71461032f57806382260f351461032a5780638462151c146103255780638a78fb1e146103205780638da5cb5b1461031b57806395d89b411461031657806399a2557a14610311578063a079100d1461030c578063a204a82f14610307578063a22cb46514610302578063a942cccb146102fd578063ac2a2407146102f8578063b1650cd0146102f3578063b19960e6146102ee578063b1c456ad146102e9578063b88d4fde146102e4578063c002d23d146102df578063c23dc68f146102da578063c3e6d9ae146102d5578063c45a0155146102d0578063c87b56dd146102cb578063cdcd897e146102c6578063d45557cc146102c1578063da4e1817146102bc578063e0d4ea37146102b7578063e210a72d146102b2578063e8250705146102ad578063e985e9c5146102a8578063ec6be06e146102a3578063f16f37301461029e578063f2fde38b14610299578063f589e3b514610294578063fbac2c941461028f5763fddcb5ea036103ba57611773565b611747565b61172e565b6116cf565b6116b6565b61169e565b611682565b611638565b611613565b6115f8565b6115ca565b61156b565b611550565b611523565b6114fc565b6114be565b611497565b61146c565b611437565b6113eb565b6113c4565b611397565b61136f565b61135b565b611342565b6112f4565b6112d9565b611262565b61122e565b611213565b6111f7565b61115d565b61111e565b610fba565b610f18565b610ef2565b610ece565b610eb3565b610e98565b610e70565b610d6b565b610d25565b610bed565b610b45565b610b17565b6109d9565b6109c0565b61097c565b610950565b6108f2565b6105f0565b6105d5565b610591565b610539565b6104eb565b610457565b6103e9565b6001600160e01b031981165b036103ba57565b600080fd5b905035906103cc826103a7565b565b906020828203126103ba576103e2916103bf565b90565b9052565b346103ba576104176104046103ff3660046103ce565b6117ae565b6040515b91829182901515815260200190565b0390f35b6001600160a01b031690565b6001600160a01b0381166103b3565b905035906103cc82610427565b906020828203126103ba576103e291610436565b346103ba5761046f61046a366004610443565b61186a565b604051005b60009103126103ba57565b60005b8381106104925750506000910152565b8181015183820152602001610482565b6104c36104cc6020936104d6936104b7815190565b80835293849260200190565b9586910161047f565b601f01601f191690565b0190565b60208082526103e2929101906104a2565b346103ba576104fb366004610474565b61041761050661187c565b604051918291826104da565b806103b3565b905035906103cc82610512565b906020828203126103ba576103e291610518565b346103ba5761041761055461054f366004610525565b611886565b604051918291826001600160a01b03909116815260200190565b91906040838203126103ba576103e290602061058a8286610436565b9401610518565b346103ba5761046f6105a436600461056e565b906118c2565b6103e2916008021c6001600160a01b031690565b906103e291546105aa565b6103e26000600c6105be565b346103ba576105e5366004610474565b6104176105546105c9565b346103ba57610600366004610474565b61041761060b61196d565b6040515b9182918290815260200190565b91906040838203126103ba576103e290602061058a8286610518565b6103e26103e26103e29290565b9061064f90610638565b600052602052604060002090565b634e487b7160e01b600052603260045260246000fd5b80548210156106965761068d600691600052602060002090565b91020190600090565b61065d565b634e487b7160e01b600052602260045260246000fd5b90600160028304921680156106d1575b60208310146106cc57565b61069b565b91607f16916106c1565b805460009392916106f86106ee836106b1565b8085529360200190565b916001811690811561074a575060011461071157505050565b6107249192939450600052602060002090565b916000925b8184106107365750500190565b805484840152602090930192600101610729565b92949550505060ff1916825215156020020190565b906103e2916106db565b634e487b7160e01b600052604160045260246000fd5b90601f01601f191681019081106001600160401b038211176107a057604052565b610769565b906103cc6107bf926107b660405190565b9384809261075f565b038361077f565b6103e29081565b6103e290546107c6565b6103e29061041b565b6103e290546107d7565b6103e29060a01c5b60ff1690565b6103e290546107ea565b61080d90600f610645565b90610816825490565b8110156103ba5761082691610673565b50610830816107a5565b9161083d600183016107a5565b9161084a600282016107a5565b91610857600383016107cd565b91610864600482016107cd565b916103e260056108758185016107e0565b93016107f8565b9260c0949897956108d36108cb6108da936108bd6108ea976108af6103cc9d9860e08c01908c60008184039101526104a2565b908a820360208c01526104a2565b9088820360408a01526104a2565b9a6060870152565b6080850152565b6001600160a01b031660a0830152565b019015159052565b346103ba5761041761090e61090836600461061c565b90610802565b9361091e97959793919360405190565b9788978861087c565b90916060828403126103ba576103e26109408484610436565b93604061058a8260208701610436565b346103ba5761046f610963366004610927565b916119d8565b6103e2614e20610638565b6103e2610969565b346103ba5761098c366004610474565b61041761060b610974565b90916060828403126103ba576103e26109b08484610518565b93604061058a8260208701610518565b346103ba5761046f6109d3366004610997565b91611f10565b346103ba576109e9366004610474565b61046f61210c565b906103cc6109fe60405190565b928361077f565b6001600160401b0381116107a057602090601f01601f19160190565b90826000939282370152565b90929192610a42610a3d82610a05565b6109f1565b93818552818301116103ba576103cc916020850190610a21565b9080601f830112156103ba578160206103e293359101610a2d565b906020828203126103ba5781356001600160401b0381116103ba576103e29201610a5c565b90610abc610ab5610aab845190565b8084529260200190565b9260200190565b9060005b818110610acd5750505090565b909192610aea610ae36001928651815260200190565b9460200190565b929101610ac0565b60408082526103e2939192610b0991840190610a9c565b916020818403910152610a9c565b346103ba57610b2f610b2a366004610a77565b6121f3565b90610417610b3c60405190565b92839283610af2565b346103ba5761046f610b58366004610927565b916122cf565b6103e2906107f2565b6103e29054610b5e565b90610b80610b85926017610645565b610645565b90610b8f826107e0565b91610b9c600182016107cd565b916103e26003610bae600285016107cd565b9301610b67565b6108ea6103cc94610be6606094989795610bdf608086019a60008701906001600160a01b03169052565b6020850152565b6040830152565b346103ba57610417610c09610c0336600461061c565b90610b71565b90610c1694929460405190565b94859485610bb5565b60ff81166103b3565b905035906103cc82610c1f565b90916060828403126103ba5781356001600160401b0381116103ba57610c60846103e2928501610a5c565b936040610c708260208701610c28565b9401610c28565b6104d6610c8f92602092610c89815190565b94859290565b9384910161047f565b610ca86104d69160209493610c77565b918252565b610cc2610cb960405190565b92839283610c98565b03902090565b6103e291610cad565b6107f26103e26103e29260ff1690565b9061064f90610cd1565b6103e2916008021c6107f2565b906103e29154610ceb565b6103e292610d1b600093610d1b610d20946013610cc8565b610ce1565b610cf8565b346103ba57610417610404610d3b366004610c35565b91610d03565b6103b3816107d7565b905035906103cc82610d41565b906020828203126103ba576103e291610d4a565b346103ba5761046f610d7e366004610d57565b6122fa565b909182601f830112156103ba578135916001600160401b0383116103ba5760200192602083028401116103ba57565b906020828203126103ba5781356001600160401b0381116103ba57610dd79201610d83565b9091565b80516001600160a01b031682526020808201516001600160401b03169083015260408082015115159083015260609081015162ffffff16910152565b906104d681608093610ddb565b90610e33610ab5610aab845190565b9060005b818110610e445750505090565b909192610e57610ae36001928651610e17565b929101610e37565b60208082526103e292910190610e24565b346103ba57610417610e8c610e86366004610db2565b90612393565b60405191829182610e5f565b346103ba57610417610554610eae366004610525565b6123f4565b346103ba5761041761060b610ec9366004610443565b612421565b346103ba57610ede366004610474565b61046f612485565b6103e26000600b6105be565b346103ba57610f02366004610474565b610417610554610ee6565b601990610816825490565b346103ba5761041761090e610f2e366004610525565b610f0d565b906103e2916104a2565b90610f53610f49835190565b8083529160200190565b9081610f656020830284019460200190565b926000915b838310610f7957505050505090565b90919293946020610f9c610f9583856001950387528951610f33565b9760200190565b9301930191939290610f6a565b60208082526103e292910190610f3d565b346103ba57610fca366004610474565b610417610fd56124e1565b60405191829182610fa9565b906103e29060c08061102c61101a61100860e08601600089015187820360008901526104a2565b602088015186820360208801526104a2565b604087015185820360408701526104a2565b9461103c60608201516060860152565b61104b60808201516080860152565b60a0818101516001600160a01b03169085015201511515910152565b906103e291610fe1565b9061107d610f49835190565b908161108f6020830284019460200190565b926000915b8383106110a357505050505090565b909192939460206110bf610f9583856001950387528951611067565b9301930191939290611094565b805160408084526103e293916020916110e891908401906104a2565b9201519060208184039101526104a2565b60408082526103e293919261111091840190611071565b9160208184039101526110cc565b346103ba57611136611131366004610525565b6126ba565b9061041761114360405190565b928392836110f9565b60208082526103e292910190610a9c565b346103ba57610417611178611173366004610443565b6126ec565b6040519182918261114c565b906080828203126103ba576111998183610518565b9260208301356001600160401b0381116103ba57826111b9918501610a5c565b9260408101356001600160401b0381116103ba57836111d9918301610a5c565b9260608201356001600160401b0381116103ba576103e29201610a5c565b346103ba5761046f61120a366004611184565b92919091612c7d565b346103ba57611223366004610474565b610417610554613188565b346103ba5761123e366004610474565b610417610506613192565b90916060828403126103ba576103e26109b08484610436565b346103ba57610417611178611278366004611249565b9161319c565b6103e29061041b906001600160a01b031682565b6103e29061127e565b6103e290611292565b9061064f9061129b565b6103e2916008021c81565b906103e291546112ae565b60006112d46103e29260186112a4565b6112b9565b346103ba5761041761060b6112ef366004610443565b6112c4565b610417611178611305366004610525565b613613565b8015156103b3565b905035906103cc8261130a565b91906040838203126103ba576103e290602061133b8286610436565b9401611312565b346103ba5761046f61135536600461131f565b9061361e565b61046f611369366004610997565b91613b97565b346103ba5761046f611382366004610a77565b61410c565b6000610d206103e2926011610cc8565b346103ba576104176104046113ad366004610a77565b611387565b6103e2600a610638565b6103e26113b2565b346103ba576113d4366004610474565b61041761060b6113bc565b6103e2600060166112b9565b346103ba576113fb366004610474565b61041761060b6113df565b906080828203126103ba5761141b8183610436565b926114298260208501610436565b926111d98360408301610518565b346103ba5761046f61144a366004611406565b92919091614115565b6103e26706f05b59d3b20000610638565b6103e2611453565b346103ba5761147c366004610474565b61041761060b611464565b6080810192916103cc9190610ddb565b346103ba576104176114b26114ad366004610525565b61416a565b60405191829182611487565b346103ba5761046f6114d136600461061c565b90614222565b6103e26000600a6105be565b6103e59061129b565b6020810192916103cc91906114e3565b346103ba5761150c366004610474565b6104176115176114d7565b604051918291826114ec565b346103ba57610417610506611539366004610525565b61430a565b6103e26005610638565b6103e261153e565b346103ba57611560366004610474565b61041761060b611548565b346103ba5761046f61157e36600461061c565b906145c3565b61158f906010610645565b906103e2600161159e846107a5565b93016107a5565b60408082526103e29391926115bc918401906104a2565b9160208184039101526104a2565b346103ba576115e26115dd366004610525565b611584565b906104176115ef60405190565b928392836115a5565b346103ba5761041761060b61160e366004610525565b6145cd565b61046f611621366004610997565b9161492f565b60208082526103e292910190611071565b346103ba57611648366004610474565b61041761165361493a565b60405191829182611627565b91906040838203126103ba576103e290602061167b8286610436565b9401610436565b346103ba5761041761040461169836600461165f565b90614944565b346103ba5761046f6116b1366004610443565b614976565b346103ba5761046f6116c936600461061c565b90614c6a565b346103ba5761046f6116e2366004610443565b614d05565b9190916040818403126103ba5780356001600160401b0381116103ba5783611710918301610a5c565b9260208201356001600160401b0381116103ba576103e29201610a5c565b346103ba5761046f6117413660046116e7565b90614f04565b346103ba5761041761040461175d366004610c35565b91614f0e565b60006112d46103e292600e6112a4565b346103ba5761041761060b611789366004610443565b611763565b6117a161179b6103e29290565b60e01b90565b6001600160e01b03191690565b6117bb6301ffc9a761178e565b6001600160e01b03198216149081156117fd575b81156117d9575090565b90506117f96117eb635b5e139f61178e565b916001600160e01b03191690565b1490565b905061180c6380ac58cd61178e565b6001600160e01b0319821614906117cf565b6103cc9061182a614f8e565b61185f565b906001600160a01b03905b9181191691161790565b906118546103e261185b9261129b565b825461182f565b9055565b6103cc90600c611844565b6103cc9061181e565b6103e2906107a5565b6103e26002611873565b61189661189282614fb8565b1590565b6118b05760006118aa6103e2926006610645565b016107e0565b6333d1c03960e21b6000908152600490fd5b906118cc816123f4565b336001600160a01b0382168103611944575b5061190b611905611911926119008660006118fa886006610645565b01611844565b61129b565b9361129b565b91610638565b917f8c5be1e5ebec7d5bd14f71427d1e84f3dd0314c0f7b2291e5b200ac8c7c3b92561193c60405190565b80805b0390a4565b6118926119519183614944565b61195b57386118de565b6367d9dca160e11b6000908152600490fd5b6103e261198c61197d60006107cd565b61198760016107cd565b900390565b611987615014565b61041b6103e26103e29290565b6103e290611994565b906000199061183a565b906119c46103e261185b92610638565b82546119aa565b6103e2600160e11b610638565b9190916119e48261501e565b6119f56119f082611994565b611292565b611a106001600160a01b0384165b916001600160a01b031690565b03611bf557611a1e836150c7565b9190336001600160a01b03851681148185141715611bcc575b50600092611a4761041b856119a1565b6001600160a01b03881614611bb757926119059281611b15969361190b96611baf575b5050611a93611a7a8460056112a4565b611a8d611a86826107cd565b6000190190565b906119b4565b611ab3611aa18960056112a4565b611a8d611aad826107cd565b60010190565b611abb6119cb565b611adf611ac9838b87615141565b4260a01b908317176001600160a01b038b161790565b90611af5600492611af08b85610645565b6119b4565b611b07611b0185610638565b91841690565b14611b40575b50505061129b565b917fddf252ad1be2c89b69c2b068fc378daa952ba7f163c4a11628f55a4df523b3ef61193c60405190565b611b52611b4d6001610638565b890190565b92611b65611b608584610645565b6107cd565b611b75611b7183610638565b9190565b14611b81575b50611b0d565b6103e2611b8d916107cd565b8303611b9a575b80611b7b565b611ba792611af091610645565b388080611b94565b558138611a6a565b633a954ecd60e21b84528380600481015b0390fd5b611892611bd99186614944565b611be35738611a37565b632ce44b5f60e11b6000908152600490fd5b62a1148160e81b6000908152600490fd5b15611c0d57565b60405162461bcd60e51b815260206004820152601f60248201527f4e6f7420746865206f776e6572206f662074686973206163636573736f7279006044820152606490fd5b9060ff60a01b9060a01b61183a565b90611c716103e261185b92151590565b8254611c52565b634e487b7160e01b600052600060045260246000fd5b6103e290546106b1565b9160001960089290920291821b911b61183a565b921b90565b9190611cc26103e261185b93610638565b908354611c98565b6103cc91600091611cb1565b818110611ce1575050565b80611cef6000600193611cca565b01611cd6565b9190601f8111611d0457505050565b611d166103cc93600052602060002090565b906020601f840181900483019310611d39575b6020601f909101045b0190611cd6565b9091508190611d29565b600019600883021c1916906002021790565b90808214611e3257611d6681611c8e565b906001600160401b0382116107a057611d8982611d8385546106b1565b85611cf5565b600090601f8311600114611db75761185b929160009183611dac575b5050611d43565b015490503880611da5565b90611dcc601f19841692600052602060002090565b90611ddc85600052602060002090565b92815b818110611e1a57509160029391856001969410611e00575b50505002019055565b01546000196008601f8516021c19165b9055388080611df7565b91936001806020928787015481550195019201611ddf565b5050565b906103cc91611d55565b90808203611e4c575050565b6103cc91611ecd906005908190611e638582611e36565b611e736001860160018301611e36565b611e836002860160028301611e36565b611e9b611e92600387016107cd565b600383016119b4565b611eb3611eaa600487016107cd565b600483016119b4565b019201611ec8611ec2826107e0565b84611844565b6107f8565b90611c61565b9190611ee2576103cc91611e40565b611c78565b90815491600160401b8310156107a05782611f0a9160016103cc95018155610673565b90611ed3565b611f9882611f93611f56611f527f8b150673121b01316e8e9f04c655dcb53717f3ea8192a7606efea4685085293496611f4d611fa297600f610645565b610673565b5090565b611f8c600160058301611f7a611f6b826107e0565b611f7433611a03565b14611c06565b611f878a600386016119b4565b611c61565b6019611ee7565b610638565b9261060f60405190565b0390a2565b611faf614f8e565b6103cc6120a8565b634e487b7160e01b600052601160045260246000fd5b9190611fd8565b9290565b8203918211611fe357565b611fb7565b15611fef57565b60405162461bcd60e51b815260206004820152602160248201527f4e6f2066756e647320617661696c61626c6520666f72207769746864726177616044820152601b60fa1b6064820152608490fd5b90610ca8610a3d83610a05565b3d156120655761205a3d61203e565b903d6000602084013e565b606090565b1561207157565b60405162461bcd60e51b815260206004820152600f60248201526e15da5d1a191c985dc819985a5b1959608a1b6044820152606490fd5b6103cc6000806120ca6120bb60166107cd565b6120c43061129b565b31611fcd565b6120dd6120d683610638565b8211611fe8565b6120ed611900611900600b6107e0565b906120f760405190565b90818003925af161210661204b565b5061206a565b6103cc611fa7565b1561211b57565b60405162461bcd60e51b815260206004820152601160248201527050617274206e6f7420616c6c6f7765642160781b6044820152606490fd5b6001600160401b0381116107a05760208091020190565b90610ca8610a3d83612154565b369037565b906103cc61219361218d8461216b565b93612154565b601f190160208401612178565b80549192918310156106965760206121bf600192600052602060002090565b8185040193060290565b6103e26103e26103e29260ff1690565b906121e2825190565b811015610696576020809102010190565b61220e612209612204836011610cc8565b610b67565b612114565b60149061222361221f826014610cc8565b5490565b9161222d8361217d565b90816122388561217d565b9586906122456000610638565b875b8110156122b2576122ab81611aad8b6122a18361229b6122966122908f998f8f9b6122a461228b926122a16122479f61229b6122966122908961228b898296610cc8565b6121a0565b90610cf8565b6121c9565b926121d9565b52565b6015610cc8565b9050612245565b509450945094505050565b6103e2600061203e565b6103e26122bd565b90916103cc926122dd6122c7565b92614115565b6103cc906122ef614f8e565b6103cc90600a611844565b6103cc906122e3565b6103e260806109f1565b612315612303565b60008082526020820181905260408201819052606082015290565b6103e261230d565b60005b82811061234757505050565b602090612352612330565b818401520161233b565b906103cc61236c61218d8461216b565b601f190160208401612338565b9190811015610696576020020190565b356103e281610512565b919080926123a08461235c565b9260005b855b81146123ec576123e5816123c96114ad6123c46123a6958989612379565b612389565b6123d382896121d9565b526123de81886121d9565b5060010190565b90506123a4565b509350505090565b6119f061240c6103e292612406600090565b5061501e565b611994565b6103e26001600160401b03610638565b600061242f61041b826119a1565b6001600160a01b038316146124595750611b6061244d9160056112a4565b612455612411565b1690565b6323d3ad8160e21b8152600490fd5b612470614f8e565b6103cc6103cc61248060006119a1565b615180565b6103cc612468565b60005b82811061249c57505050565b606082820152602001612490565b906103cc6124ba61218d8461216b565b601f19016020840161248d565b80548210156106965761068d600191600052602060002090565b601a6124f36124ee825490565b6124aa565b906124fe6000610638565b6125096103e2835490565b811015612541578061252761252161253c93856124c7565b50611873565b61253182866121d9565b526123de81856121d9565b6124fe565b505090565b6103e260406109f1565b612558612546565b906060825260606020830152565b6103e2612550565b6103e260e06109f1565b906103cc612616600561258961256e565b9461259a612596826107a5565b8752565b6125b06125a9600183016107a5565b6020880152565b6125c66125bf600283016107a5565b6040880152565b6125dc6125d5600383016107cd565b6060880152565b6125f26125eb600483016107cd565b6080880152565b6126106126008383016107e0565b6001600160a01b031660a0880152565b016107f8565b151560c0840152565b6103e290612578565b90612631825490565b61263a8161216b565b9261264e6020850191600052602060002090565b6000915b83831061265f5750505050565b6006602060019261266f8561261f565b815201920192019190612652565b6103e290612628565b906103cc6126aa6001612697612546565b946126a4612596826107a5565b016107a5565b6020840152565b6103e290612686565b906126c3612566565b506103e26126e66126e06126d885600f610645565b946010610645565b9361267d565b926126b1565b6000806126f883612421565b926127028461217d565b9461270b612330565b50612714615014565b855b85146127be57612725816151d3565b60408101516127b15780516001600160a01b03169060009161274c611a0361041b856119a1565b03612799575b50506127806127169161276b856001600160a01b031690565b6001600160a01b038716146127875760010190565b9050612714565b611aad816122a160018a01998c6121d9565b01516001600160a01b03169350612780612716612752565b5061271690600101612780565b509350505050565b156127cd57565b60405162461bcd60e51b815260206004820152601960248201527f4e6f7420746865206f776e6572206f662074686973204e4654000000000000006044820152606490fd5b1561281957565b60405162461bcd60e51b815260206004820152601360248201527214185c9d08191bd95cc81b9bdd08195e1a5cdd606a1b6044820152606490fd5b634e487b7160e01b600052601260045260246000fd5b8115612874570690565b612854565b1561288057565b60405162461bcd60e51b815260206004820152601960248201527f496e76616c696420706978656c2064617461206c656e677468000000000000006044820152606490fd5b156128cc57565b60405162461bcd60e51b815260206004820152601d60248201527f4163636573736f727920736c6f7420616c72656164792066696c6c65640000006044820152606490fd5b8115612874570490565b81810292918115918404141715611fe357565b90612937825190565b811015610696570160200190565b6103e29060f81c610cd1565b91908201809211611fe357565b6000198114611fe35760010190565b0180926001600160f81b0319169052565b9092919261298e610a3d82610a05565b93818552818301116103ba576103cc91602085019061047f565b9080601f830112156103ba5781516103e29260200161297e565b906020828203126103ba5781516001600160401b0381116103ba576103e292016129a8565b906129f6610ab5610aab845190565b9060005b818110612a075750505090565b909192612a1d610ae36001928651815260200190565b9291016129fa565b90612a31610f49835190565b9081612a436020830284019460200190565b926000915b838310612a5757505050505090565b90919293946020612a73610f9583856001950387528951610f33565b9301930191939290612a48565b60408082526103e2939192612a97918401906129e7565b916020818403910152612a25565b6040513d6000823e3d90fd5b90612aba815190565b906001600160401b0382116107a057612ad782611d8385546106b1565b602090601f8311600114612b045761185b929160009183612af9575050611d43565b015190503880611da5565b601f19831691612b1985600052602060002090565b9260005b818110612b5157509160029391856001969410612b3d5750505002019055565b01516000196008601f8516021c1916611e10565b91936020600181928787015181550195019201612b1d565b906103cc91612ab1565b90611ecd60c060056103cc94612b93612b8d600087015190565b82612b69565b612baa612ba1602087015190565b60018301612b69565b612bc1612bb8604087015190565b60028301612b69565b612bcf611e92606087015190565b612bdd611eaa608087015190565b0192612bfc612bf660a08301516001600160a01b031690565b85611844565b0151151590565b9190611ee2576103cc91612b73565b90815491600160401b8310156107a05782612c359160016103cc95018155610673565b90612c03565b9060ff9061183a565b90612c546103e261185b92151590565b8254612c3b565b92916020612c786103cc93604087019087820360008901526104a2565b940152565b91909392612c8a906152ad565b90612ca6612c97846123f4565b612ca033611a03565b146127c6565b612cbc612cb7612204876011610cc8565b612812565b815190612cd4600792612cce84610638565b9061286a565b90612ced600092612ce7611b7185610638565b14612879565b612d0f612d0a6118926122048a612d058a6012610645565b610cc8565b6128c5565b612d29612d1a855190565b612d2385610638565b90612911565b91612d3381610638565b95865b84811015612dc957612da287612d9b612d7f612d71612d95612d84612d7f612d71612d6a8f612d6490610638565b8b61291b565b809861292e565b516001600160f81b03191690565b612945565b94612d8f6001610638565b90612951565b8c61292e565b908c614f0e565b612db4575b600101612d36565b612d36565b96612dc1612daf9161295e565b979050612da7565b5091949093979296600494612df1612deb612de6612d6489610638565b61217d565b986124aa565b93612dfb82610638565b97885b8b5b81101561301657612e19612e138e610638565b8261291b565b8b87612e2b612d7f612d71858461292e565b80612e5c8d612e54612d7f612d71600197612e4e612e488a610638565b8c612951565b9061292e565b938491614f0e565b612e7a575b5050505050612e73612e009160010190565b9050612dfe565b6103e2612e00969f93958f612d71612f7f8f95612f79612f7385611f938c612e739f61300a9f612f2f612fef9f8f61190b8f92612fad9f612d7f612d71612d719f95612f5a846122a1612f548f6122a19f8f828f93612d8f9f9c6122a1612f699f946122969f612d8f97612d8f61190b612f29612f2361190b9b6122968a6122a1612f1d612f359e612f17612f11612f2f9d6121c9565b94610638565b9061291b565b8b6121d9565b97610638565b8961291b565b906121d9565b612f17612f23612296612d7f612d718d612e4e60029a612d8f8c610638565b8d6121d9565b612e4e600398612d8f8a610638565b96612f178a610638565b86612951565b8761292e565b94612e4e612fa2612d71612f9c612f966005610638565b88612951565b8461292e565b94612d8f6006610638565b92612fe3612fba60405190565b9485936020850193846001939261296d858361296d82956104d6976001600160f81b0319169052565b9081038252038261077f565b612ff9828c6121d9565b52613004818b6121d9565b5061295e565b9a91508b388080612e61565b50959950965096613065959199508793925061304373__$676e3980799f0d6a1404ffdf6670be3ac6$__90565b9161304d60405190565b968794859384936372565e2360e01b85528401612a80565b03915af48015613183577f52e15ab134f84fe4816b97c4a3d135945e2725295c41f26f23d1180e44bb5100946130ff9360009261315b575b506130fa906130d16130b36103e288600f610645565b936130ca6130bf61256e565b966125a98c868a0152565b6040860152565b6130ef6130dd82610638565b6130e8816060880152565b6080860152565b3360a0850152612616565b612c12565b6131088161550b565b613121600161311c85612d05856012610645565b612c44565b61314561190b61313561221f84600f610645565b61313f6001610638565b90611fcd565b92611fa261315260405190565b92839283612c5b565b6130fa91925061317c903d8085833e613174818361077f565b8101906129c2565b919061309d565b612aa5565b6103e260086107e0565b6103e26003611873565b9082811015613340576000916131b06156a9565b6131b8615014565b808410613338575b50808511613330575b506131d381612421565b8483101561332057828503818110613318575b505b6131f18161217d565b956000916131ff6000610638565b811461330f5761320e8561416a565b946000956132226118926040830151151590565b6132fb575b505b875b811415806132f1575b156132e45783613243826151d3565b60408101516132d5570180516001600160a01b0316613267611a0361041b886119a1565b036132c3575b50886001600160a01b0386166001600160a01b03881614613299575b5061322b906001015b9050613229565b96816132ba61322b936122a1846132b4613292969160010190565b9c6121d9565b91505088613289565b516001600160a01b031695503861326d565b505061329261322b9160010190565b5050959450505050815290565b5081871415613234565b516001600160a01b0316955061322b613227565b50945050505050565b9050386131e6565b5061332b6000610638565b6131e8565b9350386131c9565b9250386131c0565b631960ccad60e11b6000908152600490fd5b6103e26002610638565b1561336357565b60405162461bcd60e51b815260206004820152601f60248201527f5265656e7472616e637947756172643a207265656e7472616e742063616c6c006044820152606490fd5b6103e26001610638565b906133e4916133df6133c460096107cd565b6133d86133cf613352565b9182141561335c565b60096119b4565b6134c3565b906103cc6133d86133a8565b156133f757565b60405162461bcd60e51b815260206004820152600860248201526714dbdb19081bdd5d60c21b6044820152606490fd5b1561342e57565b60405162461bcd60e51b815280611bc8600482016020808252818101527f496e73756666696369656e74207061796d656e7420666f72206d696e74696e67604082015260600190565b1561347e57565b60405162461bcd60e51b815260206004820152601b60248201527f4d6178206d696e74207065722077616c6c6574207265616368656400000000006044820152606490fd5b50906134e46134d061196d565b6134de611b716103e2610969565b106133f0565b6135036134fb6103e26134f5611453565b8561291b565b341015613427565b613528613514611b6033600e6112a4565b613522611b716103e26113b2565b10613477565b613531826156b3565b61353b8233615700565b61355a61354933600e6112a4565b611a8d613555826107cd565b61295e565b6135638261217d565b90600061356f81610638565b845b8110156135bd576135b68161359d6135936135719461358e61196d565b612951565b6122a183896121d9565b611aad6135b16135ad83896121d9565b5190565b61550b565b905061356f565b509092506135ca3061129b565b80316135d8611b7184610638565b116135e257505090565b818080926135f6611900611900600b6107e0565b90319082821561360a575bf1156131835790565b506108fc613601565b6103e29060606133b2565b336001600160a01b03821681146136815761367c613672611905836119008761311c8861366d7f17307eab39ab6107e8899845ad3d59bd9653f200f220920489ca2b5937696c319960076112a4565b6112a4565b9361040860405190565b0390a3565b63b06307db60e01b6000908152600490fd5b906136ab92916136a66133c460096107cd565b613937565b6103cc6133d86133a8565b156136bd57565b60405162461bcd60e51b815260206004820152601960248201527f4163636573736f7279206973206e6f7420666f722073616c65000000000000006044820152606490fd5b1561370957565b60405162461bcd60e51b8152602060048201526014602482015273125b9cdd59999a58da595b9d081c185e5b595b9d60621b6044820152606490fd5b8054600093929161375c613758836106b1565b9390565b91600181169081156137ad575060011461377557505050565b6137889192939450600052602060002090565b6000905b8382106137995750500190565b60018160209254848601520191019061378c565b60ff191683525050811515909102019150565b610ca86104d69160209493613745565b610cc26137dc60405190565b928392836137c0565b6103e2916137d0565b156137f557565b60405162461bcd60e51b815260206004820152601960248201527f5472616e7366657220746f2073656c6c6572206661696c6564000000000000006044820152606490fd5b1561384157565b60405162461bcd60e51b815260206004820152601a60248201527f5472616e7366657220746f20726f79616c7479206661696c65640000000000006044820152606490fd5b805460009392916138996106ee836106b1565b916001811690811561074a57506001146138b257505050565b6138c59192939450600052602060002090565b916000925b8184106138d75750500190565b8054848401526020909301926001016138ca565b6139336103cc946139236139116060959998969960808601908682036000880152613886565b6001600160a01b039099166020850152565b6001600160a01b03166040830152565b0152565b91908261394582600f610645565b9061394f91610673565b509261395d600385016107cd565b90600585019061396c826107f8565b613975906136b6565b8234101561398290613702565b61398d856012610645565b86929061399b9084906137e5565b6139a490610b67565b156139ae906128c5565b6139b661153e565b6139c0908561291b565b6139ca6064610638565b6139d391612911565b926139de8486611fcd565b916139e8906107e0565b936139f488600f610645565b6000938493849283929160028e0160018f01613a0e61256e565b92613a1890611873565b83870152613a2590611873565b6020830152613a3390611873565b6040820152613a4184610638565b6060820152613a518b6080830152565b3360a082015283151560c0820152613a6891612c12565b613a718b61550b565b81613a7d8c6012610645565b9c019b8c613a8a916137e5565b6001613a9591612c44565b613a9f878b615787565b613aa88a61550b565b818c613ab58c6012610645565b90613abf916137e5565b90613ac991612c44565b613ad28861129b565b613adb9061129b565b90613ae560405190565b90818003925af1613af461204b565b50613afe906137ee565b613b06613188565b613b0f9061129b565b613b189061129b565b90613b2260405190565b90818003925af1613b3161204b565b50613b3b9061383a565b613b4490610638565b92613b4e90610638565b93613b5890610638565b94613b6260405190565b9283923390613b7193856138eb565b037fd41dbe053a12b0e9617e572dccd16aaf1bc0f94ad99781008b928fe29c5f7c3991a4565b906103cc9291613693565b6103cc90613bae614f8e565b613efb565b15613bba57565b60405162461bcd60e51b815260206004820152600e60248201526d14185c9d081b9bdd08199bdd5b9960921b6044820152606490fd5b9190600861183a910291611cac60ff841b90565b9190613c156103e261185b93151590565b908354613bf0565b6103cc91600091613c04565b6107f26103e26103e29290565b60016103e2910160ff1690565b818110613c4e575050565b80613c5c6000600193611cca565b01613c43565b90613c7590600019906020036008021c90565b8154169055565b919091828210613c8b57505050565b6103cc926020601f909101049060016020613cb2601f860182900493600052602060002090565b92830194060260008111613cc9575b500190613c43565b613cd69060018503613c62565b38613cc1565b90600160401b81116107a05781613cf46103cc935490565b90828155613c7c565b60006103cc91613cdc565b90600003611ee2576103cc90613cfd565b6103e291613745565b6103e291610c77565b9190611ee2576103cc91611d55565b634e487b7160e01b600052603160045260246000fd5b90600091613d6e613d6682600052602060002090565b928354611d43565b905555565b9192906020821015613dcb57601f8411600114613d955761185b929350611d43565b5090613dc66103cc936001613dbd613db285600052602060002090565b92601f602091010490565b82019101611cd6565b613d50565b50613e048293613de2600194600052602060002090565b611d326020601f860104820192601f861680613e0c575b50601f602091010490565b600202179055565b613e1890888603613c62565b38613df9565b929091600160401b82116107a05760201115613e65576020811015613e465761185b91611d43565b60019160ff1916613e5c84600052602060002090565b55600202019055565b60019150600202019055565b908154613e7d816106b1565b90818311613ea6575b818310613e94575b50505050565b613e9d93613d73565b38808080613e8e565b613eb283838387613e1e565b613e86565b60006103cc91613e71565b90600003611ee2576103cc90613eb7565b80548015613ef6576000190190613ef3613eed83836124c7565b90613ec2565b55565b613d3a565b90613f12613f0d612204846011610cc8565b613bb3565b613f276000613f22846011610cc8565b613c1d565b6000613f3281613c29565b905b60ff92613f4084613c29565b60ff84161015613fca57613f5382613c29565b613f5c85613c29565b60ff82161015613fb757613f949084846013838a613f8561220483610d1b88610d1b8689610cc8565b613f99575b5050505050613c36565b613f53565b613fad94610d1b610d1b92613f2295610cc8565b848438838a613f8a565b50925090613fc490613c36565b90613f34565b939250613ff59150613fe681613fe1856014610cc8565b613d08565b611f9381613fe1856015610cc8565b601a6140026103e2825490565b8210156140e05761401382826124c7565b5061403061402060405190565b8092612fe3602083019182613d19565b61404261403b825190565b9160200190565b20614073611b7161405260405190565b6140648160208101612fe38a82613d22565b61406f61403b825190565b2090565b146140815750600101613ff5565b916105066140d6846103e26140db956140d06140c86140c26131357f5337ade8d1d62c362903db3fd2aa9ffcba271a15ce038a502e476b7e173811ff9b5490565b856124c7565b5091846124c7565b90613d2b565b613ed3565b0390a1565b50506140db7f5337ade8d1d62c362903db3fd2aa9ffcba271a15ce038a502e476b7e173811ff91610506565b6103cc90613ba2565b9091926141238484846119d8565b600093833b614134611b7187610638565b03614141575b5050505050565b61414e9361189293615938565b61415b578080808061413a565b6368d2bf6b60e11b8152600490fd5b614172612330565b5061417b612330565b6141866103e2615014565b821080156141be575b6141b9575061419d816151d3565b906141ab6040830151151590565b611f52576103e29150615a15565b905090565b506141ca6103e26156a9565b82101561418f565b156141d957565b60405162461bcd60e51b815280611bc8600482016020808252818101527f4163636573736f7279206973206e6f74206c697374656420666f722073616c65604082015260600190565b90611f93600061423d611f5284611f4d61427497600f610645565b611f876005820191614251611f6b846107e0565b61426261425d846107f8565b6141d2565b600361426d85610638565b91016119b4565b7fcc4b55eb59a1c22b44c1a06a0acbca15af6d9ac10dd1fee18e5fe35e72ec5fe661429e60405190565b3381528060208101611fa2565b156142b257565b60405162461bcd60e51b815260206004820152601860248201527f546f6b656e20494420646f6573206e6f742065786973742e00000000000000006044820152606490fd5b9081526040810192916103cc9160200152565b600061436f91614318606090565b5061432a61432582614fb8565b6142ab565b614338611b6082600d610645565b90614346611900600a6107e0565b9061435060405190565b8095819482936143646392cb829d60e01b90565b8452600484016142f7565b03915afa90811561318357600091614385575090565b6103e291503d806000833e613174818361077f565b906136ab916143ac6133c460096107cd565b6144c3565b156143b857565b60405162461bcd60e51b8152602060048201526015602482015274139bc81858dd1a5d99481bd999995c88199bdd5b99605a1b6044820152606490fd5b156143fc57565b60405162461bcd60e51b815260206004820152600e60248201526d2737ba103cb7bab91037b33332b960911b6044820152606490fd5b6000808255906003906144488360018301611cca565b6144558360028301611cca565b0155565b90600003611ee2576103cc90614432565b1561447157565b60405162461bcd60e51b815260206004820152600d60248201526c1499599d5b990819985a5b1959609a1b6044820152606490fd5b6001600160a01b0390911681526040810192916103cc9160200152565b6144d56103e282610b80856017610645565b916144ea6144e560038501610b67565b6143b1565b6145056144f6846107e0565b6144ff33611a03565b146143f5565b7f12867efde6a16e6f5c9ade6f54557dc3aa2017a6716b589059eceb542d47917d61193f6145af612f11612f1161454a600161454360028b016107cd565b99016107cd565b96614564600061455f83610b808b6017610645565b614459565b6145846145723360186112a4565b611a8d8b61457f836107cd565b611fcd565b611f936000806145966119003361129b565b6040518d81805b03925af16145a961204b565b5061446a565b946145b960405190565b91829133836144a6565b906103cc9161439a565b611b606103e2916145dc600090565b506145e961432582614fb8565b600d610645565b906136ab92916146036133c460096107cd565b614770565b1561460f57565b60405162461bcd60e51b815260206004820152602260248201527f4f66666572207072696365206d7573742062652067726561746572207468616e604482015261020360f41b6064820152608490fd5b1561466657565b60405162461bcd60e51b815260206004820152601a60248201527f4f776e65722063616e6e6f74206d616b6520616e206f666665720000000000006044820152606490fd5b156146b257565b60405162461bcd60e51b815260206004820152602960248201527f4f66666572206d75737420626520686967686572207468616e207468652063756044820152687272656e74206f6e6560b81b6064820152608490fd5b600361475f60606103cc9461473161472b60008301516001600160a01b031690565b86611844565b61474861473f602083015190565b600187016119b4565b612bfc614756604083015190565b600287016119b4565b9101612c44565b906103cc91614709565b61190b6148a26148a89294939461486a866147e7612d0a6118926122046147b4611f5288611f4d6000986147ad6147a68b610638565b3411614608565b600f610645565b6147d36147c3600583016107e0565b6147cc33611a03565b141561465f565b856147df8d6012610645565b9101906137e5565b6147f96103e284610b808b6017610645565b8161481d6003830161480d61189282610b67565b8015614913575b612204906146ab565b6148df575b505061483961482f612303565b3392810192909252565b614844876020830152565b61484f346040830152565b6001606082015261486583610b808a6017610645565b614766565b61488b6148783360186112a4565b611a8d614884826107cd565b3490612951565b611f9361489b61488460166107cd565b60166119b4565b93610638565b917f4b011cd95fe592ba0d71bdb34e58553f73ca97ab2d8789c2dc4b6c8b8714148c6148d360405190565b8061193f3433836144a6565b808261490160026148fa6119006119008661490c99016107e0565b92016107cd565b60405190818061459d565b3881614822565b506122046149266103e2600287016107cd565b34119050614814565b906103cc92916145f0565b6103e2601961267d565b6103e29161366d61220492614957600090565b5060076112a4565b6103cc9061496b614f8e565b6103cc90600b611844565b6103cc9061495f565b906136ab916149916133c460096107cd565b614a20565b1561499d57565b60405162461bcd60e51b815260206004820152600f60248201526e27379030b1ba34bb329037b33332b960891b6044820152606490fd5b156149db57565b60405162461bcd60e51b815260206004820152601760248201527f5061796d656e74207472616e73666572206661696c65640000000000000000006044820152606490fd5b81614a2c826017610645565b90614a3691610645565b90614a4360038301610b67565b614a4c90614996565b82614a5882600f610645565b90614a6291610673565b5092614a70600585016107e0565b614a84906001600160a01b03163314611c06565b614a90600284016107cd565b90614a9d600185016107cd565b93614aa985600f610645565b600090876001810160028201614abe866107e0565b91614ac761256e565b93614ad190611873565b84870152614ade90611873565b6020840152614aec90611873565b6040830152614afa84610638565b6060830152614b0a876080840152565b6001600160a01b031660a082015282151560c0820152614b2991612c12565b614b328661550b565b80614b3e876012610645565b97019687614b4b916137e5565b6001614b5691612c44565b614b608386615787565b614b698561550b565b8087614b76876012610645565b90614b80916137e5565b90614b8a91612c44565b8080614b953361129b565b614b9e9061129b565b60405160009188905af1614bb061204b565b50614bba906149d4565b82614bc6866017610645565b90614bd091610645565b90614bda91614459565b614be3816107e0565b614bee9060186112a4565b83614bf8826107cd565b90614c0291611fcd565b614c0b916119b4565b82614c1660166107cd565b90614c2091611fcd565b614c2b9060166119b4565b614c34906107e0565b90614c3e90610638565b92614c4890610638565b93614c5290610638565b94614c5c60405190565b92839233613b7193856138eb565b906103cc9161497f565b6103cc90614c80614f8e565b614ce0565b15614c8c57565b60405162461bcd60e51b815260206004820152602660248201527f4f776e61626c653a206e6577206f776e657220697320746865207a65726f206160448201526564647265737360d01b6064820152608490fd5b6103cc90612480614cf461041b60006119a1565b6001600160a01b0383161415614c85565b6103cc90614c74565b906103cc91614d1b614f8e565b614dde565b15614d2757565b60405162461bcd60e51b815260206004820152601860248201527f5061727420616c726561647920696e697469616c697a656400000000000000006044820152606490fd5b9190613c156103e261185b93610cd1565b90815491600160401b8310156107a05782614da09160016103cc950181556121a0565b90614d6c565b9190611ee2576103cc91612ab1565b90815491600160401b8310156107a05782614dd89160016103cc950181556124c7565b90614da6565b614df7614df2611892612204846011610cc8565b614d20565b614e00826152ad565b90614e09825190565b93614e1a600795612d236007610638565b93614e256000610638565b855b811015614eb557614eae614e2791611aad610d1b614ea0612d71614e8d8b61311c8f610d1b614e5a8f92612d6490610638565b93614e83612d7f614e71612d7f612d71898661292e565b988993612e4e600199612d8f8b610638565b9889936013610cc8565b614e9b6103e28b6014610cc8565b614d7d565b614e9b6103e2896015610cc8565b9050614e25565b50925093507f89fb70f7621117a0372d49c06a6a61941c90f12179dc3998d02d8ddd336640fe9250614eed600161311c836011610cc8565b614ef881601a614db5565b6140db6115ef60405190565b906103cc91614d0e565b91610d1b61220492610d1b6103e295614f25600090565b50614f37612209612204836011610cc8565b6013610cc8565b15614f4557565b60405162461bcd60e51b815280611bc8600482016020808252818101527f4f776e61626c653a2063616c6c6572206973206e6f7420746865206f776e6572604082015260600190565b6103cc614f99613188565b614fa5611a033361041b565b14614f3e565b6103e2600160e01b610638565b614fc0615014565b8110159081614ffd575b81614fd3575090565b614fe39150611b60906004610645565b6117f9614fee614fab565b614ff86000610638565b921690565b905061500c6103e260006107cd565b811090614fca565b6103e26000610638565b908190615029615014565b831015615043575b636f96cda160e11b6000908152600490fd5b6150506103e260006107cd565b83101561503157615067611b606004946004610645565b80615070614fab565b90615081600092614ff86000610638565b1461508d575050615031565b92905b61509984610638565b81036150bf575060001901916150996150b5611b608587610645565b9193919050615090565b925050915090565b6103e26150de916150d6600090565b506006610645565b90815490565b6103e260e8610638565b6103e2906150ff611b716103e29490565b901c90565b6151116103e26103e29290565b62ffffff1690565b6103e26103e26103e29262ffffff1690565b6103e29061513c611b716103e29490565b901b90565b61517661517b916103e29493615155600090565b5061517061516b6151646150e4565b80976150ee565b615104565b91615a24565b615119565b61512b565b6151a161519b61519060086107e0565b611900846008611844565b9161129b565b907f8be0079c531659141344cd1fd0a4f28419497f9722a3daafe3b4186f6b6457e06151cc60405190565b808061367c565b6151ed611b606103e2926151e5612330565b506004610645565b615a52565b156151f957565b60405162461bcd60e51b815260206004820152601960248201527f496e76616c69642068657820737472696e67206c656e677468000000000000006044820152606490fd5b906103cc61219361524e8461203e565b93610a05565b6152639060ff165b9160ff1690565b029060ff8216918203611fe357565b61527e9060ff1661525c565b019060ff8211611fe357565b6152a061529a6103e29260ff1690565b60f81b90565b6001600160f81b03191690565b906152b6825190565b916152c6600293612cce85610638565b926152e06000946152da611b716000610638565b146151f2565b6152fc6152f76152ee845190565b612d2384610638565b61523e565b916153076000610638565b61531e6103e2615315845190565b612d2386610638565b8110156153ae5780615396615391615368615358615353612d7161534d6153a9986153488c610638565b61291b565b8961292e565b615b02565b6153626010613c29565b90615254565b61538b615353612d7161534d615381886153488d610638565b612d8f6001610638565b90615272565b61528a565b871a6153a2828761292e565b5360010190565b615307565b509193505050565b6153c290600492610c77565b630408ae8d60e31b81520190565b906103cc6153dd60405190565b80936153ed6020830191826153b6565b9081038252038361077f565b615403601261203e565b716675636b696e6720726963682070656e676f60701b602082015290565b6103e26153f9565b600161544d60206103cc94615448615442600083015190565b86612b69565b015190565b9101612b69565b906103cc91615429565b615468601161203e565b7070656e676f2062696c6c696f6e6169726560781b602082015290565b6103e261545e565b615497601161203e565b7070656e676f206d696c6c696f6e6169726560781b602082015290565b6103e261548d565b6154c6600a61203e565b6970656e676f2061726d7960b01b602082015290565b6103e26154bc565b6154ee600961203e565b686c696c2070656e676f60b81b602082015290565b6103e26154e4565b9060009161551883610638565b92835b600f61552d6103e261221f8684610645565b8610156155625761555c91612d8f600461554e89611f4d8961555597610645565b50016107cd565b9460010190565b9361551b565b5061557c9192939450612d23670de0b6b3a7640000610638565b6155866001610638565b8110156155ce576103cc926155c26155a86155a36155c994615c2a565b6153d0565b610bdf6155b3612546565b956155bc615503565b90870152565b6010610645565b615454565b6155d86002610638565b811015615609576103cc926155c26155f56155a36155c994615c2a565b610bdf615600612546565b956155bc6154dc565b6156136005610638565b811015615644576103cc926155c26156306155a36155c994615c2a565b610bdf61563b612546565b956155bc6154b4565b61564e600a610638565b81101561567f576103cc926155c261566b6155a36155c994615c2a565b610bdf615676612546565b956155bc615485565b6103cc926155c26156956155a36155c994615c2a565b610bdf6156a0612546565b956155bc615421565b6103e260006107cd565b6156bb6156a9565b916156c66000610638565b925b825b8410156156fa576156f2615555826135556156e76156ca95615d27565b611af083600d610645565b9390506156c8565b50915050565b6103cc9161570c6122c7565b91615d90565b6000906005906157228382613ec2565b61572f8360018301613ec2565b61573c8360028301613ec2565b6157498360038301611cca565b6144558360048301611cca565b90600003611ee2576103cc90615712565b80548015613ef6576000190190613ef36157818383610673565b90615756565b90600f9161579c611f5283611f4d8487610645565b916157a76000610638565b60196157b46103e2825490565b8210156158b75760016157c78383610673565b50016157d561402060405190565b6157e061403b825190565b206157f7611b716001880161406461402060405190565b1461580557506001016157a7565b61311c93600095936103cc9761584461583f856103e28b98611f0a6158376158316131356147df9c5490565b85610673565b509184610673565b615767565b8261585261221f8284610645565b926158696103e26158636001610638565b86611fcd565b811061587b575b505050506012610645565b611f4d826158a76158ae966158a1615896611f0a9789610645565b9161313f6001610638565b90610673565b5094610645565b38808281615870565b50509160006147df61311c9382956103cc97615844565b905051906103cc826103a7565b906020828203126103ba576103e2916158ce565b6001600160a01b039182168152911660208201526103e292608082019290919061591890610be6565b60608184039101526104a2565b6117a161179b6103e29263ffffffff1690565b9093929160209061594d61190060009761129b565b63150b7a029360003361597e61596260405190565b988996879586946159738c60e01b90565b8652600486016158ef565b03925af1600092816159e4575b506159d1575050600161599a57565b6159a261204b565b8051906000916159b4611b7184610638565b036159c957506368d2bf6b60e11b8152600490fd5b805190602001fd5b6117f9919293506117a16117eb91615925565b615a0791935060203d602011615a0e575b6159ff818361077f565b8101906158db565b913861598b565b503d6159f5565b6151ed6103e291612406612330565b5050506103e2600090565b6103e260a0610638565b615a466103e26103e29290565b6001600160401b031690565b906103cc615a5e612330565b6060615adf61516b8396615a84615a776119f083611994565b6001600160a01b03168652565b615ab0615aa0615a9b615a95615a2f565b846150ee565b615a39565b6001600160401b03166020870152565b615ad1615abb614fab565b615ac8611b016000610638565b14156040870152565b615ad96150e4565b906150ee565b62ffffff16910152565b615af59060ff1661525c565b90039060ff8211611fe357565b615b0b90612945565b615b156030613c29565b60ff8216101580615bf5575b15615b3a576103e290615b346030613c29565b90615ae9565b615b446041613c29565b60ff8216101580615bdf575b15615b63576103e290615b346037613c29565b615b6d6061613c29565b60ff8216101580615bc9575b15615b8c576103e290615b346057613c29565b60405162461bcd60e51b815260206004820152601560248201527424b73b30b634b2103432bc1031b430b930b1ba32b960591b6044820152606490fd5b50615bd46066613c29565b60ff82161115615b79565b50615bea6046613c29565b60ff82161115615b50565b50615c006039613c29565b60ff82161115615b21565b615c15600161203e565b600360fc1b602082015290565b6103e2615c0b565b906000615c3681610638565b8314615cf2579091908160005b615c4c83610638565b8414615c6f57615c5e615c699161295e565b93612d23600a610638565b92615c43565b91939250615c7c8261523e565b915b615c8785610638565b8214615ce757615c9e615ce19161313f6001610638565b91612d23600a84615cdb615cd2615391615ccd615cc3615cbd87610638565b8961286a565b61358e6030610638565b613c29565b8a1a918861292e565b53610638565b90615c7e565b50506103e291925090565b5090506103e2615c22565b6103e5906001600160a01b031660601b90565b01918252565b018092615cfd565b6103e290610638565b6103e290615d7f615d41615d3b6001610638565b43611fcd565b915a92612fe3615d5060405190565b9485936020850193339040428660146104d694615d1060208099989596615d168287615d10615d1099839c9052565b615d8a61403b825190565b20615d1e565b9190615d9c8184615e3f565b600092803b615dad611b7186610638565b03615db85750505050565b90919293615dce615dc8866107cd565b93840390565b9260015b15615e09575b85615df561189287615de98a6119a1565b97876001820199615938565b15615dd2576368d2bf6b60e11b8752600487fd5b808410615dd857925093925050615e25611b71611fd4846107cd565b03615e3257808080613e8e565b80fd5b6103e26040610638565b919091615e4c60006107cd565b92600093615e5985610638565b8214615f785782916001615ef18192615ea7615e8f615e76615e35565b615e89615e8287610638565b918261512b565b17830290565b611a8d615e9d8960056112a4565b916104d6836107cd565b615eec615ee16001831460e11b615ecc8c615ec461190b826119a1565b9a8b91615141565b4260a01b9117176001600160a01b038a161790565b611af0876004610645565b840190565b94818060a01b0316928084897fddf252ad1be2c89b69c2b068fc378daa952ba7f163c4a11628f55a4df523b3ef8180a4015b848103615f4957505014615f3b576103cc91926119b4565b622e076360e81b8352600483fd5b80829184897fddf252ad1be2c89b69c2b068fc378daa952ba7f163c4a11628f55a4df523b3ef8180a401615f23565b63b562e8dd60e01b8552600485fdfea26469706673582212209069eca2fc9ea770ef360d3ada3b60614a13a7fcfd77e2ff3d0a622befe93abd64736f6c634300081b0033",
  "linkReferences": {
    "contracts/libraries/pengoConverter.sol": {
      "PengoConverter": [
        {
          "length": 20,
          "start": 13490
        }
      ]
    }
  },
  "deployedLinkReferences": {
    "contracts/libraries/pengoConverter.sol": {
      "PengoConverter": [
        {
          "length": 20,
          "start": 12333
        }
      ]
    }
  }
}