{
  "_format": "hh-sol-artifact-1",
  "contractName": "PenguinOnchainTestnet",
  "sourceName": "contracts/ERC721/PenguinOnchainTestnet.sol",
  "abi": [
    {
      "inputs": [],
      "stateMutability": "nonpayable",
      "type": "constructor"
    },
    {
      "inputs": [],
      "name": "AlreadyListed",
      "type": "error"
    },
    {
      "inputs": [],
      "name": "ApprovalCallerNotOwnerNorApproved",
      "type": "error"
    },
    {
      "inputs": [],
      "name": "ApprovalQueryForNonexistentToken",
      "type": "error"
    },
    {
      "inputs": [],
      "name": "BalanceQueryForZeroAddress",
      "type": "error"
    },
    {
      "inputs": [],
      "name": "InsufficientPayment",
      "type": "error"
    },
    {
      "inputs": [],
      "name": "InvalidBeneficiary",
      "type": "error"
    },
    {
      "inputs": [],
      "name": "InvalidPixelData",
      "type": "error"
    },
    {
      "inputs": [],
      "name": "InvalidQueryRange",
      "type": "error"
    },
    {
      "inputs": [],
      "name": "InvalidRecipient",
      "type": "error"
    },
    {
      "inputs": [],
      "name": "MaxMintPerWalletReached",
      "type": "error"
    },
    {
      "inputs": [],
      "name": "MintERC2309QuantityExceedsLimit",
      "type": "error"
    },
    {
      "inputs": [],
      "name": "MintToZeroAddress",
      "type": "error"
    },
    {
      "inputs": [],
      "name": "MintZeroQuantity",
      "type": "error"
    },
    {
      "inputs": [],
      "name": "NoActiveOffer",
      "type": "error"
    },
    {
      "inputs": [],
      "name": "NoWithdrawableFunds",
      "type": "error"
    },
    {
      "inputs": [],
      "name": "NotAccessoryOwner",
      "type": "error"
    },
    {
      "inputs": [],
      "name": "NotCompatibleWithSpotMints",
      "type": "error"
    },
    {
      "inputs": [],
      "name": "NotForSale",
      "type": "error"
    },
    {
      "inputs": [],
      "name": "NotTokenOwner",
      "type": "error"
    },
    {
      "inputs": [],
      "name": "NotYourOffer",
      "type": "error"
    },
    {
      "inputs": [],
      "name": "OfferTooLow",
      "type": "error"
    },
    {
      "inputs": [],
      "name": "OwnerCannotOffer",
      "type": "error"
    },
    {
      "inputs": [],
      "name": "OwnerQueryForNonexistentToken",
      "type": "error"
    },
    {
      "inputs": [],
      "name": "OwnershipNotInitializedForExtraData",
      "type": "error"
    },
    {
      "inputs": [],
      "name": "PartNotAllowed",
      "type": "error"
    },
    {
      "inputs": [],
      "name": "SequentialMintExceedsLimit",
      "type": "error"
    },
    {
      "inputs": [],
      "name": "SequentialUpToTooSmall",
      "type": "error"
    },
    {
      "inputs": [],
      "name": "SlotFilled",
      "type": "error"
    },
    {
      "inputs": [],
      "name": "SoldOut",
      "type": "error"
    },
    {
      "inputs": [],
      "name": "SpotMintTokenIdTooSmall",
      "type": "error"
    },
    {
      "inputs": [],
      "name": "TokenAlreadyExists",
      "type": "error"
    },
    {
      "inputs": [],
      "name": "TokenDoesNotExist",
      "type": "error"
    },
    {
      "inputs": [],
      "name": "TransferCallerNotOwnerNorApproved",
      "type": "error"
    },
    {
      "inputs": [],
      "name": "TransferFailed",
      "type": "error"
    },
    {
      "inputs": [],
      "name": "TransferFromIncorrectOwner",
      "type": "error"
    },
    {
      "inputs": [],
      "name": "TransferToNonERC721ReceiverImplementer",
      "type": "error"
    },
    {
      "inputs": [],
      "name": "TransferToZeroAddress",
      "type": "error"
    },
    {
      "inputs": [],
      "name": "URIQueryForNonexistentToken",
      "type": "error"
    },
    {
      "inputs": [],
      "name": "ZeroAddress",
      "type": "error"
    },
    {
      "inputs": [],
      "name": "ZeroMintAmount",
      "type": "error"
    },
    {
      "inputs": [],
      "name": "ZeroPrice",
      "type": "error"
    },
    {
      "anonymous": false,
      "inputs": [
        {
          "indexed": true,
          "internalType": "uint256",
          "name": "tokenId",
          "type": "uint256"
        },
        {
          "indexed": false,
          "internalType": "string",
          "name": "trait_type",
          "type": "string"
        },
        {
          "indexed": false,
          "internalType": "uint256",
          "name": "accessoryId",
          "type": "uint256"
        }
      ],
      "name": "AccessoryAdded",
      "type": "event"
    },
    {
      "anonymous": false,
      "inputs": [
        {
          "indexed": true,
          "internalType": "uint256",
          "name": "accessoryId",
          "type": "uint256"
        },
        {
          "indexed": true,
          "internalType": "uint256",
          "name": "fromTokenId",
          "type": "uint256"
        }
      ],
      "name": "AccessoryDeleted",
      "type": "event"
    },
    {
      "anonymous": false,
      "inputs": [
        {
          "indexed": true,
          "internalType": "uint256",
          "name": "accessoryId",
          "type": "uint256"
        },
        {
          "indexed": false,
          "internalType": "uint256",
          "name": "price",
          "type": "uint256"
        }
      ],
      "name": "AccessoryListed",
      "type": "event"
    },
    {
      "anonymous": false,
      "inputs": [
        {
          "indexed": true,
          "internalType": "uint256",
          "name": "accessoryId",
          "type": "uint256"
        },
        {
          "indexed": true,
          "internalType": "uint256",
          "name": "fromTokenId",
          "type": "uint256"
        },
        {
          "indexed": true,
          "internalType": "uint256",
          "name": "toTokenId",
          "type": "uint256"
        },
        {
          "indexed": false,
          "internalType": "address",
          "name": "buyer",
          "type": "address"
        },
        {
          "indexed": false,
          "internalType": "uint256",
          "name": "price",
          "type": "uint256"
        }
      ],
      "name": "AccessoryOfferCancelled",
      "type": "event"
    },
    {
      "anonymous": false,
      "inputs": [
        {
          "indexed": true,
          "internalType": "uint256",
          "name": "accessoryId",
          "type": "uint256"
        },
        {
          "indexed": true,
          "internalType": "uint256",
          "name": "fromTokenId",
          "type": "uint256"
        },
        {
          "indexed": true,
          "internalType": "uint256",
          "name": "toTokenId",
          "type": "uint256"
        },
        {
          "indexed": false,
          "internalType": "address",
          "name": "buyer",
          "type": "address"
        },
        {
          "indexed": false,
          "internalType": "uint256",
          "name": "price",
          "type": "uint256"
        }
      ],
      "name": "AccessoryOfferMade",
      "type": "event"
    },
    {
      "anonymous": false,
      "inputs": [
        {
          "indexed": true,
          "internalType": "uint256",
          "name": "accessoryId",
          "type": "uint256"
        },
        {
          "indexed": false,
          "internalType": "address",
          "name": "accessoryOwner",
          "type": "address"
        }
      ],
      "name": "AccessorySaleCancelled",
      "type": "event"
    },
    {
      "anonymous": false,
      "inputs": [
        {
          "indexed": false,
          "internalType": "string",
          "name": "accessoryType",
          "type": "string"
        },
        {
          "indexed": true,
          "internalType": "uint256",
          "name": "accessoryId",
          "type": "uint256"
        },
        {
          "indexed": true,
          "internalType": "uint256",
          "name": "fromTokenId",
          "type": "uint256"
        },
        {
          "indexed": true,
          "internalType": "uint256",
          "name": "toTokenId",
          "type": "uint256"
        },
        {
          "indexed": false,
          "internalType": "address",
          "name": "seller",
          "type": "address"
        },
        {
          "indexed": false,
          "internalType": "address",
          "name": "buyer",
          "type": "address"
        },
        {
          "indexed": false,
          "internalType": "uint256",
          "name": "price",
          "type": "uint256"
        }
      ],
      "name": "AccessorySold",
      "type": "event"
    },
    {
      "anonymous": false,
      "inputs": [
        {
          "indexed": true,
          "internalType": "address",
          "name": "owner",
          "type": "address"
        },
        {
          "indexed": true,
          "internalType": "address",
          "name": "approved",
          "type": "address"
        },
        {
          "indexed": true,
          "internalType": "uint256",
          "name": "tokenId",
          "type": "uint256"
        }
      ],
      "name": "Approval",
      "type": "event"
    },
    {
      "anonymous": false,
      "inputs": [
        {
          "indexed": true,
          "internalType": "address",
          "name": "owner",
          "type": "address"
        },
        {
          "indexed": true,
          "internalType": "address",
          "name": "operator",
          "type": "address"
        },
        {
          "indexed": false,
          "internalType": "bool",
          "name": "approved",
          "type": "bool"
        }
      ],
      "name": "ApprovalForAll",
      "type": "event"
    },
    {
      "anonymous": false,
      "inputs": [
        {
          "indexed": true,
          "internalType": "uint256",
          "name": "fromTokenId",
          "type": "uint256"
        },
        {
          "indexed": false,
          "internalType": "uint256",
          "name": "toTokenId",
          "type": "uint256"
        },
        {
          "indexed": true,
          "internalType": "address",
          "name": "from",
          "type": "address"
        },
        {
          "indexed": true,
          "internalType": "address",
          "name": "to",
          "type": "address"
        }
      ],
      "name": "ConsecutiveTransfer",
      "type": "event"
    },
    {
      "anonymous": false,
      "inputs": [
        {
          "indexed": false,
          "internalType": "uint256",
          "name": "_tokenId",
          "type": "uint256"
        }
      ],
      "name": "MetadataUpdate",
      "type": "event"
    },
    {
      "anonymous": false,
      "inputs": [
        {
          "indexed": true,
          "internalType": "address",
          "name": "previousOwner",
          "type": "address"
        },
        {
          "indexed": true,
          "internalType": "address",
          "name": "newOwner",
          "type": "address"
        }
      ],
      "name": "OwnershipTransferred",
      "type": "event"
    },
    {
      "anonymous": false,
      "inputs": [
        {
          "indexed": true,
          "internalType": "address",
          "name": "from",
          "type": "address"
        },
        {
          "indexed": true,
          "internalType": "address",
          "name": "to",
          "type": "address"
        },
        {
          "indexed": true,
          "internalType": "uint256",
          "name": "tokenId",
          "type": "uint256"
        }
      ],
      "name": "Transfer",
      "type": "event"
    },
    {
      "inputs": [],
      "name": "BENEFICARY_ADDRESS",
      "outputs": [
        {
          "internalType": "address",
          "name": "",
          "type": "address"
        }
      ],
      "stateMutability": "view",
      "type": "function"
    },
    {
      "inputs": [],
      "name": "MAX_MINT_PER_WALLET",
      "outputs": [
        {
          "internalType": "uint256",
          "name": "",
          "type": "uint256"
        }
      ],
      "stateMutability": "view",
      "type": "function"
    },
    {
      "inputs": [],
      "name": "MAX_SUPPLY",
      "outputs": [
        {
          "internalType": "uint256",
          "name": "",
          "type": "uint256"
        }
      ],
      "stateMutability": "view",
      "type": "function"
    },
    {
      "inputs": [],
      "name": "MINT_PRICE",
      "outputs": [
        {
          "internalType": "uint256",
          "name": "",
          "type": "uint256"
        }
      ],
      "stateMutability": "view",
      "type": "function"
    },
    {
      "inputs": [],
      "name": "ROYALTY_ADDRESS",
      "outputs": [
        {
          "internalType": "address",
          "name": "",
          "type": "address"
        }
      ],
      "stateMutability": "view",
      "type": "function"
    },
    {
      "inputs": [],
      "name": "ROYALTY_PERCENT",
      "outputs": [
        {
          "internalType": "uint256",
          "name": "",
          "type": "uint256"
        }
      ],
      "stateMutability": "view",
      "type": "function"
    },
    {
      "inputs": [
        {
          "internalType": "uint256",
          "name": "",
          "type": "uint256"
        },
        {
          "internalType": "uint256",
          "name": "",
          "type": "uint256"
        }
      ],
      "name": "accessories",
      "outputs": [
        {
          "internalType": "uint256",
          "name": "accessoryId",
          "type": "uint256"
        },
        {
          "internalType": "string",
          "name": "trait_type",
          "type": "string"
        },
        {
          "internalType": "string",
          "name": "trait_name",
          "type": "string"
        },
        {
          "internalType": "string",
          "name": "bytePixel",
          "type": "string"
        },
        {
          "internalType": "uint256",
          "name": "sellingPrice",
          "type": "uint256"
        },
        {
          "internalType": "uint256",
          "name": "lastPrice",
          "type": "uint256"
        },
        {
          "internalType": "address",
          "name": "owner",
          "type": "address"
        },
        {
          "internalType": "bool",
          "name": "forSale",
          "type": "bool"
        }
      ],
      "stateMutability": "view",
      "type": "function"
    },
    {
      "inputs": [
        {
          "internalType": "uint256",
          "name": "",
          "type": "uint256"
        }
      ],
      "name": "accessoriesForSale",
      "outputs": [
        {
          "internalType": "uint256",
          "name": "tokenId",
          "type": "uint256"
        },
        {
          "internalType": "uint256",
          "name": "accessoryId",
          "type": "uint256"
        },
        {
          "components": [
            {
              "internalType": "uint256",
              "name": "accessoryId",
              "type": "uint256"
            },
            {
              "internalType": "string",
              "name": "trait_type",
              "type": "string"
            },
            {
              "internalType": "string",
              "name": "trait_name",
              "type": "string"
            },
            {
              "internalType": "string",
              "name": "bytePixel",
              "type": "string"
            },
            {
              "internalType": "uint256",
              "name": "sellingPrice",
              "type": "uint256"
            },
            {
              "internalType": "uint256",
              "name": "lastPrice",
              "type": "uint256"
            },
            {
              "internalType": "address",
              "name": "owner",
              "type": "address"
            },
            {
              "internalType": "bool",
              "name": "forSale",
              "type": "bool"
            }
          ],
          "internalType": "struct IPenguinOnchain.Accessory",
          "name": "accessory",
          "type": "tuple"
        }
      ],
      "stateMutability": "view",
      "type": "function"
    },
    {
      "inputs": [
        {
          "internalType": "uint256",
          "name": "",
          "type": "uint256"
        },
        {
          "internalType": "uint256",
          "name": "",
          "type": "uint256"
        }
      ],
      "name": "accessoryIds",
      "outputs": [
        {
          "internalType": "uint256",
          "name": "",
          "type": "uint256"
        }
      ],
      "stateMutability": "view",
      "type": "function"
    },
    {
      "inputs": [
        {
          "internalType": "uint256",
          "name": "tokenId",
          "type": "uint256"
        },
        {
          "internalType": "string",
          "name": "trait_type",
          "type": "string"
        },
        {
          "internalType": "string",
          "name": "trait_name",
          "type": "string"
        },
        {
          "internalType": "string",
          "name": "byteCode",
          "type": "string"
        }
      ],
      "name": "addAccessory",
      "outputs": [],
      "stateMutability": "nonpayable",
      "type": "function"
    },
    {
      "inputs": [
        {
          "internalType": "uint256",
          "name": "tokenId",
          "type": "uint256"
        },
        {
          "internalType": "uint256",
          "name": "amount",
          "type": "uint256"
        }
      ],
      "name": "addSharePower",
      "outputs": [],
      "stateMutability": "nonpayable",
      "type": "function"
    },
    {
      "inputs": [
        {
          "internalType": "address",
          "name": "to",
          "type": "address"
        },
        {
          "internalType": "uint256",
          "name": "tokenId",
          "type": "uint256"
        }
      ],
      "name": "approve",
      "outputs": [],
      "stateMutability": "payable",
      "type": "function"
    },
    {
      "inputs": [
        {
          "internalType": "uint256",
          "name": "fromTokenId",
          "type": "uint256"
        },
        {
          "internalType": "uint256",
          "name": "accessoryId",
          "type": "uint256"
        }
      ],
      "name": "approveOffer",
      "outputs": [],
      "stateMutability": "nonpayable",
      "type": "function"
    },
    {
      "inputs": [
        {
          "internalType": "address",
          "name": "owner",
          "type": "address"
        }
      ],
      "name": "balanceOf",
      "outputs": [
        {
          "internalType": "uint256",
          "name": "",
          "type": "uint256"
        }
      ],
      "stateMutability": "view",
      "type": "function"
    },
    {
      "inputs": [
        {
          "internalType": "uint256",
          "name": "accessoryId",
          "type": "uint256"
        },
        {
          "internalType": "uint256",
          "name": "fromTokenId",
          "type": "uint256"
        }
      ],
      "name": "cancelOffer",
      "outputs": [],
      "stateMutability": "nonpayable",
      "type": "function"
    },
    {
      "inputs": [],
      "name": "contractURI",
      "outputs": [
        {
          "internalType": "string",
          "name": "",
          "type": "string"
        }
      ],
      "stateMutability": "view",
      "type": "function"
    },
    {
      "inputs": [
        {
          "internalType": "uint256",
          "name": "tokenId",
          "type": "uint256"
        }
      ],
      "name": "explicitOwnershipOf",
      "outputs": [
        {
          "components": [
            {
              "internalType": "address",
              "name": "addr",
              "type": "address"
            },
            {
              "internalType": "uint64",
              "name": "startTimestamp",
              "type": "uint64"
            },
            {
              "internalType": "bool",
              "name": "burned",
              "type": "bool"
            },
            {
              "internalType": "uint24",
              "name": "extraData",
              "type": "uint24"
            }
          ],
          "internalType": "struct IERC721A.TokenOwnership",
          "name": "ownership",
          "type": "tuple"
        }
      ],
      "stateMutability": "view",
      "type": "function"
    },
    {
      "inputs": [
        {
          "internalType": "uint256[]",
          "name": "tokenIds",
          "type": "uint256[]"
        }
      ],
      "name": "explicitOwnershipsOf",
      "outputs": [
        {
          "components": [
            {
              "internalType": "address",
              "name": "addr",
              "type": "address"
            },
            {
              "internalType": "uint64",
              "name": "startTimestamp",
              "type": "uint64"
            },
            {
              "internalType": "bool",
              "name": "burned",
              "type": "bool"
            },
            {
              "internalType": "uint24",
              "name": "extraData",
              "type": "uint24"
            }
          ],
          "internalType": "struct IERC721A.TokenOwnership[]",
          "name": "",
          "type": "tuple[]"
        }
      ],
      "stateMutability": "view",
      "type": "function"
    },
    {
      "inputs": [],
      "name": "factory",
      "outputs": [
        {
          "internalType": "contract IPengoFactory",
          "name": "",
          "type": "address"
        }
      ],
      "stateMutability": "view",
      "type": "function"
    },
    {
      "inputs": [
        {
          "internalType": "uint256",
          "name": "tokenId",
          "type": "uint256"
        },
        {
          "internalType": "uint256",
          "name": "accessoryId",
          "type": "uint256"
        }
      ],
      "name": "findAccessoryIndex",
      "outputs": [
        {
          "internalType": "uint256",
          "name": "",
          "type": "uint256"
        }
      ],
      "stateMutability": "view",
      "type": "function"
    },
    {
      "inputs": [],
      "name": "getAllAccessoriesForSale",
      "outputs": [
        {
          "components": [
            {
              "internalType": "uint256",
              "name": "tokenId",
              "type": "uint256"
            },
            {
              "internalType": "uint256",
              "name": "accessoryId",
              "type": "uint256"
            },
            {
              "components": [
                {
                  "internalType": "uint256",
                  "name": "accessoryId",
                  "type": "uint256"
                },
                {
                  "internalType": "string",
                  "name": "trait_type",
                  "type": "string"
                },
                {
                  "internalType": "string",
                  "name": "trait_name",
                  "type": "string"
                },
                {
                  "internalType": "string",
                  "name": "bytePixel",
                  "type": "string"
                },
                {
                  "internalType": "uint256",
                  "name": "sellingPrice",
                  "type": "uint256"
                },
                {
                  "internalType": "uint256",
                  "name": "lastPrice",
                  "type": "uint256"
                },
                {
                  "internalType": "address",
                  "name": "owner",
                  "type": "address"
                },
                {
                  "internalType": "bool",
                  "name": "forSale",
                  "type": "bool"
                }
              ],
              "internalType": "struct IPenguinOnchain.Accessory",
              "name": "accessory",
              "type": "tuple"
            }
          ],
          "internalType": "struct IPenguinOnchain.AccessoryForSale[]",
          "name": "",
          "type": "tuple[]"
        }
      ],
      "stateMutability": "view",
      "type": "function"
    },
    {
      "inputs": [
        {
          "internalType": "uint256",
          "name": "tokenId",
          "type": "uint256"
        }
      ],
      "name": "getApproved",
      "outputs": [
        {
          "internalType": "address",
          "name": "",
          "type": "address"
        }
      ],
      "stateMutability": "view",
      "type": "function"
    },
    {
      "inputs": [
        {
          "internalType": "uint256",
          "name": "tokenId",
          "type": "uint256"
        }
      ],
      "name": "getNFTDetails",
      "outputs": [
        {
          "components": [
            {
              "internalType": "uint256",
              "name": "accessoryId",
              "type": "uint256"
            },
            {
              "internalType": "string",
              "name": "trait_type",
              "type": "string"
            },
            {
              "internalType": "string",
              "name": "trait_name",
              "type": "string"
            },
            {
              "internalType": "string",
              "name": "bytePixel",
              "type": "string"
            },
            {
              "internalType": "uint256",
              "name": "sellingPrice",
              "type": "uint256"
            },
            {
              "internalType": "uint256",
              "name": "lastPrice",
              "type": "uint256"
            },
            {
              "internalType": "address",
              "name": "owner",
              "type": "address"
            },
            {
              "internalType": "bool",
              "name": "forSale",
              "type": "bool"
            }
          ],
          "internalType": "struct IPenguinOnchain.Accessory[]",
          "name": "",
          "type": "tuple[]"
        },
        {
          "components": [
            {
              "internalType": "string",
              "name": "category",
              "type": "string"
            },
            {
              "internalType": "string",
              "name": "networth",
              "type": "string"
            }
          ],
          "internalType": "struct IPenguinOnchain.SpecialTrait",
          "name": "",
          "type": "tuple"
        }
      ],
      "stateMutability": "view",
      "type": "function"
    },
    {
      "inputs": [
        {
          "internalType": "uint256",
          "name": "tokenId",
          "type": "uint256"
        }
      ],
      "name": "getSeed",
      "outputs": [
        {
          "internalType": "uint256",
          "name": "",
          "type": "uint256"
        }
      ],
      "stateMutability": "view",
      "type": "function"
    },
    {
      "inputs": [
        {
          "internalType": "address",
          "name": "owner",
          "type": "address"
        },
        {
          "internalType": "address",
          "name": "operator",
          "type": "address"
        }
      ],
      "name": "isApprovedForAll",
      "outputs": [
        {
          "internalType": "bool",
          "name": "",
          "type": "bool"
        }
      ],
      "stateMutability": "view",
      "type": "function"
    },
    {
      "inputs": [
        {
          "internalType": "uint256",
          "name": "tokenId",
          "type": "uint256"
        },
        {
          "internalType": "uint256",
          "name": "accessoryId",
          "type": "uint256"
        },
        {
          "internalType": "uint256",
          "name": "price",
          "type": "uint256"
        }
      ],
      "name": "listAccessoryForSale",
      "outputs": [],
      "stateMutability": "nonpayable",
      "type": "function"
    },
    {
      "inputs": [
        {
          "internalType": "uint256",
          "name": "accessoryId",
          "type": "uint256"
        },
        {
          "internalType": "uint256",
          "name": "fromTokenId",
          "type": "uint256"
        },
        {
          "internalType": "uint256",
          "name": "toTokenId",
          "type": "uint256"
        }
      ],
      "name": "makeOffer",
      "outputs": [],
      "stateMutability": "payable",
      "type": "function"
    },
    {
      "inputs": [
        {
          "internalType": "uint256",
          "name": "_mintAmount",
          "type": "uint256"
        }
      ],
      "name": "mintPengo",
      "outputs": [
        {
          "internalType": "uint256[]",
          "name": "",
          "type": "uint256[]"
        }
      ],
      "stateMutability": "payable",
      "type": "function"
    },
    {
      "inputs": [
        {
          "internalType": "address",
          "name": "",
          "type": "address"
        }
      ],
      "name": "mintedCount",
      "outputs": [
        {
          "internalType": "uint256",
          "name": "",
          "type": "uint256"
        }
      ],
      "stateMutability": "view",
      "type": "function"
    },
    {
      "inputs": [],
      "name": "name",
      "outputs": [
        {
          "internalType": "string",
          "name": "",
          "type": "string"
        }
      ],
      "stateMutability": "view",
      "type": "function"
    },
    {
      "inputs": [],
      "name": "nextAccessoryId",
      "outputs": [
        {
          "internalType": "uint256",
          "name": "",
          "type": "uint256"
        }
      ],
      "stateMutability": "view",
      "type": "function"
    },
    {
      "inputs": [
        {
          "internalType": "address",
          "name": "",
          "type": "address"
        }
      ],
      "name": "offerBalances",
      "outputs": [
        {
          "internalType": "uint256",
          "name": "",
          "type": "uint256"
        }
      ],
      "stateMutability": "view",
      "type": "function"
    },
    {
      "inputs": [
        {
          "internalType": "uint256",
          "name": "",
          "type": "uint256"
        },
        {
          "internalType": "uint256",
          "name": "",
          "type": "uint256"
        }
      ],
      "name": "offers",
      "outputs": [
        {
          "internalType": "address",
          "name": "buyer",
          "type": "address"
        },
        {
          "internalType": "uint256",
          "name": "toTokenId",
          "type": "uint256"
        },
        {
          "internalType": "uint256",
          "name": "price",
          "type": "uint256"
        },
        {
          "internalType": "bool",
          "name": "active",
          "type": "bool"
        }
      ],
      "stateMutability": "view",
      "type": "function"
    },
    {
      "inputs": [],
      "name": "owner",
      "outputs": [
        {
          "internalType": "address",
          "name": "",
          "type": "address"
        }
      ],
      "stateMutability": "view",
      "type": "function"
    },
    {
      "inputs": [
        {
          "internalType": "uint256",
          "name": "tokenId",
          "type": "uint256"
        }
      ],
      "name": "ownerOf",
      "outputs": [
        {
          "internalType": "address",
          "name": "",
          "type": "address"
        }
      ],
      "stateMutability": "view",
      "type": "function"
    },
    {
      "inputs": [],
      "name": "pengoToken",
      "outputs": [
        {
          "internalType": "address",
          "name": "",
          "type": "address"
        }
      ],
      "stateMutability": "view",
      "type": "function"
    },
    {
      "inputs": [
        {
          "internalType": "uint256",
          "name": "accessoryId",
          "type": "uint256"
        },
        {
          "internalType": "uint256",
          "name": "fromTokenId",
          "type": "uint256"
        },
        {
          "internalType": "uint256",
          "name": "toTokenId",
          "type": "uint256"
        }
      ],
      "name": "purchaseAccessory",
      "outputs": [],
      "stateMutability": "payable",
      "type": "function"
    },
    {
      "inputs": [
        {
          "internalType": "uint256",
          "name": "tokenId",
          "type": "uint256"
        },
        {
          "internalType": "uint256",
          "name": "accessoryId",
          "type": "uint256"
        }
      ],
      "name": "removeAccesory",
      "outputs": [],
      "stateMutability": "nonpayable",
      "type": "function"
    },
    {
      "inputs": [],
      "name": "renounceOwnership",
      "outputs": [],
      "stateMutability": "nonpayable",
      "type": "function"
    },
    {
      "inputs": [
        {
          "internalType": "address",
          "name": "from",
          "type": "address"
        },
        {
          "internalType": "address",
          "name": "to",
          "type": "address"
        },
        {
          "internalType": "uint256",
          "name": "tokenId",
          "type": "uint256"
        }
      ],
      "name": "safeTransferFrom",
      "outputs": [],
      "stateMutability": "payable",
      "type": "function"
    },
    {
      "inputs": [
        {
          "internalType": "address",
          "name": "from",
          "type": "address"
        },
        {
          "internalType": "address",
          "name": "to",
          "type": "address"
        },
        {
          "internalType": "uint256",
          "name": "tokenId",
          "type": "uint256"
        },
        {
          "internalType": "bytes",
          "name": "_data",
          "type": "bytes"
        }
      ],
      "name": "safeTransferFrom",
      "outputs": [],
      "stateMutability": "payable",
      "type": "function"
    },
    {
      "inputs": [
        {
          "internalType": "address",
          "name": "operator",
          "type": "address"
        },
        {
          "internalType": "bool",
          "name": "approved",
          "type": "bool"
        }
      ],
      "name": "setApprovalForAll",
      "outputs": [],
      "stateMutability": "nonpayable",
      "type": "function"
    },
    {
      "inputs": [
        {
          "internalType": "address",
          "name": "_beneficiaryAddress",
          "type": "address"
        }
      ],
      "name": "setBeneficiaryAddress",
      "outputs": [],
      "stateMutability": "nonpayable",
      "type": "function"
    },
    {
      "inputs": [
        {
          "internalType": "contract IPengoFactory",
          "name": "_factoryAddress",
          "type": "address"
        }
      ],
      "name": "setFactory",
      "outputs": [],
      "stateMutability": "nonpayable",
      "type": "function"
    },
    {
      "inputs": [
        {
          "internalType": "address",
          "name": "_pengoToken",
          "type": "address"
        }
      ],
      "name": "setPengoToken",
      "outputs": [],
      "stateMutability": "nonpayable",
      "type": "function"
    },
    {
      "inputs": [
        {
          "internalType": "address",
          "name": "_royaltyAddress",
          "type": "address"
        }
      ],
      "name": "setRoyaltyAddress",
      "outputs": [],
      "stateMutability": "nonpayable",
      "type": "function"
    },
    {
      "inputs": [
        {
          "internalType": "uint256",
          "name": "",
          "type": "uint256"
        }
      ],
      "name": "sharePower",
      "outputs": [
        {
          "internalType": "uint256",
          "name": "",
          "type": "uint256"
        }
      ],
      "stateMutability": "view",
      "type": "function"
    },
    {
      "inputs": [
        {
          "internalType": "uint256",
          "name": "",
          "type": "uint256"
        }
      ],
      "name": "specialTraits",
      "outputs": [
        {
          "internalType": "string",
          "name": "category",
          "type": "string"
        },
        {
          "internalType": "string",
          "name": "networth",
          "type": "string"
        }
      ],
      "stateMutability": "view",
      "type": "function"
    },
    {
      "inputs": [
        {
          "internalType": "bytes4",
          "name": "interfaceId",
          "type": "bytes4"
        }
      ],
      "name": "supportsInterface",
      "outputs": [
        {
          "internalType": "bool",
          "name": "",
          "type": "bool"
        }
      ],
      "stateMutability": "view",
      "type": "function"
    },
    {
      "inputs": [],
      "name": "symbol",
      "outputs": [
        {
          "internalType": "string",
          "name": "",
          "type": "string"
        }
      ],
      "stateMutability": "view",
      "type": "function"
    },
    {
      "inputs": [
        {
          "internalType": "uint256",
          "name": "tokenId",
          "type": "uint256"
        }
      ],
      "name": "tokenURI",
      "outputs": [
        {
          "internalType": "string",
          "name": "",
          "type": "string"
        }
      ],
      "stateMutability": "view",
      "type": "function"
    },
    {
      "inputs": [
        {
          "internalType": "address",
          "name": "owner",
          "type": "address"
        }
      ],
      "name": "tokensOfOwner",
      "outputs": [
        {
          "internalType": "uint256[]",
          "name": "",
          "type": "uint256[]"
        }
      ],
      "stateMutability": "view",
      "type": "function"
    },
    {
      "inputs": [
        {
          "internalType": "address",
          "name": "owner",
          "type": "address"
        },
        {
          "internalType": "uint256",
          "name": "start",
          "type": "uint256"
        },
        {
          "internalType": "uint256",
          "name": "stop",
          "type": "uint256"
        }
      ],
      "name": "tokensOfOwnerIn",
      "outputs": [
        {
          "internalType": "uint256[]",
          "name": "",
          "type": "uint256[]"
        }
      ],
      "stateMutability": "view",
      "type": "function"
    },
    {
      "inputs": [],
      "name": "totalOfferBalance",
      "outputs": [
        {
          "internalType": "uint256",
          "name": "",
          "type": "uint256"
        }
      ],
      "stateMutability": "view",
      "type": "function"
    },
    {
      "inputs": [],
      "name": "totalSharePower",
      "outputs": [
        {
          "internalType": "uint256",
          "name": "",
          "type": "uint256"
        }
      ],
      "stateMutability": "view",
      "type": "function"
    },
    {
      "inputs": [],
      "name": "totalSupply",
      "outputs": [
        {
          "internalType": "uint256",
          "name": "result",
          "type": "uint256"
        }
      ],
      "stateMutability": "view",
      "type": "function"
    },
    {
      "inputs": [
        {
          "internalType": "address",
          "name": "from",
          "type": "address"
        },
        {
          "internalType": "address",
          "name": "to",
          "type": "address"
        },
        {
          "internalType": "uint256",
          "name": "tokenId",
          "type": "uint256"
        }
      ],
      "name": "transferFrom",
      "outputs": [],
      "stateMutability": "payable",
      "type": "function"
    },
    {
      "inputs": [
        {
          "internalType": "address",
          "name": "newOwner",
          "type": "address"
        }
      ],
      "name": "transferOwnership",
      "outputs": [],
      "stateMutability": "nonpayable",
      "type": "function"
    },
    {
      "inputs": [],
      "name": "withdraw",
      "outputs": [],
      "stateMutability": "nonpayable",
      "type": "function"
    }
  ],
  "bytecode": "0x608060405234610196576100116101ae565b7f50656e676f20546573746e657420536e617073686f6f74000000000000000000602082015261003f6101d1565b6450656e676f60d81b60208201528151916001600160401b038311610191576100728361006d6002546101f4565b61022c565b602090601f841160011461010b5792806100a5926100ad955f92610100575b50508160011b915f199060031b1c19161790565b6002556102cb565b5f80556100b9336103a4565b6100c36001600a55565b6100cd6001600e55565b600c80546001600160a01b03191633179055600d80546001600160a01b03191633179055604051614bdb90816103ed8239f35b015190505f80610091565b60025f52601f19841691907f405787fa12a823e0f2b7631cc41b3ba8828b3321ca811111fa75cd3aa3bb5ace925f5b81811061017957509160019391866100ad979410610161575b505050811b016002556102cb565b01515f1960f88460031b161c191690555f8080610153565b9293602060018192878601518155019501930161013a565b61019a565b5f80fd5b634e487b7160e01b5f52604160045260245ffd5b60408051919082016001600160401b038111838210176101915760405260178252565b60408051919082016001600160401b038111838210176101915760405260058252565b90600182811c92168015610222575b602083101461020e57565b634e487b7160e01b5f52602260045260245ffd5b91607f1691610203565b601f8111610238575050565b60025f5260205f20906020601f840160051c83019310610272575b601f0160051c01905b818110610267575050565b5f815560010161025c565b9091508190610253565b601f821161028957505050565b5f5260205f20906020601f840160051c830193106102c1575b601f0160051c01905b8181106102b6575050565b5f81556001016102ab565b90915081906102a2565b80519091906001600160401b038111610191576102f4816102ed6003546101f4565b600361027c565b602092601f821160011461032857610323929382915f926101005750508160011b915f199060031b1c19161790565b600355565b60035f52601f198216937fc2575a0e9e593c00f959f8c92f12db2869c3395a3b0502d05e2516446f71f85b915f5b86811061038c5750836001959610610374575b505050811b01600355565b01515f1960f88460031b161c191690555f8080610369565b91926020600181928685015181550194019201610356565b600980546001600160a01b039283166001600160a01b0319821681179092559091167f8be0079c531659141344cd1fd0a4f28419497f9722a3daafe3b4186f6b6457e05f80a356fe60806040526004361015610011575f80fd5b5f3560e01c806301ffc9a7146103c457806306d254da146103bf57806306fdde03146103ba578063081812fc146103b5578063095ea7b3146103b0578063143759be146103ab57806318160ddd146103a65780631f05db79146103a157806323b872dd1461039c57806329af2c1a1461039757806332cb6b0c1461039257806334aeb5641461038d5780633ccfd60b1461038857806342842e0e14610383578063487ef2161461037e5780634d03a9a5146103795780635b771e3f146103745780635bb478081461036f5780635bbb21771461036a5780635f34389b146103655780636352211e1461036057806370a082311461035b578063715018a61461035657806378c91ed614610351578063813cd2761461034c57806382260f35146103475780638462151c146103425780638a78fb1e1461033d5780638da5cb5b1461033857806393aba1fb1461033357806395d89b411461032e57806399a2557a1461032957806399d8cd1114610324578063a079100d1461031f578063a204a82f1461031a578063a22cb46514610315578063a942cccb14610310578063aed96b591461030b578063b19960e614610306578063b1c456ad14610301578063b88d4fde146102fc578063c002d23d146102f7578063c23dc68f146102f2578063c45a0155146102ed578063c87b56dd146102e8578063cdcd897e146102e3578063d45557cc146102de578063da4e1817146102d9578063de11790e146102d4578063e0d4ea37146102cf578063e210a72d146102ca578063e8250705146102c5578063e8a3d485146102c0578063e985e9c5146102bb578063ec6be06e146102b6578063ed51ef41146102b1578063f16f3730146102ac578063f2fde38b146102a75763fddcb5ea146102a2575f80fd5b612a64565b612994565b612749565b612702565b6126a2565b61263e565b6125c6565b61251a565b6122a9565b612271565b612247565b6121eb565b6120b4565b612099565b611ff4565b611fcc565b611f69565b611f48565b611ee6565b611e78565b611e5c565b611e3f565b611b35565b611a95565b6118ab565b611870565b6117ae565b611637565b611592565b611502565b6114da565b61145b565b61129c565b611173565b611087565b610ecd565b610e72565b610e4b565b610e1c565b610df3565b610d87565b610cc3565b610ca6565b610c3f565b610c17565b610bf3565b610b71565b610a6a565b610a34565b6109ed565b6109d9565b610926565b61071d565b6106f5565b610634565b6105e5565b61050b565b610479565b6103df565b6001600160e01b03198116036103db57565b5f80fd5b346103db5760203660031901126103db576004356103fc816103c9565b63ffffffff60e01b16632483248360e11b8114908115610425575b506040519015158152602090f35b6301ffc9a760e01b811491508115610457575b8115610446575b505f610417565b635b5e139f60e01b1490505f61043f565b6380ac58cd60e01b81149150610438565b6001600160a01b038116036103db57565b346103db5760203660031901126103db5760043561049681610468565b61049e613c46565b6001600160a01b031680156104c4576001600160601b0360a01b600d541617600d555f80f35b63d92e233d60e01b5f5260045ffd5b805180835260209291819084018484015e5f828201840152601f01601f1916010190565b9060206105089281815201906104d3565b90565b346103db575f3660031901126103db576040515f60025461052b8161073e565b80845290600181169081156105c15750600114610563575b61055f83610553818503826107fc565b604051918291826104f7565b0390f35b60025f9081527f405787fa12a823e0f2b7631cc41b3ba8828b3321ca811111fa75cd3aa3bb5ace939250905b8082106105a757509091508101602001610553610543565b91926001816020925483858801015201910190929161058f565b60ff191660208086019190915291151560051b840190910191506105539050610543565b346103db5760203660031901126103db5760043561060281613c9e565b15610625575f526006602052602060018060a01b0360405f205416604051908152f35b6333d1c03960e21b5f5260045ffd5b60403660031901126103db5760043561064c81610468565b602435906001600160a01b0361066183613d53565b16908133036106d0575b6106a081610681855f52600660205260405f2090565b80546001600160a01b0319166001600160a01b03909216919091179055565b6001600160a01b0316907f8c5be1e5ebec7d5bd14f71427d1e84f3dd0314c0f7b2291e5b200ac8c7c3b9255f80a4005b5f82815260076020908152604080832033845290915290205460ff1661066b57613cdd565b346103db575f3660031901126103db57600d546040516001600160a01b039091168152602090f35b346103db575f3660031901126103db5760205f546001549003604051908152f35b90600182811c9216801561076c575b602083101461075857565b634e487b7160e01b5f52602260045260245ffd5b91607f169161074d565b634e487b7160e01b5f52604160045260245ffd5b61010081019081106001600160401b038211176107a657604052565b610776565b604081019081106001600160401b038211176107a657604052565b606081019081106001600160401b038211176107a657604052565b608081019081106001600160401b038211176107a657604052565b90601f801991011681019081106001600160401b038211176107a657604052565b9060405191825f8254926108308461073e565b808452936001811690811561089b5750600114610857575b50610855925003836107fc565b565b90505f9291925260205f20905f915b81831061087f575050906020610855928201015f610848565b6020919350806001915483858901015201910190918492610866565b90506020925061085594915060ff191682840152151560051b8201015f610848565b96939060e096936108e8610904946108f6939c9b989c8b5261010060208c01526101008b01906104d3565b9089820360408b01526104d3565b9087820360608901526104d3565b608086019790975260a08501526001600160a01b031660c08401521515910152565b346103db5760403660031901126103db57600435602435905f52601260205260405f20905f5260205260405f2080549061055f6109656001830161081d565b916109726002820161081d565b9361097f6003830161081d565b916004810154600660058301549201549360405197889760ff8760a01c169660018060a01b031695896108bd565b60609060031901126103db576004356109c581610468565b906024356109d281610468565b9060443590565b6109eb6109e5366109ad565b91612a9f565b005b346103db5760203660031901126103db57600435610a0a81610468565b610a12613c46565b601b80546001600160a01b0319166001600160a01b0392909216919091179055005b346103db575f3660031901126103db57602060405161c3508152f35b60609060031901126103db57600435906024359060443590565b346103db57610a7836610a50565b610a9d82610a908594955f52601260205260405f2090565b905f5260205260405f2090565b60068101805490929190336001600160a01b03821603610b625760a01c60ff16610b53578115610b445760048101829055825460ff60a01b1916600160a01b179092557f8b150673121b01316e8e9f04c655dcb53717f3ea8192a7606efea4685085293492610b3f92610b2f9190610b2590610b17610f43565b928352876020840152610f80565b6040820152612e16565b6040519081529081906020820190565b0390a2005b634dfba02360e01b5f5260045ffd5b6328f560bb60e21b5f5260045ffd5b630ff76c1760e01b5f5260045ffd5b346103db575f3660031901126103db57610b89613c46565b610b964760155490612efd565b8015610be457600c546001600160a01b03168015610bd5575f80809381935af1610bbe612f0a565b5015610bc657005b6312171d8360e31b5f5260045ffd5b631559b7d760e21b5f5260045ffd5b6353cd7f7960e01b5f5260045ffd5b6109eb610bff366109ad565b9060405192610c0f6020856107fc565b5f8452613a8f565b346103db575f3660031901126103db57601b546040516001600160a01b039091168152602090f35b346103db5760403660031901126103db576004355f908152601660209081526040808320602435845282529182902080546001820154600283015460039093015485516001600160a01b039093168352938201529283015260ff1615156060820152608090f35b346103db575f3660031901126103db576020600e54604051908152f35b346103db5760203660031901126103db57600435610ce081610468565b610ce8613c46565b6001600160a01b031680156104c4576001600160601b0360a01b600b541617600b555f80f35b60206040818301928281528451809452019201905f5b818110610d315750505090565b9091926020608082610d7c600194885162ffffff6060809260018060a01b0381511685526001600160401b036020820151166020860152604081015115156040860152015116910152565b019401929101610d24565b346103db5760203660031901126103db576004356001600160401b0381116103db57366023820112156103db578060040135906001600160401b0382116103db573660248360051b830101116103db5761055f916024610de79201612f39565b60405191829182610d0e565b346103db5760403660031901126103db576020610e14602435600435612f7b565b604051908152f35b346103db5760203660031901126103db5760206001600160a01b03610e42600435613d53565b16604051908152f35b346103db5760203660031901126103db576020610e14600435610e6d81610468565b612fca565b346103db575f3660031901126103db57610e8a613c46565b600980546001600160a01b031981169091555f906001600160a01b03167f8be0079c531659141344cd1fd0a4f28419497f9722a3daafe3b4186f6b6457e08280a3005b346103db575f3660031901126103db57600c546040516001600160a01b039091168152602090f35b634e487b7160e01b5f52603260045260245ffd5b601854811015610f255760185f52600960205f20910201905f90565b610ef5565b8054821015610f25575f52600960205f20910201905f90565b604051906108556060836107fc565b604051906108556040836107fc565b60405190610855610100836107fc565b604051906108556080836107fc565b90610855604051610f908161078a565b60e0610ffe6006839680548552610fa96001820161081d565b6020860152610fba6002820161081d565b6040860152610fcb6003820161081d565b606086015260048101546080860152600581015460a086015201546001600160a01b03811660c085015260a01c60ff1690565b1515910152565b90610508908251815260e080611056611044611032602088015161010060208801526101008701906104d3565b604088015186820360408801526104d3565b606087015185820360608701526104d3565b6080808701519085015260a0808701519085015260c0808701516001600160a01b0316908501529401511515910152565b346103db5760203660031901126103db576004356018548110156103db576110ae90610f09565b50805461055f6110c5600260018501549401610f80565b60405193849384526020840152606060408401526060830190611005565b92919060408401936040815281518095526060810194602060608260051b8401019301905f965b818810611148575050506105089394506020818303910152602061113783516040845260408401906104d3565b9201519060208184039101526104d3565b909193602080611164600193605f198882030186528851611005565b9601920197019691909161110a565b346103db5760203660031901126103db5760043560606020604051611197816107ab565b8281520152805f52601360205260405f2054906111b382613017565b915f5b8181106111e857836111d86111d3855f52601160205260405f2090565b6130ac565b9061055f604051928392836110e3565b60019061123c611237611203865f52601260205260405f2090565b61122b6112218561121c8a5f52601360205260405f2090565b6126ed565b90549060031b1c90565b5f5260205260405f2090565b610f80565b6112468287613098565b526112518186613098565b50016111b6565b90602080835192838152019201905f5b8181106112755750505090565b8251845260209384019390920191600101611268565b906020610508928181520190611258565b346103db5760203660031901126103db576004356112b981610468565b5f5460609080159081156112d6575b6040518061055f858261128b565b80929192935f91606094611429575f5480911015611421575b506112f981612fca565b928515611419575b83611317575b5050505061055f91505f806112c8565b909192809450851115611411575b604051916001850160051b830194856040526113405f613af4565b905f916113576113536040830151151590565b1590565b6113ff575b505f9791959160015b156113d0575b5f96611376846146a1565b60408101511561139557505060015f935b019688604052969296611365565b93909351806113c8575b50848418861b156113b3575b600190611387565b6001909901600581901b87018a9052986113ab565b93505f61139f565b80831480156113f6575b1561136b57505050505091505061055f9181525f808080611307565b508189146113da565b516001600160a01b031691505f61135c565b849350611325565b5f9350611301565b94505f6112ef565b613d27565b9181601f840112156103db578235916001600160401b0383116103db57602083818601950101116103db57565b346103db5760803660031901126103db576004356024356001600160401b0381116103db5761148e90369060040161142e565b916044356001600160401b0381116103db576114ae90369060040161142e565b90606435946001600160401b0386116103db576114d26109eb96369060040161142e565b9590946133ff565b346103db575f3660031901126103db576009546040516001600160a01b039091168152602090f35b346103db5760403660031901126103db5760043560243590805f52601260205260405f20825f5260205260405f2060018060a01b036006820154163303610b625761157c60206109eb9461156561155e600161158d960161081d565b91866142b2565b845f526014825260405f2060405193848093613904565b90815203019020805460ff19169055565b6140a8565b346103db575f3660031901126103db576040515f6003546115b28161073e565b80845290600181169081156105c157506001146115d95761055f83610553818503826107fc565b60035f9081527fc2575a0e9e593c00f959f8c92f12db2869c3395a3b0502d05e2516446f71f85b939250905b80821061161d57509091508101602001610553610543565b919260018160209254838588010152019101909291611605565b346103db5760603660031901126103db5760043561165481610468565b602435604435908192819060609380841015611429575f54809110156117a6575b5061167f81612fca565b908584101561179e575b8161169d575b6040518061055f878261128b565b909192809450850382811115611796575b50604051916116c96001820160051b84019586604052613af4565b905f916116dc6113536040830151151590565b611784575b505f9691949160015b15611756575b5f956116fb846146a1565b60408101511561171a57505060015f935b0195876040529592956116ea565b939093518061174e575b5084841860601b15611739575b60019061170c565b6001909801600581901b860189905297611731565b93505f611724565b808314801561177b575b156116f0575050505091505061055f9181525f80808061168f565b50818814611760565b516001600160a01b031691505f6116e1565b91505f6116ae565b5f9150611689565b94505f611675565b346103db5760403660031901126103db57601b5460243590600435906001600160a01b0316330361182b576117e561135382613c9e565b61181c576109eb91611802611817925f52601960205260405f2090565b61180d828254613223565b9055601a54613223565b601a55565b63677510db60e11b5f5260045ffd5b60405162461bcd60e51b815260206004820152601d60248201527f4f6e6c792050656e676f546f6b656e2063616e2061646420706f7765720000006044820152606490fd5b346103db5760203660031901126103db5760043561188d81610468565b60018060a01b03165f526017602052602060405f2054604051908152f35b60203660031901126103db576004356118c26143ad565b8015611a7c5761c3506118e1826118dc5f54600154900390565b613223565b11611a6d576118ef81613142565b3410611a5e57335f90815260106020526040902054906101f46119128284613223565b11611a4f57805f549261192482614403565b61192e8233614475565b335f9081526010602052604090209101905561194981613258565b915f5b8281106119d0575050600c546001600160a01b0316908115610bd55761197190613142565b908134036119aa575b5f80809381935af161198a612f0a565b5015610bc65761055f9061199e6001600a55565b6040519182918261128b565b5f808080853403335af16119bc612f0a565b5061197a576312171d8360e31b5f5260045ffd5b807ff8e1a15aba9398e019f0b49df1a4fde98ee17ae345cb5f6b5e2c27f5033e8ce7611a46611a0160019486613223565b80611a0c858a613098565b52610b2f611a18610f52565b611a20613933565b8152611a2a61395a565b6020820152611a41835f52601160205260405f2090565b61397d565b0390a10161194c565b634c2bc38160e01b5f5260045ffd5b63cd1c886760e01b5f5260045ffd5b6352df9fe560e01b5f5260045ffd5b630856e64360e21b5f5260045ffd5b801515036103db57565b346103db5760403660031901126103db57600435611ab281610468565b60243590611abf82611a8b565b335f526007602052611af982611ae88360405f209060018060a01b03165f5260205260405f2090565b9060ff801983541691151516179055565b60405191151582526001600160a01b03169033907f17307eab39ab6107e8899845ad3d59bd9653f200f220920489ca2b5937696c3190602090a3005b611b3e36610a50565b91611b476143ad565b611b62611b56611b5685613d53565b6001600160a01b031690565b336001600160a01b0390911603611e3057611b8981610a90845f52601260205260405f2090565b600681015460ff60a082901c1615611e21576004820154918215610b4457823410611a5e57611bba6001820161081d565b91611be0611bd9611bd3895f52601460205260405f2090565b85613916565b5460ff1690565b611e12576001600160a01b031690611c066003611bff6002840161081d565b920161081d565b86848988611c1d611c168a613164565b6064900490565b95611c28878b612efd565b600d549091908b906001600160a01b031680611de957506009546001600160a01b0316975f97611ce4611cf88a99611cf28b9a611ce48c9b611ccd611d159b611d0b9b611d059b5b611c78610f61565b92858452896020850152604084015260608301528f608083015260a0820152611cac3360c083019060018060a01b03169052565b8e60e0820152611cc883610a90875f52601260205260405f2090565b612d78565b611cdf835f52601360205260405f2090565b6133a7565b5f52601460205260405f2090565b90613916565b805460ff19166001179055565b8b613916565b805460ff19169055565b611d1f8b8d6142b2565b611d288d6140a8565b611d318c6140a8565b6001600160a01b0388165af1611d45612f0a565b5015610bc65781611dc1575b5050823403611d9b575b611d8e7fd41dbe053a12b0e9617e572dccd16aaf1bc0f94ad99781008b928fe29c5f7c3993604051938493339185613a5b565b0390a46109eb6001600a55565b5f808080863403335af1611dad612f0a565b50611d5b576312171d8360e31b5f5260045ffd5b5f918291829182916001600160a01b03165af1611ddc612f0a565b5015610bc6575f80611d51565b975f97611ce4611cf88a99611cf28b9a611ce48c9b611ccd611d159b611d0b9b611d059b611c70565b63fa256cb360e01b5f5260045ffd5b631d99ddbf60e01b5f5260045ffd5b6359dc379f60e01b5f5260045ffd5b346103db575f3660031901126103db576020601a54604051908152f35b346103db575f3660031901126103db5760206040516101f48152f35b346103db575f3660031901126103db576020601554604051908152f35b6001600160401b0381116107a657601f01601f191660200190565b929192611ebc82611e95565b91611eca60405193846107fc565b8294818452818301116103db578281602093845f960137010152565b60803660031901126103db57600435611efe81610468565b60243590611f0b82610468565b604435606435926001600160401b0384116103db57366023850112156103db57611f426109eb943690602481600401359101611eb0565b92613a8f565b346103db575f3660031901126103db57602060405166b1a2bc2ec500008152f35b346103db5760203660031901126103db576080611f87600435613af4565b611fca604051809262ffffff6060809260018060a01b0381511685526001600160401b036020820151166020860152604081015115156040860152015116910152565bf35b346103db575f3660031901126103db57600b546040516001600160a01b039091168152602090f35b346103db5760203660031901126103db5760043561201181613c9e565b1561181c57600b545f828152600f60205260408082205490516392cb829d60e01b81526004810194909452602484015290829060449082906001600160a01b03165afa80156120945761055f915f91612072575b50604051918291826104f7565b61208e91503d805f833e61208681836107fc565b8101906132d3565b5f612065565b61311e565b346103db575f3660031901126103db57602060405160058152f35b346103db5760403660031901126103db576004356024356120d36143ad565b6120e982610a90835f52601660205260405f2090565b916120fb611353600385015460ff1690565b6121dc578254336001600160a01b03909116036121cd57600160028401549301549261214d61213683610a90865f52601660205260405f2090565b60035f918281558260018201558260028201550155565b335f908152601760205260409020612166828254612efd565b905561217c61217782601554612efd565b601555565b5f80808084335af161218c612f0a565b5015610bc6576040805133815260208101929092527f12867efde6a16e6f5c9ade6f54557dc3aa2017a6716b589059eceb542d47917d919081908101611d8e565b6332a0bb6960e01b5f5260045ffd5b6305995b5360e41b5f5260045ffd5b346103db5760203660031901126103db576004355f52601160205261223960405f2061055f612225600161221e8461081d565b930161081d565b6040519384936040855260408501906104d3565b9083820360208501526104d3565b346103db5760203660031901126103db576004355f526019602052602060405f2054604051908152f35b346103db5760203660031901126103db5760043561228e81613c9e565b1561181c575f52600f602052602060405f2054604051908152f35b6122b236610a50565b916122bb6143ad565b3415610b44576122d0611b56611b5685613d53565b336001600160a01b0390911603611e30576122f781610a90845f52601260205260405f2090565b60068101543390612310906001600160a01b0316611b56565b1461249157611bd9612337916001612330875f52601460205260405f2090565b9101613b2f565b611e125761235181610a90845f52601660205260405f2090565b600381015460ff168080612483575b6124745761240e575b506123ac612375610f71565b3381528460208201523460408201526123916060820160019052565b6123a783610a90865f52601660205260405f2090565b613bb4565b335f9081526017602052604090206123c5348254613223565b90556123d661217734601554613223565b604080513381523460208201527f4b011cd95fe592ba0d71bdb34e58553f73ca97ab2d8789c2dc4b6c8b8714148c9181908101611d8e565b80546002909101546001600160a01b039091165f8181526017602052604081208054919384938493849390612444908490612efd565b905561245561217783601554612efd565b6001600160a01b03165af1612468612f0a565b5015610bc6575f612369565b6372351e5360e01b5f5260045ffd5b506002820154341115612360565b630f5cd12360e31b5f5260045ffd5b602081016020825282518091526040820191602060408360051b8301019401925f915b8383106124d257505050505090565b909192939460208061250b600193603f19868203018752606060408b518051845285810151868501520151918160408201520190611005565b970193019301919392906124c3565b346103db575f3660031901126103db5760185461253681613000565b9061254460405192836107fc565b8082526020820160185f527fb13d2d76d1f4b7be834882e410b3e3a8afaf69f83600ae24db354391d2378d2e5f915b838310612588576040518061055f87826124a0565b6009602060019260405161259b816107c6565b8554815284860154838201526125b360028701610f80565b6040820152815201920192019190612573565b346103db575f3660031901126103db57600b54604051600162f4a24960e01b03198152905f90829060049082906001600160a01b03165afa80156120945761055f915f91612624575b506040519182916020835260208301906104d3565b61263891503d805f833e61208681836107fc565b5f61260f565b346103db5760403660031901126103db57602060ff61269660043561266281610468565b6024359061266f82610468565b60018060a01b03165f526007845260405f209060018060a01b03165f5260205260405f2090565b54166040519015158152f35b346103db5760203660031901126103db576004356126bf81610468565b6126c7613c46565b6001600160a01b031680156104c4576001600160601b0360a01b600c541617600c555f80f35b8054821015610f25575f5260205f2001905f90565b346103db5760403660031901126103db57600435602435905f52601360205260405f2080548210156103db5760209161273a916126ed565b90549060031b1c604051908152f35b346103db5760403660031901126103db576024356004356127686143ad565b61278661278183610a90845f52601660205260405f2090565b613c06565b916127976113536060850151151590565b6121dc576127b181610a90845f52601260205260405f2090565b6006810154336001600160a01b0390911603610b62576040840151602085015194519091906001600160a01b0316906127ec6001820161081d565b906127fe6003611bff6002840161081d565b9061280e611b56611b568a613d53565b6001600160a01b03858116911603611e3057612838611bd9611bd38a5f52601460205260405f2090565b611e12576128e39161285961213688610a908b5f52601660205260405f2090565b6001600160a01b0385165f90815260176020526040902061287b878254612efd565b905561288c61217787601554612efd565b612894610f61565b87815260208101859052604081019290925260608201525f608082015260a081018590526001600160a01b03841660c08201525f60e0820152611cc886610a908a5f52601260205260405f2090565b6128f984611cdf885f52601360205260405f2090565b612917611cf8612911885f52601460205260405f2090565b83613916565b61292f611d0b612911875f52601460205260405f2090565b61293984866142b2565b612942866140a8565b61294b856140a8565b5f80808086335af161295b612f0a565b5015610bc657611d8e7fd41dbe053a12b0e9617e572dccd16aaf1bc0f94ad99781008b928fe29c5f7c3993604051938493339085613a5b565b346103db5760203660031901126103db576004356129b181610468565b6129b9613c46565b6001600160a01b03811615612a1057600980546001600160a01b039283166001600160a01b0319821681179092559091167f8be0079c531659141344cd1fd0a4f28419497f9722a3daafe3b4186f6b6457e05f80a3005b60405162461bcd60e51b815260206004820152602660248201527f4f776e61626c653a206e6577206f776e657220697320746865207a65726f206160448201526564647265737360d01b6064820152608490fd5b346103db5760203660031901126103db57600435612a8181610468565b60018060a01b03165f526010602052602060405f2054604051908152f35b9190612aaa82613d53565b6001600160a01b03938416938116849003612c3c575f8381526006602052604090208054612ae76001600160a01b03871633908114908314171590565b612bf9575b612af7858588613e03565b612bf0575b506001600160a01b0384165f90815260056020526040902080545f190190556001600160a01b0382165f908152600560205260409020805460010190556001600160a01b0382164260a01b17600160e11b17612b60845f52600460205260405f2090565b55600160e11b811615612bab575b506001600160a01b03169182907fddf252ad1be2c89b69c2b068fc378daa952ba7f163c4a11628f55a4df523b3ef5f80a415612ba657565b613d09565b60018301612bc1815f52600460205260405f2090565b5415612bce575b50612b6e565b5f548114612bc857612be8905f52600460205260405f2090565b555f80612bc8565b5f90555f612afc565b612c32611353611bd933612c1d8a60018060a01b03165f52600760205260405f2090565b9060018060a01b03165f5260205260405f2090565b15612aec57613cfa565b613cec565b634e487b7160e01b5f525f60045260245ffd5b818110612c5f575050565b5f8155600101612c54565b9190601f8111612c7957505050565b610855925f5260205f20906020601f840160051c83019310612ca3575b601f0160051c0190612c54565b9091508190612c96565b91909182516001600160401b0381116107a657612cd481612cce845461073e565b84612c6a565b6020601f8211600114612d13578190612d049394955f92612d08575b50508160011b915f199060031b1c19161790565b9055565b015190505f80612cf0565b601f19821690612d26845f5260205f2090565b915f5b818110612d6057509583600195969710612d48575b505050811b019055565b01515f1960f88460031b161c191690555f8080612d3e565b9192602060018192868b015181550194019201612d29565b90612dfc60e060066108559484518155612d99602086015160018301612cad565b612daa604086015160028301612cad565b612dbb606086015160038301612cad565b6080850151600482015560a0850151600582015560c0850151910180546001600160a01b0319166001600160a01b03909216919091178155925b0151151590565b815460ff60a01b191690151560a01b60ff60a01b16179055565b601854600160401b8110156107a657806001612e3792016018556018610f2a565b612ed157612dfc60e06008604085610855965186556020810151600187015501519384516002820155612e71602086015160038301612cad565b612e82604086015160048301612cad565b612e93606086015160058301612cad565b6080850151600682015560a0850151600782015560c0850151910180546001600160a01b0319166001600160a01b0390921691909117815592612df5565b612c41565b634e487b7160e01b5f52601160045260245ffd5b5f19810191908211612ef857565b612ed6565b91908203918211612ef857565b3d15612f34573d90612f1b82611e95565b91612f2960405193846107fc565b82523d5f602084013e565b606090565b6040519180835260051b906020828401016040525b81828015612f7457601f1990810193612f6b919084010135613af4565b90840152612f4e565b5050505090565b601854915f5b838110612f8e5750505090565b82612f9882610f09565b50541480612fb4575b612fad57600101612f81565b9250505090565b50816001612fc183610f09565b50015414612fa1565b6001600160a01b03168015612ff1575f5260056020526001600160401b0360405f20541690565b6323d3ad8160e21b5f5260045ffd5b6001600160401b0381116107a65760051b60200190565b9061302182613000565b61302e60405191826107fc565b828152809261303f601f1991613000565b01905f5b82811061304f57505050565b60209060405161305e8161078a565b5f8152606083820152606060408201526060808201525f60808201525f60a08201525f60c08201525f60e082015282828501015201613043565b8051821015610f255760209160051b010190565b906040516130b9816107ab565b60206130d3600183956130cb8161081d565b85520161081d565b910152565b908160209103126103db575161050881611a8b565b908060209392818452848401375f828201840152601f01601f1916010190565b9160206105089381815201916130ed565b6040513d5f823e3d90fd5b6020919283604051948593843782019081520301902090565b9066b1a2bc2ec5000082029180830466b1a2bc2ec500001490151715612ef857565b90600582029180830460051490151715612ef857565b90600782029180830460071490151715612ef857565b908160021b9180830460041490151715612ef857565b600181901b91906001600160ff1b03811603612ef857565b908151811015610f25570160200190565b9060018201809211612ef857565b9060028201809211612ef857565b9060038201809211612ef857565b9060048201809211612ef857565b9060058201809211612ef857565b9060068201809211612ef857565b91908201809211612ef857565b92949360ff61324b81936040956060885260608801916130ed565b9616602085015216910152565b9061326282613000565b61326f60405191826107fc565b8281528092613280601f1991613000565b0190602036910137565b9061329482613000565b6132a160405191826107fc565b82815280926132b2601f1991613000565b01905f5b8281106132c257505050565b8060606020809385010152016132b6565b6020818303126103db578051906001600160401b0382116103db570181601f820112156103db5780519061330682611e95565b9261331460405194856107fc565b828452602083830101116103db57815f9260208093018386015e8301015290565b9061334890604083526040830190611258565b906020818303910152815180825260208201916020808360051b8301019401925f915b83831061337a57505050505090565b9091929394602080613398600193601f1986820301875289516104d3565b9701930193019193929061336b565b90815491600160401b8310156107a657826133ca916001610855950181556126ed565b90919082549060031b91821b915f19901b1916179055565b9392916020916133fa916040875260408701916130ed565b930152565b959092919394613414611b56611b5689613d53565b336001600160a01b0390911603611e3057600b5461343a906001600160a01b0316611b56565b9160405163c36a2bff60e01b81526020818061345a8a8a6004840161310d565b0381875afa908115612094575f916138e5575b50156138d657613492611bd961348b8a5f52601460205260405f2090565b8888613129565b611e12576134aa916134a5913691611eb0565b613ee7565b90815180159081156138c8575b50613821578151600790045f905f5b81811061383057508115613821576134ee6134e86134e384613190565b613258565b9261328a565b935f5f5b8381106136365750505050915f9161352194936040518096819482936372565e2360e01b845260048401613335565b03915afa918215612094577f52e15ab134f84fe4816b97c4a3d135945e2725295c41f26f23d1180e44bb510095613617936135cd925f9161361c575b50613594600e549461357160018701600e55565b613579610f61565b93868552613588368b8b611eb0565b60208601523691611eb0565b604083015260608201525f6080820181905260a08201523360c08201525f60e0820152611cc883610a908a5f52601260205260405f2090565b6135e381611cdf885f52601360205260405f2090565b613602611cf86135fb885f52601460205260405f2090565b8686613129565b61360b866140a8565b604051938493846133e2565b0390a2565b61363091503d805f833e61208681836107fc565b5f61355d565b61363f8161317a565b60208a8c613667613661613653868a6131be565b516001600160f81b03191690565b60f81c90565b92839161368261366161365361367c896131cf565b8c6131be565b936136a2856040519586948594633eeb0b2560e21b865260048601613230565b03818d5afa908115612094575f916137f3575b506136c6575b5050506001016134f2565b91849160ff6001959694816136db8897613190565b93166136e7848d613098565b52166136fb6136f5836131cf565b8b613098565b5261371d613717613661613653613711866131dd565b8b6131be565b60ff1690565b6137296136f5836131dd565b5261375761375161374b613717613661613653613745886131eb565b8d6131be565b926131eb565b8a613098565b526137d361377061365361376a846131f9565b896131be565b6137c56137986136536137116137926136538d61378c8a613207565b906131be565b96613215565b6040516001600160f81b031993841660208201529483166021860152909116602284015282906023820190565b03601f1981018352826107fc565b6137dd828b613098565b526137e8818a613098565b500191905f806136bb565b613814915060203d811161381a575b61380c81836107fc565b8101906130d8565b5f6136b5565b503d613802565b633907cf2960e01b5f5260045ffd5b846020898961387e61386361366161365361374561385d6136616136536138568d61317a565b809c6131be565b986131cf565b604051633eeb0b2560e21b8152958694859460048601613230565b0381885afa908115612094575f916138aa575b5061389f575b6001016134c6565b600190920191613897565b6138c2915060203d811161381a5761380c81836107fc565b5f613891565b60079006905015155f6134b7565b636172ef9960e01b5f5260045ffd5b6138fe915060203d60201161381a5761380c81836107fc565b5f61346d565b805191908290602001825e015f815290565b6020906139299260405193848093613904565b9081520301902090565b604051906139426040836107fc565b60098252686c696c2070656e676f60b81b6020830152565b604051906139696040836107fc565b6005825264181026a7a760d91b6020830152565b91909182519283516001600160401b0381116107a6576139a7816139a1855461073e565b85612c6a565b6020601f82116001146139ea57916139de8260209360019561085598995f92612d085750508160011b915f199060031b1c19161790565b84555b01519101612cad565b601f198216956139fd855f5260205f2090565b965f5b818110613a4357509261085596976001959386938360209710613a2b575b505050811b0184556139e1565b01515f1960f88460031b161c191690555f8080613a1e565b83830151895560019098019760209384019301613a00565b9092613a746060939695946080845260808401906104d3565b6001600160a01b039687166020840152951660408201520152565b929190613a9d828286612a9f565b803b613aaa575b50505050565b613ab393614679565b15613ac1575f808080613aa4565b6368d2bf6b60e11b5f5260045ffd5b60405190613add826107e1565b5f6060838281528260208201528260408201520152565b90613afd613ad0565b915f548110613b095750565b9091505b805f52600460205260405f2054613b26575f1901613b0d565b610508906146a1565b9060405180925f90805490613b438261073e565b9160018116908115613b9c5750600114613b66575b505060209281520301902090565b9091505f5260205f205f905b828210613b85575050810160205f613b58565b805482870152859350602090910190600101613b72565b60ff191685525050801515028201905060205f613b58565b815181546001600160a01b0319166001600160a01b03919091161781556108559160039060609060208101516001850155604081015160028501550151151591019060ff801983541691151516179055565b90604051613c13816107e1565b82546001600160a01b03168152600183015460208201526002830154604082015260039092015460ff1615156060830152565b6009546001600160a01b03163303613c5a57565b606460405162461bcd60e51b815260206004820152602060248201527f4f776e61626c653a2063616c6c6572206973206e6f7420746865206f776e65726044820152fd5b905f915f548110613cac5750565b9091505b805f52600460205260405f205480613cd157508015612ef8575f1901613cb0565b600160e01b1615919050565b6367d9dca160e11b5f5260045ffd5b62a1148160e81b5f5260045ffd5b632ce44b5f60e11b5f5260045ffd5b633a954ecd60e21b5f5260045ffd5b636f96cda160e11b5f5260045ffd5b631960ccad60e11b5f5260045ffd5b63b562e8dd60e01b5f5260045ffd5b622e076360e81b5f5260045ffd5b613d65815f52600460205260405f2090565b54908115613d7c5750600160e01b8116613d185790565b90505f54811015613d18575b5f19015f81815260046020526040902054908115613dbc5750600160e01b81161561050857636f96cda160e11b5f5260045ffd5b9050613d88565b613dcd815461073e565b601f8111613de3575b506002600360fc1b019055565b613dfd90825f52601f60205f20910160051c810190612c54565b5f613dd6565b6001600160a01b031615159081613e83575b50613e1d5750565b5f5b60018110613e2b575050565b80820190818311612ef857613e7d6001613e778482955f526019602052613e5b61181760405f2054601a54612efd565b5f818152601960205260408120555f52601160205260405f2090565b01613dc3565b01613e1f565b6001600160a01b0316151590505f613e15565b90613ea082611e95565b613ead60405191826107fc565b8281528092613280601f1991611e95565b60041b90610ff060f0831692168203612ef857565b9060ff8091169116019060ff8211612ef857565b90815160018116613f7a5760011c613efe81613e96565b905f5b818110613f0f575090925050565b80613f67613f57613f37613f32613f2d61365361367c6001986131a6565b614732565b613ebe565b613f51613f2d61365361367c613f4c886131a6565b6131cf565b90613ed3565b60f81b6001600160f81b03191690565b5f1a613f7382866131be565b5301613f01565b60405162461bcd60e51b815260206004820152601960248201527f496e76616c69642068657820737472696e67206c656e677468000000000000006044820152606490fd5b60405190613fce6040836107fc565b60128252716675636b696e6720726963682070656e676f60701b6020830152565b60405190613ffe6040836107fc565b601182527070656e676f2062696c6c696f6e6169726560781b6020830152565b6040519061402d6040836107fc565b601182527070656e676f206d696c6c696f6e6169726560781b6020830152565b6040519061405c6040836107fc565b600a82526970656e676f2061726d7960b01b6020830152565b90610855600461408f936040519485916020830190613904565b631026a7a760e11b815203601b198101855201836107fc565b5f81815260136020526040812080545f915b81831061419a575050507ff8e1a15aba9398e019f0b49df1a4fde98ee17ae345cb5f6b5e2c27f5033e8ce791610b2f6140fe61414293670de0b6b3a7640000900490565b60018110156141475761412061411b614115613933565b926147db565b614075565b614128610f52565b9182526020820152611a41835f52601160205260405f2090565b0390a1565b600281101561415e5761412061411b61411561404d565b60058110156141755761412061411b61411561401e565b600a81101561418c5761412061411b614115613fef565b61412061411b614115613fbf565b9091926141cf60019160056141c76141ba895f52601260205260405f2090565b61122b6112218a896126ed565b015490613223565b930191906140ba565b6141e2815461073e565b90816141ec575050565b81601f5f93116001146141fd575055565b8183526020832061421991601f0160051c810190600101612c54565b808252602082209081548360011b9084198560031b1c191617905555565b60065f9182815561424a600182016141d8565b614256600282016141d8565b614262600382016141d8565b8260048201558260058201550155565b634e487b7160e01b5f52603160045260245ffd5b805480156142ad575f19019061429c82826126ed565b8154905f199060031b1b1916905555565b614272565b6142c4815f52601260205260405f2090565b825f526020526142df600660405f20015460ff9060a01c1690565b61439e575b6143026142fd83610a90845f52601260205260405f2090565b614237565b614314815f52601360205260405f2090565b918254925f5b84811061434d575b50509091507ff7499acb9d9f4141eb50430bdef419d2ecc52d1b220932562fd11ab43f21bc1b5f80a3565b8261435b61122183856126ed565b146143685760010161431a565b614390906133ca614389611221614383614395979899612eea565b866126ed565b91846126ed565b614286565b81905f80614322565b6143a88282614b21565b6142e4565b6002600a54146143be576002600a55565b60405162461bcd60e51b815260206004820152601f60248201527f5265656e7472616e637947756172643a207265656e7472616e742063616c6c006044820152606490fd5b5f545f903360601b903060601b905b848410614420575050505050565b6001809160405160208101904482524260408201528660608201528260748201528560948201526088815261445660a8826107fc565b51902061446b825f52600f60205260405f2090565b5501930192614412565b91604051906144856020836107fc565b5f82525f5491831561458f576001600160a01b0385164260a01b6001861460e11b17176144ba845f52600460205260405f2090565b556001600160a01b0385165f818152600560205260409020805468010000000000000001870201905593841561458a57808401939560015b15614525575b5f87875f7fddf252ad1be2c89b69c2b068fc378daa952ba7f163c4a11628f55a4df523b3ef8180a46144f2565b95600101958487036144f857929550929093505f55803b61454557505050565b9091925f549283039260015b15614575575b5f61456a611353876001880197876145da565b15614551575b613ac1565b8084106145575792509250505f54036103db57565b613d45565b613d36565b908160209103126103db5751610508816103c9565b6001600160a01b039182168152911660208201526040810191909152608060608201819052610508929101906104d3565b91614601926020925f604051809681958294630a85bd0160e11b84528433600486016145a9565b03926001600160a01b03165af15f9181614648575b5061463257614623612f0a565b80511561457057805190602001fd5b6001600160e01b031916630a85bd0160e11b1490565b61466b91925060203d602011614672575b61466381836107fc565b810190614594565b905f614616565b503d614659565b906020925f614601959360405196879586948593630a85bd0160e11b855233600486016145a9565b6146a9613ad0565b505f52600460205260405f20546146be613ad0565b6001600160a01b038216815260a082901c6001600160401b03166020820152600160e01b82161515604082015260e89190911c606082015290565b60ff602f199116019060ff8211612ef857565b60ff6036199116019060ff8211612ef857565b60ff6056199116019060ff8211612ef857565b60f81c6030811015806147d0575b6147c7576041811015806147bc575b6147b3576061811015806147a8575b61479f5760405162461bcd60e51b815260206004820152601560248201527424b73b30b634b2103432bc1031b430b930b1ba32b960591b6044820152606490fd5b6105089061471f565b50606681111561475e565b6105089061470c565b50604681111561474f565b610508906146f9565b506039811115614740565b805f9172184f03e93ff9f4daa797ed6e38ed64bf6a1f0160401b82101561490e575b806d04ee2d6d415b85acef8100000000600a9210156148f2575b662386f26fc100008110156148dd575b6305f5e1008110156148cb575b6127108110156148bb575b60648110156148ac575b10156148a1575b61488c602161486160018501613e96565b938401015b5f1901916f181899199a1a9b1b9c1cb0b131b232b360811b600a82061a8353600a900490565b801561489c5761488c9091614866565b505090565b600190910190614850565b60029060649004930192614849565b600490612710900493019261483f565b6008906305f5e1009004930192614834565b601090662386f26fc100009004930192614827565b6020906d04ee2d6d415b85acef81000000009004930192614817565b506040915072184f03e93ff9f4daa797ed6e38ed64bf6a1f0160401b81046147fd565b919091828114614a0c57614945835461073e565b6001600160401b0381116107a65761496181612cce845461073e565b5f93601f821160011461499b57612d0492939482915f926149905750508160011b915f199060031b1c19161790565b015490505f80612cf0565b6149ad601f198316915f5260205f2090565b946149bb845f5260205f2090565b915f5b8181106149f4575095836001959697106149dc57505050811b019055565b01545f1960f88460031b161c191690555f8080612d3e565b9192600180602092868b0154815501940192016149be565b509050565b9190612ed157808203614a22575050565b805482556001810154600183015560028201916002820192838103614a475750505050565b600860ff928192614ae396549055614a656003860160038301614931565b614a756004860160048301614931565b614a856005860160058301614931565b60068581015490820155600780860154908201559190930180549390910180546001600160a01b0319166001600160a01b039490941693909317835554825460ff60a01b191660a091821c929092161515901b60ff60a01b16179055565b5f808080613aa4565b60185480156142ad575f1901614b03816018610f2a565b612ed1576002815f614b1c93555f600182015501614237565b601855565b90614b2c8183612f7b565b91601854831015611e21575f90815260126020908152604080832093835292905290812060068101805460ff60a01b1916905560040155601854614b6f90612eea565b90818103614b82575b5050610855614aec565b614b98614b91614b9e93610f09565b5091610f09565b90614a11565b5f80614b7856fea2646970667358221220228c511a5899e9a16f28ff512f4a7f0078f11699293fdefd7bae3a1c6947f80c64736f6c634300081b0033",
  "linkReferences": {},
  "deployedLinkReferences": {}
}