{
  "_format": "hh-sol-artifact-1",
  "contractName": "PenguinOnchainTestnet",
  "sourceName": "contracts/ERC721/PenguinOnchainTestnet.sol",
  "abi": [
    {
      "inputs": [],
      "stateMutability": "nonpayable",
      "type": "constructor"
    },
    {
      "inputs": [],
      "name": "ApprovalCallerNotOwnerNorApproved",
      "type": "error"
    },
    {
      "inputs": [],
      "name": "ApprovalQueryForNonexistentToken",
      "type": "error"
    },
    {
      "inputs": [],
      "name": "BalanceQueryForZeroAddress",
      "type": "error"
    },
    {
      "inputs": [],
      "name": "InvalidQueryRange",
      "type": "error"
    },
    {
      "inputs": [],
      "name": "MintERC2309QuantityExceedsLimit",
      "type": "error"
    },
    {
      "inputs": [],
      "name": "MintToZeroAddress",
      "type": "error"
    },
    {
      "inputs": [],
      "name": "MintZeroQuantity",
      "type": "error"
    },
    {
      "inputs": [],
      "name": "NotCompatibleWithSpotMints",
      "type": "error"
    },
    {
      "inputs": [],
      "name": "OwnerQueryForNonexistentToken",
      "type": "error"
    },
    {
      "inputs": [],
      "name": "OwnershipNotInitializedForExtraData",
      "type": "error"
    },
    {
      "inputs": [],
      "name": "SequentialMintExceedsLimit",
      "type": "error"
    },
    {
      "inputs": [],
      "name": "SequentialUpToTooSmall",
      "type": "error"
    },
    {
      "inputs": [],
      "name": "SpotMintTokenIdTooSmall",
      "type": "error"
    },
    {
      "inputs": [],
      "name": "TokenAlreadyExists",
      "type": "error"
    },
    {
      "inputs": [],
      "name": "TransferCallerNotOwnerNorApproved",
      "type": "error"
    },
    {
      "inputs": [],
      "name": "TransferFromIncorrectOwner",
      "type": "error"
    },
    {
      "inputs": [],
      "name": "TransferToNonERC721ReceiverImplementer",
      "type": "error"
    },
    {
      "inputs": [],
      "name": "TransferToZeroAddress",
      "type": "error"
    },
    {
      "inputs": [],
      "name": "URIQueryForNonexistentToken",
      "type": "error"
    },
    {
      "anonymous": false,
      "inputs": [
        {
          "indexed": true,
          "internalType": "uint256",
          "name": "tokenId",
          "type": "uint256"
        },
        {
          "indexed": false,
          "internalType": "string",
          "name": "trait_type",
          "type": "string"
        },
        {
          "indexed": false,
          "internalType": "uint256",
          "name": "accessoryId",
          "type": "uint256"
        }
      ],
      "name": "AccessoryAdded",
      "type": "event"
    },
    {
      "anonymous": false,
      "inputs": [
        {
          "indexed": true,
          "internalType": "uint256",
          "name": "accessoryId",
          "type": "uint256"
        },
        {
          "indexed": true,
          "internalType": "uint256",
          "name": "fromTokenId",
          "type": "uint256"
        }
      ],
      "name": "AccessoryDeleted",
      "type": "event"
    },
    {
      "anonymous": false,
      "inputs": [
        {
          "indexed": true,
          "internalType": "uint256",
          "name": "accessoryId",
          "type": "uint256"
        },
        {
          "indexed": false,
          "internalType": "uint256",
          "name": "price",
          "type": "uint256"
        }
      ],
      "name": "AccessoryListed",
      "type": "event"
    },
    {
      "anonymous": false,
      "inputs": [
        {
          "indexed": true,
          "internalType": "uint256",
          "name": "accessoryId",
          "type": "uint256"
        },
        {
          "indexed": true,
          "internalType": "uint256",
          "name": "fromTokenId",
          "type": "uint256"
        },
        {
          "indexed": true,
          "internalType": "uint256",
          "name": "toTokenId",
          "type": "uint256"
        },
        {
          "indexed": false,
          "internalType": "address",
          "name": "buyer",
          "type": "address"
        },
        {
          "indexed": false,
          "internalType": "uint256",
          "name": "price",
          "type": "uint256"
        }
      ],
      "name": "AccessoryOfferCancelled",
      "type": "event"
    },
    {
      "anonymous": false,
      "inputs": [
        {
          "indexed": true,
          "internalType": "uint256",
          "name": "accessoryId",
          "type": "uint256"
        },
        {
          "indexed": true,
          "internalType": "uint256",
          "name": "fromTokenId",
          "type": "uint256"
        },
        {
          "indexed": true,
          "internalType": "uint256",
          "name": "toTokenId",
          "type": "uint256"
        },
        {
          "indexed": false,
          "internalType": "address",
          "name": "buyer",
          "type": "address"
        },
        {
          "indexed": false,
          "internalType": "uint256",
          "name": "price",
          "type": "uint256"
        }
      ],
      "name": "AccessoryOfferMade",
      "type": "event"
    },
    {
      "anonymous": false,
      "inputs": [
        {
          "indexed": true,
          "internalType": "uint256",
          "name": "accessoryId",
          "type": "uint256"
        },
        {
          "indexed": false,
          "internalType": "address",
          "name": "accessoryOwner",
          "type": "address"
        }
      ],
      "name": "AccessorySaleCancelled",
      "type": "event"
    },
    {
      "anonymous": false,
      "inputs": [
        {
          "indexed": false,
          "internalType": "string",
          "name": "accessoryType",
          "type": "string"
        },
        {
          "indexed": true,
          "internalType": "uint256",
          "name": "accessoryId",
          "type": "uint256"
        },
        {
          "indexed": true,
          "internalType": "uint256",
          "name": "fromTokenId",
          "type": "uint256"
        },
        {
          "indexed": true,
          "internalType": "uint256",
          "name": "toTokenId",
          "type": "uint256"
        },
        {
          "indexed": false,
          "internalType": "address",
          "name": "seller",
          "type": "address"
        },
        {
          "indexed": false,
          "internalType": "address",
          "name": "buyer",
          "type": "address"
        },
        {
          "indexed": false,
          "internalType": "uint256",
          "name": "price",
          "type": "uint256"
        }
      ],
      "name": "AccessorySold",
      "type": "event"
    },
    {
      "anonymous": false,
      "inputs": [
        {
          "indexed": true,
          "internalType": "address",
          "name": "owner",
          "type": "address"
        },
        {
          "indexed": true,
          "internalType": "address",
          "name": "approved",
          "type": "address"
        },
        {
          "indexed": true,
          "internalType": "uint256",
          "name": "tokenId",
          "type": "uint256"
        }
      ],
      "name": "Approval",
      "type": "event"
    },
    {
      "anonymous": false,
      "inputs": [
        {
          "indexed": true,
          "internalType": "address",
          "name": "owner",
          "type": "address"
        },
        {
          "indexed": true,
          "internalType": "address",
          "name": "operator",
          "type": "address"
        },
        {
          "indexed": false,
          "internalType": "bool",
          "name": "approved",
          "type": "bool"
        }
      ],
      "name": "ApprovalForAll",
      "type": "event"
    },
    {
      "anonymous": false,
      "inputs": [
        {
          "indexed": true,
          "internalType": "uint256",
          "name": "fromTokenId",
          "type": "uint256"
        },
        {
          "indexed": false,
          "internalType": "uint256",
          "name": "toTokenId",
          "type": "uint256"
        },
        {
          "indexed": true,
          "internalType": "address",
          "name": "from",
          "type": "address"
        },
        {
          "indexed": true,
          "internalType": "address",
          "name": "to",
          "type": "address"
        }
      ],
      "name": "ConsecutiveTransfer",
      "type": "event"
    },
    {
      "anonymous": false,
      "inputs": [
        {
          "indexed": true,
          "internalType": "address",
          "name": "previousOwner",
          "type": "address"
        },
        {
          "indexed": true,
          "internalType": "address",
          "name": "newOwner",
          "type": "address"
        }
      ],
      "name": "OwnershipTransferred",
      "type": "event"
    },
    {
      "anonymous": false,
      "inputs": [
        {
          "indexed": true,
          "internalType": "address",
          "name": "from",
          "type": "address"
        },
        {
          "indexed": true,
          "internalType": "address",
          "name": "to",
          "type": "address"
        },
        {
          "indexed": true,
          "internalType": "uint256",
          "name": "tokenId",
          "type": "uint256"
        }
      ],
      "name": "Transfer",
      "type": "event"
    },
    {
      "inputs": [],
      "name": "BENEFICARY_ADDRESS",
      "outputs": [
        {
          "internalType": "address",
          "name": "",
          "type": "address"
        }
      ],
      "stateMutability": "view",
      "type": "function"
    },
    {
      "inputs": [],
      "name": "MAX_MINT_PER_WALLET",
      "outputs": [
        {
          "internalType": "uint256",
          "name": "",
          "type": "uint256"
        }
      ],
      "stateMutability": "view",
      "type": "function"
    },
    {
      "inputs": [],
      "name": "MAX_SUPPLY",
      "outputs": [
        {
          "internalType": "uint256",
          "name": "",
          "type": "uint256"
        }
      ],
      "stateMutability": "view",
      "type": "function"
    },
    {
      "inputs": [],
      "name": "MINT_PRICE",
      "outputs": [
        {
          "internalType": "uint256",
          "name": "",
          "type": "uint256"
        }
      ],
      "stateMutability": "view",
      "type": "function"
    },
    {
      "inputs": [],
      "name": "ROYALTY_ADDRESS",
      "outputs": [
        {
          "internalType": "address",
          "name": "",
          "type": "address"
        }
      ],
      "stateMutability": "view",
      "type": "function"
    },
    {
      "inputs": [],
      "name": "ROYALTY_PERCENT",
      "outputs": [
        {
          "internalType": "uint256",
          "name": "",
          "type": "uint256"
        }
      ],
      "stateMutability": "view",
      "type": "function"
    },
    {
      "inputs": [
        {
          "internalType": "uint256",
          "name": "",
          "type": "uint256"
        },
        {
          "internalType": "uint256",
          "name": "",
          "type": "uint256"
        }
      ],
      "name": "accessories",
      "outputs": [
        {
          "internalType": "uint256",
          "name": "accessoryId",
          "type": "uint256"
        },
        {
          "internalType": "string",
          "name": "trait_type",
          "type": "string"
        },
        {
          "internalType": "string",
          "name": "trait_name",
          "type": "string"
        },
        {
          "internalType": "string",
          "name": "bytePixel",
          "type": "string"
        },
        {
          "internalType": "uint256",
          "name": "sellingPrice",
          "type": "uint256"
        },
        {
          "internalType": "uint256",
          "name": "lastPrice",
          "type": "uint256"
        },
        {
          "internalType": "address",
          "name": "owner",
          "type": "address"
        },
        {
          "internalType": "bool",
          "name": "forSale",
          "type": "bool"
        }
      ],
      "stateMutability": "view",
      "type": "function"
    },
    {
      "inputs": [
        {
          "internalType": "uint256",
          "name": "",
          "type": "uint256"
        }
      ],
      "name": "accessoriesForSale",
      "outputs": [
        {
          "internalType": "uint256",
          "name": "tokenId",
          "type": "uint256"
        },
        {
          "internalType": "uint256",
          "name": "accessoryId",
          "type": "uint256"
        },
        {
          "components": [
            {
              "internalType": "uint256",
              "name": "accessoryId",
              "type": "uint256"
            },
            {
              "internalType": "string",
              "name": "trait_type",
              "type": "string"
            },
            {
              "internalType": "string",
              "name": "trait_name",
              "type": "string"
            },
            {
              "internalType": "string",
              "name": "bytePixel",
              "type": "string"
            },
            {
              "internalType": "uint256",
              "name": "sellingPrice",
              "type": "uint256"
            },
            {
              "internalType": "uint256",
              "name": "lastPrice",
              "type": "uint256"
            },
            {
              "internalType": "address",
              "name": "owner",
              "type": "address"
            },
            {
              "internalType": "bool",
              "name": "forSale",
              "type": "bool"
            }
          ],
          "internalType": "struct IPenguinOnchain.Accessory",
          "name": "accessory",
          "type": "tuple"
        }
      ],
      "stateMutability": "view",
      "type": "function"
    },
    {
      "inputs": [
        {
          "internalType": "uint256",
          "name": "",
          "type": "uint256"
        },
        {
          "internalType": "uint256",
          "name": "",
          "type": "uint256"
        }
      ],
      "name": "accessoryIds",
      "outputs": [
        {
          "internalType": "uint256",
          "name": "",
          "type": "uint256"
        }
      ],
      "stateMutability": "view",
      "type": "function"
    },
    {
      "inputs": [
        {
          "internalType": "uint256",
          "name": "tokenId",
          "type": "uint256"
        },
        {
          "internalType": "string",
          "name": "trait_type",
          "type": "string"
        },
        {
          "internalType": "string",
          "name": "trait_name",
          "type": "string"
        },
        {
          "internalType": "string",
          "name": "byteCode",
          "type": "string"
        }
      ],
      "name": "addAccessory",
      "outputs": [],
      "stateMutability": "nonpayable",
      "type": "function"
    },
    {
      "inputs": [
        {
          "internalType": "address",
          "name": "to",
          "type": "address"
        },
        {
          "internalType": "uint256",
          "name": "tokenId",
          "type": "uint256"
        }
      ],
      "name": "approve",
      "outputs": [],
      "stateMutability": "payable",
      "type": "function"
    },
    {
      "inputs": [
        {
          "internalType": "uint256",
          "name": "fromTokenId",
          "type": "uint256"
        },
        {
          "internalType": "uint256",
          "name": "accessoryId",
          "type": "uint256"
        }
      ],
      "name": "approveOffer",
      "outputs": [],
      "stateMutability": "nonpayable",
      "type": "function"
    },
    {
      "inputs": [
        {
          "internalType": "address",
          "name": "owner",
          "type": "address"
        }
      ],
      "name": "balanceOf",
      "outputs": [
        {
          "internalType": "uint256",
          "name": "",
          "type": "uint256"
        }
      ],
      "stateMutability": "view",
      "type": "function"
    },
    {
      "inputs": [
        {
          "internalType": "uint256",
          "name": "accessoryId",
          "type": "uint256"
        },
        {
          "internalType": "uint256",
          "name": "fromTokenId",
          "type": "uint256"
        }
      ],
      "name": "cancelOffer",
      "outputs": [],
      "stateMutability": "nonpayable",
      "type": "function"
    },
    {
      "inputs": [
        {
          "internalType": "uint256",
          "name": "tokenId",
          "type": "uint256"
        }
      ],
      "name": "explicitOwnershipOf",
      "outputs": [
        {
          "components": [
            {
              "internalType": "address",
              "name": "addr",
              "type": "address"
            },
            {
              "internalType": "uint64",
              "name": "startTimestamp",
              "type": "uint64"
            },
            {
              "internalType": "bool",
              "name": "burned",
              "type": "bool"
            },
            {
              "internalType": "uint24",
              "name": "extraData",
              "type": "uint24"
            }
          ],
          "internalType": "struct IERC721A.TokenOwnership",
          "name": "ownership",
          "type": "tuple"
        }
      ],
      "stateMutability": "view",
      "type": "function"
    },
    {
      "inputs": [
        {
          "internalType": "uint256[]",
          "name": "tokenIds",
          "type": "uint256[]"
        }
      ],
      "name": "explicitOwnershipsOf",
      "outputs": [
        {
          "components": [
            {
              "internalType": "address",
              "name": "addr",
              "type": "address"
            },
            {
              "internalType": "uint64",
              "name": "startTimestamp",
              "type": "uint64"
            },
            {
              "internalType": "bool",
              "name": "burned",
              "type": "bool"
            },
            {
              "internalType": "uint24",
              "name": "extraData",
              "type": "uint24"
            }
          ],
          "internalType": "struct IERC721A.TokenOwnership[]",
          "name": "",
          "type": "tuple[]"
        }
      ],
      "stateMutability": "view",
      "type": "function"
    },
    {
      "inputs": [],
      "name": "factory",
      "outputs": [
        {
          "internalType": "contract IPengoFactory",
          "name": "",
          "type": "address"
        }
      ],
      "stateMutability": "view",
      "type": "function"
    },
    {
      "inputs": [
        {
          "internalType": "uint256",
          "name": "tokenId",
          "type": "uint256"
        },
        {
          "internalType": "uint256",
          "name": "accessoryId",
          "type": "uint256"
        }
      ],
      "name": "findAccessoryIndex",
      "outputs": [
        {
          "internalType": "uint256",
          "name": "",
          "type": "uint256"
        }
      ],
      "stateMutability": "view",
      "type": "function"
    },
    {
      "inputs": [],
      "name": "getAllAccessoriesForSale",
      "outputs": [
        {
          "components": [
            {
              "internalType": "uint256",
              "name": "tokenId",
              "type": "uint256"
            },
            {
              "internalType": "uint256",
              "name": "accessoryId",
              "type": "uint256"
            },
            {
              "components": [
                {
                  "internalType": "uint256",
                  "name": "accessoryId",
                  "type": "uint256"
                },
                {
                  "internalType": "string",
                  "name": "trait_type",
                  "type": "string"
                },
                {
                  "internalType": "string",
                  "name": "trait_name",
                  "type": "string"
                },
                {
                  "internalType": "string",
                  "name": "bytePixel",
                  "type": "string"
                },
                {
                  "internalType": "uint256",
                  "name": "sellingPrice",
                  "type": "uint256"
                },
                {
                  "internalType": "uint256",
                  "name": "lastPrice",
                  "type": "uint256"
                },
                {
                  "internalType": "address",
                  "name": "owner",
                  "type": "address"
                },
                {
                  "internalType": "bool",
                  "name": "forSale",
                  "type": "bool"
                }
              ],
              "internalType": "struct IPenguinOnchain.Accessory",
              "name": "accessory",
              "type": "tuple"
            }
          ],
          "internalType": "struct IPenguinOnchain.AccessoryForSale[]",
          "name": "",
          "type": "tuple[]"
        }
      ],
      "stateMutability": "view",
      "type": "function"
    },
    {
      "inputs": [
        {
          "internalType": "uint256",
          "name": "tokenId",
          "type": "uint256"
        }
      ],
      "name": "getApproved",
      "outputs": [
        {
          "internalType": "address",
          "name": "",
          "type": "address"
        }
      ],
      "stateMutability": "view",
      "type": "function"
    },
    {
      "inputs": [
        {
          "internalType": "uint256",
          "name": "tokenId",
          "type": "uint256"
        }
      ],
      "name": "getNFTDetails",
      "outputs": [
        {
          "components": [
            {
              "internalType": "uint256",
              "name": "accessoryId",
              "type": "uint256"
            },
            {
              "internalType": "string",
              "name": "trait_type",
              "type": "string"
            },
            {
              "internalType": "string",
              "name": "trait_name",
              "type": "string"
            },
            {
              "internalType": "string",
              "name": "bytePixel",
              "type": "string"
            },
            {
              "internalType": "uint256",
              "name": "sellingPrice",
              "type": "uint256"
            },
            {
              "internalType": "uint256",
              "name": "lastPrice",
              "type": "uint256"
            },
            {
              "internalType": "address",
              "name": "owner",
              "type": "address"
            },
            {
              "internalType": "bool",
              "name": "forSale",
              "type": "bool"
            }
          ],
          "internalType": "struct IPenguinOnchain.Accessory[]",
          "name": "",
          "type": "tuple[]"
        },
        {
          "components": [
            {
              "internalType": "string",
              "name": "category",
              "type": "string"
            },
            {
              "internalType": "string",
              "name": "networth",
              "type": "string"
            }
          ],
          "internalType": "struct IPenguinOnchain.SpecialTrait",
          "name": "",
          "type": "tuple"
        }
      ],
      "stateMutability": "view",
      "type": "function"
    },
    {
      "inputs": [
        {
          "internalType": "uint256",
          "name": "tokenId",
          "type": "uint256"
        }
      ],
      "name": "getSeed",
      "outputs": [
        {
          "internalType": "uint256",
          "name": "",
          "type": "uint256"
        }
      ],
      "stateMutability": "view",
      "type": "function"
    },
    {
      "inputs": [
        {
          "internalType": "address",
          "name": "owner",
          "type": "address"
        },
        {
          "internalType": "address",
          "name": "operator",
          "type": "address"
        }
      ],
      "name": "isApprovedForAll",
      "outputs": [
        {
          "internalType": "bool",
          "name": "",
          "type": "bool"
        }
      ],
      "stateMutability": "view",
      "type": "function"
    },
    {
      "inputs": [
        {
          "internalType": "uint256",
          "name": "tokenId",
          "type": "uint256"
        },
        {
          "internalType": "uint256",
          "name": "accessoryId",
          "type": "uint256"
        },
        {
          "internalType": "uint256",
          "name": "price",
          "type": "uint256"
        }
      ],
      "name": "listAccessoryForSale",
      "outputs": [],
      "stateMutability": "nonpayable",
      "type": "function"
    },
    {
      "inputs": [
        {
          "internalType": "uint256",
          "name": "accessoryId",
          "type": "uint256"
        },
        {
          "internalType": "uint256",
          "name": "fromTokenId",
          "type": "uint256"
        },
        {
          "internalType": "uint256",
          "name": "toTokenId",
          "type": "uint256"
        }
      ],
      "name": "makeOffer",
      "outputs": [],
      "stateMutability": "payable",
      "type": "function"
    },
    {
      "inputs": [
        {
          "internalType": "uint256",
          "name": "_mintAmount",
          "type": "uint256"
        }
      ],
      "name": "mintPengo",
      "outputs": [
        {
          "internalType": "uint256[]",
          "name": "",
          "type": "uint256[]"
        }
      ],
      "stateMutability": "payable",
      "type": "function"
    },
    {
      "inputs": [
        {
          "internalType": "address",
          "name": "",
          "type": "address"
        }
      ],
      "name": "mintedCount",
      "outputs": [
        {
          "internalType": "uint256",
          "name": "",
          "type": "uint256"
        }
      ],
      "stateMutability": "view",
      "type": "function"
    },
    {
      "inputs": [],
      "name": "name",
      "outputs": [
        {
          "internalType": "string",
          "name": "",
          "type": "string"
        }
      ],
      "stateMutability": "view",
      "type": "function"
    },
    {
      "inputs": [],
      "name": "nextAccessoryId",
      "outputs": [
        {
          "internalType": "uint256",
          "name": "",
          "type": "uint256"
        }
      ],
      "stateMutability": "view",
      "type": "function"
    },
    {
      "inputs": [
        {
          "internalType": "address",
          "name": "",
          "type": "address"
        }
      ],
      "name": "offerBalances",
      "outputs": [
        {
          "internalType": "uint256",
          "name": "",
          "type": "uint256"
        }
      ],
      "stateMutability": "view",
      "type": "function"
    },
    {
      "inputs": [
        {
          "internalType": "uint256",
          "name": "",
          "type": "uint256"
        },
        {
          "internalType": "uint256",
          "name": "",
          "type": "uint256"
        }
      ],
      "name": "offers",
      "outputs": [
        {
          "internalType": "address",
          "name": "buyer",
          "type": "address"
        },
        {
          "internalType": "uint256",
          "name": "toTokenId",
          "type": "uint256"
        },
        {
          "internalType": "uint256",
          "name": "price",
          "type": "uint256"
        },
        {
          "internalType": "bool",
          "name": "active",
          "type": "bool"
        }
      ],
      "stateMutability": "view",
      "type": "function"
    },
    {
      "inputs": [],
      "name": "owner",
      "outputs": [
        {
          "internalType": "address",
          "name": "",
          "type": "address"
        }
      ],
      "stateMutability": "view",
      "type": "function"
    },
    {
      "inputs": [
        {
          "internalType": "uint256",
          "name": "tokenId",
          "type": "uint256"
        }
      ],
      "name": "ownerOf",
      "outputs": [
        {
          "internalType": "address",
          "name": "",
          "type": "address"
        }
      ],
      "stateMutability": "view",
      "type": "function"
    },
    {
      "inputs": [
        {
          "internalType": "uint256",
          "name": "accessoryId",
          "type": "uint256"
        },
        {
          "internalType": "uint256",
          "name": "fromTokenId",
          "type": "uint256"
        },
        {
          "internalType": "uint256",
          "name": "toTokenId",
          "type": "uint256"
        }
      ],
      "name": "purchaseAccessory",
      "outputs": [],
      "stateMutability": "payable",
      "type": "function"
    },
    {
      "inputs": [
        {
          "internalType": "uint256",
          "name": "tokenId",
          "type": "uint256"
        },
        {
          "internalType": "uint256",
          "name": "accessoryId",
          "type": "uint256"
        }
      ],
      "name": "removeAccesory",
      "outputs": [],
      "stateMutability": "nonpayable",
      "type": "function"
    },
    {
      "inputs": [],
      "name": "renounceOwnership",
      "outputs": [],
      "stateMutability": "nonpayable",
      "type": "function"
    },
    {
      "inputs": [
        {
          "internalType": "address",
          "name": "from",
          "type": "address"
        },
        {
          "internalType": "address",
          "name": "to",
          "type": "address"
        },
        {
          "internalType": "uint256",
          "name": "tokenId",
          "type": "uint256"
        }
      ],
      "name": "safeTransferFrom",
      "outputs": [],
      "stateMutability": "payable",
      "type": "function"
    },
    {
      "inputs": [
        {
          "internalType": "address",
          "name": "from",
          "type": "address"
        },
        {
          "internalType": "address",
          "name": "to",
          "type": "address"
        },
        {
          "internalType": "uint256",
          "name": "tokenId",
          "type": "uint256"
        },
        {
          "internalType": "bytes",
          "name": "_data",
          "type": "bytes"
        }
      ],
      "name": "safeTransferFrom",
      "outputs": [],
      "stateMutability": "payable",
      "type": "function"
    },
    {
      "inputs": [
        {
          "internalType": "address",
          "name": "operator",
          "type": "address"
        },
        {
          "internalType": "bool",
          "name": "approved",
          "type": "bool"
        }
      ],
      "name": "setApprovalForAll",
      "outputs": [],
      "stateMutability": "nonpayable",
      "type": "function"
    },
    {
      "inputs": [
        {
          "internalType": "address",
          "name": "_beneficiaryAddress",
          "type": "address"
        }
      ],
      "name": "setBeneficiaryAddress",
      "outputs": [],
      "stateMutability": "nonpayable",
      "type": "function"
    },
    {
      "inputs": [
        {
          "internalType": "contract IPengoFactory",
          "name": "_factoryAddress",
          "type": "address"
        }
      ],
      "name": "setFactory",
      "outputs": [],
      "stateMutability": "nonpayable",
      "type": "function"
    },
    {
      "inputs": [
        {
          "internalType": "address",
          "name": "_royaltyAddress",
          "type": "address"
        }
      ],
      "name": "setRoyaltyAddress",
      "outputs": [],
      "stateMutability": "nonpayable",
      "type": "function"
    },
    {
      "inputs": [
        {
          "internalType": "uint256",
          "name": "",
          "type": "uint256"
        }
      ],
      "name": "specialTraits",
      "outputs": [
        {
          "internalType": "string",
          "name": "category",
          "type": "string"
        },
        {
          "internalType": "string",
          "name": "networth",
          "type": "string"
        }
      ],
      "stateMutability": "view",
      "type": "function"
    },
    {
      "inputs": [
        {
          "internalType": "bytes4",
          "name": "interfaceId",
          "type": "bytes4"
        }
      ],
      "name": "supportsInterface",
      "outputs": [
        {
          "internalType": "bool",
          "name": "",
          "type": "bool"
        }
      ],
      "stateMutability": "view",
      "type": "function"
    },
    {
      "inputs": [],
      "name": "symbol",
      "outputs": [
        {
          "internalType": "string",
          "name": "",
          "type": "string"
        }
      ],
      "stateMutability": "view",
      "type": "function"
    },
    {
      "inputs": [
        {
          "internalType": "uint256",
          "name": "tokenId",
          "type": "uint256"
        }
      ],
      "name": "tokenURI",
      "outputs": [
        {
          "internalType": "string",
          "name": "",
          "type": "string"
        }
      ],
      "stateMutability": "view",
      "type": "function"
    },
    {
      "inputs": [
        {
          "internalType": "address",
          "name": "owner",
          "type": "address"
        }
      ],
      "name": "tokensOfOwner",
      "outputs": [
        {
          "internalType": "uint256[]",
          "name": "",
          "type": "uint256[]"
        }
      ],
      "stateMutability": "view",
      "type": "function"
    },
    {
      "inputs": [
        {
          "internalType": "address",
          "name": "owner",
          "type": "address"
        },
        {
          "internalType": "uint256",
          "name": "start",
          "type": "uint256"
        },
        {
          "internalType": "uint256",
          "name": "stop",
          "type": "uint256"
        }
      ],
      "name": "tokensOfOwnerIn",
      "outputs": [
        {
          "internalType": "uint256[]",
          "name": "",
          "type": "uint256[]"
        }
      ],
      "stateMutability": "view",
      "type": "function"
    },
    {
      "inputs": [],
      "name": "totalOfferBalance",
      "outputs": [
        {
          "internalType": "uint256",
          "name": "",
          "type": "uint256"
        }
      ],
      "stateMutability": "view",
      "type": "function"
    },
    {
      "inputs": [],
      "name": "totalSupply",
      "outputs": [
        {
          "internalType": "uint256",
          "name": "result",
          "type": "uint256"
        }
      ],
      "stateMutability": "view",
      "type": "function"
    },
    {
      "inputs": [
        {
          "internalType": "address",
          "name": "from",
          "type": "address"
        },
        {
          "internalType": "address",
          "name": "to",
          "type": "address"
        },
        {
          "internalType": "uint256",
          "name": "tokenId",
          "type": "uint256"
        }
      ],
      "name": "transferFrom",
      "outputs": [],
      "stateMutability": "payable",
      "type": "function"
    },
    {
      "inputs": [
        {
          "internalType": "address",
          "name": "newOwner",
          "type": "address"
        }
      ],
      "name": "transferOwnership",
      "outputs": [],
      "stateMutability": "nonpayable",
      "type": "function"
    },
    {
      "inputs": [],
      "name": "withdraw",
      "outputs": [],
      "stateMutability": "nonpayable",
      "type": "function"
    }
  ],
  "bytecode": "0x6080604052346100225761001161019d565b604051615eef6104ce8239615eef90f35b600080fd5b634e487b7160e01b600052604160045260246000fd5b90601f01601f191681019081106001600160401b0382111761005e57604052565b610027565b9061007761007060405190565b928361003d565b565b6001600160401b03811161005e57602090601f01601f19160190565b906100a76100a283610079565b610063565b918252565b6100b66017610095565b7f50656e676f20546573746e657420536e617073686f6f74000000000000000000602082015290565b6100e76100ac565b90565b6100f46005610095565b6450656e676f60d81b602082015290565b6100e76100ea565b90600019905b9181191691161790565b6100e76100e76100e79290565b9061013a6100e76101419261011d565b825461010d565b9055565b906001600160a01b0390610113565b6100e790610168906001600160a01b031682565b6001600160a01b031690565b6100e790610154565b6100e790610174565b906101966100e76101419261017d565b8254610145565b6101b66101a86100df565b6101b0610105565b906101e6565b6101c26001600e61012a565b6101d46101cd610459565b600c610186565b6100776101df610459565b600d610186565b90610077916101fa565b6100e7600161011d565b9061020491610216565b61007761020f6101f0565b600a61012a565b9061022091610229565b61007733610463565b6100779182918291906103f8565b634e487b7160e01b600052602260045260246000fd5b906001600283049216801561026d575b602083101461026857565b610237565b91607f169161025d565b9160001960089290920291821b911b610113565b919061029c6100e76101419361011d565b908354610277565b6100779160009161028b565b8181106102bb575050565b806102c960006001936102a4565b016102b0565b9190601f81116102de57505050565b6102f061007793600052602060002090565b906020601f840181900483019310610312575b6020601f9091010401906102b0565b9091508190610303565b90610325815190565b906001600160401b03821161005e5761034882610342855461024d565b856102cf565b602090601f831160011461038357610141929160009183610378575b5050600019600883021c1916906002021790565b015190503880610364565b601f1983169161039885600052602060002090565b9260005b8181106103d6575091600293918560019694106103bd575b50505002019055565b01516000196008601f8516021c191690553880806103b4565b9193602060018192878701518155019501920161039c565b906100779161031c565b9061040761040e9260026103ee565b60036103ee565b6104166104ba565b61042181600061012a565b61043261042e6000199290565b9190565b1061043957565b63fed8210f60e01b6104c4565b6100e790610168565b6100e79054610446565b6100e7600961044f565b610489610483610473600961044f565b61047e846009610186565b61017d565b9161017d565b907f8be0079c531659141344cd1fd0a4f28419497f9722a3daafe3b4186f6b6457e06104b460405190565b600090a3565b6100e7600061011d565b60005260046000fdfe6080604052600436101561001257600080fd5b60003560e01c806301ffc9a71461036257806306d254da1461035d57806306fdde0314610358578063081812fc14610353578063095ea7b31461034e578063143759be1461034957806318160ddd146103445780631f05db791461033f57806323b872dd1461033a57806332cb6b0c1461033557806334aeb564146103305780633ccfd60b1461032b57806342842e0e146103265780634d03a9a5146103215780635b771e3f1461031c5780635bb47808146103175780635bbb2177146103125780635f34389b1461030d5780636352211e1461030857806370a0823114610303578063715018a6146102fe57806378c91ed6146102f9578063813cd276146102f457806382260f35146102ef5780638462151c146102ea5780638a78fb1e146102e55780638da5cb5b146102e057806393aba1fb146102db57806395d89b41146102d657806399a2557a146102d1578063a079100d146102cc578063a204a82f146102c7578063a22cb465146102c2578063a942cccb146102bd578063b19960e6146102b8578063b1c456ad146102b3578063b88d4fde146102ae578063c002d23d146102a9578063c23dc68f146102a4578063c45a01551461029f578063c87b56dd1461029a578063cdcd897e14610295578063d45557cc14610290578063da4e18171461028b578063e0d4ea3714610286578063e210a72d14610281578063e82507051461027c578063e985e9c514610277578063ec6be06e14610272578063ed51ef411461026d578063f16f373014610268578063f2fde38b146102635763fddcb5ea0361037a5761169e565b611676565b61165d565b611641565b6115e8565b6115cc565b611582565b6114c9565b6114ae565b611480565b611421565b611406565b6113d9565b6113b2565b611366565b61133b565b61130c565b6112c0565b611299565b611272565b611259565b61120b565b6111f0565b61118f565b61115b565b611142565b611127565b61110b565b610fff565b610f82565b610e90565b610c66565b610c42565b610c27565b610c0c565b610bf0565b610bc8565b610aab565b610a66565b610a12565b610974565b61095c565b610943565b6108ff565b6108d8565b610877565b6105ab565b610590565b610551565b6104f9565b6104ab565b610417565b6103a9565b6001600160e01b031981165b0361037a57565b600080fd5b9050359061038c82610367565b565b9060208282031261037a576103a29161037f565b90565b9052565b3461037a576103d76103c46103bf36600461038e565b6116d9565b6040515b91829182901515815260200190565b0390f35b6001600160a01b031690565b6001600160a01b038116610373565b9050359061038c826103e7565b9060208282031261037a576103a2916103f6565b3461037a5761042f61042a366004610403565b611795565b604051005b600091031261037a57565b60005b8381106104525750506000910152565b8181015183820152602001610442565b61048361048c60209361049693610477815190565b80835293849260200190565b9586910161043f565b601f01601f191690565b0190565b60208082526103a292910190610462565b3461037a576104bb366004610434565b6103d76104c66117a7565b6040519182918261049a565b80610373565b9050359061038c826104d2565b9060208282031261037a576103a2916104d8565b3461037a576103d761051461050f3660046104e5565b6117b1565b604051918291826001600160a01b03909116815260200190565b919060408382031261037a576103a290602061054a82866103f6565b94016104d8565b61042f61055f36600461052e565b906117e8565b6103a2916008021c6001600160a01b031690565b906103a29154610565565b6103a26000600d610579565b3461037a576105a0366004610434565b6103d7610514610584565b3461037a576105bb366004610434565b6103d76105c66117f4565b6040515b9182918290815260200190565b919060408382031261037a576103a290602061054a82866104d8565b6103a26103a26103a29290565b9061060a906105f3565b600052602052604060002090565b6103a29081565b6103a29054610618565b634e487b7160e01b600052602260045260246000fd5b906001600283049216801561065f575b602083101461065a57565b610629565b91607f169161064f565b8054600093929161068661067c8361063f565b8085529360200190565b91600181169081156106d8575060011461069f57505050565b6106b29192939450600052602060002090565b916000925b8184106106c45750500190565b8054848401526020909301926001016106b7565b92949550505060ff1916825215156020020190565b906103a291610669565b634e487b7160e01b600052604160045260246000fd5b90601f01601f191681019081106001600160401b0382111761072e57604052565b6106f7565b9061038c61074d9261074460405190565b938480926106ed565b038361070d565b6103a2906103db565b6103a29054610754565b6103a29060a01c5b60ff1690565b6103a29054610767565b9061078e610793926012610600565b610600565b9061079d8261061f565b916107aa60018201610733565b916107b760028301610733565b916107c460038201610733565b916107d16004830161061f565b916107de6005820161061f565b916103a260066107ef81850161075d565b9301610775565b939561085861085060e0979b9a9861084261086f976108348a61038c9e9961082761085f9a60006101008501940152565b8c820360208e0152610462565b908a820360408c0152610462565b9088820360608a0152610462565b9a6080870152565b60a0850152565b6001600160a01b031660c0830152565b019015159052565b3461037a576103d761089361088d3660046105d7565b9061077f565b946108a698969894919493929360405190565b988998896107f6565b909160608284031261037a576103a26108c884846103f6565b93604061054a82602087016103f6565b61042f6108e63660046108af565b9161189f565b6103a261c3506105f3565b6103a26108ec565b3461037a5761090f366004610434565b6103d76105c66108f7565b909160608284031261037a576103a261093384846104d8565b93604061054a82602087016104d8565b3461037a5761042f61095636600461091a565b91611e98565b3461037a5761096c366004610434565b61042f612103565b61042f6109823660046108af565b9161211d565b6103a29061076f565b6103a29054610988565b9061078e6109aa926016610600565b906109b48261075d565b916109c16001820161061f565b916103a260036109d36002850161061f565b9301610991565b61086f61038c94610a0b606094989795610a04608086019a60008701906001600160a01b03169052565b6020850152565b6040830152565b3461037a576103d7610a2e610a283660046105d7565b9061099b565b90610a3b94929460405190565b948594856109da565b6103a2916008021c81565b906103a29154610a44565b6103a26000600e610a4f565b3461037a57610a76366004610434565b6103d76105c6610a5a565b61037381610754565b9050359061038c82610a81565b9060208282031261037a576103a291610a8a565b3461037a5761042f610abe366004610a97565b612148565b909182601f8301121561037a578135916001600160401b03831161037a57602001926020830284011161037a57565b9060208282031261037a5781356001600160401b03811161037a57610b179201610ac3565b9091565b80516001600160a01b031682526020808201516001600160401b03169083015260408082015115159083015260609081015162ffffff16910152565b9061049681608093610b1b565b90610b84610b7d610b73845190565b8084529260200190565b9260200190565b9060005b818110610b955750505090565b909192610baf610ba86001928651610b57565b9460200190565b929101610b88565b60208082526103a292910190610b64565b3461037a576103d7610be4610bde366004610af2565b90612151565b60405191829182610bb7565b3461037a576103d76105c6610c063660046105d7565b9061219a565b3461037a576103d7610514610c223660046104e5565b612217565b3461037a576103d76105c6610c3d366004610403565b61224d565b3461037a57610c52366004610434565b61042f6122ad565b6103a26000600c610579565b3461037a57610c76366004610434565b6103d7610514610c5a565b634e487b7160e01b600052603260045260246000fd5b8054821015610cba57610cb1600991600052602060002090565b91020190600090565b610c81565b9061038c610ccc60405190565b928361070d565b6103a2610100610cbf565b9061038c610d926006610cef610cd3565b94610d00610cfc8261061f565b8752565b610d16610d0f60018301610733565b6020880152565b610d2c610d2560028301610733565b6040880152565b610d42610d3b60038301610733565b6060880152565b610d58610d516004830161061f565b6080880152565b610d6e610d676005830161061f565b60a0880152565b610d8c610d7c83830161075d565b6001600160a01b031660c0880152565b01610775565b151560e0840152565b601890610da6825490565b81101561037a57610db691610c97565b50610dc08161061f565b916103a26002610dd26001850161061f565b9301610cde565b80518252906103a29060e080610e29610e17610e05610100860160208901518782036020890152610462565b60408801518682036040880152610462565b60608701518582036060870152610462565b94610e3960808201516080860152565b610e4860a082015160a0860152565b60c0818101516001600160a01b03169085015201511515910152565b610e836103a2949293610e7c60608401956000850152565b6020830152565b6040818403910152610dd9565b3461037a576103d7610eab610ea63660046104e5565b610d9b565b60405191939193849384610e64565b906103a291610dd9565b90610eda610ed0835190565b8083529160200190565b9081610eec6020830284019460200190565b926000915b838310610f0057505050505090565b90919293946020610f23610f1c83856001950387528951610eba565b9760200190565b9301930191939290610ef1565b805160408084526103a29391602091610f4c9190840190610462565b920151906020818403910152610462565b60408082526103a2939192610f7491840190610ec4565b916020818403910152610f30565b3461037a57610f9a610f953660046104e5565b6123dc565b906103d7610fa760405190565b92839283610f5d565b90610fbf610b7d610b73845190565b9060005b818110610fd05750505090565b909192610fe6610ba86001928651815260200190565b929101610fc3565b60208082526103a292910190610fb0565b3461037a576103d761101a611015366004610403565b612486565b60405191829182610fee565b6001600160401b03811161072e57602090601f01601f19160190565b90826000939282370152565b9092919261106361105e82611026565b610cbf565b938185528183011161037a5761038c916020850190611042565b9080601f8301121561037a578160206103a29335910161104e565b9060808282031261037a576110ad81836104d8565b9260208301356001600160401b03811161037a57826110cd91850161107d565b9260408101356001600160401b03811161037a57836110ed91830161107d565b9260608201356001600160401b03811161037a576103a2920161107d565b3461037a5761042f61111e366004611098565b92919091612905565b3461037a57611137366004610434565b6103d7610514612f60565b3461037a5761042f6111553660046105d7565b90612fa6565b3461037a5761116b366004610434565b6103d76104c6612fd6565b909160608284031261037a576103a261093384846103f6565b3461037a576103d761101a6111a5366004611176565b91612fe0565b6103a2906103db906001600160a01b031682565b6103a2906111ab565b6103a2906111bf565b9061060a906111c8565b60006111eb6103a29260176111d1565b610a4f565b3461037a576103d76105c6611206366004610403565b6111db565b6103d761101a61121c3660046104e5565b613224565b801515610373565b9050359061038c82611221565b919060408382031261037a576103a290602061125282866103f6565b9401611229565b3461037a5761042f61126c366004611236565b9061322f565b61042f61128036600461091a565b91613713565b6103a26101f46105f3565b6103a2611286565b3461037a576112a9366004610434565b6103d76105c6611291565b6103a260006015610a4f565b3461037a576112d0366004610434565b6103d76105c66112b4565b9060808282031261037a576112f081836103f6565b926112fe82602085016103f6565b926110ed83604083016104d8565b61042f61131a3660046112db565b9291909161371e565b6103a266b1a2bc2ec500006105f3565b6103a2611323565b3461037a5761134b366004610434565b6103d76105c6611333565b60808101929161038c9190610b1b565b3461037a576103d761138161137c3660046104e5565b61379c565b60405191829182611356565b6103a26000600b610579565b6103a5906111c8565b60208101929161038c9190611399565b3461037a576113c2366004610434565b6103d76113cd61138d565b604051918291826113a2565b3461037a576103d76104c66113ef3660046104e5565b613855565b6103a260056105f3565b6103a26113f4565b3461037a57611416366004610434565b6103d76105c66113fe565b3461037a5761042f6114343660046105d7565b90613b0e565b611445906011610600565b906103a2600161145484610733565b9301610733565b60408082526103a293919261147291840190610462565b916020818403910152610462565b3461037a576114986114933660046104e5565b61143a565b906103d76114a560405190565b9283928361145b565b3461037a576103d76105c66114c43660046104e5565b613b18565b61042f6114d736600461091a565b91613f0d565b805182526103a29160608101916040906114fc60208201516020850152565b0151906040818403910152610dd9565b906103a2916114dd565b90611522610ed0835190565b90816115346020830284019460200190565b926000915b83831061154857505050505090565b90919293946020611564610f1c8385600195038752895161150c565b9301930191939290611539565b60208082526103a292910190611516565b3461037a57611592366004610434565b6103d761159d613fb2565b60405191829182611571565b919060408382031261037a576103a29060206115c582866103f6565b94016103f6565b3461037a576103d76103c46115e23660046115a9565b90613fbc565b3461037a5761042f6115fb366004610403565b613fee565b8054821015610cba57610cb1600191600052602060002090565b611625906013610600565b805482101561037a576103a29161163b91611600565b90610a4f565b3461037a576103d76105c66116573660046105d7565b9061161a565b3461037a5761042f6116703660046105d7565b9061441a565b3461037a5761042f611689366004610403565b6144b5565b60006111eb6103a29260106111d1565b3461037a576103d76105c66116b4366004610403565b61168e565b6116cc6116c66103a29290565b60e01b90565b6001600160e01b03191690565b6116e66301ffc9a76116b9565b6001600160e01b0319821614908115611728575b8115611704575090565b9050611724611716635b5e139f6116b9565b916001600160e01b03191690565b1490565b90506117376380ac58cd6116b9565b6001600160e01b0319821614906116fa565b61038c9061175561450e565b61178a565b906001600160a01b03905b9181191691161790565b9061177f6103a2611786926111c8565b825461175a565b9055565b61038c90600d61176f565b61038c90611749565b6103a290610733565b6103a2600261179e565b6117c16117bd82614545565b1590565b6117db5760006117d56103a2926006610600565b0161075d565b6333d1c03960e21b6145c1565b61038c916001916145ca565b61181b611813611804600061061f565b61180e600161061f565b900390565b61180e61466d565b90816000198061182a565b9190565b036118325750565b6103a2919250610496600861061f565b6103a29081906001600160a01b031681565b6103a26001600160a01b036105f3565b6103db6103a26103a29290565b9060001990611765565b9061188b6103a2611786926105f3565b8254611871565b6103a2600160e11b6105f3565b6118b96118b46118ae85614677565b926111bf565b611842565b926118d56118d06118c8611854565b809616611864565b6111bf565b936118e26118d084611864565b6118fd6001600160a01b0387165b916001600160a01b031690565b03611ac55761190b82614741565b9490336001600160a01b03881681148188141715611a97575b506118b4611826959493926119e992611a1598611a8d575b5061196461194b8a60056111d1565b61195e6119578261061f565b6000190190565b9061187b565b6119846119728260056111d1565b61195e61197e8261061f565b60010190565b61198c611892565b956119b161199b82848d6147bb565b4260a01b908917176001600160a01b0384161790565b906119c76004926119c28985610600565b61187b565b6000976119dc6119d68a6105f3565b91831690565b14611a29575b50506111bf565b1680957fddf252ad1be2c89b69c2b068fc378daa952ba7f163c4a11628f55a4df523b3ef8480a46105f3565b14611a1c57565b633a954ecd60e21b6145c1565b611a3b611a3660016105f3565b880190565b91611a4e611a498483610600565b61061f565b611a5a6118268b6105f3565b14611a66575b506119e2565b611a726103a28a61061f565b8314611a6057611a85926119c291610600565b388080611a60565b600090553861193c565b6117bd611aa991899796959497613fbc565b611ab857389491929394611924565b632ce44b5f60e11b6145c1565b62a1148160e81b6145c1565b15611ad857565b60405162461bcd60e51b815260206004820152601f60248201527f4e6f7420746865206f776e6572206f662074686973206163636573736f727900604482015280606481015b0390fd5b15611b2957565b60405162461bcd60e51b815260206004820152602260248201527f54686973206163636573736f727920697320616c7265616479206f6e2073616c604482015261329760f11b6064820152608490fd5b9060ff60a01b9060a01b611765565b90611b986103a261178692151590565b8254611b79565b6103a26060610cbf565b6103a290610cde565b634e487b7160e01b600052600060045260246000fd5b9160001960089290920291821b911b611765565b9190611bed6103a2611786936105f3565b908354611bc8565b61038c91600091611bdc565b818110611c0c575050565b80611c1a6000600193611bf5565b01611c01565b9190601f8111611c2f57505050565b611c4161038c93600052602060002090565b906020601f840181900483019310611c64575b6020601f909101045b0190611c01565b9091508190611c54565b600019600883021c1916906002021790565b90611c89815190565b906001600160401b03821161072e57611cac82611ca6855461063f565b85611c20565b602090601f8311600114611cda57611786929160009183611ccf575b5050611c6e565b015190503880611cc8565b601f19831691611cef85600052602060002090565b9260005b818110611d2e57509160029391856001969410611d14575b50505002019055565b01516000196008601f8516021c19165b9055388080611d0b565b91936020600181928787015181550195019201611cf3565b9061038c91611c80565b90611e0960e0600661038c94611d70611d6a600087015190565b8261187b565b611d87611d7e602087015190565b60018301611d46565b611d9e611d95604087015190565b60028301611d46565b611db5611dac606087015190565b60038301611d46565b611dcc611dc3608087015190565b6004830161187b565b611de3611dda60a087015190565b6005830161187b565b0192611e02611dfc60c08301516001600160a01b031690565b8561176f565b0151151590565b90611b88565b9061038c91611d50565b6002611e54604061038c94611e38611e32600083015190565b8661187b565b611e4f611e46602083015190565b6001870161187b565b015190565b9101611e0f565b9190611e6a5761038c91611e19565b611bb2565b90815491600160401b83101561072e5782611e9291600161038c95018155610c97565b90611e5b565b611f857f8b150673121b01316e8e9f04c655dcb53717f3ea8192a7606efea4685085293492611f80611f8f936012611eeb611edc60066117d58761078e8787610600565b611ee5336118f0565b14611ad1565b611f09611f046117bd6006610d8c8861078e8888610600565b611b22565b611f23886004611f1d8761078e8787610600565b0161187b565b611f3e60016006611f388761078e8787610600565b01611b88565b611f7b611f74611f548661078e86601896610600565b611f64611f5f611b9f565b958652565b611f6f876020870152565b611ba9565b6040840152565b611e6f565b6105f3565b926105ca60405190565b0390a2565b611f9c61450e565b61038c61209a565b634e487b7160e01b600052601160045260246000fd5b9190611fc5565b9290565b8203918211611fd057565b611fa4565b15611fdc57565b60405162461bcd60e51b815260206004820152602160248201527f4e6f2066756e647320617661696c61626c6520666f72207769746864726177616044820152601b60fa1b6064820152608490fd5b9061203861105e83611026565b918252565b3d156120575761204c3d61202b565b903d6000602084013e565b606090565b1561206357565b60405162461bcd60e51b815260206004820152600f60248201526e15da5d1a191c985dc819985a5b1959608a1b6044820152606490fd5b61038c6000806120bc6120ad601561061f565b6120b6306111c8565b31611fba565b6120cf6120c8836105f3565b8211611fd5565b6120e46120df6120df600c61075d565b6111c8565b906120ee60405190565b90818003925af16120fd61203d565b5061205c565b61038c611f94565b6103a2600061202b565b6103a261210b565b909161038c9261212b612115565b9261371e565b61038c9061213d61450e565b61038c90600b61176f565b61038c90612131565b90916040519280845260051b8060208501016040525b61217160006105f3565b81146121955760209003906121888284013561379c565b8260208601015290612167565b509050565b6000916121a760006105f3565b60186121b46103a2825490565b82101561220957816121d1866121ca8385610c97565b500161061f565b851491826121ef575b50506121e8576001016121a7565b9250505090565b61220092506001916121ca91610c97565b821481386121da565b50505050506103a260185490565b6118d061222f6103a292612229600090565b50614677565b611864565b6103a290611864565b6103a26001600160401b036105f3565b61225a6103db6000612234565b6001600160a01b0382161461228357611a496122779160056111d1565b61227f61223d565b1690565b6323d3ad8160e21b6145c1565b61229861450e565b61038c61038c6122a86000612234565b6147fa565b61038c612290565b6103a26040610cbf565b6122c76122b5565b906060825260606020830152565b6103a26122bf565b6001600160401b03811161072e5760208091020190565b9061203861105e836122dd565b612309610cd3565b90600082526020808080808080808901606081520160608152016060815201600081520160005b81520160008152016000905250565b6103a2612301565b60005b82811061235657505050565b60209061236161233f565b818401520161234a565b9061038c61238161237b846122f4565b936122dd565b601f190160208401612347565b90612397825190565b811015610cba576020809102010190565b9061038c6123cc60016123b96122b5565b946123c6610cfc82610733565b01610733565b6020840152565b6103a2906123a8565b6123e46122d5565b5060136123f96123f5836013610600565b5490565b916124038361236b565b9361240e60006105f3565b845b81101561246e576124676124109161244b611f6f61242f876012610600565b61244561163b856124408b8d610600565b611600565b90610600565b612455828a61238e565b52612460818961238e565b5060010190565b905061240e565b5092506103a29150612481906011610600565b6123d3565b606061249061466d565b61249861484d565b91928282036124a8575b50505090565b6124b29350614857565b3880806124a2565b156124c157565b60405162461bcd60e51b815260206004820152601960248201527f4e6f7420746865206f776e6572206f662074686973204e4654000000000000006044820152606490fd5b9050519061038c82611221565b9060208282031261037a576103a291612506565b6040513d6000823e3d90fd5b1561253a57565b60405162461bcd60e51b815260206004820152601360248201527214185c9d08191bd95cc81b9bdd08195e1a5cdd606a1b6044820152606490fd5b634e487b7160e01b600052601260045260246000fd5b8115612595570690565b612575565b156125a157565b60405162461bcd60e51b815260206004820152601960248201527f496e76616c696420706978656c2064617461206c656e677468000000000000006044820152606490fd5b6104966125fe926020926125f8815190565b94859290565b9384910161043f565b61203861049691602094936125e6565b61262c61262360405190565b92839283612607565b03902090565b6103a291612617565b1561264257565b60405162461bcd60e51b815260206004820152601d60248201527f4163636573736f727920736c6f7420616c72656164792066696c6c65640000006044820152606490fd5b6000198114611fd05760010190565b8115612595570490565b81810292918115918404141715611fd057565b906126bc825190565b811015610cba570160200190565b61076f6103a26103a29260ff1690565b6103a29060f81c6126ca565b91908201809211611fd057565b60409061272161271561038c9597969460608401908482036000860152610462565b60ff9097166020830152565b019060ff169052565b369037565b9061038c61273f61237b846122f4565b601f19016020840161272a565b60005b82811061275b57505050565b60608282015260200161274f565b9061038c61277961237b846122f4565b601f19016020840161274c565b6103a26103a26103a29260ff1690565b0180926001600160f81b0319169052565b909291926127b761105e82611026565b938185528183011161037a5761038c91602085019061043f565b9080601f8301121561037a5781516103a2926020016127a7565b9060208282031261037a5781516001600160401b03811161037a576103a292016127d1565b906103a291610462565b90612826610ed0835190565b90816128386020830284019460200190565b926000915b83831061284c57505050505090565b90919293946020612868610f1c83856001950387528951612810565b930193019193929061283d565b60408082526103a293919261288c91840190610fb0565b91602081840391015261281a565b90815491600160401b83101561072e57826128bd91600161038c95018155611600565b90611bdc565b9060ff90611765565b906128dc6103a261178692151590565b82546128c3565b9291602061290061038c9360408701908782036000890152610462565b940152565b9093919261291290614b2b565b9061292e61291f82612217565b612928336118f0565b146124ba565b61293b6120df600b61075d565b602061294660405190565b91829063c36a2bff60e01b825281806129628b6004830161049a565b03915afa8015612b255761297e91600091612f41575b50612533565b815190612996600792612990846105f3565b9061258b565b906129af6000926129a9611826856105f3565b1461259a565b6129d66129d16117bd6129cc8a6129c7866014610600565b612632565b610991565b61263b565b6129e0600e61061f565b6129fc6129f56129f0600e61061f565b612687565b600e61187b565b612a16612a07865190565b612a10866105f3565b90612696565b92612a20816105f3565b96875b85811015612b2a57612abc60208c8a612a44612a3e8c6105f3565b866126a0565b612a98612a7c612a6e612a5a6120df600b61075d565b94612a92612a81612a7c612a6e88856126b3565b516001600160f81b03191690565b6126da565b95612a8c60016105f3565b906126e6565b906126b3565b92612aa260405190565b95869485938493633eeb0b2560e21b8552600485016126f3565b03915afa908115612b2557600091612af7575b50612ae2575b600101612a23565b612a23565b97612aef612add91612687565b989050612ad5565b612b18915060203d8111612b1e575b612b10818361070d565b810190612513565b38612acf565b503d612b06565b612527565b509092959397949194600495612b59612b53612b4e612b488a6105f3565b8c6126a0565b61272f565b99612769565b94612b63816105f3565b98895b8c5b811015612de1578d8c8a8c612b7f612a3e8c6105f3565b93612b90612a7c612a6e87866126b3565b90602082612bb2612a7c612a6e600198612a92612bac8b6105f3565b8d6126e6565b948593612bc26120df600b61075d565b91612be7612bcf60405190565b96879586948594633eeb0b2560e21b865285016126f3565b03915afa908115612b2557600091612dc3575b50612c19575b5050505050612c12612b689160010190565b9050612b66565b612b68959f928f958f92612a6e612d2c612a6e612d26612d208c611f808c612c129f612db79f612cdc612d9c9f8f6103a29f8f92612d5a9f612a7c612a6e612a8c95612d078b612cc2612d018f612cc29f8f828f9383612cd69f612d169f94612cc59f612cc292612a8c612cd6612cd0612cca612cd69b612cc5612a8c9e612cc2612cbc612ce29e612cb6612cb0612cdc9d612786565b946105f3565b906126a0565b8b61238e565b52565b612786565b976105f3565b896126a0565b916105f3565b9061238e565b612cb6612cca612cc5612a7c612a6e8d612a9260029a612a8c8c6105f3565b8d61238e565b612a92600398612a8c8a6105f3565b96612cb68a6105f3565b866126e6565b876126b3565b94612a92612d4f612a6e612d49612d4360056105f3565b886126e6565b846126b3565b94612a8c60066105f3565b92612d90612d6760405190565b9485936020850193846001939261279685836127968295610496976001600160f81b0319169052565b9081038252038261070d565b612da6828d61238e565b52612db1818c61238e565b50612687565b9b91508c388080612c00565b612ddb915060203d8111612b1e57612b10818361070d565b38612bfa565b509650969198909750612e2494929a9950869350612e026120df600b61075d565b91612e0c60405190565b958694859384936372565e2360e01b85528401612875565b03915afa948515612b2557612ebd612f0a94612e977f52e15ab134f84fe4816b97c4a3d135945e2725295c41f26f23d1180e44bb510098612ed195600091612f20575b50612e90612e73610cd3565b95612e7e8b86890152565b612e898d6020890152565b6040870152565b6060850152565b612eae612ea3826105f3565b610858816080870152565b3360c0840152151560e0830152565b612ecc8561078e856012610600565b611e0f565b612ee883612ee36103a2846013610600565b61289a565b612ef181614d7b565b611f806001612f05876129c7856014610600565b6128cc565b92611f8f612f1760405190565b928392836128e3565b612f3b913d8091833e612f33818361070d565b8101906127eb565b38612e67565b612f5a915060203d602011612b1e57612b10818361070d565b38612978565b6103a2600961075d565b15612f7157565b60405162461bcd60e51b815260206004820152600d60248201526c2737ba103a34329037bbb732b960991b6044820152606490fd5b9061038c91612fd1612fc260066117d58561078e866012610600565b612fcb336118f0565b14612f6a565b615164565b6103a2600361179e565b6103a2929190614857565b90612ffd91612ff86152ce565b6130d9565b9061038c615300565b1561300d57565b60405162461bcd60e51b815260206004820152600860248201526714dbdb19081bdd5d60c21b6044820152606490fd5b1561304457565b60405162461bcd60e51b815280611b1e600482016020808252818101527f496e73756666696369656e74207061796d656e7420666f72206d696e74696e67604082015260600190565b1561309457565b60405162461bcd60e51b815260206004820152601b60248201527f4d6178206d696e74207065722077616c6c6574207265616368656400000000006044820152606490fd5b50906130fa6130e66117f4565b6130f46118266103a26108ec565b10613006565b6131196131116103a261310b611323565b856126a0565b34101561303d565b61313e61312a611a493360106111d1565b6131386118266103a2611286565b1061308d565b6131478261530b565b6131518233615358565b61316b61315f3360106111d1565b61195e6129f08261061f565b6131748261272f565b906000613180816105f3565b845b8110156131ce576131c7816131ae6131a46131829461319f6117f4565b6126e6565b612cc2838961238e565b61197e6131c26131be838961238e565b5190565b614d7b565b9050613180565b509092506131db306111c8565b80316131e9611826846105f3565b116131f357505090565b818080926132076120df6120df600c61075d565b90319082821561321b575bf115612b255790565b506108fc613212565b6103a2906060612feb565b7f17307eab39ab6107e8899845ad3d59bd9653f200f220920489ca2b5937696c31613282613278613272336120df87612f058861326d8560076111d1565b6111d1565b936111c8565b936103c860405190565b0390a3565b9061329a92916132956152ce565b613415565b61038c615300565b156132a957565b60405162461bcd60e51b815260206004820152601960248201527f4163636573736f7279206973206e6f7420666f722073616c65000000000000006044820152606490fd5b156132f557565b60405162461bcd60e51b8152602060048201526014602482015273125b9cdd59999a58da595b9d081c185e5b595b9d60621b6044820152606490fd5b1561333857565b60405162461bcd60e51b815260206004820152601960248201527f5472616e7366657220746f2073656c6c6572206661696c6564000000000000006044820152606490fd5b1561338457565b60405162461bcd60e51b815260206004820152601a60248201527f5472616e7366657220746f20726f79616c7479206661696c65640000000000006044820152606490fd5b61341161038c946134016133ef6060959998969960808601908682036000880152610462565b6001600160a01b039099166020850152565b6001600160a01b03166040830152565b0152565b91906012836134248383610600565b9061342e91610600565b60040161343a9061061f565b90846134468483610600565b9061345091610600565b60010161345c9061179e565b948284838888838661346e8286610600565b9061347891610600565b60060161348490610775565b83600097889788968796879561349987151590565b6134a691151514156132a2565b833410156134b3906132ee565b601493826134c18387610600565b906134cb91612632565b6134d490610991565b156134de9061263b565b8d806134e86113f4565b6134f290846126a0565b6134fc60646105f3565b61350591612696565b9c6135108e85611fba565b9a61351a91610600565b9061352491610600565b6006016135309061075d565b9f8161353c8783610600565b9061354691610600565b60020192826135558884610600565b9061355f91610600565b60030161356a610cd3565b94613575858d880152565b602086018890526135859061179e565b60408601526135939061179e565b60608501526135a18a6105f3565b608085015260a08401523360c084015288151560e0840152836135c391610600565b906135cd91610600565b906135d791611e0f565b8c6135e3826013610600565b906135ed9161289a565b6135f79084610600565b9061360191612632565b600161360c916128cc565b61361591610600565b9061361f91612632565b90613629916128cc565b613633878b615164565b61363c8b614d7b565b6136458a614d7b565b61364e886111c8565b613657906111c8565b9061366160405190565b90818003925af161367061203d565b5061367a90613331565b613682612f60565b61368b906111c8565b613694906111c8565b9061369e60405190565b90818003925af16136ad61203d565b506136b79061337d565b6136c0906105f3565b926136ca906105f3565b936136d4906105f3565b946136de60405190565b92839233906136ed93856133c9565b037fd41dbe053a12b0e9617e572dccd16aaf1bc0f94ad99781008b928fe29c5f7c3991a4565b9061038c9291613287565b9192909261372d81858561189f565b833b61373c61182660006105f3565b03613748575b50505050565b613755936117bd936153d4565b6137625738808080613742565b6368d2bf6b60e11b6145c1565b6103a26080610cbf565b61378161376f565b9060008252602080808085016000612330565b6103a2613779565b906137a5613794565b916137b16103a261466d565b8110156137bb5750565b6137c66103a261484d565b81106137cf5750565b9091505b6137df6117bd826154bd565b156137ed57600019016137d3565b6103a29061549e565b156137fd57565b60405162461bcd60e51b815260206004820152601860248201527f546f6b656e20494420646f6573206e6f742065786973742e00000000000000006044820152606490fd5b90815260408101929161038c9160200152565b60006138ba91613863606090565b5061387561387082614545565b6137f6565b613883611a4982600f610600565b906138916120df600b61075d565b9061389b60405190565b8095819482936138af6392cb829d60e01b90565b845260048401613842565b03915afa908115612b25576000916138d0575090565b6103a291503d806000833e612f33818361070d565b9061329a916138f26152ce565b613a09565b156138fe57565b60405162461bcd60e51b8152602060048201526015602482015274139bc81858dd1a5d99481bd999995c88199bdd5b99605a1b6044820152606490fd5b1561394257565b60405162461bcd60e51b815260206004820152600e60248201526d2737ba103cb7bab91037b33332b960911b6044820152606490fd5b60008082559060039061398e8360018301611bf5565b61399b8360028301611bf5565b0155565b90600003611e6a5761038c90613978565b156139b757565b60405162461bcd60e51b815260206004820152600d60248201526c1499599d5b990819985a5b1959609a1b6044820152606490fd5b6001600160a01b03909116815260408101929161038c9160200152565b613a1b6103a28261078e856016610600565b91613a30613a2b60038501610991565b6138f7565b613a4b613a3c8461075d565b613a45336118f0565b1461393b565b7f12867efde6a16e6f5c9ade6f54557dc3aa2017a6716b589059eceb542d47917d613b09613af5612cb0612cb0613a906001613a8960028b0161061f565b990161061f565b96613aaa6000613aa58361078e8b6016610600565b61399f565b613aca613ab83360176111d1565b61195e8b613ac58361061f565b611fba565b611f80600080613adc6120df336111c8565b6040518d81805b03925af1613aef61203d565b506139b0565b94613aff60405190565b91829133836139ec565b0390a4565b9061038c916138e5565b611a496103a291613b27600090565b50613b3461387082614545565b600f610600565b9061329a9291613b496152ce565b613d56565b15613b5557565b60405162461bcd60e51b815260206004820152602260248201527f4f66666572207072696365206d7573742062652067726561746572207468616e604482015261020360f41b6064820152608490fd5b15613bac57565b60405162461bcd60e51b815260206004820152601a60248201527f4f776e65722063616e6e6f74206d616b6520616e206f666665720000000000006044820152606490fd5b80546000939291613c08613c048361063f565b9390565b9160018116908115613c595750600114613c2157505050565b613c349192939450600052602060002090565b6000905b838210613c455750500190565b600181602092548486015201910190613c38565b60ff191683525050811515909102019150565b6120386104969160209493613bf1565b61262c613c8860405190565b92839283613c6c565b6103a291613c7c565b15613ca157565b60405162461bcd60e51b815260206004820152602960248201527f4f66666572206d75737420626520686967686572207468616e207468652063756044820152687272656e74206f6e6560b81b6064820152608490fd5b6003613d45606061038c94613d20613d1a60008301516001600160a01b031690565b8661176f565b613d2e611e46602083015190565b611e02613d3c604083015190565b6002870161187b565b91016128cc565b9061038c91613cf8565b612cd6613e7f82613dcd6129d16117bd6129cc886001613dc6613e859a61078e613dbe8f9e9f613d90613d8960006105f3565b3411613b4e565b613db7613da760066117d58761078e8c6012610600565b613db0336118f0565b1415613ba5565b6014610600565b946012610600565b0190613c91565b613ddf6103a28261078e896016610600565b613e0260038201613df26117bd82610991565b8015613ef1575b6129cc90613c9a565b613ebc575b50613e47613e1361376f565b338152613e21876020830152565b613e2c346040830152565b60016060820152613e428361078e8a6016610600565b613d4c565b613e68613e553360176111d1565b61195e613e618261061f565b34906126e6565b611f80613e78613e61601561061f565b601561187b565b936105f3565b917f4b011cd95fe592ba0d71bdb34e58553f73ca97ab2d8789c2dc4b6c8b8714148c613eb060405190565b80613b093433836139ec565b60008082613ee06002613ed96120df6120df86613eeb990161075d565b920161061f565b604051908180613ae3565b38613e07565b506129cc613f046103a26002860161061f565b34119050613df9565b9061038c9291613b3b565b9061038c611f746002613f29611b9f565b94613f36610cfc8261061f565b613f45610d0f6001830161061f565b01610cde565b6103a290613f18565b90613f5d825490565b613f66816122f4565b92613f7a6020850191600052602060002090565b6000915b838310613f8b5750505050565b60096020600192613f9b85613f4b565b815201920192019190613f7e565b6103a290613f54565b6103a26018613fa9565b6103a29161326d6129cc92613fcf600090565b5060076111d1565b61038c90613fe361450e565b61038c90600c61176f565b61038c90613fd7565b9061329a916140046152ce565b61411e565b1561401057565b60405162461bcd60e51b815260206004820152600f60248201526e27379030b1ba34bb329037b33332b960891b6044820152606490fd5b1561404e57565b60405162461bcd60e51b815260206004820152601760248201527f5061796d656e74207472616e73666572206661696c65640000000000000000006044820152606490fd5b805460009392916140a661067c8361063f565b91600181169081156106d857506001146140bf57505050565b6140d29192939450600052602060002090565b916000925b8184106140e45750500190565b8054848401526020909301926001016140d7565b61341161038c946134016133ef6060959998969960808601908682036000880152614093565b908061412b836016610600565b9061413591610600565b9161414260038401610991565b61414b90614009565b601291806141598385610600565b9061416391610600565b60060161416f9061075d565b614183906001600160a01b03163314611ad1565b61418f6002850161061f565b908061419d6001870161061f565b94816141a98683610600565b906141b391610600565b60010196826141c28784610600565b906141cc91610600565b60020197836141db8885610600565b906141e591610600565b91986000926003016141f68b61075d565b916141ff610cd3565b9361420a8887870152565b6142139061179e565b60208501526142219061179e565b604084015261422f9061179e565b606083015261423d836105f3565b608083015261424d8760a0840152565b6001600160a01b031660c082015281151560e08201528361426e8985610600565b9061427891610600565b9061428291611e0f565b8261428e886013610600565b906142989161289a565b6142a28387615164565b6142ad876014610600565b836142b88885610600565b906142c291610600565b6001016142ce91613c91565b60016142d9916128cc565b806142e5876014610600565b846142f08986610600565b906142fa91610600565b60010161430691613c91565b90614310916128cc565b61431987614d7b565b61432286614d7b565b808061432d336111c8565b614336906111c8565b60405160009189905af161434861203d565b5061435290614047565b8261435e876016610600565b9061436891610600565b906143729161399f565b61437b8761075d565b6143869060176111d1565b846143908261061f565b9061439a91611fba565b6143a39161187b565b84846143af601561061f565b906143b991611fba565b6143c490601561187b565b6143cd91610600565b906143d791610600565b600101946143e49061075d565b906143ee906105f3565b926143f8906105f3565b93614402906105f3565b9461440c60405190565b928392336136ed93856140f8565b9061038c91613ff7565b61038c9061443061450e565b614490565b1561443c57565b60405162461bcd60e51b815260206004820152602660248201527f4f776e61626c653a206e6577206f776e657220697320746865207a65726f206160448201526564647265737360d01b6064820152608490fd5b61038c906122a86144a46103db6000612234565b6001600160a01b0383161415614435565b61038c90614424565b156144c557565b60405162461bcd60e51b815280611b1e600482016020808252818101527f4f776e61626c653a2063616c6c6572206973206e6f7420746865206f776e6572604082015260600190565b61038c614519612f60565b6145256118f0336103db565b146144be565b8015611fd0576000190190565b6103a2600160e01b6105f3565b9060009161455161466d565b81101561455b5750565b6145686103a2600061061f565b81106145715750565b9091505b614583611a49826004610600565b908161459261182660006105f3565b036145a6576145a1915061452b565b614575565b506117246145b2614538565b6145bc60006105f3565b921690565b60005260046000fd5b916145d482612217565b9080614652575b614633575b612cd6613272614601926120df8660006145fb886006610600565b0161176f565b917f8c5be1e5ebec7d5bd14f71427d1e84f3dd0314c0f7b2291e5b200ac8c7c3b92561462c60405190565b8080613b09565b6146406117bd3383613fbc565b156145e0576367d9dca160e11b6145c1565b50336146666001600160a01b0383166118f0565b14156145db565b6103a260006105f3565b61467f61466d565b811015614694575b636f96cda160e11b6145c1565b6004906146a5611a49826004610600565b916000916146b2836105f3565b84146146d65750506146ce6119d66146c8614538565b926105f3565b036146875790565b909192506146e66103a28461061f565b81101561468757909190600019015b91614703611a498483610600565b9261470d836105f3565b84146147355750506147236119d66146c8614538565b146103a257636f96cda160e11b6145c1565b909250600019016146f5565b6103a261475891614750600090565b506006610600565b90815490565b6103a260e86105f3565b6103a2906147796118266103a29490565b901c90565b61478b6103a26103a29290565b62ffffff1690565b6103a26103a26103a29262ffffff1690565b6103a2906147b66118266103a29490565b901b90565b6147f06147f5916103a294936147cf600090565b506147ea6147e56147de61475e565b8097614768565b61477e565b916154de565b614793565b6147a5565b61481b61481561480a600961075d565b6120df84600961176f565b916111c8565b907f8be0079c531659141344cd1fd0a4f28419497f9722a3daafe3b4186f6b6457e061484660405190565b8080613282565b6103a2600061061f565b606093929182811015614a565761486c61466d565b808210614a4e575b5061487d61484d565b600093600019929190614a48565b80821015614a40575b5061489e8561224d565b9481841015614a2e575b6000926148b4846105f3565b87036148c5575b5050505050505050565b909192949698506148d98484999597990390565b88811115614a26575b506000906040519460018a0160051b8601998a6040526149018961379c565b93886000956149166117bd6040830151151590565b614a12575b505060009c9b9a99949c509560015b156149de575b8b9c899c9a9b9c9a6149a5575b6149468661549e565b604081015115614968575050600189955b01998c6040529c9b9a99949c61492a565b809691965161499c575b5086861860601b15614987575b600190614957565b6001909701600581901b89018890529661497f565b51955038614972565b8486146149c4575b8b86111561493d57506149bf89612234565b61493d565b94506149d86149d360016105f3565b8c0190565b946149ad565b8085148015614a09575b156149305750509850505050935094505050825238808080808080806148bb565b508682146149e8565b01516001600160a01b03169450883861491b565b9750386148e2565b9450614a3a60006105f3565b946148a8565b905038614894565b8161488b565b905038614874565b631960ccad60e11b6145c1565b15614a6a57565b60405162461bcd60e51b815260206004820152601960248201527f496e76616c69642068657820737472696e67206c656e677468000000000000006044820152606490fd5b9061038c61273f614abf8461202b565b93611026565b61076f6103a26103a29290565b614ae19060ff165b9160ff1690565b029060ff8216918203611fd057565b614afc9060ff16614ada565b019060ff8211611fd057565b614b1e614b186103a29260ff1690565b60f81b90565b6001600160f81b03191690565b90614b34825190565b91614b44600293612990856105f3565b92614b5e600094614b5861182660006105f3565b14614a63565b614b7a614b75614b6c845190565b612a10846105f3565b614aaf565b91614b8560006105f3565b614b936103a2612a07845190565b811015614c235780614c0b614c06614bdd614bcd614bc8612a6e614bc2614c1e98614bbd8c6105f3565b6126a0565b896126b3565b615502565b614bd76010614ac5565b90614ad2565b614c00614bc8612a6e614bc2614bf688614bbd8d6105f3565b612a8c60016105f3565b90614af0565b614b08565b871a614c1782876126b3565b5360010190565b614b85565b509193505050565b614c37906004926125e6565b630408ae8d60e31b81520190565b9061038c614c5260405190565b8093614c62602083019182614c2b565b9081038252038361070d565b614c78601261202b565b716675636b696e6720726963682070656e676f60701b602082015290565b6103a2614c6e565b6001614cbd602061038c94611e4f614cb7600083015190565b86611d46565b9101611d46565b9061038c91614c9e565b614cd8601161202b565b7070656e676f2062696c6c696f6e6169726560781b602082015290565b6103a2614cce565b614d07601161202b565b7070656e676f206d696c6c696f6e6169726560781b602082015290565b6103a2614cfd565b614d36600a61202b565b6970656e676f2061726d7960b01b602082015290565b6103a2614d2c565b614d5e600961202b565b686c696c2070656e676f60b81b602082015290565b6103a2614d54565b906000614d87816105f3565b92835b6013614d9c6103a26123f58584610600565b861015614de257614ddc91612a8c6005614dcf614dd59461244561163b8c6124408b614dc9816012610600565b95610600565b0161061f565b9460010190565b93614d8a565b50614dfb91939450612a10670de0b6b3a76400006105f3565b614e0560016105f3565b811015614e4d5761038c92614e41614e27614e22614e489461560b565b614c45565b610a04614e326122b5565b95614e3b614d73565b90870152565b6011610600565b614cc4565b614e5760026105f3565b811015614e885761038c92614e41614e74614e22614e489461560b565b610a04614e7f6122b5565b95614e3b614d4c565b614e9260056105f3565b811015614ec35761038c92614e41614eaf614e22614e489461560b565b610a04614eba6122b5565b95614e3b614d24565b614ecd600a6105f3565b811015614efe5761038c92614e41614eea614e22614e489461560b565b610a04614ef56122b5565b95614e3b614cf5565b61038c92614e41614f14614e22614e489461560b565b610a04614f1f6122b5565b95614e3b614c96565b90614f3b90600019906020036008021c90565b8154169055565b90600091614f60614f5882600052602060002090565b928354611c6e565b905555565b9192906020821015614fbd57601f8411600114614f8757611786929350611c6e565b5090614fb861038c936001614faf614fa485600052602060002090565b92601f602091010490565b82019101611c01565b614f42565b50614ff68293614fd4600194600052602060002090565b611c5d6020601f860104820192601f861680614ffe575b50601f602091010490565b600202179055565b61500a90888603614f28565b38614feb565b929091600160401b821161072e57602011156150575760208110156150385761178691611c6e565b60019160ff191661504e84600052602060002090565b55600202019055565b60019150600202019055565b90815461506f8161063f565b90818311615097575b8183106150855750505050565b61508e93614f65565b38808080613742565b6150a383838387615010565b615078565b600061038c91615063565b90600003611e6a5761038c906150a8565b6000906006906150d48382611bf5565b6150e183600183016150b3565b6150ee83600283016150b3565b6150fb83600383016150b3565b6151088360048301611bf5565b61399b8360058301611bf5565b90600003611e6a5761038c906150c4565b634e487b7160e01b600052603160045260246000fd5b8054801561515f57600019019061515c6151568383611600565b90611bf5565b55565b615126565b6151786006610d8c8461078e856012610600565b615269575b61519660006151918461078e856012610600565b615115565b6013916151a66123f58385610600565b926151b160006105f3565b84811015615258576151ca61163b826124408786610600565b83146151d8576001016151b1565b6152286103a2858461078e611f80956128bd61521d61163b869d61521761520661522d9f612cd69f9e610600565b9161521160016105f3565b90611fba565b90611600565b916124408686610600565b61513c565b907ff7499acb9d9f4141eb50430bdef419d2ecc52d1b220932562fd11ab43f21bc1b61484660405190565b505061522d919250612cd6906105f3565b6152738282615913565b61517d565b6103a260026105f3565b1561528957565b60405162461bcd60e51b815260206004820152601f60248201527f5265656e7472616e637947756172643a207265656e7472616e742063616c6c006044820152606490fd5b61038c6152db600a61061f565b6152ef6152e6615278565b91821415615282565b600a61187b565b6103a260016105f3565b61038c6152ef6152f6565b61531361484d565b9161531e60006105f3565b925b825b8410156153525761534a614dd5826129f061533f615322956159d8565b6119c283600f610600565b939050615320565b50915050565b61038c91615364612115565b91615a48565b9050519061038c82610367565b9060208282031261037a576103a29161536a565b6001600160a01b039182168152911660208201526103a29260808201929091906153b490610a0b565b6060818403910152610462565b6116cc6116c66103a29263ffffffff1690565b909392916020906153e96120df6000976111c8565b63150b7a029360003361541a6153fe60405190565b9889968795869461540f8c60e01b90565b86526004860161538b565b03925af16000928161546d575b5061545a575050600161543657565b61543e61203d565b805161544d61182660006105f3565b1461376257805190602001fd5b611724919293506116cc611716916153c1565b61549091935060203d602011615497575b615488818361070d565b810190615377565b9138615427565b503d61547e565b6154b8611a496103a2926154b0613794565b506004610600565b615b0b565b611a496154cc916154b0600090565b6154d961182660006105f3565b141590565b5050506103a2600090565b6154f59060ff16614ada565b90039060ff8211611fd057565b61550b906126da565b6155156030614ac5565b60ff82161015806155f5575b1561553a576103a2906155346030614ac5565b906154e9565b6155446041614ac5565b60ff82161015806155df575b15615563576103a2906155346037614ac5565b61556d6061614ac5565b60ff82161015806155c9575b1561558c576103a2906155346057614ac5565b60405162461bcd60e51b815260206004820152601560248201527424b73b30b634b2103432bc1031b430b930b1ba32b960591b6044820152606490fd5b506155d46066614ac5565b60ff82161115615579565b506155ea6046614ac5565b60ff82161115615550565b506156006039614ac5565b60ff82161115615521565b61561481615ba8565b9061562560019261049660016105f3565b918061563084614aaf565b936020018401905b6156425750505090565b8115615692576156769060001901926f181899199a1a9b1b9c1cb0b131b232b360811b600a82061a8453612a10600a6105f3565b908161568561182660006105f3565b1461569257909181615638565b6124a2565b1561569e57565b60405162461bcd60e51b815280611b1e600482016020808252818101527f4163636573736f7279206e6f7420666f756e6420696e2073616c65206c697374604082015260600190565b6103a2905461063f565b908082146157c057615702816156e7565b906001600160401b03821161072e5761571f82611ca6855461063f565b600090601f831160011461574c57611786929160009183615741575050611c6e565b015490503880611cc8565b90615761601f19841692600052602060002090565b9061577185600052602060002090565b92815b8181106157a8575091600293918560019694106157945750505002019055565b01546000196008601f8516021c1916611d24565b91936001806020928787015481550195019201615774565b5050565b9061038c916156f1565b908082036157da575050565b611e0960068061038c946157f3611d6a6000870161061f565b61580360018601600183016157c4565b61581360028601600283016157c4565b61582360038601600383016157c4565b615832611dc36004870161061f565b615841611dda6005870161061f565b0192016158566158508261075d565b8461176f565b610775565b9061038c916157ce565b818103615870575050565b6002808361588c615886600061038c970161061f565b8561187b565b6158a461589b6001830161061f565b6001860161187b565b01910161585b565b9190611e6a5761038c91615865565b6000600261038c926158cf83808301611bf5565b6158dc8360018301611bf5565b01615115565b90600003611e6a5761038c906158bb565b8054801561515f57600019019061515c61590d8383610c97565b906158e2565b61038c9161598b91615969615928838361219a565b916004611f1d60189561594661593f6103a2895490565b8710615697565b61595c60006006611f388461078e896012610600565b61078e613dbe60006105f3565b61597e615974835490565b61521160016105f3565b9081810361599057505090565b6158f3565b6159a86159a06103a29385610c97565b509184610c97565b906158ac565b6103a5906001600160a01b031660601b90565b01918252565b0180926159ae565b6103a2906105f3565b6103a290615a306159f26159ec60016105f3565b43611fba565b915a92612d90615a0160405190565b948593602085019333904042866014610496946159c1602080999895966159c782876159c16159c199839c9052565b615a42615a3b825190565b9160200190565b206159cf565b615a528282615d54565b6000813b615a62611826836105f3565b03615a6d5750505050565b90919293615a83615a7d8361061f565b94850390565b9360015b15615abc575b82615aaa6117bd88615a9e87612234565b9888600182019a6153d4565b15615a87576368d2bf6b60e11b6145c1565b808510615a8d57925093509150615ad8611826611fc18461061f565b03615ae557808080613742565b80fd5b6103a260a06105f3565b615aff6103a26103a29290565b6001600160401b031690565b9061038c615b17613794565b6060615b9e6147e58396615b3d615b306118d083611864565b6001600160a01b03168652565b615b69615b59615b54615b4e615ae8565b84614768565b615af2565b6001600160401b03166020870152565b615b90615b74614538565b615b87615b8160006105f3565b91841690565b14156040870152565b615b9861475e565b90614768565b62ffffff16910152565b615bb260006105f3565b907a184f03e93ff9f4daa797ed6e38ed64bf6a1f010000000000000000615bd8816105f3565b821015615d28575b506d04ee2d6d415b85acef8100000000615bf9816105f3565b821015615d06575b50662386f26fc10000615c13816105f3565b821015615ce4575b506305f5e100615c2a816105f3565b821015615cc2575b50612710615c3f816105f3565b821015615ca0575b50615c5260646105f3565b811015615c7e575b615c67611826600a6105f3565b1015615c705790565b6103a29061049660016105f3565b615c8f615c9a91612a1060646105f3565b9161049660026105f3565b90615c5a565b615cbb91612a10615cb0926105f3565b9161049660046105f3565b9038615c47565b615cdd91612a10615cd2926105f3565b9161049660086105f3565b9038615c32565b615cff91612a10615cf4926105f3565b9161049660106105f3565b9038615c1b565b615d2191612a10615d16926105f3565b9161049660206105f3565b9038615c01565b615d4391612a10615d38926105f3565b9161049660406105f3565b9038615be0565b6103a260406105f3565b615d5e600061061f565b91600091615d6b836105f3565b8214615eac578082615dc6615dbb615d89615df09660011460e11b90565b615da6615d9589612234565b615d9e8a6105f3565b9788916147bb565b4260a01b9117176001600160a01b0385161790565b6119c2886004610600565b615e0e6118b46001936118d0615df6615ddd615d4a565b615de760016105f3565b998a91826147a5565b17860290565b61195e615e048460056111d1565b916104968361061f565b615e16611854565b16928314615ea057850194928503615e2f600019611826565b11615e93576001815b615e4b575b505050509061038c9161187b565b15615e81575b83908383867fddf252ad1be2c89b69c2b068fc378daa952ba7f163c4a11628f55a4df523b3ef8180a49081615e38565b9160010191848303615e515780615e3d565b6340b23f1d60e11b6145c1565b622e076360e81b6145c1565b63b562e8dd60e01b6145c156fea26469706673582212209c1e38e60bf884e663de0728dbc3f850c01497b820f7d9180b60eccab0a2752064736f6c634300081b0033",
  "linkReferences": {},
  "deployedLinkReferences": {}
}