{
  "_format": "hh-sol-artifact-1",
  "contractName": "PengoStrategy",
  "sourceName": "contracts/Strategy/PengoStrategy.sol",
  "abi": [
    {
      "inputs": [],
      "stateMutability": "nonpayable",
      "type": "constructor"
    },
    {
      "anonymous": false,
      "inputs": [
        {
          "indexed": false,
          "internalType": "address",
          "name": "previousAdmin",
          "type": "address"
        },
        {
          "indexed": false,
          "internalType": "address",
          "name": "newAdmin",
          "type": "address"
        }
      ],
      "name": "AdminChanged",
      "type": "event"
    },
    {
      "anonymous": false,
      "inputs": [
        {
          "indexed": true,
          "internalType": "address",
          "name": "beacon",
          "type": "address"
        }
      ],
      "name": "BeaconUpgraded",
      "type": "event"
    },
    {
      "anonymous": false,
      "inputs": [
        {
          "indexed": false,
          "internalType": "uint8",
          "name": "version",
          "type": "uint8"
        }
      ],
      "name": "Initialized",
      "type": "event"
    },
    {
      "anonymous": false,
      "inputs": [
        {
          "indexed": true,
          "internalType": "address",
          "name": "previousOwner",
          "type": "address"
        },
        {
          "indexed": true,
          "internalType": "address",
          "name": "newOwner",
          "type": "address"
        }
      ],
      "name": "OwnershipTransferred",
      "type": "event"
    },
    {
      "anonymous": false,
      "inputs": [
        {
          "indexed": true,
          "internalType": "address",
          "name": "implementation",
          "type": "address"
        }
      ],
      "name": "Upgraded",
      "type": "event"
    },
    {
      "inputs": [
        {
          "internalType": "uint256",
          "name": "",
          "type": "uint256"
        }
      ],
      "name": "activeBuyList",
      "outputs": [
        {
          "internalType": "address",
          "name": "",
          "type": "address"
        }
      ],
      "stateMutability": "view",
      "type": "function"
    },
    {
      "inputs": [
        {
          "internalType": "uint256",
          "name": "tokenId",
          "type": "uint256"
        },
        {
          "internalType": "address",
          "name": "receiver",
          "type": "address"
        }
      ],
      "name": "claimAllDividendsFor",
      "outputs": [],
      "stateMutability": "nonpayable",
      "type": "function"
    },
    {
      "inputs": [
        {
          "internalType": "address",
          "name": "rwaToken",
          "type": "address"
        },
        {
          "internalType": "uint256",
          "name": "tokenId",
          "type": "uint256"
        }
      ],
      "name": "claimDividends",
      "outputs": [],
      "stateMutability": "nonpayable",
      "type": "function"
    },
    {
      "inputs": [
        {
          "internalType": "address",
          "name": "rwaToken",
          "type": "address"
        },
        {
          "internalType": "uint256",
          "name": "amount",
          "type": "uint256"
        }
      ],
      "name": "distributeYield",
      "outputs": [],
      "stateMutability": "nonpayable",
      "type": "function"
    },
    {
      "inputs": [
        {
          "internalType": "uint256",
          "name": "proposalId",
          "type": "uint256"
        }
      ],
      "name": "executeProposal",
      "outputs": [],
      "stateMutability": "nonpayable",
      "type": "function"
    },
    {
      "inputs": [],
      "name": "getActiveBuyList",
      "outputs": [
        {
          "internalType": "address[]",
          "name": "",
          "type": "address[]"
        }
      ],
      "stateMutability": "view",
      "type": "function"
    },
    {
      "inputs": [
        {
          "internalType": "address",
          "name": "rwaToken",
          "type": "address"
        },
        {
          "internalType": "uint256",
          "name": "tokenId",
          "type": "uint256"
        }
      ],
      "name": "getClaimableDividends",
      "outputs": [
        {
          "internalType": "uint256",
          "name": "",
          "type": "uint256"
        }
      ],
      "stateMutability": "view",
      "type": "function"
    },
    {
      "inputs": [],
      "name": "getRewardTokens",
      "outputs": [
        {
          "internalType": "address[]",
          "name": "",
          "type": "address[]"
        }
      ],
      "stateMutability": "view",
      "type": "function"
    },
    {
      "inputs": [
        {
          "internalType": "uint256",
          "name": "",
          "type": "uint256"
        },
        {
          "internalType": "uint256",
          "name": "",
          "type": "uint256"
        }
      ],
      "name": "hasVoted",
      "outputs": [
        {
          "internalType": "bool",
          "name": "",
          "type": "bool"
        }
      ],
      "stateMutability": "view",
      "type": "function"
    },
    {
      "inputs": [
        {
          "internalType": "address",
          "name": "rwa",
          "type": "address"
        }
      ],
      "name": "hotfixAddRewardToken",
      "outputs": [],
      "stateMutability": "nonpayable",
      "type": "function"
    },
    {
      "inputs": [
        {
          "internalType": "address",
          "name": "rwa",
          "type": "address"
        }
      ],
      "name": "hotfixAddToBuyList",
      "outputs": [],
      "stateMutability": "nonpayable",
      "type": "function"
    },
    {
      "inputs": [
        {
          "internalType": "address",
          "name": "",
          "type": "address"
        }
      ],
      "name": "inBuyList",
      "outputs": [
        {
          "internalType": "bool",
          "name": "",
          "type": "bool"
        }
      ],
      "stateMutability": "view",
      "type": "function"
    },
    {
      "inputs": [
        {
          "internalType": "address",
          "name": "_nftContract",
          "type": "address"
        }
      ],
      "name": "initialize",
      "outputs": [],
      "stateMutability": "nonpayable",
      "type": "function"
    },
    {
      "inputs": [
        {
          "internalType": "address",
          "name": "",
          "type": "address"
        }
      ],
      "name": "isRewardToken",
      "outputs": [
        {
          "internalType": "bool",
          "name": "",
          "type": "bool"
        }
      ],
      "stateMutability": "view",
      "type": "function"
    },
    {
      "inputs": [],
      "name": "nftContract",
      "outputs": [
        {
          "internalType": "contract IPenguinOnchain",
          "name": "",
          "type": "address"
        }
      ],
      "stateMutability": "view",
      "type": "function"
    },
    {
      "inputs": [],
      "name": "owner",
      "outputs": [
        {
          "internalType": "address",
          "name": "",
          "type": "address"
        }
      ],
      "stateMutability": "view",
      "type": "function"
    },
    {
      "inputs": [
        {
          "internalType": "address",
          "name": "",
          "type": "address"
        },
        {
          "internalType": "uint256",
          "name": "",
          "type": "uint256"
        }
      ],
      "name": "pendingDividends",
      "outputs": [
        {
          "internalType": "uint256",
          "name": "",
          "type": "uint256"
        }
      ],
      "stateMutability": "view",
      "type": "function"
    },
    {
      "inputs": [],
      "name": "proposalCount",
      "outputs": [
        {
          "internalType": "uint256",
          "name": "",
          "type": "uint256"
        }
      ],
      "stateMutability": "view",
      "type": "function"
    },
    {
      "inputs": [
        {
          "internalType": "uint256",
          "name": "",
          "type": "uint256"
        }
      ],
      "name": "proposals",
      "outputs": [
        {
          "internalType": "address",
          "name": "rwaToken",
          "type": "address"
        },
        {
          "internalType": "bool",
          "name": "isAdd",
          "type": "bool"
        },
        {
          "internalType": "uint256",
          "name": "yesVotes",
          "type": "uint256"
        },
        {
          "internalType": "uint256",
          "name": "noVotes",
          "type": "uint256"
        },
        {
          "internalType": "uint256",
          "name": "endTime",
          "type": "uint256"
        },
        {
          "internalType": "bool",
          "name": "executed",
          "type": "bool"
        }
      ],
      "stateMutability": "view",
      "type": "function"
    },
    {
      "inputs": [
        {
          "internalType": "address",
          "name": "rwaToken",
          "type": "address"
        },
        {
          "internalType": "bool",
          "name": "isAdd",
          "type": "bool"
        },
        {
          "internalType": "uint256",
          "name": "tokenId",
          "type": "uint256"
        }
      ],
      "name": "propose",
      "outputs": [],
      "stateMutability": "nonpayable",
      "type": "function"
    },
    {
      "inputs": [],
      "name": "proxiableUUID",
      "outputs": [
        {
          "internalType": "bytes32",
          "name": "",
          "type": "bytes32"
        }
      ],
      "stateMutability": "view",
      "type": "function"
    },
    {
      "inputs": [],
      "name": "renounceOwnership",
      "outputs": [],
      "stateMutability": "nonpayable",
      "type": "function"
    },
    {
      "inputs": [
        {
          "internalType": "address",
          "name": "",
          "type": "address"
        },
        {
          "internalType": "uint256",
          "name": "",
          "type": "uint256"
        }
      ],
      "name": "rewardDebt",
      "outputs": [
        {
          "internalType": "uint256",
          "name": "",
          "type": "uint256"
        }
      ],
      "stateMutability": "view",
      "type": "function"
    },
    {
      "inputs": [
        {
          "internalType": "uint256",
          "name": "",
          "type": "uint256"
        }
      ],
      "name": "rewardTokens",
      "outputs": [
        {
          "internalType": "address",
          "name": "",
          "type": "address"
        }
      ],
      "stateMutability": "view",
      "type": "function"
    },
    {
      "inputs": [
        {
          "internalType": "address",
          "name": "_nftContract",
          "type": "address"
        }
      ],
      "name": "setNftContract",
      "outputs": [],
      "stateMutability": "nonpayable",
      "type": "function"
    },
    {
      "inputs": [
        {
          "internalType": "uint256",
          "name": "tokenId",
          "type": "uint256"
        }
      ],
      "name": "syncRewardDebt",
      "outputs": [],
      "stateMutability": "nonpayable",
      "type": "function"
    },
    {
      "inputs": [
        {
          "internalType": "address",
          "name": "",
          "type": "address"
        }
      ],
      "name": "totalDividendsPerPower",
      "outputs": [
        {
          "internalType": "uint256",
          "name": "",
          "type": "uint256"
        }
      ],
      "stateMutability": "view",
      "type": "function"
    },
    {
      "inputs": [
        {
          "internalType": "address",
          "name": "newOwner",
          "type": "address"
        }
      ],
      "name": "transferOwnership",
      "outputs": [],
      "stateMutability": "nonpayable",
      "type": "function"
    },
    {
      "inputs": [
        {
          "internalType": "uint256",
          "name": "tokenId",
          "type": "uint256"
        }
      ],
      "name": "updateRewardDebt",
      "outputs": [],
      "stateMutability": "nonpayable",
      "type": "function"
    },
    {
      "inputs": [
        {
          "internalType": "address",
          "name": "newImplementation",
          "type": "address"
        }
      ],
      "name": "upgradeTo",
      "outputs": [],
      "stateMutability": "nonpayable",
      "type": "function"
    },
    {
      "inputs": [
        {
          "internalType": "address",
          "name": "newImplementation",
          "type": "address"
        },
        {
          "internalType": "bytes",
          "name": "data",
          "type": "bytes"
        }
      ],
      "name": "upgradeToAndCall",
      "outputs": [],
      "stateMutability": "payable",
      "type": "function"
    },
    {
      "inputs": [
        {
          "internalType": "uint256",
          "name": "proposalId",
          "type": "uint256"
        },
        {
          "internalType": "uint256",
          "name": "tokenId",
          "type": "uint256"
        },
        {
          "internalType": "bool",
          "name": "support",
          "type": "bool"
        }
      ],
      "name": "vote",
      "outputs": [],
      "stateMutability": "nonpayable",
      "type": "function"
    }
  ],
  "bytecode": "0x60a080604052346100da57306080525f549060ff8260081c16610088575060ff8082161061004e575b6040516125fd90816100df8239608051818181610fd8015281816110fd01526118f60152f35b60ff90811916175f557f7f26b83ff96e1f2b6a682f133852f6798a09c465da95921460cefb3847402498602060405160ff8152a15f610028565b62461bcd60e51b815260206004820152602760248201527f496e697469616c697a61626c653a20636f6e747261637420697320696e697469604482015266616c697a696e6760c81b6064820152608490fd5b5f80fdfe6080806040526004361015610012575f80fd5b5f3560e01c908163013cf08b14611ecf575080630d61b51914611bd45780633659cfe6146118d85780633f71573e146117e657806343e9585f146115dc5780634443b69d146113e05780634f1ef2861461108857806352d1902d14610fc657806352f5ad7714610f835780635c3bdd8814610f3e57806364390ff114610f035780636a18ff7a14610d0c578063715018a614610cb1578063745890f614610c345780637bb7bed114610c0a57806388df1e9b14610bc35780638da5cb5b14610b9b578063a566f3ac14610b34578063b127616914610936578063b5fd73f8146108f8578063bd4ba9c0146106e4578063c244f68c146106a6578063c4d66de814610531578063c4f59f9b146104a2578063cc738ac314610469578063d2b91bd11461043a578063d56d229d14610412578063da35c664146103f5578063e18e6306146103b3578063e2d076c91461036e578063ec3d3c311461020f5763f2fde38b1461017c575f80fd5b3461020b57602036600319011261020b57610195611f3c565b61019d6123b5565b6001600160a01b038116156101b7576101b59061240d565b005b60405162461bcd60e51b815260206004820152602660248201527f4f776e61626c653a206e6577206f776e657220697320746865207a65726f206160448201526564647265737360d01b6064820152608490fd5b5f80fd5b3461020b57602036600319011261020b5760fb54600435906024906020906001600160a01b0316610241338214612158565b60405192838092636f08bc8760e11b82528660048301525afa908115610363575f91610331575b505f5b610103548110156101b55780610282600192611ffe565b838060a01b0391549060031b1c16805f52610101602052670de0b6b3a76400006102de60405f2054826102b582896121ae565b04845f5261010560205260405f20895f5260205260405f20548082116102fd575b5050866121ae565b04905f5261010560205260405f20855f5260205260405f20550161026b565b6103069161203a565b845f5261010660205260405f20895f5260205261032860405f2091825461202d565b905588806102d6565b90506020813d60201161035b575b8161034c60209383611f52565b8101031261020b575182610268565b3d915061033f565b6040513d5f823e3d90fd5b3461020b57604036600319011261020b576001600160a01b0361038f611f3c565b165f5261010560205260405f206024355f52602052602060405f2054604051908152f35b3461020b57602036600319011261020b5760043560ff5481101561020b576103dc602091611fd2565b905460405160039290921b1c6001600160a01b03168152f35b3461020b575f36600319011261020b57602060fd54604051908152f35b3461020b575f36600319011261020b5760fb546040516001600160a01b039091168152602090f35b3461020b57604036600319011261020b576020610461610458611f3c565b602435906122bf565b604051908152f35b3461020b57602036600319011261020b576001600160a01b0361048a611f3c565b165f52610101602052602060405f2054604051908152f35b3461020b575f36600319011261020b57604051806020610103549182815201906101035f527f02c297ab74aad0aede3a1895c857b1f2c71e6a203feb727bec95ac752998cb78905f5b8181106105125761050e8561050281870382611f52565b60405191829182611f90565b0390f35b82546001600160a01b03168452602090930192600192830192016104eb565b3461020b57602036600319011261020b5761054a611f3c565b5f5460ff8160081c161590818092610699575b8015610682575b156106265760ff1981166001175f5581610615575b5061059360ff5f5460081c1661058e81612455565b612455565b61059c3361240d565b5f54916105bb60ff8460081c166105b281612455565b61058e81612455565b600160c95560018060a01b03166001600160601b0360a01b60fb54161760fb556105e157005b61ff0019165f557f7f26b83ff96e1f2b6a682f133852f6798a09c465da95921460cefb3847402498602060405160018152a1005b61ffff1916610101175f5582610579565b60405162461bcd60e51b815260206004820152602e60248201527f496e697469616c697a61626c653a20636f6e747261637420697320616c72656160448201526d191e481a5b9a5d1a585b1a5e995960921b6064820152608490fd5b50303b1580156105645750600160ff821614610564565b50600160ff82161061055d565b3461020b57602036600319011261020b576001600160a01b036106c7611f3c565b165f52610100602052602060ff60405f2054166040519015158152f35b3461020b57604036600319011261020b576106fd611f3c565b6001600160a01b0381165f81815261010060205260409020549091906024359060ff16156108bd5760fb5460405163aed96b5960e01b81529190602090839060049082906001600160a01b03165afa918215610363575f92610889575b50811561084c576040516323b872dd60e01b8152336004820152306024820152604481018290526020816064815f895af180156103635761081f575b50670de0b6b3a7640000810290808204670de0b6b3a7640000149015171561080b5704825f526101016020526107d160405f2091825461202d565b9055815f5261010460205260ff60405f205416156107eb57005b6101b5915f5261010460205260405f20600160ff1982541617905561206e565b634e487b7160e01b5f52601160045260245ffd5b6108409060203d602011610845575b6108388183611f52565b81019061226a565b610796565b503d61082e565b60405162461bcd60e51b81526020600482015260156024820152744e6f20736861726520706f7765722065786973747360581b6044820152606490fd5b9091506020813d6020116108b5575b816108a560209383611f52565b8101031261020b5751908461075a565b3d9150610898565b60405162461bcd60e51b81526020600482015260136024820152724e6f7420616e20617070726f7665642052574160681b6044820152606490fd5b3461020b57602036600319011261020b576001600160a01b03610919611f3c565b165f52610104602052602060ff60405f2054166040519015158152f35b3461020b57606036600319011261020b5761094f611f3c565b6024359081151580920361020b5760fb546040516331a9108f60e11b8152604435600482018190526001600160a01b0390921691602082602481865afa918215610363576020926109b2915f91610b07575b506001600160a01b0316331461222c565b602460405180948193636f08bc8760e11b835260048301525afa8015610363575f90610ad3575b6109e591501515612282565b60fd545f19811461080b57600101918260fd556203f480420180421161080b576040519160c083019383851067ffffffffffffffff861117610abf5760049460405260018060a01b0316835260208301908152604083015f815260608401915f83526080850193845260a08501965f88525f5260fc60205260405f209460018060a01b039051166001600160601b0360a01b86541617855551151584549060ff60a01b9060a01b169060ff60a01b1916178455516001840155516002830155516003820155019051151560ff801983541691161790555f80f35b634e487b7160e01b5f52604160045260245ffd5b506020813d602011610aff575b81610aed60209383611f52565b8101031261020b576109e590516109d9565b3d9150610ae0565b610b279150843d8611610b2d575b610b1f8183611f52565b81019061220d565b876109a1565b503d610b15565b3461020b57602036600319011261020b57610b4d611f3c565b610b556123b5565b6001600160a01b0381165f818152610100602052604090205490919060ff1615610b7b57005b6101b5915f5261010060205260405f20600160ff19825416179055612047565b3461020b575f36600319011261020b576097546040516001600160a01b039091168152602090f35b3461020b57602036600319011261020b57610bdc611f3c565b610be46123b5565b6001600160a01b0381165f818152610104602052604090205490919060ff16156107eb57005b3461020b57602036600319011261020b576004356101035481101561020b576103dc602091611ffe565b3461020b575f36600319011261020b5760405180602060ff5491828152019060ff5f527fe08ec2af2cfc251225e1968fd6ca21e4044f129bffa95bac3503be8bdb30a367905f5b818110610c925761050e8561050281870382611f52565b82546001600160a01b0316845260209093019260019283019201610c7b565b3461020b575f36600319011261020b57610cc96123b5565b609780546001600160a01b031981169091555f906001600160a01b03167f8be0079c531659141344cd1fd0a4f28419497f9722a3daafe3b4186f6b6457e08280a3005b3461020b57606036600319011261020b57602435600435604435801515810361020b5760fb546040516331a9108f60e11b8152600481018590526001600160a01b039091169390602081602481885afa801561036357610d7d915f91610ee457506001600160a01b0316331461222c565b825f5260fe60205260405f20815f5260205260ff60405f205416610eaf57825f5260fc602052600360405f200154421015610e7b57602060249460405195868092636f08bc8760e11b82528560048301525afa938415610363575f94610e47575b50610dea841515612282565b825f5260fe60205260405f20905f5260205260405f20600160ff198254161790555f14610e2e575f5260fc602052610e2a600160405f200191825461202d565b9055005b5f5260fc602052610e2a600260405f200191825461202d565b9093506020813d602011610e73575b81610e6360209383611f52565b8101031261020b57519284610dde565b3d9150610e56565b60405162461bcd60e51b815260206004820152600c60248201526b159bdd1a5b99c8195b99195960a21b6044820152606490fd5b60405162461bcd60e51b815260206004820152600d60248201526c105b1c9958591e481d9bdd1959609a1b6044820152606490fd5b610efd915060203d602011610b2d57610b1f8183611f52565b866109a1565b3461020b57604036600319011261020b576004355f5260fe60205260405f206024355f52602052602060ff60405f2054166040519015158152f35b3461020b57604036600319011261020b576001600160a01b03610f5f611f3c565b165f5261010660205260405f206024355f52602052602060405f2054604051908152f35b3461020b57602036600319011261020b57610f9c611f3c565b610fa46123b5565b60fb80546001600160a01b0319166001600160a01b0392909216919091179055005b3461020b575f36600319011261020b577f00000000000000000000000000000000000000000000000000000000000000006001600160a01b0316300361101d5760206040515f5160206125a85f395f51905f528152f35b60405162461bcd60e51b815260206004820152603860248201527f555550535570677261646561626c653a206d757374206e6f742062652063616c60448201527f6c6564207468726f7567682064656c656761746563616c6c00000000000000006064820152608490fd5b604036600319011261020b5761109c611f3c565b60243567ffffffffffffffff811161020b573660238201121561020b5780600401356110c781611f74565b906110d56040519283611f52565b8082526020820192366024838301011161020b57815f9260246020930186378301015261114f7f00000000000000000000000000000000000000000000000000000000000000006001600160a01b031661113130821415612096565b5f5160206125a85f395f51905f52546001600160a01b0316146120f7565b6111576123b5565b7f4910fdfa16fed3260ed0e7147f7cc6da11a60208b5b9406d12a635614ffd91435460ff161561118c5750506101b5906124b5565b6040516352d1902d60e01b81526001600160a01b03841690602081600481855afa5f91816113ac575b506112165760405162461bcd60e51b815260206004820152602e60248201527f45524331393637557067726164653a206e657720696d706c656d656e7461746960448201526d6f6e206973206e6f74205555505360901b6064820152608490fd5b5f5160206125a85f395f51905f520361135557611232846124b5565b604051907fbc7cd75a20ee27fd9adebab32041f755214dbc6bffa90cc0225b39da2e5c2d3b5f80a281511580159061134d575b61126b57005b833b156112fc57506101b5925f92839251915af43d156112f5573d61128f81611f74565b9061129d6040519283611f52565b81523d5f602083013e5b604051916112b6606084611f52565b602783527f416464726573733a206c6f772d6c6576656c2064656c65676174652063616c6c6020840152660819985a5b195960ca1b604084015261254c565b60606112a7565b62461bcd60e51b815260206004820152602660248201527f416464726573733a2064656c65676174652063616c6c20746f206e6f6e2d636f6044820152651b9d1c9858dd60d21b6064820152608490fd5b506001611265565b60405162461bcd60e51b815260206004820152602960248201527f45524331393637557067726164653a20756e737570706f727465642070726f786044820152681a58589b195555525160ba1b6064820152608490fd5b9091506020813d6020116113d8575b816113c860209383611f52565b8101031261020b575190866111b5565b3d91506113bb565b3461020b57604036600319011261020b576004356024356001600160a01b038116810361020b57611416600260c95414156121c1565b600260c95560fb546001600160a01b0316913383900361159857602060249360405194858092636f08bc8760e11b82528560048301525afa928315610363575f93611564575b505f5b6101035481101561155d5761147381611ffe565b905460039190911b1c6001600160a01b03169061149083836122bf565b806114a1575b50600191500161145f565b61152c836020925f95865261010684526040862087875284528560408120558186526101018452670de0b6b3a76400006114df60408820548b6121ae565b838852610105865260408089208a8a528752808920929091049091555163a9059cbb60e01b81526001600160a01b0389166004820152602481019190915294859283919082906044820190565b03925af19182156103635760019215611496576115569060203d8111610845576108388183611f52565b5085611496565b600160c955005b9092506020813d602011611590575b8161158060209383611f52565b8101031261020b5751918361145c565b3d9150611573565b606460405162461bcd60e51b815260206004820152602060248201527f4f6e6c79204e465420636f6e74726163742063616e206175746f2d73776565706044820152fd5b3461020b57604036600319011261020b576115f5611f3c565b602435611607600260c95414156121c1565b600260c95560fb546040516331a9108f60e11b8152600481018390526001600160a01b039091169190602081602481865afa80156103635761165a915f916117c757506001600160a01b0316331461222c565b61166481846122bf565b92831561178e57602060249360405194858092636f08bc8760e11b82528660048301525afa928315610363575f93611758575b50915f9361172492670de0b6b3a76400006116e160209660018060a01b031694858952610106885260408920848a52885288604081205585895261010188526040892054906121ae565b8488526101058752604080892093895292875282882091900490555163a9059cbb60e01b8152336004820152602481019190915293849283919082906044820190565b03925af180156103635761173957600160c955005b6117519060203d602011610845576108388183611f52565b508061155d565b9192506020823d602011611786575b8161177460209383611f52565b8101031261020b57905191905f611697565b3d9150611767565b60405162461bcd60e51b8152602060048201526011602482015270139bc8191a5d9a59195b991cc81bddd959607a1b6044820152606490fd5b6117e0915060203d602011610b2d57610b1f8183611f52565b856109a1565b3461020b57602036600319011261020b5760fb54600435906024906020906001600160a01b0316611818338214612158565b60405192838092636f08bc8760e11b82528660048301525afa908115610363575f916118a6575b505f5b610103548110156101b55780611859600192611ffe565b838060a01b0391549060031b1c16805f52610101602052670de0b6b3a764000061188760405f2054866121ae565b04905f5261010560205260405f20855f5260205260405f205501611842565b90506020813d6020116118d0575b816118c160209383611f52565b8101031261020b57518261183f565b3d91506118b4565b3461020b57602036600319011261020b576118f1611f3c565b61192a7f00000000000000000000000000000000000000000000000000000000000000006001600160a01b031661113130821415612096565b6119326123b5565b6020906040516119428382611f52565b5f815282810190601f1984013683377f4910fdfa16fed3260ed0e7147f7cc6da11a60208b5b9406d12a635614ffd91435460ff16156119875750506101b591506124b5565b6040516352d1902d60e01b81526001600160a01b038416908581600481855afa5f9181611ba5575b50611a105760405162461bcd60e51b815260048101879052602e60248201527f45524331393637557067726164653a206e657720696d706c656d656e7461746960448201526d6f6e206973206e6f74205555505360901b6064820152608490fd5b5f5160206125a85f395f51905f5203611b4e57611a2c846124b5565b604051907fbc7cd75a20ee27fd9adebab32041f755214dbc6bffa90cc0225b39da2e5c2d3b5f80a2815115801590611b47575b611a6557005b833b15611af657506101b593925f92839251915af43d15611aee573d90611a8b82611f74565b91611a996040519384611f52565b82523d5f8484013e5b7f416464726573733a206c6f772d6c6576656c2064656c65676174652063616c6c60405193611ad2606086611f52565b60278552840152660819985a5b195960ca1b604084015261254c565b606090611aa2565b62461bcd60e51b815260048101859052602660248201527f416464726573733a2064656c65676174652063616c6c20746f206e6f6e2d636f6044820152651b9d1c9858dd60d21b6064820152608490fd5b505f611a5f565b60405162461bcd60e51b815260048101869052602960248201527f45524331393637557067726164653a20756e737570706f727465642070726f786044820152681a58589b195555525160ba1b6064820152608490fd5b9091508681813d8311611bcd575b611bbd8183611f52565b8101031261020b575190876119af565b503d611bb3565b3461020b57602036600319011261020b576004355f5260fc60205260405f206004602060018060a01b0360fb54166040519283809263aed96b5960e01b82525afa908115610363575f91611e9d575b5060011c6001810180911161080b576003820154421090811591611e8e575b5015611e375760048101805460ff8116611dff5760019060ff19161790556001810154600282015410611c7157005b805460ff8160a01c16808091611ddc575b15611cbb57505080546001600160a01b039081165f90815261010060205260409020805460ff1916600117905590546101b59116612047565b1580611dba575b611cc857005b6001600160a01b03165f90815261010060205260408120805460ff191690555b60ff54808210156101b557611cfc82611fd2565b9054845460039290921b1c6001600160a01b03908116911614611d225750600101611ce8565b5f1981019250821161080b57611d55611d3d611d7993611fd2565b905460039190911b1c6001600160a01b031691611fd2565b81546001600160a01b0393841660039290921b91821b9390911b1916919091179055565b60ff548015611da6575f1901611d8e81611fd2565b81549060018060a01b039060031b1b1916905560ff55005b634e487b7160e01b5f52603160045260245ffd5b506001600160a01b0381165f908152610100602052604090205460ff16611cc2565b506001600160a01b0382165f908152610100602052604090205460ff1615611c82565b60405162461bcd60e51b815260206004820152601060248201526f105b1c9958591e48195e1958dd5d195960821b6044820152606490fd5b60405162461bcd60e51b815260206004820152602960248201527f566f74696e67206e6f7420656e64656420616e64206e6f206162736f6c757465604482015268206d616a6f7269747960b81b6064820152608490fd5b90506001820154101582611c42565b90506020813d602011611ec7575b81611eb860209383611f52565b8101031261020b575182611c23565b3d9150611eab565b3461020b57602036600319011261020b5760c0906004355f5260fc60205260405f20805490600181015460028201549060ff8060046003860154950154169460018060a01b038116875260a01c1615156020860152604085015260608401526080830152151560a0820152f35b600435906001600160a01b038216820361020b57565b90601f8019910116810190811067ffffffffffffffff821117610abf57604052565b67ffffffffffffffff8111610abf57601f01601f191660200190565b60206040818301928281528451809452019201905f5b818110611fb35750505090565b82516001600160a01b0316845260209384019390920191600101611fa6565b60ff54811015611fea5760ff5f5260205f2001905f90565b634e487b7160e01b5f52603260045260245ffd5b61010354811015611fea576101035f5260205f2001905f90565b8054821015611fea575f5260205f2001905f90565b9190820180921161080b57565b9190820391821161080b57565b60ff5490600160401b821015610abf57611d5582600161206c940160ff5560ff612018565b565b6101035490600160401b821015610abf57611d5582600161206c940161010355610103612018565b1561209d57565b60405162461bcd60e51b815260206004820152602c60248201527f46756e6374696f6e206d7573742062652063616c6c6564207468726f7567682060448201526b19195b1959d85d1958d85b1b60a21b6064820152608490fd5b156120fe57565b60405162461bcd60e51b815260206004820152602c60248201527f46756e6374696f6e206d7573742062652063616c6c6564207468726f7567682060448201526b6163746976652070726f787960a01b6064820152608490fd5b1561215f57565b60405162461bcd60e51b815260206004820152602160248201527f4f6e6c79204e465420636f6e74726163742063616e20757064617465206465626044820152601d60fa1b6064820152608490fd5b8181029291811591840414171561080b57565b156121c857565b60405162461bcd60e51b815260206004820152601f60248201527f5265656e7472616e637947756172643a207265656e7472616e742063616c6c006044820152606490fd5b9081602091031261020b57516001600160a01b038116810361020b5790565b1561223357565b60405162461bcd60e51b815260206004820152600f60248201526e2737ba103a37b5b2b71037bbb732b960891b6044820152606490fd5b9081602091031261020b5751801515810361020b5790565b1561228957565b60405162461bcd60e51b815260206004820152600e60248201526d27379039b430b932903837bbb2b960911b6044820152606490fd5b60fb54604051636f08bc8760e11b8152600481018490529190602090839060249082906001600160a01b03165afa918215610363575f9261237f575b506001600160a01b03165f81815261010160205260409020549091670de0b6b3a764000091612329916121ae565b0491815f5261010560205260405f20815f5260205260405f2054915f5261010660205260405f20905f5260205260405f20549181811161236857505090565b61237c92916123769161203a565b9061202d565b90565b9091506020813d6020116123ad575b8161239b60209383611f52565b8101031261020b5751906123296122fb565b3d915061238e565b6097546001600160a01b031633036123c957565b606460405162461bcd60e51b815260206004820152602060248201527f4f776e61626c653a2063616c6c6572206973206e6f7420746865206f776e65726044820152fd5b609780546001600160a01b039283166001600160a01b0319821681179092559091167f8be0079c531659141344cd1fd0a4f28419497f9722a3daafe3b4186f6b6457e05f80a3565b1561245c57565b60405162461bcd60e51b815260206004820152602b60248201527f496e697469616c697a61626c653a20636f6e7472616374206973206e6f74206960448201526a6e697469616c697a696e6760a81b6064820152608490fd5b803b156124f15760018060a01b03166001600160601b0360a01b5f5160206125a85f395f51905f525416175f5160206125a85f395f51905f5255565b60405162461bcd60e51b815260206004820152602d60248201527f455243313936373a206e657720696d706c656d656e746174696f6e206973206e60448201526c1bdd08184818dbdb9d1c9858dd609a1b6064820152608490fd5b90919015612558575090565b8151156125685750805190602001fd5b604460209160405192839162461bcd60e51b83528160048401528051918291826024860152018484015e5f828201840152601f01601f19168101030190fdfe360894a13ba1a3210667c828492db98dca3e2076cc3735a920a3ca505d382bbca26469706673582212204d347ad475055f63d10859bbc6fbb9f5db0ea4b638a9b4a62c2efc63c2eff72164736f6c634300081b0033",
  "linkReferences": {},
  "deployedLinkReferences": {}
}