{
  "_format": "hh-sol-artifact-1",
  "contractName": "PenguinOnchainTestnet",
  "sourceName": "contracts/ERC721/PenguinOnchainTestnet.sol",
  "abi": [
    {
      "inputs": [],
      "stateMutability": "nonpayable",
      "type": "constructor"
    },
    {
      "inputs": [],
      "name": "AlreadyListed",
      "type": "error"
    },
    {
      "inputs": [],
      "name": "ApprovalCallerNotOwnerNorApproved",
      "type": "error"
    },
    {
      "inputs": [],
      "name": "ApprovalQueryForNonexistentToken",
      "type": "error"
    },
    {
      "inputs": [],
      "name": "BalanceQueryForZeroAddress",
      "type": "error"
    },
    {
      "inputs": [],
      "name": "InsufficientPayment",
      "type": "error"
    },
    {
      "inputs": [],
      "name": "InvalidBeneficiary",
      "type": "error"
    },
    {
      "inputs": [],
      "name": "InvalidPixelData",
      "type": "error"
    },
    {
      "inputs": [],
      "name": "InvalidQueryRange",
      "type": "error"
    },
    {
      "inputs": [],
      "name": "InvalidRecipient",
      "type": "error"
    },
    {
      "inputs": [],
      "name": "MaxMintPerWalletReached",
      "type": "error"
    },
    {
      "inputs": [],
      "name": "MintERC2309QuantityExceedsLimit",
      "type": "error"
    },
    {
      "inputs": [],
      "name": "MintToZeroAddress",
      "type": "error"
    },
    {
      "inputs": [],
      "name": "MintZeroQuantity",
      "type": "error"
    },
    {
      "inputs": [],
      "name": "NoActiveOffer",
      "type": "error"
    },
    {
      "inputs": [],
      "name": "NoWithdrawableFunds",
      "type": "error"
    },
    {
      "inputs": [],
      "name": "NotAccessoryOwner",
      "type": "error"
    },
    {
      "inputs": [],
      "name": "NotCompatibleWithSpotMints",
      "type": "error"
    },
    {
      "inputs": [],
      "name": "NotForSale",
      "type": "error"
    },
    {
      "inputs": [],
      "name": "NotTokenOwner",
      "type": "error"
    },
    {
      "inputs": [],
      "name": "NotYourOffer",
      "type": "error"
    },
    {
      "inputs": [],
      "name": "OfferTooLow",
      "type": "error"
    },
    {
      "inputs": [],
      "name": "OwnerCannotOffer",
      "type": "error"
    },
    {
      "inputs": [],
      "name": "OwnerQueryForNonexistentToken",
      "type": "error"
    },
    {
      "inputs": [],
      "name": "OwnershipNotInitializedForExtraData",
      "type": "error"
    },
    {
      "inputs": [],
      "name": "PartNotAllowed",
      "type": "error"
    },
    {
      "inputs": [],
      "name": "SequentialMintExceedsLimit",
      "type": "error"
    },
    {
      "inputs": [],
      "name": "SequentialUpToTooSmall",
      "type": "error"
    },
    {
      "inputs": [],
      "name": "SlotFilled",
      "type": "error"
    },
    {
      "inputs": [],
      "name": "SoldOut",
      "type": "error"
    },
    {
      "inputs": [],
      "name": "SpotMintTokenIdTooSmall",
      "type": "error"
    },
    {
      "inputs": [],
      "name": "TokenAlreadyExists",
      "type": "error"
    },
    {
      "inputs": [],
      "name": "TokenDoesNotExist",
      "type": "error"
    },
    {
      "inputs": [],
      "name": "TransferCallerNotOwnerNorApproved",
      "type": "error"
    },
    {
      "inputs": [],
      "name": "TransferFailed",
      "type": "error"
    },
    {
      "inputs": [],
      "name": "TransferFromIncorrectOwner",
      "type": "error"
    },
    {
      "inputs": [],
      "name": "TransferToNonERC721ReceiverImplementer",
      "type": "error"
    },
    {
      "inputs": [],
      "name": "TransferToZeroAddress",
      "type": "error"
    },
    {
      "inputs": [],
      "name": "URIQueryForNonexistentToken",
      "type": "error"
    },
    {
      "inputs": [],
      "name": "ZeroAddress",
      "type": "error"
    },
    {
      "inputs": [],
      "name": "ZeroMintAmount",
      "type": "error"
    },
    {
      "inputs": [],
      "name": "ZeroPrice",
      "type": "error"
    },
    {
      "anonymous": false,
      "inputs": [
        {
          "indexed": true,
          "internalType": "uint256",
          "name": "tokenId",
          "type": "uint256"
        },
        {
          "indexed": false,
          "internalType": "string",
          "name": "trait_type",
          "type": "string"
        },
        {
          "indexed": false,
          "internalType": "uint256",
          "name": "accessoryId",
          "type": "uint256"
        }
      ],
      "name": "AccessoryAdded",
      "type": "event"
    },
    {
      "anonymous": false,
      "inputs": [
        {
          "indexed": true,
          "internalType": "uint256",
          "name": "accessoryId",
          "type": "uint256"
        },
        {
          "indexed": true,
          "internalType": "uint256",
          "name": "fromTokenId",
          "type": "uint256"
        }
      ],
      "name": "AccessoryDeleted",
      "type": "event"
    },
    {
      "anonymous": false,
      "inputs": [
        {
          "indexed": true,
          "internalType": "uint256",
          "name": "accessoryId",
          "type": "uint256"
        },
        {
          "indexed": false,
          "internalType": "uint256",
          "name": "price",
          "type": "uint256"
        }
      ],
      "name": "AccessoryListed",
      "type": "event"
    },
    {
      "anonymous": false,
      "inputs": [
        {
          "indexed": true,
          "internalType": "uint256",
          "name": "accessoryId",
          "type": "uint256"
        },
        {
          "indexed": true,
          "internalType": "uint256",
          "name": "fromTokenId",
          "type": "uint256"
        },
        {
          "indexed": true,
          "internalType": "uint256",
          "name": "toTokenId",
          "type": "uint256"
        },
        {
          "indexed": false,
          "internalType": "address",
          "name": "buyer",
          "type": "address"
        },
        {
          "indexed": false,
          "internalType": "uint256",
          "name": "price",
          "type": "uint256"
        }
      ],
      "name": "AccessoryOfferCancelled",
      "type": "event"
    },
    {
      "anonymous": false,
      "inputs": [
        {
          "indexed": true,
          "internalType": "uint256",
          "name": "accessoryId",
          "type": "uint256"
        },
        {
          "indexed": true,
          "internalType": "uint256",
          "name": "fromTokenId",
          "type": "uint256"
        },
        {
          "indexed": true,
          "internalType": "uint256",
          "name": "toTokenId",
          "type": "uint256"
        },
        {
          "indexed": false,
          "internalType": "address",
          "name": "buyer",
          "type": "address"
        },
        {
          "indexed": false,
          "internalType": "uint256",
          "name": "price",
          "type": "uint256"
        }
      ],
      "name": "AccessoryOfferMade",
      "type": "event"
    },
    {
      "anonymous": false,
      "inputs": [
        {
          "indexed": true,
          "internalType": "uint256",
          "name": "accessoryId",
          "type": "uint256"
        },
        {
          "indexed": false,
          "internalType": "address",
          "name": "accessoryOwner",
          "type": "address"
        }
      ],
      "name": "AccessorySaleCancelled",
      "type": "event"
    },
    {
      "anonymous": false,
      "inputs": [
        {
          "indexed": false,
          "internalType": "string",
          "name": "accessoryType",
          "type": "string"
        },
        {
          "indexed": true,
          "internalType": "uint256",
          "name": "accessoryId",
          "type": "uint256"
        },
        {
          "indexed": true,
          "internalType": "uint256",
          "name": "fromTokenId",
          "type": "uint256"
        },
        {
          "indexed": true,
          "internalType": "uint256",
          "name": "toTokenId",
          "type": "uint256"
        },
        {
          "indexed": false,
          "internalType": "address",
          "name": "seller",
          "type": "address"
        },
        {
          "indexed": false,
          "internalType": "address",
          "name": "buyer",
          "type": "address"
        },
        {
          "indexed": false,
          "internalType": "uint256",
          "name": "price",
          "type": "uint256"
        }
      ],
      "name": "AccessorySold",
      "type": "event"
    },
    {
      "anonymous": false,
      "inputs": [
        {
          "indexed": true,
          "internalType": "address",
          "name": "owner",
          "type": "address"
        },
        {
          "indexed": true,
          "internalType": "address",
          "name": "approved",
          "type": "address"
        },
        {
          "indexed": true,
          "internalType": "uint256",
          "name": "tokenId",
          "type": "uint256"
        }
      ],
      "name": "Approval",
      "type": "event"
    },
    {
      "anonymous": false,
      "inputs": [
        {
          "indexed": true,
          "internalType": "address",
          "name": "owner",
          "type": "address"
        },
        {
          "indexed": true,
          "internalType": "address",
          "name": "operator",
          "type": "address"
        },
        {
          "indexed": false,
          "internalType": "bool",
          "name": "approved",
          "type": "bool"
        }
      ],
      "name": "ApprovalForAll",
      "type": "event"
    },
    {
      "anonymous": false,
      "inputs": [
        {
          "indexed": true,
          "internalType": "uint256",
          "name": "fromTokenId",
          "type": "uint256"
        },
        {
          "indexed": false,
          "internalType": "uint256",
          "name": "toTokenId",
          "type": "uint256"
        },
        {
          "indexed": true,
          "internalType": "address",
          "name": "from",
          "type": "address"
        },
        {
          "indexed": true,
          "internalType": "address",
          "name": "to",
          "type": "address"
        }
      ],
      "name": "ConsecutiveTransfer",
      "type": "event"
    },
    {
      "anonymous": false,
      "inputs": [
        {
          "indexed": false,
          "internalType": "uint256",
          "name": "_tokenId",
          "type": "uint256"
        }
      ],
      "name": "MetadataUpdate",
      "type": "event"
    },
    {
      "anonymous": false,
      "inputs": [
        {
          "indexed": true,
          "internalType": "address",
          "name": "previousOwner",
          "type": "address"
        },
        {
          "indexed": true,
          "internalType": "address",
          "name": "newOwner",
          "type": "address"
        }
      ],
      "name": "OwnershipTransferred",
      "type": "event"
    },
    {
      "anonymous": false,
      "inputs": [
        {
          "indexed": true,
          "internalType": "address",
          "name": "from",
          "type": "address"
        },
        {
          "indexed": true,
          "internalType": "address",
          "name": "to",
          "type": "address"
        },
        {
          "indexed": true,
          "internalType": "uint256",
          "name": "tokenId",
          "type": "uint256"
        }
      ],
      "name": "Transfer",
      "type": "event"
    },
    {
      "inputs": [],
      "name": "BENEFICARY_ADDRESS",
      "outputs": [
        {
          "internalType": "address",
          "name": "",
          "type": "address"
        }
      ],
      "stateMutability": "view",
      "type": "function"
    },
    {
      "inputs": [],
      "name": "MAX_MINT_PER_WALLET",
      "outputs": [
        {
          "internalType": "uint256",
          "name": "",
          "type": "uint256"
        }
      ],
      "stateMutability": "view",
      "type": "function"
    },
    {
      "inputs": [],
      "name": "MAX_SUPPLY",
      "outputs": [
        {
          "internalType": "uint256",
          "name": "",
          "type": "uint256"
        }
      ],
      "stateMutability": "view",
      "type": "function"
    },
    {
      "inputs": [],
      "name": "MINT_PRICE",
      "outputs": [
        {
          "internalType": "uint256",
          "name": "",
          "type": "uint256"
        }
      ],
      "stateMutability": "view",
      "type": "function"
    },
    {
      "inputs": [],
      "name": "ROYALTY_ADDRESS",
      "outputs": [
        {
          "internalType": "address",
          "name": "",
          "type": "address"
        }
      ],
      "stateMutability": "view",
      "type": "function"
    },
    {
      "inputs": [],
      "name": "ROYALTY_PERCENT",
      "outputs": [
        {
          "internalType": "uint256",
          "name": "",
          "type": "uint256"
        }
      ],
      "stateMutability": "view",
      "type": "function"
    },
    {
      "inputs": [
        {
          "internalType": "uint256",
          "name": "",
          "type": "uint256"
        },
        {
          "internalType": "uint256",
          "name": "",
          "type": "uint256"
        }
      ],
      "name": "accessories",
      "outputs": [
        {
          "internalType": "uint256",
          "name": "accessoryId",
          "type": "uint256"
        },
        {
          "internalType": "string",
          "name": "trait_type",
          "type": "string"
        },
        {
          "internalType": "string",
          "name": "trait_name",
          "type": "string"
        },
        {
          "internalType": "string",
          "name": "bytePixel",
          "type": "string"
        },
        {
          "internalType": "uint256",
          "name": "sellingPrice",
          "type": "uint256"
        },
        {
          "internalType": "uint256",
          "name": "lastPrice",
          "type": "uint256"
        },
        {
          "internalType": "address",
          "name": "owner",
          "type": "address"
        },
        {
          "internalType": "bool",
          "name": "forSale",
          "type": "bool"
        }
      ],
      "stateMutability": "view",
      "type": "function"
    },
    {
      "inputs": [
        {
          "internalType": "uint256",
          "name": "",
          "type": "uint256"
        }
      ],
      "name": "accessoriesForSale",
      "outputs": [
        {
          "internalType": "uint256",
          "name": "tokenId",
          "type": "uint256"
        },
        {
          "internalType": "uint256",
          "name": "accessoryId",
          "type": "uint256"
        },
        {
          "components": [
            {
              "internalType": "uint256",
              "name": "accessoryId",
              "type": "uint256"
            },
            {
              "internalType": "string",
              "name": "trait_type",
              "type": "string"
            },
            {
              "internalType": "string",
              "name": "trait_name",
              "type": "string"
            },
            {
              "internalType": "string",
              "name": "bytePixel",
              "type": "string"
            },
            {
              "internalType": "uint256",
              "name": "sellingPrice",
              "type": "uint256"
            },
            {
              "internalType": "uint256",
              "name": "lastPrice",
              "type": "uint256"
            },
            {
              "internalType": "address",
              "name": "owner",
              "type": "address"
            },
            {
              "internalType": "bool",
              "name": "forSale",
              "type": "bool"
            }
          ],
          "internalType": "struct IPenguinOnchain.Accessory",
          "name": "accessory",
          "type": "tuple"
        }
      ],
      "stateMutability": "view",
      "type": "function"
    },
    {
      "inputs": [
        {
          "internalType": "uint256",
          "name": "",
          "type": "uint256"
        },
        {
          "internalType": "uint256",
          "name": "",
          "type": "uint256"
        }
      ],
      "name": "accessoryIds",
      "outputs": [
        {
          "internalType": "uint256",
          "name": "",
          "type": "uint256"
        }
      ],
      "stateMutability": "view",
      "type": "function"
    },
    {
      "inputs": [
        {
          "internalType": "uint256",
          "name": "tokenId",
          "type": "uint256"
        },
        {
          "internalType": "string",
          "name": "trait_type",
          "type": "string"
        },
        {
          "internalType": "string",
          "name": "trait_name",
          "type": "string"
        },
        {
          "internalType": "string",
          "name": "byteCode",
          "type": "string"
        }
      ],
      "name": "addAccessory",
      "outputs": [],
      "stateMutability": "nonpayable",
      "type": "function"
    },
    {
      "inputs": [
        {
          "internalType": "uint256",
          "name": "tokenId",
          "type": "uint256"
        },
        {
          "internalType": "uint256",
          "name": "amount",
          "type": "uint256"
        }
      ],
      "name": "addSharePower",
      "outputs": [],
      "stateMutability": "nonpayable",
      "type": "function"
    },
    {
      "inputs": [
        {
          "internalType": "address",
          "name": "to",
          "type": "address"
        },
        {
          "internalType": "uint256",
          "name": "tokenId",
          "type": "uint256"
        }
      ],
      "name": "approve",
      "outputs": [],
      "stateMutability": "payable",
      "type": "function"
    },
    {
      "inputs": [
        {
          "internalType": "uint256",
          "name": "fromTokenId",
          "type": "uint256"
        },
        {
          "internalType": "uint256",
          "name": "accessoryId",
          "type": "uint256"
        }
      ],
      "name": "approveOffer",
      "outputs": [],
      "stateMutability": "nonpayable",
      "type": "function"
    },
    {
      "inputs": [
        {
          "internalType": "address",
          "name": "owner",
          "type": "address"
        }
      ],
      "name": "balanceOf",
      "outputs": [
        {
          "internalType": "uint256",
          "name": "",
          "type": "uint256"
        }
      ],
      "stateMutability": "view",
      "type": "function"
    },
    {
      "inputs": [
        {
          "internalType": "uint256",
          "name": "accessoryId",
          "type": "uint256"
        },
        {
          "internalType": "uint256",
          "name": "fromTokenId",
          "type": "uint256"
        }
      ],
      "name": "cancelOffer",
      "outputs": [],
      "stateMutability": "nonpayable",
      "type": "function"
    },
    {
      "inputs": [],
      "name": "contractURI",
      "outputs": [
        {
          "internalType": "string",
          "name": "",
          "type": "string"
        }
      ],
      "stateMutability": "view",
      "type": "function"
    },
    {
      "inputs": [
        {
          "internalType": "uint256",
          "name": "tokenId",
          "type": "uint256"
        }
      ],
      "name": "explicitOwnershipOf",
      "outputs": [
        {
          "components": [
            {
              "internalType": "address",
              "name": "addr",
              "type": "address"
            },
            {
              "internalType": "uint64",
              "name": "startTimestamp",
              "type": "uint64"
            },
            {
              "internalType": "bool",
              "name": "burned",
              "type": "bool"
            },
            {
              "internalType": "uint24",
              "name": "extraData",
              "type": "uint24"
            }
          ],
          "internalType": "struct IERC721A.TokenOwnership",
          "name": "ownership",
          "type": "tuple"
        }
      ],
      "stateMutability": "view",
      "type": "function"
    },
    {
      "inputs": [
        {
          "internalType": "uint256[]",
          "name": "tokenIds",
          "type": "uint256[]"
        }
      ],
      "name": "explicitOwnershipsOf",
      "outputs": [
        {
          "components": [
            {
              "internalType": "address",
              "name": "addr",
              "type": "address"
            },
            {
              "internalType": "uint64",
              "name": "startTimestamp",
              "type": "uint64"
            },
            {
              "internalType": "bool",
              "name": "burned",
              "type": "bool"
            },
            {
              "internalType": "uint24",
              "name": "extraData",
              "type": "uint24"
            }
          ],
          "internalType": "struct IERC721A.TokenOwnership[]",
          "name": "",
          "type": "tuple[]"
        }
      ],
      "stateMutability": "view",
      "type": "function"
    },
    {
      "inputs": [],
      "name": "factory",
      "outputs": [
        {
          "internalType": "contract IPengoFactory",
          "name": "",
          "type": "address"
        }
      ],
      "stateMutability": "view",
      "type": "function"
    },
    {
      "inputs": [
        {
          "internalType": "uint256",
          "name": "tokenId",
          "type": "uint256"
        },
        {
          "internalType": "uint256",
          "name": "accessoryId",
          "type": "uint256"
        }
      ],
      "name": "findAccessoryIndex",
      "outputs": [
        {
          "internalType": "uint256",
          "name": "",
          "type": "uint256"
        }
      ],
      "stateMutability": "view",
      "type": "function"
    },
    {
      "inputs": [],
      "name": "getAllAccessoriesForSale",
      "outputs": [
        {
          "components": [
            {
              "internalType": "uint256",
              "name": "tokenId",
              "type": "uint256"
            },
            {
              "internalType": "uint256",
              "name": "accessoryId",
              "type": "uint256"
            },
            {
              "components": [
                {
                  "internalType": "uint256",
                  "name": "accessoryId",
                  "type": "uint256"
                },
                {
                  "internalType": "string",
                  "name": "trait_type",
                  "type": "string"
                },
                {
                  "internalType": "string",
                  "name": "trait_name",
                  "type": "string"
                },
                {
                  "internalType": "string",
                  "name": "bytePixel",
                  "type": "string"
                },
                {
                  "internalType": "uint256",
                  "name": "sellingPrice",
                  "type": "uint256"
                },
                {
                  "internalType": "uint256",
                  "name": "lastPrice",
                  "type": "uint256"
                },
                {
                  "internalType": "address",
                  "name": "owner",
                  "type": "address"
                },
                {
                  "internalType": "bool",
                  "name": "forSale",
                  "type": "bool"
                }
              ],
              "internalType": "struct IPenguinOnchain.Accessory",
              "name": "accessory",
              "type": "tuple"
            }
          ],
          "internalType": "struct IPenguinOnchain.AccessoryForSale[]",
          "name": "",
          "type": "tuple[]"
        }
      ],
      "stateMutability": "view",
      "type": "function"
    },
    {
      "inputs": [
        {
          "internalType": "uint256",
          "name": "tokenId",
          "type": "uint256"
        }
      ],
      "name": "getApproved",
      "outputs": [
        {
          "internalType": "address",
          "name": "",
          "type": "address"
        }
      ],
      "stateMutability": "view",
      "type": "function"
    },
    {
      "inputs": [
        {
          "internalType": "uint256",
          "name": "tokenId",
          "type": "uint256"
        }
      ],
      "name": "getNFTDetails",
      "outputs": [
        {
          "components": [
            {
              "internalType": "uint256",
              "name": "accessoryId",
              "type": "uint256"
            },
            {
              "internalType": "string",
              "name": "trait_type",
              "type": "string"
            },
            {
              "internalType": "string",
              "name": "trait_name",
              "type": "string"
            },
            {
              "internalType": "string",
              "name": "bytePixel",
              "type": "string"
            },
            {
              "internalType": "uint256",
              "name": "sellingPrice",
              "type": "uint256"
            },
            {
              "internalType": "uint256",
              "name": "lastPrice",
              "type": "uint256"
            },
            {
              "internalType": "address",
              "name": "owner",
              "type": "address"
            },
            {
              "internalType": "bool",
              "name": "forSale",
              "type": "bool"
            }
          ],
          "internalType": "struct IPenguinOnchain.Accessory[]",
          "name": "",
          "type": "tuple[]"
        },
        {
          "components": [
            {
              "internalType": "string",
              "name": "category",
              "type": "string"
            },
            {
              "internalType": "string",
              "name": "networth",
              "type": "string"
            }
          ],
          "internalType": "struct IPenguinOnchain.SpecialTrait",
          "name": "",
          "type": "tuple"
        }
      ],
      "stateMutability": "view",
      "type": "function"
    },
    {
      "inputs": [
        {
          "internalType": "uint256",
          "name": "tokenId",
          "type": "uint256"
        }
      ],
      "name": "getNetWorth",
      "outputs": [
        {
          "internalType": "uint256",
          "name": "accessoryValueWei",
          "type": "uint256"
        },
        {
          "internalType": "address[]",
          "name": "rwaAddresses",
          "type": "address[]"
        },
        {
          "internalType": "uint256[]",
          "name": "claimableAmounts",
          "type": "uint256[]"
        }
      ],
      "stateMutability": "view",
      "type": "function"
    },
    {
      "inputs": [
        {
          "internalType": "uint256",
          "name": "tokenId",
          "type": "uint256"
        }
      ],
      "name": "getSeed",
      "outputs": [
        {
          "internalType": "uint256",
          "name": "",
          "type": "uint256"
        }
      ],
      "stateMutability": "view",
      "type": "function"
    },
    {
      "inputs": [
        {
          "internalType": "address",
          "name": "owner",
          "type": "address"
        },
        {
          "internalType": "address",
          "name": "operator",
          "type": "address"
        }
      ],
      "name": "isApprovedForAll",
      "outputs": [
        {
          "internalType": "bool",
          "name": "",
          "type": "bool"
        }
      ],
      "stateMutability": "view",
      "type": "function"
    },
    {
      "inputs": [
        {
          "internalType": "uint256",
          "name": "tokenId",
          "type": "uint256"
        },
        {
          "internalType": "uint256",
          "name": "accessoryId",
          "type": "uint256"
        },
        {
          "internalType": "uint256",
          "name": "price",
          "type": "uint256"
        }
      ],
      "name": "listAccessoryForSale",
      "outputs": [],
      "stateMutability": "nonpayable",
      "type": "function"
    },
    {
      "inputs": [
        {
          "internalType": "uint256",
          "name": "accessoryId",
          "type": "uint256"
        },
        {
          "internalType": "uint256",
          "name": "fromTokenId",
          "type": "uint256"
        },
        {
          "internalType": "uint256",
          "name": "toTokenId",
          "type": "uint256"
        }
      ],
      "name": "makeOffer",
      "outputs": [],
      "stateMutability": "payable",
      "type": "function"
    },
    {
      "inputs": [
        {
          "internalType": "uint256",
          "name": "_mintAmount",
          "type": "uint256"
        }
      ],
      "name": "mintPengo",
      "outputs": [
        {
          "internalType": "uint256[]",
          "name": "",
          "type": "uint256[]"
        }
      ],
      "stateMutability": "payable",
      "type": "function"
    },
    {
      "inputs": [
        {
          "internalType": "address",
          "name": "",
          "type": "address"
        }
      ],
      "name": "mintedCount",
      "outputs": [
        {
          "internalType": "uint256",
          "name": "",
          "type": "uint256"
        }
      ],
      "stateMutability": "view",
      "type": "function"
    },
    {
      "inputs": [],
      "name": "name",
      "outputs": [
        {
          "internalType": "string",
          "name": "",
          "type": "string"
        }
      ],
      "stateMutability": "view",
      "type": "function"
    },
    {
      "inputs": [],
      "name": "nextAccessoryId",
      "outputs": [
        {
          "internalType": "uint256",
          "name": "",
          "type": "uint256"
        }
      ],
      "stateMutability": "view",
      "type": "function"
    },
    {
      "inputs": [
        {
          "internalType": "address",
          "name": "",
          "type": "address"
        }
      ],
      "name": "offerBalances",
      "outputs": [
        {
          "internalType": "uint256",
          "name": "",
          "type": "uint256"
        }
      ],
      "stateMutability": "view",
      "type": "function"
    },
    {
      "inputs": [
        {
          "internalType": "uint256",
          "name": "",
          "type": "uint256"
        },
        {
          "internalType": "uint256",
          "name": "",
          "type": "uint256"
        }
      ],
      "name": "offers",
      "outputs": [
        {
          "internalType": "address",
          "name": "buyer",
          "type": "address"
        },
        {
          "internalType": "uint256",
          "name": "toTokenId",
          "type": "uint256"
        },
        {
          "internalType": "uint256",
          "name": "price",
          "type": "uint256"
        },
        {
          "internalType": "bool",
          "name": "active",
          "type": "bool"
        }
      ],
      "stateMutability": "view",
      "type": "function"
    },
    {
      "inputs": [],
      "name": "owner",
      "outputs": [
        {
          "internalType": "address",
          "name": "",
          "type": "address"
        }
      ],
      "stateMutability": "view",
      "type": "function"
    },
    {
      "inputs": [
        {
          "internalType": "uint256",
          "name": "tokenId",
          "type": "uint256"
        }
      ],
      "name": "ownerOf",
      "outputs": [
        {
          "internalType": "address",
          "name": "",
          "type": "address"
        }
      ],
      "stateMutability": "view",
      "type": "function"
    },
    {
      "inputs": [],
      "name": "pengoToken",
      "outputs": [
        {
          "internalType": "address",
          "name": "",
          "type": "address"
        }
      ],
      "stateMutability": "view",
      "type": "function"
    },
    {
      "inputs": [
        {
          "internalType": "uint256",
          "name": "accessoryId",
          "type": "uint256"
        },
        {
          "internalType": "uint256",
          "name": "fromTokenId",
          "type": "uint256"
        },
        {
          "internalType": "uint256",
          "name": "toTokenId",
          "type": "uint256"
        }
      ],
      "name": "purchaseAccessory",
      "outputs": [],
      "stateMutability": "payable",
      "type": "function"
    },
    {
      "inputs": [
        {
          "internalType": "uint256",
          "name": "tokenId",
          "type": "uint256"
        },
        {
          "internalType": "uint256",
          "name": "accessoryId",
          "type": "uint256"
        }
      ],
      "name": "removeAccesory",
      "outputs": [],
      "stateMutability": "nonpayable",
      "type": "function"
    },
    {
      "inputs": [],
      "name": "renounceOwnership",
      "outputs": [],
      "stateMutability": "nonpayable",
      "type": "function"
    },
    {
      "inputs": [
        {
          "internalType": "address",
          "name": "from",
          "type": "address"
        },
        {
          "internalType": "address",
          "name": "to",
          "type": "address"
        },
        {
          "internalType": "uint256",
          "name": "tokenId",
          "type": "uint256"
        }
      ],
      "name": "safeTransferFrom",
      "outputs": [],
      "stateMutability": "payable",
      "type": "function"
    },
    {
      "inputs": [
        {
          "internalType": "address",
          "name": "from",
          "type": "address"
        },
        {
          "internalType": "address",
          "name": "to",
          "type": "address"
        },
        {
          "internalType": "uint256",
          "name": "tokenId",
          "type": "uint256"
        },
        {
          "internalType": "bytes",
          "name": "_data",
          "type": "bytes"
        }
      ],
      "name": "safeTransferFrom",
      "outputs": [],
      "stateMutability": "payable",
      "type": "function"
    },
    {
      "inputs": [
        {
          "internalType": "address",
          "name": "operator",
          "type": "address"
        },
        {
          "internalType": "bool",
          "name": "approved",
          "type": "bool"
        }
      ],
      "name": "setApprovalForAll",
      "outputs": [],
      "stateMutability": "nonpayable",
      "type": "function"
    },
    {
      "inputs": [
        {
          "internalType": "address",
          "name": "_beneficiaryAddress",
          "type": "address"
        }
      ],
      "name": "setBeneficiaryAddress",
      "outputs": [],
      "stateMutability": "nonpayable",
      "type": "function"
    },
    {
      "inputs": [
        {
          "internalType": "contract IPengoFactory",
          "name": "_factoryAddress",
          "type": "address"
        }
      ],
      "name": "setFactory",
      "outputs": [],
      "stateMutability": "nonpayable",
      "type": "function"
    },
    {
      "inputs": [
        {
          "internalType": "address",
          "name": "_pengoToken",
          "type": "address"
        }
      ],
      "name": "setPengoToken",
      "outputs": [],
      "stateMutability": "nonpayable",
      "type": "function"
    },
    {
      "inputs": [
        {
          "internalType": "address",
          "name": "_royaltyAddress",
          "type": "address"
        }
      ],
      "name": "setRoyaltyAddress",
      "outputs": [],
      "stateMutability": "nonpayable",
      "type": "function"
    },
    {
      "inputs": [
        {
          "internalType": "address",
          "name": "_strategy",
          "type": "address"
        }
      ],
      "name": "setStrategyContract",
      "outputs": [],
      "stateMutability": "nonpayable",
      "type": "function"
    },
    {
      "inputs": [
        {
          "internalType": "uint256",
          "name": "",
          "type": "uint256"
        }
      ],
      "name": "sharePower",
      "outputs": [
        {
          "internalType": "uint256",
          "name": "",
          "type": "uint256"
        }
      ],
      "stateMutability": "view",
      "type": "function"
    },
    {
      "inputs": [
        {
          "internalType": "uint256",
          "name": "",
          "type": "uint256"
        }
      ],
      "name": "specialTraits",
      "outputs": [
        {
          "internalType": "string",
          "name": "category",
          "type": "string"
        },
        {
          "internalType": "string",
          "name": "networth",
          "type": "string"
        }
      ],
      "stateMutability": "view",
      "type": "function"
    },
    {
      "inputs": [],
      "name": "strategyContract",
      "outputs": [
        {
          "internalType": "contract IPengoStrategy",
          "name": "",
          "type": "address"
        }
      ],
      "stateMutability": "view",
      "type": "function"
    },
    {
      "inputs": [
        {
          "internalType": "bytes4",
          "name": "interfaceId",
          "type": "bytes4"
        }
      ],
      "name": "supportsInterface",
      "outputs": [
        {
          "internalType": "bool",
          "name": "",
          "type": "bool"
        }
      ],
      "stateMutability": "view",
      "type": "function"
    },
    {
      "inputs": [],
      "name": "symbol",
      "outputs": [
        {
          "internalType": "string",
          "name": "",
          "type": "string"
        }
      ],
      "stateMutability": "view",
      "type": "function"
    },
    {
      "inputs": [
        {
          "internalType": "uint256",
          "name": "tokenId",
          "type": "uint256"
        }
      ],
      "name": "tokenURI",
      "outputs": [
        {
          "internalType": "string",
          "name": "",
          "type": "string"
        }
      ],
      "stateMutability": "view",
      "type": "function"
    },
    {
      "inputs": [
        {
          "internalType": "address",
          "name": "owner",
          "type": "address"
        }
      ],
      "name": "tokensOfOwner",
      "outputs": [
        {
          "internalType": "uint256[]",
          "name": "",
          "type": "uint256[]"
        }
      ],
      "stateMutability": "view",
      "type": "function"
    },
    {
      "inputs": [
        {
          "internalType": "address",
          "name": "owner",
          "type": "address"
        },
        {
          "internalType": "uint256",
          "name": "start",
          "type": "uint256"
        },
        {
          "internalType": "uint256",
          "name": "stop",
          "type": "uint256"
        }
      ],
      "name": "tokensOfOwnerIn",
      "outputs": [
        {
          "internalType": "uint256[]",
          "name": "",
          "type": "uint256[]"
        }
      ],
      "stateMutability": "view",
      "type": "function"
    },
    {
      "inputs": [],
      "name": "totalOfferBalance",
      "outputs": [
        {
          "internalType": "uint256",
          "name": "",
          "type": "uint256"
        }
      ],
      "stateMutability": "view",
      "type": "function"
    },
    {
      "inputs": [],
      "name": "totalSharePower",
      "outputs": [
        {
          "internalType": "uint256",
          "name": "",
          "type": "uint256"
        }
      ],
      "stateMutability": "view",
      "type": "function"
    },
    {
      "inputs": [],
      "name": "totalSupply",
      "outputs": [
        {
          "internalType": "uint256",
          "name": "result",
          "type": "uint256"
        }
      ],
      "stateMutability": "view",
      "type": "function"
    },
    {
      "inputs": [
        {
          "internalType": "address",
          "name": "from",
          "type": "address"
        },
        {
          "internalType": "address",
          "name": "to",
          "type": "address"
        },
        {
          "internalType": "uint256",
          "name": "tokenId",
          "type": "uint256"
        }
      ],
      "name": "transferFrom",
      "outputs": [],
      "stateMutability": "payable",
      "type": "function"
    },
    {
      "inputs": [
        {
          "internalType": "address",
          "name": "newOwner",
          "type": "address"
        }
      ],
      "name": "transferOwnership",
      "outputs": [],
      "stateMutability": "nonpayable",
      "type": "function"
    },
    {
      "inputs": [],
      "name": "withdraw",
      "outputs": [],
      "stateMutability": "nonpayable",
      "type": "function"
    }
  ],
  "bytecode": "0x608060405234610196576100116101ae565b7f50656e676f20546573746e657420536e617073686f6f74000000000000000000602082015261003f6101d1565b6450656e676f60d81b60208201528151916001600160401b038311610191576100728361006d6002546101f4565b61022c565b602090601f841160011461010b5792806100a5926100ad955f92610100575b50508160011b915f199060031b1c19161790565b6002556102cb565b5f80556100b9336103a4565b6100c36001600a55565b6100cd6001601055565b600c80546001600160a01b03191633179055600d80546001600160a01b031916331790556040516150b090816103ed8239f35b015190505f80610091565b60025f52601f19841691907f405787fa12a823e0f2b7631cc41b3ba8828b3321ca811111fa75cd3aa3bb5ace925f5b81811061017957509160019391866100ad979410610161575b505050811b016002556102cb565b01515f1960f88460031b161c191690555f8080610153565b9293602060018192878601518155019501930161013a565b61019a565b5f80fd5b634e487b7160e01b5f52604160045260245ffd5b60408051919082016001600160401b038111838210176101915760405260178252565b60408051919082016001600160401b038111838210176101915760405260058252565b90600182811c92168015610222575b602083101461020e57565b634e487b7160e01b5f52602260045260245ffd5b91607f1691610203565b601f8111610238575050565b60025f5260205f20906020601f840160051c83019310610272575b601f0160051c01905b818110610267575050565b5f815560010161025c565b9091508190610253565b601f821161028957505050565b5f5260205f20906020601f840160051c830193106102c1575b601f0160051c01905b8181106102b6575050565b5f81556001016102ab565b90915081906102a2565b80519091906001600160401b038111610191576102f4816102ed6003546101f4565b600361027c565b602092601f821160011461032857610323929382915f926101005750508160011b915f199060031b1c19161790565b600355565b60035f52601f198216937fc2575a0e9e593c00f959f8c92f12db2869c3395a3b0502d05e2516446f71f85b915f5b86811061038c5750836001959610610374575b505050811b01600355565b01515f1960f88460031b161c191690555f8080610369565b91926020600181928685015181550194019201610356565b600980546001600160a01b039283166001600160a01b0319821681179092559091167f8be0079c531659141344cd1fd0a4f28419497f9722a3daafe3b4186f6b6457e05f80a356fe60806040526004361015610011575f80fd5b5f3560e01c806301ffc9a7146103f457806306d254da146103ef57806306fdde03146103ea578063081812fc146103e5578063095ea7b3146103e05780630e04d23a146103db578063143759be146103d657806318160ddd146103d15780631f05db79146103cc57806323b872dd146103c757806329af2c1a146103c257806332cb6b0c146103bd57806334aeb564146103b85780633ccfd60b146103b357806342842e0e146103ae57806347c9640c146103a9578063487ef216146103a45780634d03a9a51461039f5780635b771e3f1461039a5780635bb47808146103955780635bbb2177146103905780635f34389b1461038b5780636352211e146103865780636517f33d1461038157806370a082311461037c578063715018a61461037757806378c91ed614610372578063813cd2761461036d57806382260f35146103685780638462151c146103635780638a78fb1e1461035e5780638da5cb5b1461035957806393aba1fb1461035457806395d89b411461034f57806399a2557a1461034a57806399d8cd1114610345578063a079100d14610340578063a204a82f1461033b578063a22cb46514610336578063a942cccb14610331578063aed96b591461032c578063b19960e614610327578063b1c456ad14610322578063b88d4fde1461031d578063c002d23d14610318578063c23dc68f14610313578063c45a01551461030e578063c87b56dd14610309578063cdcd897e14610304578063d45557cc146102ff578063da4e1817146102fa578063de11790e146102f5578063e0d4ea37146102f0578063e210a72d146102eb578063e8250705146102e6578063e8a3d485146102e1578063e985e9c5146102dc578063ec6be06e146102d7578063ed51ef41146102d2578063f16f3730146102cd578063f2fde38b146102c85763fddcb5ea146102c3575f80fd5b612ebe565b612dee565b612ba3565b612b5c565b612afc565b612a98565b612a20565b612974565b612703565b6126cb565b6126a1565b612645565b61250e565b6124f3565b612453565b61242b565b6123c8565b6123a7565b612345565b6122d7565b6122bb565b61229e565b611fa0565b611f00565b611d16565b611cdb565b611b34565b6119bd565b611918565b611886565b61185e565b6117df565b611624565b611544565b611458565b61129e565b611243565b61121c565b6111d5565b6111a6565b61117d565b611111565b61104d565b611030565b610fc9565b610fa1565b610d0d565b610c55565b610bd3565b610acc565b610a96565b610a4f565b610a3b565b610988565b61077f565b610757565b61072f565b61066e565b61061f565b610545565b6104a9565b61040f565b6001600160e01b031981160361040b57565b5f80fd5b3461040b57602036600319011261040b5760043561042c816103f9565b63ffffffff60e01b16632483248360e11b8114908115610455575b506040519015158152602090f35b6301ffc9a760e01b811491508115610487575b8115610476575b505f610447565b635b5e139f60e01b1490505f61046f565b6380ac58cd60e01b81149150610468565b6001600160a01b0381160361040b57565b3461040b57602036600319011261040b576004356104c681610498565b6104ce6140c2565b6001600160a01b031680156104f4576001600160601b0360a01b600d541617600d555f80f35b63d92e233d60e01b5f5260045ffd5b5f91031261040b57565b805180835260209291819084018484015e5f828201840152601f01601f1916010190565b90602061054292818152019061050d565b90565b3461040b575f36600319011261040b576040515f600254610565816107a0565b80845290600181169081156105fb575060011461059d575b6105998361058d8185038261085e565b60405191829182610531565b0390f35b60025f9081527f405787fa12a823e0f2b7631cc41b3ba8828b3321ca811111fa75cd3aa3bb5ace939250905b8082106105e15750909150810160200161058d61057d565b9192600181602092548385880101520191019092916105c9565b60ff191660208086019190915291151560051b8401909101915061058d905061057d565b3461040b57602036600319011261040b5760043561063c8161411a565b1561065f575f526006602052602060018060a01b0360405f205416604051908152f35b6333d1c03960e21b5f5260045ffd5b604036600319011261040b5760043561068681610498565b602435906001600160a01b0361069b836141cf565b169081330361070a575b6106da816106bb855f52600660205260405f2090565b80546001600160a01b0319166001600160a01b03909216919091179055565b6001600160a01b0316907f8c5be1e5ebec7d5bd14f71427d1e84f3dd0314c0f7b2291e5b200ac8c7c3b9255f80a4005b5f82815260076020908152604080832033845290915290205460ff166106a557614159565b3461040b575f36600319011261040b57600f546040516001600160a01b039091168152602090f35b3461040b575f36600319011261040b57600d546040516001600160a01b039091168152602090f35b3461040b575f36600319011261040b5760205f546001549003604051908152f35b90600182811c921680156107ce575b60208310146107ba57565b634e487b7160e01b5f52602260045260245ffd5b91607f16916107af565b634e487b7160e01b5f52604160045260245ffd5b61010081019081106001600160401b0382111761080857604052565b6107d8565b604081019081106001600160401b0382111761080857604052565b606081019081106001600160401b0382111761080857604052565b608081019081106001600160401b0382111761080857604052565b90601f801991011681019081106001600160401b0382111761080857604052565b9060405191825f825492610892846107a0565b80845293600181169081156108fd57506001146108b9575b506108b79250038361085e565b565b90505f9291925260205f20905f915b8183106108e15750509060206108b7928201015f6108aa565b60209193508060019154838589010152019101909184926108c8565b9050602092506108b794915060ff191682840152151560051b8201015f6108aa565b96939060e0969361094a61096694610958939c9b989c8b5261010060208c01526101008b019061050d565b9089820360408b015261050d565b90878203606089015261050d565b608086019790975260a08501526001600160a01b031660c08401521515910152565b3461040b57604036600319011261040b57600435602435905f52601460205260405f20905f5260205260405f208054906105996109c76001830161087f565b916109d46002820161087f565b936109e16003830161087f565b916004810154600660058301549201549360405197889760ff8760a01c169660018060a01b0316958961091f565b606090600319011261040b57600435610a2781610498565b90602435610a3481610498565b9060443590565b610a4d610a4736610a0f565b91612ef9565b005b3461040b57602036600319011261040b57600435610a6c81610498565b610a746140c2565b600e80546001600160a01b0319166001600160a01b0392909216919091179055005b3461040b575f36600319011261040b57602060405161c3508152f35b606090600319011261040b57600435906024359060443590565b3461040b57610ada36610ab2565b610aff82610af28594955f52601460205260405f2090565b905f5260205260405f2090565b60068101805490929190336001600160a01b03821603610bc45760a01c60ff16610bb5578115610ba65760048101829055825460ff60a01b1916600160a01b179092557f8b150673121b01316e8e9f04c655dcb53717f3ea8192a7606efea4685085293492610ba192610b919190610b8790610b79611314565b928352876020840152611351565b6040820152613270565b6040519081529081906020820190565b0390a2005b634dfba02360e01b5f5260045ffd5b6328f560bb60e21b5f5260045ffd5b630ff76c1760e01b5f5260045ffd5b3461040b575f36600319011261040b57610beb6140c2565b610bf84760175490613357565b8015610c4657600c546001600160a01b03168015610c37575f80809381935af1610c20613364565b5015610c2857005b6312171d8360e31b5f5260045ffd5b631559b7d760e21b5f5260045ffd5b6353cd7f7960e01b5f5260045ffd5b610a4d610c6136610a0f565b9060405192610c7160208561085e565b5f8452613f0b565b90602080835192838152019201905f5b818110610c965750505090565b8251845260209384019390920191600101610c89565b939290936060810194815260606020820152825180955260206080820193015f955b808710610cea5750506105429394506040818403910152610c79565b81516001600160a01b031685526001969096019560209485019490910190610cce565b3461040b57602036600319011261040b57606060043581610d34610d308361411a565b1590565b610f92575f91610d4c815f52601560205260405f2090565b80545f915b818310610f3e575050600f54610d7891506001600160a01b03165b6001600160a01b031690565b6001600160a01b038116610d99575b50506105999060405193849384610cac565b5f94509150835b604051637bb7bed160e01b815260048101829052602081602481875afa9081610f22575b50610f0a5750610dd384613439565b93610ddd81613439565b925f5b828110610dee575050610d87565b604051637bb7bed160e01b81526004810182905284919088602082602481885afa5f9281610eda575b50610e29575b50506001915001610de0565b9281610e4d602093610e3e86610e7e9861346b565b6001600160a01b039091169052565b60405163d2b91bd160e01b81526001600160a01b039091166004820152602481019190915292839081906044820190565b0381865afa8015610ed5576001925f91610ea7575b50610e9e828861346b565b52849188610e1d565b610ec8915060203d8111610ece575b610ec0818361085e565b81019061347f565b5f610e93565b503d610eb6565b613417565b610efc91935060203d8111610f03575b610ef4818361085e565b810190613402565b915f610e17565b503d610eea565b93610f17610f1d916133f4565b946133f4565b610da0565b610f399060203d8111610f0357610ef4818361085e565b610dc4565b909194610f896001916005610f81610f5e885f52601460205260405f2090565b610f75610f6b8c89612b47565b90549060031b1c90565b5f5260205260405f2090565b0154906133e7565b95019190610d51565b63677510db60e11b5f5260045ffd5b3461040b575f36600319011261040b57600e546040516001600160a01b039091168152602090f35b3461040b57604036600319011261040b576004355f908152601860209081526040808320602435845282529182902080546001820154600283015460039093015485516001600160a01b039093168352938201529283015260ff1615156060820152608090f35b3461040b575f36600319011261040b576020601054604051908152f35b3461040b57602036600319011261040b5760043561106a81610498565b6110726140c2565b6001600160a01b031680156104f4576001600160601b0360a01b600b541617600b555f80f35b60206040818301928281528451809452019201905f5b8181106110bb5750505090565b9091926020608082611106600194885162ffffff6060809260018060a01b0381511685526001600160401b036020820151166020860152604081015115156040860152015116910152565b0194019291016110ae565b3461040b57602036600319011261040b576004356001600160401b03811161040b573660238201121561040b578060040135906001600160401b03821161040b573660248360051b8301011161040b57610599916024611171920161348e565b60405191829182611098565b3461040b57604036600319011261040b57602061119e6024356004356134d0565b604051908152f35b3461040b57602036600319011261040b5760206001600160a01b036111cc6004356141cf565b16604051908152f35b3461040b57602036600319011261040b576004356111f281610498565b6111fa6140c2565b600f80546001600160a01b0319166001600160a01b0392909216919091179055005b3461040b57602036600319011261040b57602061119e60043561123e81610498565b61351f565b3461040b575f36600319011261040b5761125b6140c2565b600980546001600160a01b031981169091555f906001600160a01b03167f8be0079c531659141344cd1fd0a4f28419497f9722a3daafe3b4186f6b6457e08280a3005b3461040b575f36600319011261040b57600c546040516001600160a01b039091168152602090f35b634e487b7160e01b5f52603260045260245ffd5b601a548110156112f657601a5f52600960205f20910201905f90565b6112c6565b80548210156112f6575f52600960205f20910201905f90565b604051906108b760608361085e565b604051906108b760408361085e565b604051906108b76101008361085e565b604051906108b760808361085e565b906108b7604051611361816107ec565b60e06113cf600683968054855261137a6001820161087f565b602086015261138b6002820161087f565b604086015261139c6003820161087f565b606086015260048101546080860152600581015460a086015201546001600160a01b03811660c085015260a01c60ff1690565b1515910152565b90610542908251815260e0806114276114156114036020880151610100602088015261010087019061050d565b6040880151868203604088015261050d565b6060870151858203606087015261050d565b6080808701519085015260a0808701519085015260c0808701516001600160a01b0316908501529401511515910152565b3461040b57602036600319011261040b57600435601a5481101561040b5761147f906112da565b508054610599611496600260018501549401611351565b604051938493845260208401526060604084015260608301906113d6565b92919060408401936040815281518095526060810194602060608260051b8401019301905f965b8188106115195750505061054293945060208183039101526020611508835160408452604084019061050d565b92015190602081840391015261050d565b909193602080611535600193605f1988820301865288516113d6565b960192019701969190916114db565b3461040b57602036600319011261040b57600435606060206040516115688161080d565b8281520152805f52601560205260405f20549061158482613555565b915f5b8181106115b957836115a96115a4855f52601360205260405f2090565b6135d6565b90610599604051928392836114b4565b6001906115f76115f26115d4865f52601460205260405f2090565b610f75610f6b856115ed8a5f52601560205260405f2090565b612b47565b611351565b611601828761346b565b5261160c818661346b565b5001611587565b906020610542928181520190610c79565b3461040b57602036600319011261040b5760043561164181610498565b5f54606090801590811561165e575b604051806105998582611613565b80929192935f916060946117ad575f54809110156117a5575b506116818161351f565b92851561179d575b8361169f575b5050505061059991505f80611650565b909192809450851115611795575b604051916001850160051b830194856040526116c85f613f70565b905f916116db610d306040830151151590565b611783575b505f9791959160015b15611754575b5f966116fa84614ccc565b60408101511561171957505060015f935b0196886040529692966116e9565b939093518061174c575b50848418861b15611737575b60019061170b565b6001909901600581901b87018a90529861172f565b93505f611723565b808314801561177a575b156116ef5750505050509150506105999181525f80808061168f565b5081891461175e565b516001600160a01b031691505f6116e0565b8493506116ad565b5f9350611689565b94505f611677565b6141a3565b9181601f8401121561040b578235916001600160401b03831161040b576020838186019501011161040b57565b3461040b57608036600319011261040b576004356024356001600160401b03811161040b576118129036906004016117b2565b916044356001600160401b03811161040b576118329036906004016117b2565b90606435946001600160401b03861161040b57611856610a4d9636906004016117b2565b95909461388b565b3461040b575f36600319011261040b576009546040516001600160a01b039091168152602090f35b3461040b57604036600319011261040b5760043560243590805f52601460205260405f20825f5260205260405f2060018060a01b036006820154163303610bc457602080610a4d946118e76118e06001611913960161087f565b91866148d2565b845f526016825260405f20604051938285935191829101845e820190815203019020805460ff19169055565b6146f5565b3461040b575f36600319011261040b576040515f600354611938816107a0565b80845290600181169081156105fb575060011461195f576105998361058d8185038261085e565b60035f9081527fc2575a0e9e593c00f959f8c92f12db2869c3395a3b0502d05e2516446f71f85b939250905b8082106119a35750909150810160200161058d61057d565b91926001816020925483858801015201910190929161198b565b3461040b57606036600319011261040b576004356119da81610498565b6024356044359081928190606093808410156117ad575f5480911015611b2c575b50611a058161351f565b9085841015611b24575b81611a23575b604051806105998782611613565b909192809450850382811115611b1c575b5060405191611a4f6001820160051b84019586604052613f70565b905f91611a62610d306040830151151590565b611b0a575b505f9691949160015b15611adc575b5f95611a8184614ccc565b604081015115611aa057505060015f935b019587604052959295611a70565b9390935180611ad4575b5084841860601b15611abf575b600190611a92565b6001909801600581901b860189905297611ab7565b93505f611aaa565b8083148015611b01575b15611a7657505050509150506105999181525f808080611a15565b50818814611ae6565b516001600160a01b031691505f611a67565b91505f611a34565b5f9150611a0f565b94505f6119fb565b3461040b57604036600319011261040b57600435602435600e54611b60906001600160a01b0316610d6c565b3303611c9657611b72610d308361411a565b610f9257600f54611b8b906001600160a01b0316610d6c565b6001600160a01b038116611c3c575b50611bc9611bce91611bb4845f52601b60205260405f2090565b611bbf8282546133e7565b9055601c546133e7565b601c55565b600f54611be3906001600160a01b0316610d6c565b6001600160a01b038116611bf357005b803b1561040b57604051631fb8ab9f60e11b815260048101929092525f908290602490829084905af18015610ed557611c2857005b80611c365f610a4d9361085e565b80610503565b90813b1561040b5760405163ec3d3c3160e01b815260048101849052915f908390602490829084905af1908115610ed557611bce92611bc992611c82575b509150611b9a565b80611c365f611c909361085e565b5f611c7a565b60405162461bcd60e51b815260206004820152601d60248201527f4f6e6c792050656e676f546f6b656e2063616e2061646420706f7765720000006044820152606490fd5b3461040b57602036600319011261040b57600435611cf881610498565b60018060a01b03165f526019602052602060405f2054604051908152f35b602036600319011261040b57600435611d2d6149cd565b8015611ee75761c350611d4c82611d475f54600154900390565b6133e7565b11611ed857611d5a81613661565b3410611ec957335f90815260126020526040902054906101f4611d7d82846133e7565b11611eba57805f5492611d8f82614a23565b611d998233614a95565b335f90815260126020526040902091019055611db481613439565b915f5b828110611e3b575050600c546001600160a01b0316908115610c3757611ddc90613661565b90813403611e15575b5f80809381935af1611df5613364565b5015610c285761059990611e096001600a55565b60405191829182611613565b5f808080853403335af1611e27613364565b50611de5576312171d8360e31b5f5260045ffd5b807ff8e1a15aba9398e019f0b49df1a4fde98ee17ae345cb5f6b5e2c27f5033e8ce7611eb1611e6c600194866133e7565b80611e77858a61346b565b52610b91611e83611323565b611e8b613daf565b8152611e95613dd6565b6020820152611eac835f52601360205260405f2090565b613df9565b0390a101611db7565b634c2bc38160e01b5f5260045ffd5b63cd1c886760e01b5f5260045ffd5b6352df9fe560e01b5f5260045ffd5b630856e64360e21b5f5260045ffd5b8015150361040b57565b3461040b57604036600319011261040b57600435611f1d81610498565b60243590611f2a82611ef6565b335f526007602052611f6482611f538360405f209060018060a01b03165f5260205260405f2090565b9060ff801983541691151516179055565b60405191151582526001600160a01b03169033907f17307eab39ab6107e8899845ad3d59bd9653f200f220920489ca2b5937696c3190602090a3005b611fa936610ab2565b91611fb26149cd565b611fc1610d6c610d6c856141cf565b336001600160a01b039091160361228f57611fe881610af2845f52601460205260405f2090565b600681015460ff60a082901c1615612280576004820154918215610ba657823410611ec9576120196001820161087f565b9161203f612038612032895f52601660205260405f2090565b85613d90565b5460ff1690565b612271576001600160a01b031690612065600361205e6002840161087f565b920161087f565b8684898861207c6120758a613683565b6064900490565b95612087878b613357565b600d549091908b906001600160a01b03168061224857506009546001600160a01b0316975f976121436121578a996121518b9a6121438c9b61212c6121749b61216a9b6121649b5b6120d7611332565b92858452896020850152604084015260608301528f608083015260a082015261210b3360c083019060018060a01b03169052565b8e60e082015261212783610af2875f52601460205260405f2090565b6131d2565b61213e835f52601560205260405f2090565b613833565b5f52601660205260405f2090565b90613d90565b805460ff19166001179055565b8b613d90565b805460ff19169055565b61217e8b8d6148d2565b6121878d6146f5565b6121908c6146f5565b6001600160a01b0388165af16121a4613364565b5015610c285781612220575b50508234036121fa575b6121ed7fd41dbe053a12b0e9617e572dccd16aaf1bc0f94ad99781008b928fe29c5f7c3993604051938493339185613ed7565b0390a4610a4d6001600a55565b5f808080863403335af161220c613364565b506121ba576312171d8360e31b5f5260045ffd5b5f918291829182916001600160a01b03165af161223b613364565b5015610c28575f806121b0565b975f976121436121578a996121518b9a6121438c9b61212c6121749b61216a9b6121649b6120cf565b63fa256cb360e01b5f5260045ffd5b631d99ddbf60e01b5f5260045ffd5b6359dc379f60e01b5f5260045ffd5b3461040b575f36600319011261040b576020601c54604051908152f35b3461040b575f36600319011261040b5760206040516101f48152f35b3461040b575f36600319011261040b576020601754604051908152f35b6001600160401b03811161080857601f01601f191660200190565b92919261231b826122f4565b91612329604051938461085e565b82948184528183011161040b578281602093845f960137010152565b608036600319011261040b5760043561235d81610498565b6024359061236a82610498565b604435606435926001600160401b03841161040b573660238501121561040b576123a1610a4d94369060248160040135910161230f565b92613f0b565b3461040b575f36600319011261040b57602060405166b1a2bc2ec500008152f35b3461040b57602036600319011261040b5760806123e6600435613f70565b612429604051809262ffffff6060809260018060a01b0381511685526001600160401b036020820151166020860152604081015115156040860152015116910152565bf35b3461040b575f36600319011261040b57600b546040516001600160a01b039091168152602090f35b3461040b57602036600319011261040b576004356124708161411a565b15610f9257600b545f828152601160205260408082205490516392cb829d60e01b81526004810194909452602484015290829060449082906001600160a01b03165afa8015610ed557610599915f916124d1575b5060405191829182610531565b6124ed91503d805f833e6124e5818361085e565b81019061375f565b5f6124c4565b3461040b575f36600319011261040b57602060405160058152f35b3461040b57604036600319011261040b5760043560243561252d6149cd565b61254382610af2835f52601860205260405f2090565b91612555610d30600385015460ff1690565b612636578254336001600160a01b03909116036126275760016002840154930154926125a761259083610af2865f52601860205260405f2090565b60035f918281558260018201558260028201550155565b335f9081526019602052604090206125c0828254613357565b90556125d66125d182601754613357565b601755565b5f80808084335af16125e6613364565b5015610c28576040805133815260208101929092527f12867efde6a16e6f5c9ade6f54557dc3aa2017a6716b589059eceb542d47917d9190819081016121ed565b6332a0bb6960e01b5f5260045ffd5b6305995b5360e41b5f5260045ffd5b3461040b57602036600319011261040b576004355f52601360205261269360405f2061059961267f60016126788461087f565b930161087f565b60405193849360408552604085019061050d565b90838203602085015261050d565b3461040b57602036600319011261040b576004355f52601b602052602060405f2054604051908152f35b3461040b57602036600319011261040b576004356126e88161411a565b15610f92575f526011602052602060405f2054604051908152f35b61270c36610ab2565b916127156149cd565b3415610ba65761272a610d6c610d6c856141cf565b336001600160a01b039091160361228f5761275181610af2845f52601460205260405f2090565b6006810154339061276a906001600160a01b0316610d6c565b146128eb5761203861279191600161278a875f52601660205260405f2090565b9101613fab565b612271576127ab81610af2845f52601860205260405f2090565b600381015460ff1680806128dd575b6128ce57612868575b506128066127cf611342565b3381528460208201523460408201526127eb6060820160019052565b61280183610af2865f52601860205260405f2090565b614030565b335f90815260196020526040902061281f3482546133e7565b90556128306125d1346017546133e7565b604080513381523460208201527f4b011cd95fe592ba0d71bdb34e58553f73ca97ab2d8789c2dc4b6c8b8714148c91819081016121ed565b80546002909101546001600160a01b039091165f818152601960205260408120805491938493849384939061289e908490613357565b90556128af6125d183601754613357565b6001600160a01b03165af16128c2613364565b5015610c28575f6127c3565b6372351e5360e01b5f5260045ffd5b5060028201543411156127ba565b630f5cd12360e31b5f5260045ffd5b602081016020825282518091526040820191602060408360051b8301019401925f915b83831061292c57505050505090565b9091929394602080612965600193603f19868203018752606060408b5180518452858101518685015201519181604082015201906113d6565b9701930193019193929061291d565b3461040b575f36600319011261040b57601a5461299081613422565b9061299e604051928361085e565b80825260208201601a5f527f057c384a7d1c54f3a1b2e5e67b2617b8224fdfd1ea7234eea573a6ff665ff63e5f915b8383106129e2576040518061059987826128fa565b600960206001926040516129f581610828565b855481528486015483820152612a0d60028701611351565b60408201528152019201920191906129cd565b3461040b575f36600319011261040b57600b54604051600162f4a24960e01b03198152905f90829060049082906001600160a01b03165afa8015610ed557610599915f91612a7e575b5060405191829160208352602083019061050d565b612a9291503d805f833e6124e5818361085e565b5f612a69565b3461040b57604036600319011261040b57602060ff612af0600435612abc81610498565b60243590612ac982610498565b60018060a01b03165f526007845260405f209060018060a01b03165f5260205260405f2090565b54166040519015158152f35b3461040b57602036600319011261040b57600435612b1981610498565b612b216140c2565b6001600160a01b031680156104f4576001600160601b0360a01b600c541617600c555f80f35b80548210156112f6575f5260205f2001905f90565b3461040b57604036600319011261040b57600435602435905f52601560205260405f20805482101561040b57602091612b9491612b47565b90549060031b1c604051908152f35b3461040b57604036600319011261040b57602435600435612bc26149cd565b612be0612bdb83610af2845f52601860205260405f2090565b614082565b91612bf1610d306060850151151590565b61263657612c0b81610af2845f52601460205260405f2090565b6006810154336001600160a01b0390911603610bc4576040840151602085015194519091906001600160a01b031690612c466001820161087f565b90612c58600361205e6002840161087f565b90612c68610d6c610d6c8a6141cf565b6001600160a01b0385811691160361228f57612c926120386120328a5f52601660205260405f2090565b61227157612d3d91612cb361259088610af28b5f52601860205260405f2090565b6001600160a01b0385165f908152601960205260409020612cd5878254613357565b9055612ce66125d187601754613357565b612cee611332565b87815260208101859052604081019290925260608201525f608082015260a081018590526001600160a01b03841660c08201525f60e082015261212786610af28a5f52601460205260405f2090565b612d538461213e885f52601560205260405f2090565b612d71612157612d6b885f52601660205260405f2090565b83613d90565b612d8961216a612d6b875f52601660205260405f2090565b612d9384866148d2565b612d9c866146f5565b612da5856146f5565b5f80808086335af1612db5613364565b5015610c28576121ed7fd41dbe053a12b0e9617e572dccd16aaf1bc0f94ad99781008b928fe29c5f7c3993604051938493339085613ed7565b3461040b57602036600319011261040b57600435612e0b81610498565b612e136140c2565b6001600160a01b03811615612e6a57600980546001600160a01b039283166001600160a01b0319821681179092559091167f8be0079c531659141344cd1fd0a4f28419497f9722a3daafe3b4186f6b6457e05f80a3005b60405162461bcd60e51b815260206004820152602660248201527f4f776e61626c653a206e6577206f776e657220697320746865207a65726f206160448201526564647265737360d01b6064820152608490fd5b3461040b57602036600319011261040b57600435612edb81610498565b60018060a01b03165f526012602052602060405f2054604051908152f35b9190612f04826141cf565b6001600160a01b03938416938116849003613096575f8381526006602052604090208054612f416001600160a01b03871633908114908314171590565b613053575b612f5185858861427f565b61304a575b506001600160a01b0384165f90815260056020526040902080545f190190556001600160a01b0382165f908152600560205260409020805460010190556001600160a01b0382164260a01b17600160e11b17612fba845f52600460205260405f2090565b55600160e11b811615613005575b506001600160a01b03169182907fddf252ad1be2c89b69c2b068fc378daa952ba7f163c4a11628f55a4df523b3ef5f80a41561300057565b614185565b6001830161301b815f52600460205260405f2090565b5415613028575b50612fc8565b5f54811461302257613042905f52600460205260405f2090565b555f80613022565b5f90555f612f56565b61308c610d30612038336130778a60018060a01b03165f52600760205260405f2090565b9060018060a01b03165f5260205260405f2090565b15612f4657614176565b614168565b634e487b7160e01b5f525f60045260245ffd5b8181106130b9575050565b5f81556001016130ae565b9190601f81116130d357505050565b6108b7925f5260205f20906020601f840160051c830193106130fd575b601f0160051c01906130ae565b90915081906130f0565b91909182516001600160401b0381116108085761312e8161312884546107a0565b846130c4565b6020601f821160011461316d57819061315e9394955f92613162575b50508160011b915f199060031b1c19161790565b9055565b015190505f8061314a565b601f19821690613180845f5260205f2090565b915f5b8181106131ba575095836001959697106131a2575b505050811b019055565b01515f1960f88460031b161c191690555f8080613198565b9192602060018192868b015181550194019201613183565b9061325660e060066108b794845181556131f3602086015160018301613107565b613204604086015160028301613107565b613215606086015160038301613107565b6080850151600482015560a0850151600582015560c0850151910180546001600160a01b0319166001600160a01b03909216919091178155925b0151151590565b815460ff60a01b191690151560a01b60ff60a01b16179055565b601a54600160401b811015610808578060016132919201601a55601a6112fb565b61332b5761325660e060086040856108b79651865560208101516001870155015193845160028201556132cb602086015160038301613107565b6132dc604086015160048301613107565b6132ed606086015160058301613107565b6080850151600682015560a0850151600782015560c0850151910180546001600160a01b0319166001600160a01b039092169190911781559261324f565b61309b565b634e487b7160e01b5f52601160045260245ffd5b5f1981019190821161335257565b613330565b9190820391821161335257565b3d1561338e573d90613375826122f4565b91613383604051938461085e565b82523d5f602084013e565b606090565b906001820180921161335257565b906002820180921161335257565b906003820180921161335257565b906004820180921161335257565b906005820180921161335257565b906006820180921161335257565b9190820180921161335257565b5f1981146133525760010190565b9081602091031261040b575161054281610498565b6040513d5f823e3d90fd5b6001600160401b0381116108085760051b60200190565b9061344382613422565b613450604051918261085e565b8281528092613461601f1991613422565b0190602036910137565b80518210156112f65760209160051b010190565b9081602091031261040b575190565b6040519180835260051b906020828401016040525b818280156134c957601f19908101936134c0919084010135613f70565b908401526134a3565b5050505090565b601a54915f5b8381106134e35750505090565b826134ed826112da565b50541480613509575b613502576001016134d6565b9250505090565b50816001613516836112da565b500154146134f6565b6001600160a01b03168015613546575f5260056020526001600160401b0360405f20541690565b6323d3ad8160e21b5f5260045ffd5b9061355f82613422565b61356c604051918261085e565b828152809261357d601f1991613422565b01905f5b82811061358d57505050565b60209060405161359c816107ec565b5f8152606083820152606060408201526060808201525f60808201525f60a08201525f60c08201525f60e082015282828501015201613581565b906040516135e38161080d565b60206135fd600183956135f58161087f565b85520161087f565b910152565b9081602091031261040b575161054281611ef6565b908060209392818452848401375f828201840152601f01601f1916010190565b916020610542938181520191613617565b6020919283604051948593843782019081520301902090565b9066b1a2bc2ec5000082029180830466b1a2bc2ec50000149015171561335257565b9060058202918083046005149015171561335257565b9060078202918083046007149015171561335257565b908160021b918083046004149015171561335257565b600181901b91906001600160ff1b0381160361335257565b9081518110156112f6570160200190565b92949360ff6137098193604095606088526060880191613617565b9616602085015216910152565b9061372082613422565b61372d604051918261085e565b828152809261373e601f1991613422565b01905f5b82811061374e57505050565b806060602080938501015201613742565b60208183031261040b578051906001600160401b03821161040b570181601f8201121561040b57805190613792826122f4565b926137a0604051948561085e565b8284526020838301011161040b57815f9260208093018386015e8301015290565b906137d490604083526040830190610c79565b906020818303910152815180825260208201916020808360051b8301019401925f915b83831061380657505050505090565b9091929394602080613824600193601f19868203018752895161050d565b970193019301919392906137f7565b90815491600160401b83101561080857826138569160016108b795018155612b47565b90919082549060031b91821b915f19901b1916179055565b93929160209161388691604087526040870191613617565b930152565b9590929193946138a0610d6c610d6c896141cf565b336001600160a01b039091160361228f57600b546138c6906001600160a01b0316610d6c565b9160405163c36a2bff60e01b8152602081806138e68a8a60048401613637565b0381875afa908115610ed5575f91613d71575b5015613d625761391e6120386139178a5f52601660205260405f2090565b8888613648565b612271576139369161393191369161230f565b614567565b9081518015908115613d54575b50613cad578151600790045f905f5b818110613cbc57508115613cad5761397a61397461396f846136af565b613439565b92613716565b935f5f5b838110613ac25750505050915f916139ad94936040518096819482936372565e2360e01b8452600484016137c1565b03915afa918215610ed5577f52e15ab134f84fe4816b97c4a3d135945e2725295c41f26f23d1180e44bb510095613aa393613a59925f91613aa8575b50613a20601054946139fd60018701601055565b613a05611332565b93868552613a14368b8b61230f565b6020860152369161230f565b604083015260608201525f6080820181905260a08201523360c08201525f60e082015261212783610af28a5f52601460205260405f2090565b613a6f8161213e885f52601560205260405f2090565b613a8e612157613a87885f52601660205260405f2090565b8686613648565b613a97866146f5565b6040519384938461386e565b0390a2565b613abc91503d805f833e6124e5818361085e565b5f6139e9565b613acb81613699565b60208a8c613af3613aed613adf868a6136dd565b516001600160f81b03191690565b60f81c90565b928391613b0e613aed613adf613b0889613393565b8c6136dd565b93613b2e856040519586948594633eeb0b2560e21b8652600486016136ee565b03818d5afa908115610ed5575f91613c7f575b50613b52575b50505060010161397e565b91849160ff600195969481613b6788976136af565b9316613b73848d61346b565b5216613b87613b8183613393565b8b61346b565b52613ba9613ba3613aed613adf613b9d866133a1565b8b6136dd565b60ff1690565b613bb5613b81836133a1565b52613be3613bdd613bd7613ba3613aed613adf613bd1886133af565b8d6136dd565b926133af565b8a61346b565b52613c5f613bfc613adf613bf6846133bd565b896136dd565b613c51613c24613adf613b9d613c1e613adf8d613c188a6133cb565b906136dd565b966133d9565b6040516001600160f81b031993841660208201529483166021860152909116602284015282906023820190565b03601f19810183528261085e565b613c69828b61346b565b52613c74818a61346b565b500191905f80613b47565b613ca0915060203d8111613ca6575b613c98818361085e565b810190613602565b5f613b41565b503d613c8e565b633907cf2960e01b5f5260045ffd5b8460208989613d0a613cef613aed613adf613bd1613ce9613aed613adf613ce28d613699565b809c6136dd565b98613393565b604051633eeb0b2560e21b81529586948594600486016136ee565b0381885afa908115610ed5575f91613d36575b50613d2b575b600101613952565b600190920191613d23565b613d4e915060203d8111613ca657613c98818361085e565b5f613d1d565b60079006905015155f613943565b636172ef9960e01b5f5260045ffd5b613d8a915060203d602011613ca657613c98818361085e565b5f6138f9565b6040518151909260209284929081908501845e82019081520301902090565b60405190613dbe60408361085e565b60098252686c696c2070656e676f60b81b6020830152565b60405190613de560408361085e565b6005825264060408aa8960db1b6020830152565b91909182519283516001600160401b03811161080857613e2381613e1d85546107a0565b856130c4565b6020601f8211600114613e665791613e5a826020936001956108b798995f926131625750508160011b915f199060031b1c19161790565b84555b01519101613107565b601f19821695613e79855f5260205f2090565b965f5b818110613ebf5750926108b796976001959386938360209710613ea7575b505050811b018455613e5d565b01515f1960f88460031b161c191690555f8080613e9a565b83830151895560019098019760209384019301613e7c565b9092613ef060609396959460808452608084019061050d565b6001600160a01b039687166020840152951660408201520152565b929190613f19828286612ef9565b803b613f26575b50505050565b613f2f93614ca4565b15613f3d575f808080613f20565b6368d2bf6b60e11b5f5260045ffd5b60405190613f5982610843565b5f6060838281528260208201528260408201520152565b90613f79613f4c565b915f548110613f855750565b9091505b805f52600460205260405f2054613fa2575f1901613f89565b61054290614ccc565b9060405180925f90805490613fbf826107a0565b91600181169081156140185750600114613fe2575b505060209281520301902090565b9091505f5260205f205f905b828210614001575050810160205f613fd4565b805482870152859350602090910190600101613fee565b60ff191685525050801515028201905060205f613fd4565b815181546001600160a01b0319166001600160a01b03919091161781556108b79160039060609060208101516001850155604081015160028501550151151591019060ff801983541691151516179055565b9060405161408f81610843565b82546001600160a01b03168152600183015460208201526002830154604082015260039092015460ff1615156060830152565b6009546001600160a01b031633036140d657565b606460405162461bcd60e51b815260206004820152602060248201527f4f776e61626c653a2063616c6c6572206973206e6f7420746865206f776e65726044820152fd5b905f915f5481106141285750565b9091505b805f52600460205260405f20548061414d57508015613352575f190161412c565b600160e01b1615919050565b6367d9dca160e11b5f5260045ffd5b62a1148160e81b5f5260045ffd5b632ce44b5f60e11b5f5260045ffd5b633a954ecd60e21b5f5260045ffd5b636f96cda160e11b5f5260045ffd5b631960ccad60e11b5f5260045ffd5b63b562e8dd60e01b5f5260045ffd5b622e076360e81b5f5260045ffd5b6141e1815f52600460205260405f2090565b549081156141f85750600160e01b81166141945790565b90505f54811015614194575b5f19015f818152600460205260409020549081156142385750600160e01b81161561054257636f96cda160e11b5f5260045ffd5b9050614204565b61424981546107a0565b601f811161425f575b506002600360fc1b019055565b61427990825f52601f60205f20910160051c8101906130ae565b5f614252565b91906001600160a01b038316151580614455575b1561439d57505f5b600181106142a857505050565b6142b281836133e7565b600f549091906142ca906001600160a01b0316610d6c565b6001600160a01b03811661432d575b50614327600161432184614305611bc96142fc85985f52601b60205260405f2090565b54601c54613357565b5f818152601b60205260408120555f52601360205260405f2090565b0161423f565b0161429b565b91823b1561040b57604051634443b69d60e01b8152600481018290526001600160a01b0386166024820152925f908490604490829084905af1928315610ed55761432161432792600195928693614389575b50945050506142d9565b80611c365f6143979361085e565b5f61437f565b6001600160a01b0316156143af575050565b5f5b600181106143be57505050565b6143c881836133e7565b600f549091906143e0906001600160a01b0316610d6c565b6001600160a01b0381166143fa575b5060019150016143b1565b803b1561040b57604051634443b69d60e01b815260048101939093526001600160a01b03851660248401525f908390604490829084905af1918215610ed557600192156143ef5780611c365f61444f9361085e565b5f6143ef565b506001600160a01b0381161515614293565b6001600160a01b031615614479575050565b5f5b82811061448757505050565b61449181836133e7565b600f549091906144a9906001600160a01b0316610d6c565b6001600160a01b0381166144c3575b50600191500161447b565b803b1561040b57604051634443b69d60e01b815260048101939093525f60248401819052908390604490829084905af1918215610ed557600192156144b85780611c365f6145109361085e565b5f6144b8565b90614520826122f4565b61452d604051918261085e565b8281528092613461601f19916122f4565b60041b90610ff060f083169216820361335257565b9060ff8091169116019060ff821161335257565b908151600181166145fa5760011c61457e81614516565b905f5b81811061458f575090925050565b806145e76145d76145b76145b26145ad613adf613b086001986136c5565b614d5d565b61453e565b6145d16145ad613adf613b086145cc886136c5565b613393565b90614553565b60f81b6001600160f81b03191690565b5f1a6145f382866136dd565b5301614581565b60405162461bcd60e51b815260206004820152601960248201527f496e76616c69642068657820737472696e67206c656e677468000000000000006044820152606490fd5b6040519061464e60408361085e565b60128252716675636b696e6720726963682070656e676f60701b6020830152565b6040519061467e60408361085e565b601182527070656e676f2062696c6c696f6e6169726560781b6020830152565b604051906146ad60408361085e565b601182527070656e676f206d696c6c696f6e6169726560781b6020830152565b604051906146dc60408361085e565b600a82526970656e676f2061726d7960b01b6020830152565b5f81815260156020526040812080545f915b8183106147c2575050507ff8e1a15aba9398e019f0b49df1a4fde98ee17ae345cb5f6b5e2c27f5033e8ce79161474861477092670de0b6b3a7640000900490565b60018110156147755750610b9161475d613daf565b614765611323565b908152611e95613dd6565b0390a1565b600281101561478f5750610b9161478a6146cd565b61475d565b60058110156147a45750610b9161478a61469e565b600a11156147b757610b9161478a61466f565b610b9161478a61463f565b9091926147ef6001916005610f816147e2895f52601460205260405f2090565b610f75610f6b8a89612b47565b93019190614707565b61480281546107a0565b908161480c575050565b81601f5f931160011461481d575055565b8183526020832061483991601f0160051c8101906001016130ae565b808252602082209081548360011b9084198560031b1c191617905555565b60065f9182815561486a600182016147f8565b614876600282016147f8565b614882600382016147f8565b8260048201558260058201550155565b634e487b7160e01b5f52603160045260245ffd5b805480156148cd575f1901906148bc8282612b47565b8154905f199060031b1b1916905555565b614892565b6148e4815f52601460205260405f2090565b825f526020526148ff600660405f20015460ff9060a01c1690565b6149be575b61492261491d83610af2845f52601460205260405f2090565b614857565b614934815f52601560205260405f2090565b918254925f5b84811061496d575b50509091507ff7499acb9d9f4141eb50430bdef419d2ecc52d1b220932562fd11ab43f21bc1b5f80a3565b8261497b610f6b8385612b47565b146149885760010161493a565b6149b0906138566149a9610f6b6149a36149b5979899613344565b86612b47565b9184612b47565b6148a6565b81905f80614942565b6149c88282614ff6565b614904565b6002600a54146149de576002600a55565b60405162461bcd60e51b815260206004820152601f60248201527f5265656e7472616e637947756172643a207265656e7472616e742063616c6c006044820152606490fd5b5f545f903360601b903060601b905b848410614a40575050505050565b60018091604051602081019044825242604082015286606082015282607482015285609482015260888152614a7660a88261085e565b519020614a8b825f52601160205260405f2090565b5501930192614a32565b9160405190614aa560208361085e565b5f82525f54918315614bba57614abc848487614467565b6001600160a01b0385164260a01b6001861460e11b1717614ae5845f52600460205260405f2090565b556001600160a01b0385165f8181526005602052604090208054680100000000000000018702019055938415614bb557808401939560015b15614b50575b5f87875f7fddf252ad1be2c89b69c2b068fc378daa952ba7f163c4a11628f55a4df523b3ef8180a4614b1d565b9560010195848703614b2357929550929093505f55803b614b7057505050565b9091925f549283039260015b15614ba0575b5f614b95610d3087600188019787614c05565b15614b7c575b613f3d565b808410614b825792509250505f540361040b57565b6141c1565b6141b2565b9081602091031261040b5751610542816103f9565b6001600160a01b0391821681529116602082015260408101919091526080606082018190526105429291019061050d565b91614c2c926020925f604051809681958294630a85bd0160e11b8452843360048601614bd4565b03926001600160a01b03165af15f9181614c73575b50614c5d57614c4e613364565b805115614b9b57805190602001fd5b6001600160e01b031916630a85bd0160e11b1490565b614c9691925060203d602011614c9d575b614c8e818361085e565b810190614bbf565b905f614c41565b503d614c84565b906020925f614c2c959360405196879586948593630a85bd0160e11b85523360048601614bd4565b614cd4613f4c565b505f52600460205260405f2054614ce9613f4c565b6001600160a01b038216815260a082901c6001600160401b03166020820152600160e01b82161515604082015260e89190911c606082015290565b60ff602f199116019060ff821161335257565b60ff6036199116019060ff821161335257565b60ff6056199116019060ff821161335257565b60f81c603081101580614dfb575b614df257604181101580614de7575b614dde57606181101580614dd3575b614dca5760405162461bcd60e51b815260206004820152601560248201527424b73b30b634b2103432bc1031b430b930b1ba32b960591b6044820152606490fd5b61054290614d4a565b506066811115614d89565b61054290614d37565b506046811115614d7a565b61054290614d24565b506039811115614d6b565b919091828114614ee157614e1a83546107a0565b6001600160401b03811161080857614e368161312884546107a0565b5f93601f8211600114614e705761315e92939482915f92614e655750508160011b915f199060031b1c19161790565b015490505f8061314a565b614e82601f198316915f5260205f2090565b94614e90845f5260205f2090565b915f5b818110614ec957509583600195969710614eb157505050811b019055565b01545f1960f88460031b161c191690555f8080613198565b9192600180602092868b015481550194019201614e93565b509050565b919061332b57808203614ef7575050565b805482556001810154600183015560028201916002820192838103614f1c5750505050565b600860ff928192614fb896549055614f3a6003860160038301614e06565b614f4a6004860160048301614e06565b614f5a6005860160058301614e06565b60068581015490820155600780860154908201559190930180549390910180546001600160a01b0319166001600160a01b039490941693909317835554825460ff60a01b191660a091821c929092161515901b60ff60a01b16179055565b5f808080613f20565b601a5480156148cd575f1901614fd881601a6112fb565b61332b576002815f614ff193555f600182015501614857565b601a55565b9061500181836134d0565b91601a54831015612280575f90815260146020908152604080832093835292905290812060068101805460ff60a01b1916905560040155601a5461504490613344565b90818103615057575b50506108b7614fc1565b61506d615066615073936112da565b50916112da565b90614ee6565b5f8061504d56fea26469706673582212201e9ce1e591ec2878611ef377fbc043d1d6d27368e23f04ab5c3648ecd1388c8c64736f6c634300081b0033",
  "linkReferences": {},
  "deployedLinkReferences": {}
}