{
  "_format": "hh-sol-artifact-1",
  "contractName": "PengoFactory",
  "sourceName": "contracts/utils/PengoFactory.sol",
  "abi": [
    {
      "inputs": [],
      "stateMutability": "nonpayable",
      "type": "constructor"
    },
    {
      "anonymous": false,
      "inputs": [
        {
          "indexed": false,
          "internalType": "string",
          "name": "part",
          "type": "string"
        },
        {
          "indexed": false,
          "internalType": "string",
          "name": "byteData",
          "type": "string"
        }
      ],
      "name": "CoordinatesInitialized",
      "type": "event"
    },
    {
      "anonymous": false,
      "inputs": [
        {
          "indexed": true,
          "internalType": "address",
          "name": "previousOwner",
          "type": "address"
        },
        {
          "indexed": true,
          "internalType": "address",
          "name": "newOwner",
          "type": "address"
        }
      ],
      "name": "OwnershipTransferred",
      "type": "event"
    },
    {
      "anonymous": false,
      "inputs": [
        {
          "indexed": false,
          "internalType": "string",
          "name": "part",
          "type": "string"
        }
      ],
      "name": "RemovedPart",
      "type": "event"
    },
    {
      "inputs": [],
      "name": "_createContractURI",
      "outputs": [
        {
          "internalType": "string",
          "name": "",
          "type": "string"
        }
      ],
      "stateMutability": "view",
      "type": "function"
    },
    {
      "inputs": [
        {
          "internalType": "string",
          "name": "",
          "type": "string"
        }
      ],
      "name": "allowedParts",
      "outputs": [
        {
          "internalType": "bool",
          "name": "",
          "type": "bool"
        }
      ],
      "stateMutability": "view",
      "type": "function"
    },
    {
      "inputs": [],
      "name": "getAllAllowedParts",
      "outputs": [
        {
          "internalType": "string[]",
          "name": "",
          "type": "string[]"
        }
      ],
      "stateMutability": "view",
      "type": "function"
    },
    {
      "inputs": [
        {
          "internalType": "string",
          "name": "part",
          "type": "string"
        }
      ],
      "name": "getPixelPart",
      "outputs": [
        {
          "internalType": "uint256[]",
          "name": "xCoords",
          "type": "uint256[]"
        },
        {
          "internalType": "uint256[]",
          "name": "yCoords",
          "type": "uint256[]"
        }
      ],
      "stateMutability": "view",
      "type": "function"
    },
    {
      "inputs": [
        {
          "internalType": "string",
          "name": "part",
          "type": "string"
        },
        {
          "internalType": "string",
          "name": "byteData",
          "type": "string"
        }
      ],
      "name": "initializeCoordinates",
      "outputs": [],
      "stateMutability": "nonpayable",
      "type": "function"
    },
    {
      "inputs": [
        {
          "internalType": "string",
          "name": "part",
          "type": "string"
        }
      ],
      "name": "isAllowedPart",
      "outputs": [
        {
          "internalType": "bool",
          "name": "",
          "type": "bool"
        }
      ],
      "stateMutability": "view",
      "type": "function"
    },
    {
      "inputs": [
        {
          "internalType": "string",
          "name": "part",
          "type": "string"
        },
        {
          "internalType": "uint8",
          "name": "x",
          "type": "uint8"
        },
        {
          "internalType": "uint8",
          "name": "y",
          "type": "uint8"
        }
      ],
      "name": "isValidCoordinate",
      "outputs": [
        {
          "internalType": "bool",
          "name": "",
          "type": "bool"
        }
      ],
      "stateMutability": "view",
      "type": "function"
    },
    {
      "inputs": [],
      "name": "owner",
      "outputs": [
        {
          "internalType": "address",
          "name": "",
          "type": "address"
        }
      ],
      "stateMutability": "view",
      "type": "function"
    },
    {
      "inputs": [],
      "name": "pengoContract",
      "outputs": [
        {
          "internalType": "contract IPenguinOnchain",
          "name": "",
          "type": "address"
        }
      ],
      "stateMutability": "view",
      "type": "function"
    },
    {
      "inputs": [
        {
          "internalType": "string",
          "name": "",
          "type": "string"
        },
        {
          "internalType": "uint8",
          "name": "",
          "type": "uint8"
        },
        {
          "internalType": "uint8",
          "name": "",
          "type": "uint8"
        }
      ],
      "name": "pixelMapCoordinates",
      "outputs": [
        {
          "internalType": "bool",
          "name": "",
          "type": "bool"
        }
      ],
      "stateMutability": "view",
      "type": "function"
    },
    {
      "inputs": [
        {
          "internalType": "uint256[]",
          "name": "pixels",
          "type": "uint256[]"
        },
        {
          "internalType": "string[]",
          "name": "colors",
          "type": "string[]"
        }
      ],
      "name": "reconstructHexString",
      "outputs": [
        {
          "internalType": "string",
          "name": "",
          "type": "string"
        }
      ],
      "stateMutability": "pure",
      "type": "function"
    },
    {
      "inputs": [
        {
          "internalType": "string",
          "name": "part",
          "type": "string"
        }
      ],
      "name": "removeAllowedPart",
      "outputs": [],
      "stateMutability": "nonpayable",
      "type": "function"
    },
    {
      "inputs": [],
      "name": "renounceOwnership",
      "outputs": [],
      "stateMutability": "nonpayable",
      "type": "function"
    },
    {
      "inputs": [
        {
          "internalType": "address",
          "name": "_pengoContract",
          "type": "address"
        }
      ],
      "name": "setPengoContract",
      "outputs": [],
      "stateMutability": "nonpayable",
      "type": "function"
    },
    {
      "inputs": [
        {
          "internalType": "address",
          "name": "_strategy",
          "type": "address"
        }
      ],
      "name": "setStrategyContract",
      "outputs": [],
      "stateMutability": "nonpayable",
      "type": "function"
    },
    {
      "inputs": [],
      "name": "strategyContract",
      "outputs": [
        {
          "internalType": "contract IPengoStrategy",
          "name": "",
          "type": "address"
        }
      ],
      "stateMutability": "view",
      "type": "function"
    },
    {
      "inputs": [
        {
          "internalType": "uint256",
          "name": "tokenId",
          "type": "uint256"
        },
        {
          "internalType": "uint256",
          "name": "seed",
          "type": "uint256"
        }
      ],
      "name": "tokenURI",
      "outputs": [
        {
          "internalType": "string",
          "name": "",
          "type": "string"
        }
      ],
      "stateMutability": "view",
      "type": "function"
    },
    {
      "inputs": [
        {
          "internalType": "address",
          "name": "newOwner",
          "type": "address"
        }
      ],
      "name": "transferOwnership",
      "outputs": [],
      "stateMutability": "nonpayable",
      "type": "function"
    }
  ],
  "bytecode": "0x608080604052346059575f8054336001600160a01b0319821681178355916001600160a01b03909116907f8be0079c531659141344cd1fd0a4f28419497f9722a3daafe3b4186f6b6457e09080a36140b9908161005e8239f35b5f80fdfe6080806040526004361015610012575f80fd5b5f3560e01c9081630e04d23a14612b7a575080633d2620d014612a5457806357ad1ced146129ce5780636517f33d14612989578063715018a61461293257806372565e231461258b57806381bb57c7146124035780638da5cb5b146123dc57806392cb829d14611017578063ac2a240714610c6f578063ac98413114610c47578063b1650cd014610bed578063c36a2bff14610b97578063df0cfde214610b18578063f2fde38b14610a4e578063f589e3b5146106fa578063fbac2c941461065a5763ff0b5db7146100e2575f80fd5b34610656575f366003190112610656576103a360405161010181612b9d565b606081526040519061011561024083612bd3565b61021182527f7b226e616d65223a202250656e6775696e204f6e636861696e222c226465736360208301527f72697074696f6e223a202250656e6775696e204f6e636861696e20697320616e60408301527f20696e6e6f766174697665206f6e2d636861696e204e46542070726f6a65637460608301527f2074686174207075736865732074686520626f756e646172696573206f66206760808301527f656e657261746976652061727420616e6420626c6f636b636861696e2063757360a08301527f746f6d697a6174696f6e2e20556e6c696b6520747261646974696f6e616c204e60c08301527f465420636f6c6c656374696f6e73207468617420617265207072652d67656e6560e08301527f726174656420616e642073746f726564206f66662d636861696e2c20657665726101008301527f792050656e6775696e204e46542069732067656e657261746564207573696e676101208301527f20616e20616c676f726974686d206469726563746c79206f6e2074686520626c6101408301527f6f636b636861696e2c20656e737572696e67207472756520646563656e7472616101608301527f6c697a6174696f6e20616e6420696d6d75746162696c6974792e222c22696d616101808301527f6765223a202268747470733a2f2f70656e6775696e6f6e636861696e2e746f706101a08301527f2f70656e676f2d69636f6e2e706e67222c2265787465726e616c5f75726c223a6101c08301527f202268747470733a2f2f70656e6775696e6f6e636861696e2e746f70222c22736101e08301527f656c6c65725f6665655f62617369735f706f696e7473223a2022353030222c22610200830152703332b2afb932b1b4b834b2b73a111d101160791b610220830152613887565b5f5460405190608082016040526f30313233343536373839616263646566600f526002820190602882525f604a8401526001600160601b03199060601b1660015f5b8080018501602284831a600f811651602384015360041c5191015301906014821461041357906001906103e5565b505061307860028251019152815260228101907f8888888888888888888888888888888888888888888888888888888888888880602883201660015f5b601160f31b83821a02818001520190601482146104705790600190610450565b6104ed6104df84878780517f2020202020202020202020202020202020202020202020202020202020202020815f511660011c161890526042820180517f2020202020202020202020202020202020202020202020202020202020202020816020511660011c16189052613887565b6104e7612f5e565b90613887565b51606090805180610567575b610563602061054f603d866040519384917f646174613a6170706c69636174696f6e2f6a736f6e3b6261736536342c000000828401528051918291018484015e81015f838201520301601f198101835282612bd3565b604051918291602083526020830190612cd0565b0390f35b9091506003600282010460021b604051907f4142434445464748494a4b4c4d4e4f505152535455565758595a616263646566601f526106707f6768696a6b6c6d6e6f707172737475767778797a303132333435363738392d5f18603f52602082019181810191602083019560208682010194600460038751935f89525b0191603f8351818160121c16515f538181600c1c1651600153818160061c165160025316516003535f518152019088821015610625576004906003906105e4565b5094526040928301909252613d3d60f01b60039094066002048303939093525f90915281529050602061054f6104f9565b5f80fd5b34610656576060366003190112610656576004356001600160401b0381116106565761068a903690600401612cf4565b60ff610694612c99565b91602061069f612ca9565b946106bf8460405185848237848187810160028152030190205416612d21565b8260405193849283378101600181520301902091165f5260205260ff60405f2091165f52602052602060ff60405f2054166040519015158152f35b34610656576040366003190112610656576004356001600160401b0381116106565761072a903690600401612c20565b6024356001600160401b03811161065657610749903690600401612c20565b90610752613124565b60405160ff825191602081818601948086835e810160028152030190205416610a095761077e83613d62565b6007815104905f5b82811061093b575050506020604051809284518091835e81016002815203019020600160ff19825416179055600554600160401b811015610914578060016107d19201600555612e48565b929092610928578151926001600160401b038411610914576107fd846107f78354612e60565b83612fbb565b602093601f811160011461088a579161087a916108558461086c96957f89fb70f7621117a0372d49c06a6a61941c90f12179dc3998d02d8ddd336640fe985f9161087f575b508160011b915f199060031b1c19161790565b90555b604051938493604085526040850190612cd0565b908382036020850152612cd0565b0390a1005b905086015189610842565b601f19811694825f52805f20955f5b8181106108fc5750827f89fb70f7621117a0372d49c06a6a61941c90f12179dc3998d02d8ddd336640fe9761087a959361086c989795600194106108e4575b5050811b019055610858565b8701515f1960f88460031b161c1916905588806108d8565b86830151885560019097019660209283019201610899565b634e487b7160e01b5f52604160045260245ffd5b634e487b7160e01b5f525f60045260245ffd5b6007810290808204600714811517156109f55761095882846130de565b5160f81c91600181018091116109f5576001926109d461097b6109ef93876130de565b5160f81c916040516020818c51808d835e81018981520301902060ff82165f5260205260405f2060ff84165f5260205260405f208660ff198254161790556040516020818c51808d835e810160038152030190206130ef565b6040516020818a51808b835e810160048152030190206130ef565b01610786565b634e487b7160e01b5f52601160045260245ffd5b60405162461bcd60e51b815260206004820152601860248201527f5061727420616c726561647920696e697469616c697a656400000000000000006044820152606490fd5b34610656576020366003190112610656576004356001600160a01b0381169081900361065657610a7c613124565b8015610ac4575f80546001600160a01b03198116831782556001600160a01b0316907f8be0079c531659141344cd1fd0a4f28419497f9722a3daafe3b4186f6b6457e09080a3005b60405162461bcd60e51b815260206004820152602660248201527f4f776e61626c653a206e6577206f776e657220697320746865207a65726f206160448201526564647265737360d01b6064820152608490fd5b34610656576020366003190112610656576004356001600160a01b0381169081900361065657610b46613124565b8015610b63576001600160601b0360a01b60065416176006555f80f35b60405162461bcd60e51b815260206004820152600c60248201526b7a65726f206164647265737360a01b6044820152606490fd5b34610656576020366003190112610656576004356001600160401b0381116106565760ff6020610bcc81933690600401612cf4565b91908260405193849283378101600281520301902054166040519015158152f35b34610656576020366003190112610656576004356001600160401b0381116106565760ff602080610c2381943690600401612c20565b604051928184925191829101835e8101600281520301902054166040519015158152f35b34610656575f366003190112610656576006546040516001600160a01b039091168152602090f35b34610656576020366003190112610656576004356001600160401b03811161065657610c9f903690600401612c20565b610ca7613124565b60405160ff825191602081818601948086835e81016002815203019020541615610fe15760405160208184518085835e81016002815203019020805460ff191690555f5b60ff80821610610f445750610d1460405160208185518086835e81016003815203019020612f94565b610d3260405160208185518086835e81016004815203019020612f94565b5f5b60055480821015610f1757610d4882612e48565b506040516020810191815f825492610d5f84612e60565b9360018116908115610ef95750600114610ebb575b50610d88925003601f198101835282612bd3565b5190206040516020810190610db56020828951808a875e81015f838201520301601f198101835282612bd3565b51902014610dc65750600101610d34565b9091505f1981019081116109f557610de0610de791612e48565b5091612e48565b91909161092857610df791612ffe565b6005548015610ea7575f190190610e0d82612e48565b919091610928577f5337ade8d1d62c362903db3fd2aa9ffcba271a15ce038a502e476b7e173811ff9282610e4461087a9454612e60565b9081610e64575b5050600555604051918291602083526020830190612cd0565b81601f5f9311600114610e7b5750555b8480610e4b565b81835260208320610e9791601f0160051c810190600101612f7e565b8082528160208120915555610e74565b634e487b7160e01b5f52603160045260245ffd5b9150505f5260205f205f905b828210610ee0575050816020610d889282010189610d74565b8054602083860181019190915290910190600101610ec7565b60ff1916875250610d889380151502830160200191508a9050610d74565b50505061087a7f5337ade8d1d62c362903db3fd2aa9ffcba271a15ce038a502e476b7e173811ff9161054f565b5f5b60ff80821610610f5c575060010160ff16610ceb565b9060ff938460018095946040516020818651808a835e8101858152030190208386165f5260205260405f208382165f526020528260405f205416610fa8575b0116919293509350610f46565b6040516020818651808a835e8101858152030190208386165f5260205260405f208382165f5260205260405f2080548419169055610f9b565b60405162461bcd60e51b815260206004820152600e60248201526d14185c9d081b9bdd08199bdd5b9960921b6044820152606490fd5b346106565760403660031901126106565760043560243561103f8161103a612e98565b61350e565b9161106b60409283516110528582612bd3565b6007815266746f705f65796560c81b602082015261350e565b60065483516382260f3560e01b815260048101849052905f90829060249082906001600160a01b03165afa80156123d2575f915f916121e1575b506119066118b76118736118246115878a6104e78b602061118e82516110ca81612b9d565b606081528351906110dc60c083612bd3565b608a82527f3c7376672073686170652d72656e646572696e673d2263726973704564676573848301527f222076696577426f783d223020302033302033302220786d6c6e733d22687474858301527f703a2f2f7777772e77332e6f72672f323030302f737667223e3c72656374207760608301527f696474683d223130302522206865696768743d2231303025222066696c6c3d2260808301526911b0b1b333181811179f60b11b60a0830152613887565b937f3031303134413441344131303061303130313441344134413131306130313031610360936111c081519586612bd3565b61032c85527f3064306230313031344134413441306530613031303134413441344130663061848601528401527f344134413441306530623031303134413441344130663062303130313441344160608401527f344131303062303130313441344134413131306230313031344134413441313260808401527f306230313031344134413441306430633031303134413441344130643064303160a08401527f303134413441344130643065303130313441344134413065306530313031344160c08401527f344134413066306530313031344134413441313030653031303134413441344160e08401527f31313065303130313441344134413132306530313031344134413441313230646101008401527f30313031344134413441313230633031303134413441344130663063303130316101208401527f34413441344131303063303130313441344134413063306630313031344134416101408401527f34413063306530313031344134413441306230663031303134413441344130616101608401527f31303031303134413441344131333065303130313441344134413133306630316101808401527f30313441344134413134306630313031344134413441306231303031303134416101a08401527f34413441313431303031303134413441344130613131303130313441344134416101c08401527f30623131303130313441344134413062313230313031344134413441306231336101e08401527f30313031344134413441306331333031303134413441344130633134303130316102008401527f34413441344130633135303130313441344134413064313430313031344134416102208401527f34413064313530313031344134413441306531353031303134413441344130666102408401527f31353031303134413441344131303135303130313441344134413131313530316102608401527f30313441344134413132313530313031344134413441313331353031303134416102808401527f34413441313431313031303134413441344131343132303130313441344134416102a08401527f31343133303130313441344134413133313330313031344134413441313331346102c08401527f30313031344134413441313531303031303134413441344131353131303130316102e08401527f34413441344131323134303130313441344134413064306630313031344134416103008401527f34413063313030313031344134413441313230663031303134413441344131336103208401526b31303031303134413441344160a01b6103408401520151906139c3565b6104e76102206115998c519182612bd3565b6101f881527f306530663031303146464646464630663066303130314646464646463130306660208201527f30313031464646464646313130663031303146464646464630643130303130318c8201527f464646464646306331313031303146464646464630633132303130314646464660608201527f464630643133303130314646464646463065313430313031464646464646306660808201527f313430313031464646464646313031343031303146464646464631313134303160a08201527f303146464646464631323133303130314646464646463133313230313031464660c08201527f464646463133313130313031464646464646313231303031303146464646464660e08201527f30653130303130314646464646463066313030313031464646464646313031306101008201527f30313031464646464646313131303031303146464646464631313131303130316101208201527f46464646464631303131303130314646464646463066313130313031464646466101408201527f46463065313130313031464646464646306431313031303146464646464630646101608201527f31323031303146464646464631303132303130314646464646463131313230316101808201527f30314646464646463132313230313031464646464646313231313031303146466101a08201527f46464646313031333031303146464646464630663133303130314646464646466101c08201527f30653133303130314646464646463065313230313031464646464646306631326101e08201527f303130314646464646463131313330313031464646464646000000000000000061020082015261180f5f612c05565b9061181c8d519283612bd3565b5f82526139c3565b6104e789516118338b82612bd3565b601c81527f306630643031303146354136323331303064303130314635413632330000000060208201526118665f612c05565b9061181c8c519283612bd3565b6104e788516118828a82612bd3565b601c81527f306530633031303146464646464631313063303130314646464646460000000060208201526020880151906139c3565b6104e787516118c68982612bd3565b601c81527f306530643031303130303030303031313064303130313030303030300000000060208201526118f95f612c05565b9061181c8a519283612bd3565b906119816060926104e7885161191c8682612bd3565b603881527f306431363031303146354136323330653136303130314635413632333131313660208201527f30313031463541363233313231363031303146354136323300000000000000008a8201526119745f612c05565b9061181c8b519283612bd3565b93865161198d81612b9d565b838152978451955f5b87811061211e5750611cef611d3c93611c9b611ca3889795611c9b611d9c9a8f8f611c5c7f2250656e676f2054797065222c202276616c7565223a2022000000000000000091611c57611a62611a17611a11611c9b9f8851906119f98a83612bd3565b60068252651e17b9bb339f60d11b6020830152613887565b51613ed8565b926104e7611a5c8851611a2981612b9d565b8a8152895190611a398b83612bd3565b60118252707b226e616d65223a202250656e676f202360781b6020830152613887565b91613d1d565b855190611a716101c083612bd3565b61018782527f222c226465736372697074696f6e223a202250656e6775696e204f6e6368616960208301527f6e20697320616e20696e6e6f766174697665206f6e2d636861696e204e465420878301527f70726f6a6563742074686174207075736865732074686520626f756e64617269888301527f6573206f662067656e657261746976652061727420616e6420626c6f636b636860808301527f61696e20637573746f6d697a6174696f6e2e20556e6c696b652074726164697460a08301527f696f6e616c204e465420636f6c6c656374696f6e73207468617420617265207060c08301527f72652d67656e65726174656420616e642073746f726564206f66662d6368616960e08301527f6e2c2065766572792050656e6775696e204e46542069732067656e65726174656101008301527f64207573696e6720616e20616c676f726974686d206469726563746c79206f6e6101208301527f2074686520626c6f636b636861696e2c20656e737572696e67207472756520646101408301527f6563656e7472616c697a6174696f6e20616e6420696d6d75746162696c6974796101608301527f2e222c22696d616765223a2022646174613a696d6167652f7376672b786d6c3b6101808301526618985cd94d8d0b60ca1b6101a0830152613887565b613887565b91611c6981519485612bd3565b603884527f222c2261747472696275746573223a205b7b2274726169745f74797065223a206020850152830152613887565b905190613887565b8c5190611cb08983612bd3565b602882527f227d2c7b2274726169745f74797065223a20224579652054797065222c20227660208301526730b63ab2911d101160c11b8e830152613887565b895190611cfc8683612bd3565b602982527f227d2c7b2274726169745f74797065223a20224c69666520476f616c222c20226020830152683b30b63ab2911d101160b91b8b830152613887565b611d4887519283612bd3565b603782527f227d2c7b2274726169745f74797065223a20224e657420576f7274682028416360208301527f636573736f7269657329222c202276616c7565223a202200000000000000000087830152613887565b905f905f905b8482106120f95750506020611dfa92611c57600483611dcd670de0b6b3a76400006104df9704613d1d565b8a519581879251918291018484015e8101630408aa8960e31b838201520301601b19810185520183612bd3565b6007549092906001600160a01b031680611ebb575b5050611e49611a116020949361056396611e9494611ea6575b50845190611e368683612bd3565b60028252615d7d60f01b87830152613887565b603d83519485927f646174613a6170706c69636174696f6e2f6a736f6e3b6261736536342c00000082850152828401815192839201905e8201015f815203601f198101845283612bd3565b51918291602083526020830190612cd0565b611c9b611eb5926104e7612f14565b87611e28565b5f5b8551637bb7bed160e01b815260048101829052602081602481865afa5f91816120be575b50611ef55750505050611e49611a11611e0f565b865163d2b91bd160e01b81526001600160a01b039091166004820181905260248201859052602082604481875afa9182156120b4579088915f9361207e575b5082611f4e575b5050505f1981146109f557600101611ebd565b81516395d89b4160e01b815293979391905f90839060049082905afa5f9281612026575b506104df936120079593611c5793611fff93155f14612010575050611c578b611fc3670de0b6b3a76400008251611fa98482612bd3565b60058152642a37b5b2b760d91b6020820152945b04613d1d565b95611fd082519283612bd3565b601b82527f2c7b2274726169745f74797065223a2022436c61696d61626c652000000000006020830152613887565b6104e7612f33565b93878681611f3b565b611fc3670de0b6b3a7640000611c579394611fbd565b91509391503d805f833e61203a8183612bd3565b8101602082820312610656578151936001600160401b03851161065657612007958b612071611fff946104df98611c579701612eba565b9597509350915093611f72565b915091506020813d82116120ac575b8161209a60209383612bd3565b8101031261065657879051918a611f34565b3d915061208d565b88513d5f823e3d90fd5b9091506020813d82116120f1575b816120d960209383612bd3565b81010312610656576120ea90612f00565b9089611ee1565b3d91506120cc565b909161211660019160a061210d8686612dc5565b51015190612e3b565b920190611da2565b99906121c98a611c5788611c578f611c5781611c578f9360019a6104e7886121496121559489612dc5565b51015161180f5f612c05565b9a826121d0575b8851906121698a83612bd3565b601082526f3d913a3930b4ba2fba3cb832911d101160811b6020830152896121a86020612196878a612dc5565b510151956121a2612f33565b98612dc5565b510151976121b4612f5e565b9a8051916121c183612b9d565b825252613887565b9a01611996565b6121dc906104e7612f14565b61215c565b9150503d805f833e6121f38183612bd3565b81019084818303126106565780516001600160401b0381116106565781019082601f830112156106565781519161222983612cb9565b9261223688519485612bd3565b80845260208085019160051b830101918583116106565760208101915b8383106122cf57505050506020810151906001600160401b038211610656570185818403126106565785519261228884612bb8565b81516001600160401b03811161065657816122a4918401612eba565b845260208201516001600160401b038111610656576122c39201612eba565b602083015290866110a5565b82516001600160401b03811161065657820190610100828903601f190112610656578a519161010083018381106001600160401b03821117610914578c52602081015183528b8101516001600160401b0381116106565789602061233592840101612eba565b602084015260608101516001600160401b0381116106565789602061235c92840101612eba565b8c8401526080810151906001600160401b038211610656576123868a602061010094840101612eba565b606085015260a0810151608085015260c081015160a08501526123ab60e08201612f00565b60c0850152015190811515820361065657826020939260e085940152815201920191612253565b84513d5f823e3d90fd5b34610656575f366003190112610656575f546040516001600160a01b039091168152602090f35b34610656575f3660031901126106565760055461241f81612cb9565b9061242d6040519283612bd3565b808252601f1961243c82612cb9565b015f5b81811061257a5750505f5b8181106124b857826040518091602082016020835281518091526040830190602060408260051b8601019301915f905b82821061248957505050500390f35b919360019193955060206124a88192603f198a82030186528851612cd0565b960192019201859493919261247a565b6124c181612e48565b50604051905f908054906124d482612e60565b8085529160018116908115612553575060011461251a575b5050906124fe81600194930382612bd3565b6125088286612dc5565b526125138185612dc5565b500161244a565b5f908152602081209092505b81831061253d57505081016020016124fe826124ec565b6001816020925483868801015201920191612526565b60ff191660208087019190915292151560051b850190920192506124fe91508390506124ec565b80606060208093870101520161243f565b34610656576040366003190112610656576004356001600160401b0381116106565736602382011215610656578060040135906125c782612cb9565b916125d56040519384612bd3565b8083526024602084019160051b8301019136831161065657602401905b82821061292257602435846001600160401b038211610656573660238301121561065657816004013561262481612cb9565b926126326040519485612bd3565b8184526024602085019260051b820101903682116106565760248101925b8284106128f357858560038151166128b9578151815160021c03612874575f9060605b835183101561279d578260021b838104600414841517156109f5576001600160f81b03196126a18285612dc5565b5160f81b16600182018083116109f5576001600160f81b0319906126c59086612dc5565b5160f81b1692600283018084116109f5576001600160f81b0319906126ea9087612dc5565b5160f81b16600384018094116109f55760019460209461279594869384926001600160f81b03199061271c908c612dc5565b5160f81b1690604051948486019384526021860152602285015260238401526004835261274a602484612bd3565b6127548a8c612dc5565b51926040519786899751918291018589015e860190838201905f8252519283915e0101905f8252805192839101825e015f815203601f198101835282612bd3565b920191612673565b6127a561317b565b81519091906001600160ff1b03811681036109f5576127c69060011b6131a9565b5f5b825181101561285e576001600160f81b03196127f16127e783866130de565b5160fc1c866130de565b51600183901b9291166001600160ff1b03821682036109f5575f1a61281683856130de565b536001600160f81b031961283a600f61282f84886130de565b5160f81c16876130de565b511691600181018091116109f5576128576001935f1a91856130de565b53016127c8565b6040516020808252819061056390820185612cd0565b60405162461bcd60e51b815260206004820152601860248201527f506978656c20616e6420636f6c6f72206d69736d6174636800000000000000006044820152606490fd5b60405162461bcd60e51b8152602060048201526012602482015271496e76616c696420706978656c206461746160701b6044820152606490fd5b83356001600160401b03811161065657602091612917839260243691870101612c20565b815201930192612650565b81358152602091820191016125f2565b34610656575f3660031901126106565761294a613124565b5f80546001600160a01b0319811682556001600160a01b03167f8be0079c531659141344cd1fd0a4f28419497f9722a3daafe3b4186f6b6457e08280a3005b34610656576020366003190112610656576004356001600160a01b03811690819003610656576129b7613124565b6001600160601b0360a01b60075416176007555f80f35b34610656576060366003190112610656576004356001600160401b038111610656576129fe903690600401612c20565b612a06612c99565b60ff602080612a13612ca9565b94604051928184925191829101835e8101600181520301902091165f5260205260ff60405f2091165f52602052602060ff60405f2054166040519015158152f35b34610656576020366003190112610656576004356001600160401b03811161065657612a84903690600401612c20565b604051612aab60ff835192602081818701958087835e810160028152030190205416612d21565b60405160208184518085835e8101600381520301902054612acb81612d61565b91612ad582612d61565b935f5b838110612b0957612afb8561056388604051938493604085526040850190612c66565b908382036020850152612c66565b8060ff612b2d6001936040516020818851808b835e81016003815203019020612d93565b90549060031b1c16612b3f8288612dc5565b5260ff612b61826040516020818851808b835e81016004815203019020612d93565b90549060031b1c16612b738289612dc5565b5201612ad8565b34610656575f366003190112610656576007546001600160a01b03168152602090f35b602081019081106001600160401b0382111761091457604052565b604081019081106001600160401b0382111761091457604052565b90601f801991011681019081106001600160401b0382111761091457604052565b60405190612c03604083612bd3565b565b6001600160401b03811161091457601f01601f191660200190565b81601f8201121561065657803590612c3782612c05565b92612c456040519485612bd3565b8284526020838301011161065657815f926020809301838601378301015290565b90602080835192838152019201905f5b818110612c835750505090565b8251845260209384019390920191600101612c76565b6024359060ff8216820361065657565b6044359060ff8216820361065657565b6001600160401b0381116109145760051b60200190565b805180835260209291819084018484015e5f828201840152601f01601f1916010190565b9181601f84011215610656578235916001600160401b038311610656576020838186019501011161065657565b15612d2857565b60405162461bcd60e51b815260206004820152601160248201527050617274206e6f7420616c6c6f7765642160781b6044820152606490fd5b90612d6b82612cb9565b612d786040519182612bd3565b8281528092612d89601f1991612cb9565b0190602036910137565b9190918054831015612db1575f52601f60205f208360051c01921690565b634e487b7160e01b5f52603260045260245ffd5b8051821015612db15760209160051b010190565b906005820291808304600514901517156109f557565b90600a820291808304600a14901517156109f557565b90601e820291808304601e14901517156109f557565b6109c40190816109c4116109f557565b61012c01908161012c116109f557565b919082018092116109f557565b600554811015612db15760055f5260205f2001905f90565b90600182811c92168015612e8e575b6020831014612e7a57565b634e487b7160e01b5f52602260045260245ffd5b91607f1691612e6f565b60405190612ea7604083612bd3565b6004825263426f647960e01b6020830152565b81601f8201121561065657805190612ed182612c05565b92612edf6040519485612bd3565b8284526020838301011161065657815f9260208093018386015e8301015290565b51906001600160a01b038216820361065657565b60405190612f23604083612bd3565b60018252600b60fa1b6020830152565b60405190612f42604083612bd3565b600d82526c111610113b30b63ab2911d101160991b6020830152565b60405190612f6d604083612bd3565b6002825261227d60f01b6020830152565b818110612f89575050565b5f8155600101612f7e565b80545f825580612fa2575050565b612c03915f52601f60205f20910160051c810190612f7e565b9190601f8111612fca57505050565b612c03925f5260205f20906020601f840160051c83019310612ff4575b601f0160051c0190612f7e565b9091508190612fe7565b9190918281146130d9576130128354612e60565b6001600160401b038111610914576130348161302e8454612e60565b84612fbb565b5f93601f82116001146130735761306492939482915f92613068575b50508160011b915f199060031b1c19161790565b9055565b015490505f80613050565b601f198216905f5260205f2094835f5260205f20915f5b8181106130c1575095836001959697106130a9575b505050811b019055565b01545f1960f88460031b161c191690555f808061309f565b9192600180602092868b01548155019401920161308a565b509050565b908151811015612db1570160200190565b8054600160401b8110156109145761310c91600182018155612d93565b60ff80839493549260031b9316831b921b1916179055565b5f546001600160a01b0316330361313757565b606460405162461bcd60e51b815260206004820152602060248201527f4f776e61626c653a2063616c6c6572206973206e6f7420746865206f776e65726044820152fd5b6040519061318a604083612bd3565b601082526f181899199a1a9b1b9c1ca0a121a222a360811b6020830152565b906131b382612c05565b6131c06040519182612bd3565b8281528092612d89601f1991612c05565b604051906131de82612bb8565b60606020838281520152565b604051906131f9604083612bd3565b60068252655a6f6d62696560d01b6020830152565b6040519061321d604083612bd3565b600682526519981a30989960d11b6020830152565b60405190613241604083612bd3565b600682526541726374696360d01b6020830152565b60405190613265604083612bd3565b60068252651a992098232360d11b6020830152565b60405190613289604083612bd3565b60048252634669726560e01b6020830152565b604051906132ab604083612bd3565b600682526507272606e62760d31b6020830152565b604051906132cf604083612bd3565b600682526546656d616c6560d01b6020830152565b604051906132f3604083612bd3565b60068252651ca11ca11ca160d11b6020830152565b60405190613317604083612bd3565b60048252634d616c6560e01b6020830152565b60405190613339604083612bd3565b60068252651a211a219a2360d11b6020830152565b6040519061335d604083612bd3565b600a8252695a6f6d6269652045796560b01b6020830152565b60405190613385604083612bd3565b600682526544373437353560d01b6020830152565b604051906133a9604083612bd3565b6009825268416e636573746f727360b81b6020830152565b604051906133d0604083612bd3565b600682526504230423042360d41b6020830152565b604051906133f4604083612bd3565b6006825265536c6565707960d01b6020830152565b60405190613418604083612bd3565b60068252650d0e0dcc904d60d21b6020830152565b6040519061343c604083612bd3565b600c82526b507572706c6520536861646560a01b6020830152565b60405190613466604083612bd3565b600682526541383637453160d01b6020830152565b6040519061348a604083612bd3565b600882526714dd185b99185c9960c21b6020830152565b604051906134b0604083612bd3565b600682526523232323232360d11b6020830152565b604051906134d4604083612bd3565b60078252662ab735b737bbb760c91b6020830152565b604051906134f9604083612bd3565b600682526503030303030360d41b6020830152565b906135176131d1565b5061c350810691602081519101207f21b0bc2edffd5fad1b6e5180fd7a2c57b79ce078356dae92e09334b0a3d7f18a81146136c7577f187f167c01c08bdab747205b9d88bf41c440c462989e37f628fdfef348aaacbb1461359657505061357c612bf4565b6135846134c5565b815261358e6134ea565b602082015290565b6135a29061103a612e98565b7ff41cb73ce9ba5c1f594bcdfd56e2d14e42d2ecc23f0a4863835bdd4baacd8b72905160208151910120146136ac5761c2246135e76135e082612dd9565b6064900490565b6135ff6135e06135f96135e085612def565b93612e05565b9061360981612e2b565b841061368e576136218361361c83612e2b565b612e3b565b8410613670576136379261361c61361c92612e2b565b1161365657613644612bf4565b61364c61347b565b815261358e6134a1565b61365e612bf4565b61366661342d565b815261358e613457565b5050505061367c612bf4565b6136846133e5565b815261358e613409565b5050505061369a612bf4565b6136a261339a565b815261358e6133c1565b506136b5612bf4565b6136bd61334e565b815261358e613376565b505061012c811061375e576103e88110613743576109c48110613728576136ef615cc6612e1b565b1161370e576136fc612bf4565b613704613308565b815261358e61332a565b613716612bf4565b61371e6132c0565b815261358e6132e4565b50613731612bf4565b61373961327a565b815261358e61329c565b5061374c612bf4565b613754613232565b815261358e613256565b50613767612bf4565b61376f6131ea565b815261358e61320e565b9060405161378681612b9d565b60608152604052600151828115613882578051908151809301601f198301516605c284b9def7798082061591040291828210916020601f1991851785010116928015601f19602088011691856605c284b9def779029415613810575b50505f600152506020925050505b6001810151828401820152601f1901806137f057505f6020838301015252565b60409087949596970101604051181715613864576060946040519360208501968792860101604052525b8181015183820160200152601f1901908115613856579061383a565b5050525f80808080806137e2565b50929050604091601f198401528201016040525f80808080806137e2565b925050565b91909160405161389681612b9d565b60608152604052809280519081156139bc57825191825180910193601f198401516605c284b9def779808206159104029081861090601f19602088851785010116928015601f19602087011691856605c284b9def779029415613941575b50505050505060018214613936575b8151602001601f19165b82810151848301820152601f1901918215613928579161390d565b5050505f6020838301015252565b92505f815282613903565b6040908994959699989798010160405118171561399b5760609495966040519360208501968792860101604052525b8181015183820160200152601f190190811561398c5790613970565b505052915f80808080806138f4565b50949050604091601f949394198601528401016040525f80808080806138f4565b5090925050565b6139cc90613d62565b6007815106613cd85760078151049180511515916040516139ec81612b9d565b6060815260308502858104603014861517156109f557604051613a0e81612b9d565b6060815260405281805151808311613ca3575b5091955f959490939250604091505b838610613a41575050505050505190565b90919293949560078702878104600714881517156109f5578615613bdb57613acd613aa9613a9385945b875190613a788983612bd3565b60098252683c7265637420783d2760b81b6020830152613887565b6104e7613aa0858a6130de565b5160f81c613d1d565b855190613ab68783612bd3565b60058252642720793d2760d81b6020830152613887565b600182018083116109f557613b14916104e7613aa0613aec938a6130de565b855190613af98783612bd3565b6009825268272077696474683d2760b81b6020830152613887565b600282018083116109f557613b5c916104e7613aa0613b33938a6130de565b855190613b408783612bd3565b600a82526927206865696768743d2760b01b6020830152613887565b90600381018091116109f557600192611c57613b85613bcf946104e7613aa0613bad968c6130de565b875190613b928983612bd3565b6009825268272066696c6c3d272360b81b6020830152613887565b845190613bba8683612bd3565b600382526213979f60e91b6020830152613887565b96019493929190613a30565b600481018082116109f557613c05906001600160f81b031990613bfe90886130de565b5116613e5f565b600582018083116109f557613c28906001600160f81b031990613bfe90896130de565b9060068301908184116109f5576020613c9d613a9392828a8180613acd998f613c5d90613bfe613aa99c60ff60f81b926130de565b93519786899751918291018489015e8601908282015f8152815193849201905e0101905f8252805192839101825e015f815203601f198101835282612bd3565b94613a6b565b90919250604060015b15613cb8575b5f613cac565b60011b838110613cb257613cd0935003600152613779565b5f8080613a21565b60405162461bcd60e51b815260206004820152601960248201527f496e76616c696420706978656c2064617461206c656e677468000000000000006044820152606490fd5b90604051600a608082019360a083016040525f8552935b5f190193603082820601855304928315613d5057600a90613d34565b809350608091030191601f1901918252565b805160018116613e1a5760011c613d78816131a9565b915f5b828110613d885750505090565b600181901b6001600160ff1b03821682036109f557613dba6001600160f81b0319613db383866130de565b5116613fc8565b60041b90610ff060f08316921682036109f557600181018091116109f557613dec60ff91613db38360f81b91876130de565b16019060ff82116109f55760019160f81b6001600160f81b0319165f1a613e1382876130de565b5301613d7b565b60405162461bcd60e51b815260206004820152601960248201527f496e76616c69642068657820737472696e67206c656e677468000000000000006044820152606490fd5b613e6761317b565b9060405191613e77604084612bd3565b60028352602080840191903683376001600160f81b0319613e9c60fc85901c836130de565b51165f1a845115612db157613ec292536001600160f81b03199260f81c600f16906130de565b51165f1a815160011015612db157602182015390565b80516060929181613ee7575050565b9092506003600284010460021b90604051937f4142434445464748494a4b4c4d4e4f505152535455565758595a616263646566601f526106707f6768696a6b6c6d6e6f707172737475767778797a303132333435363738392d5f18603f52602085019083860191602083019260208386010191600460038451975f86525b0191603f8351818160121c16515f538181600c1c1651600153818160061c165160025316516003535f518152019085821015613fa657600490600390613f65565b5093505f9460409252016040526003613d3d60f01b9106600204820352528252565b60f81c603081101580614078575b6140695760418110158061405e575b61404f57606181101580614044575b6140355760405162461bcd60e51b815260206004820152601560248201527424b73b30b634b2103432bc1031b430b930b1ba32b960591b6044820152606490fd5b6056190160ff81116109f55790565b506066811115613ff4565b6036190160ff81116109f55790565b506046811115613fe5565b602f190160ff81116109f55790565b506039811115613fd656fea26469706673582212208125fd2dc2bfbe33d3ca5702c833ccbf72b125c43eaa6593fd296750972c776e64736f6c634300081b0033",
  "linkReferences": {},
  "deployedLinkReferences": {}
}