{
  "_format": "hh-sol-artifact-1",
  "contractName": "PengoBondingCurve",
  "sourceName": "contracts/ERC20/PengoBondingCurve.sol",
  "abi": [
    {
      "inputs": [
        {
          "internalType": "address",
          "name": "_pengoToken",
          "type": "address"
        },
        {
          "internalType": "address",
          "name": "_poolManager",
          "type": "address"
        },
        {
          "internalType": "address",
          "name": "_positionManager",
          "type": "address"
        },
        {
          "internalType": "address",
          "name": "_permit2",
          "type": "address"
        },
        {
          "internalType": "address",
          "name": "_strategyVault",
          "type": "address"
        },
        {
          "internalType": "uint256",
          "name": "_targetLiquidity",
          "type": "uint256"
        }
      ],
      "stateMutability": "nonpayable",
      "type": "constructor"
    },
    {
      "anonymous": false,
      "inputs": [
        {
          "indexed": false,
          "internalType": "uint256",
          "name": "ethAmount",
          "type": "uint256"
        },
        {
          "indexed": false,
          "internalType": "uint256",
          "name": "tokenAmount",
          "type": "uint256"
        },
        {
          "indexed": false,
          "internalType": "uint256",
          "name": "lpTokens",
          "type": "uint256"
        }
      ],
      "name": "LiquidityMigrated",
      "type": "event"
    },
    {
      "anonymous": false,
      "inputs": [
        {
          "indexed": true,
          "internalType": "address",
          "name": "previousOwner",
          "type": "address"
        },
        {
          "indexed": true,
          "internalType": "address",
          "name": "newOwner",
          "type": "address"
        }
      ],
      "name": "OwnershipTransferred",
      "type": "event"
    },
    {
      "anonymous": false,
      "inputs": [
        {
          "indexed": true,
          "internalType": "address",
          "name": "buyer",
          "type": "address"
        },
        {
          "indexed": false,
          "internalType": "uint256",
          "name": "amount",
          "type": "uint256"
        },
        {
          "indexed": false,
          "internalType": "uint256",
          "name": "cost",
          "type": "uint256"
        },
        {
          "indexed": false,
          "internalType": "uint256",
          "name": "taxEth",
          "type": "uint256"
        }
      ],
      "name": "TokensPurchased",
      "type": "event"
    },
    {
      "anonymous": false,
      "inputs": [
        {
          "indexed": true,
          "internalType": "address",
          "name": "seller",
          "type": "address"
        },
        {
          "indexed": false,
          "internalType": "uint256",
          "name": "amount",
          "type": "uint256"
        },
        {
          "indexed": false,
          "internalType": "uint256",
          "name": "returnEth",
          "type": "uint256"
        },
        {
          "indexed": false,
          "internalType": "uint256",
          "name": "taxEth",
          "type": "uint256"
        }
      ],
      "name": "TokensSold",
      "type": "event"
    },
    {
      "inputs": [],
      "name": "TARGET_LIQUIDITY",
      "outputs": [
        {
          "internalType": "uint256",
          "name": "",
          "type": "uint256"
        }
      ],
      "stateMutability": "view",
      "type": "function"
    },
    {
      "inputs": [],
      "name": "TOKENS_FOR_LIQUIDITY",
      "outputs": [
        {
          "internalType": "uint256",
          "name": "",
          "type": "uint256"
        }
      ],
      "stateMutability": "view",
      "type": "function"
    },
    {
      "inputs": [],
      "name": "TOKENS_FOR_SALE",
      "outputs": [
        {
          "internalType": "uint256",
          "name": "",
          "type": "uint256"
        }
      ],
      "stateMutability": "view",
      "type": "function"
    },
    {
      "inputs": [],
      "name": "basePrice",
      "outputs": [
        {
          "internalType": "uint256",
          "name": "",
          "type": "uint256"
        }
      ],
      "stateMutability": "view",
      "type": "function"
    },
    {
      "inputs": [
        {
          "internalType": "uint256",
          "name": "amount",
          "type": "uint256"
        }
      ],
      "name": "buy",
      "outputs": [],
      "stateMutability": "payable",
      "type": "function"
    },
    {
      "inputs": [
        {
          "internalType": "uint256",
          "name": "amount",
          "type": "uint256"
        }
      ],
      "name": "getCost",
      "outputs": [
        {
          "internalType": "uint256",
          "name": "totalCost",
          "type": "uint256"
        },
        {
          "internalType": "uint256",
          "name": "taxEth",
          "type": "uint256"
        }
      ],
      "stateMutability": "view",
      "type": "function"
    },
    {
      "inputs": [
        {
          "internalType": "uint256",
          "name": "amount",
          "type": "uint256"
        }
      ],
      "name": "getSellValue",
      "outputs": [
        {
          "internalType": "uint256",
          "name": "returnEth",
          "type": "uint256"
        },
        {
          "internalType": "uint256",
          "name": "taxEth",
          "type": "uint256"
        }
      ],
      "stateMutability": "view",
      "type": "function"
    },
    {
      "inputs": [],
      "name": "isMigrated",
      "outputs": [
        {
          "internalType": "bool",
          "name": "",
          "type": "bool"
        }
      ],
      "stateMutability": "view",
      "type": "function"
    },
    {
      "inputs": [],
      "name": "owner",
      "outputs": [
        {
          "internalType": "address",
          "name": "",
          "type": "address"
        }
      ],
      "stateMutability": "view",
      "type": "function"
    },
    {
      "inputs": [],
      "name": "pengoToken",
      "outputs": [
        {
          "internalType": "contract IERC20",
          "name": "",
          "type": "address"
        }
      ],
      "stateMutability": "view",
      "type": "function"
    },
    {
      "inputs": [],
      "name": "permit2",
      "outputs": [
        {
          "internalType": "contract IAllowanceTransfer",
          "name": "",
          "type": "address"
        }
      ],
      "stateMutability": "view",
      "type": "function"
    },
    {
      "inputs": [],
      "name": "poolManager",
      "outputs": [
        {
          "internalType": "contract IPoolManager",
          "name": "",
          "type": "address"
        }
      ],
      "stateMutability": "view",
      "type": "function"
    },
    {
      "inputs": [],
      "name": "positionManager",
      "outputs": [
        {
          "internalType": "contract IPositionManager",
          "name": "",
          "type": "address"
        }
      ],
      "stateMutability": "view",
      "type": "function"
    },
    {
      "inputs": [],
      "name": "priceIncrement",
      "outputs": [
        {
          "internalType": "uint256",
          "name": "",
          "type": "uint256"
        }
      ],
      "stateMutability": "view",
      "type": "function"
    },
    {
      "inputs": [],
      "name": "renounceOwnership",
      "outputs": [],
      "stateMutability": "nonpayable",
      "type": "function"
    },
    {
      "inputs": [
        {
          "internalType": "uint256",
          "name": "amount",
          "type": "uint256"
        }
      ],
      "name": "sell",
      "outputs": [],
      "stateMutability": "nonpayable",
      "type": "function"
    },
    {
      "inputs": [],
      "name": "strategyVault",
      "outputs": [
        {
          "internalType": "address",
          "name": "",
          "type": "address"
        }
      ],
      "stateMutability": "view",
      "type": "function"
    },
    {
      "inputs": [],
      "name": "tokensSold",
      "outputs": [
        {
          "internalType": "uint256",
          "name": "",
          "type": "uint256"
        }
      ],
      "stateMutability": "view",
      "type": "function"
    },
    {
      "inputs": [
        {
          "internalType": "address",
          "name": "newOwner",
          "type": "address"
        }
      ],
      "name": "transferOwnership",
      "outputs": [],
      "stateMutability": "nonpayable",
      "type": "function"
    }
  ],
  "bytecode": "0x60e03461024f57601f611c7938819003918201601f19168301916001600160401b038311848410176102535780849260c09460405283398101031261024f5761004781610267565b9061005460208201610267565b61006060408301610267565b61006c60608401610267565b9160a061007b60808601610267565b9401515f8054336001600160a01b0319821681178355929792916001600160a01b03909116907f8be0079c531659141344cd1fd0a4f28419497f9722a3daafe3b4186f6b6457e09080a3600180546001600160a01b03199081166001600160a01b039384161782556002805482169484169490941784556003805482169584169590951790945560048054909416949091169390931790915560068054610100600160a81b03191660089490941b610100600160a81b03169390931790925560808390526019632faf080084040460a08190529083901b92909181159184041417156101eb578060011b90808204600214901517156101eb57632faf0800810290808204632faf080014901517156101eb57808211156101ff5781039081116101eb576708e1bc9bc090f800900460c0526040516119fd908161027c823960805181610f5b015260a051818181610e2f015261115d015260c0518181816110240152818161113501526112100152f35b634e487b7160e01b5f52601160045260245ffd5b60405162461bcd60e51b815260206004820152602260248201527f496e76616c696420746172676574206c697175696469747920666f7220637572604482015261766560f01b6064820152608490fd5b5f80fd5b634e487b7160e01b5f52604160045260245ffd5b51906001600160a01b038216820361024f5756fe6080806040526004361015610012575f80fd5b5f905f3560e01c90816312261ee71461106c575080631f39402714611047578063280d62ac1461100d5780634009909814610fe1578063487ef21614610fb9578063518ab2a814610f9c5780635a4dd47d14610f7e5780635c95eb5214610f44578063715018a614610eed578063791b98bc14610ec55780637939a10b14610e9b5780638da5cb5b14610e74578063b06faf6214610e52578063c7876ea414610e18578063c8612b2f14610df2578063d96a094a146103af578063dc4c90d314610386578063e4849b32146101bd5763f2fde38b146100ef575f80fd5b346101ba5760203660031901126101ba576004356001600160a01b038116908190036101b85761011d61138d565b80156101645781546001600160a01b03198116821783556001600160a01b03167f8be0079c531659141344cd1fd0a4f28419497f9722a3daafe3b4186f6b6457e08380a380f35b60405162461bcd60e51b815260206004820152602660248201527f4f776e61626c653a206e6577206f776e657220697320746865207a65726f206160448201526564647265737360d01b6064820152608490fd5b505b80fd5b50346101ba5760203660031901126101ba576004356101e160ff60065416156112b9565b8015610342576101f0816111d1565b8147106102fd57610203836005546110fb565b6005556001546040516323b872dd60e01b815233600482015230602482015260448101859052906020908290606490829089906001600160a01b03165af180156102f2576102589186916102c3575b50611349565b83808380156102b9575b8280929181923390f1156102ae576040805193845260208401929092529082015233907f6db63bebf1e6540277744df32846ebdb98385b1a73f2d5de49b28348add63f5090606090a280f35b6040513d85823e3d90fd5b6108fc9150610262565b6102e5915060203d6020116102eb575b6102dd818361130f565b810190611331565b5f610252565b503d6102d3565b6040513d87823e3d90fd5b60405162461bcd60e51b815260206004820152601d60248201527f436f6e74726163742068617320696e73756666696369656e74204554480000006044820152606490fd5b606460405162461bcd60e51b815260206004820152602060248201527f416d6f756e74206d7573742062652067726561746572207468616e207a65726f6044820152fd5b50346101ba57806003193601126101ba576002546040516001600160a01b039091168152602090f35b506020366003190112610ac4576004356103ce60ff60065416156112b9565b600554906b0295be96e6406697200000006103e982846110ee565b11610db9575b8015610d74576103fe81611108565b9092833410610d375782610411916110ee565b60055560015460405163a9059cbb60e01b8152336004820152602481018490529190602090839060449082905f906001600160a01b03165af1908115610b4a576104866104a3927f0d1a0d5e3d583a0e92588799dd06e50fd78c07daf05f0cc06d7b848b1ca445f1945f916102c35750611349565b604080519485526020850186905284015233929081906060820190565b0390a2803411610d0a575b506b0295be96e640669720000000600554146104c75780f35b6006805460ff19166001908117909155546040516370a0823160e01b815230600482015247916001600160a01b031690602081602481855afa8015610b4a575f90610ccd575b6aa56fa5b99019a5c8000000915010610c88576040519160a0830183811067ffffffffffffffff821117610c74576040525f8352816020840152610bb86040840152603c60608401525f608084015260018060a01b03600254169283151580610c60575b15610c155762a56fa5821115610ac4575f602083600160c01b6aa56fa5b99019a5c800000009848084031690818604600281600302188082026002030280820260020302808202600203028082026002030280820260020302809102600203029160018180870304016417320334b960db1b831162a56fa50302916417320334b960db1b030417028070ffffffffffffffffffffffffffffffffff1060071b81811c68ffffffffffffffffff1060061b1781811c64ffffffffff1060051b1781811c62ffffff1060041b1760b56201000083831c019160011c1b0260121c8082040160011c8082040160011c8082040160011c8082040160011c8082040160011c8082040160011c8082040160011c808060018060a01b039304109003169560c46040518094819363313b65df60e11b83526106b060048401896113e4565b8a60a48401525af18015610b4a57610bdc575b506106d06139c219611427565b926106dc6139c3611427565b94836106e7866115e4565b916106f1886115e4565b9081846001600160a01b0380831690821611610bd0575b50506001600160a01b0384168111610b72575061072492611957565b905b6001546004805460405163095ea7b360e01b81526001600160a01b03918216928101929092525f1960248301529091602091839160449183915f91165af18015610b4a57610b55575b506004546001546003546001600160a01b03928316929182169116823b15610ac4576040516387517c4560e01b8152600481019290925260248201526001600160a01b03604482015265ffffffffffff6064820152905f908290608490829084905af18015610b4a57610b35575b50604051600160f91b6020820152600d60f81b60218201526002815287939092919061080a60228561130f565b6060966040519361081b898661130f565b60028552601f198901875b818110610b225750506001600160801b03169860018060a01b0360065460081c16916108596040519460208601906113e4565b60020b60c084015260020b60e0830152886101008301526001600160801b0387166101208301526aa56fa5b99019a5c800000061014083015261016082015261018080820152846101a08201526101a081526108b76101c08261130f565b6108c08361143c565b526108ca8261143c565b50604051908460208301526040820152604081526108e8868261130f565b6108f18261145d565b526108fb8161145d565b5060018060a01b03600354169061091f60405193604060208601528785019061146d565b601f19848203016040850152815180825260208201916020808360051b83010194019287915b838310610aed575050505050826109649103601f19810184528361130f565b803b15610ae9576109968391859360405194858094819363dd46508f60e01b835260406004840152604483019061146d565b42602483015203925af18015610a8a57610ad0575b50507fb601ba6099d0385f3a4bad0485aa6ff9186cda7fff3307a3b408b9ecee520e6f926040519182526aa56fa5b99019a5c800000060208301526040820152a15b6001546040516370a0823160e01b815230600482015282916001600160a01b0316602082602481845afa9182156102ae578392610a95575b5081610a32575b50505080f35b6044602092604051948593849263a9059cbb60e01b845261dead600485015260248401525af18015610a8a57610a6b575b808291610a2c565b610a839060203d6020116102eb576102dd818361130f565b505f610a63565b6040513d84823e3d90fd5b925090506020823d602011610ac8575b81610ab26020938361130f565b81010312610ac457829151905f610a25565b5f80fd5b3d9150610aa5565b81610ada9161130f565b610ae557835f6109ab565b8380fd5b8280fd5b9193959697509193602080610b0e600193601f19868203018752895161146d565b97019301930190928b979695949293610945565b602087820181018c90528d995001610826565b610b429197505f9061130f565b5f955f6107dd565b6040513d5f823e3d90fd5b610b6d9060203d6020116102eb576102dd818361130f565b61076f565b91906001600160a01b038116831015610bc4578291610b9491610b9a94611957565b92611911565b6001600160801b0381166001600160801b038316105f14610bbd57505b90610726565b9050610bb7565b915050610bb791611911565b90945091505f80610708565b6020813d602011610c0d575b81610bf56020938361130f565b81010312610ac457518060020b8103156106c3575f80fd5b3d9150610be8565b507fb601ba6099d0385f3a4bad0485aa6ff9186cda7fff3307a3b408b9ecee520e6f9250606091506040519081526aa56fa5b99019a5c800000060208201525f6040820152a16109ed565b506003546001600160a01b03161515610571565b634e487b7160e01b5f52604160045260245ffd5b60405162461bcd60e51b815260206004820152601860248201527f4e6f7420656e6f75676820746f6b656e7320666f72204c5000000000000000006044820152606490fd5b506020813d602011610d02575b81610ce76020938361130f565b81010312610ac4576aa56fa5b99019a5c8000000905161050d565b3d9150610cda565b5f8080610d188194346110fb565b818115610d2e575b3390f115610b4a575f6104ae565b506108fc610d20565b60405162461bcd60e51b8152602060048201526015602482015274125b9cdd59999a58da595b9d08115512081cd95b9d605a1b6044820152606490fd5b60405162461bcd60e51b815260206004820152601c60248201527f4e6f20746f6b656e7320617661696c61626c6520666f722073616c65000000006044820152606490fd5b50806b0295be96e640669720000000036b0295be96e6406697200000008111156103ef575b634e487b7160e01b5f52601160045260245ffd5b34610ac4575f366003190112610ac45760206040516b0295be96e6406697200000008152f35b34610ac4575f366003190112610ac45760206040517f00000000000000000000000000000000000000000000000000000000000000008152f35b34610ac4575f366003190112610ac457602060ff600654166040519015158152f35b34610ac4575f366003190112610ac4575f546040516001600160a01b039091168152602090f35b34610ac4576020366003190112610ac4576040610eb96004356111d1565b82519182526020820152f35b34610ac4575f366003190112610ac4576003546040516001600160a01b039091168152602090f35b34610ac4575f366003190112610ac457610f0561138d565b5f80546001600160a01b0319811682556001600160a01b03167f8be0079c531659141344cd1fd0a4f28419497f9722a3daafe3b4186f6b6457e08280a3005b34610ac4575f366003190112610ac45760206040517f00000000000000000000000000000000000000000000000000000000000000008152f35b34610ac4576020366003190112610ac4576040610eb9600435611108565b34610ac4575f366003190112610ac4576020600554604051908152f35b34610ac4575f366003190112610ac4576001546040516001600160a01b039091168152602090f35b34610ac4575f366003190112610ac45760065460405160089190911c6001600160a01b03168152602090f35b34610ac4575f366003190112610ac45760206040517f00000000000000000000000000000000000000000000000000000000000000008152f35b34610ac4575f366003190112610ac45760206040516aa56fa5b99019a5c80000008152f35b34610ac4575f366003190112610ac4576004546001600160a01b03168152602090f35b1561109657565b60405162461bcd60e51b815260206004820152601d60248201527f416d6f756e74206d75737420626520696e2066756c6c20746f6b656e730000006044820152606490fd5b81810292918115918404141715610dde57565b91908201809211610dde57565b91908203918211610dde57565b670de0b6b3a76400009061111e8282061561108f565b04670de0b6b3a7640000600554049061118161115b7f000000000000000000000000000000000000000000000000000000000000000080946110db565b7f00000000000000000000000000000000000000000000000000000000000000006110ee565b916001600160ff1b0383168303610dde575f19820192828411610dde576111ae6111b7926111bd956110db565b9060011b6110ee565b906110db565b60011c6111ce6064820480926110ee565b91565b6111e5670de0b6b3a764000082061561108f565b600554908181116112745761120681670de0b6b3a7640000809304936110fb565b049061123661115b7f000000000000000000000000000000000000000000000000000000000000000080946110db565b916001600160ff1b0383168303610dde575f19820192828411610dde576111ae6111b792611263956110db565b60011c6111ce6064820480926110fb565b60405162461bcd60e51b815260206004820152601a60248201527f416d6f756e74206578636565647320746f6b656e7320736f6c640000000000006044820152606490fd5b156112c057565b60405162461bcd60e51b815260206004820152602160248201527f4c697175696469747920616c7265616479206d6967726174656420746f2044456044820152600b60fb1b6064820152608490fd5b90601f8019910116810190811067ffffffffffffffff821117610c7457604052565b90816020910312610ac457518015158103610ac45790565b1561135057565b60405162461bcd60e51b8152602060048201526015602482015274151bdad95b881d1c985b9cd9995c8819985a5b1959605a1b6044820152606490fd5b5f546001600160a01b031633036113a057565b606460405162461bcd60e51b815260206004820152602060248201527f4f776e61626c653a2063616c6c6572206973206e6f7420746865206f776e65726044820152fd5b80516001600160a01b03908116835260208083015182169084015260408083015162ffffff169084015260608083015160020b9084015260809182015116910152565b603c9060020b02908160020b918203610dde57565b8051156114495760200190565b634e487b7160e01b5f52603260045260245ffd5b8051600110156114495760400190565b805180835260209291819084018484015e5f828201840152601f01601f1916010190565b90606082901b905f19600160601b840992828085109403938085039485841115610ac45714611514578190600160601b900981805f03168092046002816003021880820260020302808202600203028082026002030280820260020302808202600203028091026002030293600183805f03040190848311900302920304170290565b5091500490565b81810291905f1982820991838084109303928084039384600160601b1115610ac4571461155b57600160601b910990828211900360a01b910360601c1790565b50505060601c90565b91818302915f1981850993838086109503948086039586851115610ac457146115dc579082910981805f03168092046002816003021880820260020302808202600203028082026002030280820260020302808202600203028091026002030293600183805f03040190848311900302920304170290565b505091500490565b60020b908160ff1d82810118620d89e881116118fe5763ffffffff9192600182167001fffcb933bd6fad37aa2d162d1a59400102600160801b1891600281166118e2575b600481166118c6575b600881166118aa575b6010811661188e575b60208116611872575b60408116611856575b6080811661183a575b610100811661181e575b6102008116611802575b61040081166117e6575b61080081166117ca575b61100081166117ae575b6120008116611792575b6140008116611776575b618000811661175a575b62010000811661173e575b620200008116611723575b620400008116611708575b62080000166116ef575b5f126116e7575b0160201c90565b5f19046116e0565b6b048a170391f7dc42444e8fa290910260801c906116d9565b6d2216e584f5fa1ea926041bedfe9890920260801c916116cf565b916e5d6af8dedb81196699c329225ee6040260801c916116c4565b916f09aa508b5b7a84e1c677de54f3e99bc90260801c916116b9565b916f31be135f97d08fd981231505542fcfa60260801c916116ae565b916f70d869a156d2a1b890bb3df62baf32f70260801c916116a4565b916fa9f746462d870fdf8a65dc1f90e061e50260801c9161169a565b916fd097f3bdfd2022b8845ad8f792aa58250260801c91611690565b916fe7159475a2c29b7443b29c7fa6e889d90260801c91611686565b916ff3392b0822b70005940c7a398e4b70f30260801c9161167c565b916ff987a7253ac413176f2b074cf7815e540260801c91611672565b916ffcbe86c7900a88aedcffc83b479aa3a40260801c91611668565b916ffe5dee046a99a2a811c461f1969c30530260801c9161165e565b916fff2ea16466c96a3843ec78b326b528610260801c91611655565b916fff973b41fa98c081472e6896dfb254c00260801c9161164c565b916fffcb9843d60f6159c9db58835c9266440260801c91611643565b916fffe5caca7e10e4e61c3624eaa0941cd00260801c9161163a565b916ffff2e50f5f656932ef12357cf3c7fdcc0260801c91611631565b916ffff97272373d413259a46990580e213a0260801c91611628565b826345c3193d60e11b5f5260045260245ffd5b61194e91611949916001600160a01b0380831690821611611951575b90036001600160a01b03166aa56fa5b99019a5c8000000611491565b6119a4565b90565b9061192d565b61194e92611949929091906001600160a01b038082169083161161199e575b61198c6001600160a01b0382811690841661151b565b9190036001600160a01b031691611564565b90611976565b906001600160801b0382168092036119b857565b6393dafdf160e01b5f5260045ffdfea26469706673582212207f5aa555c8993baa7e629dc0df91096a435c9f3e677af33909b483907229d58264736f6c634300081b0033",
  "linkReferences": {},
  "deployedLinkReferences": {}
}