{
  "_format": "hh-sol-artifact-1",
  "contractName": "PengoFactory",
  "sourceName": "contracts/utils/PengoFactory.sol",
  "abi": [
    {
      "inputs": [],
      "stateMutability": "nonpayable",
      "type": "constructor"
    },
    {
      "anonymous": false,
      "inputs": [
        {
          "indexed": true,
          "internalType": "address",
          "name": "previousOwner",
          "type": "address"
        },
        {
          "indexed": true,
          "internalType": "address",
          "name": "newOwner",
          "type": "address"
        }
      ],
      "name": "OwnershipTransferred",
      "type": "event"
    },
    {
      "inputs": [],
      "name": "owner",
      "outputs": [
        {
          "internalType": "address",
          "name": "",
          "type": "address"
        }
      ],
      "stateMutability": "view",
      "type": "function"
    },
    {
      "inputs": [],
      "name": "pengoContract",
      "outputs": [
        {
          "internalType": "contract IPenguinOnchain",
          "name": "",
          "type": "address"
        }
      ],
      "stateMutability": "view",
      "type": "function"
    },
    {
      "inputs": [],
      "name": "renounceOwnership",
      "outputs": [],
      "stateMutability": "nonpayable",
      "type": "function"
    },
    {
      "inputs": [
        {
          "internalType": "address",
          "name": "_pengoContract",
          "type": "address"
        }
      ],
      "name": "setPengoContract",
      "outputs": [],
      "stateMutability": "nonpayable",
      "type": "function"
    },
    {
      "inputs": [
        {
          "internalType": "uint256",
          "name": "tokenId",
          "type": "uint256"
        },
        {
          "internalType": "uint256",
          "name": "seed",
          "type": "uint256"
        }
      ],
      "name": "tokenURI",
      "outputs": [
        {
          "internalType": "string",
          "name": "",
          "type": "string"
        }
      ],
      "stateMutability": "view",
      "type": "function"
    },
    {
      "inputs": [
        {
          "internalType": "address",
          "name": "newOwner",
          "type": "address"
        }
      ],
      "name": "transferOwnership",
      "outputs": [],
      "stateMutability": "nonpayable",
      "type": "function"
    }
  ],
  "bytecode": "0x60806040523461002257610011610027565b604051612b9e6101068239612b9e90f35b600080fd5b61002f610031565b565b61002f336100ae565b61004b905b6001600160a01b031690565b90565b61004b905461003a565b61004b9061003f906001600160a01b031682565b61004b90610058565b61004b9061006c565b9061008e61004b6100aa92610075565b82546001600160a01b0319166001600160a01b03919091161790565b9055565b6100d46100ce6100be600061004e565b6100c984600061007e565b610075565b91610075565b907f8be0079c531659141344cd1fd0a4f28419497f9722a3daafe3b4186f6b6457e06100ff60405190565b600090a356fe6080604052600436101561001257600080fd5b60003560e01c8063715018a6146100725780638da5cb5b1461006d57806392cb829d14610068578063ac98413114610063578063df0cfde21461005e5763f2fde38b0361008257610299565b610281565b61022a565b610198565b6100be565b610087565b600091031261008257565b600080fd5b3461008257610097366004610077565b61009f6102e9565b60405180805b0390f35b6001600160a01b031690565b90565b9052565b565b34610082576100ce366004610077565b6100a56100d9610304565b604051918291826001600160a01b03909116815260200190565b805b0361008257565b905035906100bc826100f3565b9190604083820312610082576100b590602061012582866100fc565b94016100fc565b60005b83811061013f5750506000910152565b818101518382015260200161012f565b61017061017960209361018393610164815190565b80835293849260200190565b9586910161012c565b601f01601f191690565b0190565b60208082526100b59291019061014f565b34610082576100a56101b46101ae366004610109565b90611162565b60405191829182610187565b6100b5916008021c6001600160a01b031690565b906100b591546101c0565b6100b5600060016101d4565b6100b5906100a9906001600160a01b031682565b6100b5906101eb565b6100b5906101ff565b6100b890610208565b6020810192916100bc9190610211565b346100825761023a366004610077565b6100a56102456101df565b6040519182918261021a565b6001600160a01b0381166100f5565b905035906100bc82610251565b90602082820312610082576100b591610260565b346100825761009f61029436600461026d565b611542565b346100825761009f6102ac36600461026d565b6115eb565b6102b9611644565b6100bc6102d7565b6100a96100b56100b59290565b6100b5906102c1565b6100bc6102e460006102ce565b61166e565b6100bc6102b1565b6100b5906100a9565b6100b590546102f1565b6100b560006102fa565b634e487b7160e01b600052604160045260246000fd5b90601f01601f1916810190811067ffffffffffffffff82111761034657604052565b61030e565b906100bc61035860405190565b9283610324565b67ffffffffffffffff811161034657602090601f01601f19160190565b9061038e6103898361035f565b61034b565b918252565b61039d600461037c565b63426f647960e01b602082015290565b6100b5610393565b6103bf600761037c565b66746f705f65796560c81b602082015290565b6100b56103b5565b67ffffffffffffffff81116103465760208091020190565b909291926104026103898261035f565b9381855281830111610082576100bc91602085019061012c565b9080601f830112156100825781516100b5926020016103f2565b905051906100bc826100f3565b905051906100bc82610251565b8015156100f5565b905051906100bc82610450565b91909160e0818403126100825761047c60e061034b565b92600082015167ffffffffffffffff8111610082578161049d91840161041c565b8452602082015167ffffffffffffffff811161008257816104bf91840161041c565b6020850152604082015167ffffffffffffffff811161008257826104ea8360c09361052b960161041c565b60408701526104fc8360608301610436565b606087015261050e8360808301610436565b60808701526105208360a08301610443565b60a087015201610458565b60c0830152565b929190610541610389826103da565b93818552602080860192028101918383116100825781905b838210610567575050505050565b815167ffffffffffffffff8111610082576020916105888784938701610465565b815201910190610559565b9080601f830112156100825781516100b592602001610532565b919091604081840312610082576105c4604061034b565b92600082015167ffffffffffffffff811161008257816105e591840161041c565b8452602082015167ffffffffffffffff811161008257610605920161041c565b6020830152565b91909160408184031261008257805167ffffffffffffffff81116100825783610636918301610593565b92602082015167ffffffffffffffff8111610082576100b592016105ad565b6040513d6000823e3d90fd5b61066c61032c61037c565b7f306430623031303134413441344130653061303130313441344134413066306160208201527f303130313441344134413130306130313031344134413441313130613031303160408201527f344134413441306530623031303134413441344130663062303130313441344160608201527f344131303062303130313441344134413131306230313031344134413441313260808201527f306230313031344134413441306430633031303134413441344130643064303160a08201527f303134413441344130643065303130313441344134413065306530313031344160c08201527f344134413066306530313031344134413441313030653031303134413441344160e08201527f31313065303130313441344134413132306530313031344134413441313230646101008201527f30313031344134413441313230633031303134413441344130663063303130316101208201527f34413441344131303063303130313441344134413063306630313031344134416101408201527f34413063306530313031344134413441306230663031303134413441344130616101608201527f31303031303134413441344131333065303130313441344134413133306630316101808201527f30313441344134413134306630313031344134413441306231303031303134416101a08201527f34413441313431303031303134413441344130613131303130313441344134416101c08201527f30623131303130313441344134413062313230313031344134413441306231336101e08201527f30313031344134413441306331333031303134413441344130633134303130316102008201527f34413441344130633135303130313441344134413064313430313031344134416102208201527f34413064313530313031344134413441306531353031303134413441344130666102408201527f31353031303134413441344131303135303130313441344134413131313530316102608201527f30313441344134413132313530313031344134413441313331353031303134416102808201527f34413441313431313031303134413441344131343132303130313441344134416102a08201527f31343133303130313441344134413133313330313031344134413441313331346102c08201527f30313031344134413441313531303031303134413441344131353131303130316102e08201527f34413441344131323134303130313441344134413064306630313031344134416103008201527f34413063313030313031344134413441313230663031303134413441344131336103208201526b31303031303134413441344160a01b61034082015290565b6100b5610661565b6100b5610a4d565b610183610a7592602092610a6f815190565b94859290565b9384910161012c565b610a8c906100b59392610a5d565b90610a5d565b610a9d6101f861037c565b7f306530663031303146464646464630663066303130314646464646463130306660208201527f303130314646464646463131306630313031464646464646306431303031303160408201527f464646464646306331313031303146464646464630633132303130314646464660608201527f464630643133303130314646464646463065313430313031464646464646306660808201527f313430313031464646464646313031343031303146464646464631313134303160a08201527f303146464646464631323133303130314646464646463133313230313031464660c08201527f464646463133313130313031464646464646313231303031303146464646464660e08201527f30653130303130314646464646463066313030313031464646464646313031306101008201527f30313031464646464646313131303031303146464646464631313131303130316101208201527f46464646464631303131303130314646464646463066313130313031464646466101408201527f46463065313130313031464646464646306431313031303146464646464630646101608201527f31323031303146464646464631303132303130314646464646463131313230316101808201527f30314646464646463132313230313031464646464646313231313031303146466101a08201527f46464646313031333031303146464646464630663133303130314646464646466101c08201527f30653133303130314646464646463065313230313031464646464646306631326101e08201527f303130314646464646463131313330313031464646464646000000000000000061020082015290565b6100b5610a92565b6100b5610d09565b6100b5600061037c565b6100b5610d19565b610d35601c61037c565b7f3066306430313031463541363233313030643031303146354136323300000000602082015290565b6100b5610d2b565b6100b5610d5e565b610d78601c61037c565b7f3065306330313031464646464646313130633031303146464646464600000000602082015290565b6100b5610d6e565b6100b5610da1565b610dbb601c61037c565b7f3065306430313031303030303030313130643031303130303030303000000000602082015290565b6100b5610db1565b6100b5610de4565b610dfe603861037c565b7f306431363031303146354136323330653136303130314635413632333131313660208201527f3031303146354136323331323136303130314635413632330000000000000000604082015290565b6100b5610df4565b6100b5610e4d565b6100b56100b56100b59290565b634e487b7160e01b600052603260045260246000fd5b90610e89825190565b811015610e9a576020809102010190565b610e6a565b610ea9600161037c565b600b60fa1b602082015290565b6100b5610e9f565b610f1293610a8c610edd6100b59795610a8c610ef995610a8c97610a5d565b6f3d913a3930b4ba2fba3cb832911d101160811b815260100190565b6c111610113b30b63ab2911d101160991b8152600d0190565b61227d60f01b815260020190565b610f2a600661037c565b651e17b9bb339f60d11b602082015290565b6100b5610f20565b6100b5610f3c565b94610a8c6110ec6110a5610a8c97610a8c6110b46110a56111249d9a6100b59f9d61106c611051610fbe610a8c9e610a8c610f129f610fcc610fbe61101b92610a8c610fa2610a8c9b607b60f81b815260010190565b6f226e616d65223a202250656e676f202360801b815260100190565b61088b60f21b815260020190565b7f226465736372697074696f6e223a202250656e676f204e46542077697468206481527f796e616d6963206163636573736f7269657320616e64207472616974732e222c602082015260400190565b7f22696d616765223a2022646174613a696d6167652f7376672b786d6c3b626173815263194d8d0b60e21b602082015260240190565b6e2261747472696275746573223a205b60881b8152600f0190565b7f7b2274726169745f74797065223a202250656e676f2054797065222c20227661815266363ab2911d101160c91b602082015260270190565b62089f4b60ea1b815260030190565b7f7b2274726169745f74797065223a20224c69666520476f616c222c202276616c8152653ab2911d101160d11b602082015260260190565b7f7b2274726169745f74797065223a20224e657420576f727468222c202276616c8152653ab2911d101160d11b602082015260260190565b615d7d60f01b815260020190565b7f646174613a6170706c69636174696f6e2f6a736f6e3b6261736536342c00000081526100b59190601d01610a8c565b90611180611177826111726103ad565b611a8c565b916111726103d2565b9061119361118e60016102fa565b610208565b93600061119f60405190565b6382260f3560e01b81526004810186905295869060249082905afa92831561150d5760009586946114e6575b506112d86100b561134a6112d86100b561133f6112d86100b5611355986112f86113346112d86100b58f6112d86100b56113106112d86100b5611329956112f86112e461121760405190565b6100b581602081016112d8817f3c7376672073686170652d72656e646572696e673d226372697370456467657381527f222076696577426f783d223020302033302033302220786d6c6e733d2268747460208201527f703a2f2f7777772e77332e6f72672f323030302f737667223e0000000000000060408201527f3c726563742077696474683d223130302522206865696768743d223130302522605982015270103334b6361e91119b9a9a9b309c11179f60791b6079820152608a0190565b90810382520382610324565b9160206112ef610a55565b91015190612036565b9061130260405190565b938492602084019283610a7e565b6112f861131b610d11565b611323610d23565b90612036565b6112f861131b610d66565b9160206112ef610da9565b6112f861131b610dec565b6112f861131b610e55565b9061135e610d23565b9060009361136b85610e5d565b935b6113786100b5885190565b8510156114305761140b876100b5886113ae6112d86100b5611412976112f860406113a38f8a610e80565b510151611323610d23565b976113bb815190565b5190565b6113cb6113c784610e5d565b9190565b1115611419576112d860206113f78c6113e2610eb6565b955b6113ee828a610e80565b51015197610e80565b510151604051958694602086019485610ebe565b9460010190565b939261136d565b6112d860206113f78c61142a610d23565b956113e4565b6114bc96506100b59450966112d886946100b5949a6114729861147761147261146e6114686100b59f6100b56112d8916112f8610f44565b97612513565b9690565b612654565b950151966020818301519201519061149b6113c76114956113b78790565b92610e5d565b11156114d8576114a9610eb6565b915b604051988997602089019788610f4c565b6100b56114c860405190565b80926112d8602083019182611132565b6114e0610d23565b916114ab565b90955082933d8091833e6114fa8183610324565b81016115059161060c565b9590936111cb565b610655565b906115226100b561153e92610208565b82546001600160a01b0319166001600160a01b03919091161790565b9055565b61154e6100bc91610208565b6001611512565b6100bc90611561611644565b6115c6565b1561156d57565b60405162461bcd60e51b815260206004820152602660248201527f4f776e61626c653a206e6577206f776e657220697320746865207a65726f206160448201526564647265737360d01b606482015280608481015b0390fd5b6100bc906102e46115da6100a960006102ce565b6001600160a01b0383161415611566565b6100bc90611555565b156115fb57565b60405162461bcd60e51b8152806115c2600482016020808252818101527f4f776e61626c653a2063616c6c6572206973206e6f7420746865206f776e6572604082015260600190565b6100bc61164f610304565b61166861165b336100a9565b916001600160a01b031690565b146115f4565b61168f61168961167e60006102fa565b61118e846000611512565b91610208565b907f8be0079c531659141344cd1fd0a4f28419497f9722a3daafe3b4186f6b6457e06116ba60405190565b600090a3565b6100b5604061034b565b6116d26116c0565b906060825260606020830152565b6100b56116ca565b634e487b7160e01b600052601260045260246000fd5b8115611708570690565b6116e8565b6100b591610a5d565b611720600661037c565b655a6f6d62696560d01b602082015290565b6100b5611716565b611744600661037c565b6519981a30989960d11b602082015290565b6100b561173a565b634e487b7160e01b600052601160045260246000fd5b9190820391821161178157565b61175e565b611790600661037c565b6541726374696360d01b602082015290565b6100b5611786565b6117b4600661037c565b651a992098232360d11b602082015290565b6100b56117aa565b6117d8600461037c565b634669726560e01b602082015290565b6100b56117ce565b6117fa600661037c565b6507272606e62760d31b602082015290565b6100b56117f0565b8115611708570490565b9190820180921161178157565b611835600461037c565b634d616c6560e01b602082015290565b6100b561182b565b611857600661037c565b651a211a219a2360d11b602082015290565b6100b561184d565b61187b600661037c565b6546656d616c6560d01b602082015290565b6100b5611871565b61189f600661037c565b651ca11ca11ca160d11b602082015290565b6100b5611895565b6118c3600a61037c565b695a6f6d6269652045796560b01b602082015290565b6100b56118b9565b6118eb600661037c565b6544373437353560d01b602082015290565b6100b56118e1565b8181029291811591840414171561178157565b611922600861037c565b6714dd185b99185c9960c21b602082015290565b6100b5611918565b611948600661037c565b6523232323232360d11b602082015290565b6100b561193e565b61196c600c61037c565b6b507572706c6520536861646560a01b602082015290565b6100b5611962565b611996600661037c565b6541383637453160d01b602082015290565b6100b561198c565b6119ba600661037c565b65536c6565707960d01b602082015290565b6100b56119b0565b6119de600661037c565b650d0e0dcc904d60d21b602082015290565b6100b56119d4565b611a02600961037c565b68416e636573746f727360b81b602082015290565b6100b56119f8565b611a29600661037c565b6504230423042360d41b602082015290565b6100b5611a1f565b611a4d600761037c565b662ab735b737bbb760c91b602082015290565b6100b5611a43565b611a72600661037c565b6503030303030360d41b602082015290565b6100b5611a68565b90611a956116e0565b50611aa1614e20610e5d565b90611aac82826116fe565b92611ab660405190565b611ac881602081016112d8858261170d565b611ada611ad3825190565b9160200190565b20611b156113c7611aea60405190565b611b0681602081016112d88163426f647960e01b815260040190565b611b11611ad3825190565b2090565b14611d5457611b36611b2660405190565b80926112d860208301918261170d565b611b41611ad3825190565b20611b706113c7611b5160405190565b611b0681602081016112d88166746f705f65796560c81b815260070190565b14611b9a57505050611b806116c0565b611b8f611b8b611a60565b8252565b6100b5610605611a84565b611ba6906111726103ad565b51604051611bb390611b26565b611bbe611ad3825190565b20611bec6113c7611bce60405190565b611b0681602081016112d881655a6f6d62696560d01b815260060190565b14611d3457611c0761012c91611c0183610e5d565b90611774565b611c2d611c1d611c176005610e5d565b83611905565b611c276064610e5d565b90611814565b91611c5b611c1d611c4a611c1d611c44600a610e5d565b86611905565b93611c55601e610e5d565b90611905565b611c706100b585611c6b85610e5d565b61181e565b851015611c9a575050505050611c846116c0565b611c8f611b8b611a17565b6100b5610605611a3b565b611cae6100b584611c6b87611c6b87610e5d565b851015611cd8575050505050611cc26116c0565b611ccd611b8b6119cc565b6100b56106056119f0565b611c6b6113c793611c6b611cf296611c6b6100b596610e5d565b1015611d1657611d006116c0565b611d0b611b8b611984565b6100b56106056119a8565b611d1e6116c0565b611d29611b8b611936565b6100b561060561195a565b5050611d3e6116c0565b611d49611b8b6118d9565b6100b56106056118fd565b505061012c90611d6382610e5d565b8310611e5957611c01611d7592610e5d565b611d806103e8610e5d565b8210611e3957611d9590611c016102bc610e5d565b6109c4611da181610e5d565b8310611e18576100b56113c791611c6b611dd0611dc6611dd696611c016105dc610e5d565b611c276002610e5d565b91610e5d565b1015611dfa57611de46116c0565b611def611b8b61188d565b6100b56106056118b1565b611e026116c0565b611e0d611b8b611845565b6100b5610605611869565b505050611e236116c0565b611e2e611b8b6117e8565b6100b561060561180c565b5050611e436116c0565b611e4e611b8b6117a2565b6100b56106056117c6565b505050611e646116c0565b611e6f611b8b611732565b6100b5610605611756565b15611e8157565b60405162461bcd60e51b815260206004820152601960248201527f496e76616c696420706978656c2064617461206c656e677468000000000000006044820152606490fd5b9061038e610389836103da565b369037565b906100bc611eee611ee884611ec6565b936103da565b601f190160208401611ed3565b60005b828110611f0a57505050565b606082820152602001611efe565b906100bc611f28611ee884611ec6565b601f190160208401611efb565b90611f3e825190565b811015610e9a570160200190565b611f5c6100b56100b59260ff1690565b60ff1690565b6100b59060f81c611f4c565b6100b56100b56100b59260ff1690565b91610a8c6100b59493610a8c93610a5d565b611ffc6100b59795610a8c611fe7610a8c97610a8c611fd661201299610a8c611fc16120279f9b9a610a8c9b610a5d565b683c7265637420783d2760b81b815260090190565b642720793d2760d81b815260050190565b68272077696474683d2760b81b815260090190565b6927206865696768743d2760b01b8152600a0190565b68272066696c6c3d272360b81b815260090190565b6213979f60e91b815260030190565b61203f906127ef565b80516120576007916120516007610e5d565b906116fe565b9061207060009261206a6113c785610e5d565b14611e7a565b612078610d23565b9061208e612084855190565b611c276007610e5d565b956004926120ac6120a76120a186610e5d565b8a611905565b611ed8565b946120b689611f18565b976120c082610e5d565b8a81101561234a576120d186610e5d565b6120db9082611905565b6120e5818b611f35565b516001600160f81b0319166120f990611f62565b61210290611f6e565b61210b89610e5d565b6121159084611905565b61211f908b610e80565b52600161212b81610e5d565b612135908361181e565b61213f908c611f35565b516001600160f81b03191661215390611f62565b61215c90611f6e565b906121668a610e5d565b6121709085611905565b9061217a90610e5d565b6121839161181e565b61218d908b610e80565b52600261219981610e5d565b6121a3908361181e565b6121ad908c611f35565b516001600160f81b0319166121c190611f62565b6121ca90611f6e565b906121d48a610e5d565b6121de9085611905565b906121e890610e5d565b6121f19161181e565b6121fb908b610e80565b52600361220781610e5d565b612211908361181e565b61221b908c611f35565b516001600160f81b03191661222f90611f62565b61223890611f6e565b906122428a610e5d565b61224c9085611905565b9061225690610e5d565b61225f9161181e565b612269908b610e80565b5261227388610e5d565b61227d908261181e565b612287908b611f35565b516001600160f81b03191661229b9061293e565b906122a66005610e5d565b6122b0908261181e565b6122ba908c611f35565b516001600160f81b0319166122ce9061293e565b906122d96006610e5d565b6122e29161181e565b6122ec908c611f35565b516001600160f81b0319166123009061293e565b9061230a60405190565b928392602084019261231c9284611f7e565b90810382520361232c9082610324565b612336828c610e80565b52612341818b610e80565b506001016120c0565b50929850925092945061235c82610e5d565b925b6123696100b5865190565b8410156124955761237a8486610e80565b612383906113b7565b61238d6001610e5d565b612397908661181e565b6123a19087610e80565b6123aa906113b7565b906123b56002610e5d565b6123bf908761181e565b6123c99088610e80565b6123d2906113b7565b906123dd6003610e5d565b6123e7908861181e565b6123f19089610e80565b6123fa906113b7565b926124048a610e5d565b61240e9089611814565b612418908c610e80565b5194865161242589610e5d565b1061248796612477966100b5956112d89361248d575b61245961245361244d61245f936129d7565b976129d7565b986129d7565b916129d7565b9061246960405190565b978896602088019687611f90565b9361248187610e5d565b9061181e565b9261235e565b8a925061243b565b9550505050505090565b6124a9600161037c565b600360fc1b602082015290565b6100b561249f565b60001981146117815760010190565b906100bc611eee6124dd8461037c565b9361035f565b611f5c6100b56100b59290565b6125066125006100b59260ff1690565b60f81b90565b6001600160f81b03191690565b90600061251f81610e5d565b83146125e0579091908160005b61253583610e5d565b841461255857612547612552916124be565b93611c27600a610e5d565b9261252c565b91939250612565826124cd565b915b61257085610e5d565b82146125d5576125876125cf91611c016001610e5d565b91611c27600a846125c96125c06125bb6125b66125ac6125a687610e5d565b896116fe565b611c6b6030610e5d565b6124e3565b6124f0565b8a1a9188611f35565b53610e5d565b90612567565b50506100b591925090565b5090506100b56124b6565b6125f5604061037c565b7f4142434445464748494a4b4c4d4e4f505152535455565758595a61626364656660208201527f6768696a6b6c6d6e6f707172737475767778797a303132333435363738392b2f604082015290565b6100b56125eb565b6100b5612644565b80516126636113c76000610e5d565b146127645761267061264c565b9061268661267c825190565b6124816002610e5d565b9060016126ab61269c600394611c276003610e5d565b6126a66004610e5d565b611905565b936126c76126c26126bc6020610e5d565b8761181e565b6124cd565b94855201918192825183019160208601945b83811061271c575050505060039051068060011461270b576002146126fc575090565b603d60f81b6000199091015290565b50613d3d60f01b6001199091015290565b8160019196929394960191603f828080865194848660121c168a01518153018385600c1c16890151815301828460061c168801518153019116850151815301949291906126d9565b506100b5610d23565b1561277457565b60405162461bcd60e51b815260206004820152601960248201527f496e76616c69642068657820737472696e67206c656e677468000000000000006044820152606490fd5b6127c89060ff165b9160ff1690565b029060ff821691820361178157565b6127e39060ff166127c1565b019060ff821161178157565b906127f8825190565b9161280860029361205185610e5d565b9261282260009461281c6113c76000610e5d565b1461276d565b6128396126c2612830845190565b611c2784610e5d565b916128446000610e5d565b61285b6100b5612852845190565b611c2786610e5d565b8110156128ef57806128d76125bb6128ae61289e61289961288b6128856128ea986126a68c610e5d565b89611f35565b516001600160f81b03191690565b612a5f565b6128a860106124e3565b906127b9565b6128d161289961288b6128856128c7886126a68d610e5d565b6124816001610e5d565b906127d7565b871a6128e38287611f35565b5360010190565b612844565b509193505050565b612901601061037c565b6f181899199a1a9b1b9c1ca0a121a222a360811b602082015290565b6100b56128f7565b611f5c906129396127c16100b59460ff1690565b901c90565b6100b5906129bd61288b61295061291d565b6129b76129696129636126c26002610e5d565b95611f62565b61299061288b61298a61298561297f60046124e3565b85612925565b611f6e565b85611f35565b60001a6129a66129a06000610e5d565b88611f35565b536129b1600f6124e3565b16611f6e565b90611f35565b60001a6129d36129cd6001610e5d565b83611f35565b5390565b9060006129e381610e5d565b83146125e0579091908160005b6129f983610e5d565b8414612a1157612547612a0b916124be565b926129f0565b91939250612a1e826124cd565b915b612a2985610e5d565b82146125d557612587612a4091611c016001610e5d565b90612a20565b612a529060ff166127c1565b90039060ff821161178157565b612a6890611f62565b612a7260306124e3565b60ff8216101580612b52575b15612a97576100b590612a9160306124e3565b90612a46565b612aa160416124e3565b60ff8216101580612b3c575b15612ac0576100b590612a9160376124e3565b612aca60616124e3565b60ff8216101580612b26575b15612ae9576100b590612a9160576124e3565b60405162461bcd60e51b815260206004820152601560248201527424b73b30b634b2103432bc1031b430b930b1ba32b960591b6044820152606490fd5b50612b3160666124e3565b60ff82161115612ad6565b50612b4760466124e3565b60ff82161115612aad565b50612b5d60396124e3565b60ff82161115612a7e56fea264697066735822122068f30060dbc4e1234a2baf977db02b218602be5904371adea32940cac9b14f9664736f6c634300081b0033",
  "linkReferences": {},
  "deployedLinkReferences": {}
}