{
  "_format": "hh-sol-artifact-1",
  "contractName": "PengoBondingCurve",
  "sourceName": "contracts/ERC20/PengoBondingCurve.sol",
  "abi": [
    {
      "inputs": [
        {
          "internalType": "address",
          "name": "_pengoToken",
          "type": "address"
        },
        {
          "internalType": "address",
          "name": "_uniswapRouter",
          "type": "address"
        },
        {
          "internalType": "address",
          "name": "_strategyVault",
          "type": "address"
        },
        {
          "internalType": "uint256",
          "name": "_targetLiquidity",
          "type": "uint256"
        }
      ],
      "stateMutability": "nonpayable",
      "type": "constructor"
    },
    {
      "anonymous": false,
      "inputs": [
        {
          "indexed": false,
          "internalType": "uint256",
          "name": "ethAmount",
          "type": "uint256"
        },
        {
          "indexed": false,
          "internalType": "uint256",
          "name": "tokenAmount",
          "type": "uint256"
        },
        {
          "indexed": false,
          "internalType": "uint256",
          "name": "lpTokens",
          "type": "uint256"
        }
      ],
      "name": "LiquidityMigrated",
      "type": "event"
    },
    {
      "anonymous": false,
      "inputs": [
        {
          "indexed": true,
          "internalType": "address",
          "name": "previousOwner",
          "type": "address"
        },
        {
          "indexed": true,
          "internalType": "address",
          "name": "newOwner",
          "type": "address"
        }
      ],
      "name": "OwnershipTransferred",
      "type": "event"
    },
    {
      "anonymous": false,
      "inputs": [
        {
          "indexed": true,
          "internalType": "address",
          "name": "buyer",
          "type": "address"
        },
        {
          "indexed": false,
          "internalType": "uint256",
          "name": "amount",
          "type": "uint256"
        },
        {
          "indexed": false,
          "internalType": "uint256",
          "name": "cost",
          "type": "uint256"
        },
        {
          "indexed": false,
          "internalType": "uint256",
          "name": "taxEth",
          "type": "uint256"
        }
      ],
      "name": "TokensPurchased",
      "type": "event"
    },
    {
      "anonymous": false,
      "inputs": [
        {
          "indexed": true,
          "internalType": "address",
          "name": "seller",
          "type": "address"
        },
        {
          "indexed": false,
          "internalType": "uint256",
          "name": "amount",
          "type": "uint256"
        },
        {
          "indexed": false,
          "internalType": "uint256",
          "name": "returnEth",
          "type": "uint256"
        },
        {
          "indexed": false,
          "internalType": "uint256",
          "name": "taxEth",
          "type": "uint256"
        }
      ],
      "name": "TokensSold",
      "type": "event"
    },
    {
      "inputs": [],
      "name": "TARGET_LIQUIDITY",
      "outputs": [
        {
          "internalType": "uint256",
          "name": "",
          "type": "uint256"
        }
      ],
      "stateMutability": "view",
      "type": "function"
    },
    {
      "inputs": [],
      "name": "TOKENS_FOR_LIQUIDITY",
      "outputs": [
        {
          "internalType": "uint256",
          "name": "",
          "type": "uint256"
        }
      ],
      "stateMutability": "view",
      "type": "function"
    },
    {
      "inputs": [],
      "name": "TOKENS_FOR_SALE",
      "outputs": [
        {
          "internalType": "uint256",
          "name": "",
          "type": "uint256"
        }
      ],
      "stateMutability": "view",
      "type": "function"
    },
    {
      "inputs": [],
      "name": "basePrice",
      "outputs": [
        {
          "internalType": "uint256",
          "name": "",
          "type": "uint256"
        }
      ],
      "stateMutability": "view",
      "type": "function"
    },
    {
      "inputs": [
        {
          "internalType": "uint256",
          "name": "amount",
          "type": "uint256"
        }
      ],
      "name": "buy",
      "outputs": [],
      "stateMutability": "payable",
      "type": "function"
    },
    {
      "inputs": [
        {
          "internalType": "uint256",
          "name": "amount",
          "type": "uint256"
        }
      ],
      "name": "getCost",
      "outputs": [
        {
          "internalType": "uint256",
          "name": "totalCost",
          "type": "uint256"
        },
        {
          "internalType": "uint256",
          "name": "taxEth",
          "type": "uint256"
        }
      ],
      "stateMutability": "view",
      "type": "function"
    },
    {
      "inputs": [
        {
          "internalType": "uint256",
          "name": "amount",
          "type": "uint256"
        }
      ],
      "name": "getSellValue",
      "outputs": [
        {
          "internalType": "uint256",
          "name": "returnEth",
          "type": "uint256"
        },
        {
          "internalType": "uint256",
          "name": "taxEth",
          "type": "uint256"
        }
      ],
      "stateMutability": "view",
      "type": "function"
    },
    {
      "inputs": [],
      "name": "isMigrated",
      "outputs": [
        {
          "internalType": "bool",
          "name": "",
          "type": "bool"
        }
      ],
      "stateMutability": "view",
      "type": "function"
    },
    {
      "inputs": [],
      "name": "owner",
      "outputs": [
        {
          "internalType": "address",
          "name": "",
          "type": "address"
        }
      ],
      "stateMutability": "view",
      "type": "function"
    },
    {
      "inputs": [],
      "name": "pengoToken",
      "outputs": [
        {
          "internalType": "contract IERC20",
          "name": "",
          "type": "address"
        }
      ],
      "stateMutability": "view",
      "type": "function"
    },
    {
      "inputs": [],
      "name": "priceIncrement",
      "outputs": [
        {
          "internalType": "uint256",
          "name": "",
          "type": "uint256"
        }
      ],
      "stateMutability": "view",
      "type": "function"
    },
    {
      "inputs": [],
      "name": "renounceOwnership",
      "outputs": [],
      "stateMutability": "nonpayable",
      "type": "function"
    },
    {
      "inputs": [
        {
          "internalType": "uint256",
          "name": "amount",
          "type": "uint256"
        }
      ],
      "name": "sell",
      "outputs": [],
      "stateMutability": "nonpayable",
      "type": "function"
    },
    {
      "inputs": [],
      "name": "strategyVault",
      "outputs": [
        {
          "internalType": "address",
          "name": "",
          "type": "address"
        }
      ],
      "stateMutability": "view",
      "type": "function"
    },
    {
      "inputs": [],
      "name": "tokensSold",
      "outputs": [
        {
          "internalType": "uint256",
          "name": "",
          "type": "uint256"
        }
      ],
      "stateMutability": "view",
      "type": "function"
    },
    {
      "inputs": [
        {
          "internalType": "address",
          "name": "newOwner",
          "type": "address"
        }
      ],
      "name": "transferOwnership",
      "outputs": [],
      "stateMutability": "nonpayable",
      "type": "function"
    },
    {
      "inputs": [],
      "name": "uniswapRouter",
      "outputs": [
        {
          "internalType": "contract IUniswapV2Router02",
          "name": "",
          "type": "address"
        }
      ],
      "stateMutability": "view",
      "type": "function"
    }
  ],
  "bytecode": "0x60e03461022457601f61111c38819003918201601f19168301916001600160401b0383118484101761022857808492608094604052833981010312610224576100478161023c565b906100546020820161023c565b60606100626040840161023c565b9201515f8054336001600160a01b0319821681178355929592916001600160a01b03909116907f8be0079c531659141344cd1fd0a4f28419497f9722a3daafe3b4186f6b6457e09080a3600180546001600160a01b03199081166001600160a01b03938416178255600280549091169390921692909217815560048054610100600160a81b03191660089490941b610100600160a81b03169390931790925560808390526019632faf080084040460a08190529083901b92909181159184041417156101c0578060011b90808204600214901517156101c057632faf0800810290808204632faf080014901517156101c057808211156101d45781039081116101c0576708e1bc9bc090f800900460c052604051610ecb908161025182396080518181816102940152818161048c01526106f4015260a0518181816105c801526108e5015260c0518181816107bd015281816108bd01526109980152f35b634e487b7160e01b5f52601160045260245ffd5b60405162461bcd60e51b815260206004820152602260248201527f496e76616c696420746172676574206c697175696469747920666f7220637572604482015261766560f01b6064820152608490fd5b5f80fd5b634e487b7160e01b5f52604160045260245ffd5b51906001600160a01b03821682036102245756fe6080806040526004361015610012575f80fd5b5f3560e01c9081631f394027146107e057508063280d62ac146107a6578063400990981461077a578063487ef21614610752578063518ab2a8146107355780635a4dd47d146107175780635c95eb52146106dd578063715018a614610686578063735de9f71461065e5780637939a10b146106345780638da5cb5b1461060d578063b06faf62146105eb578063c7876ea4146105b1578063c8612b2f1461058b578063d96a094a14610391578063e4849b32146101a55763f2fde38b146100d7575f80fd5b346101a15760203660031901126101a1576004356001600160a01b038116908190036101a157610105610b29565b801561014d575f80546001600160a01b03198116831782556001600160a01b0316907f8be0079c531659141344cd1fd0a4f28419497f9722a3daafe3b4186f6b6457e09080a3005b60405162461bcd60e51b815260206004820152602660248201527f4f776e61626c653a206e6577206f776e657220697320746865207a65726f206160448201526564647265737360d01b6064820152608490fd5b5f80fd5b346101a15760203660031901126101a1576004356101c860ff6004541615610a41565b801561034d576101d781610959565b814710610308576101ea83600354610883565b6003556001546040516323b872dd60e01b81523360048201523060248201526044810185905290602090829060649082905f906001600160a01b03165af180156102c55761023f915f916102d9575b50610ae5565b815f81156102d0575b5f80809381933390f1156102c5576040805193845260208401929092529082015233907f6db63bebf1e6540277744df32846ebdb98385b1a73f2d5de49b28348add63f5090606090a2477f000000000000000000000000000000000000000000000000000000000000000011156102bb57005b6102c3610b80565b005b6040513d5f823e3d90fd5b506108fc610248565b6102fb915060203d602011610301575b6102f38183610a97565b810190610acd565b85610239565b503d6102e9565b60405162461bcd60e51b815260206004820152601d60248201527f436f6e74726163742068617320696e73756666696369656e74204554480000006044820152606490fd5b606460405162461bcd60e51b815260206004820152602060248201527f416d6f756e74206d7573742062652067726561746572207468616e207a65726f6044820152fd5b60203660031901126101a1576004356103af60ff6004541615610a41565b600354906b0295be96e6406697200000006103ca8284610876565b1161053c576103d881610890565b90928334106104ff57826103eb91610876565b60035560015460405163a9059cbb60e01b8152336004820152602481018490529190602090839060449082905f906001600160a01b03165af19081156102c55761046061047d927f0d1a0d5e3d583a0e92588799dd06e50fd78c07daf05f0cc06d7b848b1ca445f1945f916104e05750610ae5565b604080519485526020850186905284015233929081906060820190565b0390a28034116104b3575b50477f000000000000000000000000000000000000000000000000000000000000000011156102bb57005b5f80806104c1819434610883565b8181156104d7575b3390f1156102c55780610488565b506108fc6104c9565b6104f9915060203d602011610301576102f38183610a97565b87610239565b60405162461bcd60e51b8152602060048201526015602482015274125b9cdd59999a58da595b9d08115512081cd95b9d605a1b6044820152606490fd5b60405162461bcd60e51b815260206004820152602160248201527f4578636565647320617661696c61626c6520746f6b656e7320666f722073616c6044820152606560f81b6064820152608490fd5b346101a1575f3660031901126101a15760206040516b0295be96e6406697200000008152f35b346101a1575f3660031901126101a15760206040517f00000000000000000000000000000000000000000000000000000000000000008152f35b346101a1575f3660031901126101a157602060ff600454166040519015158152f35b346101a1575f3660031901126101a1575f546040516001600160a01b039091168152602090f35b346101a15760203660031901126101a1576040610652600435610959565b82519182526020820152f35b346101a1575f3660031901126101a1576002546040516001600160a01b039091168152602090f35b346101a1575f3660031901126101a15761069e610b29565b5f80546001600160a01b0319811682556001600160a01b03167f8be0079c531659141344cd1fd0a4f28419497f9722a3daafe3b4186f6b6457e08280a3005b346101a1575f3660031901126101a15760206040517f00000000000000000000000000000000000000000000000000000000000000008152f35b346101a15760203660031901126101a1576040610652600435610890565b346101a1575f3660031901126101a1576020600354604051908152f35b346101a1575f3660031901126101a1576001546040516001600160a01b039091168152602090f35b346101a1575f3660031901126101a15760045460405160089190911c6001600160a01b03168152602090f35b346101a1575f3660031901126101a15760206040517f00000000000000000000000000000000000000000000000000000000000000008152f35b346101a1575f3660031901126101a157806aa56fa5b99019a5c800000060209252f35b1561080a57565b60405162461bcd60e51b815260206004820152601d60248201527f416d6f756e74206d75737420626520696e2066756c6c20746f6b656e730000006044820152606490fd5b8181029291811591840414171561086257565b634e487b7160e01b5f52601160045260245ffd5b9190820180921161086257565b9190820391821161086257565b670de0b6b3a7640000906108a682820615610803565b04670de0b6b3a764000060035404906109096108e37f0000000000000000000000000000000000000000000000000000000000000000809461084f565b7f0000000000000000000000000000000000000000000000000000000000000000610876565b916001600160ff1b0383168303610862575f198201928284116108625761093661093f926109459561084f565b9060011b610876565b9061084f565b60011c610956606482048092610876565b91565b61096d670de0b6b3a7640000820615610803565b600354908181116109fc5761098e81670de0b6b3a764000080930493610883565b04906109be6108e37f0000000000000000000000000000000000000000000000000000000000000000809461084f565b916001600160ff1b0383168303610862575f198201928284116108625761093661093f926109eb9561084f565b60011c610956606482048092610883565b60405162461bcd60e51b815260206004820152601a60248201527f416d6f756e74206578636565647320746f6b656e7320736f6c640000000000006044820152606490fd5b15610a4857565b60405162461bcd60e51b815260206004820152602160248201527f4c697175696469747920616c7265616479206d6967726174656420746f2044456044820152600b60fb1b6064820152608490fd5b90601f8019910116810190811067ffffffffffffffff821117610ab957604052565b634e487b7160e01b5f52604160045260245ffd5b908160209103126101a1575180151581036101a15790565b15610aec57565b60405162461bcd60e51b8152602060048201526015602482015274151bdad95b881d1c985b9cd9995c8819985a5b1959605a1b6044820152606490fd5b5f546001600160a01b03163303610b3c57565b606460405162461bcd60e51b815260206004820152602060248201527f4f776e61626c653a2063616c6c6572206973206e6f7420746865206f776e65726044820152fd5b600160ff1960045416176004554760018060a01b03600154166040516370a0823160e01b8152306004820152602081602481855afa80156102c5575f90610e58575b6aa56fa5b99019a5c8000000915010610e135760025460405163095ea7b360e01b81526001600160a01b0390911660048201526aa56fa5b99019a5c8000000602482015290602090829060449082905f905af180156102c557610df6575b506002546001546004544261012c8101949360089290921c6001600160a01b039081169392811692169085106108625760609360c492604051968795869463f305d71960e01b865260048601526aa56fa5b99019a5c800000060248601525f60448601525f6064860152608485015260a48401525af19081156102c5575f905f905f93610db3575b50610ceb7fb601ba6099d0385f3a4bad0485aa6ff9186cda7fff3307a3b408b9ecee520e6f93604051938493846040919493926060820195825260208201520152565b0390a16001546040516370a0823160e01b81523060048201526001600160a01b0390911690602081602481855afa9081156102c5575f91610d81575b5080610d31575050565b5f916044602092604051948593849263a9059cbb60e01b845261dead600485015260248401525af180156102c557610d665750565b610d7e9060203d602011610301576102f38183610a97565b50565b90506020813d602011610dab575b81610d9c60209383610a97565b810103126101a157515f610d27565b3d9150610d8f565b925050506060813d606011610dee575b81610dd060609383610a97565b810103126101a1578051602082015160409092015191610ceb610ca8565b3d9150610dc3565b610e0e9060203d602011610301576102f38183610a97565b610c20565b60405162461bcd60e51b815260206004820152601860248201527f4e6f7420656e6f75676820746f6b656e7320666f72204c5000000000000000006044820152606490fd5b506020813d602011610e8d575b81610e7260209383610a97565b810103126101a1576aa56fa5b99019a5c80000009051610bc2565b3d9150610e6556fea2646970667358221220aa7ead9356df0e1822fc8b8c7ac5ddfd7c7834071e88f4c2b8aea1fe40581db864736f6c634300081b0033",
  "linkReferences": {},
  "deployedLinkReferences": {}
}