{
  "_format": "hh-sol-artifact-1",
  "contractName": "PenguinOnchain",
  "sourceName": "contracts/ERC721/PenguinOnchain.sol",
  "abi": [
    {
      "inputs": [],
      "stateMutability": "nonpayable",
      "type": "constructor"
    },
    {
      "inputs": [],
      "name": "AlreadyListed",
      "type": "error"
    },
    {
      "inputs": [],
      "name": "ApprovalCallerNotOwnerNorApproved",
      "type": "error"
    },
    {
      "inputs": [],
      "name": "ApprovalQueryForNonexistentToken",
      "type": "error"
    },
    {
      "inputs": [],
      "name": "BalanceQueryForZeroAddress",
      "type": "error"
    },
    {
      "inputs": [],
      "name": "InsufficientPayment",
      "type": "error"
    },
    {
      "inputs": [],
      "name": "InvalidBeneficiary",
      "type": "error"
    },
    {
      "inputs": [],
      "name": "InvalidPixelData",
      "type": "error"
    },
    {
      "inputs": [],
      "name": "InvalidQueryRange",
      "type": "error"
    },
    {
      "inputs": [],
      "name": "InvalidRecipient",
      "type": "error"
    },
    {
      "inputs": [],
      "name": "MaxMintPerWalletReached",
      "type": "error"
    },
    {
      "inputs": [],
      "name": "MintERC2309QuantityExceedsLimit",
      "type": "error"
    },
    {
      "inputs": [],
      "name": "MintToZeroAddress",
      "type": "error"
    },
    {
      "inputs": [],
      "name": "MintZeroQuantity",
      "type": "error"
    },
    {
      "inputs": [],
      "name": "NoActiveOffer",
      "type": "error"
    },
    {
      "inputs": [],
      "name": "NoWithdrawableFunds",
      "type": "error"
    },
    {
      "inputs": [],
      "name": "NotAccessoryOwner",
      "type": "error"
    },
    {
      "inputs": [],
      "name": "NotCompatibleWithSpotMints",
      "type": "error"
    },
    {
      "inputs": [],
      "name": "NotForSale",
      "type": "error"
    },
    {
      "inputs": [],
      "name": "NotTokenOwner",
      "type": "error"
    },
    {
      "inputs": [],
      "name": "NotYourOffer",
      "type": "error"
    },
    {
      "inputs": [],
      "name": "OfferTooLow",
      "type": "error"
    },
    {
      "inputs": [],
      "name": "OwnerCannotOffer",
      "type": "error"
    },
    {
      "inputs": [],
      "name": "OwnerQueryForNonexistentToken",
      "type": "error"
    },
    {
      "inputs": [],
      "name": "OwnershipNotInitializedForExtraData",
      "type": "error"
    },
    {
      "inputs": [],
      "name": "PartNotAllowed",
      "type": "error"
    },
    {
      "inputs": [],
      "name": "SequentialMintExceedsLimit",
      "type": "error"
    },
    {
      "inputs": [],
      "name": "SequentialUpToTooSmall",
      "type": "error"
    },
    {
      "inputs": [],
      "name": "SlotFilled",
      "type": "error"
    },
    {
      "inputs": [],
      "name": "SoldOut",
      "type": "error"
    },
    {
      "inputs": [],
      "name": "SpotMintTokenIdTooSmall",
      "type": "error"
    },
    {
      "inputs": [],
      "name": "TokenAlreadyExists",
      "type": "error"
    },
    {
      "inputs": [],
      "name": "TokenDoesNotExist",
      "type": "error"
    },
    {
      "inputs": [],
      "name": "TransferCallerNotOwnerNorApproved",
      "type": "error"
    },
    {
      "inputs": [],
      "name": "TransferFailed",
      "type": "error"
    },
    {
      "inputs": [],
      "name": "TransferFromIncorrectOwner",
      "type": "error"
    },
    {
      "inputs": [],
      "name": "TransferToNonERC721ReceiverImplementer",
      "type": "error"
    },
    {
      "inputs": [],
      "name": "TransferToZeroAddress",
      "type": "error"
    },
    {
      "inputs": [],
      "name": "URIQueryForNonexistentToken",
      "type": "error"
    },
    {
      "inputs": [],
      "name": "ZeroAddress",
      "type": "error"
    },
    {
      "inputs": [],
      "name": "ZeroMintAmount",
      "type": "error"
    },
    {
      "inputs": [],
      "name": "ZeroPrice",
      "type": "error"
    },
    {
      "anonymous": false,
      "inputs": [
        {
          "indexed": true,
          "internalType": "uint256",
          "name": "tokenId",
          "type": "uint256"
        },
        {
          "indexed": false,
          "internalType": "string",
          "name": "trait_type",
          "type": "string"
        },
        {
          "indexed": false,
          "internalType": "uint256",
          "name": "accessoryId",
          "type": "uint256"
        }
      ],
      "name": "AccessoryAdded",
      "type": "event"
    },
    {
      "anonymous": false,
      "inputs": [
        {
          "indexed": true,
          "internalType": "uint256",
          "name": "accessoryId",
          "type": "uint256"
        },
        {
          "indexed": true,
          "internalType": "uint256",
          "name": "fromTokenId",
          "type": "uint256"
        }
      ],
      "name": "AccessoryDeleted",
      "type": "event"
    },
    {
      "anonymous": false,
      "inputs": [
        {
          "indexed": true,
          "internalType": "uint256",
          "name": "accessoryId",
          "type": "uint256"
        },
        {
          "indexed": false,
          "internalType": "uint256",
          "name": "price",
          "type": "uint256"
        }
      ],
      "name": "AccessoryListed",
      "type": "event"
    },
    {
      "anonymous": false,
      "inputs": [
        {
          "indexed": true,
          "internalType": "uint256",
          "name": "accessoryId",
          "type": "uint256"
        },
        {
          "indexed": true,
          "internalType": "uint256",
          "name": "fromTokenId",
          "type": "uint256"
        },
        {
          "indexed": true,
          "internalType": "uint256",
          "name": "toTokenId",
          "type": "uint256"
        },
        {
          "indexed": false,
          "internalType": "address",
          "name": "buyer",
          "type": "address"
        },
        {
          "indexed": false,
          "internalType": "uint256",
          "name": "price",
          "type": "uint256"
        }
      ],
      "name": "AccessoryOfferCancelled",
      "type": "event"
    },
    {
      "anonymous": false,
      "inputs": [
        {
          "indexed": true,
          "internalType": "uint256",
          "name": "accessoryId",
          "type": "uint256"
        },
        {
          "indexed": true,
          "internalType": "uint256",
          "name": "fromTokenId",
          "type": "uint256"
        },
        {
          "indexed": true,
          "internalType": "uint256",
          "name": "toTokenId",
          "type": "uint256"
        },
        {
          "indexed": false,
          "internalType": "address",
          "name": "buyer",
          "type": "address"
        },
        {
          "indexed": false,
          "internalType": "uint256",
          "name": "price",
          "type": "uint256"
        }
      ],
      "name": "AccessoryOfferMade",
      "type": "event"
    },
    {
      "anonymous": false,
      "inputs": [
        {
          "indexed": true,
          "internalType": "uint256",
          "name": "accessoryId",
          "type": "uint256"
        },
        {
          "indexed": false,
          "internalType": "address",
          "name": "accessoryOwner",
          "type": "address"
        }
      ],
      "name": "AccessorySaleCancelled",
      "type": "event"
    },
    {
      "anonymous": false,
      "inputs": [
        {
          "indexed": false,
          "internalType": "string",
          "name": "accessoryType",
          "type": "string"
        },
        {
          "indexed": true,
          "internalType": "uint256",
          "name": "accessoryId",
          "type": "uint256"
        },
        {
          "indexed": true,
          "internalType": "uint256",
          "name": "fromTokenId",
          "type": "uint256"
        },
        {
          "indexed": true,
          "internalType": "uint256",
          "name": "toTokenId",
          "type": "uint256"
        },
        {
          "indexed": false,
          "internalType": "address",
          "name": "seller",
          "type": "address"
        },
        {
          "indexed": false,
          "internalType": "address",
          "name": "buyer",
          "type": "address"
        },
        {
          "indexed": false,
          "internalType": "uint256",
          "name": "price",
          "type": "uint256"
        }
      ],
      "name": "AccessorySold",
      "type": "event"
    },
    {
      "anonymous": false,
      "inputs": [
        {
          "indexed": true,
          "internalType": "address",
          "name": "owner",
          "type": "address"
        },
        {
          "indexed": true,
          "internalType": "address",
          "name": "approved",
          "type": "address"
        },
        {
          "indexed": true,
          "internalType": "uint256",
          "name": "tokenId",
          "type": "uint256"
        }
      ],
      "name": "Approval",
      "type": "event"
    },
    {
      "anonymous": false,
      "inputs": [
        {
          "indexed": true,
          "internalType": "address",
          "name": "owner",
          "type": "address"
        },
        {
          "indexed": true,
          "internalType": "address",
          "name": "operator",
          "type": "address"
        },
        {
          "indexed": false,
          "internalType": "bool",
          "name": "approved",
          "type": "bool"
        }
      ],
      "name": "ApprovalForAll",
      "type": "event"
    },
    {
      "anonymous": false,
      "inputs": [
        {
          "indexed": true,
          "internalType": "uint256",
          "name": "fromTokenId",
          "type": "uint256"
        },
        {
          "indexed": false,
          "internalType": "uint256",
          "name": "toTokenId",
          "type": "uint256"
        },
        {
          "indexed": true,
          "internalType": "address",
          "name": "from",
          "type": "address"
        },
        {
          "indexed": true,
          "internalType": "address",
          "name": "to",
          "type": "address"
        }
      ],
      "name": "ConsecutiveTransfer",
      "type": "event"
    },
    {
      "anonymous": false,
      "inputs": [
        {
          "indexed": false,
          "internalType": "uint256",
          "name": "_tokenId",
          "type": "uint256"
        }
      ],
      "name": "MetadataUpdate",
      "type": "event"
    },
    {
      "anonymous": false,
      "inputs": [
        {
          "indexed": true,
          "internalType": "address",
          "name": "previousOwner",
          "type": "address"
        },
        {
          "indexed": true,
          "internalType": "address",
          "name": "newOwner",
          "type": "address"
        }
      ],
      "name": "OwnershipTransferred",
      "type": "event"
    },
    {
      "anonymous": false,
      "inputs": [
        {
          "indexed": true,
          "internalType": "address",
          "name": "from",
          "type": "address"
        },
        {
          "indexed": true,
          "internalType": "address",
          "name": "to",
          "type": "address"
        },
        {
          "indexed": true,
          "internalType": "uint256",
          "name": "tokenId",
          "type": "uint256"
        }
      ],
      "name": "Transfer",
      "type": "event"
    },
    {
      "inputs": [],
      "name": "BENEFICARY_ADDRESS",
      "outputs": [
        {
          "internalType": "address",
          "name": "",
          "type": "address"
        }
      ],
      "stateMutability": "view",
      "type": "function"
    },
    {
      "inputs": [],
      "name": "MAX_MINT_PER_WALLET",
      "outputs": [
        {
          "internalType": "uint256",
          "name": "",
          "type": "uint256"
        }
      ],
      "stateMutability": "view",
      "type": "function"
    },
    {
      "inputs": [],
      "name": "MAX_SUPPLY",
      "outputs": [
        {
          "internalType": "uint256",
          "name": "",
          "type": "uint256"
        }
      ],
      "stateMutability": "view",
      "type": "function"
    },
    {
      "inputs": [],
      "name": "MINT_PRICE",
      "outputs": [
        {
          "internalType": "uint256",
          "name": "",
          "type": "uint256"
        }
      ],
      "stateMutability": "view",
      "type": "function"
    },
    {
      "inputs": [],
      "name": "ROYALTY_ADDRESS",
      "outputs": [
        {
          "internalType": "address",
          "name": "",
          "type": "address"
        }
      ],
      "stateMutability": "view",
      "type": "function"
    },
    {
      "inputs": [],
      "name": "ROYALTY_PERCENT",
      "outputs": [
        {
          "internalType": "uint256",
          "name": "",
          "type": "uint256"
        }
      ],
      "stateMutability": "view",
      "type": "function"
    },
    {
      "inputs": [
        {
          "internalType": "uint256",
          "name": "",
          "type": "uint256"
        },
        {
          "internalType": "uint256",
          "name": "",
          "type": "uint256"
        }
      ],
      "name": "accessories",
      "outputs": [
        {
          "internalType": "uint256",
          "name": "accessoryId",
          "type": "uint256"
        },
        {
          "internalType": "string",
          "name": "trait_type",
          "type": "string"
        },
        {
          "internalType": "string",
          "name": "trait_name",
          "type": "string"
        },
        {
          "internalType": "string",
          "name": "bytePixel",
          "type": "string"
        },
        {
          "internalType": "uint256",
          "name": "sellingPrice",
          "type": "uint256"
        },
        {
          "internalType": "uint256",
          "name": "lastPrice",
          "type": "uint256"
        },
        {
          "internalType": "address",
          "name": "owner",
          "type": "address"
        },
        {
          "internalType": "bool",
          "name": "forSale",
          "type": "bool"
        }
      ],
      "stateMutability": "view",
      "type": "function"
    },
    {
      "inputs": [
        {
          "internalType": "uint256",
          "name": "",
          "type": "uint256"
        }
      ],
      "name": "accessoriesForSale",
      "outputs": [
        {
          "internalType": "uint256",
          "name": "tokenId",
          "type": "uint256"
        },
        {
          "internalType": "uint256",
          "name": "accessoryId",
          "type": "uint256"
        },
        {
          "components": [
            {
              "internalType": "uint256",
              "name": "accessoryId",
              "type": "uint256"
            },
            {
              "internalType": "string",
              "name": "trait_type",
              "type": "string"
            },
            {
              "internalType": "string",
              "name": "trait_name",
              "type": "string"
            },
            {
              "internalType": "string",
              "name": "bytePixel",
              "type": "string"
            },
            {
              "internalType": "uint256",
              "name": "sellingPrice",
              "type": "uint256"
            },
            {
              "internalType": "uint256",
              "name": "lastPrice",
              "type": "uint256"
            },
            {
              "internalType": "address",
              "name": "owner",
              "type": "address"
            },
            {
              "internalType": "bool",
              "name": "forSale",
              "type": "bool"
            }
          ],
          "internalType": "struct IPenguinOnchain.Accessory",
          "name": "accessory",
          "type": "tuple"
        }
      ],
      "stateMutability": "view",
      "type": "function"
    },
    {
      "inputs": [
        {
          "internalType": "uint256",
          "name": "",
          "type": "uint256"
        },
        {
          "internalType": "uint256",
          "name": "",
          "type": "uint256"
        }
      ],
      "name": "accessoryIds",
      "outputs": [
        {
          "internalType": "uint256",
          "name": "",
          "type": "uint256"
        }
      ],
      "stateMutability": "view",
      "type": "function"
    },
    {
      "inputs": [
        {
          "internalType": "uint256",
          "name": "tokenId",
          "type": "uint256"
        },
        {
          "internalType": "string",
          "name": "trait_type",
          "type": "string"
        },
        {
          "internalType": "string",
          "name": "trait_name",
          "type": "string"
        },
        {
          "internalType": "string",
          "name": "byteCode",
          "type": "string"
        }
      ],
      "name": "addAccessory",
      "outputs": [],
      "stateMutability": "nonpayable",
      "type": "function"
    },
    {
      "inputs": [
        {
          "internalType": "address",
          "name": "to",
          "type": "address"
        },
        {
          "internalType": "uint256",
          "name": "tokenId",
          "type": "uint256"
        }
      ],
      "name": "approve",
      "outputs": [],
      "stateMutability": "payable",
      "type": "function"
    },
    {
      "inputs": [
        {
          "internalType": "uint256",
          "name": "fromTokenId",
          "type": "uint256"
        },
        {
          "internalType": "uint256",
          "name": "accessoryId",
          "type": "uint256"
        }
      ],
      "name": "approveOffer",
      "outputs": [],
      "stateMutability": "nonpayable",
      "type": "function"
    },
    {
      "inputs": [
        {
          "internalType": "address",
          "name": "owner",
          "type": "address"
        }
      ],
      "name": "balanceOf",
      "outputs": [
        {
          "internalType": "uint256",
          "name": "",
          "type": "uint256"
        }
      ],
      "stateMutability": "view",
      "type": "function"
    },
    {
      "inputs": [
        {
          "internalType": "uint256",
          "name": "accessoryId",
          "type": "uint256"
        },
        {
          "internalType": "uint256",
          "name": "fromTokenId",
          "type": "uint256"
        }
      ],
      "name": "cancelOffer",
      "outputs": [],
      "stateMutability": "nonpayable",
      "type": "function"
    },
    {
      "inputs": [],
      "name": "contractURI",
      "outputs": [
        {
          "internalType": "string",
          "name": "",
          "type": "string"
        }
      ],
      "stateMutability": "view",
      "type": "function"
    },
    {
      "inputs": [
        {
          "internalType": "uint256",
          "name": "tokenId",
          "type": "uint256"
        }
      ],
      "name": "explicitOwnershipOf",
      "outputs": [
        {
          "components": [
            {
              "internalType": "address",
              "name": "addr",
              "type": "address"
            },
            {
              "internalType": "uint64",
              "name": "startTimestamp",
              "type": "uint64"
            },
            {
              "internalType": "bool",
              "name": "burned",
              "type": "bool"
            },
            {
              "internalType": "uint24",
              "name": "extraData",
              "type": "uint24"
            }
          ],
          "internalType": "struct IERC721A.TokenOwnership",
          "name": "ownership",
          "type": "tuple"
        }
      ],
      "stateMutability": "view",
      "type": "function"
    },
    {
      "inputs": [
        {
          "internalType": "uint256[]",
          "name": "tokenIds",
          "type": "uint256[]"
        }
      ],
      "name": "explicitOwnershipsOf",
      "outputs": [
        {
          "components": [
            {
              "internalType": "address",
              "name": "addr",
              "type": "address"
            },
            {
              "internalType": "uint64",
              "name": "startTimestamp",
              "type": "uint64"
            },
            {
              "internalType": "bool",
              "name": "burned",
              "type": "bool"
            },
            {
              "internalType": "uint24",
              "name": "extraData",
              "type": "uint24"
            }
          ],
          "internalType": "struct IERC721A.TokenOwnership[]",
          "name": "",
          "type": "tuple[]"
        }
      ],
      "stateMutability": "view",
      "type": "function"
    },
    {
      "inputs": [],
      "name": "factory",
      "outputs": [
        {
          "internalType": "contract IPengoFactory",
          "name": "",
          "type": "address"
        }
      ],
      "stateMutability": "view",
      "type": "function"
    },
    {
      "inputs": [
        {
          "internalType": "uint256",
          "name": "tokenId",
          "type": "uint256"
        },
        {
          "internalType": "uint256",
          "name": "accessoryId",
          "type": "uint256"
        }
      ],
      "name": "findAccessoryIndex",
      "outputs": [
        {
          "internalType": "uint256",
          "name": "",
          "type": "uint256"
        }
      ],
      "stateMutability": "view",
      "type": "function"
    },
    {
      "inputs": [],
      "name": "getAllAccessoriesForSale",
      "outputs": [
        {
          "components": [
            {
              "internalType": "uint256",
              "name": "tokenId",
              "type": "uint256"
            },
            {
              "internalType": "uint256",
              "name": "accessoryId",
              "type": "uint256"
            },
            {
              "components": [
                {
                  "internalType": "uint256",
                  "name": "accessoryId",
                  "type": "uint256"
                },
                {
                  "internalType": "string",
                  "name": "trait_type",
                  "type": "string"
                },
                {
                  "internalType": "string",
                  "name": "trait_name",
                  "type": "string"
                },
                {
                  "internalType": "string",
                  "name": "bytePixel",
                  "type": "string"
                },
                {
                  "internalType": "uint256",
                  "name": "sellingPrice",
                  "type": "uint256"
                },
                {
                  "internalType": "uint256",
                  "name": "lastPrice",
                  "type": "uint256"
                },
                {
                  "internalType": "address",
                  "name": "owner",
                  "type": "address"
                },
                {
                  "internalType": "bool",
                  "name": "forSale",
                  "type": "bool"
                }
              ],
              "internalType": "struct IPenguinOnchain.Accessory",
              "name": "accessory",
              "type": "tuple"
            }
          ],
          "internalType": "struct IPenguinOnchain.AccessoryForSale[]",
          "name": "",
          "type": "tuple[]"
        }
      ],
      "stateMutability": "view",
      "type": "function"
    },
    {
      "inputs": [
        {
          "internalType": "uint256",
          "name": "tokenId",
          "type": "uint256"
        }
      ],
      "name": "getApproved",
      "outputs": [
        {
          "internalType": "address",
          "name": "",
          "type": "address"
        }
      ],
      "stateMutability": "view",
      "type": "function"
    },
    {
      "inputs": [
        {
          "internalType": "uint256",
          "name": "tokenId",
          "type": "uint256"
        }
      ],
      "name": "getNFTDetails",
      "outputs": [
        {
          "components": [
            {
              "internalType": "uint256",
              "name": "accessoryId",
              "type": "uint256"
            },
            {
              "internalType": "string",
              "name": "trait_type",
              "type": "string"
            },
            {
              "internalType": "string",
              "name": "trait_name",
              "type": "string"
            },
            {
              "internalType": "string",
              "name": "bytePixel",
              "type": "string"
            },
            {
              "internalType": "uint256",
              "name": "sellingPrice",
              "type": "uint256"
            },
            {
              "internalType": "uint256",
              "name": "lastPrice",
              "type": "uint256"
            },
            {
              "internalType": "address",
              "name": "owner",
              "type": "address"
            },
            {
              "internalType": "bool",
              "name": "forSale",
              "type": "bool"
            }
          ],
          "internalType": "struct IPenguinOnchain.Accessory[]",
          "name": "",
          "type": "tuple[]"
        },
        {
          "components": [
            {
              "internalType": "string",
              "name": "category",
              "type": "string"
            },
            {
              "internalType": "string",
              "name": "networth",
              "type": "string"
            }
          ],
          "internalType": "struct IPenguinOnchain.SpecialTrait",
          "name": "",
          "type": "tuple"
        }
      ],
      "stateMutability": "view",
      "type": "function"
    },
    {
      "inputs": [
        {
          "internalType": "uint256",
          "name": "tokenId",
          "type": "uint256"
        }
      ],
      "name": "getSeed",
      "outputs": [
        {
          "internalType": "uint256",
          "name": "",
          "type": "uint256"
        }
      ],
      "stateMutability": "view",
      "type": "function"
    },
    {
      "inputs": [
        {
          "internalType": "address",
          "name": "owner",
          "type": "address"
        },
        {
          "internalType": "address",
          "name": "operator",
          "type": "address"
        }
      ],
      "name": "isApprovedForAll",
      "outputs": [
        {
          "internalType": "bool",
          "name": "",
          "type": "bool"
        }
      ],
      "stateMutability": "view",
      "type": "function"
    },
    {
      "inputs": [
        {
          "internalType": "uint256",
          "name": "tokenId",
          "type": "uint256"
        },
        {
          "internalType": "uint256",
          "name": "accessoryId",
          "type": "uint256"
        },
        {
          "internalType": "uint256",
          "name": "price",
          "type": "uint256"
        }
      ],
      "name": "listAccessoryForSale",
      "outputs": [],
      "stateMutability": "nonpayable",
      "type": "function"
    },
    {
      "inputs": [
        {
          "internalType": "uint256",
          "name": "accessoryId",
          "type": "uint256"
        },
        {
          "internalType": "uint256",
          "name": "fromTokenId",
          "type": "uint256"
        },
        {
          "internalType": "uint256",
          "name": "toTokenId",
          "type": "uint256"
        }
      ],
      "name": "makeOffer",
      "outputs": [],
      "stateMutability": "payable",
      "type": "function"
    },
    {
      "inputs": [
        {
          "internalType": "uint256",
          "name": "_mintAmount",
          "type": "uint256"
        }
      ],
      "name": "mintPengo",
      "outputs": [
        {
          "internalType": "uint256[]",
          "name": "",
          "type": "uint256[]"
        }
      ],
      "stateMutability": "payable",
      "type": "function"
    },
    {
      "inputs": [
        {
          "internalType": "address",
          "name": "",
          "type": "address"
        }
      ],
      "name": "mintedCount",
      "outputs": [
        {
          "internalType": "uint256",
          "name": "",
          "type": "uint256"
        }
      ],
      "stateMutability": "view",
      "type": "function"
    },
    {
      "inputs": [],
      "name": "name",
      "outputs": [
        {
          "internalType": "string",
          "name": "",
          "type": "string"
        }
      ],
      "stateMutability": "view",
      "type": "function"
    },
    {
      "inputs": [],
      "name": "nextAccessoryId",
      "outputs": [
        {
          "internalType": "uint256",
          "name": "",
          "type": "uint256"
        }
      ],
      "stateMutability": "view",
      "type": "function"
    },
    {
      "inputs": [
        {
          "internalType": "address",
          "name": "",
          "type": "address"
        }
      ],
      "name": "offerBalances",
      "outputs": [
        {
          "internalType": "uint256",
          "name": "",
          "type": "uint256"
        }
      ],
      "stateMutability": "view",
      "type": "function"
    },
    {
      "inputs": [
        {
          "internalType": "uint256",
          "name": "",
          "type": "uint256"
        },
        {
          "internalType": "uint256",
          "name": "",
          "type": "uint256"
        }
      ],
      "name": "offers",
      "outputs": [
        {
          "internalType": "address",
          "name": "buyer",
          "type": "address"
        },
        {
          "internalType": "uint256",
          "name": "toTokenId",
          "type": "uint256"
        },
        {
          "internalType": "uint256",
          "name": "price",
          "type": "uint256"
        },
        {
          "internalType": "bool",
          "name": "active",
          "type": "bool"
        }
      ],
      "stateMutability": "view",
      "type": "function"
    },
    {
      "inputs": [],
      "name": "owner",
      "outputs": [
        {
          "internalType": "address",
          "name": "",
          "type": "address"
        }
      ],
      "stateMutability": "view",
      "type": "function"
    },
    {
      "inputs": [
        {
          "internalType": "uint256",
          "name": "tokenId",
          "type": "uint256"
        }
      ],
      "name": "ownerOf",
      "outputs": [
        {
          "internalType": "address",
          "name": "",
          "type": "address"
        }
      ],
      "stateMutability": "view",
      "type": "function"
    },
    {
      "inputs": [
        {
          "internalType": "uint256",
          "name": "accessoryId",
          "type": "uint256"
        },
        {
          "internalType": "uint256",
          "name": "fromTokenId",
          "type": "uint256"
        },
        {
          "internalType": "uint256",
          "name": "toTokenId",
          "type": "uint256"
        }
      ],
      "name": "purchaseAccessory",
      "outputs": [],
      "stateMutability": "payable",
      "type": "function"
    },
    {
      "inputs": [
        {
          "internalType": "uint256",
          "name": "tokenId",
          "type": "uint256"
        },
        {
          "internalType": "uint256",
          "name": "accessoryId",
          "type": "uint256"
        }
      ],
      "name": "removeAccesory",
      "outputs": [],
      "stateMutability": "nonpayable",
      "type": "function"
    },
    {
      "inputs": [],
      "name": "renounceOwnership",
      "outputs": [],
      "stateMutability": "nonpayable",
      "type": "function"
    },
    {
      "inputs": [
        {
          "internalType": "address",
          "name": "from",
          "type": "address"
        },
        {
          "internalType": "address",
          "name": "to",
          "type": "address"
        },
        {
          "internalType": "uint256",
          "name": "tokenId",
          "type": "uint256"
        }
      ],
      "name": "safeTransferFrom",
      "outputs": [],
      "stateMutability": "payable",
      "type": "function"
    },
    {
      "inputs": [
        {
          "internalType": "address",
          "name": "from",
          "type": "address"
        },
        {
          "internalType": "address",
          "name": "to",
          "type": "address"
        },
        {
          "internalType": "uint256",
          "name": "tokenId",
          "type": "uint256"
        },
        {
          "internalType": "bytes",
          "name": "_data",
          "type": "bytes"
        }
      ],
      "name": "safeTransferFrom",
      "outputs": [],
      "stateMutability": "payable",
      "type": "function"
    },
    {
      "inputs": [
        {
          "internalType": "address",
          "name": "operator",
          "type": "address"
        },
        {
          "internalType": "bool",
          "name": "approved",
          "type": "bool"
        }
      ],
      "name": "setApprovalForAll",
      "outputs": [],
      "stateMutability": "nonpayable",
      "type": "function"
    },
    {
      "inputs": [
        {
          "internalType": "address",
          "name": "_beneficiaryAddress",
          "type": "address"
        }
      ],
      "name": "setBeneficiaryAddress",
      "outputs": [],
      "stateMutability": "nonpayable",
      "type": "function"
    },
    {
      "inputs": [
        {
          "internalType": "contract IPengoFactory",
          "name": "_factoryAddress",
          "type": "address"
        }
      ],
      "name": "setFactory",
      "outputs": [],
      "stateMutability": "nonpayable",
      "type": "function"
    },
    {
      "inputs": [
        {
          "internalType": "address",
          "name": "_royaltyAddress",
          "type": "address"
        }
      ],
      "name": "setRoyaltyAddress",
      "outputs": [],
      "stateMutability": "nonpayable",
      "type": "function"
    },
    {
      "inputs": [
        {
          "internalType": "uint256",
          "name": "",
          "type": "uint256"
        }
      ],
      "name": "specialTraits",
      "outputs": [
        {
          "internalType": "string",
          "name": "category",
          "type": "string"
        },
        {
          "internalType": "string",
          "name": "networth",
          "type": "string"
        }
      ],
      "stateMutability": "view",
      "type": "function"
    },
    {
      "inputs": [
        {
          "internalType": "bytes4",
          "name": "interfaceId",
          "type": "bytes4"
        }
      ],
      "name": "supportsInterface",
      "outputs": [
        {
          "internalType": "bool",
          "name": "",
          "type": "bool"
        }
      ],
      "stateMutability": "view",
      "type": "function"
    },
    {
      "inputs": [],
      "name": "symbol",
      "outputs": [
        {
          "internalType": "string",
          "name": "",
          "type": "string"
        }
      ],
      "stateMutability": "view",
      "type": "function"
    },
    {
      "inputs": [
        {
          "internalType": "uint256",
          "name": "tokenId",
          "type": "uint256"
        }
      ],
      "name": "tokenURI",
      "outputs": [
        {
          "internalType": "string",
          "name": "",
          "type": "string"
        }
      ],
      "stateMutability": "view",
      "type": "function"
    },
    {
      "inputs": [
        {
          "internalType": "address",
          "name": "owner",
          "type": "address"
        }
      ],
      "name": "tokensOfOwner",
      "outputs": [
        {
          "internalType": "uint256[]",
          "name": "",
          "type": "uint256[]"
        }
      ],
      "stateMutability": "view",
      "type": "function"
    },
    {
      "inputs": [
        {
          "internalType": "address",
          "name": "owner",
          "type": "address"
        },
        {
          "internalType": "uint256",
          "name": "start",
          "type": "uint256"
        },
        {
          "internalType": "uint256",
          "name": "stop",
          "type": "uint256"
        }
      ],
      "name": "tokensOfOwnerIn",
      "outputs": [
        {
          "internalType": "uint256[]",
          "name": "",
          "type": "uint256[]"
        }
      ],
      "stateMutability": "view",
      "type": "function"
    },
    {
      "inputs": [],
      "name": "totalOfferBalance",
      "outputs": [
        {
          "internalType": "uint256",
          "name": "",
          "type": "uint256"
        }
      ],
      "stateMutability": "view",
      "type": "function"
    },
    {
      "inputs": [],
      "name": "totalSupply",
      "outputs": [
        {
          "internalType": "uint256",
          "name": "result",
          "type": "uint256"
        }
      ],
      "stateMutability": "view",
      "type": "function"
    },
    {
      "inputs": [
        {
          "internalType": "address",
          "name": "from",
          "type": "address"
        },
        {
          "internalType": "address",
          "name": "to",
          "type": "address"
        },
        {
          "internalType": "uint256",
          "name": "tokenId",
          "type": "uint256"
        }
      ],
      "name": "transferFrom",
      "outputs": [],
      "stateMutability": "payable",
      "type": "function"
    },
    {
      "inputs": [
        {
          "internalType": "address",
          "name": "newOwner",
          "type": "address"
        }
      ],
      "name": "transferOwnership",
      "outputs": [],
      "stateMutability": "nonpayable",
      "type": "function"
    },
    {
      "inputs": [],
      "name": "withdraw",
      "outputs": [],
      "stateMutability": "nonpayable",
      "type": "function"
    }
  ],
  "bytecode": "0x608060405234610188576100116101a0565b6e2832b733bab4b71027b731b430b4b760891b60208201526100316101c3565b6450656e676f60d81b60208201528151916001600160401b038311610183576100648361005f6002546101e6565b61021e565b602090601f84116001146100fd5792806100979261009f955f926100f2575b50508160011b915f199060031b1c19161790565b6002556102bd565b5f80556100ab33610396565b6100b56001600a55565b6100bf6001600e55565b600c80546001600160a01b03191633179055600d80546001600160a01b0319163317905560405161494290816103df8239f35b015190505f80610083565b60025f52601f19841691907f405787fa12a823e0f2b7631cc41b3ba8828b3321ca811111fa75cd3aa3bb5ace925f5b81811061016b575091600193918661009f979410610153575b505050811b016002556102bd565b01515f1960f88460031b161c191690555f8080610145565b9293602060018192878601518155019501930161012c565b61018c565b5f80fd5b634e487b7160e01b5f52604160045260245ffd5b60408051919082016001600160401b0381118382101761018357604052600f8252565b60408051919082016001600160401b038111838210176101835760405260058252565b90600182811c92168015610214575b602083101461020057565b634e487b7160e01b5f52602260045260245ffd5b91607f16916101f5565b601f811161022a575050565b60025f5260205f20906020601f840160051c83019310610264575b601f0160051c01905b818110610259575050565b5f815560010161024e565b9091508190610245565b601f821161027b57505050565b5f5260205f20906020601f840160051c830193106102b3575b601f0160051c01905b8181106102a8575050565b5f815560010161029d565b9091508190610294565b80519091906001600160401b038111610183576102e6816102df6003546101e6565b600361026e565b602092601f821160011461031a57610315929382915f926100f25750508160011b915f199060031b1c19161790565b600355565b60035f52601f198216937fc2575a0e9e593c00f959f8c92f12db2869c3395a3b0502d05e2516446f71f85b915f5b86811061037e5750836001959610610366575b505050811b01600355565b01515f1960f88460031b161c191690555f808061035b565b91926020600181928685015181550194019201610348565b600980546001600160a01b039283166001600160a01b0319821681179092559091167f8be0079c531659141344cd1fd0a4f28419497f9722a3daafe3b4186f6b6457e05f80a356fe60806040526004361015610011575f80fd5b5f3560e01c806301ffc9a71461037457806306d254da1461036f57806306fdde031461036a578063081812fc14610365578063095ea7b314610360578063143759be1461035b57806318160ddd146103565780631f05db791461035157806323b872dd1461034c57806332cb6b0c1461034757806334aeb564146103425780633ccfd60b1461033d57806342842e0e146103385780634d03a9a5146103335780635b771e3f1461032e5780635bb47808146103295780635bbb2177146103245780635f34389b1461031f5780636352211e1461031a57806370a0823114610315578063715018a61461031057806378c91ed61461030b578063813cd2761461030657806382260f35146103015780638462151c146102fc5780638a78fb1e146102f75780638da5cb5b146102f257806393aba1fb146102ed57806395d89b41146102e857806399a2557a146102e3578063a079100d146102de578063a204a82f146102d9578063a22cb465146102d4578063a942cccb146102cf578063b19960e6146102ca578063b1c456ad146102c5578063b88d4fde146102c0578063c002d23d146102bb578063c23dc68f146102b6578063c45a0155146102b1578063c87b56dd146102ac578063cdcd897e146102a7578063d45557cc146102a2578063da4e18171461029d578063e0d4ea3714610298578063e210a72d14610293578063e82507051461028e578063e8a3d48514610289578063e985e9c514610284578063ec6be06e1461027f578063ed51ef411461027a578063f16f373014610275578063f2fde38b146102705763fddcb5ea1461026b575f80fd5b6128a9565b6127d9565b61258e565b612547565b6124e7565b612483565b61240b565b61235f565b6120ee565b6120b6565b61205a565b611f23565b611f08565b611e54565b611e2c565b611dc9565b611da8565b611d46565b611cd8565b611cbd565b6119b3565b611913565b61172a565b6116ef565b611578565b6114d3565b611443565b61141b565b61139c565b6111dd565b6110b4565b610fc8565b610e0e565b610db3565b610d8c565b610d5d565b610d34565b610cc8565b610c04565b610be7565b610b80565b610b5c565b610ada565b6109d3565b61099d565b610989565b6108d6565b6106cd565b6106a5565b6105e4565b610595565b6104bb565b610429565b61038f565b6001600160e01b031981160361038b57565b5f80fd5b3461038b57602036600319011261038b576004356103ac81610379565b63ffffffff60e01b16632483248360e11b81149081156103d5575b506040519015158152602090f35b6301ffc9a760e01b811491508115610407575b81156103f6575b505f6103c7565b635b5e139f60e01b1490505f6103ef565b6380ac58cd60e01b811491506103e8565b6001600160a01b0381160361038b57565b3461038b57602036600319011261038b5760043561044681610418565b61044e613a80565b6001600160a01b03168015610474576001600160601b0360a01b600d541617600d555f80f35b63d92e233d60e01b5f5260045ffd5b805180835260209291819084018484015e5f828201840152601f01601f1916010190565b9060206104b8928181520190610483565b90565b3461038b575f36600319011261038b576040515f6002546104db816106ee565b80845290600181169081156105715750600114610513575b61050f83610503818503826107ac565b604051918291826104a7565b0390f35b60025f9081527f405787fa12a823e0f2b7631cc41b3ba8828b3321ca811111fa75cd3aa3bb5ace939250905b808210610557575090915081016020016105036104f3565b91926001816020925483858801015201910190929161053f565b60ff191660208086019190915291151560051b8401909101915061050390506104f3565b3461038b57602036600319011261038b576004356105b281613ad8565b156105d5575f526006602052602060018060a01b0360405f205416604051908152f35b6333d1c03960e21b5f5260045ffd5b604036600319011261038b576004356105fc81610418565b602435906001600160a01b0361061183613b8d565b1690813303610680575b61065081610631855f52600660205260405f2090565b80546001600160a01b0319166001600160a01b03909216919091179055565b6001600160a01b0316907f8c5be1e5ebec7d5bd14f71427d1e84f3dd0314c0f7b2291e5b200ac8c7c3b9255f80a4005b5f82815260076020908152604080832033845290915290205460ff1661061b57613b17565b3461038b575f36600319011261038b57600d546040516001600160a01b039091168152602090f35b3461038b575f36600319011261038b5760205f546001549003604051908152f35b90600182811c9216801561071c575b602083101461070857565b634e487b7160e01b5f52602260045260245ffd5b91607f16916106fd565b634e487b7160e01b5f52604160045260245ffd5b61010081019081106001600160401b0382111761075657604052565b610726565b604081019081106001600160401b0382111761075657604052565b606081019081106001600160401b0382111761075657604052565b608081019081106001600160401b0382111761075657604052565b90601f801991011681019081106001600160401b0382111761075657604052565b9060405191825f8254926107e0846106ee565b808452936001811690811561084b5750600114610807575b50610805925003836107ac565b565b90505f9291925260205f20905f915b81831061082f575050906020610805928201015f6107f8565b6020919350806001915483858901015201910190918492610816565b90506020925061080594915060ff191682840152151560051b8201015f6107f8565b96939060e096936108986108b4946108a6939c9b989c8b5261010060208c01526101008b0190610483565b9089820360408b0152610483565b908782036060890152610483565b608086019790975260a08501526001600160a01b031660c08401521515910152565b3461038b57604036600319011261038b57600435602435905f52601260205260405f20905f5260205260405f2080549061050f610915600183016107cd565b91610922600282016107cd565b9361092f600383016107cd565b916004810154600660058301549201549360405197889760ff8760a01c169660018060a01b0316958961086d565b606090600319011261038b5760043561097581610418565b9060243561098281610418565b9060443590565b61099b6109953661095d565b916128e4565b005b3461038b575f36600319011261038b576020604051614e208152f35b606090600319011261038b57600435906024359060443590565b3461038b576109e1366109b9565b610a06826109f98594955f52601260205260405f2090565b905f5260205260405f2090565b60068101805490929190336001600160a01b03821603610acb5760a01c60ff16610abc578115610aad5760048101829055825460ff60a01b1916600160a01b179092557f8b150673121b01316e8e9f04c655dcb53717f3ea8192a7606efea4685085293492610aa892610a989190610a8e90610a80610e84565b928352876020840152610ec1565b6040820152612c50565b6040519081529081906020820190565b0390a2005b634dfba02360e01b5f5260045ffd5b6328f560bb60e21b5f5260045ffd5b630ff76c1760e01b5f5260045ffd5b3461038b575f36600319011261038b57610af2613a80565b610aff4760155490612d37565b8015610b4d57600c546001600160a01b03168015610b3e575f80809381935af1610b27612d44565b5015610b2f57005b6312171d8360e31b5f5260045ffd5b631559b7d760e21b5f5260045ffd5b6353cd7f7960e01b5f5260045ffd5b61099b610b683661095d565b9060405192610b786020856107ac565b5f84526138c9565b3461038b57604036600319011261038b576004355f908152601660209081526040808320602435845282529182902080546001820154600283015460039093015485516001600160a01b039093168352938201529283015260ff1615156060820152608090f35b3461038b575f36600319011261038b576020600e54604051908152f35b3461038b57602036600319011261038b57600435610c2181610418565b610c29613a80565b6001600160a01b03168015610474576001600160601b0360a01b600b541617600b555f80f35b60206040818301928281528451809452019201905f5b818110610c725750505090565b9091926020608082610cbd600194885162ffffff6060809260018060a01b0381511685526001600160401b036020820151166020860152604081015115156040860152015116910152565b019401929101610c65565b3461038b57602036600319011261038b576004356001600160401b03811161038b573660238201121561038b578060040135906001600160401b03821161038b573660248360051b8301011161038b5761050f916024610d289201612d73565b60405191829182610c4f565b3461038b57604036600319011261038b576020610d55602435600435612db5565b604051908152f35b3461038b57602036600319011261038b5760206001600160a01b03610d83600435613b8d565b16604051908152f35b3461038b57602036600319011261038b576020610d55600435610dae81610418565b612e04565b3461038b575f36600319011261038b57610dcb613a80565b600980546001600160a01b031981169091555f906001600160a01b03167f8be0079c531659141344cd1fd0a4f28419497f9722a3daafe3b4186f6b6457e08280a3005b3461038b575f36600319011261038b57600c546040516001600160a01b039091168152602090f35b634e487b7160e01b5f52603260045260245ffd5b601854811015610e665760185f52600960205f20910201905f90565b610e36565b8054821015610e66575f52600960205f20910201905f90565b604051906108056060836107ac565b604051906108056040836107ac565b60405190610805610100836107ac565b604051906108056080836107ac565b90610805604051610ed18161073a565b60e0610f3f6006839680548552610eea600182016107cd565b6020860152610efb600282016107cd565b6040860152610f0c600382016107cd565b606086015260048101546080860152600581015460a086015201546001600160a01b03811660c085015260a01c60ff1690565b1515910152565b906104b8908251815260e080610f97610f85610f7360208801516101006020880152610100870190610483565b60408801518682036040880152610483565b60608701518582036060870152610483565b6080808701519085015260a0808701519085015260c0808701516001600160a01b0316908501529401511515910152565b3461038b57602036600319011261038b5760043560185481101561038b57610fef90610e4a565b50805461050f611006600260018501549401610ec1565b60405193849384526020840152606060408401526060830190610f46565b92919060408401936040815281518095526060810194602060608260051b8401019301905f965b818810611089575050506104b8939450602081830391015260206110788351604084526040840190610483565b920151906020818403910152610483565b9091936020806110a5600193605f198882030186528851610f46565b9601920197019691909161104b565b3461038b57602036600319011261038b57600435606060206040516110d88161075b565b8281520152805f52601360205260405f2054906110f482612e51565b915f5b8181106111295783611119611114855f52601160205260405f2090565b612ee6565b9061050f60405192839283611024565b60019061117d611178611144865f52601260205260405f2090565b61116c6111628561115d8a5f52601360205260405f2090565b612532565b90549060031b1c90565b5f5260205260405f2090565b610ec1565b6111878287612ed2565b526111928186612ed2565b50016110f7565b90602080835192838152019201905f5b8181106111b65750505090565b82518452602093840193909201916001016111a9565b9060206104b8928181520190611199565b3461038b57602036600319011261038b576004356111fa81610418565b5f546060908015908115611217575b6040518061050f85826111cc565b80929192935f9160609461136a575f5480911015611362575b5061123a81612e04565b92851561135a575b83611258575b5050505061050f91505f80611209565b909192809450851115611352575b604051916001850160051b830194856040526112815f61392e565b905f916112986112946040830151151590565b1590565b611340575b505f9791959160015b15611311575b5f966112b784614408565b6040810151156112d657505060015f935b0196886040529692966112a6565b9390935180611309575b50848418861b156112f4575b6001906112c8565b6001909901600581901b87018a9052986112ec565b93505f6112e0565b8083148015611337575b156112ac57505050505091505061050f9181525f808080611248565b5081891461131b565b516001600160a01b031691505f61129d565b849350611266565b5f9350611242565b94505f611230565b613b61565b9181601f8401121561038b578235916001600160401b03831161038b576020838186019501011161038b57565b3461038b57608036600319011261038b576004356024356001600160401b03811161038b576113cf90369060040161136f565b916044356001600160401b03811161038b576113ef90369060040161136f565b90606435946001600160401b03861161038b5761141361099b96369060040161136f565b959094613239565b3461038b575f36600319011261038b576009546040516001600160a01b039091168152602090f35b3461038b57604036600319011261038b5760043560243590805f52601260205260405f20825f5260205260405f2060018060a01b036006820154163303610acb576114bd602061099b946114a661149f60016114ce96016107cd565b9186614019565b845f526014825260405f206040519384809361373e565b90815203019020805460ff19169055565b613e0f565b3461038b575f36600319011261038b576040515f6003546114f3816106ee565b8084529060018116908115610571575060011461151a5761050f83610503818503826107ac565b60035f9081527fc2575a0e9e593c00f959f8c92f12db2869c3395a3b0502d05e2516446f71f85b939250905b80821061155e575090915081016020016105036104f3565b919260018160209254838588010152019101909291611546565b3461038b57606036600319011261038b5760043561159581610418565b60243560443590819281906060938084101561136a575f54809110156116e7575b506115c081612e04565b90858410156116df575b816115de575b6040518061050f87826111cc565b9091928094508503828111156116d7575b506040519161160a6001820160051b8401958660405261392e565b905f9161161d6112946040830151151590565b6116c5575b505f9691949160015b15611697575b5f9561163c84614408565b60408101511561165b57505060015f935b01958760405295929561162b565b939093518061168f575b5084841860601b1561167a575b60019061164d565b6001909801600581901b860189905297611672565b93505f611665565b80831480156116bc575b15611631575050505091505061050f9181525f8080806115d0565b508188146116a1565b516001600160a01b031691505f611622565b91505f6115ef565b5f91506115ca565b94505f6115b6565b3461038b57602036600319011261038b5760043561170c81610418565b60018060a01b03165f526017602052602060405f2054604051908152f35b602036600319011261038b57600435611741614114565b80156118fa57614e206117608261175b5f54600154900390565b61305d565b116118eb5761176e81612f7c565b34106118dc57335f90815260106020526040902054906064611790828461305d565b116118cd57805f54926117a28261416a565b6117ac82336141dc565b335f908152601060205260409020910190556117c781613092565b915f5b82811061184e575050600c546001600160a01b0316908115610b3e576117ef90612f7c565b90813403611828575b5f80809381935af1611808612d44565b5015610b2f5761050f9061181c6001600a55565b604051918291826111cc565b5f808080853403335af161183a612d44565b506117f8576312171d8360e31b5f5260045ffd5b807ff8e1a15aba9398e019f0b49df1a4fde98ee17ae345cb5f6b5e2c27f5033e8ce76118c461187f6001948661305d565b8061188a858a612ed2565b52610a98611896610e93565b61189e61376d565b81526118a8613794565b60208201526118bf835f52601160205260405f2090565b6137b7565b0390a1016117ca565b634c2bc38160e01b5f5260045ffd5b63cd1c886760e01b5f5260045ffd5b6352df9fe560e01b5f5260045ffd5b630856e64360e21b5f5260045ffd5b8015150361038b57565b3461038b57604036600319011261038b5760043561193081610418565b6024359061193d82611909565b335f526007602052611977826119668360405f209060018060a01b03165f5260205260405f2090565b9060ff801983541691151516179055565b60405191151582526001600160a01b03169033907f17307eab39ab6107e8899845ad3d59bd9653f200f220920489ca2b5937696c3190602090a3005b6119bc366109b9565b916119c5614114565b6119e06119d46119d485613b8d565b6001600160a01b031690565b336001600160a01b0390911603611cae57611a07816109f9845f52601260205260405f2090565b600681015460ff60a082901c1615611c9f576004820154918215610aad578234106118dc57611a38600182016107cd565b91611a5e611a57611a51895f52601460205260405f2090565b85613750565b5460ff1690565b611c90576001600160a01b031690611a846003611a7d600284016107cd565b92016107cd565b86848988611a9b611a948a612f9e565b6064900490565b95611aa6878b612d37565b600d549091908b906001600160a01b031680611c6757506009546001600160a01b0316975f97611b62611b768a99611b708b9a611b628c9b611b4b611b939b611b899b611b839b5b611af6610ea2565b92858452896020850152604084015260608301528f608083015260a0820152611b2a3360c083019060018060a01b03169052565b8e60e0820152611b46836109f9875f52601260205260405f2090565b612bb2565b611b5d835f52601360205260405f2090565b6131e1565b5f52601460205260405f2090565b90613750565b805460ff19166001179055565b8b613750565b805460ff19169055565b611b9d8b8d614019565b611ba68d613e0f565b611baf8c613e0f565b6001600160a01b0388165af1611bc3612d44565b5015610b2f5781611c3f575b5050823403611c19575b611c0c7fd41dbe053a12b0e9617e572dccd16aaf1bc0f94ad99781008b928fe29c5f7c3993604051938493339185613895565b0390a461099b6001600a55565b5f808080863403335af1611c2b612d44565b50611bd9576312171d8360e31b5f5260045ffd5b5f918291829182916001600160a01b03165af1611c5a612d44565b5015610b2f575f80611bcf565b975f97611b62611b768a99611b708b9a611b628c9b611b4b611b939b611b899b611b839b611aee565b63fa256cb360e01b5f5260045ffd5b631d99ddbf60e01b5f5260045ffd5b6359dc379f60e01b5f5260045ffd5b3461038b575f36600319011261038b57602060405160648152f35b3461038b575f36600319011261038b576020601554604051908152f35b6001600160401b03811161075657601f01601f191660200190565b929192611d1c82611cf5565b91611d2a60405193846107ac565b82948184528183011161038b578281602093845f960137010152565b608036600319011261038b57600435611d5e81610418565b60243590611d6b82610418565b604435606435926001600160401b03841161038b573660238501121561038b57611da261099b943690602481600401359101611d10565b926138c9565b3461038b575f36600319011261038b576020604051662386f26fc100008152f35b3461038b57602036600319011261038b576080611de760043561392e565b611e2a604051809262ffffff6060809260018060a01b0381511685526001600160401b036020820151166020860152604081015115156040860152015116910152565bf35b3461038b575f36600319011261038b57600b546040516001600160a01b039091168152602090f35b3461038b57602036600319011261038b57600435611e7181613ad8565b15611ef957600b545f828152600f60205260408082205490516392cb829d60e01b81526004810194909452602484015290829060449082906001600160a01b03165afa8015611ef45761050f915f91611ed2575b50604051918291826104a7565b611eee91503d805f833e611ee681836107ac565b81019061310d565b5f611ec5565b612f58565b63677510db60e11b5f5260045ffd5b3461038b575f36600319011261038b57602060405160058152f35b3461038b57604036600319011261038b57600435602435611f42614114565b611f58826109f9835f52601660205260405f2090565b91611f6a611294600385015460ff1690565b61204b578254336001600160a01b039091160361203c576001600284015493015492611fbc611fa5836109f9865f52601660205260405f2090565b60035f918281558260018201558260028201550155565b335f908152601760205260409020611fd5828254612d37565b9055611feb611fe682601554612d37565b601555565b5f80808084335af1611ffb612d44565b5015610b2f576040805133815260208101929092527f12867efde6a16e6f5c9ade6f54557dc3aa2017a6716b589059eceb542d47917d919081908101611c0c565b6332a0bb6960e01b5f5260045ffd5b6305995b5360e41b5f5260045ffd5b3461038b57602036600319011261038b576004355f5260116020526120a860405f2061050f612094600161208d846107cd565b93016107cd565b604051938493604085526040850190610483565b908382036020850152610483565b3461038b57602036600319011261038b576004356120d381613ad8565b15611ef9575f52600f602052602060405f2054604051908152f35b6120f7366109b9565b91612100614114565b3415610aad576121156119d46119d485613b8d565b336001600160a01b0390911603611cae5761213c816109f9845f52601260205260405f2090565b60068101543390612155906001600160a01b03166119d4565b146122d657611a5761217c916001612175875f52601460205260405f2090565b9101613969565b611c9057612196816109f9845f52601660205260405f2090565b600381015460ff1680806122c8575b6122b957612253575b506121f16121ba610eb2565b3381528460208201523460408201526121d66060820160019052565b6121ec836109f9865f52601660205260405f2090565b6139ee565b335f90815260176020526040902061220a34825461305d565b905561221b611fe63460155461305d565b604080513381523460208201527f4b011cd95fe592ba0d71bdb34e58553f73ca97ab2d8789c2dc4b6c8b8714148c9181908101611c0c565b80546002909101546001600160a01b039091165f8181526017602052604081208054919384938493849390612289908490612d37565b905561229a611fe683601554612d37565b6001600160a01b03165af16122ad612d44565b5015610b2f575f6121ae565b6372351e5360e01b5f5260045ffd5b5060028201543411156121a5565b630f5cd12360e31b5f5260045ffd5b602081016020825282518091526040820191602060408360051b8301019401925f915b83831061231757505050505090565b9091929394602080612350600193603f19868203018752606060408b518051845285810151868501520151918160408201520190610f46565b97019301930191939290612308565b3461038b575f36600319011261038b5760185461237b81612e3a565b9061238960405192836107ac565b8082526020820160185f527fb13d2d76d1f4b7be834882e410b3e3a8afaf69f83600ae24db354391d2378d2e5f915b8383106123cd576040518061050f87826122e5565b600960206001926040516123e081610776565b8554815284860154838201526123f860028701610ec1565b60408201528152019201920191906123b8565b3461038b575f36600319011261038b57600b54604051600162f4a24960e01b03198152905f90829060049082906001600160a01b03165afa8015611ef45761050f915f91612469575b50604051918291602083526020830190610483565b61247d91503d805f833e611ee681836107ac565b5f612454565b3461038b57604036600319011261038b57602060ff6124db6004356124a781610418565b602435906124b482610418565b60018060a01b03165f526007845260405f209060018060a01b03165f5260205260405f2090565b54166040519015158152f35b3461038b57602036600319011261038b5760043561250481610418565b61250c613a80565b6001600160a01b03168015610474576001600160601b0360a01b600c541617600c555f80f35b8054821015610e66575f5260205f2001905f90565b3461038b57604036600319011261038b57600435602435905f52601360205260405f20805482101561038b5760209161257f91612532565b90549060031b1c604051908152f35b3461038b57604036600319011261038b576024356004356125ad614114565b6125cb6125c6836109f9845f52601660205260405f2090565b613a40565b916125dc6112946060850151151590565b61204b576125f6816109f9845f52601260205260405f2090565b6006810154336001600160a01b0390911603610acb576040840151602085015194519091906001600160a01b031690612631600182016107cd565b906126436003611a7d600284016107cd565b906126536119d46119d48a613b8d565b6001600160a01b03858116911603611cae5761267d611a57611a518a5f52601460205260405f2090565b611c90576127289161269e611fa5886109f98b5f52601660205260405f2090565b6001600160a01b0385165f9081526017602052604090206126c0878254612d37565b90556126d1611fe687601554612d37565b6126d9610ea2565b87815260208101859052604081019290925260608201525f608082015260a081018590526001600160a01b03841660c08201525f60e0820152611b46866109f98a5f52601260205260405f2090565b61273e84611b5d885f52601360205260405f2090565b61275c611b76612756885f52601460205260405f2090565b83613750565b612774611b89612756875f52601460205260405f2090565b61277e8486614019565b61278786613e0f565b61279085613e0f565b5f80808086335af16127a0612d44565b5015610b2f57611c0c7fd41dbe053a12b0e9617e572dccd16aaf1bc0f94ad99781008b928fe29c5f7c3993604051938493339085613895565b3461038b57602036600319011261038b576004356127f681610418565b6127fe613a80565b6001600160a01b0381161561285557600980546001600160a01b039283166001600160a01b0319821681179092559091167f8be0079c531659141344cd1fd0a4f28419497f9722a3daafe3b4186f6b6457e05f80a3005b60405162461bcd60e51b815260206004820152602660248201527f4f776e61626c653a206e6577206f776e657220697320746865207a65726f206160448201526564647265737360d01b6064820152608490fd5b3461038b57602036600319011261038b576004356128c681610418565b60018060a01b03165f526010602052602060405f2054604051908152f35b91906128ef82613b8d565b6001600160a01b03938416938116849003612a76575f838152600660205260409020805461292c6001600160a01b03871633908114908314171590565b612a33575b612a2a575b506001600160a01b0384165f90815260056020526040902080545f190190556001600160a01b0382165f908152600560205260409020805460010190556001600160a01b0382164260a01b17600160e11b1761299a845f52600460205260405f2090565b55600160e11b8116156129e5575b506001600160a01b03169182907fddf252ad1be2c89b69c2b068fc378daa952ba7f163c4a11628f55a4df523b3ef5f80a4156129e057565b613b43565b600183016129fb815f52600460205260405f2090565b5415612a08575b506129a8565b5f548114612a0257612a22905f52600460205260405f2090565b555f80612a02565b5f90555f612936565b612a6c611294611a5733612a578a60018060a01b03165f52600760205260405f2090565b9060018060a01b03165f5260205260405f2090565b1561293157613b34565b613b26565b634e487b7160e01b5f525f60045260245ffd5b818110612a99575050565b5f8155600101612a8e565b9190601f8111612ab357505050565b610805925f5260205f20906020601f840160051c83019310612add575b601f0160051c0190612a8e565b9091508190612ad0565b91909182516001600160401b03811161075657612b0e81612b0884546106ee565b84612aa4565b6020601f8211600114612b4d578190612b3e9394955f92612b42575b50508160011b915f199060031b1c19161790565b9055565b015190505f80612b2a565b601f19821690612b60845f5260205f2090565b915f5b818110612b9a57509583600195969710612b82575b505050811b019055565b01515f1960f88460031b161c191690555f8080612b78565b9192602060018192868b015181550194019201612b63565b90612c3660e060066108059484518155612bd3602086015160018301612ae7565b612be4604086015160028301612ae7565b612bf5606086015160038301612ae7565b6080850151600482015560a0850151600582015560c0850151910180546001600160a01b0319166001600160a01b03909216919091178155925b0151151590565b815460ff60a01b191690151560a01b60ff60a01b16179055565b601854600160401b81101561075657806001612c7192016018556018610e6b565b612d0b57612c3660e06008604085610805965186556020810151600187015501519384516002820155612cab602086015160038301612ae7565b612cbc604086015160048301612ae7565b612ccd606086015160058301612ae7565b6080850151600682015560a0850151600782015560c0850151910180546001600160a01b0319166001600160a01b0390921691909117815592612c2f565b612a7b565b634e487b7160e01b5f52601160045260245ffd5b5f19810191908211612d3257565b612d10565b91908203918211612d3257565b3d15612d6e573d90612d5582611cf5565b91612d6360405193846107ac565b82523d5f602084013e565b606090565b6040519180835260051b906020828401016040525b81828015612dae57601f1990810193612da591908401013561392e565b90840152612d88565b5050505090565b601854915f5b838110612dc85750505090565b82612dd282610e4a565b50541480612dee575b612de757600101612dbb565b9250505090565b50816001612dfb83610e4a565b50015414612ddb565b6001600160a01b03168015612e2b575f5260056020526001600160401b0360405f20541690565b6323d3ad8160e21b5f5260045ffd5b6001600160401b0381116107565760051b60200190565b90612e5b82612e3a565b612e6860405191826107ac565b8281528092612e79601f1991612e3a565b01905f5b828110612e8957505050565b602090604051612e988161073a565b5f8152606083820152606060408201526060808201525f60808201525f60a08201525f60c08201525f60e082015282828501015201612e7d565b8051821015610e665760209160051b010190565b90604051612ef38161075b565b6020612f0d60018395612f05816107cd565b8552016107cd565b910152565b9081602091031261038b57516104b881611909565b908060209392818452848401375f828201840152601f01601f1916010190565b9160206104b8938181520191612f27565b6040513d5f823e3d90fd5b6020919283604051948593843782019081520301902090565b90662386f26fc10000820291808304662386f26fc100001490151715612d3257565b90600582029180830460051490151715612d3257565b90600782029180830460071490151715612d3257565b908160021b9180830460041490151715612d3257565b600181901b91906001600160ff1b03811603612d3257565b908151811015610e66570160200190565b9060018201809211612d3257565b9060028201809211612d3257565b9060038201809211612d3257565b9060048201809211612d3257565b9060058201809211612d3257565b9060068201809211612d3257565b91908201809211612d3257565b92949360ff6130858193604095606088526060880191612f27565b9616602085015216910152565b9061309c82612e3a565b6130a960405191826107ac565b82815280926130ba601f1991612e3a565b0190602036910137565b906130ce82612e3a565b6130db60405191826107ac565b82815280926130ec601f1991612e3a565b01905f5b8281106130fc57505050565b8060606020809385010152016130f0565b60208183031261038b578051906001600160401b03821161038b570181601f8201121561038b5780519061314082611cf5565b9261314e60405194856107ac565b8284526020838301011161038b57815f9260208093018386015e8301015290565b9061318290604083526040830190611199565b906020818303910152815180825260208201916020808360051b8301019401925f915b8383106131b457505050505090565b90919293946020806131d2600193601f198682030187528951610483565b970193019301919392906131a5565b90815491600160401b831015610756578261320491600161080595018155612532565b90919082549060031b91821b915f19901b1916179055565b93929160209161323491604087526040870191612f27565b930152565b95909291939461324e6119d46119d489613b8d565b336001600160a01b0390911603611cae57600b54613274906001600160a01b03166119d4565b9160405163c36a2bff60e01b8152602081806132948a8a60048401612f47565b0381875afa908115611ef4575f9161371f575b5015613710576132cc611a576132c58a5f52601460205260405f2090565b8888612f63565b611c90576132e4916132df913691611d10565b613c4e565b9081518015908115613702575b5061365b578151600790045f905f5b81811061366a5750811561365b5761332861332261331d84612fca565b613092565b926130c4565b935f5f5b8381106134705750505050915f9161335b94936040518096819482936372565e2360e01b84526004840161316f565b03915afa918215611ef4577f52e15ab134f84fe4816b97c4a3d135945e2725295c41f26f23d1180e44bb51009561345193613407925f91613456575b506133ce600e54946133ab60018701600e55565b6133b3610ea2565b938685526133c2368b8b611d10565b60208601523691611d10565b604083015260608201525f6080820181905260a08201523360c08201525f60e0820152611b46836109f98a5f52601260205260405f2090565b61341d81611b5d885f52601360205260405f2090565b61343c611b76613435885f52601460205260405f2090565b8686612f63565b61344586613e0f565b6040519384938461321c565b0390a2565b61346a91503d805f833e611ee681836107ac565b5f613397565b61347981612fb4565b60208a8c6134a161349b61348d868a612ff8565b516001600160f81b03191690565b60f81c90565b9283916134bc61349b61348d6134b689613009565b8c612ff8565b936134dc856040519586948594633eeb0b2560e21b86526004860161306a565b03818d5afa908115611ef4575f9161362d575b50613500575b50505060010161332c565b91849160ff6001959694816135158897612fca565b9316613521848d612ed2565b521661353561352f83613009565b8b612ed2565b5261355761355161349b61348d61354b86613017565b8b612ff8565b60ff1690565b61356361352f83613017565b5261359161358b61358561355161349b61348d61357f88613025565b8d612ff8565b92613025565b8a612ed2565b5261360d6135aa61348d6135a484613033565b89612ff8565b6135ff6135d261348d61354b6135cc61348d8d6135c68a613041565b90612ff8565b9661304f565b6040516001600160f81b031993841660208201529483166021860152909116602284015282906023820190565b03601f1981018352826107ac565b613617828b612ed2565b52613622818a612ed2565b500191905f806134f5565b61364e915060203d8111613654575b61364681836107ac565b810190612f12565b5f6134ef565b503d61363c565b633907cf2960e01b5f5260045ffd5b84602089896136b861369d61349b61348d61357f61369761349b61348d6136908d612fb4565b809c612ff8565b98613009565b604051633eeb0b2560e21b815295869485946004860161306a565b0381885afa908115611ef4575f916136e4575b506136d9575b600101613300565b6001909201916136d1565b6136fc915060203d81116136545761364681836107ac565b5f6136cb565b60079006905015155f6132f1565b636172ef9960e01b5f5260045ffd5b613738915060203d6020116136545761364681836107ac565b5f6132a7565b805191908290602001825e015f815290565b602090613763926040519384809361373e565b9081520301902090565b6040519061377c6040836107ac565b60098252686c696c2070656e676f60b81b6020830152565b604051906137a36040836107ac565b6005825264181026a7a760d91b6020830152565b91909182519283516001600160401b038111610756576137e1816137db85546106ee565b85612aa4565b6020601f821160011461382457916138188260209360019561080598995f92612b425750508160011b915f199060031b1c19161790565b84555b01519101612ae7565b601f19821695613837855f5260205f2090565b965f5b81811061387d57509261080596976001959386938360209710613865575b505050811b01845561381b565b01515f1960f88460031b161c191690555f8080613858565b8383015189556001909801976020938401930161383a565b90926138ae606093969594608084526080840190610483565b6001600160a01b039687166020840152951660408201520152565b9291906138d78282866128e4565b803b6138e4575b50505050565b6138ed936143e0565b156138fb575f8080806138de565b6368d2bf6b60e11b5f5260045ffd5b6040519061391782610791565b5f6060838281528260208201528260408201520152565b9061393761390a565b915f5481106139435750565b9091505b805f52600460205260405f2054613960575f1901613947565b6104b890614408565b9060405180925f9080549061397d826106ee565b91600181169081156139d657506001146139a0575b505060209281520301902090565b9091505f5260205f205f905b8282106139bf575050810160205f613992565b8054828701528593506020909101906001016139ac565b60ff191685525050801515028201905060205f613992565b815181546001600160a01b0319166001600160a01b03919091161781556108059160039060609060208101516001850155604081015160028501550151151591019060ff801983541691151516179055565b90604051613a4d81610791565b82546001600160a01b03168152600183015460208201526002830154604082015260039092015460ff1615156060830152565b6009546001600160a01b03163303613a9457565b606460405162461bcd60e51b815260206004820152602060248201527f4f776e61626c653a2063616c6c6572206973206e6f7420746865206f776e65726044820152fd5b905f915f548110613ae65750565b9091505b805f52600460205260405f205480613b0b57508015612d32575f1901613aea565b600160e01b1615919050565b6367d9dca160e11b5f5260045ffd5b62a1148160e81b5f5260045ffd5b632ce44b5f60e11b5f5260045ffd5b633a954ecd60e21b5f5260045ffd5b636f96cda160e11b5f5260045ffd5b631960ccad60e11b5f5260045ffd5b63b562e8dd60e01b5f5260045ffd5b622e076360e81b5f5260045ffd5b613b9f815f52600460205260405f2090565b54908115613bb65750600160e01b8116613b525790565b90505f54811015613b52575b5f19015f81815260046020526040902054908115613bf65750600160e01b8116156104b857636f96cda160e11b5f5260045ffd5b9050613bc2565b90613c0782611cf5565b613c1460405191826107ac565b82815280926130ba601f1991611cf5565b60041b90610ff060f0831692168203612d3257565b9060ff8091169116019060ff8211612d3257565b90815160018116613ce15760011c613c6581613bfd565b905f5b818110613c76575090925050565b80613cce613cbe613c9e613c99613c9461348d6134b6600198612fe0565b614499565b613c25565b613cb8613c9461348d6134b6613cb388612fe0565b613009565b90613c3a565b60f81b6001600160f81b03191690565b5f1a613cda8286612ff8565b5301613c68565b60405162461bcd60e51b815260206004820152601960248201527f496e76616c69642068657820737472696e67206c656e677468000000000000006044820152606490fd5b60405190613d356040836107ac565b60128252716675636b696e6720726963682070656e676f60701b6020830152565b60405190613d656040836107ac565b601182527070656e676f2062696c6c696f6e6169726560781b6020830152565b60405190613d946040836107ac565b601182527070656e676f206d696c6c696f6e6169726560781b6020830152565b60405190613dc36040836107ac565b600a82526970656e676f2061726d7960b01b6020830152565b906108056004613df693604051948591602083019061373e565b631026a7a760e11b815203601b198101855201836107ac565b5f81815260136020526040812080545f915b818310613f01575050507ff8e1a15aba9398e019f0b49df1a4fde98ee17ae345cb5f6b5e2c27f5033e8ce791610a98613e65613ea993670de0b6b3a7640000900490565b6001811015613eae57613e87613e82613e7c61376d565b92614542565b613ddc565b613e8f610e93565b91825260208201526118bf835f52601160205260405f2090565b0390a1565b6002811015613ec557613e87613e82613e7c613db4565b6005811015613edc57613e87613e82613e7c613d85565b600a811015613ef357613e87613e82613e7c613d56565b613e87613e82613e7c613d26565b909192613f366001916005613f2e613f21895f52601260205260405f2090565b61116c6111628a89612532565b01549061305d565b93019190613e21565b613f4981546106ee565b9081613f53575050565b81601f5f9311600114613f64575055565b81835260208320613f8091601f0160051c810190600101612a8e565b808252602082209081548360011b9084198560031b1c191617905555565b60065f91828155613fb160018201613f3f565b613fbd60028201613f3f565b613fc960038201613f3f565b8260048201558260058201550155565b634e487b7160e01b5f52603160045260245ffd5b80548015614014575f1901906140038282612532565b8154905f199060031b1b1916905555565b613fd9565b61402b815f52601260205260405f2090565b825f52602052614046600660405f20015460ff9060a01c1690565b614105575b614069614064836109f9845f52601260205260405f2090565b613f9e565b61407b815f52601360205260405f2090565b918254925f5b8481106140b4575b50509091507ff7499acb9d9f4141eb50430bdef419d2ecc52d1b220932562fd11ab43f21bc1b5f80a3565b826140c26111628385612532565b146140cf57600101614081565b6140f7906132046140f06111626140ea6140fc979899612d24565b86612532565b9184612532565b613fed565b81905f80614089565b61410f8282614888565b61404b565b6002600a5414614125576002600a55565b60405162461bcd60e51b815260206004820152601f60248201527f5265656e7472616e637947756172643a207265656e7472616e742063616c6c006044820152606490fd5b5f545f903360601b903060601b905b848410614187575050505050565b600180916040516020810190448252426040820152866060820152826074820152856094820152608881526141bd60a8826107ac565b5190206141d2825f52600f60205260405f2090565b5501930192614179565b91604051906141ec6020836107ac565b5f82525f549183156142f6576001600160a01b0385164260a01b6001861460e11b1717614221845f52600460205260405f2090565b556001600160a01b0385165f81815260056020526040902080546801000000000000000187020190559384156142f157808401939560015b1561428c575b5f87875f7fddf252ad1be2c89b69c2b068fc378daa952ba7f163c4a11628f55a4df523b3ef8180a4614259565b956001019584870361425f57929550929093505f55803b6142ac57505050565b9091925f549283039260015b156142dc575b5f6142d161129487600188019787614341565b156142b8575b6138fb565b8084106142be5792509250505f540361038b57565b613b7f565b613b70565b9081602091031261038b57516104b881610379565b6001600160a01b0391821681529116602082015260408101919091526080606082018190526104b892910190610483565b91614368926020925f604051809681958294630a85bd0160e11b8452843360048601614310565b03926001600160a01b03165af15f91816143af575b506143995761438a612d44565b8051156142d757805190602001fd5b6001600160e01b031916630a85bd0160e11b1490565b6143d291925060203d6020116143d9575b6143ca81836107ac565b8101906142fb565b905f61437d565b503d6143c0565b906020925f614368959360405196879586948593630a85bd0160e11b85523360048601614310565b61441061390a565b505f52600460205260405f205461442561390a565b6001600160a01b038216815260a082901c6001600160401b03166020820152600160e01b82161515604082015260e89190911c606082015290565b60ff602f199116019060ff8211612d3257565b60ff6036199116019060ff8211612d3257565b60ff6056199116019060ff8211612d3257565b60f81c603081101580614537575b61452e57604181101580614523575b61451a5760618110158061450f575b6145065760405162461bcd60e51b815260206004820152601560248201527424b73b30b634b2103432bc1031b430b930b1ba32b960591b6044820152606490fd5b6104b890614486565b5060668111156144c5565b6104b890614473565b5060468111156144b6565b6104b890614460565b5060398111156144a7565b805f9172184f03e93ff9f4daa797ed6e38ed64bf6a1f0160401b821015614675575b806d04ee2d6d415b85acef8100000000600a921015614659575b662386f26fc10000811015614644575b6305f5e100811015614632575b612710811015614622575b6064811015614613575b1015614608575b6145f360216145c860018501613bfd565b938401015b5f1901916f181899199a1a9b1b9c1cb0b131b232b360811b600a82061a8353600a900490565b8015614603576145f390916145cd565b505090565b6001909101906145b7565b600290606490049301926145b0565b60049061271090049301926145a6565b6008906305f5e100900493019261459b565b601090662386f26fc10000900493019261458e565b6020906d04ee2d6d415b85acef8100000000900493019261457e565b506040915072184f03e93ff9f4daa797ed6e38ed64bf6a1f0160401b8104614564565b919091828114614773576146ac83546106ee565b6001600160401b038111610756576146c881612b0884546106ee565b5f93601f821160011461470257612b3e92939482915f926146f75750508160011b915f199060031b1c19161790565b015490505f80612b2a565b614714601f198316915f5260205f2090565b94614722845f5260205f2090565b915f5b81811061475b5750958360019596971061474357505050811b019055565b01545f1960f88460031b161c191690555f8080612b78565b9192600180602092868b015481550194019201614725565b509050565b9190612d0b57808203614789575050565b8054825560018101546001830155600282019160028201928381036147ae5750505050565b600860ff92819261484a965490556147cc6003860160038301614698565b6147dc6004860160048301614698565b6147ec6005860160058301614698565b60068581015490820155600780860154908201559190930180549390910180546001600160a01b0319166001600160a01b039490941693909317835554825460ff60a01b191660a091821c929092161515901b60ff60a01b16179055565b5f8080806138de565b6018548015614014575f190161486a816018610e6b565b612d0b576002815f61488393555f600182015501613f9e565b601855565b906148938183612db5565b91601854831015611c9f575f90815260126020908152604080832093835292905290812060068101805460ff60a01b19169055600401556018546148d690612d24565b908181036148e9575b5050610805614853565b6148ff6148f861490593610e4a565b5091610e4a565b90614778565b5f806148df56fea2646970667358221220d4768aada36be17563bdcca030ec20de4691b91d014865a0762d1ae33624d83f64736f6c634300081b0033",
  "linkReferences": {},
  "deployedLinkReferences": {}
}